:020000040000fa
:080000000002040000000000f2
:020000040000fa
:100400004f692100207f24000001880000000000c7
:100410000c00070080662300010020001f00070079
:10042000000020000000e000020032000000020096
:10043000000000007a3f0200000000000040da00e7
:100440000000fe004440a900401a20000000e00027
:100450000300320000002000a00188004440a800f2
:1004600000000600f03fb1000180b1000600350039
:10047000ee03090000000000403fb1000180b10020
:10048000fbff3d001000b000203fb000020035002f
:1004900000800900000000000000060091018800b3
:1004a000800078000000eb0015003700e28040007b
:1004b00032a0b4009101ba00e280400032a0b40042
:1004c0009102ba00e280400032a0b4000002eb00ca
:1004d000472bde00f507b200602ce10004003a0073
:1004e0000059eb008301e900fdff3e0004003700e6
:1004f0006128e100010032000082eb0004000700e7
:100500001101ba000200e000e8ff3a000000060016
:100510003159ba008301e9000c0032002159ba00b8
:100520008301e900080032000400e00003003a0003
:10053000e280400032a0b400f5ff370011d9ba00c4
:100540008301e900faff3a008100e800e180400001
:1005500032a0b400000006002a2b040000000000b6
:100560006045040000000000be44040000000000dc
:10057000889fbe008a9fbe00010578000100e00050
:100580000400350008003c000000e00020003200bc
:100590000500370060001000e080180002003b00fa
:1005a00001f02c001a0037000004be006011b800f2
:1005b0006b0920000982cf00020039000882cf00b9
:1005c0000441b000694252000e00320008003b00b6
:1005d00082817100610164008904d1000884d30024
:1005e0008b05e8000442e800f9ff3a0005003700f7
:1005f0000804440089844c008b05e9000442e900aa
:10060000fbff3a00d90007000af0a70001f0a000a4
:100610004f05be004f04be0000000600889fbe00cc
:100620008a9fbe008c1f7800f6000700fd00330093
:1006300003866c006450e100240032006420e10075
:10064000270032006150e100220032006120e10009
:10065000210032008b854200eb07b1000134b80065
:10066000003ab8000804420089844a00013ab80000
:100670000030b8008880400009014a0004003300bf
:100680000000400081804800020149008b05e9001c
:10069000c909dd0083017000010032001300200051
:1006a000c814de004814dd004709de001200b20065
:1006b000c808de0008847000ac00070001f0a1004b
:1006c0000cf0a70001f0a000df0037006120e1007e
:1006d000e10032000801be000200be00f7ff370053
:1006e0006150e100fcff3a00db003700889fbe004c
:1006f0008a9fbe008c1f7800c2000700c90033002b
:1007000003866c006450e1002e0032006420e1009a
:10071000330032006150e1002f0032006120e1001f
:100720003100320085855500eb07b000090020003c
:1007300008042000050037000804440089844c00a8
:100740000a0031000603430087834b000001530079
:1007500081815b00f8ff33000203be000800a000a7
:100760000804440089844c00f6ff3900c639dd00d6
:100770008301730001003200130020008904d100be
:100780000884d3000998a300050032000800a700e0
:100790000300a0008904d1000884d3008b05e80081
:1007a0008904d1000884d3000001eb000281d2004b
:1007b0006e00070001f0a1000cf0a70001f0a000fe
:1007c000a10037006420e100a30032000801be0050
:1007d0000200be00f7ff37006120e1009e003200fa
:1007e0006000b800f3ff37000000200001f8270088
:1007f000f0ff370003f0a200889fbe008a9fbe0072
:100800008c1f78007f000700860033006450e100f1
:100810004f0032006420e1005200320003826c007d
:1008200007003b000905d0000306d000820f5400ea
:100830000c065d00020039000200320089017800d8
:10084000030678008582550004003d000003fd008a
:100850008103fd008502ea008b854200840f72004f
:1008600002003b0060001000e08018006011b8003a
:100870000005eb007a28e1000a0039000600780044
:10088000c75ddd00f707b200878075002d003700d7
:10089000828171000a017800610560008180d100c9
:1008a0000080d3008502e900f9ff3b000604400008
:1008b0008784480002003b0060041400e0841c00b0
:1008c0000988a300070032008a81710082817100cb
:1008d000610164008904d1000884d3008b05e8001d
:1008e000170037000978a30013003a000b00e0005e
:1008f000130034008b05e9000804440089844c008f
:100900000a4474000978a3000d003a000b00e000cf
:10091000070034008b05e9000804440089844c007a
:1009200001003a000b0020000978a300f7ff320015
:100930000001eb0002003700828171000a0178009b
:100940000a0007000cf0a70001f0a0003e003700ed
:100950006420e10002003a00838f6c003e00330007
:100960000801be000200be003700370081002000f1
:10097000618055000b003d000b00200061fe2f0040
:100980000100e1001d0034008281710061016400fa
:100990008904d1000884d3000000e800faff3a007f
:1009a000710020006100640003007000020060001c
:1009b0000900320061044400e0844c000988a5006d
:1009c000050032008b05e8006808e10002003a00eb
:1009d0008904d1000884d300f20f20000258e100fe
:1009e00005003d00c75ddd00f907b2008980750094
:1009f00008007800000006000bf827008b00780044
:100a0000000005000004be00160007000003be0041
:100a10000405be000200be0012000700844f7500ee
:100a2000000006000200be006450e1000500360030
:100a30006420e100020036000968a30001003a00ca
:100a40000800be000160a0004f0678004f05be0000
:100a50004f04be0000000600f0ff2f00f1ff27004a
:100a6000f9ff3700c70ade00f107b200f50fb20048
:100a700008003200e1cf4200020032000170a00005
:100a800024000500810f70000100320004080500f9
:100a900044000500810f700002003a0014000500b8
:100aa0008502e9000000400081c04800fcff3b00d7
:100ab0000170a0002400050021108800301088007b
:100ac0000000060006c2bf000008a300fdff3a00b8
:100ad00006c2bf000018a300faff3a0006c2bf001a
:100ae0000028a300f7ff3a0006c2bf000038a300a9
:100af000f4ff3a0006c2bf000048a300f1ff3a002d
:100b000009c2bf000068a300eeff3a000000060023
:100b10000602a800000006000080fb0010108800fc
:100b200008c2bf0001c8b300014060000080fb00a4
:100b30000000e9004f00de000000e90000000600b0
:100b40000642a800000006000662a80006c2bf0018
:100b50000038a300fdff3a0008c2a9000010800081
:100b60000080fb000000060006a2a8000682a80084
:100b7000000006008001eb000200370061f0790000
:100b80008301e800828f5100fcff3a00000006005c
:100b90000400fa00e0bf9f00e4815700812978003b
:100ba0000002eb000f0037006fb89700904078000c
:100bb0007fb89700104078000402e80080cf500012
:100bc000040032008180fb000080fb0000805000a8
:100bd000070037006fb897000000e800e0bf9f00f3
:100be0009309e800820f5200efff3a000000eb008b
:100bf0000080fa000000060000027800808f50009c
:100c00000a00310082814000808f510007003600c9
:100c1000020240008000eb00436278008100e8009f
:100c2000828f500007003200fbff37000200e00017
:100c30000400320002814000315a7800828f500057
:100c4000fdff3a00000006008001eb0002003700c3
:100c5000817178008301e800828f5100fcff3a0027
:040c6000000006008a
:020000040000fa
:020000040005f5
:0457f8009e430000cc
:020000040000fa
:020000040005f5
:0457fc00f81e000093
:020000040000fa
:10000800cc4a0000cc4a0000cc4a0000cc4a000090
:10001800cc4a0000cc4a0000cc4a0000cc4a000080
:10002800cc4a000024460000cc4a00006645000087
:10003800cc4a00004a460000cc4a00008c4500002b
:10004800b2450000cc4a0000cc4a00002e47000010
:100058007a47000008470000cc4a0000cc4a00005c
:10006800cc4a0000a0470000cc4a0000cc4a00005f
:10007800cc4a0000cc4a0000cc4a0000cc4a000020
:10008800cc4a0000cc4a0000cc4a0000d845000009
:10009800fe450000cc4a000054470000cc4a00004e
:1000a800cc4a0000cc4a0000cc4a0000cc4a0000f0
:1000b800cc4a00007046000096460000bc4600008e
:1000c800e2460000cc4a0000cc4a0000cc4a0000be
:1000d800cc4a0000cc4a0000cc4a0000cc4a0000c0
:1000e800cc4a0000cc4a0000c6470000cc4a0000b9
:1000f800cc4a0000cc4a0000cc4a0000cc4a0000a0
:10010800cc4a0000cc4a0000cc4a0000cc4a00008f
:10011800cc4a0000cc4a0000cc4a0000cc4a00007f
:10012800cc4a0000cc4a0000cc4a0000cc4a00006f
:10013800cc4a0000cc4a0000cc4a0000cc4a00005f
:10014800cc4a0000cc4a0000cc4a0000cc4a00004f
:10015800cc4a0000cc4a0000cc4a0000cc4a00003f
:10016800cc4a0000cc4a0000cc4a0000cc4a00002f
:10017800cc4a0000cc4a000080080000cc4a0000ad
:10018800cc4a0000cc4a0000cc4a0000cc4a00000f
:10019800cc4a0000cc4a0000cc4a0000cc4a0000ff
:1001a800cc4a0000cc4a0000cc4a0000cc4a0000ef
:1001b800cc4a0000cc4a0000cc4a0000cc4a0000df
:1001c800cc4a0000cc4a0000cc4a0000cc4a0000cf
:1001d800cc4a0000cc4a0000cc4a0000cc4a0000bf
:1001e800cc4a0000cc4a0000cc4a0000cc4a0000af
:0801f800cc4a0000cc4a0000d3
:020000040000fa
:10020800cc4a0000cc4a0000cc4a0000cc4a00008e
:10021800cc4a0000cc4a0000cc4a0000cc4a00007e
:10022800cc4a000024460000cc4a00006645000085
:10023800cc4a00004a460000cc4a00008c45000029
:10024800b2450000cc4a0000cc4a00002e4700000e
:100258007a47000008470000cc4a0000cc4a00005a
:10026800cc4a0000a0470000cc4a0000cc4a00005d
:10027800cc4a0000cc4a0000cc4a0000cc4a00001e
:10028800cc4a0000cc4a0000cc4a0000d845000007
:10029800fe450000cc4a000054470000cc4a00004c
:1002a800cc4a0000cc4a0000cc4a0000cc4a0000ee
:1002b800cc4a00007046000096460000bc4600008c
:1002c800e2460000cc4a0000cc4a0000cc4a0000bc
:1002d800cc4a0000cc4a0000cc4a0000cc4a0000be
:1002e800cc4a0000cc4a0000c6470000cc4a0000b7
:1002f800cc4a0000cc4a0000cc4a0000cc4a00009e
:10030800cc4a0000cc4a0000cc4a0000cc4a00008d
:10031800cc4a0000cc4a0000cc4a0000cc4a00007d
:10032800cc4a0000cc4a0000cc4a0000cc4a00006d
:10033800cc4a0000cc4a0000cc4a0000cc4a00005d
:10034800cc4a0000cc4a0000cc4a0000cc4a00004d
:10035800cc4a0000cc4a0000cc4a0000cc4a00003d
:10036800cc4a0000cc4a0000cc4a0000cc4a00002d
:10037800cc4a0000cc4a000080080000cc4a0000ab
:10038800cc4a0000cc4a0000cc4a0000cc4a00000d
:10039800cc4a0000cc4a0000cc4a0000cc4a0000fd
:1003a800cc4a0000cc4a0000cc4a0000cc4a0000ed
:1003b800cc4a0000cc4a0000cc4a0000cc4a0000dd
:1003c800cc4a0000cc4a0000cc4a0000cc4a0000cd
:1003d800cc4a0000cc4a0000cc4a0000cc4a0000bd
:1003e800cc4a0000cc4a0000cc4a0000cc4a0000ad
:0803f800cc4a0000cc4a0000d1
:020000040000fa
:100c6400436f00006d700000757400006572000031
:100c7400206200006f6f00007420000066610000b5
:100c8400696c00006564000020200000004300003f
:100c94006f6d000070750000746500007220000024
:100ca400626f00006f740000656400002020000083
:100cb4000d0a0000004900006e6900007420000065
:100cc400666900006e6900007368000065640000d6
:100cd400202000000d0a0000004d00006179000092
:100ce4002032000033200000323000003132000096
:100cf40000310000383a0000353900003a32000073
:100d040038000000000000000024000047500000ec
:100d140047470000414200006f6f0000742000004c
:100d240031200000200d00000a000000426f000086
:100d34006f74000020320000202000000d0a000023
:100d4400004300006f6d00007075000074650000c2
:100d5400722000006f760000657200006865000074
:100d64006174000020640000657400006563000085
:100d74007465000064200000200d00000a000000db
:100d84004e6f0000206300006f6d0000707500005e
:100d940074650000722000006f7600006572000028
:100da4006865000061740000206400006574000040
:100db400656300007465000064200000200d0000dd
:100dc4000a000000090200002000000001010000e8
:100dd40000c000003209000004000000000200000e
:100de400ffff0000ff0000000705000001010000f4
:100df400ffff0000010700000581000001ff000063
:100e0400ff01000004030000010000001a030000b9
:100e1400520000006f000000620000006f0000003c
:100e24007400000065000000580000002c00000061
:100e340020000000490000006e0000006300000074
:100e44002c0300004d000000610000007900000048
:100e540020000000320000003300000020000000e9
:100e640032000000300000003100000032000000b9
:100e74002000000031000000380000003a000000ab
:100e840035000000390000003a0000003300000083
:100e94003000000000000000e48600000487000029
:100ea40008870000228700000d0a00004669000040
:100eb400726d00007761000072650000206200001e
:100ec400756900006c6400003a20000020000000f6
:100ed4000d0a000000520000434f00004e200000a5
:100ee40020200000202000002020000020200000fe
:100ef4002020000020200000200d00000a00000037
:100f040020200000202000002020000020200000dd
:100f140020200000202000002020000020200000cd
:100f240020200000200a0000000d00000a420000fa
:100f34006f61000072640000206e0000756d000097
:100f440062650000723a000020200000004c00009e
:100f54006f6f00007020000020200000202000009f
:100f64002020000020200000200d00000a000000c6
:100f7400000000000000000000000000000000006d
:100f840000000000800000000000000000000000dd
:100f940000010000bfff0000ffff0000ffff000092
:080fa400ffff0000ff00000048
:020000040000fa
:100fac000200fa009ec0a900f00f200070248800f7
:100fbc00f00f2000502488002000200030258800ed
:100fcc000000eb00402588008644a900f0092000b1
:100fdc0080248800f0092000602488008804a80080
:100fec00002021004800de00c02488009424a800c2
:100ffc000000eb00b02488000000eb0060258800a6
:10100c009424a9000040eb00004f78000700370043
:10101c001e80fb00c200dd0000202100008140008a
:10102c006000b8000089be001e4fe80070c0b3001d
:10103c009e4f1000f6ff3600d0002000502588008f
:10104c000200370080002000502488008ac4bf00b2
:10105c00684060000004e000faff3a000040eb003a
:10106c0088f1b7000040eb0093f1b70094d1bf00ba
:10107c006040600094f1b70095d1bf006040600003
:10108c0095f1b70094a4a9000040eb00004f780044
:10109c000d0037001e80fb008000400080192100ed
:1010ac00808040000000eb00800878001e80fb0070
:1010bc0080004000201a2100808040000000eb00de
:1010cc00800878001e4fe80010c0b3009e4f10003f
:1010dc00f0ff360080202100c08c88000040eb001f
:1010ec0090f1b7000000eb00708c88000080fa00d3
:1010fc00000006003600f800809fbe00829fbe00f4
:10110c00849fbe00869fbe003400f80000002000c3
:10111c00a00188000200fa00708c8000e10f5000e2
:10112c000a003a0094c4bf000044b2000004e0007e
:10113c0006003a00f00f2000502488008c04a80010
:10114c008c84a80020002000708c880080c4bf0014
:10115c00704060000004e0000700320082c4bf0051
:10116c00704060000004e000030032000001200029
:10117c0000248800a200070088c4bf006240600001
:10118c000004e000020032008ec0a900730037009a
:10119c008ac4bf00614060000004e0001800320007
:1011ac008cc4bf00614060000004e00014003200f9
:1011bc007bff07009ec0a80040002000708c8800b8
:1011cc00201b21001090880080c0b30000f2b700f3
:1011dc00112021009140780030c0b30000c06000a5
:1011ec0001f2b7001120210091407800c0c8b30073
:1011fc0000c0700001f2b7001000200050248800dd
:10120c008ac4bf00704060000004e0000700320098
:10121c008cc4bf00704060000004e000030032008a
:10122c006d00070000012000502488008ac4bf0014
:10123c00644060000004e0000a0032008cc4bf006f
:10124c00644060000004e000060032001200200040
:10125c008000eb0030072000921c070040002000ab
:10126c00502488008ac4bf0001c8b300014060004c
:10127c000004e000060032008cc4bf0001c8b300bb
:10128c00014060000004e000010032003b00070058
:10129c008ac4bf00624060000004e0000a00320013
:1012ac008cc4bf00624060000004e0000600320005
:1012bc00120020008000eb00f0ff2700791c0700d3
:1012cc00f00f200070248800708c8000e30f500019
:1012dc0002003e008ec0a900200037008cc4bf0065
:1012ec00684060000004e0001b0032000040eb008e
:1012fc00004f7800150037008ac4bf0068406000ba
:10130c000004e0001400320090248000aaf1b70021
:10131c008000200050248800aad1bf008080fb00f0
:10132c00000f2000008060000000e00002003a0086
:10133c003d00070004003700a11a21000001eb005a
:10134c0020072000571c07001e4fe80030c0b300d8
:10135c009e4f1000e8ff36008ec0a9000080fa00f6
:10136c003400f9004f03be004f02be004f01be0017
:10137c004f00be003600f900004006000000fa00e5
:10138c00aac4bf00624060000004e0000e003200fe
:10139c00f08c80009040900000c8b30080cf5000cb
:1013ac0008003a00c08c80009040900040c8b30008
:1013bc0080cf500003003a00f18c8000c0c8b3000d
:1013cc0090409800aa24a90000082000502488000e
:1013dc000080fa00000006000000fa008284a800d9
:1013ec0000012000502488000001eb008000eb007d
:1013fc00500720002b1c07000080fa00000006009c
:10140c000000fa000001eb008000eb004007200018
:10141c00241c07008284a9000001200000248800fd
:10142c000080fa00000006000200fa00aad1bf00fa
:10143c008080fb00b0ff2f00008060000000e00007
:10144c0035003a00aad1bf008080fb00c00f2000fd
:10145c00008060004280de004200dd0080007800e9
:10146c000020210000804000f08c8800f08c80006f
:10147c00008d8800011a2100001a2100104078000c
:10148c000024a20080487800f08c8000104090006e
:10149c00c2c3b3008240600040c3b30080cf500091
:1014ac001b003a00f08c800090009000a01b2100e3
:1014bc00808f500014003a00f18c8000201b21001a
:1014cc00900098000040eb00004f78000b003700b4
:1014dc001e80fb0080007800201b21000081400052
:1014ec001e80fb0080007800a01b210000804000c3
:1014fc0010407800004978001e4fe80070c0b3001f
:10150c009e4f1000f2ff36000c0007000900370058
:10151c002800070007003700aad1bf008080fb001d
:10152c00b0ff2f0000806000e80f500001003a006f
:10153c00380007000080fa00000006000000fa00e6
:10154c00c08c80009040900000c8b30000c06000c8
:10155c000004e00003003200c18c80000040eb006e
:10156c00904098000040eb00a6f1b7000040eb0063
:10157c00a7f1b70089d1bf006040600089f1b700c6
:10158c008ad1bf00604060008af1b7000040eb00d8
:10159c0088f1b700780007000001eb008000eb0039
:1015ac0030002000bf1b07000e0207000080fa006d
:1015bc00000006000000fa00a7d1bf00e24f500067
:1015cc0002003a0011030700100037004600070024
:1015dc00608d80000000e0000a003a00018d800060
:1015ec0080c0b30080487800018d8000201b210052
:1015fc0090009800018d8000c0c8b3009040980006
:10160c00020037000000eb00608d88000080fa00bb
:10161c00000006000200fa00c08c80001040900010
:10162c000080fb004600de0061406000004f780047
:10163c008119210080192100104078000024a2009b
:10164c0080487800708c8000e80f50000b003a0046
:10165c00b4d1bf000080fb00b0248800b02480000f
:10166c000000e0000300320000012000708c8800b4
:10167c000200370040002000708c8800a7d1bf000a
:10168c00e14f500015003a00c18c8000a01b2100d6
:10169c00900098005c020700a6d1bf00e24f5000fa
:1016ac0004003a00c18c800040c8b3009040980000
:1016bc000b0037001e04e00004003a00c18c8000cf
:1016cc0080ccb3009040980005003700c18c80009e
:1016dc0080c8b3009040980001003700020007005a
:1016ec000080fa00000006000200fa000040eb0047
:1016fc00a7f1b700c18c80000040eb00904098002f
:10170c00c08c80000020a200000f78009e007800a2
:10171c000040eb0090409800311921009140780076
:10172c0000c8b30000c060000004e00010003200ec
:10173c0096d1bf008080fb0097d1bf000080fb00da
:10174c004800dd00010070000000e00007003200de
:10175c0096d1bf008080fb0097d1bf000080fb00ba
:10176c004800dd00010070000000010093f1a900a9
:10177c000080fa00000006000400fa00b2d1bf009d
:10178c000046b2000004e00058003a00b3d1bf009c
:10179c000080fb006101b900028fbe00b000200088
:1017ac00010020001e01be00800f5100818f5900e6
:1017bc004e003e001e00be000060010024003700f9
:1017cc002500370049003700230037004700370059
:1017dc000600370009003700400037000b003700c7
:1017ec00080037001e0037003300370088f1a800ce
:1017fc0080002000708c88003c003700a40007009b
:10180c003a003700000307003800370002192100a6
:10181c00f00f20008000610086d1bf0060406000a6
:10182c000140700086f1b700c810de0087d1bf0000
:10183c00604060000140700087f1b7008811a8007b
:10184c0010c0b30089f1b70088f1a8002700370059
:10185c000e01070025003700260007002300370083
:10186c00b6d1bf000080fb0080007800c0192100b9
:10187c000080400000017800f00f20008000610023
:10188c0086d1bf00604060000140700086f1b70057
:10189c00c810de0087d1bf006040600001407000be
:1018ac0087f1b7008811a80010c0b30089f1b70008
:1018bc0088f1a8000d00370088f1a800b6d1bf0050
:1018cc008080fb00421b210012417800c0192100ce
:1018dc000080400002487800040037000001eb0053
:1018ec008000eb0020002000ee1a07000080fa00b8
:1018fc00000006000400fa00b4d1bf00e14f500014
:10190c000d003a00b2d1bf007f4060000004e0003f
:10191c0009003a0088f1a800b3d1bf00e34f500092
:10192c0003003a0010002000608c88000200370091
:10193c000000eb00608c8800b4d1bf000004e00014
:10194c0051003a00b2d1bf007f406000e24f50001e
:10195c004d003a00b6d1bf006f4060000004e000bb
:10196c004900320088f1a800b6d1bf0001c8b3000d
:10197c00014060000004e00009003a00b6d1bf004d
:10198c006f4060000080fb0080004000201a2100a6
:10199c000080400010007800100798000800370005
:1019ac00b6d1bf006f4060000080fb00800040009b
:1019bc00801921000080400010007800100798006a
:1019cc00b3d1bf00e34f500004003a009e009000da
:1019dc0040c8b300904098002b003700b6d1bf0030
:1019ec006f4060000080fb00000040008000780029
:1019fc00a04a200000804000000f78001e007800f4
:101a0c0090407800d0cfb30080c060001e007800fa
:101a1c0001487800611b21009140780000c8b30098
:101a2c0000c060000004e0000c0032009e0090003a
:101a3c000040eb00904098008e80e8000e80e8009b
:101a4c00104078000024a200804878009e0090008e
:101a5c0000c4b300904098000b0037009e0090002b
:101a6c0080c8b300904098008e80e8000e80e8009b
:101a7c00104078000024a200804878009e0090005e
:101a8c0080ccb300904098000080fa000000060063
:101a9c000200fa00211b21009140780000c8b3001d
:101aac0080cf500077003a0000ccb30088f1b7002b
:101abc00b5d1bf000080fb00000f78001e0078003d
:101acc00e20f50001b0032001e007800e30f5000a4
:101adc003e0032001e007800e10f50000100320081
:101aec0066003700621e2100f00f200080006100ac
:101afc0086d1bf00604060000140700086f1b700e5
:101b0c00c810de0087d1bf0060406000014070004b
:101b1c0087f1b70089d1bf00604060002041b3005d
:101b2c0089f1b7008ad1bf00604060008af1b7002c
:101b3c0054003700b4d1bf000080fb00000040000f
:101b4c0080007800e07428000080400010017800cc
:101b5c00f00f20008000610086d1bf006040600063
:101b6c000140700086f1b700c810de0087d1bf00bd
:101b7c00604060000140700087f1b70086d1bf0063
:101b8c008080fb0087d1bf000080fb004800dd0097
:101b9c00010070000080e80010017800f00f2000b8
:101bac008000610089d1bf0060406000014070007e
:101bbc0089f1b700c810de008ad1bf006040600018
:101bcc00014070008af1b7002e003700b4d1bf007d
:101bdc00e24f500026003e00b4d1bf000080fb0055
:101bec000000400080007800007528000080400054
:101bfc0010017800f00f20008000610086d1bf003a
:101c0c00604060000140700086f1b700c810de0033
:101c1c0087d1bf00604060000140700087f1b700c1
:101c2c0086d1bf008080fb0087d1bf000080fb0005
:101c3c004800dd0001007000104078000081fb00be
:101c4c00f00f20008000610089d1bf00604060006f
:101c5c000140700089f1b700c810de008ad1bf00c6
:101c6c0060406000014070008af1b7000500370049
:101c7c000040eb0088f1b700020037000040eb0099
:101c8c0088f1b7000080fa00000006000400fa009a
:101c9c000040eb00baf1b7000040eb00bbf1b7001d
:101cac00b2d1bf007f4060000080fb00100798009d
:101cbc001e009000e10f5000120032001e00900038
:101ccc00e20f5000110032001e0090000000e000f6
:101cdc00010032002d00370088f1a800bad1bf00f6
:101cec000004a000baf1b700608c8000e10f500036
:101cfc0026003a00bad1bf000014a000baf1b70018
:101d0c002200370088f1a8002000370088f1a800d5
:101d1c00b6d1bf0001c8b300014060000004e00070
:101d2c0009003a00b6d1bf006f4060000080fb0094
:101d3c0080004000201a2100008040001000780034
:101d4c00000f780008003700b6d1bf006f4060006c
:101d5c000080fb00800040008019210000804000c2
:101d6c0010007800000f78001e00780010409000e2
:101d7c000080fb004200de00610060000004e00017
:101d8c000200320010c0b300baf1b70088d1bf0016
:101d9c0001c8b300014060000004e0000f003200f5
:101dac00a21b2100f00f20008000610086d1bf0033
:101dbc00604060000140700086f1b700c810de0082
:101dcc0087d1bf00604060000140700087f1b70010
:101ddc008811a80020c0b30089f1b7000080fa0078
:101dec00000006000000fa0094a4a90088d1bf00ee
:101dfc0001c8b300014060000004e00024003a0078
:101e0c0093d1bf0001c8b300014060000004e000a2
:101e1c001200320020c0b300a7f1b700c18c8000c3
:101e2c000040eb0080487800c18c800080ccb3006f
:101e3c0090409800018d800080c0b30080487800ed
:101e4c00018d8000a01b210090009800018d800066
:101e5c0080ccb3009040980069003700018d800061
:101e6c0080c0b30080487800018d8000201b2100c9
:101e7c0090009800018d8000c0c8b300904098007d
:101e8c00c18c800040c8b300904098005c003700c3
:101e9c0093d1bf0001c8b300014060000004e00012
:101eac0057003a00b2d1bf0001c8b3000140600036
:101ebc000004e00041003200b8d1bf008080fb007c
:101ecc00b9d1bf000080fb004800dd0001007000ac
:101edc000001780089d1bf008080fb008ad1bf004f
:101eec000080fb004800dd0001007000800f5100f5
:101efc0012003100b8d1bf008080fb00b9d1bf0007
:101f0c000080fb004800dd0001007000000178003b
:101f1c00f00f20008000610089d1bf00604060009c
:101f2c000140700089f1b700c810de008ad1bf00f3
:101f3c0060406000014070008af1b7003200070079
:101f4c0010c0b300a7f1b700018d800080c0b300b2
:101f5c0080487800018d8000201b210090009800a3
:101f6c00018d800000c8b300904098000000eb0089
:101f7c00608d8800f18c800080c0b30080487800b0
:101f8c00f18c8000201b210090009800f18c8000c7
:101f9c0040c8b3009040980010002000608d88006d
:101fac00c18c8000a01b210090009800c18c800087
:101fbc0080ccb300904098001100370020c0b300d3
:101fcc00a7f1b700c18c80000040eb00804878007e
:101fdc00c18c800080ccb30090409800018d8000b3
:101fec0080c0b30080487800018d8000a01b2100c8
:101ffc0090009800018d800080ccb3009040980038
:10200c000080fa00000006000200fa0089d1bf002f
:10201c008080fb008ad1bf000080fb004800dd00ff
:10202c0001007000e70f500013003e0089d1bf0083
:10203c008080fb008ad1bf000080fb004800dd00df
:10204c0001007000000f7800a6d1bf000004e00072
:10205c0003003a0010c0b300a6f1b7000800370027
:10206c00a6d1bf00e14f500005003a0020c0b300dc
:10207c00a6f1b7000200370080002000000f7800a6
:10208c00c28c8000c08c8000904090001e4090005c
:10209c0000c0700010419800c18c80001e40780078
:1020ac008048780089d1bf008080fb008ad1bf00b6
:1020bc000080fb004800dd0001007000800078000b
:1020cc001e00780000815000f00f2000800061009d
:1020dc0089d1bf00604060000140700089f1b700f9
:1020ec00c810de008ad1bf00604060000140700063
:1020fc008af1b700a01b2100408d880088d1bf0059
:10210c00614060000004e0003b003a001b00370017
:10211c00428d800086d1bf008080fb0087d1bf003c
:10212c000080fb004800dd0001007000800078009a
:10213c0011407800004978000200e800408d8800ca
:10214c000101e800f00f20008000610086d1bf0083
:10215c00604060000140700086f1b700c810de00de
:10216c0087d1bf00604060000140700087f1b7006c
:10217c001e0078000000e900000f78001e007800b7
:10218c000000e000e2ff3a001e003700428d8000a4
:10219c0086d1bf008080fb0087d1bf000080fb0090
:1021ac004800dd00010070008000780011407800cc
:1021bc00004978000200e800408d88000101e80029
:1021cc00f00f20008000610086d1bf0060406000ed
:1021dc000140700086f1b700c810de0087d1bf0047
:1021ec00604060000140700087f1b7001e0078006d
:1021fc000000e900000f78001e0078000000e000ed
:10220c00e2ff3a000080fa00000006000200fa002b
:10221c00f08c800090407800114798001e40900090
:10222c000081fb0094d1bf008080fb0095d1bf00e2
:10223c000080fb004800dd0001007000800f5100a1
:10224c000700360094d1bf008080fb0095d1bf0001
:10225c000080fb004800dd00010070001047980072
:10226c0094d1bf008080fb0095d1bf000080fb00a3
:10227c004800dd0001007000800078001e409000d6
:10228c000080fb0000815000f00f200080006100f6
:10229c0094d1bf00604060000140700094f1b70021
:1022ac00c810de0095d1bf00604060000140700096
:1022bc0095f1b7000040eb00004f78001900370093
:1022cc0091d1bf008080fb0092d1bf000080fb0049
:1022dc004800dd0001007000000178009e80fb00ca
:1022ec00a01b2100008040001040780000497800bd
:1022fc000201e800f00f20008000610091d1bf00c6
:10230c00604060000140700091f1b700c810de0021
:10231c0092d1bf00604060000140700092f1b700a4
:10232c001e4fe8001e4090009e4f1000e4ff390045
:10233c0094d1bf008080fb0095d1bf000080fb00d2
:10234c004800dd00010070000000e00013003200c6
:10235c00018d800080c0b30080487800018d800022
:10236c00a01b210090009800f08c80001040900081
:10237c000044b2000004e00004003a00018d80002b
:10238c0080ccb300904098001d003700018d800078
:10239c0080c8b3009040980019003700018d800070
:1023ac0080c0b30080487800018d8000201b210084
:1023bc0090009800018d800040c8b30090409800b8
:1023cc0096d1bf008080fb0097d1bf000080fb003e
:1023dc004800dd00010070000000e0000700320042
:1023ec0096d1bf008080fb0097d1bf000080fb001e
:1023fc004800dd00010070000000010093f1a9000d
:10240c000080fa00000006000200fa0088f1a80023
:10241c000000eb00602588000040eb00004f7800c6
:10242c00070037001e80fb00c200dd0000202100e9
:10243c00008140006000b8000089be001e4fe8001b
:10244c0070c0b3009e4f1000f6ff36009424a80015
:10245c000040eb009cf1b7009424a90080202100df
:10246c00c08c880000202100f08c8800f08c80004b
:10247c00008d8800b4d1bf0090f1b70090d1bf009f
:10248c000004e00003003a0000012000708c88007a
:10249c000600370012002000011921001000200056
:1024ac000018070000022000708c88000080fa00e1
:1024bc00000006000400fa002047980031479800fd
:1024cc0000202100000f78002e4090000080fb00bf
:1024dc0000004000800078003e4090000080fb002f
:1024ec00008040004300dd004200de004200dd00c1
:1024fc001e0f40009e007800114090000074a10057
:10250c00904098003e4090000004e00007003a0024
:10251c002e4090000080fb0080004000201a21001b
:10252c00008040001e087800060037002e40900006
:10253c000080fb00800040008019210000804000da
:10254c001e0878001e01780092409000f0cbb3007a
:10255c0000c06000104198001e007800640140002b
:10256c009240900000c4b30000c07000104198006d
:10257c000080fa00000006000400fa0020479800d2
:10258c00314798002e4090000080fb000000400076
:10259c0080007800a04a200000804000000f7800e6
:1025ac001e007800be409000014878003e4090002c
:1025bc000080fb004300de00610060000004e000ce
:1025cc00030032008040eb002e409000b9ff070062
:1025dc003e4090000080fb004200de006100600085
:1025ec000004e0000300320011c0b3002e40900044
:1025fc00b0ff07000080fa00000006000400fa009b
:10260c0020479800314798002e4090000004e000cd
:10261c000d003a00018d800080c0b3008048780026
:10262c00018d8000201b210090009800018d8000fe
:10263c00c0c8b30090409800c18c800040c8b30063
:10264c0090409800230037002e4090000080fb0043
:10265c0000004000800078003e4090000080fb00ad
:10266c00008040004300dd00800078000020210045
:10267c0000804000000f78001e0078009040900011
:10268c0040c8b30080c070001e0078001140980054
:10269c002e4090000080fb0000004000800078007d
:1026ac003e4090000080fb00008040004300dd00b5
:1026bc008000780040202100008f40001e00780030
:1026cc009040900040c8b30080c070001e0078009d
:1026dc00114098000080fa00000006000a00fa0081
:1026ec0020479800314798002207980063479800cc
:1026fc003e4090000004e000070032002e409000a5
:10270c000080fb0080004000801921000080400008
:10271c00100f7800060037002e4090000080fb0060
:10272c0080004000201a210000804000100f78002b
:10273c001e00e00003003a000000eb004007980088
:10274c00390037002e009000800078001e007800c1
:10275c00110098001e007800ee40900001487800af
:10276c001e0078001040900002c4b300824060004c
:10277c001e007800114098001e00780090409000d8
:10278c0080c8b30080c070001e0078001140980013
:10279c003e4090000004e000110032002e409000fa
:1027ac000080fb00000040008000780080192100b0
:1027bc0000804000000178002e4090000080fb005b
:1027cc00000040008000780080192100008040004b
:1027dc00104078000024a200004978001000370057
:1027ec002e4090000080fb0000004000800078002c
:1027fc00201a210000804000000178002e4090003b
:10280c000080fb000000400080007800201a2100ae
:10281c0000804000104078000024a200004978009d
:10282c001e007800400798004e0090000080fa00cf
:10283c00000006000600fa00004f780094c4bf00a8
:10284c000042b2000004e0005f0032001e80fb007a
:10285c0080004000801921000080400010037800a7
:10286c001e80fb0080004000801921000080400089
:10287c00100078001000be000204200003002000ad
:10288c000002780081027800020078008300780052
:10289c0000016200018062006102b8001407980018
:1028ac00250798001e009000ae009000c000dd00cf
:1028bc000000200010079800210798001e009000cf
:1028cc00ae0090006112b80014079800250798001c
:1028dc001e019000ae019000020070008380700019
:1028ec00008bbe001e80fb00800040008019210080
:1028fc0000804000100278001e80fb008000400029
:10290c008019210000804000100078001001be00ea
:10291c000004200001002000000069008180690093
:10292c00008abe001e80fb00000040008000780082
:10293c008019210000804000000178001e80fb00ff
:10294c0000004000800078008019210000804000c9
:10295c00104078000024a200004978001e80fb0083
:10296c008000400080192100008040001001780098
:10297c001e80fb0080004000801921000080400078
:10298c0010007800104090000044b20010419800f4
:10299c001e80fb0080004000801921000080400058
:1029ac00100178001e80fb0080004000801921007f
:1029bc0000804000100078009040900000c4b300ec
:1029cc0000c06800104198000080fa00000006006a
:1029dc000000fa000000eb00a02488000000eb00cf
:1029ec00602488000000eb00708c88000080fa00e6
:1029fc00000006000000fa00708c80000000e0006f
:102a0c0016003a000000eb00a02488000000eb0048
:102a1c006024880020002000302588000000eb0096
:102a2c00402588008644a900f009200080248800f5
:102a3c00f0092000602488009ec0a8000100370027
:102a4c009404a80094c4bf00614060000004e0003e
:102a5c00fbff320010002000708c88000080fa0010
:102a6c00000006005400fa0020cf9800612798005f
:102a7c0072279800032f980030c2b30010cf980033
:102a8c007e2090000000e000030032000e28900031
:102a9c000000e00003003a0010fd2f00102f9800fa
:102aac003b0037000e00e8005202200051022100ca
:102abc004ef807000e00e800aec8900021409800c8
:102acc006e209000c800de004801dd00010171009d
:102adc008e00e800f00f2000800161003140900072
:102aec006040600003407000b04098004811de0068
:102afc00414090006040600002407000c04098006f
:102b0c000e00e8006500400002022000fe2090004c
:102b1c0036f80700610220008e80400090042000ef
:102b2c000e0040008e02e8000002780033c0b300b3
:102b3c001200200005007800d0130700004f780029
:102b4c001e04e000030032001e00fb00102f980052
:102b5c000f0037009ec8900030c2b30080cf5000e9
:102b6c000300320021ff2f00112f980008003700be
:102b7c00600220000e0040008000e80002022000ed
:102b8c000e28900019f807001e00fb00102f98006b
:102b9c001e2890000080fa00000006001600fa00c3
:102bac00604f9800010f9800120f980070c0b3008e
:102bbc00504f980000ceb300004f78001e089000d4
:102bcc000000e00003003a0010fd2f00200f9800d9
:102bdc00350037006800470052002000c10021007a
:102bec0002f8070068004700ee489000214098006a
:102bfc00680147008e089000f00f200000806000f4
:102c0c00c801dd0092009000f00f200000806000f1
:102c1c0003007000100198000e089000c800de0040
:102c2c00f00f200080816000a200900000f02f00c7
:102c3c000080600003007000200198008e00e80006
:102c4c006d004700e80247000002780033c0b30073
:102c5c00220020000500780088130700004f780040
:102c6c001e04e000030032001e00fb00200f980041
:102c7c000d0037005e489000e74f50000300320013
:102c8c0021ff2f00210f9800070037001e0890002d
:102c9c008e00e8008100e80042002000d3f7070016
:102cac001e00fb00200f98002e0890000080fa00f8
:102cbc00000006000e00fa005007980070c0b30028
:102ccc00004f98005e0090000000e00003003a0006
:102cdc0010fd2f00600798001a0037008e00e800e6
:102cec00680047000002780033c0b30022002000c7
:102cfc006001210061130700004f78001e04e00002
:102d0c00030032001e00fb00600798000d00370026
:102d1c000e489000e74f50000300320020ff2f00b8
:102d2c0060079800070037005e0090008e00e800f6
:102d3c008100e80032002000acf707001e00fb0009
:102d4c00600798006e0090000080fa0000000600fa
:102d5c000e00fa005007980070c0b300004f9800a6
:102d6c005e0090000000e00003003a0010fd2f0010
:102d7c0060079800190037008e00e80068004700d3
:102d8c000002780033c0b3002200200000022100b2
:102d9c003a130700004f78001e04e00003003200d5
:102dac001e00fb00600798000c0037000e489000d6
:102dbc00e74f50000300320020ff2f0060079800ff
:102dcc00060037000e00e800c04090005e00900046
:102ddc00014878001e00fb00600798006e00900010
:102dec000080fa00000006000e00fa005007980060
:102dfc0070c0b300004f98005e0090000000e0002f
:102e0c0003003a0010fd2f00600798001a003700ed
:102e1c008e00e800680047000002780033c0b30061
:102e2c00220020001001210014130700004f78002d
:102e3c001e04e000030032001e00fb006007980037
:102e4c000d0037000e489000e74f50000300320091
:102e5c0020ff2f0060079800070037005e009000ed
:102e6c008e00e8008100e800420020005ff70700b8
:102e7c001e00fb00600798006e0090000080fa00b6
:102e8c00000006000e00fa005007980070c0b30056
:102e9c00004f98005e0090000000e00003003a0034
:102eac0010fd2f0060079800470037008e00e800e7
:102ebc00680047000002780033c0b30022002000f5
:102ecc00c0002100ed120700004f78001e04e00046
:102edc00030032001e00fb00600798003a00370028
:102eec000e489000e74f50000300320020ff2f00e7
:102efc006007980034003700de0190000e00e800f7
:102f0c008000e800220020000300780037f707005b
:102f1c000e00e8008040eb00014878000000e8005b
:102f2c008040eb00014878000000e8008040eb0096
:102f3c00014878000000e8008040eb000148780070
:102f4c000000e8008040eb00014878000000e80039
:102f5c008040eb00014878000000e8008040eb0066
:102f6c00014878008e00e8006800470000027800f5
:102f7c0033c0b3002200200060012100bf12070003
:102f8c00004f78001e04e000030032001e00fb001e
:102f9c00600798000c0037000e489000e74f500077
:102fac000300320020ff2f00600798000600370056
:102fbc000e00e800c04090005e0090002140980098
:102fcc001e00fb00600798006e0090000080fa0065
:102fdc00000006000e00fa005007980070c0b30005
:102fec00004f98005e0090000000e00003003a00e3
:102ffc0010fd2f00600798005e0037000e00e800ff
:10300c008040eb00014878000000e8008040eb00b5
:10301c00014878000000e8008040eb00014878008f
:10302c000000e8008040eb00014878000000e80058
:10303c008040eb00014878000000e8008040eb0085
:10304c00014878000000e8008040eb00014878005f
:10305c008e00e800680047000002780033c0b3001f
:10306c0022002000c000210084120700004f7800cd
:10307c001e04e000030032001e00fb0060079800f5
:10308c003c0037000e489000e74f50000300320020
:10309c0020ff2f0060079800360037000e00e80074
:1030ac00e30040005e00900022002000cff60700f5
:1030bc000e00e8008040eb00014878000000e800ba
:1030cc008040eb00014878000000e8008040eb00f5
:1030dc00014878000000e8008040eb0001487800cf
:1030ec000000e8008040eb00014878000000e80098
:1030fc008040eb00014878000000e8008040eb00c5
:10310c00014878008e00e800680047000002780053
:10311c0033c0b30022002000b00121005712070079
:10312c00004f78001e04e000030032001e00fb007c
:10313c00600798000f0037000e489000e74f5000d2
:10314c000300320020ff2f006007980009003700b1
:10315c005e0090008081e8000e00e8008000e8002e
:10316c004200200003007800a0f607001e00fb00c0
:10317c00600798006e0090000080fa0000000600c6
:10318c001200fa00404f980040c0b300204f980046
:10319c006500470052002000f105210093f607005e
:1031ac0065004700ce48900021409800e50047009c
:1031bc000040eb00c0409800e50047000040eb00e9
:1031cc00b04098008e00e8006a004700e502470016
:1031dc000002780033c0b3003200200005007800f4
:1031ec0026120700004f78001e04e0000300320096
:1031fc001e00fb00000f98000b0037000e00e800cb
:10320c00104090000004e0000300320021fd2f006c
:10321c0071079800020037000000eb00700798005f
:10322c00fe009000010f98000e0890000080fa003c
:10323c00000006002400fa00205f9800610f98003f
:10324c0020c0b3001047980000ceb300004f7800a8
:10325c0040c0b300605798006e0890000000e0007a
:10326c0003003a0010fd2f00101798003b003700a8
:10327c000e80e80002012000410621005bf60700e9
:10328c002e589000e14060000e80e800214098002c
:10329c000e80e80065004000b2002000ee089000af
:1032ac0052f6070020c0b300104798002e5890002b
:1032bc000004e00003003a001e4090000004a0004f
:1032cc001047980077004700bb17070078004700ad
:1032dc009a170700fe5090000e58900080cf5000b7
:1032ec0003003a006000200000179800020037002d
:1032fc005000200000179800f200470076004700ad
:10330c008e82e800000278009e4190000e11900021
:10331c0005007800d9110700004f78001e04e0006a
:10332c00030032001e00fb00101798000b00370042
:10333c0072004700104090000004e00003003200cf
:10334c0020fd2f00700f9800020037000000eb00ea
:10335c00700f98007e089000101798001e109000b7
:10336c000080fa00000006003200fa006017980096
:10337c0000ceb300004f780040c0b300206f98001f
:10338c006e1090000000e00003003a0010fd2f00ca
:10339c00001f9800250037000e00e80052022000a4
:1033ac004107210011f607000e00e80065004000ff
:1033bc0002022000ee1090000cf6070061022000c3
:1033cc008e804000a00220000e0040008e02e8001b
:1033dc000002780023c0b3008200200005007800b2
:1033ec00a6110700004f78001e04e0000300320015
:1033fc001e00fb00001f98000c003700600220002c
:10340c000e004000104090000004e0000300320069
:10341c0020fd2f0070179800020037000000eb0011
:10342c00701798007e109000001f98000e189000e6
:10343c000080fa00000006002400fa00600f9800db
:10344c00710f980040c0b300205f980000ceb3000d
:10345c00004f78007e0890000000e00003003a0066
:10346c0010fd2f0010179800320037000e00e800f6
:10347c0052012000a1042100dcf507006e08900029
:10348c00c800de004801dd00010171008e00e8007b
:10349c00f00f20008001610031409000604060001e
:1034ac0003407000b04098004811de00414090008d
:1034bc006040600002407000c04098000e00e800c0
:1034cc006500400002012000fe089000c7f50700cf
:1034dc00f60047007a0047008e02e80000027800f0
:1034ec0013c0b300820020000500780063110700b0
:1034fc00004f78001e04e000030032001e00fb00a9
:10350c00101798000b003700760047001040900011
:10351c000004e0000300320020fd2f00001798008b
:10352c00020037000000eb00001798000e1090000e
:10353c00101798001e1090000080fa000000060082
:10354c000a00fa00604798005200200091092100ff
:10355c000e007800a5f507006e40900020479800fb
:10356c0011c0b3000e007800e91107000004e00060
:10357c000300320000ff2f004007980002003700c4
:10358c000000eb00400798004e0090000080fa000d
:10359c00000006000200fa00004f78001e40780080
:1035ac004b1207000000fb000080fa000000060030
:1035bc003600fa00406f980071179800021f9800af
:1035cc0040c0b300206f980000ceb300004f7800cd
:1035dc000e1890000000e00003003a0010fd2f00d0
:1035ec00201f98003e003700650047005202200063
:1035fc008000eb0091f507006500470052022000a7
:10360c00e109210079f50700e500470070c2b3001d
:10361c00804878004e689000e140600065004700eb
:10362c00214098007e109000c800de004801dd00ab
:10363c0001017100e5004700f00f200080016100de
:10364c00314090006040600003407000b040980032
:10365c004811de0041409000604060000240700064
:10366c00c040980065004700650040000202200041
:10367c008e1890005df507008e00e800a002200077
:10368c000e004000e50247000002780013c0b300b2
:10369c009200200005007800f8100700004f780019
:1036ac001e04e000030032001e00fb00201f9800e7
:1036bc000b0037000e00e800104090000004e00002
:1036cc000300320020fd2f00101f9800020037006d
:1036dc000000eb00101f98001e189000201f98008f
:1036ec002e1890000080fa00000006002200fa005c
:1036fc00500f980040c0b300105f98005e08900017
:10370c000000e00003003a0010fd2f0000179800a5
:10371c006c00370067004700220120008000eb009e
:10372c0046f507006700470022012000410a2100ee
:10373c002ef50700e700470040c1b3008048780031
:10374c005e089000104090000080fb004500de00f9
:10375c00610060000004e00007003a005e08900081
:10376c00104090000080fb004400de00610060000f
:10377c000004e0000300320001c2b300615f980056
:10378c00020037000040eb00605f980067004700c4
:10379c00ee58900021409800de08900021409000e7
:1037ac000081fb00314090000080fb004800dd00f0
:1037bc0002007000000f7800de089000214090009d
:1037cc000081fb00314090000080fb004800dd00d0
:1037dc0002007000c800de004801dd00010171002c
:1037ec00de089000f00f2000800161002140900065
:1037fc006040600003407000a04098004811de005b
:10380c00314090006040600002407000b040980071
:10381c006700470065004000d2002000de089000e1
:10382c00f2f40700de089000f00f20001e0160008b
:10383c00214090006040600002407000a040980061
:10384c001e0078004801de003140900060406000ae
:10385c0002407000b0409800e30047007900470038
:10386c00e7024700000278008041eb00a200200034
:10387c000500780081100700204798002e4090002a
:10388c000004e000040032002e4090000000fb0019
:10389c00001798000b0037006300470010409000a1
:1038ac000004e0000300320020fd2f00600f9800a0
:1038bc00020037008000eb00610f98006e0890004a
:1038cc00001798000e1090000080fa00000006000f
:1038dc003200fa006017980040c0b300206f9800c7
:1038ec0000ceb300004f78006e1090000000e00096
:1038fc0003003a0010fd2f00001f98002a0037002b
:10390c0065004700520220008000eb00cbf407005a
:10391c006500470052022000a10a2100b3f4070001
:10392c00e500470070c2b30080487800650047008e
:10393c006500400002022000ee109000abf407007e
:10394c008e00e800a00220000e004000e5024700b7
:10395c000002780023c0b300b200200005007800fc
:10396c0046100700004f78001e04e00003003200f0
:10397c001e00fb00001f98000b0037000e00e80033
:10398c00104090000004e0000300320020fd2f00e6
:10399c0070179800020037000000eb0070179800b9
:1039ac007e109000001f98000e1890000080fa0006
:1039bc00000006000600fa000e0078008040eb00c4
:1039cc00014878000000e8008040eb0001487800d6
:1039dc000000e8008040eb00014878000000e8009f
:1039ec008040eb00014878000000e8008040eb00cc
:1039fc000148780052002000010b21000e007800d5
:103a0c007af4070070c0b300004f780011c0b30007
:103a1c000e007800be1007000000fb000080fa00ca
:103a2c00000006000a00fa00604798000040eb0016
:103a3c00504798000000eb00100798006315070032
:103a4c00004f78006e4090000004e00004003a0043
:103a5c002ad2bf000080fb004007980018003700f6
:103a6c000040eb0040479800060037004e409000a5
:103a7c005a150700100798004e4090000040e800cf
:103a8c00404798004e4090009e4f5000f7ff360084
:103a9c001e00900010009000e30f500003003a004d
:103aac005e4090000040e800504798002ad2bf00ca
:103abc00de409000014050000080fb004007980061
:103acc004e0090000080fa00000006000a00fa0088
:103adc0000ceb300604798000000eb002007980070
:103aec0000c0eb002047980000c0eb001047980086
:103afc0036150700004f78000040eb001047980087
:103b0c00720037001e409000341507002007980003
:103b1c001e4090009915070000c0eb0075150700ba
:103b2c002e009000660040002afd070060479800b8
:103b3c006e4090000004e00033003a002e0090002c
:103b4c006c0040005bfc0700604798006e409000e2
:103b5c000004e0005a003a002e0090009e409000b5
:103b6c00014878002e009000604890000080fb0017
:103b7c004400de00ef4060002e00900011409800e1
:103b8c002ad2bf000040e8002af2b70067004700c5
:103b9c006ffc0700604798006e4090000004e00046
:103bac0007003a00ae009000100020009000980032
:103bbc00fe4090002e009000514098000f003700fe
:103bcc00ae00900020002000900098002e00900085
:103bdc00604890000004e00003003d000040eb0052
:103bec00104f98000200370080c0eb00114f980076
:103bfc002e0090009e489000414098001e4090007e
:103c0c001a1507002e0037001e40900039150700ca
:103c1c002e00900066004000eefc07006047980004
:103c2c006e4090000004e00025003a002e00900049
:103c3c006c0040001ffc0700604798006e4090002d
:103c4c000004e0001e003a00ae009000300020009e
:103c5c00900098001e409000204798002e00900085
:103c6c00ae409000014878002e0090006048900013
:103c7c000080fb004400de00ef4060002e0090004e
:103c8c00114098002e009000604890000004e00065
:103c9c0003003d000040eb00004f9800020037008d
:103cac0080c0eb00014f98002e0090008e489000d1
:103cbc00414098002ad2bf000040e8002af2b70029
:103ccc001e4090000040e800104798001e409000f5
:103cdc009e4f50008bff36002e40900005150700bc
:103cec002ad2bf000080fb000080fa000000060012
:103cfc007201fa00889fbe0070179900011f99008d
:103d0c00121f9900231f99000000eb001007980068
:103d1c004c0237001e0090004600dd008000780049
:103d2c000e18910000804000200798000000eb0066
:103d3c00000f7800370037001e0078004200dd00cd
:103d4c006e024700000242001e0078004200dd00b7
:103d5c00800078002e00900000804000630040003e
:103d6c00104078000081fb00030020001e0078004a
:103d7c004200dd00800078002e00900000804000a2
:103d8c000080e800104078000080fb00010020005b
:103d9c00c808dd000080fd00804078000040eb008a
:103dac0000017100818171001e0078004200dd006d
:103dbc00800078002e009000008040000000e80099
:103dcc00104078000080fb0001002000c000dd00e6
:103ddc000000200000017100818171001e0078003c
:103dec004200dd00800078002e0090000080400032
:103dfc00104078000080fb0001002000c800dd00ae
:103e0c00000020000000710081807100008abe005b
:103e1c001e0fe800f00020009e0f1000c6ff3400bb
:103e2c0000012000000f7800710037001e0278009e
:103e3c001e80e900ee0047004200dd00010040005a
:103e4c001000be008101d1004f01dd0082817100a4
:103e5c00532f99000001d1004f08dd0000017100c3
:103e6c00622f99001e80e900ee0047004200dd0041
:103e7c00010040001000be00c309de004d01dd0052
:103e8c0082817100332f99004301de004d08dd0063
:103e9c0000017100422f99005e2b9100ee2b9100d6
:103eac003e2c9100ce2c910008016b0089816b0097
:103ebc001e80e900ee0047004200dd0001004000da
:103ecc001000be00c60cdd004a00de00008074004d
:103edc00ca08de0000016900818169009e0078003b
:103eec0067805000ee0047004200dd0001004000fa
:103efc001000be0002034000838348001e017800be
:103f0c006f005100ee0047004200dd000100400050
:103f1c001000be00c909dd004701de00828171007e
:103f2c00132f99004901dd004708de0000017100e4
:103f3c00222f99009e0178006f805100ee004700ff
:103f4c004200dd00010040001000be00c209de008e
:103f5c004e01dd0082817100732799004201de0061
:103f6c004e08dd0000017100022f99001e2c9100fb
:103f7c00ae2c91007e2091008e28910000016c00e7
:103f8c0081816c009e0078006f805000ee0047002d
:103f9c004200dd00010040001000be00cd0add0033
:103fac004300de0000807200c308de0000006900e0
:103fbc008180690006014000878148001e0378005b
:103fcc0070005300ee0047004200dd00010040008d
:103fdc001000be000201400083814800ee00470043
:103fec004220dd00010040000288be001e0fe800e8
:103ffc00f00320009e0f10008cff34000000eb003b
:10400c00000f78000d0037001e0278001e007800ab
:10401c00fe1091004200dd008008b000010040005d
:10402c001001be00e11020008e8040004220dd0017
:10403c00010040000288be001e0fe800770020003f
:10404c009e8f1300f0ff34000000eb00000f78008f
:10405c005b013700e01020000e004000600b900068
:10406c00f00b9000e01020000e0040009008900033
:10407c0000089000ca09dd004601de008281710053
:10408c00532799004a01dd004608de00000171004b
:10409c0062279900e01020000e004000900890006c
:1040ac0000089000c509dd004b01de008281710023
:1040bc00332799004501dd004b08de00000171003b
:1040cc00422799005e249100ee2491003e2091003d
:1040dc00ce20910000026c0081826c00e010200068
:1040ec000e0040009008900000089000c909de0006
:1040fc004701dd0082817100132799004901de0020
:10410c004708dd0000017100222799001e21910053
:10411c00ae21910002006a0083806a000604400010
:10412c0087844800e01020000e0040000009900039
:10413c0090099000e01020000e004000b0089000a4
:10414c00200890000202780000017800010078003d
:10415c0082006200008061006102b800742f990037
:10416c00053799007e2b91008e339100c033dd0012
:10417c0006002000762f9900073799007e2a9100bf
:10418c008e3291006109b800722f990003379900a3
:10419c007e2b91008e339100060272008782720092
:1041ac00e01020000e0040009008900000089000e5
:1041bc000081ea008181ea00e01020000e0040003e
:1041cc00d0089000400890000203780000017800ad
:1041dc000100780002016300008061006103b800f7
:1041ec0016379900273799001e309100ae30910098
:1041fc00c000dd0000002000103799002137990025
:10420c001e309100ae3091006113b8001637990042
:10421c00273799001e319100ae31910002007000d9
:10422c008380700000006a0081806a0008014000f1
:10423c00898148001e007800c200dd0000e82000e3
:10424c00008040001000be00020140008381480045
:10425c001e007800ee0047004200dd000100400027
:10426c001000be00020040008380480050079800f8
:10427c0061079800e01020000e0040001000be0006
:10428c00ce09dd004201de0082817100731f9900ae
:10429c004e01dd004208de0000017100022799008a
:1042ac00e01020000e0040001000be00c309dd002d
:1042bc004d01de0082817100531f99004301dd0026
:1042cc004d08de0000017100621f99007e1b9100f9
:1042dc008e2391005e1c9100ee1c910008026b0075
:1042ec0089826b00e01020000e0040001000be0020
:1042fc00c609de004a01dd0082817100331f99007e
:10430c004601de004a08dd0000017100421f9900e1
:10431c003e189100ce18910000046a0081846a0056
:10432c00e01020000e0040001001be00e010200044
:10433c000e004000b00090002000900002027800b7
:10434c0000017800010078008200620000806100aa
:10435c006101b80032379900433799003e32910021
:10436c00ce329100c022dd000400200034379900c9
:10437c00453799003e329100ce329100610bb80066
:10438c0036379900473799003e309100ce30910076
:10439c000002720081827200e01020000e004000ca
:1043ac001001be00e01020000e004000d000900074
:1043bc0040009000020378000001780001007800b2
:1043cc0002016300008061006103b8005637990058
:1043dc00673799005e309100ee309100c000dd002f
:1043ec000000200050379900613799005e30910031
:1043fc00ee3091006113b800563799006737990079
:10440c005e319100ee3191000200700083807000eb
:10441c0000036a0081836a00e01020000e00400057
:10442c0020019000b0019000e01020000e00400030
:10443c00d00090004000900002027800000178004b
:10444c000100780002016200008061006102b80086
:10445c0074379900053f99007e3091008e38910099
:10446c00c000dd000000200070379900013f99006a
:10447c007e3091008e3891006112b800743799002b
:10448c00053f99007e3191008e3991000200700039
:10449c008380700000006b0081806b00080040007e
:1044ac00898048003007980041079800e0102000f0
:1044bc000e004000d008900040089000e210200050
:1044cc000e0141006009980071099800e01020006d
:1044dc000e004000b008900020089000e210200070
:1044ec000e0141004009980051099800e01020008d
:1044fc000e0040009008900000089000e210200090
:10450c000e0141002009980031099800e0102000ac
:10451c000e00400060019000f00190005e009000e1
:10452c00ee0090000200400083804800e210200062
:10453c000e0141000009980011099800e0102000bc
:10454c000e004000d000900040009000e2102000cf
:10455c000e0141006001980071019800e0102000ec
:10456c000e004000b000900020009000e2102000ef
:10457c000e0141004001980051019800e01020000c
:10458c000e0040001000be00e21020000e014100a1
:10459c0020019800310198005e019000ee0190001e
:1045ac003e009000ce009000020040008380480046
:1045bc00e21020000e0141000089be001e0fe80031
:1045cc00f00320009e0f1000a2fe34000000eb0050
:1045dc00000f7800150037001e0278001e007800ce
:1045ec00fe1091004200dd008008b0000100400088
:1045fc001001be001e007800e11020008e804000eb
:10460c004200dd00010040001000be00020140002d
:10461c0083814800fe1091004220dd008008b0002c
:10462c00010040000288be001e0fe800730020004d
:10463c009e8f1100e8ff34001e0090000000e8007f
:10464c00100798009e1891001e009000808f50005b
:10465c00b0fd3c004f04be000080fa0000000600d4
:10466c00b000fa0040979800529798006397980012
:10467c00719798000e0078000a0007005e91900078
:10468c00ee919000ce9090000e0078002200070072
:10469c00fe9090000e007800be0007000080fa002b
:1046ac00000006000400fa00100798000000eb0060
:1046bc00000f78000c0037001e0278001e007800f6
:1046cc00c200dd0000e62000008040001001be00aa
:1046dc009e0090004220dd008008b00001004000e8
:1046ec000288be001e0fe800700020009e0f100014
:1046fc00f1ff34001e0190006000b800200198000a
:10470c00310198001e0190006000b8000089be00c5
:10471c000080fa00000006002600fa00100f980036
:10472c00210f9800320f9800430f98001e0890003c
:10473c0020019000b0019000000420000100200036
:10474c000200500083805800100798002107980041
:10475c003e089000ce089000700f9800011798004a
:10476c001e019000ae019000520f9800630f98004c
:10477c005e0a9000ee0a90007e0890008e10900069
:10478c00800f5200818f5a00040036007e09900081
:10479c008e119000520f9800630f98005e0a9000e3
:1047ac00ee0a90003407980045079800be0190006f
:1047bc001e089000680140001e089000b000900098
:1047cc002000900000004100ae089000030178002a
:1047dc00e5f007001e08900020019000b001900049
:1047ec003e089000ce0890000201400083814800f2
:1047fc00f003200001002000800f5100818f590030
:10480c000b003e001e08900020019000b0019000ab
:10481c003e089000ce0890000200400083804800c3
:10482c001e099000200198003101980057003700b4
:10483c003e099000ce0990003e009000ce00900002
:10484c0000005100818059005007980061079800c2
:10485c005e009000ee009000ca0add004600de000b
:10486c0000807200c608de0070079800010f9800e7
:10487c003e009000800078002e089000008f4000d1
:10488c001e089000e80040001200200003002000e9
:10489c001e08900016fd07007e0190008e09900006
:1048ac009e0078001e08900011fd07005e0090002d
:1048bc00ee009000f20320000300200000027800bc
:1048cc008102780002007800830078000001620009
:1048dc00018062006102b800141798002517980037
:1048ec001e109000ae109000c000dd0000002000f3
:1048fc0010179800211798001e109000ae10900011
:10490c006112b80014179800251798001e1190001a
:10491c00ae11900002007000838070003007980088
:10492c00410798003e0190007e0090004600dd009b
:10493c009e0040001e089000680040008af00700ae
:10494c001e0890003e029000ce02900024009800b9
:10495c00350098001e0890001001be007e009000eb
:10496c008e08900061004000e0804800c60add001f
:10497c00ca00de00818072004600dd0002004000ab
:10498c00838048001e0990000089be000080fa0058
:10499c00000006001a00fa0070079800010f98003a
:1049ac007e009000b000900020009000f2032000e8
:1049bc0003002000000278008102780002007800d9
:1049cc008300780000016200018062006102b8007f
:1049dc00340f9800450f98003e089000ce089000c8
:1049ec00c000dd0000002000300f9800410f98003f
:1049fc003e089000ce0890006112b800340f980069
:104a0c00450f98003e099000ce09900002007000fe
:104a1c00838070007203200003002000820f50007e
:104a2c00838f58000500360024002000050020006c
:104a3c00140f9800250f9800040037001000200078
:104a4c0001002000100f9800210f98001e09900003
:104a5c00ae09900052079800630798007e00900002
:104a6c001001be007e009000b0009000200090006d
:104a7c000200400083804800c309dd00cd00de0049
:104a8c00818071004300dd00100798002107980019
:104a9c005e009000ee009000460add00ca00de00c9
:104aac00810072004600dd00300798004107980035
:104abc003e0190007e009000b0009000200090001d
:104acc00800151007e009000680140007e00900043
:104adc00b00090002000900000004100030178001d
:104aec008000eb0055f007007e009000b0009000b5
:104afc00200090007e019000680040008200400081
:104b0c0000c8b300804878007e009000e8004000a8
:104b1c003e009000008040008000e9001e009000e4
:104b2c00804878007e009000e80040003e00900035
:104b3c00008040000081e9001e009000ae00900053
:104b4c00c80add004800de0000807200c808de00e4
:104b5c00004978007e009000e80040003e00900084
:104b6c0000804000630150001e009000ae009000d9
:104b7c004008de0001002000004978007e00900013
:104b8c00e80040003e0090000080400064015000ae
:104b9c001e009000ae0090004808de0001002000ce
:104bac00004978007e009000e80040005e01900013
:104bbc00ee0190007e0090004dfc07000000eb0021
:104bcc00000f78003c0037001e0078004200dd002a
:104bdc00800078000e0890000080400063014000c7
:104bec001e007800fe0090004200dd008008b0003e
:104bfc00010040001000be00004978001e00780043
:104c0c004200dd00800078000e089000008040001b
:104c1c000081e8001e007800fe0090004200dd00dc
:104c2c008008b000010040001000be00c809dd0083
:104c3c004800de0000807100c808de0000497800e2
:104c4c001e0078004200dd00800078000e08900005
:104c5c00008040000001e8001e007800fe0090007b
:104c6c004200dd008008b000010040001000be00d2
:104c7c004008de0001002000004978001e0078008a
:104c8c004200dd00800078000e089000008140009a
:104c9c001e007800fe0090004200dd008008b0008d
:104cac00010040001000be004808de00010020009a
:104cbc00004978001e0fe800740020009e0f1200bf
:104ccc00c1ff34000080fa00000006000600fa0064
:104cdc0010079800210798000000eb00000f7800e7
:104cec003c0037001e0078004200dd008000780098
:104cfc002e00900000804000630140001e007800f0
:104d0c009e0090004200dd008008b00001004000d1
:104d1c001000be00004978001e0078004200dd0043
:104d2c00800078002e009000008040000081e80098
:104d3c001e0078009e0090004200dd008008b0004c
:104d4c00010040001000be00c809dd004800de0074
:104d5c0000807100c808de00004978001e00780051
:104d6c004200dd00800078002e00900000804000a2
:104d7c000001e8001e0078009e0090004200dd005b
:104d8c008008b000010040001000be004008de00aa
:104d9c0001002000004978001e0078004200dd0070
:104dac00800078002e009000008140001e007800ea
:104dbc009e0090004200dd008008b0000100400021
:104dcc001000be004808de000100200000497800f9
:104ddc001e0fe800700020009e0f1000c1ff340071
:104dec000080fa00000006001c00fa000000eb0036
:104dfc00100798000040eb00004f78000000eb001b
:104e0c0090ac88007e010700cac2bf0070406000f1
:104e1c000004e00002003a0040a7a900010037009e
:104e2c0040a7a800e822a900860307002003200061
:104e3c002311070049010700cbc2bf00614060008d
:104e4c000004e00002003a00cd82a8000100370007
:104e5c00cd82a900e822a90064004700f166280071
:104e6c000b00090031587800c000b10070004700f9
:104e7c00b167280008000900315878009000b10093
:104e8c00690040008040eb00014878000000e80019
:104e9c008040eb00014878000000e8008040eb0007
:104eac00014878000000eb00100798002d00370037
:104ebc009e00900064004700008040001040780085
:104ecc000004e00006003a009e0090002041210002
:104edc008080400000c2b300804878000800370092
:104eec001e0190009e00900064004700008040006e
:104efc0090407800204121000000410001487800da
:104f0c009e00900070004700008040001040780028
:104f1c000004e00007003a001e009000ec00400086
:104f2c00204121008080400000c2b30080487800fe
:104f3c00090037001e0090006c0140009e0090009c
:104f4c007000470000804000904078002041210014
:104f5c0000004100014878001e0090000000e800ad
:104f6c00100798001e009000eb0f5000d0ff34008b
:104f7c005c0d070072000700cd62a800e4c2a90016
:104f8c00ac0207000000e00008003a0061c1b30069
:104f9c00206328003c0e0700017d2000300020001b
:104fac00960007000000fe00f5ff370031c1b3008a
:104fbc0090642800340e070040062000c010070043
:104fcc00f4e2a8001f0307003c0107004006200084
:104fdc00bb1007001b0307000041eb0021c0b3000e
:104fec00e0c1b300dc10070050002000b410070033
:104ffc0082c0b300d1c2b30030c5b300d6100700d5
:10500c0050002000ae100700b2c0b30011c3b300b3
:10501c0030c5b300d010070050002000a8100700c6
:10502c00013220009140780000ceb30000c0700027
:10503c0020e3b70025c3bf00f041b30025e3b70060
:10504c0021e3a80011000700a0b2220040808800d4
:10505c006a01070097c0a80000010700810d070036
:10506c0011c0b300a05421000148780011c0b30056
:10507c00b05421000148780011c1b300d06528005c
:10508c00010e07000080fa00000006000200fa0082
:10509c00ec020700a2c1b30021c0b30080c1b30071
:1050ac00ad100700500020008510070082c1b3002e
:1050bc0011c1b30080c1b300a7100700500020003d
:1050cc007f10070082c7b30071c0b30080c1b3006a
:1050dc00a11007005000200079100700f2c0b300a7
:1050ec0001c1b30080c1b3009b1007005000200029
:1050fc00731007000000eb00000f7800040037006d
:10510c00d0020700400120006d1007001e0fe800c0
:10511c00100320009e0f1000f9ff360082c2b3006e
:10512c0001c1b30080c1b3008b10070050002000f8
:10513c0063100700c30207000080fa00000006009d
:10514c000000fa000111200091407800f0ccb3006f
:10515c0000c0600010e1b700916d20009140780014
:10516c0000ccb30000c060002041b300d9e6b7000a
:10517c00616d20009140780000ccb30000c060004d
:10518c003041b300d6e6b70000c42900600888009f
:10519c00f0c32900a00c8800f0c32900f00c880093
:1051ac0092c1bf00f041b30092e1b7009cc1bf00b7
:1051bc00f041b3009ce1b7009181a9009b81a9004b
:1051cc00011920009140780080cfb30000c060002e
:1051dc006040b30090e1b700a11920009140780025
:1051ec0080cfb30000c060006040b3009ae1b7000c
:1051fc0011e1a8000080fa00000006000a00fa0085
:10520c0030079800410798008e0207004e0090006e
:10521c0042012000110009000280d800000f780024
:10522c000000eb00200798002100370021c3b300d9
:10523c0010c0b300240007000000eb00100798001a
:10524c0006003700a00020001d1007007d0207009b
:10525c001e0090000000e800100798001e0090004f
:10526c009e0f5000f7ff39008040eb0010c0b300d8
:10527c00150007000000eb0010079800060037002f
:10528c00a00020000e1007006e0207001e00900008
:10529c000000e800100798001e0090009e0f5000c0
:1052ac00f7ff39002e0090000000e800200798005e
:1052bc00ae0090003e009000808f5000dbff390064
:1052cc000080fa00000006000400fa00004f78008d
:1052dc00114798009e40900040c6b30080cf50000c
:1052ec000200360040c6b300104798001e80fb0039
:1052fc00100798001e0090000000e0000d00320026
:10530c001e009000e10f5000010032001100370028
:10531c001e4090008080fb00f01820000088b9002f
:10532c008000780060c3290001005000b00c880098
:10533c00080037001e4090008080fb00f018200011
:10534c000088b9008000780060c32900010050007b
:10535c00000d88000080fa00000006000000fa0032
:10536c000000eb00001988000000eb001019880009
:10537c000000eb00201988000080eb006019880009
:10538c000080eb00401688000080eb00801688003f
:10539c000080eb00c01688000080eb00001788002e
:1053ac000080eb00401788000080eb00801788001d
:1053bc00cd62a900d5c2a900f502a900e4c2a800db
:1053cc00dce2a900f4e2a900cd42a900cd82a9003b
:1053dc00c962a900d1c2a900f102a900e0c2a900ca
:1053ec00d8e2a900f0c2a900f0e2a900c942a900c4
:1053fc002c23a900c982a9000080fa000000060035
:10540c000000fa000000eb00001988000000eb001f
:10541c00101988000000eb00201988000080eb00b8
:10542c00601988000080eb00401688000080eb00bb
:10543c00801688000080eb00c01688000080eb000e
:10544c00001788000080eb00401788000080eb00fc
:10545c00801788000080fa00000006000200fa00a5
:10546c00881f78000000eb00000f78000d0037005b
:10547c00f40107001e0478001e00780080407800bc
:10548c0000c5b300e00f070080407800e048210021
:10549c00000044000148780050002000880f0700ed
:1054ac001e0fe800d00420009e0f1000f0ff360005
:1054bc004f0478000080fa00000006000000fa009b
:1054cc00f662a800f642a800f10f2000f0232c0091
:1054dc0076ed070078ed0700da01070040062000a2
:1054ec00770f0700d70107000080fa0000000600c4
:1054fc000800fa006047980071479800fe40900041
:10550c006e409000c00f07000080fb002007980041
:10551c007e4090000040e800804078006e40900093
:10552c00b90f07000080fb00100798001e009000c8
:10553c00c800dd002e009000008f70001e00780067
:10554c000080fa00000006000800fa00604798008e
:10555c0071479800fe4090006e409000aa0f070023
:10556c000080fb00200798007e4090000040e8007f
:10557c00804078006e409000a30f07000080fb0075
:10558c00100798001e009000c480de002e009000d2
:10559c004400dd00008f70001e0078000080fa00cf
:1055ac00000006000600fa0040479800514798009a
:1055bc00de4090004e409000930f0700304798005b
:1055cc005e4090000040e800804078004e40900023
:1055dc008d0f0700204798002e4090008080fb0024
:1055ec003e4090000080fb004800dd00008f700002
:1055fc001e0078000080fa00000006000000fa008f
:10560c00c16c20009140780000ccb30000c0600059
:10561c005040b300cce6b700616a2000914078009e
:10562c0000ccb30000c06000b040b300a6e6b700e9
:10563c0070062000c011880097c0a90031e2a800b4
:10564c000080fa00000006000800fa000e80e80056
:10565c007168280005000900315878006000b1001d
:10566c003222a90087c0a900b0118000004f780039
:10567c001ad1bf000004e0000c003a0040c2b30095
:10568c009e4f100046003a001ad1bf008000fb006c
:10569c00600b2100008040001e4878001ad1bf002a
:1056ac000040e8001af1b7003d0037001ad1bf00e6
:1056bc008000fb00600b2100008040001e48780039
:1056cc001ad1bf00e54f500017003a000040eb0024
:1056dc0010479800110037001e4090008080fb009e
:1056ec00600b210000804000104178001e409000ab
:1056fc008080fb000e80e8000080400010407800a5
:10570c00804f5100020032000040eb001af1b7004c
:10571c001e4090000040e800104798001e4090008a
:10572c00e44f5000ecff3600a111210091407800ad
:10573c00e0c5b30080cf5000160034000040eb00f1
:10574c00104798000d0037001e4090000081fb00b0
:10575c001e4090008080fb00600b21000080400008
:10576c0090407800a04221000000410001487800e0
:10577c001e4090000040e800104798009e409000aa
:10578c00e0c5b30080cf5000efff360000c0eb0047
:10579c001af1b7001ad1bf000040e8001af1b700a7
:1057ac000080fa00000006000a00fa00881f78004a
:1057bc008460a90021c3b30030c5b3004cff0700bf
:1057cc005047980031c3b30030c5b30048ff070001
:1057dc00404798005e4090008080fb004e40900057
:1057ec000080fb004800dd0000807000100798006e
:1057fc001e009000cf80de005aeb07000200200054
:10580c000318240082eb0700020020000358240038
:10581c00b3eb0700309288004192880041c3b3007b
:10582c0030c5b30032ff07005047980051c3b30096
:10583c0030c5b3002eff0700404798005e40900033
:10584c008080fb004e4090000080fb004800dd0093
:10585c0000807000100798001e009000cf80de00c2
:10586c0040eb0700020020000318240068eb07003f
:10587c00020020000358240099eb07005092880086
:10588c006192880061c3b30030c5b30018ff0700f4
:10589c005047980071c3b30030c5b30014ff070024
:1058ac00404798005e4090008080fb004e40900086
:1058bc000080fb004800dd0000807000100798009d
:1058cc001e009000cf80de0026eb070002002000b7
:1058dc0003182c004eeb0700020020000358240094
:1058ec007feb070070928800819288008040eb006b
:1058fc0080c4b30014ff0700000f78001e0078006e
:10590c00cf80de0017eb07000200200003182400f4
:10591c0073eb070090928800a192880031c0b3000d
:10592c00e0c1b3001fff0700000f78001e007800d5
:10593c00cf80de000beb0700c0998800d19988005e
:10594c0051c0b300e0c1b30016ff0700000f780090
:10595c001e007800cf80de0002eb0700e099880083
:10596c00f199880071c0b300e0c1b3000dff0700ce
:10597c00000f78001e007800cf80de00f9ea0700e7
:10598c00009a8800119a880021e3a9008132200036
:10599c009140780000ceb30000c060000004a0006d
:1059ac0028e3b70021e3a8002023a80020c3bf00f0
:1059bc00614060000004e000fcff32000818800029
:1059cc006140b900e7ea07003007980041079800ea
:1059dc000800e00007003d000200200003782400ce
:1059ec003e009000ce00900080eb0700300798003e
:1059fc004107980032332300330524003e00900009
:105a0c00ce00900002eb07000200200003482400a7
:105a1c0033eb0700209a8800319a8800d0918000df
:105a2c000000e800d09188004f0478000080fa0054
:105a3c00000006000600fa000000eb00000f7800e2
:105a4c00d5c2a800400620001d0e0700f502a800d4
:105a5c000a0037001e0fe800500020009e0f1000b7
:105a6c00030036000000eb002007980041003700cf
:105a7c007400070040062000110e0700cac2bf00c8
:105a8c000080fb004500de00614060008080fb0070
