:020000040000fa
:080000000002040000000000f2
:020000040000fa
:10040000ef8420000e7f24000e0188000000000011
:100410000c000700e07c2100010020001100070013
:10042000000020000000e000020032000000020096
:10043000000000007e050200000000000040da001d
:100440000000fe004440a900000120000000e00080
:100450000300320000002000a00188004440a800f2
:100460000000060091018800800078000000eb0089
:1004700015003700e280400032a0b4009101ba00bc
:10048000e280400032a0b4009102ba00e280400055
:1004900032a0b4000002eb00472bde00f507b200eb
:1004a000602ce10004003a000059eb008301e900f0
:1004b000fdff3e00040037006128e100010032002a
:1004c0000082eb00040007001101ba000200e00006
:1004d000e8ff3a00000006003159ba008301e90044
:1004e0000c0032002159ba008301e90008003200f3
:1004f0000400e00003003a00e280400032a0b400b3
:10050000f5ff370011d9ba008301e900faff3a007c
:100510008100e800e180400032a0b4000000060045
:100520000040da000000fe00889fbe008a9fbe00e7
:10053000010578000100e0000400350008003c00df
:100540000000e000200032000500370060001000cd
:10055000e080180002003b0001f02c001a00370078
:100560000004be006011b8006b0920000982cf00b2
:10057000020039000882cf000441b00069425200f5
:100580000e00320008003b008281710061016400ae
:100590008904d1000884d3008b05e8000442e800f8
:1005a000f9ff3a00050037000804440089844c0034
:1005b0008b05e9000442e900fbff3a00f400070064
:1005c0000af0a70001f0a0004f05be004f04be00d6
:1005d00000000600889fbe008a9fbe008c1f780026
:1005e000110107001801330003866c006450e1001c
:1005f0002e0032006420e100330032006150e1003f
:100600002f0032006120e100310032008585550065
:10061000eb07b000090020000804200005003700a7
:100620000804440089844c000a003100060343009a
:1006300087834b000001530081815b00f8ff33008a
:100640000203be000800a0000804440089844c0096
:10065000f6ff3900c639dd00830173000100320066
:10066000130020008904d1000884d3000998a30056
:10067000050032000800a7000300a0008904d10093
:100680000884d3008b05e8008904d1000884d300d6
:100690000001eb000281d200bd00070001f0a100c3
:1006a0000cf0a70001f0a000f00037006420e1008a
:1006b000f20032000801be000200be00f7ff370062
:1006c0006120e100ed0032006000b800f3ff370068
:1006d0000000200001f82700f0ff3700889fbe00cf
:1006e0008a9fbe008c1f7800cf000700d600330021
:1006f00003866c006450e100240032006420e100b5
:10070000270032006150e100220032006120e10048
:10071000210032008b854200eb07b1000134b800a4
:10072000003ab8000804420089844a00013ab8003f
:100730000030b8008880400009014a0004003300fe
:100740000000400081804800020149008b05e9005b
:10075000c909dd0083017000010032001300200090
:10076000c814de004814dd004709de001200b200a4
:10077000c808de00088470008500070001f0a100b1
:100780000cf0a70001f0a000b80037006120e100e4
:10079000ba0032000801be000200be00f7ff3700b9
:1007a0006150e100fcff3a00b400370003f0a20002
:1007b000889fbe008a9fbe008c1f78009a000700a9
:1007c000a10033006450e1004f0032006420e100da
:1007d0005200320003826c0007003b000905d00084
:1007e0000306d000820f54000c065d0002003900a1
:1007f00002003200890178000306780085825500e6
:1008000004003d000003fd008103fd008502ea00b5
:100810008b854200840f720002003b0060001000d4
:10082000e08018006011b8000005eb007a28e100b4
:100830000a00390006007800c75ddd00f707b20046
:10084000878075002d003700828171000a017800d1
:10085000610560008180d1000080d3008502e9003d
:10086000f9ff3b00060440008784480002003b007b
:1008700060041400e0841c000988a3000700320013
:100880008a81710082817100610164008904d10054
:100890000884d3008b05e800170037000978a3000f
:1008a00013003a000b00e000130034008b05e90050
:1008b0000804440089844c000a4474000978a300a9
:1008c0000d003a000b00e000070034008b05e90042
:1008d0000804440089844c0001003a000b00200009
:1008e0000978a300f7ff32000001eb000200370097
:1008f000828171000a017800250007000cf0a70032
:1009000001f0a000590037006420e10002003a0025
:10091000838f6c00590033000801be000200be0046
:10092000520037000001be00570007000470a70006
:1009300003f0a10003f8a30013003a006509b10019
:1009400010003200090035006928e100020035007e
:1009500001002800000005000000400081804800e0
:100960008502e900fcff3a0000000600f88f420013
:10097000050035008100d1000080d3008502e80029
:10098000fcff3a00000006008000eb0000000500bc
:1009900081002000618055000b003d000b0020000d
:1009a00061fe2f000100e1001d0034008281710012
:1009b000610164008904d1000884d3000000e800cc
:1009c000faff3a007100200061006400030070002b
:1009d000020060000900320061044400e0844c0021
:1009e0000988a500050032008b05e8006808e100d1
:1009f00002003a008904d1000884d300f20f2000dd
:100a00000258e10005003d00c75ddd00f907b200b6
:100a10008980750008007800000006000bf82700a8
:100a20008b007800000005000004be0016000700df
:100a30000003be000405be000200be001200070055
:100a4000844f7500000006000200be006450e10003
:100a5000050036006420e100020036000968a300aa
:100a600001003a000800be000160a0004f067800b7
:100a70004f05be004f04be0000000600f0ff2f002f
:100a8000f1ff2700f9ff3700c70ade00f107b200c7
:100a9000f50fb20008003200e1cf42000200320040
:100aa0000170a00024000500810f700001003200d9
:100ab0000408050044000500810f700002003a00a0
:100ac000140005008502e9000000400081c04800d4
:0c0ad000fcff3b000170a00024000500aa
:020000040000fa
:020000040005f5
:0457f8008e430000dc
:020000040000fa
:020000040005f5
:0457fc00781e000013
:020000040000fa
:1000080090020000900200009002000090020000a0
:100018009002000090020000900200009002000090
:1000280090020000a20d0000c2050000900200002e
:10003800900200009002000090020000860c000070
:100048009002000090020000900200009002000060
:10005800900200005a160000900200009002000072
:10006800900200009002000090020000ec050000e1
:100078009002000090020000900200009002000030
:100088009002000090020000900200009002000020
:100098009002000090020000900200009002000010
:1000a8009002000090020000900200009002000000
:1000b80090020000900200009002000090020000f0
:1000c80090020000900200009002000090020000e0
:1000d80090020000900200009002000090020000d0
:1000e80090020000900200009002000090020000c0
:1000f80090020000900200009002000090020000b0
:10010800900200009002000090020000900200009f
:10011800900200009002000090020000900200008f
:10012800900200009002000090020000900200007f
:10013800900200009002000090020000900200006f
:10014800900200009002000090020000900200005f
:10015800900200009002000090020000900200004f
:10016800900200009002000090020000900200003f
:10017800900200009002000090020000900200002f
:10018800900200009002000090020000900200001f
:10019800900200009002000090020000900200000f
:1001a80090020000900200009002000090020000ff
:1001b80090020000900200009002000090020000ef
:1001c80090020000900200009002000090020000df
:1001d80090020000900200009002000090020000cf
:1001e80090020000900200009002000090020000bf
:0801f8009002000090020000db
:020000040000fa
:10020800900200009002000090020000900200009e
:10021800900200009002000090020000900200008e
:1002280090020000a20d0000c2050000900200002c
:10023800900200009002000090020000860c00006e
:10024800900200009002000090020000900200005e
:10025800900200005a160000900200009002000070
:10026800900200009002000090020000ec050000df
:10027800900200009002000090020000900200002e
:10028800900200009002000090020000900200001e
:10029800900200009002000090020000900200000e
:1002a80090020000900200009002000090020000fe
:1002b80090020000900200009002000090020000ee
:1002c80090020000900200009002000090020000de
:1002d80090020000900200009002000090020000ce
:1002e80090020000900200009002000090020000be
:1002f80090020000900200009002000090020000ae
:10030800900200009002000090020000900200009d
:10031800900200009002000090020000900200008d
:10032800900200009002000090020000900200007d
:10033800900200009002000090020000900200006d
:10034800900200009002000090020000900200005d
:10035800900200009002000090020000900200004d
:10036800900200009002000090020000900200003d
:10037800900200009002000090020000900200002d
:10038800900200009002000090020000900200001d
:10039800900200009002000090020000900200000d
:1003a80090020000900200009002000090020000fd
:1003b80090020000900200009002000090020000ed
:1003c80090020000900200009002000090020000dd
:1003d80090020000900200009002000090020000cd
:1003e80090020000900200009002000090020000bd
:0803f8009002000090020000d9
:020000040000fa
:100adc000000000001000000050000000400000000
:100aec0006000000020000000300000007000000e8
:020000040000fa
:100afc000200fa000040eb00104798000040eb00a9
:100b0c00004f7800640007000000370001408000af
:100b1c00c0408000808f5000100032007404070029
:100b2c0008c8bf000004e0000a003a008204070075
:100b3c007040880070408000770007007140800092
:100b4c0090408000808f5000020036007040800082
:100b5c009040880000408000c04088001040800019
:100b6c000000e000e9ff32000000eb0010408800bc
:100b7c0098030700e5ff3700809fbe003400f800a3
:100b8c0000002000a00188000000fa00411a20009b
:100b9c009140780080cfb30000c06000a4e1b700a2
:100bac00411a20009140780080cfb30000c0600053
:100bbc000024a000a4e1b7008440a9000080fa0042
:100bcc003400f9004f00be00004006003600f8006b
:100bdc00809fbe00829fbe00849fbe00869fbe0089
:100bec003400f80000002000a00188000000fa008a
:100bfc00e2c2bf000080fb004700de000080fb006b
:100c0c004200dd0080407800e2c2bf000080fb00a3
:100c1c004600de00614060000080fb0000004000e8
:100c2c0080c07000e2c2bf000080fb004500de0007
:100c3c006140600000c0700049000700cac2bf00dc
:100c4c000080fb004500de00614060000004a20053
:100c5c0061406000614060004501dd00a12c200076
:100c6c0091407800f0cdb30000c0600002407000ed
:100c7c00cae2b7008660a9000080fa003400f900cf
:100c8c004f03be004f02be004f01be004f00be001e
:100c9c003600f900004006000000fa00420207008e
:100cac004f0207005e020700e70307000080fa000e
:100cbc00000006000200fa00000f78001e00780009
:100ccc0015000700e2c2bf000080fb004700de00f9
:100cdc000080fb004200dd0080407800e2c2bf00d3
:100cec000080fb004600de00614060000080fb00dd
:100cfc000000400080c07000e2c2bf000080fb001a
:100d0c004500de006140600000c070001400070068
:100d1c000080fa00000006000400fa00000f7800c2
:100d2c001e007800100798001e0090000000e000e4
:100d3c0003003d001e0090000000ea001007980020
:100d4c001e009000080207000080fa000000060058
:100d5c000000fa00a04080000080fa0000000600ad
:100d6c000600fa00004f7800dac2bf0001c8b300d9
:100d7c00014060000004e000fb003a001e80fb0014
:100d8c00200798002e009000e30f50006400320002
:100d9c002e009000e30f50000a003c002e00900043
:100dac00e10f5000160032002e009000e10f5000b1
:100dbc0037003c002e0090000000e0000e003200d6
:100dcc00e30137002e009000e50f50009c0032002c
:100ddc002e009000e50f5000750035002e0090009d
:100dec00e60f5000ba0032002e009000e70f5000c2
:100dfc00db003200d601370094020700d401370023
:100e0c000000eb00e0168800b16c200091407800e7
:100e1c0000ccb30000c06000cbe6b700816d2000b1
:100e2c009140780000ccb30000c06000d8e6b70059
:100e3c00716d20009140780000ccb30000c06000c0
:100e4c00d7e6b700916d20009140780000ccb3003c
:100e5c0000c060002041b300d9e6b700416d20000e
:100e6c009140780000ccb30000c060004041b3005a
:100e7c00d4e6b700616d20009140780000ccb3003f
:100e8c0000c060003041b300d6e6b700b0013700b7
:100e9c000000eb00e0168800716d20009140780096
:100eac0000ccb30000c06000d7e6b700616d200035
:100ebc009140780000ccb30000c06000d6e6b700cb
:100ecc00916d20009140780000ccb30000c0600010
:100edc00d9e6b700b16c20009140780000ccb3008b
:100eec0000c060002041b300cbe6b700816d20004c
:100efc009140780000ccb30000c060004041b300ca
:100f0c00d8e6b700416d20009140780000ccb300ca
:100f1c0000c060003041b300d4e6b7008c0137004c
:100f2c000000eb00e0168800716d20009140780005
:100f3c0000ccb30000c06000d7e6b700916d200074
:100f4c009140780000ccb30000c06000d9e6b70037
:100f5c00416d20009140780000ccb30000c06000cf
:100f6c00d4e6b700b16c20009140780000ccb300ff
:100f7c0000c060002041b300cbe6b700816d2000bb
:100f8c009140780000ccb30000c060004041b30039
:100f9c00d8e6b700616d20009140780000ccb3001a
:100fac0000c060003041b300d6e6b70068013700de
:100fbc000000eb00e0168800b16c20009140780036
:100fcc0000ccb30000c06000cbe6b700916d2000f0
:100fdc009140780000ccb30000c06000d9e6b700a7
:100fec00416d20009140780000ccb30000c060003f
:100ffc00d4e6b700716d20009140780000ccb300ae
:10100c0000c060002041b300d7e6b700616d20003e
:10101c009140780000ccb30000c060004041b300a8
:10102c00d6e6b700816d20009140780000ccb3006b
:10103c0000c060003041b300d8e6b700440137006f
:10104c000000eb00e0168800b16c200091407800a5
:10105c0000ccb30000c06000cbe6b700716d20007f
:10106c009140780000ccb30000c06000d7e6b70018
:10107c00616d20009140780000ccb30000c060008e
:10108c00d6e6b700916d20009140780000ccb300fb
:10109c0000c060002041b300d9e6b700416d2000cc
:1010ac009140780000ccb30000c060004041b30018
:1010bc00d4e6b700816d20009140780000ccb300dd
:1010cc0000c060003041b300d8e6b7002001370003
:1010dc000000eb00e0168800b16c20009140780015
:1010ec0000ccb30000c06000cbe6b700816d2000df
:1010fc009140780000ccb30000c06000d8e6b70087
:10110c00916d20009140780000ccb30000c06000cd
:10111c00d9e6b700716d20009140780000ccb30087
:10112c0000c060002041b300d7e6b700616d20001d
:10113c009140780000ccb30000c060004041b30087
:10114c00d6e6b700416d20009140780000ccb3008a
:10115c0000c060003041b300d4e6b700fc0037009b
:10116c00ba010700fa0037001e80fb001007980038
:10117c001e009000e30f5000640032001e0090002f
:10118c00e30f50000a003c001e009000e10f5000dd
:10119c00160032001e009000e10f500037003c009a
:1011ac001e0090000000e0000e003200e800370046
:1011bc001e009000e50f50009c0032001e009000b5
:1011cc00e50f5000750035001e009000e60f500032
:1011dc00ba0032001e009000e70f5000db00320016
:1011ec00db00370099010700d90037000000eb0045
:1011fc00e0168800b16c20009140780000ccb30060
:10120c0000c06000cbe6b700916d200091407800e3
:10121c0000ccb30000c06000d9e6b700416d2000df
:10122c009140780000ccb30000c06000d4e6b70059
:10123c00716d20009140780000ccb30000c06000bc
:10124c002041b300d7e6b700616d200091407800d3
:10125c0000ccb30000c060004041b300d6e6b7003c
:10126c00816d20009140780000ccb30000c060007c
:10127c003041b300d8e6b700b50037000000eb00f2
:10128c00e0168800b16c20009140780000ccb300cf
:10129c0000c06000cbe6b700816d20009140780063
:1012ac0000ccb30000c06000d8e6b700716d200020
:1012bc009140780000ccb30000c06000d7e6b700c6
:1012cc00916d20009140780000ccb30000c060000c
:1012dc002041b300d9e6b700416d20009140780061
:1012ec0000ccb30000c060004041b300d4e6b700ae
:1012fc00616d20009140780000ccb30000c060000c
:10130c003041b300d6e6b700910037000000eb0087
:10131c00e0168800b16c20009140780000ccb3003e
:10132c0000c06000cbe6b700716d200091407800e2
:10133c0000ccb30000c06000d7e6b700616d2000a0
:10134c009140780000ccb30000c06000d6e6b70036
:10135c00916d20009140780000ccb30000c060007b
:10136c002041b300d9e6b700416d200091407800d0
:10137c0000ccb30000c060004041b300d4e6b7001d
:10138c00816d20009140780000ccb30000c060005b
:10139c003041b300d8e6b7006d0037000000eb0019
:1013ac00e0168800716d20009140780000ccb300ed
:1013bc0000c06000d7e6b700616d20009140780056
:1013cc0000ccb30000c06000d6e6b700916d2000e1
:1013dc009140780000ccb30000c06000d9e6b700a3
:1013ec00b16c20009140780000ccb30000c06000cc
:1013fc002041b300cbe6b700816d2000914078000e
:10140c0000ccb30000c060004041b300d8e6b70088
:10141c00416d20009140780000ccb30000c060000a
:10142c003041b300d4e6b700490037000000eb00b0
:10143c00e0168800b16c20009140780000ccb3001d
:10144c0000c06000cbe6b700816d200091407800b1
:10145c0000ccb30000c06000d8e6b700916d20004e
:10146c009140780000ccb30000c06000d9e6b70012
:10147c00716d20009140780000ccb30000c060007a
:10148c002041b300d7e6b700616d20009140780091
:10149c0000ccb30000c060004041b300d6e6b700fa
:1014ac00416d20009140780000ccb30000c060007a
:1014bc003041b300d4e6b700250037000000eb0044
:1014cc00e0168800716d20009140780000ccb300cc
:1014dc0000c06000d7e6b700916d20009140780005
:1014ec0000ccb30000c06000d9e6b700416d20000d
:1014fc009140780000ccb30000c06000d4e6b70087
:10150c00b16c20009140780000ccb30000c06000aa
:10151c002041b300cbe6b700816d200091407800ec
:10152c0000ccb30000c060004041b300d8e6b70067
:10153c00616d20009140780000ccb30000c06000c9
:10154c003041b300d6e6b70001003700bf000700fa
:10155c001e40780024e8b70010c0b3000de8b700b7
:10156c000080fa00000006000200fa00000f78006c
:10157c00401b20009e0f100003003600401b200073
:10158c00b00c8800020037001e007800b00c8800f8
:10159c00b00c8000000d8800b00c8000500d88004d
:1015ac000080fa00000006000000fa000080eb004a
:1015bc00601988000080eb0050198800a300070018
:1015cc00e0a2a800e0c2a800e0e2a800d8e2a800cf
:1015dc00d1a2a900c8a2a9000080fa000000060050
:1015ec000000fa009660a90067e0a8006800a80057
:1015fc006820a800d10a200091407800f0c8b30000
:10160c0000c0600001c6b30001407000ade0b7003f
:10161c008660a9009660a8000080fa000000060011
:10162c000000fa001fe1a900e111200091407800b0
:10163c00f0ccb30000c060001ee1b700401f2000da
:10164c00d0088800d0088000a0088800d802a90023
:10165c00d822a900d842a900d862a900d882a90032
:10166c00d8a2a900060007002400070054000700b8
:10167c006f0007001fe1a8000080fa0000000600c0
:10168c000000fa00111920009140780030ceb30010
:10169c0000c060000034a00091e1b70021192000c7
:1016ac009140780000ceb30000c06000e040b30071
:1016bc0092e1b7009381a800a00f2000b00c880025
:1016cc00401f2000a00c8800a5c0bf007040b300d4
:1016dc00a5e0b7008440a9009440a800011920009f
:1016ec009140780080cfb30000c060005040b30040
:1016fc0090e1b7000080fa00000006000000fa003c
:10170c0091c1bf000080fb004200de00674060001a
:10171c00674060004201dd00b11920009140780063
:10172c0030ceb30000c06000024070009be1b700f7
:10173c0092c1bf007f4060007f416000c119200052
:10174c009140780000ceb30000c0600002407000f1
:10175c009ce1b70093c1bf000080fb004400de0099
:10176c0061406000614060004401dd00d11920003f
:10177c0091407800f0ceb30000c0600002407000d1
:10178c009de1b700b00c8000000d8800a00c80001b
:10179c00f00c880090c1bf0067406000674160009a
:1017ac00a11920009140780080cfb30000c06000e8
:1017bc00024070009ae1b7000080fa0000000600b9
:1017cc000000fa0091c1bf000080fb004200de0067
:1017dc0067406000674060004201dd00511a200044
:1017ec009140780030ceb30000c060000240700021
:1017fc00a5e1b70092c1bf007f4060007f4160004f
:10180c00611a20009140780000ceb30000c0600047
:10181c0002407000a6e1b700b00c8000500d8800ab
:10182c00401d2000400d88000080fa0000000600da
:10183c000000fa0000e823006008880094e0a8008b
:10184c0011e1a8000080fa00000006000000fa0078
:10185c000000eb00e0168800b16c2000914078008d
:10186c0000ccb30000c06000cbe6b700816d200057
:10187c009140780000ccb30000c06000d8e6b700ff
:10188c00716d20009140780000ccb30000c0600066
:10189c00d7e6b700616d20009140780000ccb30012
:1018ac0000c06000d6e6b700916d20009140780032
:1018bc0000ccb30000c06000d9e6b700416d200039
:1018cc009140780000ccb30000c06000d4e6b700b3
:1018dc000000eb00e01688000080fa000000060013
:1018ec001200fa000e80e800e156280007000900fb
:1018fc00311878000001b100d4ff0700ffff37005a
:10190c003600f800809fbe00821f78003400f8007b
:10191c0000002000a00188000000fa0084e0a9006b
:10192c00004080000000e80000408800014080007a
:10193c0000712200808f500002003a000000eb0082
:10194c000040880000408000a20020001100090027
:10195c000280d8008000fd000000e00017003a0073
:10196c00104080000000e80010408800004080001b
:10197c0042062000110009000280d8008000fd0002
:10198c000000e0000d003a00204080000000e8005c
:10199c002040880000408000823e20001100090099
:1019ac000280d8008000fd000000e00003003a0037
:1019bc00304080000000e800304088000080fa00d1
:1019cc003400f9004f0178004f00be003600f900da
:1019dc00004006000200fa00e2c2bf000080fb00db
:1019ec004700de000080fb004200dd0080407800f4
:1019fc00e2c2bf000080fb004600de0061406000d8
:101a0c000080fb000000400080c07000e2c2bf00fc
:101a1c000080fb004500de006140600000c07000eb
:101a2c0021e8b70050428000000f78001e007800bb
:101a3c00e10f5000320032001e007800e10f500020
:101a4c001c0039001e007800e20f5000010032002b
:101a5c00370037000dc8bf000004e00004003a0056
:101a6c00f04080000000e800f040880002003700e1
:101a7c000000eb00f04088000040eb000de8b700e0
:101a8c00f0408000e20f5000290036001182200047
:101a9c009140780024c8bf0080cf50000200320073
:101aac0021c8bf00aefc07000000eb00f04088002e
:101abc001f0037000000eb0097fc07001cc8bf009c
:101acc000040e8001ce8b700c1812000914078007c
:101adc0070ccb30080cf5000150036000040eb00f6
:101aec001ce8b7000000eb00f0408800c01220009a
:101afc0089fc070010002000504288000c003700c1
:101b0c0021c8bf0096fc0700a181200091407800fd
:101b1c0021c8bf0080cf5000050032009660a8009d
:101b2c000040eb0008e8b70020002000504288007d
:101b3c000080fa0000000600809fbe003400f80010
:101b4c0000002000a00188000200fa008420a900f7
:101b5c00200a8000000f78004cc8bf000004e00091
:101b6c000b003a001e0078001041880010c0b30032
:101b7c004ce8b700011420009140780080cfb300ee
:101b8c0000c060000014a00040e1b7002a0037003c
:101b9c0040c1bf00704060000004e0000b00320048
:101bac000040eb004ce8b700011420009140780095
:101bbc0080cfb30000c060003040b30040e1b700fc
:101bcc0010c0b3000ce8b7001b00370010418000b8
:101bdc009e0f500004003100104180001e001000c8
:101bec005040880004003700104180001e00100097
:101bfc000000e900504088000040eb004ce8b700c2
:101c0c00011420009140780080cfb30000c0600028
:101c1c003040b30040e1b70010c0b3000ce8b7008f
:101c2c0051408000007d2000808f50000200360063
:101c3c000000eb00504088000080fa003400f900ee
:101c4c004f00be00004006000200fa000200370000
:101c5c00200a8000000f780040c1bf00684060007f
:101c6c000004e000faff3a001114200091407800c3
:101c7c0030ceb30000c060000044a00041e1b700ca
:101c8c000114200091407800f0c9b30000c060003e
:101c9c0040e1b700011420009140780080cfb300e0
:101cac0000c060003040b30040e1b70021142000b8
:101cbc009140780000ceb30000c06000b040b3008b
:101ccc0042e1b700e16820009140780000ccb300fd
:101cdc0000c060000034a0008ee6b7008420a9008c
:101cec009420a80005e1a8000080fa00000006007e
:101cfc000000fa000cc8bf000004e00007003a0026
:101d0c00cbc2bf00614060000004e00003003a0059
:101d1c000000eb0050408800050037000cc8bf00e5
:101d2c000004e000020032000040eb000ce8b700b9
:101d3c000080fa00000006000a00fa005040800003
:101d4c00100798000000eb00000f78001e009000b8
:101d5c000000e00006003a00bcfe07000040eb006b
:101d6c0024e8b7000000eb0040079800240037007f
:101d7c001e009000cf80de00e8f9070020079800d5
:101d8c00310798001e0090000000e00007003d00a5
:101d9c0002002000037824002e009000be0090006a
:101dac0080fa070020079800310798006266260029
:101dbc00630d24002e009000be00900002fa070074
:101dcc00020020008334240076fa0700d2fa0700c0
:101ddc00000f78001e007800804088000019200059
:101dec009e0f1000040036000000000000192000b7
:101dfc0040079800020037001e007800400798004a
:101e0c004e0090000080fa00000006000000fa006e
:101e1c00a0022000e0168800716d2000914078002f
:101e2c0000ccb30000c06000d7e6b700916d200075
:101e3c009140780000ccb30000c06000d9e6b70038
:101e4c00416d20009140780000ccb30000c06000d0
:101e5c00d4e6b700b16c20009140780000ccb30000
:101e6c0000c06000cbe6b700816d20009140780087
:101e7c0000ccb30000c06000d8e6b700616d200054
:101e8c009140780000ccb30000c06000d6e6b700eb
:101e9c00a0022000e01688000080fa000000060076
:101eac000200fa00d9ff070000192000aefd070060
:101ebc0010002000000f7800050037001e0078008d
:101ecc00a7fb0700007d2000d20307001e0fe800cf
:101edc00600020009e0f1000f8ff3600f4ff370062
:101eec000e00fa00004f7800114798002247980026
:101efc001e4090000080fb00200798002e009000f0
:101f0c000000e00004003200ae009000e18f5000b1
:101f1c00560132001f0337001e80fb006101b9001f
:101f2c003207980043079800d001200001002000e0
:101f3c003e019000ce019000800f5100818f59001e
:101f4c0014033e003e009000ce00900000600100a3
:101f5c001d00370027003700310037003b003700e9
:101f6c00450037000b0337004e0037005800370090
:101f7c00620037006c0037007600370080003700b5
:101f8c008a003700940037009e00370001033700a9
:101f9c0000033700a6003700b0003700ba00370046
:101fac00c4003700ce003700d8003700e2003700fd
:101fbc00ec003700f6003700000137000a0137004b
:101fcc00140137001e0137002e409000f043b20080
:101fdc00f1c3b30001416000016c20009140780016
:101fec0000ccb30000c0600002407000c0e6b70037
:101ffc00e80237002e409000f043b200f3c3b30068
:10200c0003416000116c20009140780000ccb300bb
:10201c0000c0600002407000c1e6b700dd0237006e
:10202c002e409000f043b200f1c3b30001416000b8
:10203c00216c20009140780000ccb30000c06000ff
:10204c0002407000c2e6b700d20237002e4090006a
:10205c00f043b200f3c3b30003416000316c2000c5
:10206c009140780000ccb30000c0600002407000ca
:10207c00c3e6b700c70237002e409000f043b20011
:10208c00f1c3b30001416000416c20009140780025
:10209c0000ccb30000c0600002407000c4e6b70082
:1020ac00bc0237002e409000f043b200f3c3b300e3
:1020bc0003416000616c20009140780000ccb300bb
:1020cc0000c0600002407000c6e6b700b1023700e5
:1020dc002e409000f043b200f1c3b3000141600008
:1020ec00716c20009140780000ccb30000c06000ff
:1020fc0002407000c7e6b700a60237002e409000e1
:10210c00f043b200f3c3b30003416000816c2000c4
:10211c009140780000ccb30000c060000240700019
:10212c00c8e6b7009b0237002e409000f043b20087
:10213c00f1c3b30001416000916c20009140780024
:10214c0000ccb30000c0600002407000c9e6b700cc
:10215c00900237002e409000f043b200f3c3b3005e
:10216c0003416000a16c20009140780000ccb300ca
:10217c0000c0600002407000cae6b700850237005c
:10218c002e409000f043b200f1c3b3000141600057
:10219c00b16c20009140780000ccb30000c060000e
:1021ac0002407000cbe6b7007a0237002e40900058
:1021bc00f043b200f3c3b30003416000c16c2000d4
:1021cc009140780000ccb30000c060000240700069
:1021dc00cce6b7006f0237002e409000f043b200ff
:1021ec00f1c3b30001416000d16c20009140780034
:1021fc0000ccb30000c0600002407000cde6b70018
:10220c00640237002e409000f043b200f3c3b300d9
:10221c0003416000e16c20009140780000ccb300d9
:10222c0000c0600002407000cee6b70059023700d3
:10223c002e409000f043b200f1c3b30001416000a6
:10224c00116d20009140780000ccb30000c06000fc
:10225c0002407000d1e6b7004e0237002e409000cd
:10226c00f043b200f3c3b30003416000216d2000c2
:10227c009140780000ccb30000c0600002407000b8
:10228c00d2e6b700430237002e409000f043b20074
:10229c00f1c3b30001416000316d20009140780022
:1022ac0000ccb30000c0600002407000d3e6b70061
:1022bc00380237002e409000f043b200f3c3b30055
:1022cc0003416000416d20009140780000ccb300c8
:1022dc0000c0600002407000d4e6b7002d02370049
:1022ec002e409000f043b200f1c3b30001416000f6
:1022fc00516d20009140780000ccb30000c060000c
:10230c0002407000d5e6b700220237002e40900044
:10231c00f043b200f3c3b30003416000616d2000d1
:10232c009140780000ccb30000c060000240700007
:10233c00d6e6b700170237002e409000f043b200eb
:10234c00f1c3b30001416000716d20009140780031
:10235c0000ccb30000c0600002407000d7e6b700ac
:10236c000c0237002e409000f043b200f3c3b300d0
:10237c0003416000816d20009140780000ccb300d7
:10238c0000c0600002407000d8e6b70001023700c0
:10239c002e409000f043b200f1c3b3000141600045
:1023ac00916d20009140780000ccb30000c060001b
:1023bc0002407000d9e6b700f60137002e409000bd
:1023cc00f043b200f3c3b30003416000a16d2000e1
:1023dc009140780000ccb30000c060000240700057
:1023ec00dae6b700eb0137002e409000f043b20064
:1023fc00f1c3b30001416000b16d20009140780041
:10240c0000ccb30000c0600002407000dbe6b700f7
:10241c00e00137002e409000f043b200f3c3b3004c
:10242c0003416000c16d20009140780000ccb300e6
:10243c0000c0600002407000dce6b700d501370038
:10244c002e409000f043b200f1c3b3000141600094
:10245c00d16d20009140780000ccb30000c060002a
:10246c0002407000dde6b700ca0137002e40900034
:10247c000080fb006101b9005207980063079800c7
:10248c0040022000010020005e019000ee0190004f
:10249c00800f5100818f5900be013e005e009000fc
:1024ac00ee00900000600100240037002e00370081
:1024bc0038003700420037004c0037005600370018
:1024cc00600037006a003700740037007e00370068
:1024dc0088003700920037009c003700a6003700b8
:1024ec00b0003700ba003700c4003700ce00370008
:1024fc00d8003700e2003700ec003700f600370058
:10250c00000137000a013700140137001e013700a3
:10251c0028013700320137003c01370046013700f3
:10252c00500137005a013700640137006e01370043
:10253c0078013700820137008c013700f1c3b300fa
:10254c001ec06000f3c3b30003416000416a200069
:10255c009140780000ccb30000c0600002407000d5
:10256c00a4e6b7008b013700f1c3b3001ec06000b6
:10257c00f3c3b30003416000216820009140780050
:10258c0000ccb30000c060000240700082e6b700cf
:10259c0080013700f1c3b3001ec06000f3c3b30069
:1025ac0003416000316820009140780000ccb300fa
:1025bc0000c060000240700083e6b7007501370070
:1025cc00f1c3b3001ec06000f3c3b300034160004d
:1025dc00416820009140780000ccb30000c060003e
:1025ec000240700084e6b7006a013700f1c3b30003
:1025fc001ec06000f3c3b30003416000e16820001b
:10260c009140780000ccb30000c060000240700024
:10261c008ee6b7005f013700f1c3b3001ec0600047
:10262c00f3c3b30003416000f168200091407800cf
:10263c0000ccb30000c06000024070008fe6b70011
:10264c0054013700f1c3b3001ec06000f3c3b300e4
:10265c0003416000016920009140780000ccb30078
:10266c0000c060000240700090e6b70049013700de
:10267c00f1c3b3001ec06000f3c3b300034160009c
:10268c00116920009140780000ccb30000c06000bc
:10269c000240700091e6b7003e013700f1c3b30071
:1026ac001ec06000f3c3b300034160002169200029
:1026bc009140780000ccb30000c060000240700074
:1026cc0092e6b70033013700f1c3b3001ec06000bf
:1026dc00f3c3b300034160003169200091407800de
:1026ec0000ccb30000c060000240700093e6b7005d
:1026fc0028013700f1c3b3001ec06000f3c3b30060
:10270c0003416000416920009140780000ccb30087
:10271c0000c060000240700094e6b7001d01370055
:10272c00f1c3b3001ec06000f3c3b30003416000eb
:10273c00516920009140780000ccb30000c06000cb
:10274c000240700095e6b70012013700f1c3b300e8
:10275c001ec06000f3c3b30003416000f1692000a8
:10276c009140780000ccb30000c0600002407000c3
:10277c009fe6b70007013700f1c3b3001ec060002d
:10278c00f3c3b300034160006169200091407800fd
:10279c0000ccb30000c060000240700096e6b700a9
:1027ac00fc003700f1c3b3001ec06000f3c3b300dc
:1027bc0003416000716920009140780000ccb300a7
:1027cc0000c060000240700097e6b700f1003700cf
:1027dc00f1c3b3001ec06000f3c3b300034160003b
:1027ec00916a20009140780000ccb30000c06000da
:1027fc0002407000a9e6b700e6003700f1c3b30051
:10280c001ec06000f3c3b30003416000816a200066
:10281c009140780000ccb30000c060000240700012
:10282c00a8e6b700db003700f1c3b3001ec06000a0
:10283c00f3c3b30003416000a16a2000914078000b
:10284c0000ccb30000c0600002407000aae6b700e4
:10285c00d0003700f1c3b3001ec06000f3c3b30057
:10286c0003416000d16a20009140780000ccb30095
:10287c0000c0600002407000ade6b700c500370034
:10288c00f1c3b3001ec06000f3c3b300034160008a
:10289c00c16a20009140780000ccb30000c06000f9
:1028ac0002407000ace6b700ba003700f1c3b300c9
:1028bc001ec06000f3c3b30003416000e16a200056
:1028cc009140780000ccb30000c060000240700062
:1028dc00aee6b700af003700f1c3b3001ec0600016
:1028ec00f3c3b30003416000916b2000914078006a
:1028fc0000ccb30000c0600002407000b9e6b70025
:10290c00a4003700f1c3b3001ec06000f3c3b300d2
:10291c0003416000816b20009140780000ccb30033
:10292c0000c0600002407000b8e6b70099003700a4
:10293c00f1c3b3001ec06000f3c3b30003416000d9
:10294c00a16b20009140780000ccb30000c0600067
:10295c0002407000bae6b7008e003700f1c3b30036
:10296c001ec06000f3c3b300034160005168200037
:10297c009140780000ccb30000c0600002407000b1
:10298c0085e6b70083003700f1c3b3001ec06000ba
:10299c00f3c3b300034160006168200091407800ec
:1029ac0000ccb30000c060000240700086e6b700a7
:1029bc0078003700f1c3b3001ec06000f3c3b3004e
:1029cc0003416000716820009140780000ccb30096
:1029dc0000c060000240700087e6b7006d00370051
:1029ec00f1c3b3001ec06000f3c3b3000341600029
:1029fc00816820009140780000ccb30000c06000da
:102a0c000240700088e6b70062003700f1c3b300e3
:102a1c001ec06000f3c3b300034160009168200046
:102a2c009140780000ccb30000c060000240700000
:102a3c0089e6b70057003700f1c3b3001ec0600031
:102a4c00f3c3b30003416000516a20009140780049
:102a5c0000ccb30000c0600002407000a5e6b700d7
:102a6c004c003700f1c3b3001ec06000f3c3b300c9
:102a7c0003416000416a20009140780000ccb30013
:102a8c0000c0600002407000a4e6b70041003700af
:102a9c00f1c3b3001ec06000f3c3b3000341600078
:102aac00716a20009140780000ccb30000c0600037
:102abc0002407000a7e6b70036003700f1c3b30040
:102acc001ec06000f3c3b30003416000616a2000c4
:102adc009140780000ccb30000c060000240700050
:102aec00a6e6b7002b003700f1c3b3001ec0600090
:102afc00f3c3b30003416000b16a20009140780039
:102b0c0000ccb30000c0600002407000abe6b70020
:102b1c0020003700f1c3b3001ec06000f3c3b30044
:102b2c0003416000316a20009140780000ccb30072
:102b3c0000c0600002407000a3e6b700150037002b
:102b4c00f1c3b3001ec06000f3c3b30003416000c7
:102b5c00716b20009140780000ccb30000c0600085
:102b6c0002407000b7e6b7000a003700f1c3b300ab
:102b7c001ec06000f3c3b30003416000616b200012
:102b8c009140780000ccb30000c06000024070009f
:102b9c00b6e6b7000080fa00000006000400fa0058
:102bac00100798001e009000304188000040eb0098
:102bbc00004f7800070037001e80fb0080004000ab
:102bcc0080822000808040000000eb0080087800ac
:102bdc001e4fe800f0c0b3009e4f1000f6ff360009
:102bec003041800057000700730007002043a80005
:102bfc000080fa00000006000200fa00004f780086
:102c0c001e80fb008000400080822000008040007d
:102c1c00100078000080fa00000006000200fa00a4
:102c2c000000eb00001988000000eb001019880070
:102c3c000000eb00201988000000eb004019880010
:102c4c00304180008080ea004016800000806000e7
:102c5c0040168800611980003041800000807000af
:102c6c00601988000000eb00304188000040eb0048
:102c7c00004f7800070037001e80fb0080004000ea
:102c8c0080822000808040000000eb0080087800eb
:102c9c001e4fe800f0c0b3009e4f1000f6ff360048
:102cac000080fa00000006003600f800809fbe008d
:102cbc00829fbe00849fbe00869fbe003400f80039
:102ccc0000002000a00188000000fa0008000700a6
:102cdc000080fa003400f9004f03be004f02be0022
:102cec004f01be004f00be003600f9000040060048
:102cfc000000fa0048c8bf000080fb0002188000ea
:102d0c008000400080822000008040000208780093
:102d1c0048c8bf000040e80048e8b70048c8bf00fa
:102d2c00ef4f5000020036000040eb0048e8b700bf
:102d3c0048c8bf002a00070085a0a9000080fa003f
:102d4c00000006000200fa00000f78004016800018
:102d5c001e007000401688009e80ea0060198000fa
:102d6c00008060006019880028e3a9000040eb0097
:102d7c001b0007002223a90023c3bf007f40600073
:102d8c0023e3b70025e3a900f0c1b30024e3b700a7
:102d9c00013220009140780000ceb30000c07000da
:102dac0020e3b70025c3bf00f041b30025e3b70013
:102dbc000080fa00000006000000fa0022c3bf00e9
:102dcc00c1c3b3000140700022e3b70021e3a800a7
:102ddc0085a0a90095a0a8000080fa0000000600bc
:102dec000200fa00004f78009e4078007fc060001f
:102dfc007f416000813220009140780000ceb3000a
:102e0c0000c060000240700028e3b7000080fa00a8
:102e1c00000006000600fa00200798000000eb00f6
:102e2c00100798000a0037000000eb00000f780034
:102e3c00010037001e0fe8002e0090009e0f1000be
:102e4c00fcff39001e0090000000e80010079800fd
:102e5c009e009000f0c72000808f5000f2ff3600db
:102e6c000080fa00000006000600fa002007980017
:102e7c000000eb00100798000a0037000000eb0080
:102e8c00000f7800010037001e0fe8002e009000a4
:102e9c009e0f1000fcff39001e0090000000e8009f
:102eac00100798001e009000ef0f5000f3ff360043
:102ebc000080fa00000006000c00fa00889fbe009b
:102ecc0010079800210798003207980043079800d4
:102edc00540798009e0090002e0090000080500037
:102eec00cf80de008df507000004be00be00900010
:102efc002e00900000805000cf80de0087f5070088
:102f0c000001be000800be00aff507000004be00c3
:102f1c00de0090004e00900000805000cf80de005c
:102f2c007ef507000001be000800be00e8f50700b2
:102f3c000004be004e009000cf80de0077f5070045
:102f4c000001be000800be0016f6070072f607006e
:102f5c00000f78005e0090009e0f500003003100bf
:102f6c005e009000000f7800050037004e009000c6
:102f7c009e0f5000020036004e009000000f7800ab
:102f8c001e0078004f04be000080fa00000006000e
:020000040000fa
:102f9c0026080000240000000000000000080000cb
:102fac0026000000000000004a0800000400000099
:102fbc000200000002000100000000000000000000
:00000001FF
