:020000040000fa
:080000000002040000000000f2
:020000040000fa
:10040000efd22100007f24000001880000000000de
:100410000c00070000f32300010020001f0007006c
:10042000000020000000e000020032000000020096
:10043000000000000a0f0200000000000040da0087
:100440000000fe004440a900601420000000e0000d
:100450000300320000002000a00188004440a800f2
:1004600000000600f03fb1000180b1000600350039
:10047000ee03090000000000403fb1000180b10020
:10048000fbff3d001000b000203fb000020035002f
:1004900000800900000000000000060091018800b3
:1004a000800078000000eb0015003700e28040007b
:1004b00032a0b4009101ba00e280400032a0b40042
:1004c0009102ba00e280400032a0b4000002eb00ca
:1004d000472bde00f507b200602ce10004003a0073
:1004e0000059eb008301e900fdff3e0004003700e6
:1004f0006128e100010032000082eb0004000700e7
:100500001101ba000200e000e8ff3a000000060016
:100510003159ba008301e9000c0032002159ba00b8
:100520008301e900080032000400e00003003a0003
:10053000e280400032a0b400f5ff370011d9ba00c4
:100540008301e900faff3a008100e800e180400001
:1005500032a0b40000000600d82c04000000000007
:10056000e02c040000000000ac2c0400000000009f
:10057000fe2c0400000000007c2b040000000000a2
:100580000e2c040000000000742d04000000000088
:10059000167a0400000000007877040000000000d4
:1005a000a677040000000000839f68000100e000bf
:1005b00002003d0060001000e08018000300e00031
:1005c00002003d0060011100e081190044010700b4
:1005d0004f00e00002003b0060001000e0801800c7
:1005e00000000600889fbe008a9fbe0001057800bb
:1005f0000100e0000400350008003c000000e000bd
:10060000200032000500370060001000e080180074
:1006100002003b0001f02c001a0037000004be006d
:100620006011b8006b0920000982cf000200390078
:100630000882cf000441b000694252000e0032002f
:1006400008003b0082817100610164008904d100cf
:100650000884d3008b05e8000442e800f9ff3a0063
:10066000050037000804440089844c008b05e9002c
:100670000442e900fbff3a00290107000af0a70045
:1006800001f0a0004f05be004f04be0000000600b0
:10069000889fbe008a9fbe008c1f7800460107001d
:1006a0004d01330003866c006450e10024003200e9
:1006b0006420e100270032006150e1002200320096
:1006c0006120e100210032008b854200eb07b10080
:1006d0000134b800003ab8000804420089844a0096
:1006e000013ab8000030b8008880400009014a0093
:1006f00004003300000040008180480002014900ee
:100700008b05e900c909dd0083017000010032009a
:1007100013002000c814de004814dd004709de0085
:100720001200b200c808de0008847000fc00070058
:1007300001f0a1000cf0a70001f0a0002f0137008c
:100740006120e100310132000801be000200be005c
:10075000f7ff37006150e100fcff3a002b01370042
:1007600003f0a200889fbe008a9fbe008c1f780005
:1007700011010700180133006450e1004f003200fe
:100780006420e1005200320003826c0007003b004d
:100790000905d0000306d000820f54000c065d004e
:1007a0000200390002003200890178000306780057
:1007b0008582550004003d000003fd008103fd001b
:1007c0008502ea008b854200840f720002003b0024
:1007d00060001000e08018006011b8000005eb0018
:1007e0007a28e1000a00390006007800c75ddd00c4
:1007f000f707b200878075002d00370082817100f5
:100800000a017800610560008180d1000080d3007a
:100810008502e900f9ff3b00060440008784480098
:1008200002003b0060041400e0841c000988a3005f
:10083000070032008a8171008281710061016400c9
:100840008904d1000884d3008b05e8001700370025
:100850000978a30013003a000b00e00013003400f5
:100860008b05e9000804440089844c000a447400a4
:100870000978a3000d003a000b00e00007003400e7
:100880008b05e9000804440089844c0001003a000b
:100890000b0020000978a300f7ff32000001eb00f5
:1008a00002003700828171000a0178009c00070075
:1008b0000cf0a70001f0a000d00037006420e10098
:1008c00002003a00838f6c00d00033000801be00a4
:1008d0000200be00c9003700f4ff2f00ce00370031
:1008e00014002000cc0037000001be00e500070026
:1008f0000470a70003f0a1006509b10016003200e2
:100900000d0035006828e10006003500f0ff2f00db
:10091000f1ff27000300e00013003b000100280066
:100920000000050000004000818048008502e900c9
:10093000fcff3a0008003700f88f420002003c003c
:100940008000eb00000005008100d1000080d30092
:100950008502e800fcff3a000300e00002003b00d3
:1009600060001000e080180000000600889fbe00b4
:100970008a9fbe008c1f78008f000700960033000e
:1009800003866c006450e1002e0032006420e10018
:10099000330032006150e1002f0032006120e1009d
:1009a0003100320085855500eb07b00009002000ba
:1009b00008042000050037000804440089844c0026
:1009c0000a0031000603430087834b0000015300f7
:1009d00081815b00f8ff33000203be000800a00025
:1009e0000804440089844c00f6ff3900c639dd0054
:1009f0008301730001003200130020008904d1003c
:100a00000884d3000998a300050032000800a7005d
:100a10000300a0008904d1000884d3008b05e800fe
:100a20008904d1000884d3000001eb000281d200c8
:100a30003b00070001f0a1000cf0a70001f0a000ae
:100a40006e0037006420e100700032000801be0033
:100a50000200be00f7ff37006120e1006b003200aa
:100a60006000b800f3ff37000000200001f8270005
:100a7000f0ff37000001be00820007000470a700ed
:100a800003f0a10003f8a30013003a006509b100c8
:100a900010003200090035006928e100020035002d
:100aa000010028000000050000004000818048008f
:100ab0008502e900fcff3a0000000600f88f4200c2
:100ac000050035008100d1000080d3008502e800d8
:100ad000fcff3a00000006008000eb00000005006b
:100ae0006022b800060220000000d0008180d20001
:100af0000482d2008582d2000000a00002025200cf
:100b000083825a00030031000202420083824a00bd
:100b10000000a1000603e900f3ff3a000000060010
:100b200081002000618055000b003d000b0020007b
:100b300061fe2f000100e1001d0034008281710080
:100b4000610164008904d1000884d3000000e8003a
:100b5000faff3a0071002000610064000300700099
:100b6000020060000900320061044400e0844c008f
:100b70000988a500050032008b05e8006808e1003f
:100b800002003a008904d1000884d300f20f20004b
:100b90000258e10005003d00c75ddd00f907b20025
:100ba0008980750008007800000006000bf8270017
:100bb0008b007800000005000004be003100070033
:100bc0000003be000405be000200be002d000700a9
:100bd000844f7500000006000200be006450e10072
:100be000050036006420e100020036000968a30019
:100bf00001003a000800be000160a0004f06780026
:100c00004f05be004f04be0000000600f0ff2f009d
:100c1000f1ff2700f9ff3700889fbe008a9fbe00c2
:100c2000841f7800e4ff07004f00780011003300b4
:100c3000f0ff2f00838f6c0006003b000405650069
:100c40000a00a7000800370009f0a60010002000e5
:100c500008003700820f5400838f5c0003003900c6
:100c60001000200001003e000000200009f0a70055
:100c70000000ea004f05be004f04be000000e00087
:100c800000000600c70ade00f107b200f50fb2004f
:100c900008003200e1cf4200020032000170a000e3
:100ca00024000500810f70000100320004080500d7
:100cb00044000500810f700002003a001400050096
:100cc0008502e9000000400081c04800fcff3b00b5
:100cd0000170a0002400050076c2bf000008a30038
:100ce000fdff3a0076c2bf000018a300faff3a00e9
:100cf00076c2bf000028a300f7ff3a0076c2bf000b
:100d00000038a300f4ff3a0076c2bf000048a300f9
:100d1000f1ff3a0079c2bf000068a300eeff3a007d
:100d2000000006007602a800000006000080fb001c
:100d30009013880078c2bf0001c8b3000140600072
:100d40000080fb000000e9004f00de000000e90029
:100d5000000006007642a80000000600a1108800ee
:100d6000b01088000000060016c2bf000008a300f3
:100d7000fdff3a0016c2bf000018a300faff3a00b8
:100d800016c2bf000028a300f7ff3a0016c2bf003a
:100d90000038a300f4ff3a0016c2bf000048a300c9
:100da000f1ff3a0019c2bf000068a300eeff3a004d
:100db00000000600a1138800b013880000000600a0
:100dc00006c2bf000008a300fdff3a0006c2bf0034
:100dd0000018a300faff3a0006c2bf000028a300d3
:100de000f7ff3a0006c2bf000038a300f4ff3a0044
:100df00006c2bf000048a300f1ff3a0009c2bf00cd
:100e00000068a300eeff3a00000006000602a800fa
:100e1000000006000080fb001010880008c2bf0020
:100e200001c8b300014060000080fb000000e90041
:100e30004f00de000000e900000006000642a800a6
:100e4000000006000662a80006c2bf000038a3002a
:100e5000fdff3a0008c2a900001080000080fb00de
:100e60000000060006a2a8000682a80000000600f6
:100e70001602a800000006000080fb009010880009
:100e800018c2bf0001c8b300014060000080fb0031
:100e90000000e9004f00de000000e900000006004d
:100ea0001642a800000006001662a80016c2bf0085
:100eb0000038a300fdff3a0018c2a900801080008e
:100ec0000080fb000000060016a2a8001682a80001
:100ed000000006007662a80076c2bf000038a300ba
:100ee000fdff3a0078c2a900801380000080fb005b
:100ef0000000060076a2a8007682a8000000060086
:100f00001622a8000000060016a2a9001682a8005a
:100f1000000006007622a8000000060076a2a900c4
:100f20007682a800000006008001eb000200370076
:100f300061f079008301e800828f5100fcff3a00e4
:100f4000000006000400fa00e0bf9f00e4815700a3
:100f5000812978000002eb000f0037006fb897007e
:100f6000904078007fb89700104078000402e800b5
:100f700080cf5000040032008180fb000080fb0025
:100f800000805000070037006fb897000000e800ad
:100f9000e0bf9f009309e800820f5200efff3a0084
:100fa0000000eb000080fa0000000600000278005c
:100fb000808f50000a00310082814000808f5100f4
:100fc00007003600020240008000eb004362780018
:100fd0008100e800828f500007003200fbff3700dd
:100fe0000200e0000400320002814000315a780023
:100ff000828f5000fdff3a00000006008001eb00e8
:1010000002003700817178008301e800828f51006f
:08101000fcff3a00000006009d
:020000040000fa
:020000040005f5
:0457f8009e430000cc
:020000040000fa
:020000040005f5
:0457fc007b3e0000f0
:020000040000fa
:100008005a0e00005a0e00005a0e00005a0e000048
:100018005a0e00005a0e00005a0e00005a0e000038
:100028005a0e0000da7a00005a0e00001c7a00000e
:100038005a0e0000007b00005a0e0000427a0000b1
:10004800687a00005a0e00005a0e0000e47b000097
:100058000a7c0000be7b00005a0e00005a0e000009
:100068005a0e00007e5400005a0e00005a0e00007e
:100078005a0e00005a0e00005a0e00005a0e0000d8
:100088005a0e00005a0e00005a0e00008e7a000028
:10009800b47a00005a0e00005a0e00005a0e0000f2
:1000a8005a0e00005a0e00005a0e00005a0e0000a8
:1000b8005a0e0000267b00004c7b0000727b00007b
:1000c800987b00005a0e00005a0e00005a0e0000dd
:1000d8005a0e00005a0e00005a0e00005a0e000078
:1000e8005a0e00005a0e0000ae5400005a0e0000ce
:1000f8005a0e00005a0e00005a0e00005a0e000058
:100108005a0e00005a0e00005a0e00005a0e000047
:100118005a0e00005a0e00005a0e00005a0e000037
:100128005a0e00005a0e00005a0e00005a0e000027
:100138005a0e00005a0e00005a0e00005a0e000017
:100148005a0e00005a0e00005a0e00005a0e000007
:100158005a0e00005a0e00005a0e00005a0e0000f7
:100168005a0e00005a0e00005a0e00005a0e0000e7
:100178005a0e0000de540000783200005a0e0000cb
:100188005a0e00005a0e00005a0e00005a0e0000c7
:100198005a0e00005a0e00005a0e00005a0e0000b7
:1001a8005a0e00005a0e00005a0e00005a0e0000a7
:1001b8005a0e00005a0e00005a0e00005a0e000097
:1001c8005a0e00005a0e00005a0e00005a0e000087
:1001d8005a0e00005a0e00005a0e00005a0e000077
:1001e8005a0e00005a0e00005a0e00005a0e000067
:0801f8005a0e00005a0e00002f
:020000040000fa
:100208005a0e00005a0e00005a0e00005a0e000046
:100218005a0e00005a0e00005a0e00005a0e000036
:100228005a0e0000da7a00005a0e00001c7a00000c
:100238005a0e0000007b00005a0e0000427a0000af
:10024800687a00005a0e00005a0e0000e47b000095
:100258000a7c0000be7b00005a0e00005a0e000007
:100268005a0e00007e5400005a0e00005a0e00007c
:100278005a0e00005a0e00005a0e00005a0e0000d6
:100288005a0e00005a0e00005a0e00008e7a000026
:10029800b47a00005a0e00005a0e00005a0e0000f0
:1002a8005a0e00005a0e00005a0e00005a0e0000a6
:1002b8005a0e0000267b00004c7b0000727b000079
:1002c800987b00005a0e00005a0e00005a0e0000db
:1002d8005a0e00005a0e00005a0e00005a0e000076
:1002e8005a0e00005a0e0000ae5400005a0e0000cc
:1002f8005a0e00005a0e00005a0e00005a0e000056
:100308005a0e00005a0e00005a0e00005a0e000045
:100318005a0e00005a0e00005a0e00005a0e000035
:100328005a0e00005a0e00005a0e00005a0e000025
:100338005a0e00005a0e00005a0e00005a0e000015
:100348005a0e00005a0e00005a0e00005a0e000005
:100358005a0e00005a0e00005a0e00005a0e0000f5
:100368005a0e00005a0e00005a0e00005a0e0000e5
:100378005a0e0000de540000783200005a0e0000c9
:100388005a0e00005a0e00005a0e00005a0e0000c5
:100398005a0e00005a0e00005a0e00005a0e0000b5
:1003a8005a0e00005a0e00005a0e00005a0e0000a5
:1003b8005a0e00005a0e00005a0e00005a0e000095
:1003c8005a0e00005a0e00005a0e00005a0e000085
:1003d8005a0e00005a0e00005a0e00005a0e000075
:1003e8005a0e00005a0e00005a0e00005a0e000065
:0803f8005a0e00005a0e00002d
:020000040000fa
:101e00000400fa00000f7800110798000080fa0023
:101e1000000006000000fa0091360700ac3607000b
:041e2000feff37008a
:020000040000fa
:1010180009020000200000000101000000c00000db
:10102800320900000400000000020000ffff000079
:10103800ff0000000705000001010000ffff00009d
:10104800010700000581000001ff0000ff0100000a
:1010580004030000010000001a0300005200000011
:101068006f000000620000006f00000074000000c4
:1010780065000000580000002c000000200000005f
:10108800490000006e000000630000002c0300000f
:101098004d00000061000000790000002000000001
:1010a800310000003700000020000000320000007e
:1010b8003000000031000000320000002000000075
:1010c80031000000350000003a0000003100000047
:1010d800310000003a00000030000000320000003b
:1010e800000000000c8800002c88000030880000f8
:1010f8004a8800000d0a00004d6f0000746f000060
:101108007220000046690000726d000077610000df
:101118007265000020620000756900006c640000c0
:101128003a200000200000000d0a000000520000d4
:10113800434f00004e200000202000002020000027
:101148002020000020200000202000002020000097
:10115800200d00000a0000002020000020200000d0
:101168002020000020200000202000002020000077
:10117800202000002020000020200000200a00007d
:10118800004c00006f6f000070200000202000005d
:10119800202000002020000020200000200d00005a
:1011a8000a00000055530000422000005469000066
:1011b8006d6500006f750000742000004465000034
:1011c800746500006374000065640000200d000071
:1011d8000a0000004d61000079200000313700004e
:1011e80020320000303100003200000031350000ac
:1011f8003a310000313a00003035000000000000ac
:101208000000000042610000736500006c69000086
:101218006e650000206300007572000072650000b2
:101228006e7400003a200000000d00000a00000063
:101238007a7a00007a7a00007a7a0000202000008a
:10124800207a00007a7a00007a7a00007a2000007a
:10125800207a00007a7a00007a7a0000250d0000d2
:101268000a0000000000000000000000000000006c
:1012780000000000000000008000000000000000e6
:101288000000000000010000bfff0000ffff000099
:0c129800ffff0000ffff0000ff0000004f
:020000040000fa
:101e24000000fa00110020000000eb00d00a0700b7
:101e34001100200010002000cd0a0700dd42a80098
:101e4400dcc2a800dce2a8000060fe00feff370050
:101e54000200fa00000f78001e007800c200dd00c6
:101e6400c02b2100008140006000b8000089be0042
:101e74001e007800c200dd00402d210000814000da
:101e84006000b8000089be000080fa00000006006f
:101e94000200fa00000f78001e007800c200dd0086
:101ea400802c2100008140006000b8000089be0041
:101eb4001e007800c200dd00002e210000814000d9
:101ec4006000b8000089be000080fa00000006002f
:101ed4000200fa00140b0700d73207000000eb00e1
:101ee400c805070010002000c605070020002000d8
:101ef400c40507000000eb00000f78001100370054
:101f0400110020000000eb00990a070011002000d6
:101f140010002000960a0700a00020002e340700bd
:101f24008000eb000000eb00910a07008000eb004a
:101f3400100020008e0a07008002200026340700cb
:101f44001e0fe800300120009e0f1000ecff360049
:101f5400d3fc07007f0f0700890f07000080fa00f9
:101f6400000006000800fa00300798006000b8007e
:101f740010079800210798000000eb00000f78007c
:101f84000f0037003e0090009e0078004200dd0004
:101f940001004000c200dd00000b21000080400071
:101fa4001001be001e009000ae0090000000410031
:101fb4008180490010079800210798001e0fe8004f
:101fc400300020009e0f1000eeff34001e00900031
:101fd400ae0090004e09dd004200de0000007100fa
:101fe400c288de0010079800210798003e00900088
:101ff400c200dd00200e2100008040001e01900080
:10200400ae0190000288be003e0190003e009000a8
:1020140080004000e014210000804000900078001f
:102024004310dd0001004000c200dd00e00e21008d
:10203400008040001e019000ae0190000288be00a6
:10204400be00900001814000e01421000000410026
:10205400100078000001e80081804000e0142100b5
:1020640000804000020878003e0190003e0090008d
:1020740080004000e014210000804000100078003f
:10208400e701600082004100e0142100008040006c
:10209400030878000080fa00000006000800fa0037
:1020a400300798006000b8001007980021079800d6
:1020b4000000eb00000f78000f0037003e00900096
:1020c4009e0078004300dd0001004000c200dd00f6
:1020d400e00e2100008040001001be001e009000b0
:1020e400ae00900000004100818049001007980074
:1020f400210798001e0fe800700020009e0f1000ba
:10210400eeff34001e009000ae0090004d09dd008b
:102114004300de0000007100c388de001007980051
:10212400210798003e009000c200dd004015210008
:10213400008040001e019000ae0190000288be00a5
:102144000080fa00000006000800fa00300798003a
:102154006000b80010079800210798000000eb0009
:10216400000f78000f0037003e0090009e007800ba
:102174004300dd0001004000c200dd00c016210064
:10218400008040001001be001e009000ae009000d0
:102194000000410081804900100798002107980041
:1021a4001e0fe800700020009e0f1000eeff3400a8
:1021b4001e009000ae0090004d09dd004300de00db
:1021c40000007100c388de00100798002107980002
:1021d4003e009000c200dd00201d21000080400070
:1021e4001e019000ae0190000288be000080fa003b
:1021f400000006000200fa00889fbe00000f78006d
:102204006000b80070b3880081b388000000eb0060
:1022140060b388006000b80040b3880051b3880000
:102224000000eb0030b388006000b80010b38800f1
:1022340021b388006000b800f0b2880001b38800c0
:102244006000b800d0b28800e1b288006000b80035
:10225400b0b28800c1b288006000b80090b28800b3
:10226400a1b288006000b80070b2880081b2880012
:102274000000eb0060b288000000eb0050b2880060
:102284000000eb0050b28800200037001e007800e8
:1022940051b280004200dd0001004000c200dd00b8
:1022a40020062100008040001001be0010b3800011
:1022b40021b38000020040008380480010b38800ee
:1022c40021b388001e00780051b280004200dd0076
:1022d40001004000800040002009210000804000ef
:1022e400100078006101b900f0b2800001b38000f1
:1022f4000200400083804800f0b2880001b38800e7
:1023040050b280000000e80050b2880050b2800053
:10231400e30f5000ddff340010b3800021b38000d0
:10232400e00f5000e08f58000c00340010b3800020
:1023340021b38000c289de004e0add004201de00c6
:102344000201720000602300e116200095f80700e6
:1023540070b3880081b38800030037006000b800c0
:1023640070b3880081b388001e00e0000a003a00c0
:10237400dac2bf00614060000004e00003003200e4
:102384000080eb0060b388000f00370010002000cd
:1023940060b388000c003700100020009e0f10006e
:1023a40009003a00e2c2bf000042b2000004e000ab
:1023b400030032001000200060b3880002003700e0
:1023c4000080eb0060b388009e01780060b3800059
:1023d4006103b90074b3800085b38000860078007f
:1023e40004007800000cb80005b0b90009017800b9
:1023f4000001410007a0b9000001410082047800f7
:10240400c218dd0000162100008040000888be00cc
:102414001e007800a10521004200dd0001004000fb
:102424001001be001e007800c200dd00e063210040
:10243400008040001000be00800f5100818f5900c1
:1024440007003a001e007800c200dd0000162100db
:10245400008140006000b8000089be000c00370015
:102464001e00e00004003a00008b8000118b800005
:10247400c0d0880006003700140020009e0f120010
:1024840003003a00208b8000318b8000d0d088007c
:102494001e0278001e007800a10521004200dd0024
:1024a400010040001001be00c220dd00e0632100f5
:1024b400008040000288be004f04be000080fa0085
:1024c400000006000200fa00881f78000000eb00fc
:1024d400000f78000c0037001e0478001e007800fe
:1024e4008040780000c5b300f432070080407800d3
:1024f40000c821000000440001487800500020007a
:10250400b53207001e0fe800e00420009e0f100003
:10251400f1ff36004f0478000080fa000000060046
:102524001400fa0084c0bf00684060000004e000aa
:1025340086003200eac2bf000080fb004500de00d6
:102544000004a200614060006140600061406000de
:10255400614060004501dd00a12e2000914078001b
:10256400f0cdb30000c0600002407000eae2b700a2
:102574008460a900e07f8000e10f500003003a006e
:10258400008080000000e800008088000000eb006c
:1025940040079800250037004e009000800040005e
:1025a40060fd20000080400010007800e10f500022
:1025b4000a003a00ce00900001814000c0fd2000d6
:1025c40000004100100078000001e8008180400014
:1025d400c0fd200000804000020878004e009000fa
:1025e4008000400080fe2000008040001000780041
:1025f400e10f50000a003a00ce0090000181400033
:10260400e0fe200000004100100078000001e80016
:1026140081804000e0fe2000008040000208780035
:102624004e0090000000e800400798004e00900023
:10263400e20f5000d8ff340050808000e10f5000ba
:1026440003003a00608080000000e8006080880099
:1026540020808000e10f500003003a0030808000a9
:102664000000e80030808800d07f8000e10f500037
:1026740006003a00b07f8000c17f80006100400006
:10268400e0804800b07f8800c17f8800a08080007f
:10269400e10f500003003a00c08080000000e80011
:1026a400c0808800d0808000e10f500003003a0011
:1026b400f08080000000e800f08088003081800015
:1026c400e10f500003003a00508180000000e80050
:1026d4005081880060818000e10f500003003a00bf
:1026e400708180000000e800708188008081800093
:1026f400e10f500003003a00908180000000e800e0
:1027040090818800a0818000e10f500003003a000e
:10271400c08180000000e800c0818800d081800072
:10272400e10f500003003a00f08180000000e8004f
:10273400f081880000828000e10f500003003a001d
:10274400208280000000e80020828800c080800091
:102754000000e0000200340010002000b080880077
:10276400b27f8000c37f8000c014200001002000dd
:10277400800f5100818f59000200340010002000a6
:10278400a07f88000000eb00400798002f0037006e
:102794004e00900080004000c0fd200000804000fa
:1027a40010007800e90f5000120034004e00900031
:1027b4008000400000fd20008080400010002000c8
:1027c400800878004e0090008000400060fd2000ea
:1027d400808040000000eb00800878004e009000ec
:1027e40080004000c0fd2000808040000000eb001d
:1027f400800878004e00900080004000e0fe200039
:102804000080400010007800e40f50000c003400f9
:102814004e0090008000400020fe20008080400098
:1028240010002000800878004e00900080004000d6
:10283400e0fe2000808040000000eb00800878006b
:102844004e0090000000e800400798004e00900001
:10285400e20f5000ceff3400308080000000e00022
:102864000600340010002000108088000000eb00f7
:10287400308088000000eb002080880060808000a9
:102884000000e000060034001000200040808800b2
:102894000000eb00608088000000eb00508088009e
:1028a400008080000000e0000200340010002000de
:1028b400f07f8800f180800020022000808f50008b
:1028c4000200340010002000e08088005081800065
:1028d400e90f5000020034001000200040818800fd
:1028e40070818000f80f50000f00340070cd80001c
:1028f400e10f500006003a000000eb00b010880021
:102904000000eb00c010880017e2a800110d0700ba
:102914001000200070cd88000000eb00708188005a
:102924001000200050cd880090818000f80f5000e6
:102934000f00340080cd8000e10f500006003a0003
:102944000000eb00b01388000000eb00c013880007
:1029540077e2a8000a0d07001000200080cd88004f
:102964000000eb00908188001000200060cd8800fa
:10297400c0818000e30f50000400340010002000e8
:10298400b08188000000eb00c0818800f0818000e5
:102994000000e0000400340010002000e081880002
:1029a4000000eb00f08188002182800030062000c6
:1029b400808f500004003400100020001082880032
:1029c4000000eb00208288000000eb004007980024
:1029d400170037004e0090008000400020fe2000c9
:1029e4000080400010007800e10f50000d003a0014
:1029f4004e0090008000400040fc20000080400019
:102a0400900078004e0090009d0407004e00900056
:102a14008000400020fe2000808040000000eb0089
:102a2400800878004e0090000000e80040079800fd
:102a34004e009000e20f5000e6ff3400108080004a
:102a4400e10f50000f003a001000200020808800a1
:102a54000000eb00108088000000eb0040079800a5
:102a6400050037004e009000e2fd07004e00900084
:102a74000000e800400798004e009000e10f50006d
:102a8400f8ff340040808000e10f50001b003a0042
:102a94000000eb0040808800100020005080880077
:102aa4000000eb0040079800050037004e0090003e
:102ab4002cfd07004e0090000000e800400798003d
:102ac4004e009000e20f5000f8ff3400128780009f
:102ad4002387800030878000418780000201400006
:102ae4008381480050878000618780000200400095
:102af4008380480030b6880041b68800e0808000ba
:102b0400e10f500010003a000000eb00c09788006d
:102b14000000eb00e08088000000eb00d08088001b
:102b24000000eb00f0808800100020003081880055
:102b34000000eb00508188000000eb004081880019
:102b4400100020005098880040818000e10f500060
:102b540008003a000000eb00308188000000eb0020
:102b6400508188000000eb00408188000000eb00e9
:102b74005098880070cd8000e10f500001003a00a9
:102b8400552a070080cd8000e10f500001003a0073
:102b9400842c0700b0818000e10f5000ae003a00a1
:102ba4000000eb00b08188006000b80020079800a6
:102bb400310798006000b800008fbe000000eb00f1
:102bc40040079800180037004e0090008000400035
:102bd400801f210000804000100078006101b900ce
:102be4002e009000be00900000004100818049004a
:102bf40020079800310798004e0090000000400024
:102c0400e8004000801f2100008040001000780090
:102c1400cf80de001e0f40005e9748004e009000fb
:102c24000000e800400798004e009000e30f5000b9
:102c3400e5ff34002e009000be0090004e09dd0038
:102c44004200de0000007100c288de00e0d088008f
:102c54001e00be00ce09dd004200de0000807100cf
:102c6400c288de00f0d088001e00be004e0add00df
:102c74004200de0000007200c288de00000178001d
:102c84002e009000be009000ce09dd004200de0060
:102c940000807100c288de00820078003d0c0700cd
:102ca40060e98800a08a8000b18a800000d1880091
:102cb400c08a8000d18a800010d18800e08a800018
:102cc400f18a800020d18800a00521001000be00f8
:102cd40030d18800a0052100b000900020009000b1
:102ce40040d18800dac2bf000080fb000000d100a0
:102cf400614060008040780000ac21000148780009
:102d0400e2c2bf000080fb004500de0061406000bd
:102d14008040780010ac2100014878006000b800c1
:102d240020079800310798006000b800008fbe00ab
:102d34000000eb0040079800180037004e00900098
:102d440080004000a06c210000804000100078004a
:102d54006101b9002e009000be0090000000410007
:102d64008180490020079800310798004e009000a8
:102d740000004000e8004000a06c210000804000fa
:102d840010007800cf80de001e0f40005e974800e0
:102d94004e0090000000e800400798004e009000ac
:102da400e30f5000e5ff34002e009000be009000b9
:102db4004e0add004200de0000007200c288de0020
:102dc40070d688001e00be004e09dd004200de0001
:102dd40000007100c288de0080d688006000b80060
:102de40020079800310798000000eb004007980086
:102df4000f0037004e009000c12021000000400069
:102e040001004000100078006101b9002e0090001c
:102e1400be00900000004100818049002007980016
:102e2400310798004e0090000000e8004007980029
:102e34004e009000e30f5000eeff34002e0090008f
:102e4400be009000ce09dd004200de00008071006b
:102e5400c288de0090d68800e0818000e10f500037
:102e640078003a006000b800200798003107980005
:102e74006000b800008fbe000000eb00400798001f
:102e8400170037004e009000416a21000000400006
:102e940001004000100078006101b9002e0090008c
:102ea400be00900000004100818049002007980086
:102eb400310798004e009000c16a210000004000d4
:102ec4000100400010007800cf80de001e0f40009b
:102ed4005e9748004e0090000000e800400798000c
:102ee4004e009000e30f5000e6ff34002e009000e7
:102ef400be0090004e0add004200de0000007200b9
:102f0400c288de0070e888001e00be004e09dd00a5
:102f14004200de0000007100c288de0080e8880004
:102f24000000eb00e08188002e009000be009000bd
:102f3400c289de004e0add004201de000201720099
:102f4400f01f200001002000800f5100818f5900e4
:102f54000a003c001e00be00c289de004e0add00ed
:102f64004201de0002017200f01f20000100200077
:102f7400800f5100818f59001b00340090b38000f2
:102f84000000e80090b3880090b38000ea0f50007e
:102f94002c0034000000eb00a60707000000eb0043
:102fa400c50707000000eb00e40707000000eb0082
:102fb4009401070010002000920107002000200067
:102fc4009001070010002000c09788000000eb006b
:102fd4002082880010002000008288000000eb009e
:102fe40010828800170037002e009000be00900069
:102ff400c289de004e0add004201de0002017200d9
:103004005015200001002000800f5100818f5900cd
:103014000a0034001e00be00c289de004e0add0034
:103024004201de0002017200501520000100200060
:10303400800f5100818f590002003c000000eb001a
:1030440090b3880010828000e10f50000e003a0017
:10305400110020000000eb004506070011002000cd
:1030640010002000420607000000eb00c097880013
:103074000000eb00108288000000eb002082880032
:103084000000eb000082880013060700b080800077
:10309400e10f500004003a000000eb00c0808800fb
:1030a4000000eb00b0808800f07f8000e10f50004a
:1030b40031013a000000eb00f07f88000000eb00d3
:1030c400008088000000eb004007980027013700cb
:1030d4004e0090008000400040fc20000080400032
:1030e40010007800100f980010e02e009e08900049
:1030f400808f50001200320010e02e001e09900054
:10310400800f510005003c0000e02e009e09900055
:10311400808f5100440032001101370020e02e005e
:103124001e0a9000800f5200af00320030e02e00e3
:103134009e089000808f5000730032000801370011
:103144004e0090000e0107004e00900080004000e9
:10315400e0fb20000080400010007800000f980081
:1031640020f02f000e099000800f5100090032005a
:1031740030f02f008e099000808f5100140032002f
:1031840010f02f000e0a9000800f52001f00320032
:10319400f30037004e0090001a0107004e00900023
:1031a4008000400040fc20008080400020e02e0091
:1031b400800878004e00900080004000a0fc2000b1
:1031c4008080400040e02e0080087800e400370052
:1031d4004e0090000b0107004e009000800040005c
:1031e40040fc20008080400020e02e008008780011
:1031f4004e00900080004000a0fc20008080400031
:1032040040e02e0080087800d50037004e00900082
:1032140080004000e0fb20008080400000f02f0090
:1032240080087800ce0037004e00900080004000f7
:10323400e0fb200000804000100078007007980038
:1032440020f02f00fe009000808f50000900320013
:1032540030f02f007e019000800f51000c003200ee
:1032640010f02f00fe019000808f510017003200f3
:10327400bb0037004e0090008000400080fe20001c
:10328400808040001000200080087800b4003700df
:103294004e009000db0007004e00900080004000cc
:1032a40040fc20008080400020e02e008008780050
:1032b4004e00900080004000a0fc20008080400070
:1032c40040e02e0080087800a50037004e009000f2
:1032d400cc0007004e0090008000400040fc20001d
:1032e4008080400020e02e00800878004e0090008e
:1032f40080004000a0fc20008080400040e02e00c0
:1033040080087800960037004e009000800040004e
:10331400e0fb200000804000100078006007980067
:1033240020f02f006e029000800f5200090032003e
:1033340030f02f00ee009000808f50001400320017
:1033440010f02f006e019000800f51001700320022
:10335400830037004e009000aa0007004e00900042
:103364008000400040fc20008080400020e02e00cf
:10337400800878004e00900080004000a0fc2000ef
:103384008080400040e02e00800878007400370000
:103394004e0090008000400080fe200080804000ad
:1033a40010002000800878006d0037004e00900067
:1033b400940007004e0090008000400040fc200074
:1033c4008080400020e02e00800878004e009000ad
:1033d40080004000a0fc20008080400040e02e00df
:1033e400800878005e0037004e00900080004000a6
:1033f400a0fc2000008040009000780040e02e00f7
:10340400808f500019003a004e0090008000400068
:1034140000fd20000080400010007800e10f500003
:1034240012003a004e00900080004000a0fc2000f2
:103434008080400050e02e00800878004e0090000c
:103444008000400000fd2000808040000000eb0070
:10345400800878004e00900080004000c0fd2000ed
:10346400808040000000eb00800878004e0090004f
:1034740080004000a0fc2000008040009000780004
:1034840050e02e00808f500035003a004e0090002e
:1034940080004000e0fb2000008040001000780025
:1034a4005007980020f02f00de019000808f51001b
:1034b4001200320030f02f005e029000800f5200a4
:1034c4001b00320010f02f00de009000808f5000af
:1034d40001003200220037004e009000280007004f
:1034e4004e0090008000400040fc2000808040009e
:1034f40010e02e0080087800190037004e0090007c
:103504008000400080fe20008080400010002000e9
:10351400800878004e0090008000400040fc2000ad
:103524008080400000e02e00800878000c00370006
:103534004e0090008000400080fe2000808040000b
:1035440010002000800878004e00900080004000a9
:1035540040fc20008080400030e02e00800878008d
:103564004e0090000000e800400798004e009000d4
:10357400e20f5000d6fe34000080fa00000006007e
:103584000400fa00000f78001e007800100798006d
:103594001e009000e10f50000d0032001e0090004c
:1035a400e20f5000100032001e0090000000e00006
:1035b40001003200110037000000eb001d06070077
:1035c400dd42a80000000000dce2a9000b00370087
:1035d4000000eb0038060700f502a8000000000018
:1035e400cca2a900050037000000eb005306070039
:1035f400ec22a80000000000ec02a9000080fa0000
:10360400000006000400fa00000f78001e00780095
:103614008000400080fe2000808040000000eb001d
:10362400800878001e00780080004000e0fe200042
:10363400808040000000eb00800878001e007800c5
:103644008000400060fd20008080400010002000c9
:10365400800878001e007800fdf907001e0078003d
:103664000bfa07001e007800100798001e00900057
:10367400e10f50000c0032001e009000e20f5000d9
:103684000e0032001e0090000000e0000100320035
:103694000e003700dd42a9000000eb00e50507003d
:1036a400dce2a80009003700f502a9000000eb00e5
:1036b40001060700cca2a80004003700ec22a900f0
:1036c4000000eb001d060700ec02a8000080fa00d1
:1036d400000006000800fa0030079800800220006d
:1036e400200798007098800081988000008fbe00a9
:1036f400703e200001002000be0f1000ae8f1800a5
:1037040019003c001e00be00e00f5000e08f58007e
:1037140015003400803e2000010020003e035000cc
:10372400ae8358008600780040022000000ab800ea
:103734006030b9000501780000014100400220001a
:1037440000b8b9000001410082027800823e2000e6
:10375400030020000400be0092f307006400400050
:103764002007980007003700703e20000100200069
:10377400be0f1000ae8f180002003400400020007d
:103784002007980050988000e10f500008003a008c
:1037940051818000400220000088b900a20020006e
:1037a400110009000200d8006400400020079800be
:1037b400ae00900080022000808f50000200340090
:1037c40080022000200798002e009000e30f500094
:1037d40002003c004000200020079800ae0090004a
:1037e40001b788002e0090000080fa000000060057
:1037f4003000fa00889fbe00200f9800310f980017
:10380400420f9800530f9800640f9800750f9800aa
:10381400061798007e089000c200dd00c02e21002b
:10382400008040004e099000de0990000288be002e
:103834007e0c90007e089000a6ff0700000178002f
:1038440088004400a06d2100008040000208780038
:103854004e089000de0890006017980071179800d9
:103864006e119000fe119000e00f5100e08f59009e
:1038740006003d006e109000fe10900060001000e5
:10388400e080180060179800711798007e08900077
:1038940080004000a06d21000080400010007800ee
:1038a4006103b900c20220000e01410092007800b9
:1038b40006007800000ab800ee1190000798b900dd
:1038c4000501780000014100fe11900003b0b90029
:1038d40000014100820278004e29dd004220de0012
:1038e40000007100c2a8de00000f9800110f9800bc
:1038f4007e089000c200dd00e06e210000804000e0
:103904000e0990009e0990000288be002e089000c7
:10391400be08900040179800511798004e1190006f
:10392400de119000e00f5100e08f590006003d00c9
:103934004e109000de10900060001000e08018002f
:1039440040179800511798000e0890009e089000a8
:103954004e119000de119000020050008380580048
:1039640020079800310798007e0a90007e08900096
:10397400c200dd00c02b2100008040001001be0009
:103984002e009000be009000020140008381480098
:10399400c220dd00c02b2100008040000288be0050
:1039a4007e089000c200dd00a06f2100008040006e
:1039b4002e019000be0190000288be002e009000ef
:1039c400be00900006f307000002be000e10900037
:1039d4007e0990006300b90002004000c200dd00cf
:1039e40000222100008040001001be000400be003f
:1039f40026f307000004be007e089000c200dd002c
:103a0400c02b2100008040001000be00f4f207002b
:103a14000002be000e1090007e0990006300b90001
:103a240002004000c200dd000025210000804000ab
:103a34001001be000400be0014f307000001be0024
:103a44000800be0046f307000004be007e08900094
:103a5400c200dd00402d2100008040001001be00a6
:103a64002e009000be009000020050008380580099
:103a7400dbf207000002be000e1090007e099000e9
:103a84006300b90002004000c200dd0000282100ec
:103a9400008040001001be000400be00fbf20700dd
:103aa4000001be000800be002df307004007980087
:103ab400510798007e089000c200dd00402d2100cf
:103ac400008040002e019000be0190000288be00dc
:103ad40032988000439880004e009000de009000f1
:103ae4007cf307000000e00001003d0017003700f0
:103af4003098800041988000400798005107980052
:103b04002e009000be009000e00f5000e08f58009f
:103b14000e0034007e0a90007e089000c200dd0092
:103b2400c02b2100008040001001be002e00900038
:103b3400be0090000001510081815900c220dd00c7
:103b4400c02b2100008040000288be006011b80034
:103b54004e009000de00900060f307000000e000db
:103b640001003500090037006000b80040079800e4
:103b7400510798007e089000c200dd00c02b210090
:103b8400008140006000b8000089be007e089000fb
:103b9400e20f500009003a007e0890004e099000a0
:103ba40080004000a02f210000804000020878001f
:103bb400ce089000311798002d0037007e0c90003d
:103bc4004e009000de00900046f3070000017800ec
:103bd40088004400a02f21000080400002087800e3
:103be4004e099000de0990001217980023179800e0
:103bf4001e109000ae109000e00f5000e08f5800af
:103c040006003d001e119000ae11900060011100ed
:103c1400e081190012179800231798001e109000d5
:103c2400ae1090006ef2070040079800510798000c
:103c340032988000439880004e009000de0090008f
:103c440024f307000000e00001003d0004003700f9
:103c540030988000419880004007980051079800f0
:103c64004e009000de0090001ef30700301798000d
:103c74003e1090004f04be000080fa0000000600d1
:103c84000e00fa0020079800310798002e009000db
:103c94002df907002e00900000f90700a0b5800060
:103ca400b1b58000c2b58000d3b5800002005000d9
:103cb4008380580040079800510798004e009000f8
:103cc400de009000e00f5000e08f580006003d0039
:103cd4004e009000de00900060001000e0801800ac
:103ce40040079800510798004e009000de009000b5
:103cf400709888008198880070988000819880006e
:103d0400000f7800703e20009e0f10000700340062
:103d14002e00900080004000602b21008080400035
:103d24000000eb0080087800060037002e009000a9
:103d340080004000602b21008080400010002000a3
:103d440080087800ae009000610798006e00900033
:103d5400e10f500065003200ee009000e28f500049
:103d6400c00032006e0090000000e000010032004c
:103d74000b013700be00900000e02e00808f500041
:103d84002b003a00c0978000e10f500003003a0076
:103d94000000eb00100798001a0037002e00900076
:103da40080004000602b2100008040001002780059
:103db4002e009000c200dd0040152100008040006c
:103dc4001000be00800378002e009000c200dd00c9
:103dd400406b2100008040001001be002e009000c6
:103de400c200dd00201d2100008040001000be0044
:103df40004037800ae029000070278007cfe0700fe
:103e040010079800c0978000e10f500002003a00ac
:103e1400dd42a90001003700dd42a800dce2a80071
:103e2400dcc2a8001e00900002040700dc0037007a
:103e3400be00900030e02e00808f5000d8003a0081
:103e4400c0978000e10f500003003a000000eb002f
:103e5400100798001a0037002e00900080004000e0
:103e6400602b210000804000100278002e0090009a
:103e7400c200dd0040152100008040001000be009b
:103e8400800378002e009000c200dd00406b21000a
:103e9400008040001001be002e009000c200dd0032
:103ea400201d2100008040001000be0004037800a3
:103eb400ae029000070278004dfe0700100798003c
:103ec400c0978000e10f500002003a00dd42a900d3
:103ed40001003700dd42a800dce2a800dcc2a90032
:103ee4001e009000d3030700ad003700be00900011
:103ef40000e02e00808f50002b003a00c097800015
:103f0400e10f500003003a000000eb001007980096
:103f14001a0037002e00900080004000602b210022
:103f240000804000100278002e009000c200dd00e6
:103f340040152100008040001000be00800378007e
:103f44002e009000c200dd00406b21000080400084
:103f54001001be002e009000c200dd00201d2100d3
:103f6400008040001000be0004037800ae02900000
:103f7400070278001efe070010079800c097800013
:103f8400e10f500002003a00f502a90001003700d9
:103f9400f502a800cca2a800cc82a9001e009000c3
:103fa400c50307007e003700be00900030e02e00fd
:103fb400808f50007a003a00c0978000e10f5000d3
:103fc40003003a000000eb00100798001a003700c5
:103fd4002e00900080004000602b210000804000f3
:103fe400100278002e009000c200dd004015210070
:103ff400008040001000be00800378002e00900076
:10400400c200dd00406b2100008040001001be00b2
:104014002e009000c200dd00201d21000080400021
:104024001000be0004037800ae029000070278007e
:10403400effd070010079800c0978000e10f5000c3
:1040440002003a00f502a90001003700f502a800b9
:10405400cca2a800cc82a8001e0090009603070002
:104064004f003700be00900000e02e00808f50000b
:1040740023003a002e00900080004000602b2100b5
:1040840000804000100278002e009000c200dd0085
:1040940040152100008040001000be00800378001d
:1040a4002e009000c200dd00406b21000080400023
:1040b4001001be002e00900080004000006c210022
:1040c4000080400010007800010020000403780004
:1040d400ae02900007027800c5fd070010079800a3
:1040e400ec22a80000000000ec02a8000000000080
:1040f400e462a8001e009000900307002800370027
:10410400be00900030e02e00808f500024003a0062
:104114002e00900080004000602b210000804000b1
:10412400100278002e009000c200dd00401521002e
:10413400008040001000be00800378002e00900034
:10414400c200dd00406b2100008040001000be0072
:1041540060011000e08118002e00900080004000f3
:10416400006c210000804000100078000100200055
:1041740004037800ae029000070278009cfd07005b
:1041840010079800ec22a80000000000ec02a80030
:1041940000000000e462a9001e009000670307000d
:1041a400ae0090001e0090006101b900c208dd005d
:1041b400206e2100008040000288be000080fa00ca
:1041c400000006000200fa00000f780023c2bf00be
:1041d400624060000004e000fcff3a008580a90012
:1041e4001e007800201188000080fa0000000600fc
:1041f4000c00fa00a0002000000f78000000eb0083
:10420400100798008f0037001e00900080004000c7
:1042140080fb2000008040009000780080bb2000dc
:104224001e004000808f500016003e001e009000cb
:104234008000400080fb2000008040009000780057
:1042440080bb20001e005000808f50000d003900fc
:104254001e00900080004000e0fb200080804000b1
:1042640010f02f00800878001e009000c200dd00ce
:10427400406b2100008140006000b8000089be004e
:104284006d0037001e0090008000400080fb20007d
:104294000080400090007800f07c2000808f500067
:1042a400300036001e0090008000400080fb20009b
:1042b400008040009000780080bb20001e00500069
:1042c400808f500027003e001e00900080004000b8
:1042d400e0fb20008080400030f02f008008780050
:1042e4001e0090008000400080fb20000080400001
:1042f4001000780001002000200798003107980082
:1043040082bb2000030020002e009000be0090001d
:1043140000005100818059004a09dd00c600de001a
:10432400810071004a00dd00823e2000030020006d
:104334009cf0070040079800510798001e02900067
:104344004e009000de00900060011000e081180033
:10435400c220dd00406b2100008040000288be00c6
:10436400350037001e0090008000400080fb2000d4
:10437400008040009000780080bb20001e004000b8
:10438400808f50002c0039001e00900080004000f7
:1043940080fb2000008040009000780000fa20009c
:1043a400808f500024003e001e00900080004000da
:1043b400e0fb20008080400020f02f00800878007f
:1043c4001e0090008000400080fb20000080400020
:1043d40010007800010020002007980031079800a1
:1043e4002e009000be0090004a09dd00c601de00e8
:1043f400830171004a01dd000000220011fd2f003d
:104404000200400083804800823e20000300200018
:1044140064f0070040079800510798001e009000c0
:10442400c200dd00406b2100008040004e0190007e
:10443400de0190000288be001e0090000000e8002b
:10444400100798001e009000e20f50006eff340029
:104454000080fa00000006000600fa00004f780011
:10446400110798001e0090000000e00009003a00c7
:104474001e80fb00800040004067210080804000d7
:104484000000eb00800878000000eb002007980093
:10449400500037001e80fb00800040004067210070
:1044a40000804000900078001e009000808f500033
:1044b40019003d009e80fb000181400040672100ff
:1044c40000004100100078000001e80081804000f5
:1044d4004067210000804000020878001e80fb0035
:1044e4008000400040672100008040009000780078
:1044f4001e009000808f5000270035001e80fb00b6
:104504008000400040672100008040009e00900031
:1045140001087800200037001e80fb008000400066
:104524004067210000804000900078001e00900049
:10453400808f5000180034009e80fb0001814000f1
:104544004067210000004100100078000001e900ec
:10455400818040004067210000804000020878000c
:104564001e80fb0080004000406721000080400066
:10457400900078001e009000808f500006003c00e0
:104584001e80fb0080004000406721000080400046
:104594009e00900001087800c09780000000e000b1
:1045a400060032000000eb00a0b388000000eb001e
:1045b400b0b388000000eb00c0b388001e80fb008d
:1045c4008000400040672100008040001000780017
:1045d400200798002e0090000080fa0000000600da
:1045e4000200fa00e0b380000000e800e0b38800b5
:1045f400d0b380000000e800d0b38800e0b38000ae
:10460400e50f50000a0036000000eb00e0b388001c
:1046140071d080000040eb008fff0700608f88009e
:1046240081d0800010c0b3008bff0700708f88001a
:10463400d0b38000ef0f5000060036000000eb00fe
:10464400d0b3880091d0800020c0b30082ff07005f
:10465400808f8800a07f8000e10f50002e003a0078
:104664000000eb00a07f88000000eb00d07f8800f2
:104674006000b800b07f8800c17f88000000eb00b4
:1046840070d088000000eb0080d088000000eb00b0
:1046940090d088000000eb00000f7800180037006d
:1046a4001e00780080004000c01e21008080400071
:1046b4000000eb00800878001e00780080004000b5
:1046c400e0fb20008080400010f02f00800878007c
:1046d4001e0278001e00780080004000c01e2100e9
:1046e40000804000100078006101b900c220dd00a4
:1046f400406b2100008040000288be001e0fe800cd
:10470400200020009e0f1000e5ff340071c1b300ab
:10471400608d280090290700f1b38000e0988000a4
:10472400808f50006a003200e0988000f0b3880067
:104734006000b800b07f8800c17f880010002000ae
:10474400d07f88000000eb00a07f88000000eb0011
:10475400000f78005b0037001e00780080004000e6
:10476400c01e210000804000100078000000e0001e
:1047740012003a001e00780080004000e0fb200098
:104784008080400010f02f00800878001e0278001e
:104794001e00780080004000c01e21000080400000
:1047a400100078006101b900c220dd00406b2100d7
:1047b400008040000288be00410037001e007800df
:1047c40080004000c01e210000804000900078005e
:1047d40000c02f00808f5000190034001e007800a4
:1047e40080004000c01e21000080400010007800be
:1047f4000000e00012003d001e0078008000400030
:10480400e0fb20008080400030f02f00800878001a
:104814001e0278001e00780080004000c01e2100a7
:1048240000804000100078006101b900c220dd0062
:10483400406b2100008040000288be002000370049
:104844001e00780080004000c01e2100008040004f
:10485400100078000000e000190034001e00780009
:1048640080004000c01e21000080400090007800bd
:10487400f03f2000808f500011003c001e007800a3
:1048840080004000e0fb20008080400020f02f00ea
:10489400800878001e0278001e0078008000400026
:1048a400c01e210000804000100078006101b900a2
:1048b400c220dd00406b2100008040000288be0061
:1048c4001e0fe800200020009e0f1000a2ff3400fd
:1048d4000080fa00000006000000fa0040ff070014
:1048e400100020000080fa00000006000000fa001a
:1048f400e16820009140780000ccb30000c0600063
:10490400c040b3008ee6b7000169200091407800f2
:1049140000ccb30000c060000044a00090e6b700e3
:10492400816d20009140780000ccb30000c060008d
:104934002041b300d8e6b700216c200091407800f4
:1049440000ccb30000c060003041b300c2e6b70041
:10495400916d20009140780000ccb30000c060004d
:104964004041b300d9e6b7000080fa000000060019
:104974000a00fa00000f7800110798001e00780062
:10498400200798002e0090000000e0000400320090
:104994002e009000e10f50000e0032001900370085
:1049a4001e009000300798003e0090000000e000d8
:1049b400060032003e009000e10f5000010032007a
:1049c40010003700dc62a8000e003700dc62a9008a
:1049d4000c0037001e009000400798004e00900025
:1049e4000000e000060032004e009000e10f50008d
:1049f4000100320003003700dc42a8000100370048
:104a0400dc42a9000080fa00000006001a00fa0047
:104a14000e80e800e18e28000b0009003158780070
:104a2400c000b1006e004700a18f280008000900f3
:104a3400315878009000b100690040008040eb00dc
:104a4400014878000000e8008040eb00014878004d
:104a54000000e8008040eb00014878000000eb0013
:104a6400000f78002b0037009e0078000e80e800cd
:104a740000804000104078000004e00006003a0086
:104a84009e00780000cd21008080400000c2b30069
:104a940080487800080037001e0178009e007800e6
:104aa4000e80e800008040009040780000cd210096
:104ab40000004100014878009e0078006e00470025
:104ac40000804000104078000004e00007003a0035
:104ad4001e007800ec00400000cd210080804000e2
:104ae40000c2b30080487800090037009e007800b7
:104af4006c8140009e0078006e00470000804000fa
:104b04009040780000cd2100000041000148780069
:104b14001e0fe800b00020009e0f1000d2ff3600e8
:104b24000080fa00000006000000fa000000eb001c
:104b3400001988000000eb00101988000000eb0049
:104b4400201988000080eb00601988000080eb00c9
:104b5400401688000080eb00801688000080eb007f
:104b6400c01688000080eb00001788000080eb006e
:104b7400401788000080eb00801788005bff070067
:104b84000080eb00601988002c43a9002c63a90065
:104b94002c03a9002c23a9002dc3a9002de3a900ef
:104ba4002d43a9002d63a9002d83a9002da3a900dd
:104bb4002d03a9002d23a900d862a900d842a90079
:104bc400d8c2a900d8e2a900d922a900d942a900d3
:104bd400c882a900c8a2a900f122a900f102a90073
:104be400e062a900e802a900e082a900e822a90085
:104bf400dd22a800f522a800e482a8001400070022
:104c0400880207000f0207001f020700fe010700c9
:104c140029020700310207006c0007008c0007001e
:104c2400ac000700390207005b02070053000700cd
:104c3400550007005b0007004d000700290007002e
:104c440020f6070071ff07000080fa00000006004c
:104c54000000fa0080cd220070cc880000ce220033
:104c640080cc8800c0ca220090cc8800e0cf22000b
:104c7400a0cc8800c0b72200b0cc8800e0c02200dd
:104c8400d0cc880040d7220010cd88000080fa00e4
:104c9400000006000400fa00004f78001147980055
:104ca400224798000bf007001df0070009f00700e9
:104cb4001e4078001cf0070006f007001e4090001c
:104cc40019f0070003f007002e40900016f00700cb
:104cd40000f007001ef00700feef07000080fa0056
:104ce400000006000000fa0082c5b30021c0b30032
:104cf40080c1b3004e2907000041eb0011c1b3008d
:104d040080c1b3004a29070040012000b2280700ef
:104d14000041eb0021c1b30080c1b3004429070066
:104d240040012000ac28070040012000aa28070009
:104d340001c3b30000d021000148780002cfb300c2
:104d4400b1c0b30080c1b300392907000060fe0080
:104d5400401f2000a02807000060fe004001200042
:104d64009d2807000060fe000080fa000000060095
:104d74000000fa000080fa00000006000000fa00bb
:104d84000080fa00000006000000fa00f10f200085
:104d9400f0232c00f0ef0700f2ef07000080fa0088
:104da400000006000000fa00f10f2000f0232c00a0
:104db400ffef0700c7ef07000080fa0000000600bd
:104dc4000000fa000080fa00000006000000fa006b
:104dd4000000eb00b00c8800007d2000a00c8800cf
:104de40092c1bf00f041b30092e1b70092e1a90083
:104df400111920009140780030ceb30000c060004b
:104e040091e1b700011920009140780080cfb300f0
:104e140000c060006040b30090e1b7004021200072
:104e24000100200000b4880011b488000080fa005a
:104e3400000006000200fa00000f78001e0078004f
:104e440000004000b00c88000080fa00000006005a
:104e54000000fa000000eb00000d8800007d200037
:104e6400f00c88009cc1bf00f041b3009ce1b70086
:104e74009ce1a900b11920009140780030ceb30024
:104e840000c060009be1b700a119200091407800a8
:104e940080cfb30000c060006040b3009ae1b70067
:104ea400402120000100200020b4880031b4880093
:104eb4000080fa00000006000200fa00000f7800eb
:104ec4001e00780000004000000d88000080fa00f9
:104ed400000006000000fa000000eb00500d8800fe
:104ee400007d2000400d8800a6c1bf00f041b30042
:104ef400a6e1b700a6e1a900511a2000914078006c
:104f040030ceb30000c06000a5e1b700411a200014
:104f14009140780080cfb30000c060006040b300cf
:104f2400a4e1b700402120000100200040b4880023
:104f340051b488000080fa00000006000200fa0064
:104f4400000f78001e00780000004000500d88001b
:104f54000080fa00000006000000fa000000eb00e8
:104f6400a00d880040212000900d8800b0c1bf0032
:104f7400f041b300b0e1b700b0e1a900f11a20009c
:104f84009140780030ceb30000c06000afe1b700bc
:104f9400e11a20009140780080cfb30000c0600087
:104fa4006040b300aee1b7004021200001002000c2
:104fb40060b4880071b488000080fa000000060024
:104fc4000200fa00889fbe00000f78001e007800df
:104fd4006104b90066b4800077b48000880078006a
:104fe40006007800000ab80007c0b900050178007f
:104ff4000001410009b0b9000001410082027800bb
:105004004629dd004a20de0000007100caa8de0047
:10501400a00d88004f04be000080fa0000000600c6
:105024000000fa000000eb00f00d88004021200091
:10503400e00d8800bac1bf00f041b300bae1b70087
:10504400bae1a900911b20009140780030ceb30052
:1050540000c06000b9e1b700811b200091407800d6
:1050640080cfb30000c060006040b300b8e1b70077
:10507400402120000100200080b4880091b4880001
:105084000080fa00000006000200fa00889fbe00bb
:10509400000f78001e0078006104b90086b4800017
:1050a40097b480008800780006007800000ab800f1
:1050b40007c0b900050178000001410009b0b9003a
:1050c40000014100820278004629dd004a20de000a
:1050d40000007100caa8de00f00d88004f04be0075
:1050e4000080fa00000006000000fa000000eb0057
:1050f400400e880040212000300e8800c4c1bf004b
:10510400f041b300c4e1b700c4e1a900311c2000a0
:105114009140780030ceb30000c06000c3e1b70016
:10512400211c20009140780080cfb30000c06000b3
:105134006040b300c2e1b70040212000010020001c
:10514400a0b48800b1b488000080fa000000060012
:105154000200fa00889fbe00000f78001e0078004d
:105164006104b900a6b48000b7b480008800780058
:1051740006007800000ab80007c0b90005017800ed
:105184000001410009b0b900000141008202780029
:105194004629dd004a20de0000007100caa8de00b6
:1051a400400e88004f04be000080fa000000060094
:1051b4000000fa000000eb00900e8800402120005f
:1051c400800e8800cec1bf00f041b300cee1b7002d
:1051d400cee1a900d11c20009140780030ceb3006c
:1051e40000c06000cde1b700c11c200091407800f0
:1051f40080cfb30000c060006040b300cce1b700d2
:105204004021200001002000c0b48800d1b48800ef
:105214000080fa00000006000200fa00889fbe0029
:10522400000f78001e0078006104b900c6b4800045
:10523400d7b480008800780006007800000ab8001f
:1052440007c0b900050178000001410009b0b900a8
:1052540000014100820278004629dd004a20de0078
:1052640000007100caa8de00900e88004f04be0042
:105274000080fa00000006000000fa000000eb00c5
:10528400e00e880040212000d00e8800d8c1bf0065
:10529400f041b300d8e1b700d8e1a900711d2000a6
:1052a4009140780030ceb30000c06000d7e1b70071
:1052b400611d20009140780080cfb30000c06000e1
:1052c4006040b300d6e1b700402120000100200077
:1052d400e0b48800f1b488000080fa000000060001
:1052e4000200fa00889fbe00000f78001e007800bc
:1052f4006104b900e6b48000f7b480008800780047
:1053040006007800000ab80007c0b900050178005b
:105314000001410009b0b900000141008202780097
:105324004629dd004a20de0000007100caa8de0024
:10533400e00e88004f04be000080fa000000060062
:105344000000fa000000eb00300f8800402120002c
:10535400200f8800e2c1bf00f041b300e2e1b700d2
:10536400e2e1a900111e20009140780030ceb30084
:1053740000c06000e1e1b700011e20009140780008
:1053840080cfb30000c060006040b300e0e1b7002c
:10539400402120000100200000b5880011b58800dc
:1053a4000080fa00000006000200fa00889fbe0098
:1053b400000f78001e0078006104b90006b5800073
:1053c40017b580008800780006007800000ab8004d
:1053d40007c0b900050178000001410009b0b90017
:1053e40000014100820278004629dd004a20de00e7
:1053f40000007100caa8de00300f88004f04be0010
:105404000080fa00000006000000fa000000eb0033
:10541400200888004110200091407800f0ccb300af
:1054240000c0600004e1b7000000eb000008880041
:10543400f0e723001008880005e1a8000080fa00c6
:10544400000006000000fa000000eb00800888005d
:105454000111200091407800f0ccb30000c060003e
:1054640010e1b7000000eb00300888004021200064
:105474006008880084e0a90094e0a80011e1a80075
:105484000080fa00000006000000fa00000120007d
:10549400900888000000eb0050088800f0132000fa
:1054a400700888008500a9009500a80013e1a800f1
:1054b4000080fa00000006000000fa00000120004d
:1054c400f00888000000eb00a00888008760a900ad
:1054d4001fe1a8000080fa00000006000000fa00a6
:1054e40000012000000988000000eb00c0088800cb
:1054f400f01f2e00e00888008780a9009780a9008b
:1055040021e1a9000080fa00000006000200fa0070
:1055140002003700200a8000000f780040c1bf005d
:10552400684060000004e000faff3a002114200003
:105534009140780000ceb30000c0600042e1b700a3
:10554400111420009140780030ceb30000c06000f8
:105554000034a00041e1b70001142000914078001c
:10556400f0c9b30000c0600040e1b70042e1a90007
:10557400011420009140780080cfb30000c0600087
:105584003040b30040e1b7008420a9009420a80073
:105594000080fa00000006000200fa000200370052
:1055a400a00a8000000f780050c1bf00684060006e
:1055b4000004e000faff3a00211520009140780031
:1055c40000ceb30000c0600052e1b7001115200006
:1055d4009140780030ceb30000c060000034a000d9
:1055e40051e1b7000115200091407800f0c9b300e3
:1055f40000c0600050e1b70052e1a900011520008d
:105604009140780080cfb30000c060003040b30008
:1056140050e1b70088a0a90098a0a8000080fa0073
:10562400000006000000fa0023c3bf007f406000b2
:1056340023e3b70010c0b30024e3b7000132200015
:105644009140780000ceb30000c0700020e3b700a2
:10565400513220009140780000ceb30000c06000b9
:10566400f040b30025e3b7001132200091407800e8
:10567400c0cfb30000c0600021e3b7002132200096
:105684009140780030ccb30000c06000c1c2b300c8
:105694000140700022e3b700f0f02f008019880069
:1056a4002343a80021e3a80095a0a80085a0a90091
:1056b4000080fa00000006000000fa004004200008
:1056c400401188000000eb00001188002062a8004f
:1056d4000000eb001011880021e2a8002342a8007a
:1056e4008580a9009580a8009560a8000080fa0034
:1056f400000006000000fa00889fbe008420a90074
:1057040038003700200a8000a08288005485800079
:10571400a182800090828000008050006101b80066
:10572400c220dd0020062100008040000288be0067
:1057340050858000c200dd0020062100008040006a
:105744001000be00e00f5000e08f58000300350049
:10575400508280000000e0001a003200558580006d
:1057640050858000c200dd0020062100008040003a
:105774001004be00508280006103b80086007800e7
:105784000080eb000009b8006030b9000302780023
:10579400000242000080eb0000b8b90000024200a1
:1057a400840178000801410089814900c228dd0094
:1057b40020062100008040000288be000000eb00ab
:1057c40050828800a08280009082880050858000ea
:1057d4000000e80050858800508580006300600068
:1057e4005085880040c1bf00684060000004e000ac
:1057f400c4ff3a00a00521001000be006100400073
:10580400e0804800a20521000089be004f04be00cc
:105814000080fa00000006000000fa00889fbe0025
:1058240088a0a9003c003700a00a8000c08288003c
:1058340064858000c1828000b082800000805000b6
:105844006101b8004220dd00f00040002006210084
:10585400008040000288be00608580004200dd00b8
:10586400f000400020062100008040001000be002f
:10587400e00f5000e08f5800030035007082800074
:105884000000e0001c003200658580006085800017
:105894004200dd00f00040002006210000804000ae
:1058a4001004be00708280006103b8008600780096
:1058b4000080eb000009b8006030b90003027800f2
:1058c400000242000080eb0000b8b9000002420070
:1058d4008401780008014100898149004228dd00e3
:1058e400f000400020062100008040000288be0035
:1058f4000000eb0070828800c0828000b0828800c3
:10590400608580000000e800608588006085800074
:10591400630060006085880050c1bf00684060007b
:105924000004e000c0ff3a00a0052100b000900090
:105934002000900061004000e0804800a2052100a2
:1059440020019800310198004f04be000080fa0045
:10595400000006000000fa008760a9003082800081
:105964000000e80030828800408280000000e800e7
:1059740040828800508280000000e8005082880045
:10598400608280000000e8006082880070828000ed
:105994000000e80070828800808280000000e80037
:1059a400808288000080fa00000006000000fa00ef
:1059b40084e0a9000080fa00000006000200fa005a
:1059c4008500a90030088000000f7800a08f8000b7
:1059d4000000e800a08f8800a08f80000000e00095
:1059e400030035000000eb00a08f88002043a800ce
:1059f4000080fa00000006000200fa008780a90077
:105a0400909880000000e8009098880090988000aa
:105a1400e20f5000080034009780a90021e1a9009a
:105a24000000eb00c00888000000eb0060988800cc
:105a34000000eb0090988800c09780000000e00010
:105a440026003a0032b6800043b68000b08f2000b2
:105a540001002000800f5100818f59001f00340085
:105a640010002000c097880010002000d08088001b
:105a74000000eb00e08088000000eb00f08088006c
:105a84000000eb00000f7800050037001e007800ce
:105a9400eff007001e007800fdf007001e0fe8007d
:105aa400200020009e0f1000f8ff3400dd42a90002
:105ab4000000eb00dffc0700dce2a800f502a9000f
:105ac4000000eb00fcfc0700cca2a800ec22a9001b
:105ad4000000eb00d7fc0700ec02a8000080fa00ed
:105ae400000006000000fa002043a90085a0a900d8
:105af40041908000401880000001780081804000bf
:105b0400801f21000080400002087800419080003e
:105b1400501880000001780001804000e800400037
:105b2400801f210000804000020878000187800067
:105b3400301880006101b800c208dd00000b2100ac
:105b4400008040000288be00018780001018800099
:105b54006101b8004208dd00f0004000000b2100a4
:105b6400008040000288be0001878000b0188000d9
:105b74006101b8004208dd0001022000808040007d
:105b8400000b2100008040000288be00a29080002b
:105b94008018800080017800416a210002004100e1
:105ba4000100400003087800a29080009018800053
:105bb40080017800c16a2100020041000100400018
:105bc40003087800a3908000a0908000416a21001f
:105bd400000040000100400010017800a090800007
:105be400c16a21000000400001004000100078005c
:105bf40000014100c1202100038041000100400058
:105c040002087800f190800060188000000178009c
:105c140081804000a06c21000080400002087800d0
:105c2400f19080007018800000017800018040002d
:105c3400e8004000a06c21000080400002087800c9
:105c440000878000c200dd00000b210000804000be
:105c54001001be00008780004200dd00f00040001b
:105c6400000b2100008040001000be000201400033
:105c740083814800008780004200dd00010220008b
:105c840080804000000b2100008040001000be0016
:105c9400020040008380480030b6880041b6880086
:105ca40032b6800043b68000b08f2000010020008f
:105cb400800f5100818f59000400340021e1a800b5
:105cc4009780a8001000200060988800f090800061
:105cd4000000e800f0908800f0908000630060000d
:105ce400f0908800a09080000000e800a090880058
:105cf400a090800063006000a09088004090800025
:105d04000000e8004090880040908000630060003c
:105d140040908800008780000000e8000087880029
:105d24000087800063006000008788000080fa001c
:105d3400000006000000fa008580a9000080fa0037
:105d4400000006000000fa008560a9000080fa0047
:105d5400000006000000fa00f00f200010d68800b2
:105d6400f00f200020d68800f00f200030d68800e5
:105d7400f00f2000e0e388000080fa000000060035
:105d84000000fa00f00f2000f0e388000080fa0021
:105d9400000006000a00fa00200798003107980066
:105da4000000eb00100798000000eb00000f7800e3
:105db400be0090002e0090001c0007001007980001
:105dc4009e00900000712200808f500003003a0072
:105dd400007122004007980011003700e0b18000f4
:105de400800078001e00900001005000000f780031
:105df4001e00e00003003d00801620001e0f40003e
:105e040005003700701620009e0f100002003400b9
:105e140080e92f001e0f40001e0078004007980004
:105e24004e0090000080fa00000006004000fa00d6
:105e340070079800010f98000000eb0060079800bd
:105e44000000eb00500798000000eb0040079800aa
:105e54000000eb00300798006000b80010079800bd
:105e6400210798000000eb00000f7800f13f2000ac
:105e74000e08900000805000000f9800fe00900073
:105e840000022000808f500004003600fe009000c5
:105e9400e03d2000808f50000b0036008e089000fb
:105ea40000022000808f5000040036008e0890000d
:105eb400e03d2000808f5000030036000071220076
:105ec400701f980031013700fe009000000220008e
:105ed400808f500004003600fe009000e03d20005a
:105ee400808f50001a0036000e089000cf80de002c
:105ef400bbe90700501f9800611f98000e0890002e
:105f04000000e00007003d000200200003782400a8
:105f14005e189000ee18900011ea0700501f9800d8
:105f2400611f980092972e0063ea23005e18900088
:105f3400ee189000d5e90700a29929005315240012
:105f440007ea070067ea070050079800fe003700d9
:105f54008e08900000022000808f5000040036005c
:105f64008e089000e03d2000808f50000f00360026
:105f74007e009000cf80de0099e9070092972e0002
:105f840063ea2300c1e90700a299290053152400fc
:105f9400f3e9070002002000c3252400efe907000d
:105fa40050ea070050079800e7003700fe00900011
:105fb40000e02f0000804000400798008e08900009
:105fc40000e02f0000804000300798007e00900021
:105fd400cf80de0082e90700301f9800411f98003f
:105fe4007e0090000000e00007003d000200200059
:105ff400037824003e189000ce189000d8e90700da
:10600400301f9800411f9800d2cc2c00833224000a
:106014003e189000ce189000d0e9070031ea07003e
:10602400000f7800f03f20009e0f100004003400a1
:1060340010c02f001e0040007007980008003700b1
:106044001e00e00004003d00f13f20001e804000df
:1060540070079800020037001e007800700798004f
:10606400ce009000211f98002e1890000000e00040
:1060740003003d00ae1890008100ea00211f980043
:106084003e009000101f98009e1890000100e00050
:1060940003003d001e1890000000ea00101f980045
:1060a400ae1890001e189000808f500047003400f6
:1060b400ce009000011f98000e1890000000e00030
:1060c40003003d008e1890008100ea00011f980033
:1060d400002020008e18900001005000cf80de00c8
:1060e4003fe9070002002000034024001eea0700e5
:1060f40010079800210798007e009000cf80de00f2
:1061040037e9070060179800711798007e00900027
:106114000000e00007003d00020020000378240096
:106124006e109000fe1090008de907006017980033
:10613400711798001e019000ae0190006e1090003f
:10614400fe10900051e9070040179800511798007d
:106154000e089000cf80de0021e907002017980088
:10616400311798000e0890000000e00007003d0081
:1061740002002000037824002e109000be1090002e
:1061840077e9070020179800311798001e01900046
:10619400ae0190000000200001f823006fe9070021
:1061a4000001be002e109000be10900037e90700d9
:1061b4000001be004e109000de10900068e9070058
:1061c4002bea070060079800460037003e00900065
:1061d400101798009e1090000100e00003003d009d
:1061e4001e1090000000ea00101798000020200004
:1061f4009e10900001005000cf80de00f8e80700f8
:106204000200200003402400d7e90700100798008b
:10621400210798000e089000cf80de00f0e8070008
:10622400700f9800011798000e0890000000e0001d
:1062340007003d0002002000037824007e0890003f
:106244008e10900046e90700700f9800011798001f
:106254001e019000ae0190007e0890008e10900008
:106264000ae90700500f9800610f98007e00900023
:10627400cf80de00dae80700300f9800410f980065
:106284007e0090000000e00007003d0002002000b6
:10629400037824003e089000ce08900030e90700ff
:1062a400300f9800410f98001e019000ae0190003d
:1062b4000000200001f8230028e907000001be00c7
:1062c4003e089000ce089000f0e807000001be00f0
:1062d4005e089000ee08900021e90700e4e9070059
:1062e400600798006e009000cf80de00bce80700d5
:1062f400100f9800210f98006e0090000000e0003d
:1063040007003d0002002000037824001e089000ce
:10631400ae08900012e90700100f9800210f9800b2
:1063240092972e0063ea23001e089000ae089000a6
:10633400d6e80700a29929005315240008e90700ac
:1063440068e9070050079800de00900080162000de
:10635400808f5000050034005e00900081e92f001a
:106364000100400050079800060037005e009000ce
:106374000000e00003003d005e0090008016b000c5
:10638400500798005e009000701f98007e189000df
:106394000080fa00000006000200fa009ec0a90076
:1063a400f00f200070248800f00f20005024880093
:1063b40020002000302588000000eb0040258800e4
:1063c4008644a900f009200080248800f0092000f8
:1063d400602488008804a800008021004800de00b2
:1063e400c02488009424a8000000eb00b024880096
:1063f4000000eb00602588009424a9000040eb0015
:10640400004f7800070037001e80fb00c200dd004b
:1064140000802100008140006000b8000089be00b7
:106424001e4fe80070c0b3009e4f1000f6ff360008
:10643400d000200050258800020037008000200092
:10644400502488008ac4bf00684060000004e00053
:10645400faff3a000040eb002ef9b7000040eb00d1
:1064640039f9b7003ad9bf00604060003af9b70083
:106474003bd9bf00604060003bf9b70094a4a90079
:106484000040eb00004f78000d0037001e80fb0039
:1064940080004000e0932100808040000000eb0079
:1064a400800878001e80fb0080004000809421005a
:1064b400808040000000eb00800878001e4fe80058
:1064c40010c0b3009e4f1000f0ff36008080210002
:1064d400f0c988000040eb0036f9b7000000eb007b
:1064e400a0c988000080fa00000006003600f80009
:1064f400809fbe00829fbe00849fbe00869fbe0018
:106504003400f80000002000a00188000200fa0016
:10651400a0c98000e10f50000a003a0094c4bf00f3
:106524000044b2000004e00006003a00f00f20002e
:10653400502488008c04a8008c84a800200020002b
:10654400a0c9880080c4bf00704060000004e0005f
:106554000700320082c4bf00704060000004e00005
:10656400030032000001200000248800a20007007c
:1065740088c4bf00624060000004e00002003200f2
:106584008ec0a900730037008ac4bf006140600058
:106594000004e000180032008cc4bf0061406000b9
:1065a4000004e000140032007bff07009ec0a80036
:1065b40040002000a0c988008095210010c08800f8
:1065c40080c0b30000f8b70011802100914078002a
:1065d40030c0b30000c0600001f8b7001180210092
