:020000040000fa
:080000000002040000000000f2
:020000040000fa
:10040000af802100207f2400000188000000000050
:100410000c00070020382400010020001f00070006
:10042000000020000000e000020032000000020096
:1004300000000000dc4c0200000000000040da0078
:100440000000fe004440a900c00a20000000e000b7
:100450000300320000002000a00188004440a800f2
:1004600000000600f03fb1000180b1000600350039
:10047000ee03090000000000403fb1000180b10020
:10048000fbff3d001000b000203fb000020035002f
:1004900000800900000000000000060091018800b3
:1004a000800078000000eb0015003700e28040007b
:1004b00032a0b4009101ba00e280400032a0b40042
:1004c0009102ba00e280400032a0b4000002eb00ca
:1004d000472bde00f507b200602ce10004003a0073
:1004e0000059eb008301e900fdff3e0004003700e6
:1004f0006128e100010032000082eb0004000700e7
:100500001101ba000200e000e8ff3a000000060016
:100510003159ba008301e9000c0032002159ba00b8
:100520008301e900080032000400e00003003a0003
:10053000e280400032a0b400f5ff370011d9ba00c4
:100540008301e900faff3a008100e800e180400001
:1005500032a0b40000000600762504000000000070
:10056000e052040000000000361504000000000006
:10057000f61a040000000000889fbe008a9fbe009b
:10058000010578000100e0000400350008003c008f
:100590000000e0002000320005003700600010007d
:1005a000e080180002003b0001f02c001a00370028
:1005b0000004be006011b8006b0920000982cf0062
:1005c000020039000882cf000441b00069425200a5
:1005d0000e00320008003b0082817100610164005e
:1005e0008904d1000884d3008b05e8000442e800a8
:1005f000f9ff3a00050037000804440089844c00e4
:100600008b05e9000442e900fbff3a00d90007002e
:100610000af0a70001f0a0004f05be004f04be0085
:1006200000000600889fbe008a9fbe008c1f7800d5
:10063000f6000700fd00330003866c006450e10003
:100640002e0032006420e100330032006150e100ee
:100650002f0032006120e100310032008585550015
:10066000eb07b00009002000080420000500370057
:100670000804440089844c000a003100060343004a
:1006800087834b000001530081815b00f8ff33003a
:100690000203be000800a0000804440089844c0046
:1006a000f6ff3900c639dd00830173000100320016
:1006b000130020008904d1000884d3000998a30006
:1006c000050032000800a7000300a0008904d10043
:1006d0000884d3008b05e8008904d1000884d30086
:1006e0000001eb000281d200a200070001f0a1008e
:1006f0000cf0a70001f0a000d50037006420e10055
:10070000d70032000801be000200be00f7ff37002c
:100710006120e100d20032006000b800f3ff370032
:100720000000200001f82700f0ff370003f0a200ce
:10073000889fbe008a9fbe008c1f7800b300070010
:10074000ba0033006450e1004f0032006420e10041
:100750005200320003826c0007003b000905d00004
:100760000306d000820f54000c065d000200390021
:100770000200320089017800030678008582550066
:1007800004003d000003fd008103fd008502ea0036
:100790008b854200840f720002003b006000100055
:1007a000e08018006011b8000005eb007a28e10035
:1007b0000a00390006007800c75ddd00f707b200c7
:1007c000878075002d003700828171000a01780052
:1007d000610560008180d1000080d3008502e900be
:1007e000f9ff3b00060440008784480002003b00fc
:1007f00060041400e0841c000988a3000700320094
:100800008a81710082817100610164008904d100d4
:100810000884d3008b05e800170037000978a3008f
:1008200013003a000b00e000130034008b05e900d0
:100830000804440089844c000a4474000978a30029
:100840000d003a000b00e000070034008b05e900c2
:100850000804440089844c0001003a000b00200089
:100860000978a300f7ff32000001eb000200370017
:10087000828171000a0178003e0007000cf0a70099
:1008800001f0a000720037006420e10002003a008d
:10089000838f6c00720033000801be000200be00ae
:1008a0006b003700889fbe008a9fbe008c1f7800b7
:1008b000560007005d00330003866c006450e100c1
:1008c000240032006420e100270032006150e10082
:1008d000220032006120e100210032008b854200bd
:1008e000eb07b1000134b800003ab8000804420038
:1008f00089844a00013ab8000030b800888040007e
:1009000009014a00040033000000400081804800d3
:10091000020149008b05e900c909dd00830170006f
:100920000100320013002000c814de004814dd006e
:100930004709de001200b200c808de00088470001b
:100940000c00070001f0a1000cf0a70001f0a000ce
:100950003f0037006120e100410032000801be0085
:100960000200be00f7ff37006150e100fcff3a00d3
:100970003b00370081002000618055000b003d00e6
:100980000b00200061fe2f000100e1001d0034007b
:1009900082817100610164008904d1000884d30060
:1009a0000000e800faff3a007100200061006400d6
:1009b000030070000200600009003200610444007e
:1009c000e0844c000988a500050032008b05e80092
:1009d0006808e10002003a008904d1000884d300cd
:1009e000f20f20000258e10005003d00c75ddd0068
:1009f000f907b20089807500080078000000060041
:100a00000bf827008b007800000005000004be00f2
:100a1000160007000003be000405be000200be0071
:100a200012000700844f7500000006000200be009f
:100a30006450e100050036006420e1000200360049
:100a40000968a30001003a000800be000160a00090
:100a50004f0678004f05be004f04be0000000600a0
:100a6000f0ff2f00f1ff2700f9ff3700c70ade0073
:100a7000f107b200f50fb20008003200e1cf4200ea
:100a8000020032000170a00024000500810f7000f8
:100a9000010032000408050044000500810f7000c9
:100aa00002003a00140005008502e9000000400041
:100ab00081c04800fcff3b000170a000240005003d
:100ac00016c2bf000008a300fdff3a0016c2bf0017
:100ad0000018a300faff3a0016c2bf000028a300c6
:100ae000f7ff3a0016c2bf000038a300f4ff3a0037
:100af00016c2bf000048a300f1ff3a0019c2bf00b0
:100b00000068a300eeff3a00000006001602a800ed
:100b1000000006000080fb009010880018c2bf0093
:100b200001c8b300014060000080fb000000e90044
:100b30004f00de000000e900000006001622a800b9
:100b4000000006001662a80016c2bf000038a3000d
:100b5000fdff3a0018c2a900801080000080fb0051
:100b60000000060016a2a9001682a80000000600d8
:100b700016a2a8001682a800000006001642a800cf
:100b800000000600211088003010880000000600d8
:100b900006c2bf000008a300fdff3a0006c2bf0066
:100ba0000018a300faff3a0006c2bf000028a30005
:100bb000f7ff3a0006c2bf000038a300f4ff3a0076
:100bc00006c2bf000048a300f1ff3a0009c2bf00ff
:100bd0000068a300eeff3a0000000600a1108800a4
:100be000b0108800000006000602a8000000060001
:100bf0000080fb001010880008c2bf0001c8b300cd
:100c0000014060000080fb000000e9004f00de00b2
:100c10000000e900000006000642a80000000600ef
:100c20000662a80006c2bf000038a300fdff3a001c
:100c300008c2a900001080000080fb000000060030
:100c400006a2a8000682a8000000060076c2bf0027
:100c50000008a300fdff3a0076c2bf000018a30001
:100c6000faff3a0076c2bf000028a300f7ff3a005f
:100c700076c2bf000038a300f4ff3a0076c2bf007e
:100c80000048a300f1ff3a0079c2bf000068a3004a
:100c9000eeff3a00000006007602a8000000060001
:100ca0000080fb009013880078c2bf0001c8b30029
:100cb000014060000080fb000000e9004f00de0002
:100cc0000000e900000006007642a80000000600cf
:100cd0007662a80076c2bf000038a300fdff3a008c
:100ce00078c2a900801380000080fb00000006008d
:100cf00076a2a8007682a800000006007622a8004e
:100d00000000060076a2a9007682a8000000060076
:100d10008001eb000200370061f079008301e800f8
:100d2000828f5100fcff3a00000006000400fa0028
:100d3000e0bf9f00e4815700812978000002eb00aa
:100d40000f0037006fb89700904078007fb8970089
:100d5000104078000402e80080cf50000400320008
:100d60008180fb000080fb000080500007003700fe
:100d70006fb897000000e800e0bf9f009309e8000b
:100d8000820f5200efff3a000000eb000080fa00f3
:100d90000000060000027800808f50000a00310039
:100da00082814000808f510007003600020240001f
:100db0008000eb00436278008100e800828f5000e1
:100dc00007003200fbff37000200e00004003200a1
:100dd00002814000315a7800828f5000fdff3a00b6
:100de000000006008001eb000200370081717800ee
:100df0008301e800828f5100fcff3a0000000600ea
:020000040000fa
:020000040005f5
:0457f8009e430000cc
:020000040000fa
:020000040005f5
:0457fc00fd1e00008e
:020000040000fa
:100008002a5700002a5700002a5700002a570000e4
:100018002a5700002a5700002a5700002a570000d4
:100028002a570000a45300002a570000e652000097
:100038002a570000ca5300002a5700000c5300003a
:10004800325300002a5700002a570000ae5400001f
:10005800d4540000885400002a5700002a57000092
:100068002a570000fa5400002a570000f828000018
:100078002a5700002a5700002a5700002a57000074
:100088002a5700002a5700002a570000585300003a
:100098007e5300002a5700002a5700002a57000004
:1000a8002a5700002a5700002a5700002a57000044
:1000b8002a570000f0530000165400003c5400007a
:1000c800625400002a5700002a5700002a570000ef
:1000d8002a5700002a5700002a5700002a57000014
:1000e8002a5700002a570000205500002a57000010
:1000f8002a5700002a5700002a5700002a570000f4
:100108002a5700002a5700002a5700002a570000e3
:100118002a5700002a5700002a5700002a570000d3
:100128002a5700002a5700002a5700002a570000c3
:100138002a5700002a5700002a5700002a570000b3
:100148002a5700002a5700002a5700002a570000a3
:100158002a5700002a5700002a5700002a57000093
:100168002a5700002a5700002a5700002a57000083
:100178002a5700002a570000560800002a57000096
:100188002a5700002a5700002a5700002a57000063
:100198002a5700002a5700002a5700002a57000053
:1001a8002a5700002a5700002a5700002a57000043
:1001b8002a5700002a5700002a5700002a57000033
:1001c8002a5700002a5700002a5700002a57000023
:1001d8002a5700002a5700002a5700002a57000013
:1001e8002a5700002a5700002a5700002a57000003
:0801f8002a5700002a570000fd
:020000040000fa
:100208002a5700002a5700002a5700002a570000e2
:100218002a5700002a5700002a5700002a570000d2
:100228002a570000a45300002a570000e652000095
:100238002a570000ca5300002a5700000c53000038
:10024800325300002a5700002a570000ae5400001d
:10025800d4540000885400002a5700002a57000090
:100268002a570000fa5400002a570000f828000016
:100278002a5700002a5700002a5700002a57000072
:100288002a5700002a5700002a5700005853000038
:100298007e5300002a5700002a5700002a57000002
:1002a8002a5700002a5700002a5700002a57000042
:1002b8002a570000f0530000165400003c54000078
:1002c800625400002a5700002a5700002a570000ed
:1002d8002a5700002a5700002a5700002a57000012
:1002e8002a5700002a570000205500002a5700000e
:1002f8002a5700002a5700002a5700002a570000f2
:100308002a5700002a5700002a5700002a570000e1
:100318002a5700002a5700002a5700002a570000d1
:100328002a5700002a5700002a5700002a570000c1
:100338002a5700002a5700002a5700002a570000b1
:100348002a5700002a5700002a5700002a570000a1
:100358002a5700002a5700002a5700002a57000091
:100368002a5700002a5700002a5700002a57000081
:100378002a5700002a570000560800002a57000094
:100388002a5700002a5700002a5700002a57000061
:100398002a5700002a5700002a5700002a57000051
:1003a8002a5700002a5700002a5700002a57000041
:1003b8002a5700002a5700002a5700002a57000031
:1003c8002a5700002a5700002a5700002a57000021
:1003d8002a5700002a5700002a5700002a57000011
:1003e8002a5700002a5700002a5700002a57000001
:0803f8002a5700002a570000fb
:020000040000fa
:100e000009020000200000000101000000c00000f5
:100e1000320900000400000000020000ffff000093
:100e2000ff0000000705000001010000ffff0000b7
:100e3000010700000581000001ff0000ff01000024
:100e400004030000010000001a030000520000002b
:100e50006f000000620000006f00000074000000de
:100e600065000000580000002c0000002000000079
:100e7000490000006e000000630000002c03000029
:100e80004100000075000000670000002000000025
:100e900020000000320000002000000032000000ae
:100ea000300000003100000032000000200000008f
:100eb00031000000350000003a0000003100000061
:100ec000350000003a000000340000003800000047
:100ed0000000000000870000208700002487000039
:100ee0003e870000417500006720000020320000ae
:100ef00020320000303100003200000031350000a7
:100f00003a310000353a000034370000000000009c
:100f10000000000024470000504700004741000047
:100f200000000000000000000000000000000000c1
:100f30000000000080000000000000000000000031
:100f400000010000bfff0000ffff0000ffff0000e6
:080f5000ffff0000ff0000009c
:020000040000fa
:100f58000200fa009ec0a900f00f2000702488004b
:100f6800f00f200050248800200020003025880041
:100f78000000eb00402588008644a900f009200005
:100f880080248800f0092000602488008804a800d4
:100f9800002021004800de00c02488009424a80016
:100fa8000000eb00b02488000000eb0060258800fa
:100fb8009424a9000040eb00004f78000700370098
:100fc8001e80fb00c200dd000020210000814000df
:100fd8006000b8000089be001e4fe80070c0b30072
:100fe8009e4f1000f6ff3600d000200050258800e4
:100ff8000200370080002000502488008ac4bf0007
:10100800684060000004e000faff3a000040eb008e
:1010180008f3b7000040eb0013f3b70014d3bf0088
:101028006040600014f3b70015d3bf006040600053
:1010380015f3b70094a4a9000040eb00004f780016
:101048000d0037001e80fb00800040008031210029
:10105800808040000000eb00800878001e80fb00c4
:101068008000400020322100808040000000eb001a
:10107800800878001e4fe80010c0b3009e4f100093
:10108800f0ff360080202100c09888000040eb0067
:1010980010f3b7000000eb00709888000080fa0099
:1010a800000006003600f800809fbe00829fbe0048
:1010b800849fbe00869fbe003400f8000000200018
:1010c800a00188000200fa0070988000e10f50002b
:1010d8000a003a0094c4bf000044b2000004e000d3
:1010e80006003a00f00f2000502488008c04a80065
:1010f8008c84a800200020007098880080c4bf005d
:10110800704060000004e0000700320082c4bf00a5
:10111800704060000004e00003003200000120007d
:1011280000248800a200070088c4bf006240600055
:101138000004e000020032008ec0a90073003700ee
:101148008ac4bf00614060000004e000180032005b
:101158008cc4bf00614060000004e000140032004d
:101168007bff07009ec0a800400020007098880000
:10117800203321001090880080c0b30000f2b7002f
:10118800112021009140780030c0b30000c06000f9
:1011980001f2b7001120210091407800c0c8b300c7
:1011a80000c0700001f2b700100020005024880031
:1011b8008ac4bf00704060000004e00007003200ed
:1011c8008cc4bf00704060000004e00003003200df
:1011d8006d00070000012000502488008ac4bf0069
:1011e800644060000004e0000a0032008cc4bf00c4
:1011f800644060000004e000060032001200200095
:101208008000eb0030072000872307004000200003
:10121800502488008ac4bf0001c8b30001406000a0
:101228000004e000060032008cc4bf0001c8b3000f
:10123800014060000004e000010032003b000700ac
:101248008ac4bf00624060000004e0000a00320067
:101258008cc4bf00624060000004e0000600320059
:10126800120020008000eb00f0ff27006e2307002b
:10127800f00f20007024880070988000e30f500061
:1012880002003e008ec0a900200037008cc4bf00b9
:10129800684060000004e0001b0032000040eb00e2
:1012a800004f7800150037008ac4bf00684060000e
:1012b8000004e00014003200902480002af3b700f4
:1012c80080002000502488002ad3bf008080fb00c3
:1012d800000f2000008060000000e00002003a00db
:1012e8003d00070004003700a13221000001eb0097
:1012f800200720004c2307001e4fe80030c0b30031
:101308009e4f1000e8ff36008ec0a9000080fa004a
:101318003400f9004f03be004f02be004f01be006b
:101328004f00be003600f900004006000000fa0039
:10133800aac4bf00624060000004e0000e00320052
:10134800f09880009040900000c8b30080cf500013
:1013580008003a00c09880009040900040c8b30050
:1013680080cf500003003a00f1988000c0c8b30055
:1013780090409800aa24a900000820005024880062
:101388000080fa00000006000000fa008284a8002d
:1013980000012000502488000001eb008000eb00d1
:1013a80050072000202307000080fa0000000600f4
:1013b8000000fa000001eb008000eb00400720006d
:1013c800192307008284a900000120000024880056
:1013d8000080fa00000006000200fa002ad3bf00cd
:1013e8008080fb00b0ff2f00008060000000e0005c
:1013f80035003a002ad3bf008080fb00c00f2000d0
:10140800008060004280de004200dd00800078003d
:101418000020210000804000f0988800f0988000ab
:101428000099880001322100003221001040780024
:101438000024a20080487800f098800010409000b6
:10144800c2c3b3008240600040c3b30080cf5000e5
:101458001b003a00f098800090009000a033210013
:10146800808f500014003a00f1988000203321004a
:10147800900098000040eb00004f78000b00370008
:101488001e80fb008000780020332100008140008e
:101498001e80fb0080007800a033210000804000ff
:1014a80010407800004978001e4fe80070c0b30073
:1014b8009e4f1000f2ff36000c00070009003700ad
:1014c80028000700070037002ad3bf008080fb00f0
:1014d800b0ff2f0000806000e80f500001003a00c4
:1014e800380007000080fa00000006000000fa003b
:1014f800c09880009040900000c8b30000c0600011
:101508000004e00003003200c19880000040eb00b6
:10151800904098000040eb0026f3b7000040eb0035
:1015280027f3b70009d3bf006040600009f3b70094
:101538000ad3bf00604060000af3b7000040eb0028
:1015480008f3b700780007000001eb008000eb000b
:1015580030002000b42207000e0207000080fa00c5
:10156800000006000000fa0027d3bf00e24f500039
:1015780002003a0011030700100037004600070078
:10158800609980000000e0000a003a00019980009c
:1015980080c0b30080487800019980002033210082
:1015a8009000980001998000c0c8b300904098004e
:1015b800020037000000eb00609988000080fa0004
:1015c800000006000200fa00c09880001040900059
:1015d8000080fb004600de0061406000004f78009c
:1015e8008131210080312100104078000024a200c0
:1015f8008048780070988000e80f50000b003a008f
:1016080034d3bf000080fb00b0248800b0248000e1
:101618000000e000030032000001200070988800fc
:1016280002003700400020007098880027d3bf00d0
:10163800e14f500015003a00c1988000a033210006
:10164800900098005c02070026d3bf00e24f5000cc
:1016580004003a00c198800040c8b3009040980048
:101668000b0037001e04e00004003a00c198800017
:1016780080ccb3009040980005003700c1988000e6
:1016880080c8b300904098000100370002000700ae
:101698000080fa00000006000200fa000040eb009b
:1016a80027f3b700c19880000040eb0090409800f5
:1016b800c09880000020a200000f78009e007800eb
:1016c8000040eb00904098003131210091407800b3
:1016d80000c8b30000c060000004e0001000320041
:1016e80016d3bf008080fb0017d3bf000080fb002b
:1016f8004800dd00010070000000e0000700320033
:1017080016d3bf008080fb0017d3bf000080fb000a
:101718004800dd00010070000000010013f3a9007b
:101728000080fa00000006000400fa0032d3bf006f
:101738000046b2000004e00058003a0033d3bf006e
:101748000080fb006101b900028fbe00b0002000dc
:10175800010020001e01be00800f5100818f59003a
:101768004e003e001e00be0000600100240037004d
:1017780025003700490037002300370047003700ad
:101788000600370009003700400037000b0037001b
:10179800080037001e0037003300370008f3a800a0
:1017a80080002000709888003c003700a4000700e3
:1017b8003a003700000307003800370002312100e3
:1017c800f00f20008000610006d3bf006040600079
:1017d8000140700006f3b700c810de0007d3bf0051
:1017e800604060000140700007f3b7000813a800cc
:1017f80010c0b30009f3b70008f3a80027003700aa
:101808000e010700250037002600070023003700d7
:1018180036d3bf000080fb0080007800c031210073
:101828000080400000017800f00f20008000610077
:1018380006d3bf00604060000140700006f3b700a7
:10184800c810de0007d3bf00604060000140700090
:1018580007f3b7000813a80010c0b30009f3b700d6
:1018680008f3a8000d00370008f3a80036d3bf001e
:101878008080fb004233210012417800c0312100f2
:101888000080400002487800040037000001eb00a7
:101898008000eb0020002000e32107000080fa0010
:1018a800000006000400fa0034d3bf00e14f5000e6
:1018b8000d003a0032d3bf007f4060000004e00012
:1018c80009003a0008f3a80033d3bf00e34f5000e3
:1018d80003003a00100020006098880002003700da
:1018e8000000eb006098880034d3bf000004e000db
:1018f80051003a0032d3bf007f406000e24f5000f1
:101908004d003a0036d3bf006f4060000004e0008d
:101918004900320008f3a80036d3bf0001c8b3005d
:10192800014060000004e00009003a0036d3bf001f
:101938006f4060000080fb008000400020322100e2
:101948000080400010007800100798000800370059
:1019580036d3bf006f4060000080fb00800040006d
:1019680080312100008040001000780010079800a6
:1019780033d3bf00e34f500004003a009e009000ac
:1019880040c8b300904098002b00370036d3bf0002
:101998006f4060000080fb0000004000800078007d
:1019a800a04a200000804000000f78001e00780048
:1019b80090407800d0cfb30080c060001e0078004f
:1019c80001487800613321009140780000c8b300d5
:1019d80000c060000004e0000c0032009e0090008f
:1019e8000040eb00904098008e80e8000e80e800f0
:1019f800104078000024a200804878009e009000e3
:101a080000c4b300904098000b0037009e0090007f
:101a180080c8b300904098008e80e8000e80e800ef
:101a2800104078000024a200804878009e009000b2
:101a380080ccb300904098000080fa0000000600b7
:101a48000200fa00213321009140780000c8b30059
:101a580080cf500077003a0000ccb30008f3b700fd
:101a680035d3bf000080fb00000f78001e0078000f
:101a7800e20f50001b0032001e007800e30f5000f8
:101a88003e0032001e007800e10f500001003200d5
:101a98006600370062382100f00f200080006100e6
:101aa80006d3bf00604060000140700006f3b70035
:101ab800c810de0007d3bf0060406000014070001e
:101ac80007f3b70009d3bf00604060002041b300ae
:101ad80009f3b7000ad3bf00604060000af3b700fb
:101ae8005400370034d3bf000080fb0000004000e2
:101af80080007800a076280000804000100178005f
:101b0800f00f20008000610006d3bf006040600035
:101b18000140700006f3b700c810de0007d3bf000d
:101b2800604060000140700007f3b70006d3bf00b3
:101b38008080fb0007d3bf000080fb004800dd0069
:101b4800010070000080e80010017800f00f20000c
:101b58008000610009d3bf00604060000140700050
:101b680009f3b700c810de000ad3bf006040600068
:101b7800014070000af3b7002e00370034d3bf00cd
:101b8800e24f500026003e0034d3bf000080fb0027
:101b98000000400080007800c076280000804000e7
:101ba80010017800f00f20008000610006d3bf000c
:101bb800604060000140700006f3b700c810de0006
:101bc80007d3bf00604060000140700007f3b70012
:101bd80006d3bf008080fb0007d3bf000080fb0056
:101be8004800dd0001007000104078000081fb0013
:101bf800f00f20008000610009d3bf006040600042
:101c08000140700009f3b700c810de000ad3bf0016
:101c180060406000014070000af3b700050037001b
:101c28000040eb0008f3b700020037000040eb006b
:101c380008f3b7000080fa00000006000400fa006c
:101c48000040eb003af3b7000040eb003bf3b7006d
:101c580032d3bf007f4060000080fb00100798006f
:101c68001e009000e10f5000120032001e0090008c
:101c7800e20f5000110032001e0090000000e0004a
:101c8800010032002d00370008f3a8003ad3bf0046
:101c98000004a0003af3b70060988000e10f5000fc
:101ca80026003a003ad3bf000014a0003af3b70068
:101cb8002200370008f3a8002000370008f3a80026
:101cc80036d3bf0001c8b300014060000004e00043
:101cd80009003a0036d3bf006f4060000080fb0067
:101ce8008000400020322100008040001000780071
:101cf800000f78000800370036d3bf006f4060003f
:101d08000080fb00800040008031210000804000fe
:101d180010007800000f78001e0078001040900036
:101d28000080fb004200de00610060000004e0006b
:101d38000200320010c0b3003af3b70008d3bf0066
:101d480001c8b300014060000004e0000f00320049
:101d5800a2332100f00f20008000610006d3bf00ed
:101d6800604060000140700006f3b700c810de0054
:101d780007d3bf00604060000140700007f3b70060
:101d88000813a80020c0b30009f3b7000080fa00c8
:101d9800000006000000fa0094a4a90008d3bf00c0
:101da80001c8b300014060000004e00024003a00cc
:101db80013d3bf0001c8b300014060000004e00075
:101dc8001200320020c0b30027f3b700c19880008a
:101dd8000040eb0080487800c198800080ccb300b8
:101de800904098000199800080c0b3008048780036
:101df80001998000a033210090009800019980008b
:101e080080ccb300904098006900370001998000a9
:101e180080c0b300804878000199800020332100f9
:101e28009000980001998000c0c8b30090409800c5
:101e3800c198800040c8b300904098005c0037000b
:101e480013d3bf0001c8b300014060000004e000e4
:101e580057003a0032d3bf0001c8b3000140600008
:101e68000004e0004100320038d3bf008080fb004e
:101e780039d3bf000080fb004800dd00010070007e
:101e88000001780009d3bf008080fb000ad3bf009f
:101e98000080fb004800dd0001007000800f510049
:101ea8001200310038d3bf008080fb0039d3bf0057
:101eb8000080fb004800dd00010070000001780090
:101ec800f00f20008000610009d3bf00604060006f
:101ed8000140700009f3b700c810de000ad3bf0044
:101ee80060406000014070000af3b700320007004c
:101ef80010c0b30027f3b7000199800080c0b30079
:101f080080487800019980002033210090009800d3
:101f18000199800000c8b300904098000000eb00d1
:101f280060998800f198800080c0b30080487800ec
:101f3800f19880002033210090009800f1988000eb
:101f480040c8b300904098001000200060998800b5
:101f5800c1988000a033210090009800c1988000ab
:101f680080ccb300904098001100370020c0b30027
:101f780027f3b700c19880000040eb008048780044
:101f8800c198800080ccb3009040980001998000ef
:101f980080c0b3008048780001998000a0332100f8
:101fa800900098000199800080ccb3009040980080
:101fb8000080fa00000006000200fa0009d3bf0002
:101fc8008080fb000ad3bf000080fb004800dd00d2
:101fd80001007000e70f500013003e0009d3bf0056
:101fe8008080fb000ad3bf000080fb004800dd00b2
:101ff80001007000000f780026d3bf000004e00045
:1020080003003a0010c0b30026f3b70008003700f9
:1020180026d3bf00e14f500005003a0020c0b300ae
:1020280026f3b7000200370080002000000f780078
:10203800c2988000c0988000904090001e40900098
:1020480000c0700010419800c19880001e407800c0
:102058008048780009d3bf008080fb000ad3bf0006
:102068000080fb004800dd0001007000800078005f
:102078001e00780000815000f00f200080006100f1
:1020880009d3bf00604060000140700009f3b70049
:10209800c810de000ad3bf00604060000140700035
:1020a8000af3b700a03321004099880008d3bf0085
:1020b800614060000004e0003b003a001b0037006c
:1020c8004299800006d3bf008080fb0007d3bf0081
:1020d8000080fb004800dd000100700080007800ef
:1020e80011407800004978000200e8004099880013
:1020f8000101e800f00f20008000610006d3bf0056
:10210800604060000140700006f3b700c810de00b0
:1021180007d3bf00604060000140700007f3b700bc
:102128001e0078000000e900000f78001e0078000b
:102138000000e000e2ff3a001e00370042998000ec
:1021480006d3bf008080fb0007d3bf000080fb00e0
:102158004800dd0001007000800078001140780020
:10216800004978000200e800409988000101e80071
:10217800f00f20008000610006d3bf0060406000bf
:102188000140700006f3b700c810de0007d3bf0097
:10219800604060000140700007f3b7001e0078003f
:1021a8000000e900000f78001e0078000000e00041
:1021b800e2ff3a000080fa00000006000200fa0080
:1021c800f098800090407800114798001e409000d9
:1021d8000081fb0014d3bf008080fb0015d3bf0033
:1021e8000080fb004800dd0001007000800f5100f6
:1021f8000700360014d3bf008080fb0015d3bf0052
:102208000080fb004800dd000100700010479800c6
:1022180014d3bf008080fb0015d3bf000080fb00f3
:102228004800dd0001007000800078001e4090002a
:102238000080fb0000815000f00f2000800061004a
:1022480014d3bf00604060000140700014f3b70071
:10225800c810de0015d3bf00604060000140700068
:1022680015f3b7000040eb00004f78001900370065
:1022780011d3bf008080fb0012d3bf000080fb0099
:102288004800dd0001007000000178009e80fb001e
:10229800a0332100008040001040780000497800f9
:1022a8000201e800f00f20008000610011d3bf0098
:1022b800604060000140700011f3b700c810de00f4
:1022c80012d3bf00604060000140700012f3b700f5
:1022d8001e4fe8001e4090009e4f1000e4ff39009a
:1022e80014d3bf008080fb0015d3bf000080fb0023
:1022f8004800dd00010070000000e000130032001b
:102308000199800080c0b30080487800019980005e
:10231800a033210090009800f098800010409000b1
:102328000044b2000004e00004003a000199800073
:1023380080ccb300904098001d00370001998000c0
:1023480080c8b300904098001900370001998000b8
:1023580080c0b300804878000199800020332100b4
:10236800900098000199800040c8b3009040980000
:1023780016d3bf008080fb0017d3bf000080fb008e
:102388004800dd00010070000000e0000700320096
:1023980016d3bf008080fb0017d3bf000080fb006e
:1023a8004800dd00010070000000010013f3a900df
:1023b8000080fa00000006000200fa0008f3a800f6
:1023c8000000eb00602588000040eb00004f78001b
:1023d800070037001e80fb00c200dd00002021003e
:1023e800008140006000b8000089be001e4fe80070
:1023f80070c0b3009e4f1000f6ff36009424a8006a
:102408000040eb001cf3b7009424a90080202100b1
:10241800c098880000202100f0988800f09880007b
:102428000099880034d3bf0010f3b70010d3bf0061
:102438000004e00003003a000001200070988800c2
:102448000600370012002000013121001000200092
:10245800f51e070000022000709888000080fa002e
:10246800000006000400fa00204798003147980051
:1024780000202100000f78002e4090000080fb0013
:1024880000004000800078003e4090000080fb0083
:10249800008040004300dd004200de004200dd0015
:1024a8001e0f40009e007800114090000074a100ab
:1024b800904098003e4090000004e00007003a0079
:1024c8002e4090000080fb00800040002032210058
:1024d800008040001e087800060037002e4090005b
:1024e8000080fb0080004000803121000080400017
:1024f8001e0878001e01780092409000f0cbb300cf
:1025080000c06000104198001e007800640140007f
:102518009240900000c4b30000c0700010419800c1
:102528000080fa00000006000400fa002047980026
:10253800314798002e4090000080fb0000004000ca
:1025480080007800a04a200000804000000f78003a
:102558001e007800be409000014878003e40900080
:102568000080fb004300de00610060000004e00022
:10257800030032008040eb002e409000b9ff0700b6
:102588003e4090000080fb004200de0061006000d9
:102598000004e0000300320011c0b3002e40900098
:1025a800b0ff07000080fa00000006000400fa00ef
:1025b80020479800314798002e4090000004e00022
:1025c8000d003a000199800080c0b300804878006f
:1025d8000199800020332100900098000199800023
:1025e800c0c8b30090409800c198800040c8b300ac
:1025f80090409800230037002e4090000080fb0098
:1026080000004000800078003e4090000080fb0001
:10261800008040004300dd00800078000020210099
:1026280000804000000f78001e0078009040900065
:1026380040c8b30080c070001e00780011409800a8
:102648002e4090000080fb000000400080007800d1
:102658003e4090000080fb00008040004300dd0009
:102668008000780040202100008f40001e00780084
:102678009040900040c8b30080c070001e007800f1
:10268800114098000080fa00000006000a00fa00d5
:102698002047980031479800220798006347980020
:1026a8003e4090000004e000070032002e409000f9
:1026b8000080fb0080004000803121000080400045
:1026c800100f7800060037002e4090000080fb00b5
:1026d800800040002032210000804000100f780068
:1026e8001e00e00003003a000000eb0040079800dd
:1026f800390037002e009000800078001e00780016
:10270800110098001e007800ee4090000148780003
:102718001e0078001040900002c4b30082406000a0
:102728001e007800114098001e007800904090002c
:1027380080c8b30080c070001e0078001140980067
:102748003e4090000004e000110032002e4090004e
:102758000080fb00000040008000780080312100ec
:1027680000804000000178002e4090000080fb00af
:102778000000400080007800803121000080400087
:10278800104078000024a2000049780010003700ab
:102798002e4090000080fb00000040008000780080
:1027a8002032210000804000000178002e40900077
:1027b8000080fb00000040008000780020322100eb
:1027c80000804000104078000024a20000497800f2
:1027d8001e007800400798004e0090000080fa0024
:1027e800000006000600fa00004f780094c4bf00fd
:1027f8000042b2000004e0005f0032001e80fb00cf
:1028080080004000803121000080400010037800e3
:102818001e80fb00800040008031210000804000c5
:10282800100078001000be00020420000300200001
:1028380000027800810278000200780083007800a6
:1028480000016200018062006102b800140798006c
:10285800250798001e009000ae009000c000dd0023
:102868000000200010079800210798001e00900023
:10287800ae0090006112b800140798002507980070
:102888001e019000ae01900002007000838070006d
:10289800008bbe001e80fb008000400080312100bc
:1028a80000804000100278001e80fb00800040007d
:1028b8008031210000804000100078001001be0027
:1028c80000042000010020000000690081806900e8
:1028d800008abe001e80fb000000400080007800d7
:1028e8008031210000804000000178001e80fb003c
:1028f8000000400080007800803121000080400006
:10290800104078000024a200004978001e80fb00d7
:1029180080004000803121000080400010017800d4
:102928001e80fb00800040008031210000804000b4
:1029380010007800104090000044b2001041980048
:102948001e80fb0080004000803121000080400094
:10295800100178001e80fb008000400080312100bb
:1029680000804000100078009040900000c4b30040
:1029780000c06800104198000080fa0000000600be
:102988000000fa000000eb00a02488000000eb0023
:10299800602488000000eb00709888000080fa002e
:1029a800000006000000fa00709880000000e000b7
:1029b80016003a000000eb00a02488000000eb009d
:1029c8006024880020002000302588000000eb00eb
:1029d800402588008644a900f0092000802488004a
:1029e800f0092000602488009ec0a800010037007c
:1029f8009404a80094c4bf00614060000004e00093
:102a0800fbff320010002000709888000080fa0058
:102a1800000006000000fa0000002100b010880045
:102a280017e2a800f00f2000a010880060532100d2
:102a3800209c8800a0c0b30074f1b7009a40a90098
:102a480060af2100f09b8800000021003010880052
:102a580007e2a800f00f2000201088000080fa008c
:102a6800000006000600fa008a40a90070d1bf00e5
:102a78000004e0009700320074d1bf000080fb0022
:102a88006101b9001207980023079800f0002000a0
:102a9800010020001e019000ae019000800f51003f
:102aa800818f5900c9003e001e009000ae009000c2
:102ab800006001000f003700160037001c003700c7
:102ac80020003700280037002c0037003b00370073
:102ad8003f00370050003700540037005b003700d4
:102ae8005f003700660037006a0037007100370062
:102af800750037006ad1bf000080fb00000040006d
:102b08009010880074d1bf000040e80074f1b7004d
:102b1800ae00370071d1bf000080fb009010880024
:102b280074d1bf000040e80074f1b700a700370077
:102b38001622a80074d1bf000040e80074f1b70065
:102b4800a20037006ad1bf000080fb0000004000ef
:102b58000000e8009010880074d1bf000040e80031
:102b680074f1b700990037001662a80074d1bf004d
:102b78000040e80074f1b70094003700801080002e
:102b88006bf1b70075d1bf00e14f500005003a0066
:102b980016a2a8001682a800e0c0b30074f1b7001e
:102ba8008a00370016a2a9001682a80074d1bf00b7
:102bb8000040e80074f1b700840037001662a800ee
:102bc80074d1bf000040e80074f1b7007f003700ff
:102bd800801080006cf1b70075d1bf00e24f500043
:102be80004003a0016a2a8001682a800e0c0b300ac
:102bf80074f1b70075d1bf00e44f500073003a007c
:102c080016a2a9001682a80074d1bf000040e800ef
:102c180074f1b7006d0037001662a80074d1bf00c8
:102c28000040e80074f1b7006800370080108000a9
:102c38006df1b70016a2a9001682a80074d1bf00d2
:102c48000040e80074f1b700600037001662a80081
:102c580074d1bf000040e80074f1b7005b00370092
:102c6800801080006ef1b70016a2a9001682a80095
:102c780074d1bf000040e80074f1b700530037007a
:102c88001662a80074d1bf000040e80074f1b700d4
:102c98004e003700801080006ff1b70016a2a80020
:102ca8001682a80074d1bf000040e80074f1b70094
:102cb800460037001642a80074d1bf000040e80063
:102cc80074f1b7004100370010c0b30072f1b700cb
:102cd8003e00370074d1bf000080fb00000f780071
:102ce8009e007800e28f5000230032001e01780019
:102cf800e20f510007003c009e0178000300e0004d
:102d08000e0032001e007800e10f50001300320060
:102d18002e0037009e007800e48f50002400320017
:102d28001e017800e40f51001a0035009e0178005a
:102d3800e58f510023003200240037006ad1bf001c
:102d48000080fb00000040009010880074d1bf0094
:102d58000040e80074f1b7001c00370071d1bf00d3
:102d68000080fb009010880074d1bf000040e8008c
:102d780074f1b7001500370076d1bf000080fb0062
:102d88009010880074d1bf000040e80074f1b700cb
:102d98000e00370077d1bf000080fb00901088003c
:102da80074d1bf000040e80074f1b7000700370095
:102db8001642a80074d1bf000040e80074f1b700c3
:102dc8000200370010c0b30072f1b7000080fa00ab
:102dd800000006000a00fa000040eb00004f7800ef
:102de800e8d1bf00e7f1b70072d1bf00e14f500052
:102df800d8003a000040eb00e6f1b7000040eb00d5
:102e080072f1b700e8d1bf000080fb006101b90092
:102e18001207980023079800f00020000100200006
:102e28001e019000ae019000800f5100818f590063
:102e3800c6003e001e009000ae0090000060010039
:102e48000f003700240037003600370048003700ed
:102e580055003700620037006f0037007c003700ec
:102e680089003700960037009b003700a000370024
:102e7800a5003700aa003700ad003700b0003700c2
:102e8800b116210091407800204e210001487800b9
:102e98006cd1bf008080fb006dd1bf000080fb00bb
:102ea8004700dd000080400020a788006ed1bf00e9
:102eb8008080fb006fd1bf000080fb004700dd0071
:102ec8000080400030a78800e8d1bf000040e8003b
:102ed800e8f1b7009f0037006bd1bf000080fb000e
:102ee800c400dd006cd1bf000080fb004400de00a0
:102ef8000080fb0000804000cf80de009cf50700ca
:102f08000200200003d8230064f60700f0a588001b
:102f180001a68800e8d1bf000040e800e8f1b7004a
:102f28008c0037006bd1bf000080fb00c400dd00bf
:102f38006cd1bf000080fb004400de000080fb0075
:102f480000804000cf80de0089f5070002002000e5
:102f580003d8230051f6070010a6880021a6880090
:102f6800e8d1bf000040e800e8f1b7007900370079
:102f78006cd1bf000080fb00c800dd006bd1bf0032
:102f88000080fb0000804000cf80de0078f507005d
:102f980030a6880041a68800e8d1bf000040e800bc
:102fa800e8f1b7006b0037006cd1bf000080fb0070
:102fb800c800dd006bd1bf000080fb00008040002e
:102fc800cf80de006af5070050a6880061a6880059
:102fd800e8d1bf000040e800e8f1b7005d00370025
:102fe8006cd1bf000080fb00c800dd006bd1bf00c2
:102ff8000080fb0000804000cf80de005cf5070009
:1030080070a6880081a68800e8d1bf000040e800cb
:10301800e8f1b7004f0037006cd1bf008080fb009b
:103028006bd1bf000080fb004800dd00008040003d
:10303800cf80de004ef5070090a68800a1a6880084
:10304800e8d1bf000040e800e8f1b70041003700d0
:103058006cd1bf008080fb006bd1bf000080fb00fb
:103068004800dd0000804000cf80de0040f507000a
:10307800b0a68800c1a68800e8d1bf000040e800db
:10308800e8f1b700330037006cd1bf008080fb0047
:103098006bd1bf000080fb004800dd0000804000cd
:1030a800cf80de0032f50700d0a68800e1a68800b0
:1030b800e8d1bf000040e800e8f1b700250037007c
:1030c8006bd1bf007af1b700e8d1bf000040e8003b
:1030d800e8f1b7001f0037006bd1bf007bf1b700e4
:1030e800e8d1bf000040e800e8f1b7001900370058
:1030f8006bd1bf007cf1b700e8d1bf000040e80009
:10310800e8f1b700130037006bd1bf007df1b700bd
:10311800e8d1bf000040e800e8f1b7000d00370033
:10312800e8d1bf000040e800e8f1b7000900370027
:10313800e8d1bf000040e800e8f1b700050037001b
:103148000040eb00e8f1b700020037000040eb0058
:10315800e8f1b700e6d1bf000004e000ab003a0098
:1031680072d1bf000004e000a8003a0010c0b3000c
:10317800e6f1b700e8d1bf000080fb006101b900ab
:103188003207980043079800f00020000100200053
:103198003e019000ce019000800f5100818f5900b0
:1031a80096003e003e009000ce00900000600100b6
:1031b8000f003700160037001d00370024003700c5
:1031c8002b00370032003700390037004000370045
:1031d800470037004e003700550037005c003700c5
:1031e800630037006a003700720037007a00370042
:1031f80030c0b30074f1b70040c0b30075f1b70038
:103208008040eb00d0c4b300bf0007007f00370048
:103218000040eb0074f1b70020c0b30075f1b700af
:103228008040eb0090c4b300b70007007700370078
:103238000040eb0074f1b70020c0b30075f1b7008f
:103248008040eb0080c4b300af0007006f00370078
:103258000040eb0074f1b70020c0b30075f1b7006f
:1032680021c3b30030c5b300a700070067003700cb
:103278000040eb0074f1b70020c0b30075f1b7004f
:1032880041c3b30030c5b3009f0007005f0037009b
:103298000040eb0074f1b70020c0b30075f1b7002f
:1032a80061c3b30030c5b30097000700570037006b
:1032b8000040eb0074f1b70020c0b30075f1b7000f
:1032c80031c0b300e0c1b3008f0007004f003700e2
:1032d8000040eb0074f1b70020c0b30075f1b700ef
:1032e80051c0b300e0c1b3008700070047003700b2
:1032f8000040eb0074f1b70020c0b30075f1b700cf
:1033080071c0b300e0c1b3007f0007003f00370081
:103318000040eb0074f1b70010c0b30075f1b700be
:1033280091c1b30080c1b3007700070037003700b0
:103338000040eb0074f1b70010c0b30075f1b7009e
:1033480011c0b30080c1b3006f0007002f00370021
:103358000040eb0074f1b70010c0b30075f1b7007e
:1033680081c1b30080c1b3006700070027003700a0
:103378000040eb0074f1b70010c0b30075f1b7005e
:10338800c1c1b30080c1b3005f0007001f00370050
:103398000040eb0074f1b70020c0b30075f1b7002e
:1033a8004207240051c1b30090c0b3006200070077
:1033b800160037000040eb0074f1b70020c0b300de
:1033c80075f1b70082bb200041c1b30090c0b300c3
:1033d800590007000d0037000040eb0074f1b700fa
:1033e80020c0b30075f1b70082bb2000f1c3b30061
:1033f80090c0b30050000700040037000040eb0005
:10340800e8f1b7000040eb00e6f1b700811e2100ab
:1034180091407800e7d1bf0080cf500006003a0005
:10342800208f80000000e800208f88001000200016
:10343800341b0700020037000000eb00208f8800d3
:10344800208f8000ea0f5000020036001000200094
:103458002c1b0700218f8000800c2000808f5000db
:1034680027003600e8d1bf000040e800e8f1b700c7
:1034780000c0eb006bf1b70000c0eb006cf1b700c7
:1034880000c0eb006df1b70000c0eb006ef1b700b3
:103498000040eb0074f1b7008a40a9001662a90049
:1034a8001682a9001642a9001622a9001602a90030
:1034b8000000eb00c010880080108000004f7800ea
:1034c8000000eb00c01088000000eb00b01088007e
:1034d8000000eb00c01088009a40a90040062000b8
:1034e800081b070017e2a8000040eb0072f1b700c4
:1034f8000040eb00e6f1b7000000eb00208f8800e9
:103508000080fa00000006000200fa00004f780070
:10351800114798001e4078006af1b7001e409000dd
:1035280071f1b70010c0b30070f1b7001602a8001f
:103538000080fa00000006000400fa00004f78003e
:1035480011479800120798001e4078006af1b700ea
:103558001e40900071f1b7000040eb0074f1b70015
:103568001e00900076f1b7001e0090004800de00b3
:1035780077f1b7000040eb0070f1b7001602a80021
:103588000080fa00000006000000fa009a40a80037
:103598000001eb0021c0b300e0c1b300e6ff070063
:1035a80040012000d71a070082002000d1c2b300d2
:1035b80030c5b300e0ff070040012000d11a070022
:1035c800b200200011c3b30030c5b300daff070012
:1035d80040012000cb1a07009a40a9000080fa0099
:1035e800000006000600fa008620a9005cd1bf0092
:1035f8000004e000970032005dd1bf000080fb00ae
:103608006101b9001207980023079800f000200014
:10361800010020001e019000ae019000800f5100b3
:10362800818f5900c9003e001e009000ae00900036
:10363800006001000f003700160037001c0037003b
:1036480020003700280037002c0037003b003700e7
:103658003f00370050003700540037005b00370048
:103668005f003700660037006a00370071003700d6
:10367800750037005ed1bf000080fb0000004000ed
:10368800101088005dd1bf000040e8005df1b70070
:10369800ae00370066d1bf000080fb001010880024
:1036a8005dd1bf000040e8005df1b700a70037001a
:1036b8000622a8005dd1bf000040e8005df1b70018
:1036c800a20037005ed1bf000080fb000000400070
:1036d8000000e800101088005dd1bf000040e8003d
:1036e8005df1b700990037000662a8005dd1bf0000
:1036f8000040e8005df1b70094003700001080003a
:103708005ff1b70067d1bf00e14f500005003a00f4
:1037180006a2a8000682a800e0c0b3005df1b700c9
:103728008a00370006a2a9000682a8005dd1bf0062
:103738000040e8005df1b700840037000662a80089
:103748005dd1bf000040e8005df1b7007f003700a1
:103758000010800060f1b70067d1bf00e24f500051
:1037680004003a0006a2a8000682a800e0c0b30040
:103778005df1b70067d1bf00e44f500073003a0015
:1037880006a2a9000682a8005dd1bf000040e8009b
:103798005df1b7006d0037000662a8005dd1bf007b
:1037a8000040e8005df1b7006800370000108000b5
:1037b80061f1b70006a2a9000682a8005dd1bf008a
:1037c8000040e8005df1b700600037000662a8001d
:1037d8005dd1bf000040e8005df1b7005b00370035
:1037e8000010800062f1b70006a2a9000682a800b6
:1037f8005dd1bf000040e8005df1b700530037001d
:103808000662a8005dd1bf000040e8005df1b70086
:103818004e0037000010800063f1b70006a2a80030
:103828000682a8005dd1bf000040e8005df1b70046
:10383800460037000642a8005dd1bf000040e800fe
:103848005df1b7004100370010c0b30069f1b7005f
:103858003e0037005dd1bf000080fb00000f7800fc
:103868009e007800e28f5000230032001e0178008d
:10387800e20f510007003c009e0178000300e000c1
:103888000e0032001e007800e10f500013003200d5
:103898002e0037009e007800e48f5000240032008c
:1038a8001e017800e40f51001a0035009e017800cf
:1038b800e58f510023003200240037005ed1bf009d
:1038c8000080fb0000004000101088005dd1bf00a0
:1038d8000040e8005df1b7001c00370066d1bf006a
:1038e8000080fb00101088005dd1bf000040e80098
:1038f8005df1b7001500370064d1bf000080fb0000
:10390800101088005dd1bf000040e8005df1b700ed
:103918000e00370065d1bf000080fb001010880042
:103928005dd1bf000040e8005df1b7000700370037
:103938000642a8005dd1bf000040e8005df1b70075
:103948000200370010c0b30068f1b7000080fa0029
:10395800000006000200fa00004f780011479800a6
:103968001e4078005ef1b7001e40900066f1b70077
:1039780010c0b3005cf1b7000602a8000080fa008e
:10398800000006000400fa00004f78001147980074
:10399800120798001e4078005ef1b7001e409000a4
:1039a80066f1b7000040eb005df1b7001e00900023
:1039b80064f1b7001e0090004800de0065f1b70012
:1039c8000040eb005cf1b7000602a8000080fa0096
:1039d800000006000e00fa00f8d1bf00f7f1b700aa
:1039e80069d1bf00e14f500092003a00f8d1bf0002
:1039f8008080fb00901e2100808040000040eb008a
:103a0800804878000040eb00f6f1b7000040eb007a
:103a180069f1b700f8d1bf000080fb006101b9006f
:103a2800120798002307980090002000010020004a
:103a38001e019000ae019000800f5100818f590047
:103a48007a003e001e009000ae0090000060010069
:103a580009003700130037001d0037002700370022
:103a6800310037003b003700450037004f00370072
:103a780059003700630037005fd1bf008080fb002a
:103a880060d1bf000080fb004800dd0000804000de
:103a980050ab8800f8d1bf000040e800f8f1b7004b
:103aa800640037005fd1bf008080fb0060d1bf0099
:103ab8000080fb004800dd0000804000d0b6880090
:103ac800f8d1bf000040e800f8f1b700590037000e
:103ad8005fd1bf008080fb0060d1bf000080fb0089
:103ae8004800dd000080400030ab8800f8d1bf00fe
:103af8000040e800f8f1b7004e0037005fd1bf0082
:103b08008080fb0060d1bf000080fb004800dd0022
:103b18000080400040ab8800f8d1bf000040e800ba
:103b2800f8f1b700430037005fd1bf008080fb0089
:103b380060d1bf000080fb004800dd00008040002d
:103b4800f08b8800f8d1bf000040e800f8f1b7001a
:103b5800380037005fd1bf008080fb0060d1bf0014
:103b68000080fb004800dd000080400020988800ad
:103b7800f8d1bf000040e800f8f1b7002d00370089
:103b88005fd1bf008080fb0060d1bf000080fb00d8
:103b98004800dd0000804000008c8800f8d1bf009c
:103ba8000040e800f8f1b700220037005fd1bf00fd
:103bb8008080fb0060d1bf000080fb004800dd0072
:103bc80000804000008c8800f8d1bf000040e80069
:103bd800f8f1b700170037005fd1bf008080fb0005
:103be80060d1bf000080fb004800dd00008040007d
:103bf800c0b68800f8d1bf000040e800f8f1b7006f
:103c08000c0037005fd1bf008080fb0060d1bf008f
:103c18000080fb004800dd0000804000109888000c
:103c28000040eb00f8f1b700020037000040eb005d
:103c3800f8f1b700f6d1bf000004e00074003a00c4
:103c480069d1bf000004e00071003a0010c0b30061
:103c5800f6f1b700f8d1bf000080fb006101b900a0
:103c680032079800430798009000200001002000c8
:103c78003e019000ce019000800f5100818f5900c5
:103c88005f003e003e009000ce0090000060010002
:103c98000900370011003700180037001f003700ef
:103ca800260037002d003700340037003b0037006e
:103cb800430037004a003700ec62a9000040eb00df
:103cc8005df1b70020c0b30067f1b70091c0b30041
:103cd800b0c0b3001fff07004d0037000040eb00e5
:103ce8005df1b70020c0b30067f1b700d1c0b300e1
:103cf800b0c0b30017ff0700450037000040eb00d5
:103d08005df1b70020c0b30067f1b700e1c0b300b0
:103d1800b0c0b3000fff07003d0037000040eb00c4
:103d28005df1b70020c0b30067f1b700f1c0b30080
:103d3800b0c0b30007ff0700350037000040eb00b4
:103d48005df1b70020c0b30067f1b70061c1b300ef
:103d5800b0c0b300fffe07002d0037000040eb00a5
:103d68005df1b70020c0b30067f1b700a1c0b30090
:103d7800b0c0b300f7fe0700250037000040eb0095
:103d88005df1b70020c0b30067f1b70081c0b30090
:103d9800b0c0b300effe07001d003700ec62a800ba
:103da8000040eb005df1b70020c0b30067f1b70039
:103db80081c0b300b0c0b300e6fe070014003700ae
:103dc8000040eb005df1b70020c0b30067f1b70019
:103dd800d1c0b300b0c0b300defe07000c0037004e
:103de8000040eb005df1b70020c0b30067f1b700f9
:103df800a1c0b300b0c0b300d6fe0700040037006e
:103e08000040eb00f8f1b7000040eb00f6f1b70016
:103e1800811f210091407800f7d1bf0080cf50006a
:103e280006003a00a08f80000000e800a08f8800fc
:103e380010002000b3180700020037000000eb0054
:103e4800a08f8800a08f8000ea0f50000200360083
:103e580010002000ab180700a18f8000800c200004
:103e6800808f50002300360000c0eb005ff1b700e0
:103e780000c0eb0060f1b70000c0eb0061f1b700d3
:103e880000c0eb0062f1b7000040eb005df1b70045
:103e9800ec62a9006c000700f8d1bf000081fb00ac
:103ea800901e210000004100104078008040e8008a
:103eb800901e210000004100014878000040eb00fe
:103ec80069f1b7000040eb00f6f1b7000000eb0025
:103ed800a08f8800f8d1bf000040e800f8f1b700d3
:103ee800f8d1bf00ea4f5000020036000040eb0056
:103ef800f8f1b7000040eb00004f780041003700b0
:103f08009e80fb00901e2100008040001040780039
:103f1800e54f50003a0036009e80fb00901e2100bd
:103f2800808040000040eb00804878001e80fb0045
:103f38006101b900520798006307980090002000bb
:103f4800010020005e019000ee019000800f5100fa
:103f5800818f59002a003e005e009000ee0090001c
:103f680000600100090037000b0037000d00370022
:103f78000f00370011003700130037001500370015
:103f880017003700190037001b0037000080eb00ce
:103f980050ab88001a0037000080eb00d0b68800cc
:103fa800170037000080eb0030ab880014003700a2
:103fb8000080eb0040ab8800110037000080eb0068
:103fc800f08b88000e0037000080eb0020988800f6
:103fd8000b0037000080eb00008c880008003700d9
:103fe8000080eb00008c8800050037000080eb00a3
:103ff800c0b68800020037000080eb0010988800e7
:104008001e4fe80091c0b3009ecf1000bcff3600e1
:10401800c1b6800040062000808f500002003600a4
:104028000080eb00c0b68800d1b6800040062000b2
:10403800808f5000020036000080eb00d0b6880068
:104048000080fa00000006000000fa009620a9008f
:1040580007e2a9000000eb00401088000000eb0018
:1040680030108800400620002618070000002100b4
:1040780030108800f00f20002010880007e2a80008
:104088009620a8000080fa00000006000a00fa0046
:10409800d0c4b300004f98000040eb007047980070
:1040a80085f2070097f2070083f207000e48900098
:1040b8000040400095f207007ff207007e40900024
:1040c80092f207007cf207009af207007af20700e2
:1040d8000e4890000080fb00000040000004a00093
:1040e8008af2070074f20700006420000100200033
:1040f800daf007008a40a90090f2070060479800ac
:1041080096f207006cf207008cf20700104798003f
:1041180092f2070068f2070088f20700004f780063
:104128001e80fb00c700dd001e4090000080fb00e1
:10413800008070002007980088f207005ef20700f0
:104148007ef207001047980084f207005af2070031
:104158007af20700004f78001e80fb00c700dd00e0
:104168001e4090000080fb0000807000100798003f
:104178007df2070050f207007ef207004ef20700ba
:1041880000000000000000000080fa0000000600a7
:104198000200fa000040eb00104798000040eb00d6
:1041a800004f7800e862a900f10f2000f0232c00ee
:1041b80072f2070074f20700f10f2000f0232c00c0
:1041c80084f207003cf20700d962a900dd62a8006a
:1041d8000060fe00ec62a900800c2000c9170700ef
:1041e800d1c0b300b0c0b300db1707001047980078
:1041f800ec62a800800c2000c2170700d1c0b300f1
:10420800b0c0b300d4170700004f7800800c20001e
:10421800bc170700021a240051c1b30090c0b300b4
:10422800cc18070020032000b617070082bb200027
:1042380041c1b30090c0b300c61807002003200096
:10424800b017070002f82000f1c3b30090c0b30014
:10425800c018070020032000aa170700000000006c
:1042680000000000daff37000000fa00a2c1b30026
:1042780021c0b30080c1b3003818070082c1b30061
:1042880011c1b30080c1b3003418070082c7b3005e
:1042980071c0b30080c1b30030180700f2c0b3008a
:1042a80001c1b30080c1b3002c1807000080fa00d8
:1042b800000006002000fa00f10f2000f0232c0077
:1042c8002ef2070030f20700f10f2000f0232c0037
:1042d80040f20700f8f107004006200089170700a0
:1042e8000041eb0021c0b300e0c1b3001b18070078
:1042f800500020008317070082c0b300d1c2b3006a
:1043080030c5b30015180700500020007d170700be
:10431800b2c0b30011c3b30030c5b3000f18070013
:1043280050002000771707000060fe008040eb0077
:1043380090c4b300ac1707000080fb00200798006a
:1043480011c0b30090c4b300a71707000080fb009a
:10435800100798001e009000c480de002e00900018
:104368004400dd00008f70001e007800cf80de0062
:104378007ff007000200200003182400a7f00700c0
:10438800600f9800710f9800500020005d1707001b
:104398008040eb0080c4b300931707000080fb0047
:1043a8002007980011c0b30080c4b3008e1707001f
:1043b8000080fb00100798001e009000c480de00fb
:1043c8002e0090004400dd00008f70001e00780071
:1043d800cf80de0066f007000200200003182400ea
:1043e8008ef00700400f9800510f980050002000f1
:1043f8004417070021c3b30030c5b3007a1707007c
:104408000080fb002007980031c3b30030c5b3001b
:10441800751707000080fb00100798001e00900029
:10442800c800dd002e009000008f70001e0078008c
:10443800cf80de004ef007000200200003382c0079
:1044480076f00700200f9800310f980050002000e8
:104458002c17070041c3b30030c5b300621707002b
:104468000080fb002007980051c3b30030c5b3009b
:104478005d1707000080fb00100798001e009000e1
:10448800c800dd002e009000008f70001e0078002c
:10449800cf80de0036f007000200200003382c0031
:1044a8005ef00700000f9800110f980050002000e0
:1044b8001417070061c3b30030c5b3004a170700db
:1044c8000080fb002007980071c3b30030c5b3001b
:1044d800451707000080fb00100798001e00900099
:1044e800c800dd002e009000008f70001e007800cc
:1044f800cf80de001ef007000200200003382c00e9
:1045080046f00700600798007107980050002000e7
:10451800fc16070031c0b300e0c1b3003217070032
:104528000080fb002007980041c0b300e0c1b30041
:104538002d1707000080fb00100798002e00900040
:10454800c800dd001e009000008f70001e0078007b
:104558005007980050002000ea16070051c0b30029
:10456800e0c1b300201707000080fb002007980077
:1045780061c0b300e0c1b3001b1707000080fb0057
:10458800100798002e009000c800dd001e00900063
:10459800008f70001e00780040079800500020002f
:1045a800d816070071c0b300e0c1b3000e170700aa
:1045b8000080fb002007980081c0b300e0c1b30071
:1045c800091707000080fb00100798002e009000d4
:1045d800c800dd001e009000008f70001e007800eb
:1045e80030079800a9fe070000000000800c20009a
:1045f800c41607004cff37001a00fa000e80e800c6
:10460800217728000b00090031587800c000b1005c
:104618006e004700e177280008000900315878004b
:104628009000b100690040008040eb00014878002c
:104638000000e8008040eb00014878000000e80036
:104648008040eb00014878000000eb00000f780084
:10465800120037001e0178009e0078000e80e800e6
:104668000080400090407800e056210000004100a2
:10467800014878001e0078006c0140009e00780018
:104688006e0047000080400090407800e05621000e
:1046980000004100014878001e0fe800b10020002a
:1046a8009e8f1000ebff360000002000a129240097
:1046b80030a6880041a6880065020700916d200099
:1046c8009140780000ccb30000c060002041b300e6
:1046d800d9e6b7000111200091407800f0ccb30072
:1046e80000c0600010e1b7001032200060088800a8
:1046f80000322000a00c88000040eb0007020700f1
:1047080092c1bf00f041b30092e1b7009181a900c6
:10471800011920009140780080cfb30000c06000ec
:104728006040b30090e1b70011e1a800b9f80700b4
:1047380060572200109c8800040207008040eb00ac
:10474800c06d2100014878000080fa0000000600d2
:104758000000fa00609780000000e8006097880079
:104768003e010700780107009560a8009a40a8005c
:104778009620a80097f9070096fc07001103070088
:1047880073000700e4d2bf000004e0001c00320000
:10479800cac2bf00644060000004e00018003a008c
:1047a800cac2bf00684060000004e00014003a007c
:1047b800cac2bf00704060000004e00010003a0068
:1047c80002003700dd02a800dc62a800cac2bf00f0
:1047d800644060000004e000faff3200cac2bf0073
:1047e800684060000004e000f6ff3200cac2bf0063
:1047f800704060000004e000f2ff3200dd02a90012
:10480800e4d2bf000004e0000e003200dac2bf00ac
:10481800644060000004e0000a003a000060fe0006
:10482800dc62a800800c200036160700dc62a900b4
:10483800dd02a800800c200032160700dd02a90066
:10484800f6ff3700dac2bf000044b2000004e000ff
:1048580017003a00d3c2bf000044b2000004e000d1
:1048680013003a00e4d2bf00e14f500010003a00b4
:104878002003200023160700dac2bf006140600051
:104888000004e0000a0032000040eb00e4f2b70048
:10489800dc62a900e4e2a900e4a2a900e4c2a8003d
:1048a800dc22a900ec22a90040062000151607000a
:1048b800e4d2bf000004e00014003200c06d210003
:1048c800104078000004e00015003a006173800091
:1048d800c0122000808f500006003600d012200041
:1048e8006073880021c3b300c06d210001487800bf
:1048f8000b003700607380000000e80060738800d8
:1049080040062000ff150700050037000040eb00b7
:10491800c16d2100804878000000eb0060738800ba
:10492800c06d2100104078007c0107000070210054
:10493800104078000004e00002003200cca2a80079
:1049480001003700cca2a9000080fa000000060090
:104958000200fa0010988000e10f400003003200c6
:1049680020988000e10f400003003a000080eb002f
:1049780010ab880004003700109880002198800050
:104988000100400010ab8800c0b68000e90f50005d
:1049980003003600d0b68000e90f500018003e0032
:1049a800707380000000e8007073880071738000e5
:1049b800803e2000808f500002003600007d2000dd
:1049c80070738800c0b680000000e0000300320069
:1049d800d0b680000000e00005003a007173800046
:1049e800703e2000808f500001003e001800370004
:1049f800807380000000e80080738800140037008e
:104a0800c0b68000e10f400007003a00d0b6800031
:104a1800e10f400004003a00807380000000e800c5
:104a2800807388000a003700c0b68000e90f500084
:104a380007003600d0b68000e90f500004003600a9
:104a48000000eb00807388000040eb00fcf2b70028
:104a580080738000e90f500020003600cac2bf00f2
:104a6800614060000004e0001a003a0010c0b30082
:104a7800fcf2b7000040eb00e4f2b700dc62a900ea
:104a8800dd02a900e4e2a900e4a2a900e4c2a800aa
:104a9800dc22a9000040eb00004f78000700370037
:104aa800dd02a800800c200096150700dd02a90091
:104ab800800c2000931507001e4fe80030c0b3009b
:104ac8009e4f1000f6ff3600ec22a9004006200099
:104ad8008c150700800c2000807388000080fa0085
:104ae800000006000800fa000e80e800a1782800ff
:104af80005000900315878006000b1002222a900a1
:104b08008560a90030118000004f78003097800040
:104b18000000e80030978800d6cebf000004e0000f
:104b28000c003a0040c2b3009e4f100046003a0005
:104b3800d6cebf008000fb0020e7200000804000a8
:104b48001e487800d6cebf000040e800d6eeb70079
:104b58003d003700d6cebf008000fb0020e72000d4
:104b6800008040001e487800d6cebf00e54f5000b8
:104b780017003a000040eb0010479800110037007a
:104b88001e4090008080fb0020e72000008040004d
:104b9800104178001e4090008080fb000e80e800e5
:104ba8000080400010407800804f51000200320021
:104bb8000040eb00d6eeb7001e4090000040e80031
:104bc800104798001e409000e44f5000ecff36005c
:104bd80061ed200091407800e0c5b30080cf50001f
:104be800160034000040eb00104798000d00370015
:104bf8001e4090000081fb001e4090008080fb005a
:104c080020e720000080400090407800e04f21001d
:104c180000004100014878001e4090000040e80074
:104c2800104798009e409000e0c5b30080cf500028
:104c3800efff360000c0eb00d6eeb700d6cebf00bf
:104c48000040e800d6eeb700d6cebf000000fb005b
:104c5800409788000080fa00000006000000fa0073
:104c68000040eb00d7eeb700dac2bf006140600039
:104c78000004e0000e003a00e4d2bf000004e000a7
:104c88000b003a006d0107000000e0000800320048
:104c9800dc62a80010c0b300e4f2b70040062000b0
:104ca8001815070038fa0700e4c2a900ba0007007f
:104cb800eac2bf00614060000004e00020003a0042
:104cc80019003700c07680000000e800c076880030
:104cd800a00020000b150700c176800020032000eb
:104ce800808f500010003600ec22a900dc62a90079
:104cf8000040eb00e4f2b700e4c2a800e4a2a90077
:104d0800e4e2a900010037000060fe00dac2bf003b
:104d1800614060000004e000fbff3200ec22a800c4
:104d280040012000f7140700eac2bf00614060009c
:104d38000004e000e3ff32000000eb00c0768800ca
:104d48000080fa00000006000400fa00881f7800be
:104d5800cbc2bf000080fb004700de008040780027
:104d6800a03d210001487800cbc2bf00614060002f
:104d780080407800b03d210001487800cbc2bf00d8
:104d88000080fb000000d100614060008040780096
:104d9800c03d210001487800cbc2bf000080fb0065
:104da8004600de006140600080407800d03d210070
:104db80001487800f2c2bf000080fb004700de0017
:104dc80080407800e03d210001487800f2c2bf0031
:104dd8000080fb004600de006140600080407800f3
:104de800f03d210001487800cac2bf000080fb00e6
:104df8004200de000004a200e1406000103e2100f5
:104e080001487800cac2bf000080fb004400de00f1
:104e18000004a200e1406000203e21000148780023
:104e2800cac2bf000080fb004300de000004a200ed
:104e3800e1406000303e210001487800d0c0b30056
:104e48001d000700b09e8800a0c0b3001a0007002c
:104e5800c09e8800c0c0b30017000700909e88005d
:104e6800b0c0b30014000700a09e880010c0b300b3
:104e780011000700000478006140b900bced07008c
:104e8800008fbe000800e00005003d000200200081
:104e9800037824001e00be0023ee0700008fbe002a
:104ea8001e00be00f0a6880001a788004f04780005
:104eb8000080fa00000006000400fa00204798006d
:104ec8000000eb00000f780021e3a9002e409000bd
:104ed8007f4060007f41600081322000914078006f
:104ee80000ceb30000c060000240700028e3b700a5
:104ef80021e3a8002023a80020c3bf006140600070
:104f08000004e000fcff320000188000000f780069
:104f18001e0078000080fa00000006000200fa0077
:104f2800004f780040c6b3009e4f100002003600c4
:104f380040c6b300004f78001e80fb004300dd0030
:104f4800b00c88000080fa00000006000000fa009b
:104f5800b16d20009140780000ccb30000c0600023
:104f68003040b300dbe6b700416a2000914078008a
:104f780000ccb30000c060003041b300a4e6b70025
:104f880070062000401188009560a90021e2a80061
:104f98000080fa00000006000200fa009a40a8000b
:104fa8000000eb00000f7800230037002bff0700fc
:104fb800401f200053140700a201200021c0b300a5
:104fc80080c1b3005cf90700500020004d140700b1
:104fd8008201200011c1b30080c1b30056f9070057
:104fe80050002000471407008207200071c0b3005a
:104ff80080c1b30050f90700500020004114070099
:105008000001eb0001c1b30080c1b3004af90700f9
:10501800800c20003b1407003202200001c1b300bd
:1050280080c1b30044f90700500020003514070080
:105038000060fe001e0fe800500020009e0f1000c8
:10504800daff36009a40a9000080fa000000060046
:105058000000fa000080eb00601988000080eb0077
:10506800401688000080eb00801688000080eb0066
:10507800c01688000080eb00001788000080eb0055
:10508800401788000080eb0080178800b0ef070009
:1050980044f60700dd62a900e4e2a900e4a2a90041
:1050a800e4c2a800dc22a900dd02a900dc62a90094
:1050b800cca2a900d5a2a800dce2a800ec62a90055
:1050c800ec22a800d822a900d1a2a900d8e2a90000
:1050d800e862a900e822a900d962a900e0e2a900d3
:1050e800e0a2a900e0c2a900d902a900d862a900db
:1050f800c8a2a9002c23a9002d63a9002d83a9000b
:105108002d43a9002da3a9000000eb000019880079
:105118000000eb00101988000000eb00201988003f
:1051280000c0eb0024e3b70025c3bf00f041b30083
:1051380025e3b700013220009140780000ceb3008b
:1051480000c0700020e3b7000080fa0000000600ed
:105158000000fa007007a800000000007007a9000e
:105168000000eb00a02488000000eb003024880039
:105178008804a900e4e2a900e4a2a900e4c2a80006
:10518800dd02a900dc62a90050002000dd13070041
:105198000000eb00001988000000eb0010198800df
:1051a8000000eb00201988000080eb0060198800df
:1051b8000080eb00401688000080eb008016880015
:1051c8000080eb00c01688000080eb000017880004
:1051d8000080eb00401788000080eb0080178800f3
:1051e8000080fa00000006000000fa008660a900ae
:1051f8009660a9000080fa00004006000000fa004e
:105208002043a90085a0a90010188000909e88005e
:1052180020188000a09e880000188000b09e88009a
:1052280030188000c09e8800009780000000e800c9
:10523800009788000080fa00000006000400fa00c9
:105248000000eb00000f7800e4e2a8004006200010
:10525800ac130700e4a2a8000a0037001e0fe800fc
:10526800500020009e0f1000030036000000eb00e5
:1052780010079800380037000060fe004006200044
:10528800a0130700d3c2bf000080fb004600de0069
:10529800614060008080fb00dac2bf000080fb0034
:1052a8004600de00614060000080fb000080700066
:1052b8000000e000e9ff3a000000eb00000f780072
:1052c8000060fe00400620008e1307000a00370029
:1052d8001e0fe800400120009e0f1000030036005a
:1052e8000000eb00100798001b0037000060fe006c
:1052f8004006200083130700d3c2bf000044b20059
:105308000004e000f2ff32000000eb00000f78001c
:10531800dc22a8000a0037001e0fe8004001200028
:105328009e0f1000030036000000eb0010079800e5
:10533800090037000060fe004006200071130700d6
:10534800dac2bf000044b2000004e000f2ff3200fd
:1053580010002000100798001e0090000080fa003e
:10536800000006000200fa000060fe006620a800a7
:105378006040a800d0168000000f7800501680000a
:10538800000f78008660a9009660a8000040fe0023
:105398009660a9008660a900d0168000000f7800ea
:1053a80050168000000f780021e3a800803e2000fe
:1053b8005413070021e3a90000fa20005113070045
:1053c800e9ff37000000fa00cac2bf006140600070
:1053d8000004e0000800320010c0b3008170210012
:1053e80080487800e4e2a80010c0b300dbeeb70004
:1053f800dd62a8000c003700cac2bf00614060002f
:105408000004e00008003a008040eb0080702100b2
:10541800014878000040eb00dbeeb700dd62a90030
:105428000040eb00daeeb70010ab80000000e000af
:105438000d003400e4d2bf000004e00008003a0088
:1054480011ab8000900f2000808f500002003c00bc
:10545800dd02a90005003700dd02a80003003700bf
:10546800dd02a90001003700dd02a9000080fa0072
:10547800000006000000fa000080fa0000000600a4
:105488005400fa0020cf98006127980072279800ee
:10549800032f980030c2b30010cf98007e209000f0
:1054a8000000e000030032000e2890000000e00039
:1054b80003003a0010fd2f00102f98003b00370022
:1054c8000e00e80052022000912321002fee070071
:1054d8000e00e800aec89000214098006e209000b1
:1054e800c800de004801dd00010171008e00e800ff
:1054f800f00f2000800161003140900060406000a2
:1055080003407000b04098004811de004140900010
:105518006040600002407000c04098000e00e80043
:105528006500400002022000fe20900017ee0700f0
:10553800610220008e804000900420000e00400090
:105548008e02e8000002780033c0b3001200200089
:1055580005007800fb0f0700004f78001e04e000ec
:10556800030032001e00fb00102f98000f003700c8
:105578009ec8900030c2b30080cf500003003200b4
:1055880021ff2f00112f980008003700600220002b
:105598000e0040008000e800020220000e28900063
:1055a800faed07001e00fb00102f98001e2890003f
:1055b8000080fa00000006001600fa00604f98000c
:1055c800010f9800120f980070c0b300504f980058
:1055d80000ceb300004f78001e0890000000e000e5
:1055e80003003a0010fd2f00200f98003500370007
:1055f800680047005200200001222100e3ed070067
:1056080068004700ee489000214098006801470074
:105618008e089000f00f200000806000c801dd00b7
:1056280092009000f00f20000080600003007000de
:10563800100198000e089000c800de00f00f20004e
:1056480080816000a200900000f02f0000806000c0
:1056580003007000200198008e00e8006d004700ec
:10566800e80247000002780033c0b300220020009f
:1056780005007800b30f0700004f78001e04e00013
:10568800030032001e00fb00200f98000d003700b9
:105698005e489000e74f50000300320021ff2f00c2
:1056a800210f9800070037001e0890008e00e800c0
:1056b8008100e80042002000b4ed07001e00fb0056
:1056c800200f98002e0890000080fa0000000600c5
:1056d8000e00fa005007980070c0b300004f980001
:1056e8005e0090000000e00003003a0010fd2f006b
:1056f800600798001a0037008e00e800680047002d
:105708000002780033c0b30022002000a02221004c
:105718008c0f0700004f78001e04e00003003200e1
:105728001e00fb00600798000d0037000e4890002f
:10573800e74f50000300320020ff2f006007980059
:10574800070037005e0090008e00e8008100e80046
:10575800320020008ded07001e00fb006007980056
:105768006e0090000080fa00000006000e00fa00ab
:105778005007980070c0b300004f98005e0090007a
:105788000000e00003003a0010fd2f0060079800b9
:10579800190037008e00e800680047000002780012
:1057a80033c0b3002200200040232100650f07000a
:1057b800004f78001e04e000030032001e00fb00ca
:1057c800600798000c0037000e489000e74f500023
:1057d8000300320020ff2f00600798000600370002
:1057e8000e00e800c04090005e009000014878007c
:1057f8001e00fb00600798006e0090000080fa0011
:10580800000006000e00fa005007980070c0b300b0
:10581800004f98005e0090000000e00003003a008e
:1058280010fd2f00600798001a0037008e00e8006e
:10583800680047000002780033c0b300220020004f
:10584800502221003f0f0700004f78001e04e0009f
:10585800030032001e00fb00600798000d003700af
:105868000e489000e74f50000300320020ff2f0041
:1058780060079800070037005e0090008e00e8007f
:105888008100e8004200200040ed07001e00fb00f8
:10589800600798006e0090000080fa000000060083
:1058a8000e00fa005007980070c0b300004f98002f
:1058b8005e0090000000e00003003a0010fd2f0099
:1058c80060079800470037008e00e800680047002e
:1058d8000002780033c0b30022002000002221001b
:1058e800180f0700004f78001e04e0000300320084
:1058f8001e00fb00600798003a0037000e48900031
:10590800e74f50000300320020ff2f006007980087
:1059180034003700de0190000e00e8008000e80047
:10592800220020000300780018ed07000e00e800b0
:105938008040eb00014878000000e8008040eb0060
:10594800014878000000e8008040eb00014878003a
:105958000000e8008040eb00014878000000e80003
:105968008040eb00014878000000e8008040eb0030
:10597800014878000000e8008040eb00014878000a
:105988008e00e800680047000002780033c0b300ca
:1059980022002000a0222100ea0e0700004f780014
:1059a8001e04e000030032001e00fb0060079800a0
:1059b8000c0037000e489000e74f500003003200fb
:1059c80020ff2f0060079800060037000e00e8004f
:1059d800c04090005e009000214098001e00fb002f
:1059e800600798006e0090000080fa000000060032
:1059f8000e00fa005007980070c0b300004f9800de
:105a08005e0090000000e00003003a0010fd2f0047
:105a1800600798005e0037000e00e8008040eb0049
:105a2800014878000000e8008040eb000148780059
:105a38000000e8008040eb00014878000000e80022
:105a48008040eb00014878000000e8008040eb004f
:105a5800014878000000e8008040eb000148780029
:105a68000000e8008040eb00014878008e00e80064
:105a7800680047000002780033c0b300220020000d
:105a880000222100af0e0700004f78001e04e0003e
