:020000040000fa
:080000000002040000000000f2
:020000040000fa
:100400000fa520002e7f24000e01880000000000b0
:100410000c000700c09c2200010020001100070012
:10042000000020000000e000020032000000020096
:1004300000000000e4100200000000000040da00ac
:100440000000fe004440a900e00020000000e000a1
:100450000300320000002000a00188004440a800f2
:100460000000060091018800800078000000eb0089
:1004700015003700e280400032a0b4009101ba00bc
:10048000e280400032a0b4009102ba00e280400055
:1004900032a0b4000002eb00472bde00f507b200eb
:1004a000602ce10004003a000059eb008301e900f0
:1004b000fdff3e00040037006128e100010032002a
:1004c0000082eb00040007001101ba000200e00006
:1004d000e8ff3a00000006003159ba008301e90044
:1004e0000c0032002159ba008301e90008003200f3
:1004f0000400e00003003a00e280400032a0b400b3
:10050000f5ff370011d9ba008301e900faff3a007c
:100510008100e800e180400032a0b4000000060045
:100520000040da000000fe00889fbe008a9fbe00e7
:10053000010578000100e0000400350008003c00df
:100540000000e000200032000500370060001000cd
:10055000e080180002003b0001f02c001a00370078
:100560000004be006011b8006b0920000982cf00b2
:10057000020039000882cf000441b00069425200f5
:100580000e00320008003b008281710061016400ae
:100590008904d1000884d3008b05e8000442e800f8
:1005a000f9ff3a00050037000804440089844c0034
:1005b0008b05e9000442e900fbff3a00f600070062
:1005c0000af0a70001f0a0004f05be004f04be00d6
:1005d00000000600889fbe008a9fbe008c1f780026
:1005e000130107001a01330003866c006450e10018
:1005f0002e0032006420e100330032006150e1003f
:100600002f0032006120e100310032008585550065
:10061000eb07b000090020000804200005003700a7
:100620000804440089844c000a003100060343009a
:1006300087834b000001530081815b00f8ff33008a
:100640000203be000800a0000804440089844c0096
:10065000f6ff3900c639dd00830173000100320066
:10066000130020008904d1000884d3000998a30056
:10067000050032000800a7000300a0008904d10093
:100680000884d3008b05e8008904d1000884d300d6
:100690000001eb000281d200bf00070001f0a100c1
:1006a0000cf0a70001f0a000f20037006420e10088
:1006b000f40032000801be000200be00f7ff370060
:1006c0006120e100ef0032006000b800f3ff370066
:1006d0000000200001f82700f0ff3700889fbe00cf
:1006e0008a9fbe008c1f7800d1000700d80033001d
:1006f00003866c006450e100240032006420e100b5
:10070000270032006150e100220032006120e10048
:10071000210032008b854200eb07b1000134b800a4
:10072000003ab8000804420089844a00013ab8003f
:100730000030b8008880400009014a0004003300fe
:100740000000400081804800020149008b05e9005b
:10075000c909dd0083017000010032001300200090
:10076000c814de004814dd004709de001200b200a4
:10077000c808de00088470008700070001f0a100af
:100780000cf0a70001f0a000ba0037006120e100e2
:10079000bc0032000801be000200be00f7ff3700b7
:1007a0006150e100fcff3a00b600370003f0a20000
:1007b000889fbe008a9fbe008c1f78009c000700a7
:1007c000a30033006450e1004f0032006420e100d8
:1007d0005200320003826c0007003b000905d00084
:1007e0000306d000820f54000c065d0002003900a1
:1007f00002003200890178000306780085825500e6
:1008000004003d000003fd008103fd008502ea00b5
:100810008b854200840f720002003b0060001000d4
:10082000e08018006011b8000005eb007a28e100b4
:100830000a00390006007800c75ddd00f707b20046
:10084000878075002d003700828171000a017800d1
:10085000610560008180d1000080d3008502e9003d
:10086000f9ff3b00060440008784480002003b007b
:1008700060041400e0841c000988a3000700320013
:100880008a81710082817100610164008904d10054
:100890000884d3008b05e800170037000978a3000f
:1008a00013003a000b00e000130034008b05e90050
:1008b0000804440089844c000a4474000978a300a9
:1008c0000d003a000b00e000070034008b05e90042
:1008d0000804440089844c0001003a000b00200009
:1008e0000978a300f7ff32000001eb000200370097
:1008f000828171000a017800270007000cf0a70030
:1009000001f0a0005b0037006420e10002003a0023
:10091000838f6c005b0033000801be000200be0044
:10092000540037000001be00590007000470a70002
:1009300003f0a10003f8a30013003a006509b10019
:1009400010003200090035006928e100020035007e
:1009500001002800000005000000400081804800e0
:100960008502e900fcff3a0000000600f88f420013
:10097000050035008100d1000080d3008502e80029
:10098000fcff3a00000006008000eb0000000500bc
:1009900014002000530037008100200061805500c2
:1009a0000b003d000b00200061fe2f000100e10064
:1009b0001d00340082817100610164008904d1004e
:1009c0000884d3000000e800faff3a00710020001c
:1009d0006100640003007000020060000900320042
:1009e00061044400e0844c000988a5000500320041
:1009f0008b05e8006808e10002003a008904d10094
:100a00000884d300f20f20000258e10005003d00e9
:100a1000c75ddd00f907b200898075000800780025
:100a2000000006000bf827008b007800000005008e
:100a30000004be00160007000003be000405be004f
:100a40000200be0012000700844f7500000006007f
:100a50000200be006450e100050036006420e100a1
:100a6000020036000968a30001003a000800be0039
:100a70000160a0004f0678004f05be004f04be0085
:100a800000000600f0ff2f00f1ff2700f9ff3700fc
:100a9000c70ade00f107b200f50fb200080032000d
:100aa000e1cf4200020032000170a00024000500e6
:100ab000810f7000010032000408050044000500a9
:100ac000810f700002003a00140005008502e90061
:100ad0000000400081c04800fcff3b000170a00006
:100ae00024000500889fbe008a9fbe00841f7800f6
:100af000cfff07004f00780011003300f0ff2f00f8
:100b0000838f6c0006003b00040565000a00a70007
:100b10000800370009f0a600100020000800370088
:100b2000820f5400838f5c00030039001000200006
:100b300001003e000000200009f0a7000000ea00cc
:100b40004f05be004f04be000000e000000006009c
:020000040000fa
:020000040005f5
:0457f8008e430000dc
:020000040000fa
:020000040005f5
:0457fc00783f0000f2
:020000040000fa
:1000080090020000900200009002000090020000a0
:100018009002000090020000900200009002000090
:1000280090020000900200009002000046270000a5
:100038009002000090020000900200009002000070
:100048009002000090020000900200009002000060
:10005800900200008026000090020000900200003c
:1000680090020000ae0a000090020000900200001a
:100078009002000090020000900200009002000030
:100088009002000090020000900200009002000020
:100098009002000090020000900200009002000010
:1000a8009002000090020000900200009002000000
:1000b80090020000900200009002000090020000f0
:1000c80090020000900200009002000090020000e0
:1000d80090020000900200009002000090020000d0
:1000e8009002000090020000760c000090020000d0
:1000f80090020000900200009002000090020000b0
:10010800900200009002000090020000900200009f
:10011800900200009002000090020000900200008f
:10012800900200009002000090020000900200007f
:10013800900200009002000090020000900200006f
:10014800900200009002000090020000900200005f
:10015800900200009002000090020000900200004f
:10016800900200009002000090020000900200003f
:1001780090020000720e0000900200009002000041
:10018800900200009002000090020000900200001f
:10019800900200009002000090020000900200000f
:1001a80090020000900200009002000090020000ff
:1001b80090020000900200009002000090020000ef
:1001c80090020000900200009002000090020000df
:1001d80090020000900200009002000090020000cf
:1001e80090020000900200009002000090020000bf
:0801f8009002000090020000db
:020000040000fa
:10020800900200009002000090020000900200009e
:10021800900200009002000090020000900200008e
:1002280090020000900200009002000046270000a3
:10023800900200009002000090020000900200006e
:10024800900200009002000090020000900200005e
:10025800900200008026000090020000900200003a
:1002680090020000ae0a0000900200009002000018
:10027800900200009002000090020000900200002e
:10028800900200009002000090020000900200001e
:10029800900200009002000090020000900200000e
:1002a80090020000900200009002000090020000fe
:1002b80090020000900200009002000090020000ee
:1002c80090020000900200009002000090020000de
:1002d80090020000900200009002000090020000ce
:1002e8009002000090020000760c000090020000ce
:1002f80090020000900200009002000090020000ae
:10030800900200009002000090020000900200009d
:10031800900200009002000090020000900200008d
:10032800900200009002000090020000900200007d
:10033800900200009002000090020000900200006d
:10034800900200009002000090020000900200005d
:10035800900200009002000090020000900200004d
:10036800900200009002000090020000900200003d
:1003780090020000720e000090020000900200003f
:10038800900200009002000090020000900200001d
:10039800900200009002000090020000900200000d
:1003a80090020000900200009002000090020000fd
:1003b80090020000900200009002000090020000ed
:1003c80090020000900200009002000090020000dd
:1003d80090020000900200009002000090020000cd
:1003e80090020000900200009002000090020000bd
:0803f8009002000090020000d9
:020000040000fa
:100b5000d1010000a8020000020200000f00000006
:0c0b6000f4010000900100003e000000c5
:020000040000fa
:100b6c000800fa00000f780011079800424798001f
:100b7c001e007800300798003e009000e10f5000f6
:100b8c001c0032003e009000e10f500004003900c0
:100b9c003e009000e20f50002b0032003e00370068
:100bac0007e2a9000000eb00d70107009e009000af
:100bbc000000eb00320507004e40900061406000e1
:100bcc00614160007120200091407800e0cfb300bb
:100bdc0000c060000240700007e2b70006c2a90026
:100bec0006e2a9008620a9009620a80007e2a8002a
:100bfc002900370017e2a90010002000c2010700ed
:100c0c009e009000100020001d0507004e40900033
:100c1c0061406000614160007121200091407800ca
:100c2c00e0cfb30000c060000240700017e2b700d4
:100c3c0016c2a90016e2a9008a40a9009a40a80091
:100c4c0017e2a8001400370077e2a900200020006a
:100c5c00ad0107009e009000200020000805070051
:100c6c004e4090006140600061416000712720009f
:100c7c0091407800e0cfb30000c0600002407000eb
:100c8c0077e2b70076c2a90076e2a9008ea0a9008f
:100c9c009ea0a80077e2a8000080fa0000000600e1
:100cac000600fa00000f7800110798001e0078006b
:100cbc00200798002e009000e10f50001900320020
:100ccc002e009000e10f5000040039002e0090001f
:100cdc00e20f500025003200350037001e00900056
:100cec0010407800cce8b7001e0090001040900037
:100cfc00cfe8b70010c0b30044e9b7001e00900065
:100d0c0020409000d2e8b7001e00900020409000d8
:100d1c00d8e8b70010002000504788000602a80051
:100d2c00230037001e00900010407800cde8b7007b
:100d3c001e00900010409000d0e8b70010c0b30027
:100d4c0045e9b7001e00900020409000d3e8b700a2
:100d5c001e00900020409000d9e8b7001000200041
:100d6c00604788001602a800110037001e00900092
:100d7c0010407800cee8b7001e00900010409000a4
:100d8c00d1e8b70010c0b30046e9b7001e009000d0
:100d9c0020409000d4e8b7001e0090002040900046
:100dac00dae8b70010002000704788007602a8002f
:100dbc000080fa00000006000c00fa00000f78001a
:100dcc001e007800500798005e009000e10f500064
:100ddc00280032005e009000e10f50000400390042
:100dec005e009000e20f50004300320063003700b9
:100dfc0006c2bf00614060000004e00017003a002a
:100e0c0006c2bf00624060000004e00013003a001c
:100e1c0006c2bf00644060000004e0000f003a000e
:100e2c0006c2bf00684060000004e0000b003a00fe
:100e3c0006c2bf00704060000004e00007003a00ea
:100e4c0009c2bf000044b2000004e00003003a00f5
:100e5c001000200030079800020037000000eb0063
:100e6c00300798006e4090000080fb00400798000f
:100e7c004400370016c2bf00614060000004e0006f
:100e8c0017003a0016c2bf00624060000004e00088
:100e9c0013003a0016c2bf00644060000004e0007a
:100eac000f003a0016c2bf00684060000004e0006a
:100ebc000b003a0016c2bf00704060000004e00056
:100ecc0007003a0019c2bf000044b2000004e00061
:100edc0003003a00100020002007980002003700a1
:100eec000000eb00200798004e4090000080fb00b3
:100efc00400798002300370076c2bf0061406000b5
:100f0c000004e00017003a0076c2bf0062406000a7
:100f1c000004e00013003a0076c2bf006440600099
:100f2c000004e0000f003a0076c2bf006840600089
:100f3c000004e0000b003a0076c2bf007040600075
:100f4c000004e00007003a0079c2bf000044b20080
:100f5c000004e00003003a00100020001007980085
:100f6c00020037000000eb00100798002e409000a4
:100f7c000080fb0040079800020037000000eb00e7
:100f8c00400798004e0090000080fa000000060018
:100f9c000400fa00000f78009e007800608c20009e
:100fac0000804000104078008000eb001107980092
:100fbc000004e0000200320010002000100798002e
:100fcc001e0090000080fa00000006000600fa00e7
:100fdc0010079800210798000040eb00004f7800a4
:100fec000d0037002e009000a00090001e80fb002a
:100ffc00808140001e0090001e81fb006500b9003e
:10100c0082004000b08d200000804000104078002d
:10101c00804978001e4fe8009e009000808d2000d3
:10102c0000804000104078009e4f5000edff3e00c5
:10103c009e009000608c2000808040000040eb00ff
:10104c00804878000080fa00000006000a00fa00d0
:10105c001007980021079800320798001e01900095
:10106c002e00900090407800c08c200000004100c1
:10107c00014878001e0190002e00900090409000d6
:10108c00f08c200000004100014878009e00900088
:10109c0040942000808040000040eb0080487800a5
:1010ac009e009000508d20008080400020c0b30036
:1010bc00804878001e0190009e009000508d20000a
:1010cc000080400090407800808d2000000041009e
:1010dc00014878000040eb00004f78000d0037000d
:1010ec001e0190009e81fb001e80fb00800078009a
:1010fc003e00900000804000104278006510b9005e
:10110c0083004000b08d200000804000044878002f
:10111c001e4fe8009e009000508d20000080400083
:10112c00104078009e4f5000edff3e001e009000d6
:10113c0080004000a08e2000808040001000200025
:10114c00800878001e009000400798004e00900028
:10115c00e10f5000090032004e009000e10f5000ea
:10116c00040039004e009000e20f500005003200e0
:10117c00050037000602a800030037001602a8007d
:10118c00010037007602a8000080fa00000006007b
:10119c000c00fa00000f78001e0078005007980031
:1011ac005e009000e10f5000200032005e009000c5
:1011bc00e10f5000040039005e009000e20f500077
:1011cc00330032004b00370009c2bf00644060009e
:1011dc000004e0000c003a0008c2bf000044b2005a
:1011ec000004e00008003a0008c2bf0001c8b300c8
:1011fc00014060000004e00003003a00c9c8bf00d1
:10120c000004e000030032001000200030079800ba
:10121c00020037000000eb00300798006e40900091
:10122c000080fb00400798003400370019c2bf0053
:10123c00644060000004e0000c003a0018c2bf00db
:10124c000044b2000004e00008003a0018c2bf00dd
:10125c0001c8b300014060000004e00003003a0044
:10126c00cac8bf000004e0000300320010002000d8
:10127c0020079800020037000000eb0020079800c0
:10128c004e4090000080fb00400798001b00370088
:10129c0079c2bf00644060000004e0000c003a001a
:1012ac0078c2bf000044b2000004e00008003a001d
:1012bc0078c2bf0001c8b300014060000004e00028
:1012cc0003003a00cbc8bf000004e000030032006a
:1012dc001000200010079800020037000000eb00ff
:1012ec00100798002e4090000080fb0040079800eb
:1012fc000200370010002000400798004e009000bc
:10130c000080fa00000006000600fa0010079800a2
:10131c009e009000608c2000808040000040eb001c
:10132c00804878009e009000908c200080804000c7
:10133c000040eb00804878009e009000c08c20009c
:10134c00808040000040eb00804878009e009000b8
:10135c00f08c2000808040000040eb00804878003a
:10136c009e00900040942000808040000040eb00e4
:10137c00804878009e009000208d200080804000e6
:10138c000040eb00804878009e009000508d2000bb
:10139c00808040000040eb00804878009e00900068
:1013ac00808d2000808040000040eb008048780059
:1013bc000040eb00104798000c0037009e00900096
:1013cc001e4090000081fb006508b90082004000bf
:1013dc00b08d2000808040000040eb0080487800f9
:1013ec001e4090000040e800104798001e409000fe
:1013fc00e44f5000f1ff36001e00900080004000ca
:10140c00a08e2000808040000000eb008008780057
:10141c001e009000200798002e009000e10f500055
:10142c000d0032002e009000e10f50000400390036
:10143c002e009000e20f50000d003200110037001a
:10144c000000eb00401088000662a900001080002c
:10145c00004f78000b0037000000eb00c010880034
:10146c001662a90080108000004f7800050037003c
:10147c000000eb00c01388007662a9008013800086
:10148c00004f78000080fa00000006000400fa000b
:10149c00000f78001e007800100798001e009000c6
:1014ac00e10f5000120032001e009000e10f5000be
:1014bc00040039001e009000e20f500017003200ab
:1014cc002100370007e2a9000000eb008eff0700a7
:1014dc000000eb0030108800f00f20001010880086
:1014ec000000eb00201088000000eb00401088008a
:1014fc0017e2a9001000200083ff07000000eb009a
:10150c00b0108800f00f2000901088000000eb0055
:10151c00a01088000000eb00c010880077e2a90042
:10152c002000200078ff07000000eb00b0138800bb
:10153c00f00f2000901388000000eb00a01388002f
:10154c000000eb00c01388000080fa0000000600c9
:10155c003600f800809fbe00829fbe00849fbe00b4
:10156c00869fbe003400f80000002000a001880017
:10157c000400fa008620a900504780006101b800e1
:10158c00028fbe00a0002000010020001e01be0042
:10159c00800f5100818f5900c7003e001e00be0015
:1015ac00006001000a0037000c00370019003700fa
:1015bc002600370044003700600037006700370012
:1015cc0075003700800037009a003700ab003700f9
:1015dc0010c0b300c9e8b700b900370006c2bf009d
:1015ec00614060000004e00007003a00ccc8bf0076
:1015fc000080fb000000400010108800200020003c
:10160c0050478800ae0037000000eb003eff07009b
:10161c00ab00370009c2bf0001c8b3000140600035
:10162c000004e00006003a00cfc8bf000080fb00b9
:10163c00101088003000200050478800a0003700b0
:10164c000000eb0030ff07009d00370009c2bf000f
:10165c0001c8b300014060000004e00017003a002c
:10166c0044c9bf00e14f500004003a000642a800f4
:10167c0050002000504788009100370044c9bf003b
:10168c000004e0008e003a00d8c8bf008080fb0048
:10169c00d5c8bf000080fb0080805000b08d2000ba
:1016ac0000804000104078000080fb001010880083
:1016bc004000200050478800810037000000eb00fc
:1016cc0011ff07007e00370009c2bf0001c8b3003c
:1016dc00014060000004e00015003a00d5c8bf00ce
:1016ec000004e00004003a000642a800a00020001c
:1016fc005047880072003700d8c8bf008080fb00bc
:10170c00d5c8bf000080fb0080805000b08d200049
:10171c0000804000104078000080fb001010880012
:10172c00d5c8bf000040e900d5e8b7006400370019
:10173c000000eb00f4fe07006100370006c2bf009a
:10174c00644060000004e0005d003a000602a8005e
:10175c0060002000504788005900370006c2bf00c7
:10176c00614060000004e00008003a00ccc8bf00f3
:10177c000080fb00000040000000a000101088005a
:10178c0070002000504788004d0037000000eb002f
:10179c00ddfe07004a00370009c2bf0001c8b300d4
:1017ac00014060000004e00004003a000662a8005a
:1017bc008000200050478800410037000000eb00fb
:1017cc00d1fe07003e00370008c2bf006240600037
:1017dc000004e00014003200d2c8bf000040e90051
:1017ec00d2e8b700d2c8bf000081fb000010800017
:1017fc0080407800b08d2000000041000148780046
:10180c00d2c8bf000004e0000200320006a2a9000a
:10181c000100370006a2a8000682a8009000200054
:10182c0050478800260037000000eb00b6fe07008a
:10183c002300370006c2bf00704060000004e000c7
:10184c000b003a00d2c8bf000004e00004003200d4
:10185c000662a8008000200050478800180037005e
:10186c000642a800a0002000504788001400370052
:10187c000000eb00a4fe07001100370006c2bf00f9
:10188c00644060000004e00008003a0044c9bf0056
:10189c00e14f500002003a0010c0b300c6e8b70098
:1018ac000000eb0050478800050037000000eb00fb
:1018bc0095fe07000200370010c0b300c9e8b7005e
:1018cc000080fa003400f9004f03be004f02be0046
:1018dc004f01be004f00be003600f900004006006c
:1018ec003600f800809fbe00829fbe00849fbe0021
:1018fc00869fbe003400f80000002000a001880084
:10190c000400fa008a40a900604780006101b80019
:10191c00028fbe00a0002000010020001e01be00ae
:10192c00800f5100818f5900e1003e001e00be0067
:10193c00006001000a0037000c0037001b00370064
:10194c002a0037004b0037006a003700760037005a
:10195c008600370093003700b0003700c300370013
:10196c0010c0b300cae8b700d300370016c2bf00de
:10197c00614060000004e00007003a00cdc8bf00e1
:10198c000080fb0000004000901088002000200028
:10199c0060478800c8003700100020005afe07007e
:1019ac000000000000000000c300370019c2bf0097
:1019bc0001c8b300014060000004e00006003a00da
:1019cc00d0c8bf000080fb009010880030002000c1
:1019dc0060478800b8003700100020004afe07005e
:1019ec000000000000000000b300370019c2bf0067
:1019fc0001c8b300014060000004e00018003a0088
:101a0c0045c9bf00e14f500004003a001642a8003f
:101a1c005000200060478800a700370045c9bf0070
:101a2c000004e000a4003a00d9c8bf008080fb008d
:101a3c00d6c8bf000080fb0000805000e5004000cd
:101a4c00b08d200000804000104078000080fb002a
:101a5c0090108800400020006047880096003700f6
:101a6c001000200028fe070000000000000000000d
:101a7c009100370019c2bf0001c8b30001406000db
:101a8c000004e00016003a00d6c8bf000004e000d5
:101a9c0004003a001642a800a0002000604788000d
:101aac0085003700d9c8bf008080fb00d6c8bf00b6
:101abc000080fb0000805000e5004000b08d20004d
:101acc0000804000104078000080fb0090108800df
:101adc00d6c8bf000040e900d6e8b7007600370052
:101aec001000200008fe07000000000000000000ad
:101afc007100370016c2bf00644060000004e000b3
:101b0c0004003a001602a80060002000604788001c
:101b1c006900370010002000fbfd070000000000ea
:101b2c00000000006400370016c2bf006140600076
:101b3c000004e00008003a00cdc8bf000080fb00a4
:101b4c00000040000000a0009010880070002000f1
:101b5c00604788005800370010002000eafd07009d
:101b6c0000000000000000005300370019c2bf0045
:101b7c0001c8b300014060000004e00004003a001a
:101b8c001662a80080002000604788004a003700d9
:101b9c0010002000dcfd0700000000000000000029
:101bac004500370018c2bf00624060000004e0002e
:101bbc0015003200d3c8bf000040e900d3e8b700dd
:101bcc00d3c8bf008080fb008010800000417800eb
:101bdc00e5804000b08d2000008040000248780075
:101bec00d3c8bf000004e0000200320016a2a90016
:101bfc000100370016a2a8001682a8009000200051
:101c0c00604788002c00370010002000befd070044
:101c1c0000000000000000002700370016c2bf00c3
:101c2c00704060000004e0000b003a00d3c8bf0015
:101c3c000004e000040032001662a80080002000be
:101c4c00604788001c0037001642a800a000200046
:101c5c00604788001800370010002000aafd07001c
:101c6c0000000000000000001300370016c2bf0087
:101c7c00644060000004e00008003a0045c9bf0061
:101c8c00e14f500002003a0010c0b300c7e8b700a3
:101c9c000000eb00604788000700370010002000b0
:101cac0099fd070000000000000000000200370052
:101cbc0010c0b300cae8b7000080fa003400f90085
:101ccc004f03be004f02be004f01be004f00be00ce
:101cdc003600f900004006003600f800809fbe0078
:101cec00829fbe00849fbe00869fbe003400f80019
:101cfc0000002000a00188000400fa008ea0a900ba
:101d0c00704780006101b800028fbe00a000200067
:101d1c00010020001e01be00800f5100818f590070
:101d2c00cd003e001e00be00006001000a0037001e
:101d3c000c0037001900370026003700450037002b
:101d4c00620037006c0037007a00370085003700de
:101d5c00a0003700b100370010c0b300cbe8b700cb
:101d6c00bf00370076c2bf00614060000004e00095
:101d7c0007003a00cec8bf000080fb000000400006
:101d8c00901388002000200070478800b4003700b2
:101d9c000000eb005cfd0700b100370079c2bf000a
:101dac0001c8b300014060000004e00006003a00e6
:101dbc00d1c8bf000080fb009013880030002000c9
:101dcc0070478800a60037000000eb004efd0700ae
:101ddc00a300370079c2bf0001c8b3000140600006
:101dec000004e00018003a0046c9bf00e14f500063
:101dfc0004003a007642a80050002000704788008a
:101e0c009700370046c9bf000004e00094003a0078
:101e1c00dac8bf008080fb00d7c8bf000080fb0081
:101e2c0000805000ea004000b08d2000008040008f
:101e3c00104078000080fb009013880040002000c8
:101e4c0070478800860037000000eb002efd07006d
:101e5c008300370079c2bf0001c8b30001406000a5
:101e6c000004e00016003a00d7c8bf000004e000f0
:101e7c0004003a007642a800a000200070478800b9
:101e8c0077003700dac8bf008080fb00d7c8bf00de
:101e9c000080fb0000805000ea004000b08d200064
:101eac0000804000104078000080fb0090138800f8
:101ebc00d7c8bf000040e900d7e8b700680037007a
:101ecc000000eb0010fd07006500370076c2bf0074
:101edc00644060000004e00004003a007602a800b0
:101eec0060002000704788005d0037000000eb00a8
:101efc0005fd07005a00370076c2bf006140600044
:101f0c000004e00008003a00cec8bf000080fb00cf
:101f1c00000040000000a00090138800700020001a
:101f2c00704788004e0037000000eb00f6fc0700fd
:101f3c004b00370079c2bf0001c8b30001406000fc
:101f4c000004e00004003a007662a8008000200043
:101f5c0070478800420037000000eb00eafc0700e5
:101f6c003f00370078c2bf00624060000004e00010
:101f7c0015003200d4c8bf000040e900d4e8b70017
:101f8c00d4c8bf008080fb00801380000041780023
:101f9c00ea804000b08d20000080400002487800ac
:101fac00d4c8bf000004e0000200320076a2a900f1
:101fbc000100370076a2a8007682a80090002000cd
:101fcc0070478800260037000000eb00cefc0700ad
:101fdc002300370076c2bf00704060000004e000b0
:101fec000b003a00d4c8bf000004e000040032002b
:101ffc007662a80080002000704788001800370027
:10200c007642a800a000200070478800140037001a
:10201c000000eb00bcfc07001100370076c2bf00cb
:10202c00644060000004e00008003a0046c9bf00ac
:10203c00e14f500002003a0010c0b300c8e8b700ee
:10204c000000eb0070478800050037000000eb0033
:10205c00adfc07000200370010c0b300cbe8b7009e
:10206c000080fa003400f9004f03be004f02be009e
:10207c004f01be004f00be003600f90000400600c4
:10208c000c00fa00000f7800110798001e00780071
:10209c00200798002e009000e10f50001c00320029
:1020ac002e009000e10f5000040039002e0090002b
:1020bc00e20f50002b0032003e0037001e00900053
:1020cc00300798003e009000e10f50000a003200eb
:1020dc003e009000e10f5000040039003e009000db
:1020ec00e20f50000700320032003700d009200008
:1020fc00201088002f00370050022000201088008c
:10210c002c003700d0002000201088002900370058
:10211c001e009000400798004e009000e10f500008
:10212c000a0032004e009000e10f5000040039000c
:10213c004e009000e20f5000070032001d003700e7
:10214c00d0092000a01088001a003700500220008f
:10215c00a010880017003700d0002000a0108800c5
:10216c00140037001e009000500798005e0090008d
:10217c00e10f50000a0032005e009000e10f5000a9
:10218c00040039005e009000e20f5000070032009e
:10219c0008003700d0092000a01388000500370084
:1021ac0050022000a013880002003700d00020004d
:1021bc00a01388000080fa00000006000000fa005e
:1021cc00ff00070001000700feff37000200fa00c5
:1021dc00cc090700390307000080fb000000e00079
:1021ec0001003a004003070040c0b3007a0b07001f
:1021fc000080fb000000e000180032000271220099
:10220c000300200040c0b3005c0b0700e0498000d5
:10221c00d007b000e0498800e149800080bb200075
:10222c00808f50000200360080bb2000e0498800ff
:10223c0010002000d6fb07000080fb000000e0002f
:10224c0002003200100020002ffc0700e249800041
:10225c004107240000f42100ed00070090498000a4
:10226c00000f78001e007800e40f5000540032007c
:10227c001e007800e40f50000a003e001e0078009b
:10228c00e10f5000270032001e007800e10f5000d3
:10229c000e0039001e007800e30f500031003200b0
:1022ac00ba0037001e007800e60f5000960032008e
:1022bc001e007800e60f5000620039001e00780006
:1022cc00e70f5000af003200b0003700fb020700f0
:1022dc000080fb000000e0000d0032004d01070003
:1022ec000080fb000000e000090032008025200087
:1022fc00e0498800822520004107240000f42100d9
:10230c00c30007001000200090498800aa00370085
:10231c0030002000930907007000200090498800cd
:10232c00a5003700a00107000080fb000000e000c2
:10233c00a1003200d30207000080fb000000e00087
:10234c009d0032001000200086090700ec62a800f6
:10235c00400620006a0b07003000200090498800de
:10236c0095003700a60107000080fb000000e0008c
:10237c000b00320080bb2000e0498800e24980005d
:10238c004107240000f42100a100070020032000d5
:10239c005b0b070040002000904988008600370046
:1023ac002f0107000080fb000000e00082003200db
:1023bc000000000000000000cb0207007e00370088
:1023cc00010207000080fb000000e0000900320061
:1023dc00f4e2a900f4c2a900420620000300200088
:1023ec0070c0b300e50a0700500020009049880037
:1023fc0071003700510207000080fb000000e00074
:10240c0008003200ec62a900803e20003c0b070063
:10241c00200020005309070060002000904988002c
:10242c00650037000e0107000080fb000000e00093
:10243c00610032000000000000000000aa0207004a
:10244c005d003700000000000000000070c0b30009
:10245c00e10a07000080fb000000e000560032009b
:10246c0070c0b300f709070080007800702d84005d
:10247c00808f50001b00310040c0b300f1090700f1
:10248c0080007800702d8400808f50001500310082
:10249c00e149800030f82f0000804000e0498800be
:1024ac00e149800070252000808f500002003e0022
:1024bc0080252000e0498800e24980004107240083
:1024cc0000f4210052000700f4e2a800f4c2a800b6
:1024dc00200320000a0b07004000200090498800d0
:1024ec0035003700f4e2a900f4c2a900cdc2a9005e
:1024fc00ec62a900300020001a09070070002000cf
:10250c00904988002c003700270107000080fb0051
:10251c000000e00003003a00000000000000000092
:10252c007102070060c0b300c60907008000780084
:10253c00502d8400808f50001f00310050c0b3001c
:10254c00c009070080007800502d8400808f500057
:10255c001900310080252000e0498800ec62a800b9
:10256c00e24980004107240000f421002800070004
:10257c0010002000fb080700400020009049880054
:10258c000d003700000000000b0037002000200079
:10259c00f4080700db080700803e2000d80a07007b
:1025ac0010002000ef080700d6080700803e20002e
:1025bc00d30a0700f5ff37000080fa000000060080
:1025cc000000fa0078000700800f2200860907003f
:1025dc0012c0b3008000eb001000200060f907006f
:1025ec00390a0700b8080700027122000300200016
:1025fc0040c0b300610a070020032000c00a070096
:10260c000000eb00d70807000080fa00000006006d
:10261c000e00fa00400798005107980062079800d6
:10262c000000eb0020079800e60047000000eb00dc
:10263c008008780000f821001007980000ff2700a0
:10264c00000f780010002000d1fa07000080fb007a
:10265c000000e0000400320012c0b3008000eb0068
:10266c00100020003ef907004e0090008000d100c1
:10267c001e00900000806000200798002e00900043
:10268c004800de0080407800660047000148780072
:10269c002e009000804078006600470011409800a2
:1026ac00f0c3b3002de9b70010002000c2f90700f9
:1026bc000080fb000000e0000400320066014700cf
:1026cc00c19220001000200060fa0700500020008a
:1026dc008b0a07005e0090001e0060002007980027
:1026ec002e0090004800de00804078006600470015
:1026fc00014878002e00900080407800660047006a
:10270c001140980050c1b3002de9b7001000200013
:10271c00a9f907000080fb000000e0000400320073
:10272c0066014700c19220001000200047fa070004
:10273c0050002000720a0700ee0090001e0090006e
:10274c0000806000200798002e0090004800de00fa
:10275c008040780066004700014878006e009000c9
:10276c0080407800660047001140980040c1b300db
:10277c002de9b700100020008ff907000080fb0046
:10278c000000e0000400320066014700c192200006
:10279c00100020002dfa070050002000580a0700f6
:1027ac000080fa00000006000000fa00c9e2a80050
:1027bc006019800001002800010070006019880079
:1027cc00c9c2a90000000000cdc2a800f0e2a90017
:1027dc0000000000f4e2a800f0c2a9000000000014
:1027ec00f4c2a800e862a90000000000ec62a90095
:1027fc00e082a900e682a800e482a90000000000a3
:10280c0000000000500020003d0a07000080fa0084
:10281c00000006000400fa00d0c0b300090907004c
:10282c00000f7800902d84009e0f500006003100a0
:10283c00802d84009e0f100003003100100020003a
:10284c0010079800020037000000eb0010079800fa
:10285c002e4090000080fb000080fa000000060073
:10286c000c00fa00881f780070c0b300f508070050
:10287c00000478006140b90028f707004007980071
:10288c00510798000800e00007003d0002002000fe
:10289c00037824004e009000de009000c1f7070082
:1028ac004007980051079800d4cc2c00c5f42300a5
:1028bc004e019000de0190000040eb00830a0700ff
:1028cc0015f80700a049880040c0b300dd080700d8
:1028dc00000478006140b90010f707002007980049
:1028ec00310798000800e00007003d0002002000be
:1028fc00037824002e009000be009000a9f707007a
:10290c002007980031079800d4cc2c00c5f4230084
:10291c002e019000be01900020c0b3006b0a07008e
:10292c00fdf70700b0498800004a80000000e8006d
:10293c00004a8800014a8000803e2000808f5000b1
:10294c00130036000000eb00004a8800a14980000b
:10295c00702d8400808f500007003100a149800049
:10296c00702d8400808f5000030031001000200077
:10297c00000f7800020037000000eb00000f780019
:10298c001e4078000080fb00100798000200370002
:10299c000000eb00100798001e0090004f04780018
:1029ac000080fa00000006000200fa0060c0b300cc
:1029bc00a408070080007800702d8400808f5000e0
:1029cc000900360050c0b3009e0807008000780054
:1029dc00702d8400808f5000030036001000200002
:1029ec00000f7800020037000000eb00000f7800a9
:1029fc001e4078000080fb000080fa0000000600fa
:102a0c001600fa00881f7800682d84006140b90018
:102a1c00c2f60700000f9800110f98000800e000a4
:102a2c0007003d0002002000037824000e089000ef
:102a3c009e0890005bf70700000f9800110f98009c
:102a4c0060c0b3007f080700000478006140b90043
:102a5c00b2f6070060079800710798000800e000c4
:102a6c0007003d0002002000037824006e00900057
:102a7c00fe0090004bf70700600798007107980064
:102a8c00d4cc2c00c5f423006e019000fe01900004
:102a9c0010c0b3000d0a07000001be000040eb009f
:102aac00204f98000e0890009e089000b5f7070084
:102abc000000e000010035000200370010c0b30038
:102acc00204f98002e4890000004a2000004e00063
:102adc0036003a00682d84006140b9008ff607007b
:102aec0030079800410798000800e00007003d00ff
:102afc0002002000037824003e009000ce009000dd
:102b0c0028f70700300798004107980050c0b30021
:102b1c004c080700000478006140b9007ff60700fc
:102b2c0010079800210798000800e00007003d00fe
:102b3c0002002000037824001e009000ae009000dc
:102b4c0018f707001007980021079800d4cc2c0028
:102b5c00c5f423001e019000ae01900030c0b300fc
:102b6c00da0907000001be000040eb00004f7800be
:102b7c003e009000ce00900082f707000000e000bd
:102b8c00010035000200370010c0b300004f780080
:102b9c001e4078000004a2000004e00003003a008c
:102bac0010002000200f9800020037000000eb00fe
:102bbc00200f98004e5090000080fb004f047800ce
:102bcc000080fa00000006001200fa00881f78004e
:102bdc00482d84006140b90050f60700600798004a
:102bec00710798000800e00007003d00020020007b
:102bfc00037824006e009000fe009000e9f60700b8
:102c0c00600798007107980070c0b3000d080700aa
:102c1c00000478006140b90040f6070040079800b6
:102c2c00510798000800e00007003d00020020005a
:102c3c00037824004e009000de009000d9f60700c7
:102c4c004007980051079800d4cc2c00c5f4230001
:102c5c004e019000de0190000040eb009b09070044
:102c6c000001be006e009000fe00900045f70700ca
:102c7c000000e00027003500482d84006140b900b9
:102c8c0026f6070020079800310798000800e0009e
:102c9c0007003d0002002000037824002e00900065
:102cac00be009000bff6070020079800310798007f
:102cbc0040c0b300e3070700000478006140b9008e
:102ccc0016f60700008fbe000800e00005003d006e
:102cdc0002002000037824001e00be00b1f607009d
:102cec00008fbe00d4cc2c00c5f423001e01be0006
:102cfc0020c0b300750907000001be002e00900033
:102d0c00be0090001ff707000000e0000100350036
:102d1c000300370010002000000f9800020037005d
:102d2c000000eb00000f98000e5090000080fb009c
:102d3c004f0478000080fa00000006000c00fa0036
:102d4c00881f780070c0b300be070700000478002d
:102d5c006140b900f1f50700400798005107980051
:102d6c000800e00007003d0002002000037824006a
:102d7c004e009000de0090008af607004007980095
:102d8c0051079800d4cc2c00c5f423004e019000c0
:102d9c00de0190000040eb004c090700def6070056
:102dac00c049880040c0b300a607070000047800a3
:102dbc006140b900d9f50700200798003107980049
:102dcc000800e00007003d0002002000037824000a
:102ddc002e009000be00900072f6070020079800ad
:102dec0031079800d4cc2c00c5f423002e019000a0
:102dfc00be01900020c0b30034090700c6f60700de
:102e0c00d0498800104a80000000e800104a880071
:102e1c00114a8000803e2000808f50001300360045
:102e2c000000eb00104a8800c1498000a02d8400ee
:102e3c00808f500007003100d1498000a02d840004
:102e4c00808f50000300310010002000000f78002c
:102e5c00020037000000eb00000f78001e407800e5
:102e6c000080fb0010079800020037000000eb0008
:102e7c00100798001e0090004f0478000080fa00a4
:102e8c00000006000200fa0030c0b3006d07070016
:102e9c0080007800702d84000001eb00020f780098
:102eac00808f50000200310010002000000f7800cd
:102ebc001e0078000080fa00000006000200fa00f4
:102ecc00cbc2bf008000eb00010f78000004e000d3
:102edc0002003d0010002000000f78001e0078005a
:102eec000080fa00000006000000fa00d706070078
:102efc00cdc2a900f4e2a900f4c2a900ec62a900b9
:102f0c00e482a80000000000000000000000fe00a9
:102f1c000080fa00000006000e00fa00004f780056
:102f2c0011479800224798002c0307001e40900080
:102f3c000080fb00200798002e0090000000e000ad
:102f4c0004003200ae009000e18f500056013200b8
:102f5c001f0337001e80fb006101b9003207980087
:102f6c0043079800d0012000010020003e01900092
:102f7c00ce019000800f5100818f590014033e0048
:102f8c003e009000ce009000006001001d00370054
:102f9c0027003700310037003b0037004500370071
:102fac000b0337004e003700580037006200370023
:102fbc006c00370076003700800037008a0037003d
:102fcc00940037009e0037000103370000033700e0
:102fdc00a6003700b0003700ba003700c400370035
:102fec00ce003700d8003700e2003700ec00370085
:102ffc00f6003700000137000a01370014013700d2
:10300c001e0137002e409000f043b200f1c3b30014
:10301c0001416000016c20009140780000ccb300ad
:10302c0000c0600002407000c0e6b700e802370044
:10303c002e409000f043b200f3c3b3000341600094
:10304c00116c20009140780000ccb30000c06000ef
:10305c0002407000c1e6b700dd0237002e40900040
:10306c00f043b200f1c3b30001416000216c2000b9
:10307c009140780000ccb30000c0600002407000aa
:10308c00c2e6b700d20237002e409000f043b200e7
:10309c00f3c3b30003416000316c20009140780011
:1030ac0000ccb30000c0600002407000c3e6b70063
:1030bc00c70237002e409000f043b200f1c3b300ba
:1030cc0001416000416c20009140780000ccb300bd
:1030dc0000c0600002407000c4e6b700bc023700bc
:1030ec002e409000f043b200f3c3b30003416000e4
:1030fc00616c20009140780000ccb30000c06000ef
:10310c0002407000c6e6b700b10237002e409000b6
:10311c00f043b200f1c3b30001416000716c2000b8
:10312c009140780000ccb30000c0600002407000f9
:10313c00c7e6b700a60237002e409000f043b2005d
:10314c00f3c3b30003416000816c20009140780010
:10315c0000ccb30000c0600002407000c8e6b700ad
:10316c009b0237002e409000f043b200f1c3b30035
:10317c0001416000916c20009140780000ccb300bc
:10318c0000c0600002407000c9e6b7009002370032
:10319c002e409000f043b200f3c3b3000341600033
:1031ac00a16c20009140780000ccb30000c06000fe
:1031bc0002407000cae6b700850237002e4090002e
:1031cc00f043b200f1c3b30001416000b16c2000c8
:1031dc009140780000ccb30000c060000240700049
:1031ec00cbe6b7007a0237002e409000f043b200d5
:1031fc00f3c3b30003416000c16c20009140780020
:10320c0000ccb30000c0600002407000cce6b700f8
:10321c006f0237002e409000f043b200f1c3b300b0
:10322c0001416000d16c20009140780000ccb300cb
:10323c0000c0600002407000cde6b70064023700a9
:10324c002e409000f043b200f3c3b3000341600082
:10325c00e16c20009140780000ccb30000c060000d
:10326c0002407000cee6b700590237002e409000a5
:10327c00f043b200f1c3b30001416000116d2000b6
:10328c009140780000ccb30000c060000240700098
:10329c00d1e6b7004e0237002e409000f043b2004a
:1032ac00f3c3b30003416000216d2000914078000e
:1032bc0000ccb30000c0600002407000d2e6b70042
:1032cc00430237002e409000f043b200f1c3b3002c
:1032dc0001416000316d20009140780000ccb300ba
:1032ec0000c0600002407000d3e6b700380237001f
:1032fc002e409000f043b200f3c3b30003416000d2
:10330c00416d20009140780000ccb30000c06000fb
:10331c0002407000d4e6b7002d0237002e4090001a
:10332c00f043b200f1c3b30001416000516d2000c5
:10333c009140780000ccb30000c0600002407000e7
:10334c00d5e6b700220237002e409000f043b200c1
:10335c00f3c3b30003416000616d2000914078001d
:10336c0000ccb30000c0600002407000d6e6b7008d
:10337c00170237002e409000f043b200f1c3b300a7
:10338c0001416000716d20009140780000ccb300c9
:10339c0000c0600002407000d7e6b7000c02370096
:1033ac002e409000f043b200f3c3b3000341600021
:1033bc00816d20009140780000ccb30000c060000b
:1033cc0002407000d8e6b700010237002e40900092
:1033dc00f043b200f1c3b30001416000916d2000d5
:1033ec009140780000ccb30000c060000240700037
:1033fc00d9e6b700f60137002e409000f043b2003a
:10340c00f3c3b30003416000a16d2000914078002c
:10341c0000ccb30000c0600002407000dae6b700d8
:10342c00eb0137002e409000f043b200f1c3b30023
:10343c0001416000b16d20009140780000ccb300d8
:10344c0000c0600002407000dbe6b700e00137000e
:10345c002e409000f043b200f3c3b3000341600070
:10346c00c16d20009140780000ccb30000c060001a
:10347c0002407000dce6b700d50137002e4090000a
:10348c00f043b200f1c3b30001416000d16d2000e4
:10349c009140780000ccb30000c060000240700086
:1034ac00dde6b700ca0137002e4090000080fb001b
:1034bc006101b90052079800630798004002200090
:1034cc00010020005e019000ee019000800f510081
:1034dc00818f5900be013e005e009000ee0090000e
:1034ec0000600100240037002e0037003800370040
:1034fc00420037004c0037005600370060003700a0
:10350c006a003700740037007e00370088003700ef
:10351c00920037009c003700a6003700b00037003f
:10352c00ba003700c4003700ce003700d80037008f
:10353c00e2003700ec003700f600370000013700de
:10354c000a013700140137001e013700280137002b
:10355c00320137003c01370046013700500137007b
:10356c005a013700640137006e01370078013700cb
:10357c00820137008c013700f1c3b3001ec060001c
:10358c00f3c3b30003416000416a2000914078000e
:10359c0000ccb30000c0600002407000a4e6b7008d
:1035ac008b013700f1c3b3001ec06000f3c3b3003e
:1035bc0003416000216820009140780000ccb300ea
:1035cc0000c060000240700082e6b7008001370046
:1035dc00f1c3b3001ec06000f3c3b300034160002d
:1035ec00316820009140780000ccb30000c060002e
:1035fc000240700083e6b70075013700f1c3b300d9
:10360c001ec06000f3c3b30003416000416820009a
:10361c009140780000ccb30000c060000240700004
:10362c0084e6b7006a013700f1c3b3001ec0600026
:10363c00f3c3b30003416000e168200091407800bf
:10364c0000ccb30000c06000024070008ee6b700f2
:10365c005f013700f1c3b3001ec06000f3c3b300b9
:10366c0003416000f16820009140780000ccb30069
:10367c0000c06000024070008fe6b70054013700b4
:10368c00f1c3b3001ec06000f3c3b300034160007c
:10369c00016920009140780000ccb30000c06000ac
:1036ac000240700090e6b70049013700f1c3b30047
:1036bc001ec06000f3c3b300034160001169200019
:1036cc009140780000ccb30000c060000240700054
:1036dc0091e6b7003e013700f1c3b3001ec0600095
:1036ec00f3c3b300034160002169200091407800ce
:1036fc0000ccb30000c060000240700092e6b7003e
:10370c0033013700f1c3b3001ec06000f3c3b30034
:10371c0003416000316920009140780000ccb30077
:10372c0000c060000240700093e6b700280137002b
:10373c00f1c3b3001ec06000f3c3b30003416000cb
:10374c00416920009140780000ccb30000c06000bb
:10375c000240700094e6b7001d013700f1c3b300be
:10376c001ec06000f3c3b300034160005169200028
:10377c009140780000ccb30000c0600002407000a3
:10378c0095e6b70012013700f1c3b3001ec060000c
:10379c00f3c3b30003416000f1692000914078004d
:1037ac0000ccb30000c06000024070009fe6b70080
:1037bc0007013700f1c3b3001ec06000f3c3b300b0
:1037cc0003416000616920009140780000ccb30097
:1037dc0000c060000240700096e6b700fc003700a5
:1037ec00f1c3b3001ec06000f3c3b300034160001b
:1037fc00716920009140780000ccb30000c06000db
:10380c000240700097e6b700f1003700f1c3b30037
:10381c001ec06000f3c3b30003416000916a200036
:10382c009140780000ccb30000c0600002407000f2
:10383c00a9e6b700e6003700f1c3b3001ec0600074
:10384c00f3c3b30003416000816a2000914078000b
:10385c0000ccb30000c0600002407000a8e6b700c6
:10386c00db003700f1c3b3001ec06000f3c3b3002c
:10387c0003416000a16a20009140780000ccb300a5
:10388c0000c0600002407000aae6b700d00037000c
:10389c00f1c3b3001ec06000f3c3b300034160006a
:1038ac00d16a20009140780000ccb30000c06000c9
:1038bc0002407000ade6b700c5003700f1c3b3009d
:1038cc001ec06000f3c3b30003416000c16a200056
:1038dc009140780000ccb30000c060000240700042
:1038ec00ace6b700ba003700f1c3b3001ec06000ed
:1038fc00f3c3b30003416000e16a200091407800fb
:10390c0000ccb30000c0600002407000aee6b7000f
:10391c00af003700f1c3b3001ec06000f3c3b300a7
:10392c0003416000916b20009140780000ccb30003
:10393c0000c0600002407000b9e6b700a400370078
:10394c00f1c3b3001ec06000f3c3b30003416000b9
:10395c00816b20009140780000ccb30000c0600067
:10396c0002407000b8e6b70099003700f1c3b3000d
:10397c001ec06000f3c3b30003416000a16b2000c4
:10398c009140780000ccb30000c060000240700091
:10399c00bae6b7008e003700f1c3b3001ec060005a
:1039ac00f3c3b300034160005168200091407800dc
:1039bc0000ccb30000c060000240700085e6b70088
:1039cc0083003700f1c3b3001ec06000f3c3b30023
:1039dc0003416000616820009140780000ccb30086
:1039ec0000c060000240700086e6b7007800370027
:1039fc00f1c3b3001ec06000f3c3b3000341600009
:103a0c00716820009140780000ccb30000c06000c9
:103a1c000240700087e6b7006d003700f1c3b300b9
:103a2c001ec06000f3c3b300034160008168200036
:103a3c009140780000ccb30000c0600002407000e0
:103a4c0088e6b70062003700f1c3b3001ec0600007
:103a5c00f3c3b300034160009168200091407800eb
:103a6c0000ccb30000c060000240700089e6b700d3
:103a7c0057003700f1c3b3001ec06000f3c3b3009e
:103a8c0003416000516a20009140780000ccb300e3
:103a9c0000c0600002407000a5e6b7004c00370083
:103aac00f1c3b3001ec06000f3c3b3000341600058
:103abc00416a20009140780000ccb30000c0600047
:103acc0002407000a4e6b70041003700f1c3b30018
:103adc001ec06000f3c3b30003416000716a200094
:103aec009140780000ccb30000c060000240700030
:103afc00a7e6b70036003700f1c3b3001ec0600064
:103b0c00f3c3b30003416000616a20009140780068
:103b1c0000ccb30000c0600002407000a6e6b70005
:103b2c002b003700f1c3b3001ec06000f3c3b30019
:103b3c0003416000b16a20009140780000ccb300d2
:103b4c0000c0600002407000abe6b70020003700f8
:103b5c00f1c3b3001ec06000f3c3b30003416000a7
:103b6c00316a20009140780000ccb30000c06000a6
:103b7c0002407000a3e6b70015003700f1c3b30094
:103b8c001ec06000f3c3b30003416000716b2000e2
:103b9c009140780000ccb30000c06000024070007f
:103bac00b7e6b7000a003700f1c3b3001ec06000cf
:103bbc00f3c3b30003416000616b200091407800b7
:103bcc0000ccb30000c0600002407000b6e6b70045
:103bdc000e0007000080fa00000006000000fa004a
:103bec00113a8000f00b200000816000610420007d
:103bfc0070052000237420008149780080497800ea
:103c0c00824978000080fa00000006000000fa00eb
:103c1c00113a800000042000008170006104200033
:103c2c0070052000237420008149780080497800b9
:103c3c00824978000080fa00000006000800fa00b3
:103c4c00000f780021479800220798009e0078000a
:103c5c000091200000804000ae40900001487800a8
:103c6c00111120009140780000c8b30000c0600022
:103c7c000004e00001003a00080307001e00780071
:103c8c0030079800be009000e48f500039003200dd
:103c9c003e009000e40f50000d003e00be0090006e
:103cac00e18f50001e0032003e009000e10f5000ea
:103cbc0014003900be009000e28f50001f0032004b
:103ccc003e009000e30f5000230032004b00370001
:103cdc00be009000e68f5000340032003e00900091
:103cec00e60f50002a003900be009000e78f50000c
:103cfc00350032003e009000e80f500039003200d1
:103d0c003e00370022c1b3008040eb002e409000f3
:103d1c0081fc07002e009000ed01070037003700f2
:103d2c0032c1b3008040eb002e4090007afc0700bb
:103d3c002e009000010207003000370042c1b30092
:103d4c008040eb002e40900073fc07002e0090008a
:103d5c00150207002900370052c1b3008040eb0068
:103d6c002e4090006cfc07002e00900029020700ea
:103d7c002200370062c1b3008040eb002e4090005f
:103d8c0065fc07002e0090003d0207001b00370069
:103d9c0072c1b3008040eb002e4090005efc070027
:103dac002e009000510207001400370082c1b300ae
:103dbc008040eb002e40900057fc07002e00900036
:103dcc00650207000d00370092c1b3008040eb0084
:103ddc002e40900050fc07002e0090007902070046
:103dec000600370032c2b3008040eb002e4090003a
:103dfc0049fc07002e0090008d0207000080fa009d
:103e0c00000006002c00fa00881f7800000f7800d4
:103e1c0012079800230798001e007800501798008e
:103e2c005e109000e40f5000850032005e10900090
:103e3c00e40f50000d003e005e109000e10f5000aa
:103e4c00310032005e109000e10f50001400390078
:103e5c005e109000e20f5000450032005e109000a2
:103e6c00e30f50005c003200f60037005e1090004b
:103e7c00e60f5000a60032005e109000e60f5000d6
:103e8c00890039005e109000e70f5000ba00320034
:103e9c005e109000e80f5000d1003200e9003700ae
:103eac001e00780080004000a0912000008040009f
:103ebc00100478006140b90098f1070030179800a1
:103ecc00411798000800e00007003d0002002000a8
:103edc00037824003e109000ce10900031f20700c1
:103eec0030179800411798001e019000ae01900009
:103efc003e109000ce109000f5f1070086f20700fe
:103f0c00b00c8800cf0037001e0078008000400005
:103f1c00a091200000804000100478006140b9009e
:103f2c007ef1070010179800211798000800e00098
:103f3c0007003d0002002000037824001e109000b2
:103f4c00ae10900017f20700101798002117980078
:103f5c001e019000ae0190001e109000ae1090005b
:103f6c00dbf107006cf20700000d8800b50037008c
:103f7c001e00780080004000a091200000804000ce
:103f8c00100478006140b90064f10700700f9800cc
:103f9c00011798000800e00007003d000200200017
:103fac00037824007e0890008e109000fdf107002d
:103fbc00700f9800011798001e019000ae01900040
:103fcc007e0890008e109000c1f1070052f207009d
:103fdc00500d88009b0037001e00780080004000c8
:103fec00a091200000804000100478006140b900ce
:103ffc004af10700500f9800610f98000800e0008c
:10400c0007003d0002002000037824005e089000a9
:10401c00ee089000e3f10700500f9800610f980034
:10402c001e019000ae0190005e089000ee0890001a
:10403c00a7f1070038f20700a00d880081003700b7
:10404c001e00780080004000a091200000804000fd
:10405c00100478006140b90030f10700300f98006f
:10406c00410f98000800e00007003d00020020000e
:10407c00037824003e089000ce089000c9f1070098
:10408c00300f9800410f98001e019000ae01900077
:10409c003e089000ce0890008df107001ef207003c
:1040ac00f00d8800670037001e007800800040008b
:1040bc00a091200000804000100478006140b900fd
:1040cc0016f10700100f9800210f98000800e0006f
:1040dc0007003d0002002000037824001e08900019
:1040ec00ae089000aff10700100f9800210f980058
:1040fc001e019000ae0190001e089000ae089000ca
:10410c0073f1070004f20700400e88004d003700e1
:10411c001e00780080004000a0912000008040002c
:10412c00100478006140b900fcf00700700798009b
:10413c00010f98000800e00007003d00020020007d
:10414c00037824007e0090008e08900095f1070003
:10415c0070079800010f98001e019000ae019000ae
:10416c007e0090008e08900059f10700eaf10700dc
:10417c00900e8800330037001e007800800040004d
:10418c00a091200000804000100478006140b9002c
:10419c00e2f0070050079800610798000800e00063
:1041ac0007003d0002002000037824005e00900010
:1041bc00ee0090007bf10700500798006107980013
:1041cc001e019000ae0190005e009000ee00900089
:1041dc003ff10700d0f10700e00e8800190037000e
:1041ec001e00780080004000a0912000008040005c
:1041fc00100478006140b900c8f00700300798003f
:10420c00410798000800e00007003d000200200074
:10421c00037824003e009000ce00900061f107006e
:10422c0030079800410798001e019000ae019000e5
:10423c003e009000ce00900025f10700b6f107007b
:10424c00300f88004f0478000080fa000000060050
:10425c000800fa00200798002e0090003007980004
:10426c003e009000e40f5000410032003e009000f0
:10427c00e40f50000d003e003e009000e10f500096
:10428c00200032003e009000e10f50001400390075
:10429c003e009000e20f5000230032003e009000e0
:1042ac00e30f5000290032005d0037003e00900003
:1042bc00e60f5000400032003e009000e60f500028
:1042cc00340039003e009000e70f500043003200ec
:1042dc003e009000e80f50004900320050003700bb
:1042ec000000eb00800c8800c0002000900c8800bf
:1042fc000000eb00a00c88000000eb00b00c880064
:10430c00470037000000eb00d00c8800c0002000f4
:10431c00e00c88000000eb00f00c88000000eb00c3
:10432c00000d88003e0037000000eb00200d8800d7
:10433c00c0002000300d88000000eb00400d88000c
:10434c000000eb00500d8800350037000000eb003a
:10435c00700d8800c0002000800d88000000eb006c
:10436c00900d88000000eb00a00d88002c00370099
:10437c000000eb00c00d8800c0002000d00d8800ac
:10438c000000eb00e00d88000000eb00f00d880051
:10439c00230037000000eb00100e8800c000200046
:1043ac00200e88000000eb00300e88000000eb00af
:1043bc00400e88001a0037000000eb00600e8800e9
:1043cc00c0002000700e88000000eb00800e8800fa
:1043dc000000eb00900e8800110037000000eb008d
:1043ec00b00e8800c0002000c00e88000000eb005a
:1043fc00d00e88000000eb00e00e880008003700ab
:10440c000000eb00000f8800c0002000100f880097
:10441c000000eb00200f88000000eb00300f88003c
:10442c00ae00900000912000008040001040780009
:10443c000041eb008040eb00b7fa0700ae009000a3
:10444c0000912000808040000040eb008048780004
:10445c002e00900080004000a09120008080400041
:10446c000000eb00800878000000eb00000f7800e3
:10447c000040eb00204798000a0037002e409000c7
:10448c008080fb00009120000080400010407800ec
:10449c000080fb001e0f40002e4090000040e80002
:1044ac00204798002e409000e84f5000f3ff360054
:1044bc001e00e00004003a000000eb0080088800b9
:1044cc000080eb00600888000080fa000000060005
:1044dc000200fa00000f78001e0078004400dd0096
:1044ec00d0488800d0488000a00c88006011b8002b
:1044fc000000eb0043fe070092c1bf00f041b30087
:10450c0092e1b70092e1a9000119200091407800d6
:10451c0080cfb30000c060006040b30090e1b700f2
:10452c00111920009140780030ceb30000c060001b
:10453c0091e1b7000080fa00000006000200fa00ca
:10454c00000f78001e0078004400dd00e048880071
:10455c00e0488000f00c88006011b80010002000ca
:10456c0028fe07009cc1bf00f041b3009ce1b700de
:10457c009ce1a900a11920009140780080cfb300e4
:10458c0000c060006040b3009ae1b700b119200090
:10459c009140780030ceb30000c060009be1b700c2
:1045ac000080fa00000006000200fa00000f7800fc
:1045bc001e0078004400dd00f0488800f0488000c0
:1045cc00400d88006011b800200020000dfe07008f
:1045dc00a6c1bf00f041b300a6e1b700a6e1a90057
:1045ec00411a20009140780080cfb30000c06000d9
:1045fc006040b300a4e1b700511a2000914078004c
:10460c0030ceb30000c06000a5e1b7000080fa0016
:10461c00000006000200fa00000f78001e0078006f
:10462c004400dd000049880000498000900d88009e
:10463c006011b80030002000f2fd0700b0c1bf00cf
:10464c00f041b300b0e1b700b0e1a900e11a2000dd
:10465c009140780080cfb30000c060006040b30090
:10466c00aee1b700f11a20009140780030ceb300d3
:10467c0000c06000afe1b7000080fa000000060047
:10468c000200fa00000f78001e0078004400dd00e4
:10469c001049880010498000e00d88006011b800b6
:1046ac0040002000d7fd0700bac1bf00f041b300a5
:1046bc00bae1b700bae1a900811b20009140780053
:1046cc0080cfb30000c060006040b300b8e1b70019
:1046dc00911b20009140780030ceb30000c06000e8
:1046ec00b9e1b7000080fa00000006000200fa00f1
:1046fc00000f78001e0078004400dd00204988007f
:10470c0020498000300e88006011b8005000200055
:10471c00bcfd0700c4c1bf00f041b300c4e1b70049
:10472c00c4e1a900211c20009140780080cfb30087
:10473c0000c060006040b300c2e1b700311c200033
:10474c009140780030ceb30000c06000c3e1b700e8
:10475c000080fa00000006000200fa00000f78004a
:10476c001e0078004400dd0030498800304980008c
:10477c00800e88006011b80060002000a1fd0700c9
:10478c00cec1bf00f041b300cee1b700cee1a9002d
:10479c00c11c20009140780080cfb30000c06000a5
:1047ac006040b300cce1b700d11c200091407800f0
:1047bc0030ceb30000c06000cde1b7000080fa003d
:1047cc00000006000200fa00000f78001e007800be
:1047dc004400dd004049880040498000d00e88002c
:1047ec006011b8007000200086fd0700d8c1bf0022
:1047fc00f041b300d8e1b700d8e1a900611d200059
:10480c009140780080cfb30000c060006040b300de
:10481c00d6e1b700711d20009140780030ceb30076
:10482c0000c06000d7e1b7000080fa00000006006d
:10483c000200fa00000f78001e0078004400dd0032
:10484c005049880050498000200f88006011b80042
:10485c00800020006bfd0700e2c1bf00f041b300f7
:10486c00e2e1b700e2e1a900011e200091407800ce
:10487c0080cfb30000c060006040b300e0e1b7003f
:10488c00111e20009140780030ceb30000c06000b3
:10489c00e1e1b7000080fa00000006000000fa0019
:1048ac000111200091407800f0ccb30000c06000f2
:1048bc0010e1b700f03f20006008880011e1a8006b
:1048cc000080fa00000006000000fa00e0a2a90037
:1048dc00e2a2a900d842a900de42a800dc42a8004e
:1048ec000000000000000000d862a900de62a800f1
:1048fc00dc62a80000000000000000000080fa004c
:10490c00000006000200fa009c000700604a8000cc
:10491c00000f78001e007800e10f50000f003200ed
:10492c001e007800e10f5000070039001e007800cf
:10493c00e20f5000090032001e007800e30f500017
:10494c0003003200040037004a0007000300370060
:10495c006900070001003700ffff37000080fa00f4
:10496c00000006000400fa00000f78001e0078001a
:10497c00100798001e009000e10f50001300320049
:10498c001e009000e10f5000070039001e0090003f
:10499c00e20f5000160032001e009000e30f500092
:1049ac001c00320023003700dc42a800000000008d
:1049bc0000000000dc62a800000000000000000005
:1049cc000000eb00604a88001a003700dc62a80087
:1049dc000000000000000000dc42a9000000000004
:1049ec000000000010002000604a88001100370011
:1049fc00dc42a8000000000000000000dc62a900fe
:104a0c00000000000000000020002000604a880028
:104a1c0008003700dc62a800000000000000000065
:104a2c00dc42a80000000000000000003000200064
:104a3c00604a88000080fa00000006000000fa00be
:104a4c00604a80000080fa00000006000000fa00b6
:104a5c00dc42a8000000000000000000dc62a8009e
:104a6c000000000000000000e2a2a9000080fa0093
:104a7c00000006000200fa0010c0b3005601070047
:104a8c000080fb000000e00019003200421f2000f3
:104a9c000300200010c0b300380107004ec9bf004e
:104aac008040eb00014f78000004e00002003a0067
:104abc0010c0b300004f78009e40780061c06000c9
:104acc004301dd00c12d20009140780070cfb30070
:104adc0000c0600002407000dce2b7000000000083
:104aec00000000004ec9bf000004a2004ee9b70050
:104afc000080fa00000006000200fa0020c0b3009b
:104b0c00350107000080fb000000e00019003200b6
:104b1c00421f20000300200020c0b3001701070033
:104b2c004fc9bf008040eb00014f78000004e0004b
:104b3c0002003a0010c0b300004f78009e4078008d
:104b4c0061c060004201dd00c12d20009140780061
:104b5c00b0cfb30000c0600002407000dce2b700d0
:104b6c0000000000000000004fc9bf000004a200bc
:104b7c004fe9b7000080fa00000006000000fa00c0
:104b8c000040eb00140107000080fb000000e00077
:104b9c0013003200421f2000030020000040eb00f5
:104bac00f6000700e2c2bf000080fb004500de00fb
:104bbc00614060000004a200614060006140600040
:104bcc004501dd00212e200091407800f0cdb3008e
:104bdc0000c0600002407000e2e2b700000000007c
:104bec000080fa00000006000400fa00100798008c
:104bfc001e009000404a88000040eb00004f7800f7
:104c0c00070037001e80fb0080004000008f200052
:104c1c00808040000000eb00800878001e4fe80008
:104c2c00f0c0b3009e4f1000f6ff3600404a8000e3
:104c3c0057000700730007002043a8000080fa000b
:104c4c00000006000200fa00004f78001e80fb00f6
:104c5c0080004000008f2000008040001000780091
:104c6c000080fa00000006000200fa000000eb00d1
:104c7c00001988000000eb00101988000000eb0000
:104c8c00201988000000eb0040198800404a800081
:104c9c008080ea004016800000806000401688008a
:104cac0061198000404a8000008070006019880003
:104cbc000000eb00404a88000040eb00004f7800f9
:104ccc00070037001e80fb0080004000008f200092
:104cdc00808040000000eb00800878001e4fe80048
:104cec00f0c0b3009e4f1000f6ff36000080fa00b3
:104cfc00000006003600f800809fbe00829fbe00b8
:104d0c00849fbe00869fbe003400f8000000200087
:104d1c00a00188000000fa00080007000080fa00db
:104d2c003400f9004f03be004f02be004f01be001d
:104d3c004f00be003600f900004006000000fa00eb
:104d4c004ac9bf000080fb000218800080004000b0
:104d5c00008f200000804000020878004ac9bf0084
:104d6c000040e8004ae9b7004ac9bf00ef4f5000c5
:104d7c00020036000040eb004ae9b7004ac9bf0008
:104d8c003200070085a0a9000080fa000000060090
:104d9c000200fa00000f7800401680001e00700020
:104dac00401688009e80ea00601980000080600038
:104dbc006019880028e3a9000040eb0023000700dd
:104dcc002223a90023c3bf007f40600023e3b70068
:104ddc0025e3a900f0c1b30024e3b70001322000a1
:104dec009140780000ceb30000c0700020e3b70003
:104dfc0025c3bf00f041b30025e3b7000080fa00e3
:104e0c00000006000000fa002132200091407800da
:104e1c00c0c3b30000c0700022e3b70021e3a800b8
:104e2c0085a0a900a10a200091407800f0c8b30029
:104e3c0000c0600001c3b30001407000aae0b700dd
:104e4c0095a0a8000080fa00000006000200fa00fd
:104e5c00004f78009e4078007fc060007f4160006a
:104e6c00813220009140780000ceb30000c0600079
:104e7c000240700028e3b7000080fa000000060032
:104e8c003600f800809fbe00829fbe00849fbe004b
:104e9c00869fbe003400f80000002000a0018800ae
:104eac000000fa00840007000080fa003400f900ca
:104ebc004f03be004f02be004f01be004f00be00ac
:104ecc003600f900004006000200fa000040eb003a
:104edc00004f78000e0037001e80fb00c300dd0081
:104eec0020802000008140006000b8000089be00d6
:104efc001e80fb004300dd00e40040002080200009
:104f0c00008140006000b8000089be001e4fe80020
:104f1c00f0c0b3009e4f1000efff36004110200090
:104f2c0091407800f0ccb30000c060000044a000b9
:104f3c0004e1b7000421a90004c1bf006240600075
:104f4c000004e00001003a0004c1a90004c1bf0044
:104f5c00624060000004e000010032000441a8003f
:104f6c00a00f2000100888008460a9009460a8009d
:104f7c0005e1a8000080fa00000006000600fa0017
:104f8c00881f7800004f78001207980023079800bc
:104f9c001e80fb00c300dd0020802000008040004c
:104fac001e019000ae0190000288be001e84fb0022
:104fbc00280007000001be004340dd00e400400073
:104fcc0020802000008040000288be004f04780042
:104fdc000080fa00000006000400fa00889fbe0062
:104fec00204798002e4090000080fb00c300dd009d
:104ffc0020802000008040001004be001500070037
:10500c000001be002e4090000080fb004300dd003c
:10501c00e400400020802000008040001000be0012
:10502c0000015100818159000040eb00004f7800d5
:10503c00820f5400838f5c000200310010c0b3005b
:10504c00004f78001e80fb004f04be000080fa0069
:10505c00000006000000fa0010448000214480008b
:10506c000080fa00000006000000fa0005e1a9002b
:10507c009460a9000080fa00000006000800fa0005
:10508c002007980031079800f2ff0700008fbe0040
:10509c00f0ff07003e015000ae8158002e0090003a
:1050ac00be009000800f5100818f5900f8ff39002d
:1050bc000080fa00000006000000fa008460a900dd
:1050cc0000c8bf000040e80000e8b70000c8bf00ff
:1050dc00e74f5000080036000040eb0000e8b70036
:1050ec00104480002144800061004000e0804800b2
:1050fc0010448800214488000080fa00000006005b
:10510c000600fa00200798000000eb00100798003a
:10511c000a0037000000eb00000f78000100370098
:10512c001e0fe8002e0090009e0f1000fcff3900af
:10513c001e0090000000e800100798009e009000f0
:10514c00f0c72000808f5000f2ff36000080fa007c
:10515c00000006000600fa00200798000000eb0093
:10516c00100798000a0037000000eb00000f7800d1
:10517c00010037001e0fe8002e0090009e0f10005b
:10518c00fcff39001e0090000000e800100798009a
:10519c001e009000ef0f5000f3ff36000080fa0065
:1051ac00000006000c00fa00889fbe001007980053
:1051bc00210798003207980043079800540798007d
:1051cc009e0090002e00900000805000cf80de00ea
:1051dc00d2ec07000004be00be0090002e00900030
:1051ec0000805000cf80de00ccec07000001be0038
:1051fc000800be00f4ec07000004be00de009000c6
:10520c004e00900000805000cf80de00c3ec070001
:10521c000001be000800be002ded07000004be001a
:10522c004e009000cf80de00bcec07000001be00f9
:10523c000800be005bed0700b7ed0700000f78001b
:10524c005e0090009e0f5000030031005e00900045
:10525c00000f7800050037004e0090009e0f5000a4
:10526c00020036004e009000000f78001e007800ff
:10527c004f04be000080fa00000006000e00fa0089
:10528c00004f780012079800230798003407980005
:10529c004507980056079800670798000000eb0038
:1052ac000080fa00000006000a00fa00004f7800a7
:1052bc0012079800230798003407980045079800b8
:1052cc006000b8000080fa00000006000e00fa0032
:1052dc00889fbe004047980032079800430798000b
:1052ec0054079800650798004e4090000080fb0022
:1052fc00c200dd0060882000008040001000be006d
:10530c005e019000ee019000f1ec07000004be007d
:10531c005e019000ee0190000000200001f82300d7
:10532c001fed07003e019000ce019000e8ec070055
:10533c000001be000800be001aed0700008fbe0081
:10534c004e4090000080fb00c200dd006088200011
:10535c00008040003e1878002e1078001e00be0021
:10536c004f04be000080fa00000006000800fa009e
:10537c00004f780012079800230798003107980017
:0c538c006000b8000080fa00000006007d
:020000040000fa
:10539800000800008600000000000000100900005e
:1053a8001c00000000000000c60800002a000000e1
:1053b8000000000044090000040000000200000092
:1053c800010000000000000048090000040000007f
:1053d80000000000f00800002000000002000000ab
:1053e80000000000000000000000000000000000b5
:1053f80000000000000000000000000000000000a5
:105408000000000000000000000000003e0900004d
:1054180006000000000000002c0900001200000037
:105428000200000009000200003e09000000000020
:10543800000000000000000000580200860800007c
:1054480040000000000000004c09000004000000bb
:0854580000000000000000004c
:00000001FF
