:020000040000fa
:080000000002040000000000f2
:020000040000fa
:100400008f4821002e7f24000e018800000000008c
:100410000c000700c09e2100010020001100070011
:10042000000020000000e000020032000000020096
:1004300000000000fa270200000000000040da007f
:100440000000fe004440a900200720000000e0005a
:100450000300320000002000a00188004440a800f2
:100460000000060091018800800078000000eb0089
:1004700015003700e280400032a0b4009101ba00bc
:10048000e280400032a0b4009102ba00e280400055
:1004900032a0b4000002eb00472bde00f507b200eb
:1004a000602ce10004003a000059eb008301e900f0
:1004b000fdff3e00040037006128e100010032002a
:1004c0000082eb00040007001101ba000200e00006
:1004d000e8ff3a00000006003159ba008301e90044
:1004e0000c0032002159ba008301e90008003200f3
:1004f0000400e00003003a00e280400032a0b400b3
:10050000f5ff370011d9ba008301e900faff3a007c
:100510008100e800e180400032a0b4000000060045
:10052000be220400000000000040da000000fe00cf
:10053000889fbe008a9fbe00010578000100e00090
:100540000400350008003c000000e00020003200fc
:100550000500370060001000e080180002003b003a
:1005600001f02c001a0037000004be006011b80032
:100570006b0920000982cf00020039000882cf00f9
:100580000441b000694252000e00320008003b00f6
:1005900082817100610164008904d1000884d30064
:1005a0008b05e8000442e800f9ff3a000500370037
:1005b0000804440089844c008b05e9000442e900ea
:1005c000fbff3a00f40007000af0a70001f0a000ca
:1005d0004f05be004f04be000000060003f0a2005d
:1005e000889fbe008a9fbe008c1f78001001070004
:1005f000170133006450e1004f0032006420e10035
:100600005200320003826c0007003b000905d00055
:100610000306d000820f54000c065d000200390072
:1006200002003200890178000306780085825500b7
:1006300004003d000003fd008103fd008502ea0087
:100640008b854200840f720002003b0060001000a6
:10065000e08018006011b8000005eb007a28e10086
:100660000a00390006007800c75ddd00f707b20018
:10067000878075002d003700828171000a017800a3
:10068000610560008180d1000080d3008502e9000f
:10069000f9ff3b00060440008784480002003b004d
:1006a00060041400e0841c000988a30007003200e5
:1006b0008a81710082817100610164008904d10026
:1006c0000884d3008b05e800170037000978a300e1
:1006d00013003a000b00e000130034008b05e90022
:1006e0000804440089844c000a4474000978a3007b
:1006f0000d003a000b00e000070034008b05e90014
:100700000804440089844c0001003a000b002000da
:100710000978a300f7ff32000001eb000200370068
:10072000828171000a0178009b0007000cf0a7008d
:1007300001f0a000cf0037006420e10002003a0081
:10074000838f6c00cf0033000801be000200be00a2
:10075000c8003700889fbe008a9fbe008c1f7800ab
:10076000b3000700ba00330003866c006450e10058
:10077000240032006420e100270032006150e100d3
:10078000220032006120e100210032008b8542000e
:10079000eb07b1000134b800003ab8000804420089
:1007a00089844a00013ab8000030b80088804000cf
:1007b00009014a0004003300000040008180480025
:1007c000020149008b05e900c909dd0083017000c1
:1007d0000100320013002000c814de004814dd00c0
:1007e0004709de001200b200c808de00088470006d
:1007f0006900070001f0a1000cf0a70001f0a000c3
:100800009c0037006120e1009e0032000801be001c
:100810000200be00f7ff37006150e100fcff3a0024
:10082000980037000001be00990007000470a7007f
:1008300003f0a10003f8a30013003a006509b1001a
:1008400010003200090035006928e100020035007f
:1008500001002800000005000000400081804800e1
:100860008502e900fcff3a0000000600f88f420014
:10087000050035008100d1000080d3008502e8002a
:10088000fcff3a00000006008000eb0000000500bd
:10089000889fbe008a9fbe008c1f780064000700fe
:1008a0006b00330003866c006450e1002e003200c0
:1008b0006420e100330032006150e1002f0032007b
:1008c0006120e1003100320085855500eb07b00062
:1008d0000900200008042000050037000804440037
:1008e00089844c000a0031000603430087834b00d3
:1008f0000001530081815b00f8ff33000203be005a
:100900000800a0000804440089844c00f6ff390068
:10091000c639dd008301730001003200130020009e
:100920008904d1000884d3000998a300050032008f
:100930000800a7000300a0008904d1000884d300a8
:100940008b05e8008904d1000884d3000001eb0086
:100950000281d2001000070001f0a1000cf0a700f6
:1009600001f0a000430037006420e10045003200a0
:100970000801be000200be00f7ff37006120e10061
:10098000400032006000b800f3ff37000000200094
:1009900001f82700f0ff370081002000618055003a
:1009a0000b003d000b00200061fe2f000100e10064
:1009b0001d00340082817100610164008904d1004e
:1009c0000884d3000000e800faff3a00710020001c
:1009d0006100640003007000020060000900320042
:1009e00061044400e0844c000988a5000500320041
:1009f0008b05e8006808e10002003a008904d10094
:100a00000884d300f20f20000258e10005003d00e9
:100a1000c75ddd00f907b200898075000800780025
:100a2000000006000bf827008b007800000005008e
:100a30000004be00160007000003be000405be004f
:100a40000200be0012000700844f7500000006007f
:100a50000200be006450e100050036006420e100a1
:100a6000020036000968a30001003a000800be0039
:100a70000160a0004f0678004f05be004f04be0085
:100a800000000600f0ff2f00f1ff2700f9ff3700fc
:100a9000c70ade00f107b200f50fb200080032000d
:100aa000e1cf4200020032000170a00024000500e6
:100ab000810f7000010032000408050044000500a9
:100ac000810f700002003a00140005008502e90061
:100ad0000000400081c04800fcff3b000170a00006
:100ae000240005008001eb000200370061f079006e
:100af0008301e800828f5100fcff3a0000000600ed
:020000040000fa
:020000040005f5
:0457f8008e430000dc
:020000040000fa
:020000040005f5
:0457fc00783e0000f3
:020000040000fa
:100008009402000094020000940200009402000090
:100018009402000094020000940200009402000080
:10002800940200003623000094020000d824000047
:10003800940200005c230000940200009402000077
:10004800c422000094020000940200001a24000058
:1000580066240000042600009402000094020000b8
:10006800940200008c240000940200009402000016
:100078009402000094020000940200009402000020
:10008800940200009402000094020000ea2200009a
:100098001023000094020000402400009402000095
:1000a80094020000940200009402000094020000f0
:1000b8009402000082230000a8230000ce23000041
:1000c800f42300009402000094020000940200004f
:1000d80094020000940200009402000094020000c0
:1000e8009402000094020000b22400009402000070
:1000f80094020000940200009402000094020000a0
:10010800940200009402000094020000940200008f
:10011800940200009402000094020000940200007f
:10012800940200009402000094020000940200006f
:10013800940200009402000094020000940200005f
:10014800940200009402000094020000940200004f
:10015800940200009402000094020000940200003f
:10016800940200009402000094020000940200002f
:100178009402000094020000a2060000940200000d
:10018800940200009402000094020000940200000f
:1001980094020000940200009402000094020000ff
:1001a80094020000940200009402000094020000ef
:1001b80094020000940200009402000094020000df
:1001c80094020000940200009402000094020000cf
:1001d80094020000940200009402000094020000bf
:1001e80094020000940200009402000094020000af
:0801f8009402000094020000d3
:020000040000fa
:10020800940200009402000094020000940200008e
:10021800940200009402000094020000940200007e
:10022800940200003623000094020000d824000045
:10023800940200005c230000940200009402000075
:10024800c422000094020000940200001a24000056
:1002580066240000042600009402000094020000b6
:10026800940200008c240000940200009402000014
:10027800940200009402000094020000940200001e
:10028800940200009402000094020000ea22000098
:100298001023000094020000402400009402000093
:1002a80094020000940200009402000094020000ee
:1002b8009402000082230000a8230000ce2300003f
:1002c800f42300009402000094020000940200004d
:1002d80094020000940200009402000094020000be
:1002e8009402000094020000b2240000940200006e
:1002f800940200009402000094020000940200009e
:10030800940200009402000094020000940200008d
:10031800940200009402000094020000940200007d
:10032800940200009402000094020000940200006d
:10033800940200009402000094020000940200005d
:10034800940200009402000094020000940200004d
:10035800940200009402000094020000940200003d
:10036800940200009402000094020000940200002d
:100378009402000094020000a2060000940200000b
:10038800940200009402000094020000940200000d
:1003980094020000940200009402000094020000fd
:1003a80094020000940200009402000094020000ed
:1003b80094020000940200009402000094020000dd
:1003c80094020000940200009402000094020000cd
:1003d80094020000940200009402000094020000bd
:1003e80094020000940200009402000094020000ad
:0803f8009402000094020000d1
:020000040000fa
:100b000009020000200000000101000000c00000f8
:100b1000320900000400000000020000ffff000096
:100b2000ff0000000705000001010000ffff0000ba
:100b3000010700000581000001ff0000ff01000027
:100b400004030000010000001a030000520000002e
:100b50006f000000620000006f00000074000000e1
:100b600065000000580000002c000000200000007c
:100b7000490000006e000000630000002c0300002c
:100b80004a000000750000006c000000200000001a
:100b9000310000003600000020000000320000009c
:100ba0003000000031000000320000002000000092
:100bb00031000000360000003a0000003100000063
:100bc000370000003a00000030000000390000004b
:100bd0000000000080850000a0850000a4850000c2
:040be000be850000ce
:020000040000fa
:100be4000200fa009ec0a900f00f200070248800c3
:100bf400f00f2000502488002000200030258800b9
:100c04000000eb00402588008644a900f00920007c
:100c140080248800f009200060248800a824a8000b
:100c24007480a80074a0a8008804a8000000210013
:100c34004800de00c02488009424a8000000eb00d3
:100c4400b02488000000eb00602588009424a900eb
:100c54000040eb00004f7800070037001e80fb00c7
:100c6400c200dd0000002100008140006000b800e7
:100c74000089be001e4fe80070c0b3009e4f1000f4
:100c8400f6ff3600d000200050258800020037000f
:100c940080002000502488008ac4bf00684060009f
:100ca4000004e000faff3a000040eb00d8eeb70081
:100cb4000040eb00e3eeb700e4cebf00604060000c
:100cc400e4eeb700e5cebf0060406000e5eeb7009b
:100cd40094a4a9000040eb00004f78000d003700f9
:100ce4001e80fb008000400080ee200080804000d9
:100cf4000000eb00800878001e80fb0080004000ac
:100d040020ef2000808040000000eb008008780085
:100d14001e4fe80010c0b3009e4f1000f0ff3600d5
:100d240080002100407788000040eb00e0eeb7002f
:100d34000000eb00f07688000080fa000000060056
:100d44003600f800809fbe00829fbe00849fbe00d4
:100d5400869fbe003400f80000002000a001880037
:100d64000200fa00f0768000e10f50000a003a0019
:100d740094c4bf000044b2000004e00006003a003e
:100d8400f00f2000502488008c04a8008c84a80054
:100d940020002000f076880080c4bf00704060000e
:100da4000004e0000700320082c4bf00704060000d
:100db4000004e00003003200000120000024880049
:100dc400a200070088c4bf00624060000004e00085
:100dd400020032008ec0a900730037008ac4bf002d
:100de400614060000004e000180032008cc4bf00c1
:100df400614060000004e0001400320078ff070046
:100e04009ec0a80040002000f076880020f020005a
:100e14001080880080c0b30000f0b70011002100ea
:100e24009140780030c0b30000c0600001f0b7000a
:100e34001100210091407800c0c8b30000c07000c8
:100e440001f0b70010002000502488008ac4bf00bd
:100e5400704060000004e000070032008cc4bf0052
:100e6400704060000004e000030032006d000700e1
:100e740000012000502488008ac4bf006440600040
:100e84000004e0000a0032008cc4bf00644060002b
:100e94000004e00006003200120020008000eb0095
:100ea400300720006d0c070040002000502488000b
:100eb4008ac4bf0001c8b300014060000004e00020
:100ec400060032008cc4bf0001c8b30001406000ba
:100ed4000004e000010032003b0007008ac4bf00a8
:100ee400624060000004e0000a0032008cc4bf00cd
:100ef400624060000004e00006003200120020009e
:100f04008000eb00f0ff2700540c0700f00f2000d6
:100f140070248800f0768000e30f500002003e0049
:100f24008ec0a900200037008cc4bf006840600058
:100f34000004e0001b0032000040eb00004f78008a
:100f4400150037008ac4bf00684060000004e00058
:100f54001400320090248000faeeb70080002000d4
:100f640050248800facebf008080fb00000f2000d0
:100f7400008060000000e00002003a003d0007002d
:100f840004003700a1ef20000001eb00200720003f
:100f9400320c07001e4fe80030c0b3009e4f100013
:100fa400e8ff36008ec0a9000080fa003400f90082
:100fb4004f03be004f02be004f01be004f00be00f3
:100fc4003600f900004006000000fa00aac4bf0081
:100fd400624060000004e0000e0032007077800080
:100fe4009040900000c8b30080cf500008003a0041
:100ff400407780009040900040c8b30080cf5000fc
:1010040003003a0071778000c0c8b3009040980094
:10101400aa24a90000082000502488000080fa00b7
:10102400000006000000fa008284a80000012000ed
:10103400502488000001eb008000eb0050072000e2
:10104400060c07000080fa00000006000000fa0009
:101054000001eb008000eb0040072000ff0b0700bd
:101064008284a90000012000002488000080fa0086
:10107400000006000200fa00facebf008080fb00e8
:10108400b0ff2f00008060000000e00035003a004f
:10109400facebf008080fb00c00f200000806000fb
:1010a4004280de004200dd00800078000000210064
:1010b4000080400070778800707780008077880017
:1010c40001ef200000ef2000104078000024a2006f
:1010d400804878007077800010409000c2c3b3004d
:1010e4008240600040c3b30080cf50001b003a0030
:1010f4007077800090009000a0f02000808f500056
:1011040014003a007177800020f0200090009800cd
:101114000040eb00004f78000b0037001e80fb00fe
:101124008000780020f02000008140001e80fb0039
:1011340080007800a0f0200000804000104078007b
:10114400004978001e4fe80070c0b3009e4f1000a5
:10115400f2ff36000c0007000900370028000700e2
:1011640007003700facebf008080fb00b0ff2f00dd
:1011740000806000e80f500001003a0038000700ca
:101184000080fa00000006000000fa0040778000aa
:101194009040900000c8b30000c060000004e0006c
:1011a40003003200417780000040eb00904098003b
:1011b4000040eb00f6eeb7000040eb00f7eeb7009e
:1011c400d9cebf0060406000d9eeb700dacebf00d0
:1011d40060406000daeeb7000040eb00d8eeb700e4
:1011e400780007000001eb008000eb0030002000d5
:1011f4009a0b07000e0207000080fa0000000600a8
:101204000000fa00f7cebf00e24f500002003a009f
:10121400110307001000370046000700e077800044
:101224000000e0000a003a008177800080c0b3002b
:10123400804878008177800020f02000900098009a
:1012440081778000c0c8b300904098000200370046
:101254000000eb00e07788000080fa000000060040
:101264000200fa0040778000104090000080fb00ec
:101274004600de0061406000004f780081ee2000ef
:1012840080ee2000104078000024a20080487800fe
:10129400f0768000e80f50000b003a0004cfbf0046
:1012a4000080fb00b0248800b02480000000e0002f
:1012b4000300320000012000f076880002003700ad
:1012c40040002000f0768800f7cebf00e14f5000c8
:1012d40015003a0041778000a0f0200090009800ab
:1012e4005c020700f6cebf00e24f500004003a0053
:1012f4004177800040c8b300904098000b0037004d
:101304001e04e00004003a004177800080ccb30062
:1013140090409800050037004177800080c8b300f2
:101324009040980001003700020007000080fa0096
:10133400000006000200fa000040eb00f7eeb700e0
:10134400417780000040eb00904098004077800097
:101354000020a200000f78009e0078000040eb00ff
:101364009040980031ee20009140780000c8b3000e
:1013740000c060000004e00010003200e6cebf00b0
:101384008080fb00e7cebf000080fb004800dd004a
:10139400010070000000e00007003200e6cebf004c
:1013a4008080fb00e7cebf000080fb004800dd002a
:1013b4000100700000000100e3eea9000080fa00c3
:1013c400000006000400fa0002cfbf000046b2008d
:1013d4000004e00058003a0003cfbf000080fb0087
:1013e4006101b900028fbe00b0002000010020009e
:1013f4001e01be00800f5100818f59004e003e0037
:101404001e00be00006001002400370025003700e4
:101414004900370023003700470037000600370033
:1014240009003700400037000b0037000800370080
:101434001e00370033003700d8eea80080002000db
:10144400f07688003c003700a40007003a0037001b
:10145400000307003800370002ee2000f00f2000e0
:1014640080006100d6cebf00604060000140700083
:10147400d6eeb700c810de00d7cebf0060406000d3
:1014840001407000d7eeb700d80ea80010c0b3001a
:10149400d9eeb700d8eea800270037000e010700e8
:1014a40025003700260007002300370006cfbf00c1
:1014b4000080fb0080007800c0ee20000080400027
:1014c40000017800f00f200080006100d6cebf003c
:1014d4006040600001407000d6eeb700c810de0026
:1014e400d7cebf006040600001407000d7eeb70067
:1014f400d80ea80010c0b300d9eeb700d8eea800eb
:101504000d003700d8eea80006cfbf008080fb0096
:1015140042f0200012417800c0ee2000008040001c
:1015240002487800040037000001eb008000eb0063
:1015340020002000c90a07000080fa00000006000d
:101544000400fa0004cfbf00e14f50000d003a0040
:1015540002cfbf007f4060000004e00009003a00b1
:10156400d8eea80003cfbf00e34f500003003a00b9
:1015740010002000e0768800020037000000eb0035
:10158400e076880004cfbf000004e00051003a0078
:1015940002cfbf007f406000e24f50004d003a0090
:1015a40006cfbf006f4060000004e0004900320035
:1015b400d8eea80006cfbf0001c8b3000140600008
:1015c4000004e00009003a0006cfbf006f4060004d
:1015d4000080fb008000400020ef200000804000dd
:1015e40010007800100798000800370006cfbf00ed
:1015f4006f4060000080fb008000400080ee20000f
:1016040000804000100078001007980003cfbf004e
:10161400e34f500004003a009e00900040c8b3001d
:10162400904098002b00370006cfbf006f40600049
:101634000080fb000000400080007800a04a2000e9
:1016440000804000000f78001e0078009040780071
:10165400d0cfb30080c060001e007800014878003d
:1016640061f020009140780000c8b30000c0600021
:101674000004e0000c0032009e0090000040eb00eb
:10168400904098008e80e8000e80e80010407800ba
:101694000024a200804878009e00900000c4b3009b
:1016a400904098000b0037009e00900080c8b30063
:1016b400904098008e80e8000e80e800104078008a
:1016c4000024a200804878009e00900080ccb300e3
:1016d400904098000080fa00000006000200fa0022
:1016e40021f020009140780000c8b30080cf500062
:1016f40077003a0000ccb300d8eeb70005cfbf00a6
:101704000080fb00000f78001e007800e20f5000fc
:101714001b0032001e007800e30f50003e00320030
:101724001e007800e10f500001003200660037000f
:10173400e2f22000f00f200080006100d6cebf004e
:101744006040600001407000d6eeb700c810de00b3
:10175400d7cebf006040600001407000d7eeb700f4
:10176400d9cebf00604060002041b300d9eeb7007d
:10177400dacebf0060406000daeeb70054003700f4
:1017840004cfbf000080fb00000040008000780010
:10179400a05e28000080400010017800f00f2000b7
:1017a40080006100d6cebf00604060000140700040
:1017b400d6eeb700c810de00d7cebf006040600090
:1017c40001407000d7eeb700d6cebf008080fb008a
:1017d400d7cebf000080fb004800dd000100700090
:1017e4000080e80010017800f00f20008000610004
:1017f400d9cebf006040600001407000d9eeb70050
:10180400c810de00dacebf00604060000140700006
:10181400daeeb7002e00370004cfbf00e24f5000cd
:1018240026003e0004cfbf000080fb000000400003
:1018340080007800c05e280000804000100178001d
:10184400f00f200080006100d6cebf006040600031
:1018540001407000d6eeb700c810de00d7cebf003e
:101864006040600001407000d7eeb700d6cebf00e4
:101874008080fb00d7cebf000080fb004800dd0065
:1018840001007000104078000081fb00f00f200080
:1018940080006100d9cebf0060406000014070004c
:1018a400d9eeb700c810de00dacebf006040600099
:1018b40001407000daeeb700050037000040eb008d
:1018c400d8eeb700020037000040eb00d8eeb700b6
:1018d4000080fa00000006000400fa000040eb005b
:1018e4000aefb7000040eb000befb70002cfbf00d8
:1018f4007f4060000080fb00100798001e009000ed
:10190400e10f5000120032001e009000e20f500060
:10191400110032001e0090000000e00001003200bf
:101924002d003700d8eea8000acfbf000004a000a5
:101934000aefb700e0768000e10f500026003a007d
:101944000acfbf000014a0000aefb700220037003e
:10195400d8eea80020003700d8eea80006cfbf00bc
:1019640001c8b300014060000004e00009003a002f
:1019740006cfbf006f4060000080fb008000400085
:1019840020ef20000080400010007800000f780055
:101994000800370006cfbf006f4060000080fb00e6
:1019a4008000400080ee200000804000100078009d
:1019b400000f78001e007800104090000080fb00ab
:1019c4004200de00610060000004e000020032001a
:1019d40010c0b3000aefb700d8cebf0001c8b300ef
:1019e400014060000004e0000f003200a2f020007b
:1019f400f00f200080006100d6cebf006040600080
:101a040001407000d6eeb700c810de00d7cebf008c
:101a14006040600001407000d7eeb700d80ea80007
:101a240020c0b300d9eeb7000080fa000000060021
:101a34000000fa0094a4a900d8cebf0001c8b300e6
:101a4400014060000004e00024003a00e3cebf003f
:101a540001c8b300014060000004e000120032003d
:101a640020c0b300f7eeb700417780000040eb00e0
:101a7400804878004177800080ccb3009040980083
:101a84008177800080c0b30080487800817780002f
:101a9400a0f02000900098008177800080ccb300f3
:101aa40090409800690037008177800080c0b300bf
:101ab400804878008177800020f020009000980012
:101ac40081778000c0c8b3009040980041778000bf
:101ad40040c8b300904098005c003700e3cebf00dc
:101ae40001c8b300014060000004e00057003a0060
:101af40002cfbf0001c8b300014060000004e00051
:101b04004100320008cfbf008080fb0009cfbf0036
:101b14000080fb004800dd00010070000001780037
:101b2400d9cebf008080fb00dacebf000080fb006e
:101b34004800dd0001007000800f510012003100e8
:101b440008cfbf008080fb0009cfbf000080fb00ee
:101b54004800dd000100700000017800f00f200053
:101b640080006100d9cebf00604060000140700079
:101b7400d9eeb700c810de00dacebf0060406000c6
:101b840001407000daeeb7003200070010c0b30065
:101b9400f7eeb7008177800080c0b30080487800fa
:101ba4008177800020f020009000980081778000e9
:101bb40000c8b300904098000000eb00e077880074
:101bc4007177800080c0b30080487800717780000e
:101bd40020f02000900098007177800040c8b30086
:101be4009040980010002000e07788004177800042
:101bf400a0f02000900098004177800080ccb300d2
:101c0400904098001100370020c0b300f7eeb700f1
:101c1400417780000040eb008048780041778000e5
:101c240080ccb300904098008177800080c0b300de
:101c34008048780081778000a0f020009000980010
:101c44008177800080ccb300904098000080fa0037
:101c5400000006000200fa00d9cebf008080fb001d
:101c6400dacebf000080fb004800dd0001007000f8
:101c7400e70f500013003e00d9cebf008080fb0068
:101c8400dacebf000080fb004800dd0001007000d8
:101c9400000f7800f6cebf000004e00003003a0015
:101ca40010c0b300f6eeb70008003700f6cebf0050
:101cb400e14f500005003a0020c0b300f6eeb70033
:101cc4000200370080002000000f78004277800077
:101cd40040778000904090001e40900000c070004b
:101ce40010419800417780001e40780080487800b9
:101cf400d9cebf008080fb00dacebf000080fb009d
:101d04004800dd0001007000800078001e007800ab
:101d140000815000f00f200080006100d9cebf0088
:101d24006040600001407000d9eeb700c810de00ca
:101d3400dacebf006040600001407000daeeb70008
:101d4400a0f02000c0778800d8cebf0061406000ba
:101d54000004e0003b003a001b003700c27780001b
:101d6400d6cebf008080fb00d7cebf000080fb0032
:101d74004800dd0001007000800078001140780008
:101d8400004978000200e800c07788000101e800fb
:101d9400f00f200080006100d6cebf0060406000dc
:101da40001407000d6eeb700c810de00d7cebf00e9
:101db4006040600001407000d7eeb7001e0078005c
:101dc4000000e900000f78001e0078000000e00029
:101dd400e2ff3a001e003700c2778000d6cebf0073
:101de4008080fb00d7cebf000080fb004800dd00f0
:101df40001007000800078001140780000497800ec
:101e04000200e800c07788000101e800f00f20001c
:101e140080006100d6cebf006040600001407000c9
:101e2400d6eeb700c810de00d7cebf006040600019
:101e340001407000d7eeb7001e0078000000e900f2
:101e4400000f78001e0078000000e000e2ff3a0076
:101e54000080fa00000006000200fa00707780009b
:101e640090407800114798001e4090000081fb00cc
:101e7400e4cebf008080fb00e5cebf000080fb0005
:101e84004800dd0001007000800f5100070036009b
:101e9400e4cebf008080fb00e5cebf000080fb00e5
:101ea4004800dd000100700010479800e4cebf0038
:101eb4008080fb00e5cebf000080fb004800dd0011
:101ec40001007000800078001e4090000080fb003c
:101ed40000815000f00f200080006100e4cebf00bc
:101ee4006040600001407000e4eeb700c810de00fe
:101ef400e5cebf006040600001407000e5eeb70031
:101f04000040eb00004f780019003700e1cebf001d
:101f14008080fb00e2cebf000080fb004800dd00b3
:101f240001007000000178009e80fb00a0f02000fa
:101f34000080400010407800004978000201e80069
:101f4400f00f200080006100e1cebf00604060001f
:101f540001407000e1eeb700c810de00e2cebf0021
:101f64006040600001407000e2eeb7001e4fe800e0
:101f74001e4090009e4f1000e4ff3900e4cebf00e5
:101f84008080fb00e5cebf000080fb004800dd0040
:101f9400010070000000e00013003200817780002f
:101fa40080c0b3008048780081778000a0f02000d2
:101fb4009000980070778000104090000044b200b8
:101fc4000004e00004003a008177800080ccb30074
:101fd400904098001d0037008177800080c8b300ce
:101fe40090409800190037008177800080c0b300ca
:101ff400804878008177800020f0200090009800cd
:102004008177800040c8b30090409800e6cebf00be
:102014008080fb00e7cebf000080fb004800dd00ad
:10202400010070000000e00007003200e6cebf00af
:102034008080fb00e7cebf000080fb004800dd008d
:102044000100700000000100e3eea9000080fa0026
:10205400000006000200fa00d8eea8000000eb0021
:10206400602588000040eb00004f7800070037002f
:102074001e80fb00c200dd00000021000081400042
:102084006000b8000089be001e4fe80070c0b300b5
:102094009e4f1000f6ff36009424a8000040eb0089
:1020a400eceeb7009424a90080002100407788005a
:1020b40000002100707788007077800080778800a6
:1020c40004cfbf00e0eeb700e0cebf000004e000a4
:1020d40003003a0000012000f07688000600370073
:1020e4001200200001ee200010002000db07070092
:1020f40000022000f07688000080fa00000006004c
:102104000400fa002047980031479800000021009d
:10211400000f78002e4090000080fb00000040007b
:10212400800078003e4090000080fb00008040006a
:102134004300dd004200de004200dd001e0f4000cf
:102144009e007800114090000074a1009040980017
:102154003e4090000004e00007003a002e4090004a
:102164000080fb008000400020ef20000080400041
:102174001e087800060037002e4090000080fb0007
:102184008000400080ee2000008040001e0878009f
:102194001e01780092409000f0cbb30000c06000b4
:1021a400104198001e0078006401400092409000a5
:1021b40000c4b30000c07000104198000080fa0011
:1021c400000006000400fa002047980031479800f8
:1021d4002e4090000080fb0000004000800078004a
:1021e400a04a200000804000000f78001e00780004
:1021f400be409000014878003e4090000080fb0003
:102204004300de00610060000004e00003003200cf
:102214008040eb002e409000b9ff07003e40900044
:102224000080fb004200de00610060000004e0006a
:102234000300320011c0b3002e409000b0ff07002d
:102244000080fa00000006000400fa00204798000d
:10225400314798002e4090000004e0000d003a0041
:102264008177800080c0b300804878008177800047
:1022740020f020009000980081778000c0c8b3004f
:10228400904098004177800040c8b3009040980087
:10229400230037002e4090000080fb000000400027
:1022a400800078003e4090000080fb0000804000e9
:1022b4004300dd0080007800000021000080400021
:1022c400000f78001e0078009040900040c8b300d2
:1022d40080c070001e007800114098002e409000cd
:1022e4000080fb0000004000800078003e40900029
:1022f4000080fb00008040004300dd008000780087
:1023040040002100008f40001e00780090409000a3
:1023140040c8b30080c070001e00780011409800cf
:102324000080fa00000006000a00fa002047980026
:102334003147980022079800634798003e40900078
:102344000004e000070032002e4090000080fb00f3
:102354008000400080ee200000804000100f7800d4
:10236400060037002e4090000080fb0080004000f3
:1023740020ef200000804000100f78001e00e000d5
:1023840003003a000000eb004007980039003700d2
:102394002e009000800078001e0078001100980044
:1023a4001e007800ee409000014878001e0078007e
:1023b4001040900002c4b300824060001e00780008
:1023c400114098001e0078009040900080c8b3002f
:1023d40080c070001e007800114098003e409000bc
:1023e4000004e000110032002e4090000080fb0049
:1023f400000040008000780080ee20000080400053
:10240400000178002e4090000080fb000000400096
:102414008000780080ee20000080400010407800aa
:102424000024a20000497800100037002e409000dc
:102434000080fb00000040008000780020ef2000b6
:1024440000804000000178002e4090000080fb00d6
:10245400000040008000780020ef20000080400051
:10246400104078000024a200004978001e00780083
:10247400400798004e0090000080fa00000006001b
:102484000600fa00004f780094c4bf000042b20076
:102494000004e0005f0032001e80fb00800040006a
:1024a40080ee200000804000100378001e80fb00b6
:1024b4008000400080ee2000008040001000780082
:1024c4001000be0002042000030020000002780077
:1024d4008102780002007800830078000001620025
:1024e400018062006102b800140798002507980073
:1024f4001e009000ae009000c000dd00000020002f
:1025040010079800210798001e009000ae0090006c
:102514006112b80014079800250798001e01900066
:10252400ae0190000200700083807000008bbe003a
:102534001e80fb008000400080ee200000804000f0
:10254400100278001e80fb008000400080ee200016
:1025540000804000100078001001be00000420003c
:10256400010020000000690081806900008abe002b
:102574001e80fb00000040008000780080ee2000f8
:1025840000804000000178001e80fb000000400035
:102594008000780080ee2000008040001040780029
:1025a4000024a200004978001e80fb008000400047
:1025b40080ee200000804000100178001e80fb00a7
:1025c4008000400080ee2000008040001000780071
:1025d400104090000044b200104198001e80fb009f
:1025e4008000400080ee2000008040001001780050
:1025f4001e80fb008000400080ee20000080400030
:10260400100078009040900000c4b30000c068003f
:10261400104198000080fa00000006000000fa0053
:102624000000eb00a02488000000eb006024880078
:102634000000eb00f07688000080fa00000006003d
:102644000000fa00f07680000000e00016003a0076
:102654000000eb00a02488000000eb006024880048
:1026640020002000302588000000eb004025880071
:102674008644a900f009200080248800f009200085
:10268400602488009ec0a800010037009404a800bc
:1026940094c4bf00614060000004e000fbff32000e
:1026a40010002000f07688000080fa000000060088
:1026b4000e00fa00004f7800114798002247980056
:1026c4002c0307001e4090000080fb0020079800a8
:1026d4002e0090000000e00004003200ae009000e4
:1026e400e18f5000560132001f0337001e80fb00ab
:1026f4006101b9003207980043079800d001200017
:10270400010020003e019000ce019000800f510096
:10271400818f590014033e003e009000ce009000cb
:10272400006001001d00370027003700310037002a
:102734003b003700450037000b0337004e003700dd
:1027440058003700620037006c003700760037000d
:10275400800037008a003700940037009e0037005d
:102764000103370000033700a6003700b00037002c
:10277400ba003700c4003700ce003700d800370055
:10278400e2003700ec003700f600370000013700a4
:102794000a013700140137001e0137002e40900053
:1027a400f043b200f1c3b30001416000016c2000aa
:1027b4009140780000ccb30000c06000024070007b
:1027c400c0e6b700e80237002e409000f043b200a4
:1027d400f3c3b30003416000116c20009140780002
:1027e40000ccb30000c0600002407000c1e6b70036
:1027f400dd0237002e409000f043b200f1c3b30075
:1028040001416000216c20009140780000ccb300ad
:1028140000c0600002407000c2e6b700d202370078
:102824002e409000f043b200f3c3b30003416000b4
:10283400316c20009140780000ccb30000c06000ef
:1028440002407000c3e6b700c70237002e40900074
:10285400f043b200f1c3b30001416000416c2000b9
:102864009140780000ccb30000c0600002407000ca
:10287400c4e6b700bc0237002e409000f043b2001b
:10288400f3c3b30003416000616c20009140780001
:1028940000ccb30000c0600002407000c6e6b70080
:1028a400b10237002e409000f043b200f1c3b300f0
:1028b40001416000716c20009140780000ccb300ad
:1028c40000c0600002407000c7e6b700a6023700ef
:1028d4002e409000f043b200f3c3b3000341600004
:1028e400816c20009140780000ccb30000c06000ef
:1028f40002407000c8e6b7009b0237002e409000eb
:10290400f043b200f1c3b30001416000916c2000b8
:102914009140780000ccb30000c060000240700019
:10292400c9e6b700900237002e409000f043b20091
:10293400f3c3b30003416000a16c20009140780010
:1029440000ccb30000c0600002407000cae6b700cb
:10295400850237002e409000f043b200f1c3b3006b
:1029640001416000b16c20009140780000ccb300bc
:1029740000c0600002407000cbe6b7007a02370066
:102984002e409000f043b200f3c3b3000341600053
:10299400c16c20009140780000ccb30000c06000fe
:1029a40002407000cce6b7006f0237002e40900062
:1029b400f043b200f1c3b30001416000d16c2000c8
:1029c4009140780000ccb30000c060000240700069
:1029d400cde6b700640237002e409000f043b20009
:1029e400f3c3b30003416000e16c20009140780020
:1029f40000ccb30000c0600002407000cee6b70017
:102a0400590237002e409000f043b200f1c3b300e6
:102a140001416000116d20009140780000ccb300aa
:102a240000c0600002407000d1e6b7004e023700db
:102a34002e409000f043b200f3c3b30003416000a2
:102a4400216d20009140780000ccb30000c06000ec
:102a540002407000d2e6b700430237002e409000d7
:102a6400f043b200f1c3b30001416000316d2000b6
:102a74009140780000ccb30000c0600002407000b8
:102a8400d3e6b700380237002e409000f043b2007e
:102a9400f3c3b30003416000416d2000914078000e
:102aa40000ccb30000c0600002407000d4e6b70060
:102ab4002d0237002e409000f043b200f1c3b30062
:102ac40001416000516d20009140780000ccb300ba
:102ad40000c0600002407000d5e6b7002202370053
:102ae4002e409000f043b200f3c3b30003416000f2
:102af400616d20009140780000ccb30000c06000fc
:102b040002407000d6e6b700170237002e4090004e
:102b1400f043b200f1c3b30001416000716d2000c5
:102b24009140780000ccb30000c060000240700007
:102b3400d7e6b7000c0237002e409000f043b200f5
:102b4400f3c3b30003416000816d2000914078001d
:102b540000ccb30000c0600002407000d8e6b700ab
:102b6400010237002e409000f043b200f1c3b300dd
:102b740001416000916d20009140780000ccb300c9
:102b840000c0600002407000d9e6b700f6013700cb
:102b94002e409000f043b200f3c3b3000341600041
:102ba400a16d20009140780000ccb30000c060000b
:102bb40002407000dae6b700eb0137002e409000c7
:102bc400f043b200f1c3b30001416000b16d2000d5
:102bd4009140780000ccb30000c060000240700057
:102be400dbe6b700e00137002e409000f043b2006e
:102bf400f3c3b30003416000c16d2000914078002d
:102c040000ccb30000c0600002407000dce6b700f6
:102c1400d50137002e409000f043b200f1c3b30059
:102c240001416000d16d20009140780000ccb300d8
:102c340000c0600002407000dde6b700ca01370042
:102c44002e4090000080fb006101b90052079800fb
:102c54006307980040022000010020005e019000fc
:102c6400ee019000800f5100818f5900be013e009b
:102c74005e009000ee009000006001002400370028
:102c84002e00370038003700420037004c00370070
:102c940056003700600037006a00370074003700c0
:102ca4007e00370088003700920037009c00370010
:102cb400a6003700b0003700ba003700c400370060
:102cc400ce003700d8003700e2003700ec003700b0
:102cd400f6003700000137000a01370014013700fd
:102ce4001e01370028013700320137003c0137004c
:102cf40046013700500137005a013700640137009c
:102d04006e01370078013700820137008c013700eb
:102d1400f1c3b3001ec06000f3c3b30003416000fd
:102d2400416a20009140780000ccb30000c06000ec
:102d340002407000a4e6b7008b013700f1c3b30072
:102d44001ec06000f3c3b30003416000216820008b
:102d54009140780000ccb30000c0600002407000d5
:102d640082e6b70080013700f1c3b3001ec06000e3
:102d7400f3c3b30003416000316820009140780040
:102d840000ccb30000c060000240700083e6b700ce
:102d940075013700f1c3b3001ec06000f3c3b30074
:102da40003416000416820009140780000ccb300ea
:102db40000c060000240700084e6b7006a0137007a
:102dc400f1c3b3001ec06000f3c3b300034160004d
:102dd400e16820009140780000ccb30000c060009e
:102de400024070008ee6b7005f013700f1c3b30004
:102df4001ec06000f3c3b30003416000f16820000b
:102e04009140780000ccb30000c060000240700024
:102e14008fe6b70054013700f1c3b3001ec0600051
:102e2400f3c3b300034160000169200091407800be
:102e340000ccb30000c060000240700090e6b70010
:102e440049013700f1c3b3001ec06000f3c3b300ef
:102e540003416000116920009140780000ccb30068
:102e640000c060000240700091e6b7003e013700e8
:102e7400f1c3b3001ec06000f3c3b300034160009c
:102e8400216920009140780000ccb30000c06000ac
:102e94000240700092e6b70033013700f1c3b3007b
:102ea4001ec06000f3c3b300034160003169200019
:102eb4009140780000ccb30000c060000240700074
:102ec40093e6b70028013700f1c3b3001ec06000c9
:102ed400f3c3b300034160004169200091407800ce
:102ee40000ccb30000c060000240700094e6b7005c
:102ef4001d013700f1c3b3001ec06000f3c3b3006b
:102f040003416000516920009140780000ccb30077
:102f140000c060000240700095e6b700120137005f
:102f2400f1c3b3001ec06000f3c3b30003416000eb
:102f3400f16920009140780000ccb30000c060002b
:102f4400024070009fe6b70007013700f1c3b300e9
:102f54001ec06000f3c3b300034160006169200038
:102f64009140780000ccb30000c0600002407000c3
:102f740096e6b700fc003700f1c3b3001ec0600042
:102f8400f3c3b300034160007169200091407800ed
:102f940000ccb30000c060000240700097e6b700a8
:102fa400f1003700f1c3b3001ec06000f3c3b300e7
:102fb40003416000916a20009140780000ccb30086
:102fc40000c0600002407000a9e6b700e6003700c8
:102fd400f1c3b3001ec06000f3c3b300034160003b
:102fe400816a20009140780000ccb30000c06000ea
:102ff40002407000a8e6b700db003700f1c3b3005d
:103004001ec06000f3c3b30003416000a16a200046
:103014009140780000ccb30000c060000240700012
:10302400aae6b700d0003700f1c3b3001ec06000a9
:10303400f3c3b30003416000d16a200091407800db
:1030440000ccb30000c0600002407000ade6b700e1
:10305400c5003700f1c3b3001ec06000f3c3b30062
:1030640003416000c16a20009140780000ccb300a5
:1030740000c0600002407000ace6b700ba00370040
:10308400f1c3b3001ec06000f3c3b300034160008a
:10309400e16a20009140780000ccb30000c06000d9
:1030a40002407000aee6b700af003700f1c3b300d2
:1030b4001ec06000f3c3b30003416000916b2000a5
:1030c4009140780000ccb30000c060000240700062
:1030d400b9e6b700a4003700f1c3b3001ec0600016
:1030e400f3c3b30003416000816b2000914078007a
:1030f40000ccb30000c0600002407000b8e6b70026
:1031040099003700f1c3b3001ec06000f3c3b300dd
:1031140003416000a16b20009140780000ccb30013
:1031240000c0600002407000bae6b7008e003700ad
:10313400f1c3b3001ec06000f3c3b30003416000d9
:10314400516820009140780000ccb30000c06000ba
:103154000240700085e6b70083003700f1c3b30076
:103164001ec06000f3c3b300034160006168200027
:103174009140780000ccb30000c0600002407000b1
:1031840086e6b70078003700f1c3b3001ec06000c4
:10319400f3c3b300034160007168200091407800dc
:1031a40000ccb30000c060000240700087e6b700a6
:1031b4006d003700f1c3b3001ec06000f3c3b30059
:1031c40003416000816820009140780000ccb30086
:1031d40000c060000240700088e6b700620037005b
:1031e400f1c3b3001ec06000f3c3b3000341600029
:1031f400916820009140780000ccb30000c06000ca
:103204000240700089e6b70057003700f1c3b300ed
:103214001ec06000f3c3b30003416000516a200084
:103224009140780000ccb30000c060000240700000
:10323400a5e6b7004c003700f1c3b3001ec0600020
:10324400f3c3b30003416000416a20009140780059
:1032540000ccb30000c0600002407000a4e6b700d8
:1032640041003700f1c3b3001ec06000f3c3b300d4
:1032740003416000716a20009140780000ccb300e3
:1032840000c0600002407000a7e6b70036003700b7
:10329400f1c3b3001ec06000f3c3b3000341600078
:1032a400616a20009140780000ccb30000c0600047
:1032b40002407000a6e6b7002b003700f1c3b3004c
:1032c4001ec06000f3c3b30003416000b16a200074
:1032d4009140780000ccb30000c060000240700050
:1032e400abe6b70020003700f1c3b3001ec0600096
:1032f400f3c3b30003416000316a200091407800b9
:1033040000ccb30000c0600002407000a3e6b70028
:1033140015003700f1c3b3001ec06000f3c3b3004f
:1033240003416000716b20009140780000ccb30031
:1033340000c0600002407000b7e6b7000a00370022
:10334400f1c3b3001ec06000f3c3b30003416000c7
:10335400616b20009140780000ccb30000c0600095
:1033640002407000b6e6b7000e0007000080fa00c5
:10337400000006000000fa00113a8000f00b200063
:103384000081600061042000700520002374200087
:103394008149780080497800824978000080fa00e9
:1033a400000006000000fa00113a8000000420002a
:1033b4000081700061042000700520002374200047
:1033c4008149780080497800824978000080fa00b9
:0433d40000000600ef
:020000040000fa
:1033d8004c0f000002000000020000000000000086
:1033e800120f00001c00000002000000be22be00f8
:1033f80022be2200be22be0022be2200be22be0085
:1034080022be2200be22be0022be2200be22be0074
:1034180022000000400f0000080000000200000029
:10342800000000000000000000000000600c000028
:103438000e020000000000002010000068030000d9
:103448000000000000080000600400000200000006
:1034580004000100000000000080200010020000ad
:103468000100000000000000241008000000000017
:103478000200000080261000020001000002000087
:1034880000802e00100100000100020000008000f2
:10349800301001000001000002000000803110001f
:1034a800010001000002000000803200100100004d
:1034b800010002000000800033100100000100003c
:1034c800020000008034100001000100000200002a
:1034d8000080350010040000010002000000800098
:1034e800361004000001000002000000803a1000bd
:1034f800040001000002000000803e0010040000eb
:1035080001000200000080004210040000010000d9
:1035180002000000804610000400010000020000c4
:1035280000804a0010040000010002000000800032
:103538004e1002000001000001000000805210003f
:103548000200010000010000008054001002000089
:103558000100010000008000561002000001000078
:103568000100000080581000010001000001000067
:1035780000805a00100100000100010000008000d6
:103588005b1001000001000001000000805c1000d9
:10359800010001000001000000805d001001000032
:1035a80001000100000080005e1001000001000021
:1035b80001000000805f1000010001000001000010
:1035c8000080600010010000010001000000800080
:1035d800611001000001000001000000806210007d
:1035e80001000100000100000080630010060000d7
:1035f8000100030000000000641004000001000046
:1036080003000000006a100004000100000300002d
:1036180000806e001004000001000300000080001c
:103628007210060000010000030000008076100000
:10363800040001000003000000807c00103000003e
:1036480001000300000000008010300000010000ad
:103658000300000000b0100030000100000300006b
:103668000000e00010060000010003000000000058
:103678001011020000010000030000008016110074
:103688000600010000030000008018001106000079
:1036980001000300000080001e110400000100006a
:1036a8000300000080241100020001000003000054
:1036b8000080280011010000010002000000000045
:1036c8002a1104000001000002000000802c1100f3
:1036d8000400010000020000008030001104000016
:1036e8000100020000008000341104000001000005
:1036f80002000000803811000100010000020000f3
:1037080000003c00110400000100010000008000de
:103718003e11040000010000010000008042110079
:1037280004000100000100000080460011040000b0
:1037380001000100000080004a110400000100009f
:1037480001000000804e110004000100000100008b
:1037580000805200110400000100010000008000f8
:10376800561104000001000001000000805a1100f9
:10377800040001000001000000805e00110100004b
:103788000100010000008000621102000001000039
:103798000100000080641100020001000001000027
:1037a80000806600110c000001000200000080008b
:1037b80068110100000100000200000000741100ff
:1037c80008000000000200000000760011640000fc
:1037d80000000100000080007e11020000010000ce
:1037e8000100000080e21100020001000001000059
:1037f8000080e400110200000100010000008000c8
:10380800e6110200000100000100000080e811003c
:1038180002000100000100000080ea00110200001f
:103828000100010000008000ec11180000000000f9
:103838000100000080ee11001800000000020000e6
:1038480000800600126400000000020000008000f2
:103858001e124f00000000000200000080821200cb
:1038680002000100000300000080d20012020000e4
:103878000100030000008000d4124f000000000087
:103888000300000080d612001800000000030000aa
:103898000080260013010000010002000000000063
:1038a8003e1301000001000002000000003f130069
:1038b80002000100000500000000400013040000a1
:1038c80001000a000000000042130200000100008d
:1038d80005000000804613000100010000050000fb
:1038e800000048001306000001000a0000008000e4
:1038f8004a130200000100000a0000008050130073
:1039080001000100000a00000080520013020000bc
:1039180001000a00000080005413010000010000ab
:10392800030000000056130002000100000100001f
:103938000080580013020000010001000000800010
:103948005a1301000001000001000000005c130090
:10395800010001000002000000005d0013010000ea
:1039680001000200000000005e13010000010000d9
:1039780005000000005f13000100010000020000c4
:10398800000060001302000001000a00000080002f
:1039980062130200000100000300000080641300ad
:1039a800020001000003000000806600130a000006
:1039b80001000d000000000068130c000001000069
:1039c8000d0000008072130001000100000f0000cc
:1039d80000007e001301000001000f0000008000bd
:1039e8007f130100000100000100000000801300a7
:1039f80002000100000300000080820013020000a2
:103a08000100020000000000841302000001000011
:103a18000200000080861300000000000000000083
:103a280000000000000000002e0f0000120000003f
:103a380002000000120100000200000000089400cb
:103a4800260000000000010002000100d60e000060
:103a58003c000000000000000010000020000000f2
:103a680000000000480f00000400000000000000f3
:103a78004e0f000002000000000000006e0e000063
:103a88004600000000000000b40e00002200000004
:083a9800000000000000000026
:020000040000fa
:103aa0000000fa0003003700107a80000000e800f0
:103ab000107a8800107a80006a00b900e80040009f
:103ac0000080200000804000100078000000e0002e
:103ad000f5ff3a000080fa00000006000200fa003c
:103ae000f0768000ff0f50004f01360088c4bf0001
:103af000624060000004e000010032004a0137002b
:103b0000307a80000000e00006003200307a800049
:103b10009040900000c8b30000c060000004e000c6
:103b20000c003a0060ccbf00e14f500009003a00a1
:103b300080c1eb0002c720008040eb0010c0b30042
:103b4000faf90700207a88000040eb0060ecb7002b
:103b500035013700207a80000000e00006003200c6
:103b6000207a80009040900000c8b30000c0600040
:103b70000004e0002c013a000000eb001063880014
:103b80000000eb00007a88000000eb005063880022
:103b900000003700007a80008080e800f00f2000ed
:103ba000808f50000c013e00017a800000c7200089
:103bb00000804000104078008080fb00506380004f
:103bc0000080400050638800007a80008000e80098
:103bd00000c7200000804000104078008080fb007b
:103be000506380000080400050638800017a8000ac
:103bf00000c7200000804000104078000081fb00da
:103c0000007a80008000e80000c7200000804000ab
:103c1000104078000080fb004800dd0000004100fb
:103c200030638800007a80000080e800007a880015
:103c300030638000e10f40000a003a00007a800003
:103c40008080e800f00f2000808f5000e2003e00ee
:103c50000000eb00106388000000eb00007a880091
:103c600036003700017a8000f00f2000808f50006e
:103c7000d9003e0031638000f0ff27000080600023
:103c800040638800107a80008000780040638000e4
:103c9000808f5000d0003600406380006a00b90079
:103ca0008000780000802000008040001000780034
:103cb00060638800306380000000e000b5ff3500dd
:103cc000017a80006063800080804000f00f200057
:103cd000808f5000c0003e000000eb002063880091
:103ce0000d003700017a8000206380008080400052
:103cf00000c7200000804000104078008080fb005a
:103d00005063800000804000506388002063800082
:103d10000000e80020638800216380006063800069
:103d2000808f5000efff3900007a800061638000cf
:103d300001004000007a880096ff3700007a80007a
:103d40008080e800f00f2000808f500073003e005c
:103d5000017a800000c720000080400010407800f9
:103d60000081fb00007a80008000e80000c720008e
:103d700000804000104078000080fb004800dd001b
:103d80000000410030638800007a80000080e80075
:103d9000007a880030638000e10f40005f0032004d
:103da000017a8000f00f2000808f50005b003e0001
:103db00031638000f0ff27000080600040638800ce
:103dc000107a80008000780040638000808f50006f
:103dd00052003600406380006a00b900800078001d
:103de00000802000008040001000780060638800a0
:103df000306380000000e0002f003d001063800071
:103e00008080e800f00f2000808f500043003e00cb
:103e1000106380000001e800406380004800de007d
:103e200080407800f0d62000000041000148780072
:103e3000126380004063800080407800f0d620004c
:103e40000000410001487800106380000080e80015
:103e500010638800116380006063800080804000f0
:103e6000f00f2000808f50002c003e006363800024
:103e7000406380006a00b900e80040000080200034
:103e800000804000100178001063800080007800fe
:103e9000f0d6200000804000820078000301780006
:103ea00010f3070011638000606380000080400011
:103eb00010638800a1ff3700017a800060638000f2
:103ec00080804000f00f2000808f500013003e00e3
:103ed00063638000007a80008000780000c72000c3
:103ee00000814000406380006a00b900e8004000a3
:103ef00000802000008040001000780082007800e0
:103f000003017800f7f20700017a80006063800007
:103f100000804000007a880088ff3700106380002e
:103f20008080e800f00f2000808f50002a003e00c3
:103f3000106380008000e800f0d620008080400000
:103f400000c0eb008048780011638000f0d62000ac
:103f50008080400000c0eb00804878001063800043
:103f60000080e80010638800307a80000000e000e4
:103f700006003200307a80009040900000c8b30004
:103f800000c060000004e0000a003a0010638000f6
:103f90000000e000070032001063800080417800dc
:103fa000f2d6200011c0b30010c0b300dff8070044
:103fb000307a8800706380008000eb00010f780089
:103fc0000000e00002003a0010002000000f78001e
:103fd0009e00780071638800307a80000000e00065
:103fe00006003200307a80009040900000c8b30094
:103ff00000c060000004e00009003a0080c1eb004e
:1040000002c720008040eb0010c0b300c7f80700d3
:10401000207a88000040eb0060ecb7000200370017
:1040200010c0b30060ecb7000080fa00000006008a
:104030000000fa00c1c1b30010c0b30062f807006d
:1040400080c1eb0002c720008040eb0010c0b3002d
:10405000b6f80700207a88000080fa000000060009
:104060000800fa00000f7800110798002207980056
:104070001e0078003007980030072000be00900036
:10408000808f50002200320030072000be009000d8
:10409000808f50000a003e003e009000e20f50006a
:1040a0001b003200be009000e38f50001800320069
:1040b0003e009000e10f50000e0032001400370067
:1040c00050072000be009000808f5000100032008a
:1040d00050072000be009000808f50000c00390077
:1040e000f0ff2700be009000808f500003003200d8
:1040f00007003700ceff070005003700f00f200053
:10410000702488008a04a8008c04a8000000000025
:10411000100020000080fa00000006000200fa00f3
:10412000e0a2a900e2a2a9003302070000112800c2
:10413000000f78001e007800a2020700a1002000f6
:1041400020c0b30013030700d922a900dd22a80074
:10415000000000000000000097000700813e2000e2
:104160000040eb00400207008138210020c0b3006e
:104170003d0207000080fa00000006000200fa007d
:104180000040eb004e0207000004e0001100320086
:10419000e2c2bf000080fb004500de00614060001d
:1041a0000004a20061406000614060004501dd0044
:1041b000212e200091407800f0cdb30000c06000b7
:1041c00002407000e2e2b700813e20000040eb00b8
:1041d00025020700f0c0b3008202070080007800cb
:1041e000600e2000808f500006003600dd22a900fe
:1041f000000000000000000040062000320307001d
:104200000000fe0010c0b3002d0207000004e00013
:104210000d00320040c0b3007202070044062000c7
:104220008001eb00221c2000e12e20003b03070050
:1042300080407800f03721000148780041062000d6
:1042400010c0b30008020700407a8000000f780019
:104250001e007800e10f5000340032001e0078008c
:10426000e10f5000040039001e007800e20f5000fa
:104270003d0032004b00370020c0b30010020700a1
:104280000004e0004a003200e037210010407800ce
:104290000004e00008003200890007000004e0008c
:1042a000050032000040eb0049000700200020001c
:1042b000407a88003e003700e03721001040780047
:1042c0000004e00008003a008b0007000004e00052
:1042d0000500320010c0b3003d00070010002000b0
:1042e000407a880032003700910007000004e000a7
:1042f0002f003200e0372100104078000004e00079
:10430000050032000040eb003100070020002000d3
:10431000407a88002600370010c0b3002c00070048
:1043200010002000407a8800210037006400070058
:104330000004e00003003a003b0007000004e00036
:104340001b003200a099290091e123009c02070084
:10435000813e200020c0b300c30107000000eb0035
:10436000407a880012003700630007000004e00074
:1043700003003a002c0007000004e0000c003200ab
:10438000a099290091e123008d020700813e2000c1
:1043900020c0b300b40107000000eb00407a8800a1
:1043a0000300370081de2f000040eb00ae01070064
:1043b0000080fa00000006000000fa00a099290021
:1043c00091e123007e0207000080fa000000060051
:1043d0000200fa00004f7800813e200020c0b300a8
:1043e000a1010700411f200030c0b3009e0107005b
:1043f00010c0b3009e4f100004003a0010ac2c0017
:1044000011e223006e020700050037001e04e000e1
:1044100003003a003087260011e1230068020700fc
:104420000080fa00000006000800fa0030c0b30067
:10443000a30107000004e0001c003200411f20001f
:1044400030c0b3008801070040c0b300e501070099
:10445000100798009e009000507a80000080500065
:10446000300798003e0090000000e00003003d008f
:104470003e0090000000ea00300798003e009000e7
:10448000000f78001e009000507a88000000eb00ba
:1044900020079800900020009e0f100005003e00ad
:1044a0001000200020079800020037000000eb00f9
:1044b000200798002e0090000080fa0000000600ff
:1044c0000200fa0040c0b300c60107008000780077
:1044d0000000eb00000f780000192000808f5000d2
:1044e00002003e0010002000000f78001e0078003f
:1044f0000080fa00000006000200fa0040c0b3008d
:10450000b8010700800078000000eb00000f780081
:10451000f0312000808f5000020036001000200093
:10452000000f78001e0078000080fa0000000600ee
:104530000400fa0040c0b300aa010700000f780091
:10454000001920009e0f100006003600f0312000f8
:104550009e0f100003003e0010002000100798007e
:10456000020037000000eb00100798002e4090007a
:104570000080fb000080fa00000006000000fa0046
:104580000080fa00000006003600f800809fbe00a0
:10459000829fbe00849fbe00869fbe003400f8004c
:1045a00000002000a00188000000fa009078800040
:1045b000000001000080fa003400f9004f03be0043
:1045c0004f02be004f01be004f00be003600f90092
:1045d000004006003600f800809fbe00829fbe00ab
:1045e000849fbe00869fbe003400f80000002000bb
:1045f000a00188000000fa00a078800000000100ff
:104600000080fa003400f9004f03be004f02be00e4
:104610004f01be004f00be003600f900004006000a
:104620003600f800809fbe00829fbe00849fbe00bf
:10463000869fbe003400f80000002000a001880022
:104640000000fa00b0788000000001000080fa004d
:104650003400f9004f03be004f02be004f01be0000
:104660004f00be003600f900004006003600f8009a
:10467000809fbe00829fbe00849fbe00869fbe00ba
:104680003400f80000002000a00188000000fa00bb
:10469000c0788000000001000080fa003400f900ba
:1046a0004f03be004f02be004f01be004f00be00d0
:1046b0003600f900004006003600f800809fbe007a
:1046c000829fbe00849fbe00869fbe003400f8001b
:1046d00000002000a00188000000fa00d0788000cf
:1046e000000001000080fa003400f9004f03be0012
:1046f0004f02be004f01be004f00be003600f90061
:10470000004006003600f800809fbe00829fbe0079
:10471000849fbe00869fbe003400f8000000200089
:10472000a00188000000fa00e0788000000001008d
:104730000080fa003400f9004f03be004f02be00b3
:104740004f01be004f00be003600f90000400600d9
:104750003600f800809fbe00829fbe00849fbe008e
:10476000869fbe003400f80000002000a0018800f1
:104770000000fa00f0788000000001000080fa00dc
:104780003400f9004f03be004f02be004f01be00cf
:104790004f00be003600f900004006003600f80069
:1047a000809fbe00829fbe00849fbe00869fbe0089
:1047b0003400f80000002000a00188000000fa008a
:1047c00000798000000001000080fa003400f90048
:1047d0004f03be004f02be004f01be004f00be009f
:1047e0003600f900004006003600f800809fbe0049
:1047f000829fbe00849fbe00869fbe003400f800ea
:1048000000002000a00188000000fa00107980005c
:10481000000001000080fa003400f9004f03be00e0
:104820004f02be004f01be004f00be003600f9002f
:10483000004006003600f800809fbe00829fbe0048
:10484000849fbe00869fbe003400f8000000200058
:10485000a00188000000fa004079800000000100fb
:104860000080fa003400f9004f03be004f02be0082
:104870004f01be004f00be003600f90000400600a8
:104880003600f800809fbe00829fbe00849fbe005d
:10489000869fbe003400f80000002000a0018800c0
:1048a0000000fa0050798000000001000080fa004a
:1048b0003400f9004f03be004f02be004f01be009e
:1048c0004f00be003600f900004006003600f80038
:1048d000809fbe00829fbe00849fbe00869fbe0058
:1048e0003400f80000002000a00188000000fa0059
:1048f00030798000000001000080fa003400f900e7
:104900004f03be004f02be004f01be004f00be006d
:104910003600f900004006003600f800809fbe0017
:10492000829fbe00849fbe00869fbe003400f800b8
:1049300000002000a00188000000fa00207980001b
:10494000000001000080fa003400f9004f03be00af
:104950004f02be004f01be004f00be003600f900fe
:10496000004006003600f800809fbe00829fbe0017
:10497000849fbe00869fbe003400f8000000200027
:10498000a00188000000fa006079800000000100aa
:104990000080fa003400f9004f03be004f02be0051
:1049a0004f01be004f00be003600f9000040060077
:1049b0003600f800809fbe00829fbe00849fbe002c
:1049c000869fbe003400f80000002000a00188008f
:1049d0000000fa00690007000080fa003400f900c6
:1049e0004f03be004f02be004f01be004f00be008d
:1049f0003600f900004006000000fa0004a1a900fa
:104a00000481a8000421a90004c1bf006240600025
:104a10000004e00001003a0004c1a90004c1bf0085
:104a2000624060000004e000010032000441a80080
:104a3000a00f200010088800510a20009140780043
:104a4000f0c8b30000c0600001c4b30001407000b2
:104a5000a5e0b7008460a9009460a80005e1a80063
:104a60000080fa00000006000400fa00881f7800a9
:104a7000004f7800110798009e80fb001e009000f8
:104a80006101b800c308dd0000e72000008040009d
:104a90000288be001e84fb00280007006101b800e8
:104aa0004340dd00e400400000e7200000804000bb
:104ab0000288be004f0478000080fa000000060063
:104ac0000400fa00889fbe00204798002e40900006
:104ad0000080fb00c300dd0000e7200000804000f4
:104ae0001004be00150007006101b8002e409000c0
:104af0000080fb004300dd00e400400000e72000f0
:104b0000008040001000be0000015100818159006a
:104b10000040eb00004f7800820f5400838f5c0050
:104b20000200310010c0b300004f78001e80fb006f
:104b30004f04be000080fa00000006000000fa00ea
:104b400080758000917580000080fa0000000600ea
:104b50000400fa0010079800f8ff0700000f780023
:104b6000f6ff07009e0050001e009000808f50004e
:104b7000fbff39000080fa00000006000000fa0088
:104b80008460a9006ecebf000040e8006eeeb70062
:104b90006ecebf00e74f5000080036000040eb002b
:104ba0006eeeb70080758000917580006100400056
:104bb000e080480080758800917588000080fa00c8
:104bc000000006000200fa00000f78001e007800c6
:104bd00034000700500007002043a8000080fa00be
:104be000000006000200fa00004f78001e80fb0063
:104bf0008000400040eb2000008040001000780062
:104c00000080fa00000006003600f800809fbe0019
:104c1000829fbe00849fbe00869fbe003400f800c5
:104c200000002000a00188000000fa000800070032
:104c30000080fa003400f9004f03be004f02be00ae
:104c40004f01be004f00be003600f90000400600d4
:104c50000000fa00d4cebf000080fb0002188000e4
:104c60008000400040eb20000080400002087800f7
:104c7000d4cebf000040e800d4eeb700d4cebf00d1
:104c8000ef4f5000020036000040eb00d4eeb700ba
:104c9000d4cebf003200070085a0a9000080fa0032
:104ca000000006000200fa00000f780040168000a5
:104cb0001e007000401688009e80ea006019800087
:104cc000008060006019880028e3a9000040eb0024
:104cd000230007002223a90023c3bf007f406000f8
:104ce00023e3b70025e3a900f0c1b30024e3b70034
:104cf000013220009140780000ceb30000c0700067
:104d000020e3b70025c3bf00f041b30025e3b7009f
:104d10000080fa00000006000000fa0021322000a6
:104d200091407800c0c3b30000c0700022e3b70018
:104d300021e3a80085a0a900a10a200091407800e5
:104d4000f0c8b30000c0600001c3b30001407000b0
:104d5000aae0b70095a0a8000080fa0000000600b5
:104d60000200fa00004f78009e4078007fc060008b
:104d70007f416000813220009140780000ceb30076
:104d800000c060000240700028e3b7000080fa0015
:104d9000000006000400fa00004f78001107980098
:104da00032c1b3008040eb001e40780041f607009e
:104db0001e0090001c0007000080fa0000000600a2
:104dc0000800fa00881f7800008fbe00787a800003
:104dd0006140b900d6ed0700200798003107980020
:104de0000800e00007003d000200200003782400d6
:104df0002e009000be009000f9ed070020079800fb
:104e0000310798001e01be002e009000be009000e9
:104e100050ee070083ee0700000d88004f04780075
:104e20000080fa00000006000200fa00000f78007f
:104e30009e007800007d20000088b900707a88000c
:104e4000707a8000f00c88006000b800dcff07007a
:104e50009cc1bf00f041b3009ce1b7009ce1a900f8
:104e6000a11920009140780080cfb30000c06000fd
:104e70006040b3009ae1b700b1192000914078007a
:104e800030ceb30000c060009be1b7000200070015
:104e90000080fa00000006000000fa000111200066
:104ea00091407800f0ccb30000c060000044a00046
:104eb00010e1b7000080eb006008880011e1a80055
:104ec0000080fa00000006000600fa0020079800a3
:104ed0000000eb00100798000a0037000000eb000c
:104ee000000f7800010037001e0fe8002e00900030
:104ef0009e0f1000fcff39001e0090000000e8002b
:104f0000100798009e009000f0c72000808f50008e
:104f1000f2ff36000080fa00000006000c00fa00e4
:104f2000889fbe001007980021079800320798005c
:104f300043079800540798009e0090002e009000b0
:104f400000805000cf80de0079ed07000004be0035
:104f5000be0090002e00900000805000cf80de0048
:104f600073ed07000001be000800be0048ee070018
:104f70000004be00de0090004e0090000080500053
:104f8000cf80de006aed07000001be000800be0011
:104f9000f0ed07000004be004e009000cf80de0060
:104fa00063ed07000001be000800be008ced0700a5
:104fb0001cee0700000f78005e0090009e0f50006e
:104fc000030031005e009000000f780005003700fc
:104fd0004e0090009e0f5000020036004e009000e0
:104fe000000f78001e0078004f04be000080fa0019
:104ff000000006000000fa000400070040a7a80017
:105000001d0007000060fe00fdff37000000fa00f1
:10501000101780007f006000607a8800a0fa070007
:10502000607a800000017800f00f200080006100ad
:1050300038cfbf00604060000140700038efb7001b
:10504000c810de0039cfbf00604060000140700032
:1050500039efb700607a8000ef0f50000100320096
:10506000010037002dfc0700deee070075f5070094
:105070000080fa00000006000000fa00607a80005c
:10508000ef0f500001003200010037003bfc070029
:0c50900092fa07000080fa000000060001
:00000001FF
