:020000040000fa
:080000002004040000000000d0
:020000040000fa
:10084000af7d2100207f240000018800000000000f
:100850000c00070080522400010020001f00070048
:10086000000020000000e000020032000000020052
:1008700000000000684e0200000000000040da00a6
:100880000000fe004440a900c00a20000000e00073
:100890000300320000002000a00188004440a800ae
:1008a00000000600f03fb1000180b10006003500f5
:1008b000ee03090000000000403fb1000180b100dc
:1008c000fbff3d001000b000203fb00002003500eb
:1008d000008009000000000000000600910188006f
:1008e000800078000000eb0015003700e280400037
:1008f00032a0b4009101ba00e280400032a0b400fe
:100900009102ba00e280400032a0b4000002eb0085
:10091000472bde00f507b200602ce10004003a002e
:100920000059eb008301e900fdff3e0004003700a1
:100930006128e100010032000082eb0004000700a2
:100940001101ba000200e000e8ff3a0000000600d2
:100950003159ba008301e9000c0032002159ba0074
:100960008301e900080032000400e00003003a00bf
:10097000e280400032a0b400f5ff370011d9ba0080
:100980008301e900faff3a008100e800e1804000bd
:1009900032a0b400000006004a2704000000000056
:1009a0006c54040000000000041704000000000064
:1009b000c41c0400000000003200f800910188000f
:1009c000023b88000008bb000500fc005105200028
:1009d000313b8800a10a2000313b880061e7a80074
:1009e00000000000000000003200f90000000600d6
:1009f0000400a100010037000400a0003200f8004c
:100a00009101880011002400013b8800f10f2000b3
:100a10003208bb000400a700b20078000198bb00b8
:100a20008301e900faff3a00680151000400a700c1
:100a300068015100680050001208bb00e2ff370057
:100a4000f30f20003200f8009101880031002400eb
:100a5000013b88000208bb000388bb00daff3700b7
:100a60003200f800003b8800d7ff3700889fbe00a7
:100a70008a9fbe00010578000100e00004003500f7
:100a800008003c000000e0002000320005003700b4
:100a900060001000e080180002003b0001f02c0014
:100aa0001a0037000004be006011b8006b09200076
:100ab0000982cf00020039000882cf000441b00053
:100ac000694252000e00320008003b008281710032
:100ad000610164008904d1000884d3008b05e8001b
:100ae0000442e800f9ff3a0005003700080444001a
:100af00089844c008b05e9000442e900fbff3a00c1
:100b0000d90007000af0a70001f0a0004f05be00c1
:100b10004f04be0000000600889fbe008a9fbe00f2
:100b20008c1f7800f6000700fd00330003866c0080
:100b30006450e1002e0032006420e10033003200f6
:100b40006150e1002f0032006120e10031003200ed
:100b500085855500eb07b00009002000080420003f
:100b6000050037000804440089844c000a00310065
:100b70000603430087834b000001530081815b0023
:100b8000f8ff33000203be000800a0000804440080
:100b900089844c00f6ff3900c639dd0083017300fb
:100ba00001003200130020008904d1000884d30022
:100bb0000998a300050032000800a7000300a00068
:100bc0008904d1000884d3008b05e8008904d10092
:100bd0000884d3000001eb000281d200a2000700cc
:100be00001f0a1000cf0a70001f0a000d500370033
:100bf0006420e100d70032000801be000200be0000
:100c0000f7ff37006120e100d20032006000b80039
:100c1000f3ff37000000200001f82700f0ff370045
:100c200003f0a200889fbe008a9fbe008c1f780040
:100c3000b3000700ba0033006450e1004f003200f7
:100c40006420e1005200320003826c0007003b0088
:100c50000905d0000306d000820f54000c065d0089
:100c60000200390002003200890178000306780092
:100c70008582550004003d000003fd008103fd0056
:100c80008502ea008b854200840f720002003b005f
:100c900060001000e08018006011b8000005eb0053
:100ca0007a28e1000a00390006007800c75ddd00ff
:100cb000f707b200878075002d0037008281710030
:100cc0000a017800610560008180d1000080d300b6
:100cd0008502e900f9ff3b000604400087844800d4
:100ce00002003b0060041400e0841c000988a3009b
:100cf000070032008a817100828171006101640005
:100d00008904d1000884d3008b05e8001700370060
:100d10000978a30013003a000b00e0001300340030
:100d20008b05e9000804440089844c000a447400df
:100d30000978a3000d003a000b00e0000700340022
:100d40008b05e9000804440089844c0001003a0046
:100d50000b0020000978a300f7ff32000001eb0030
:100d600002003700828171000a0178003e0007000e
:100d70000cf0a70001f0a000720037006420e10031
:100d800002003a00838f6c00720033000801be003d
:100d90000200be006b003700889fbe008a9fbe0025
:100da0008c1f7800560007005d00330003866c003e
:100db0006450e100240032006420e100270032008a
:100dc0006150e100220032006120e1002100320088
:100dd0008b854200eb07b1000134b800003ab8003f
:100de0000804420089844a00013ab8000030b80083
:100df0008880400009014a000400330000004000e0
:100e000081804800020149008b05e900c909dd0025
:100e1000830170000100320013002000c814de00be
:100e20004814dd004709de001200b200c808de00e9
:100e3000088470000c00070001f0a1000cf0a7006e
:100e400001f0a0003f0037006120e10041003200c6
:100e50000801be000200be00f7ff37006150e1004c
:100e6000fcff3a003b003700810020006180550004
:100e70000b003d000b00200061fe2f000100e1008f
:100e80001d00340082817100610164008904d10079
:100e90000884d3000000e800faff3a007100200047
:100ea000610064000300700002006000090032006d
:100eb00061044400e0844c000988a500050032006c
:100ec0008b05e8006808e10002003a008904d100bf
:100ed0000884d300f20f20000258e10005003d0015
:100ee000c75ddd00f907b200898075000800780051
:100ef000000006000bf827008b00780000000500ba
:100f00000004be00160007000003be000405be007a
:100f10000200be0012000700844f750000000600aa
:100f20000200be006450e100050036006420e100cc
:100f3000020036000968a30001003a000800be0064
:100f40000160a0004f0678004f05be004f04be00b0
:100f500000000600f0ff2f00f1ff2700f9ff370027
:100f6000c70ade00f107b200f50fb2000800320038
:100f7000e1cf4200020032000170a0002400050011
:100f8000810f7000010032000408050044000500d4
:100f9000810f700002003a00140005008502e9008c
:100fa0000000400081c04800fcff3b000170a00031
:100fb0002400050016c2bf000008a300fdff3a0090
:100fc00016c2bf000018a300faff3a0016c2bf0005
:100fd0000028a300f7ff3a0016c2bf000038a300a4
:100fe000f4ff3a0016c2bf000048a300f1ff3a0028
:100ff00019c2bf000068a300eeff3a00000006001f
:101000001602a800000006000080fb009010880077
:1010100018c2bf0001c8b300014060000080fb009f
:101020000000e9004f00de000000e90000000600bb
:101030001622a800000006001662a80016c2bf0013
:101040000038a300fdff3a0018c2a90080108000fc
:101050000080fb000000060016a2a9001682a8006e
:101060000000060016a2a8001682a80000000600d4
:101070001642a800000006002110880030108800e9
:101080000000060006c2bf000008a300fdff3a00f2
:1010900006c2bf000018a300faff3a0006c2bf0054
:1010a0000028a300f7ff3a0006c2bf000038a300e3
:1010b000f4ff3a0006c2bf000048a300f1ff3a0067
:1010c00009c2bf000068a300eeff3a00000006005e
:1010d000a1108800b0108800000006000602a800d9
:1010e000000006000080fb001010880008c2bf004e
:1010f00001c8b300014060000080fb000000e9006f
:101100004f00de000000e900000006000642a800d3
:10111000000006000662a80006c2bf000038a30057
:10112000fdff3a0008c2a900001080000080fb000b
:101130000000060006a2a8000682a8000000060023
:1011400076c2bf000008a300fdff3a0076c2bf00d0
:101150000018a300faff3a0076c2bf000028a300df
:10116000f7ff3a0076c2bf000038a300f4ff3a0050
:1011700076c2bf000048a300f1ff3a0079c2bf0069
:101180000068a300eeff3a00000006007602a80007
:10119000000006000080fb009013880078c2bf00aa
:1011a00001c8b300014060000080fb000000e900be
:1011b0004f00de000000e900000006007642a800b3
:1011c000000006007662a80076c2bf000038a300c7
:1011d000fdff3a0078c2a900801380000080fb0068
:1011e0000000060076a2a8007682a8000000060093
:1011f0007622a8000000060076a2a9007682a80048
:10120000000006008001eb000200370061f0790069
:101210008301e800828f5100fcff3a0000000600c5
:101220000400fa00e0bf9f00e481570081297800a4
:101230000002eb000f0037006fb897009040780075
:101240007fb89700104078000402e80080cf50007b
:10125000040032008180fb000080fb000080500011
:10126000070037006fb897000000e800e0bf9f005c
:101270009309e800820f5200efff3a000000eb00f4
:101280000080fa000000060000027800808f500005
:101290000a00310082814000808f51000700360033
:1012a000020240008000eb00436278008100e80009
:1012b000828f500007003200fbff37000200e00081
:1012c0000400320002814000315a7800828f5000c1
:1012d000fdff3a00000006008001eb00020037002d
:1012e000817178008301e800828f5100fcff3a0091
:0412f00000000600f4
:020000040000fa
:020000040005f5
:0457f8009e430000cc
:020000040000fa
:020000040005f5
:0457fc00fd1e00008e
:020000040000fa
:10000800e2030000e2030000e2030000e203000054
:10001800e2030000e2030000e2030000e203000044
:10002800e203000030550000e203000072540000b3
:10003800e203000056550000e20300009854000057
:10004800be540000e2030000e20300003a5600003c
:100058006056000014560000e2030000e2030000ae
:10006800e203000086560000e2030000b62a000002
:10007800e2030000e2030000e2030000e2030000e4
:10008800e2030000e2030000e2030000e454000081
:100098000a550000e2030000e2030000e20300004a
:1000a800e2030000e2030000e2030000e2030000b4
:1000b800e20300007c550000a2550000c85500006e
:1000c800ee550000e2030000e2030000e203000036
:1000d800e2030000e2030000e2030000e203000084
:1000e800e2030000e2030000ac560000e203000057
:1000f800e2030000e2030000e2030000e203000064
:10010800e2030000e2030000e2030000e203000053
:10011800e2030000e2030000e2030000e203000043
:10012800e2030000e2030000e2030000e203000033
:10013800e2030000e2030000e2030000e203000023
:10014800e2030000e2030000e2030000e203000013
:10015800e2030000e2030000e2030000e203000003
:10016800e2030000e2030000e2030000e2030000f3
:10017800e2030000e2030000240a0000e20300009a
:10018800e2030000e2030000e2030000e2030000d3
:10019800e2030000e2030000e2030000e2030000c3
:1001a800e2030000e2030000e2030000e2030000b3
:1001b800e2030000e2030000e2030000e2030000a3
:1001c800e2030000e2030000e2030000e203000093
:1001d800e2030000e2030000e2030000e203000083
:1001e800e2030000e2030000e2030000e203000073
:0801f800e2030000e203000035
:020000040000fa
:10020800e2030000e2030000e2030000e203000052
:10021800e2030000e2030000e2030000e203000042
:10022800e203000030550000e203000072540000b1
:10023800e203000056550000e20300009854000055
:10024800be540000e2030000e20300003a5600003a
:100258006056000014560000e2030000e2030000ac
:10026800e203000086560000e2030000b62a000000
:10027800e2030000e2030000e2030000e2030000e2
:10028800e2030000e2030000e2030000e45400007f
:100298000a550000e2030000e2030000e203000048
:1002a800e2030000e2030000e2030000e2030000b2
:1002b800e20300007c550000a2550000c85500006c
:1002c800ee550000e2030000e2030000e203000034
:1002d800e2030000e2030000e2030000e203000082
:1002e800e2030000e2030000ac560000e203000055
:1002f800e2030000e2030000e2030000e203000062
:10030800e2030000e2030000e2030000e203000051
:10031800e2030000e2030000e2030000e203000041
:10032800e2030000e2030000e2030000e203000031
:10033800e2030000e2030000e2030000e203000021
:10034800e2030000e2030000e2030000e203000011
:10035800e2030000e2030000e2030000e203000001
:10036800e2030000e2030000e2030000e2030000f1
:10037800e2030000e2030000240a0000e203000098
:10038800e2030000e2030000e2030000e2030000d1
:10039800e2030000e2030000e2030000e2030000c1
:1003a800e2030000e2030000e2030000e2030000b1
:1003b800e2030000e2030000e2030000e2030000a1
:1003c800e2030000e2030000e2030000e203000091
:1003d800e2030000e2030000e2030000e203000081
:1003e800e2030000e2030000e2030000e203000071
:0803f800e2030000e203000033
:020000040000fa
:1004000000000000000000000000000000000000ec
:1004100000000000000000000000000000000000dc
:1004200000000000000000000200fa004097800079
:10043000000f780060c42000800078001e00780063
:10044000110098009e00780000ccb300804878002e
:100450001e0078001040900002c4b300824060008b
:100460001e007800114098001e0078009040900017
:1004700080c8b30080c070001e0078001140980052
:10048000802e210080007800802e2100104078000e
:100490000024a200804878001e0078000080fa0046
:1004a000000006001000fa005007980000402000ed
:1004b0000100200030079800410798005e0090007e
:1004c0004600dd006101b8003e009000ce009000c3
:1004d0000200400083804800100798002107980020
:1004e0001e009000ae009000f21f200003002000cc
:1004f0000002780081027800020078008300780012
:1005000000016200018062006102b8006407980087
:10051000750798006e009000fe009000c000dd009e
:100520000000200060079800710798006e0090009e
:10053000fe0090006112b8006407980075079800eb
:100540006e019000fe019000020070008380700038
:10055000e00f5000e08f580004003a001e009000a9
:10056000ae00900022042400130107000000eb00fd
:10057000000f78000f00370046ccbf000081fb0061
:100580001e0078006300b900000041001002be00a8
:100590001e0078006101b8001e009000ae009000bf
:1005a00002004000838048000401be0025010700ce
:1005b0001e0fe800f00320009e0f1000eeff360033
:1005c0000080fa00000006000200fa0042c0bf00ee
:1005d0007f40600001c6b3000140700042e0b700f8
:1005e0000000eb00000f78008fff0700e08f88000d
:1005f0008ac4bf00684060000004e00019003200b7
:100600008000200050248800e08f80000000e0007f
:1006100006003200e08f80009040900000c8b300d8
:1006200000c060000004e0000e003a001e007800e8
:100630001e0fe8009bff07001e0078004600dd004b
:100640006101b800e04c21001000be00800f510095
:10065000818f5900010039000000fe0072ff070081
:0c066000e08f88008ec0a900e1ff370089
:020000040000fa
:10080000526f0000626f00007465000078200000e5
:1008100046690000726d000077610000726500009b
:100820002062000065670000696e00007320000010
:1008300068650000726500000a0d000000000000fd
:020000040000fa
:10066c0009020000200000000101000000c0000091
:10067c00320900000400000000020000ffff00002f
:10068c00ff0000000705000001010000ffff000053
:10069c00010700000581000001ff0000ff010000c0
:1006ac0004030000010000001a03000052000000c7
:1006bc006f000000620000006f000000740000007a
:1006cc0065000000580000002c0000002000000015
:1006dc00490000006e000000630000002c030000c5
:1006ec004a000000750000006c00000020000000b3
:1006fc00320000003000000020000000320000003a
:10070c00300000003100000032000000200000002a
:10071c0031000000390000003a00000034000000f5
:10072c00360000003a0000003200000039000000e2
:10073c000000000036830000568300005a8300003e
:10074c00748300004a7500006c20000032300000f9
:10075c00203200003031000032000000313900003e
:10076c003a340000363a0000323700000000000036
:10077c0000000000244700005047000047410000e3
:10078c00000000000000000000000000000000005d
:10079c0000000000800000000000000000000000cd
:1007ac0000010000bfff0000ffff0000ffff000082
:0807bc00ffff0000ff00000038
:020000040000fa
:1012f4000200fa009ec0a900f00f200070248800ac
:10130400f00f2000502488002000200030258800a1
:101314000000eb00402588008644a900f009200065
:1013240080248800f0092000602488008804a80034
:10133400002021004800de00c02488009424a80076
:101344000000eb00b02488000000eb00602588005a
:101354009424a9000040eb00004f780007003700f8
:101364001e80fb00c200dd0000202100008140003f
:101374006000b8000089be001e4fe80070c0b300d2
:101384009e4f1000f6ff3600d00020005025880044
:101394000200370080002000502488008ac4bf0067
:1013a400684060000004e000faff3a000040eb00ef
:1013b400ccf2b7000040eb00d7f2b700d8d2bf00a0
:1013c40060406000d8f2b700d9d2bf00604060002e
:1013d400d9f2b70094a4a9000040eb00004f7800b4
:1013e4000d0037001e80fb0080004000c02d21004e
:1013f400808040000000eb00800878001e80fb0025
:1014040080004000602e2100808040000000eb003e
:10141400800878001e4fe80010c0b3009e4f1000f3
:10142400f0ff360080202100e09688000040eb00a9
:10143400d4f2b7000000eb00909688000080fa0018
:10144400000006003600f800809fbe00829fbe00a8
:10145400849fbe00869fbe003400f8000000200078
:10146400a00188000200fa0090968000e10f50006d
:101474000a003a0094c4bf000044b2000004e00033
:1014840006003a00f00f2000502488008c04a800c5
:101494008c84a800200020009096880080c4bf009f
:1014a400704060000004e0000700320082c4bf0006
:1014b400704060000004e0000300320000012000de
:1014c40000248800a200070088c4bf0062406000b6
:1014d4000004e000020032008ec0a900730037004f
:1014e4008ac4bf00614060000004e00018003200bc
:1014f4008cc4bf00614060000004e00014003200ae
:101504007bff07009ec0a800400020009096880042
:10151400602f21001090880080c0b30000f2b70053
:10152400112021009140780030c0b30000c0600059
:1015340001f2b7001120210091407800c0c8b30027
:1015440000c0700001f2b700100020005024880091
:101554008ac4bf00704060000004e000070032004d
:101564008cc4bf00704060000004e000030032003f
:101574006d00070000012000502488008ac4bf00c9
:10158400644060000004e0000a0032008cc4bf0024
:10159400644060000004e0000600320012002000f5
:1015a4008000eb0030072000662307004000200085
:1015b400502488008ac4bf0001c8b3000140600001
:1015c4000004e000060032008cc4bf0001c8b30070
:1015d400014060000004e000010032003b0007000d
:1015e4008ac4bf00624060000004e0000a003200c8
:1015f4008cc4bf00624060000004e00006003200ba
:10160400120020008000eb00f0ff27004d230700ac
:10161400f00f20007024880090968000e30f5000a3
:1016240002003e008ec0a900200037008cc4bf0019
:10163400684060000004e0001b0032000040eb0042
:10164400004f7800150037008ac4bf00684060006e
:101654000004e0001400320090248000eef2b70091
:101664008000200050248800eed2bf008080fb0060
:10167400000f2000008060000000e00002003a003b
:101684003d00070004003700e12e21000001eb00bb
:10169400200720002b2307001e4fe80030c0b300b2
:1016a4009e4f1000e8ff36008ec0a9000080fa00ab
:1016b4003400f9004f03be004f02be004f01be00cc
:1016c4004f00be003600f900004006000000fa009a
:1016d400aac4bf00624060000004e0000e003200b3
:1016e400109780009040900000c8b30080cf500055
:1016f40008003a00e09680009040900040c8b30093
:1017040080cf500003003a0011978000c0c8b30096
:1017140090409800aa24a9000008200050248800c2
:101724000080fa00000006000000fa008284a8008d
:1017340000012000502488000001eb008000eb0031
:1017440050072000ff2207000080fa000000060076
:101754000000fa000001eb008000eb0040072000cd
:10176400f82207008284a9000001200000248800d8
:101774000080fa00000006000200fa00eed2bf006a
:101784008080fb00b0ff2f00008060000000e000bc
:1017940035003a00eed2bf008080fb00c00f20006d
:1017a400008060004280de004200dd00800078009e
:1017b40000202100008040001097880010978000ce
:1017c40020978800412e2100402e210010407800ef
:1017d4000024a200804878001097800010409000f8
:1017e400c2c3b3008240600040c3b30080cf500046
:1017f4001b003a001097800090009000e02f210019
:10180400808f500014003a0011978000602f21004f
:10181400900098000040eb00004f78000b00370068
:101824001e80fb0080007800602f210000814000b2
:101834001e80fb0080007800e02f21000080400023
:1018440010407800004978001e4fe80070c0b300d3
:101854009e4f1000f2ff36000c000700090037000d
:101864002800070007003700eed2bf008080fb008d
:10187400b0ff2f0000806000e80f500001003a0024
:10188400380007000080fa00000006000000fa009b
:10189400e09680009040900000c8b30000c0600053
:1018a4000004e00003003200e19680000040eb00f9
:1018b400904098000040eb00eaf2b7000040eb00d3
:1018c400ebf2b700cdd2bf0060406000cdf2b700ac
:1018d400ced2bf0060406000cef2b7000040eb0003
:1018e400ccf2b700780007000001eb008000eb00a9
:1018f40030002000932207000e0207000080fa0047
:10190400000006000000fa00ebd2bf00e24f5000d6
:1019140002003a00110307001000370046000700d8
:10192400809780000000e0000a003a0021978000c0
:1019340080c0b3008048780021978000602f210088
:101944009000980021978000c0c8b3009040980090
:10195400020037000000eb00809788000080fa0046
:10196400000006000200fa00e0968000104090009b
:101974000080fb004600de0061406000004f7800fc
:10198400c12d2100c02d2100104078000024a200a8
:101994008048780090968000e80f50000b003a00d1
:1019a400f8d2bf000080fb00b0248800b02480007f
:1019b4000000e0000300320000012000909688003f
:1019c400020037004000200090968800ebd2bf0050
:1019d400e14f500015003a00e1968000e02f21000d
:1019e400900098005c020700ead2bf00e24f50006a
:1019f40004003a00e196800040c8b300904098008b
:101a04000b0037001e04e00004003a00e196800059
:101a140080ccb3009040980005003700e196800028
:101a240080c8b3009040980001003700020007000e
:101a34000080fa00000006000200fa000040eb00fb
:101a4400ebf2b700e19680000040eb009040980074
:101a5400e09680000020a200000f78009e0078002d
:101a64000040eb0090409800712d210091407800d7
:101a740000c8b30000c060000004e00010003200a1
:101a8400dad2bf008080fb00dbd2bf000080fb0005
:101a94004800dd00010070000000e0000700320093
:101aa400dad2bf008080fb00dbd2bf000080fb00e5
:101ab4004800dd000100700000000100d7f2a90019
:101ac4000080fa00000006000400fa00f6d2bf000d
:101ad4000046b2000004e00058003a00f7d2bf000c
:101ae4000080fb006101b900028fbe00b00020003d
:101af400010020001e01be00800f5100818f59009b
:101b04004e003e001e00be000060010024003700ad
:101b1400250037004900370023003700470037000d
:101b24000600370009003700400037000b0037007b
:101b3400080037001e00370033003700ccf2a8003d
:101b440080002000909688003c003700a400070025
:101b54003a0037000003070038003700422d210007
:101b6400f00f200080006100cad2bf006040600016
:101b740001407000caf2b700c810de00cbd2bf002b
:101b84006040600001407000cbf2b700cc12a800a6
:101b940010c0b300cdf2b700ccf2a8002700370084
:101ba4000e01070025003700260007002300370038
:101bb400fad2bf000080fb0080007800002e2100d4
:101bc4000080400000017800f00f200080006100d8
:101bd400cad2bf006040600001407000caf2b70082
:101be400c810de00cbd2bf0060406000014070002e
:101bf400cbf2b700cc12a80010c0b300cdf2b700ee
:101c0400ccf2a8000d003700ccf2a800fad2bf0035
:101c14008080fb00822f210012417800002e2100d9
:101c24000080400002487800040037000001eb0007
:101c34008000eb0020002000c22107000080fa0091
:101c4400000006000400fa00f8d2bf00e14f500083
:101c54000d003a00f6d2bf007f4060000004e000af
:101c640009003a00ccf2a800f7d2bf00e34f5000bd
:101c740003003a001000200080968800020037001c
:101c84000000eb0080968800f8d2bf000004e0005a
:101c940051003a00f6d2bf007f406000e24f50008e
:101ca4004d003a00fad2bf006f4060000004e0002b
:101cb40049003200ccf2a800fad2bf0001c8b30038
:101cc400014060000004e00009003a00fad2bf00bd
:101cd4006f4060000080fb0080004000602e210007
:101ce40000804000100078001007980008003700ba
:101cf400fad2bf006f4060000080fb00800040000b
:101d0400c02d2100008040001000780010079800ca
:101d1400f7d2bf00e34f500004003a009e00900049
:101d240040c8b300904098002b003700fad2bf009f
:101d34006f4060000080fb000000400080007800dd
:101d4400a04a200000804000000f78001e007800a8
:101d540090407800d0cfb30080c060001e007800af
:101d640001487800a12f21009140780000c8b300f9
:101d740000c060000004e0000c0032009e009000ef
:101d84000040eb00904098008e80e8000e80e80050
:101d9400104078000024a200804878009e00900043
:101da40000c4b300904098000b0037009e009000e0
:101db40080c8b300904098008e80e8000e80e80050
:101dc400104078000024a200804878009e00900013
:101dd40080ccb300904098000080fa000000060018
:101de4000200fa00612f21009140780000c8b3007e
:101df40080cf500077003a0000ccb300ccf2b7009b
:101e0400f9d2bf000080fb00000f78001e007800ac
:101e1400e20f50001b0032001e007800e30f500058
:101e24003e0032001e007800e10f50000100320035
:101e34006600370002362100f00f200080006100a8
:101e4400cad2bf006040600001407000caf2b7000f
:101e5400c810de00cbd2bf006040600001407000bb
:101e6400cbf2b700cdd2bf00604060002041b30088
:101e7400cdf2b700ced2bf0060406000cef2b70012
:101e840054003700f8d2bf000080fb00000040007f
:101e940080007800003a280000804000100178009b
:101ea400f00f200080006100cad2bf0060406000d3
:101eb40001407000caf2b700c810de00cbd2bf00e8
:101ec4006040600001407000cbf2b700cad2bf008e
:101ed4008080fb00cbd2bf000080fb004800dd0007
:101ee400010070000080e80010017800f00f20006d
:101ef40080006100cdd2bf006040600001407000ee
:101f0400cdf2b700c810de00ced2bf006040600042
:101f140001407000cef2b7002e003700f8d2bf00a7
:101f2400e24f500026003e00f8d2bf000080fb00c4
:101f34000000400080007800203a28000080400023
:101f440010017800f00f200080006100cad2bf00a9
:101f54006040600001407000caf2b700c810de00a3
:101f6400cbd2bf006040600001407000cbf2b700ec
:101f7400cad2bf008080fb00cbd2bf000080fb0030
:101f84004800dd0001007000104078000081fb0073
:101f9400f00f200080006100cdd2bf0060406000df
:101fa40001407000cdf2b700c810de00ced2bf00f1
:101fb4006040600001407000cef2b70005003700b9
:101fc4000040eb00ccf2b700020037000040eb0009
:101fd400ccf2b7000080fa00000006000400fa000a
:101fe4000040eb00fef2b7000040eb00fff2b70048
:101ff400f6d2bf007f4060000080fb00100798000d
:102004001e009000e10f5000120032001e009000ec
:10201400e20f5000110032001e0090000000e000aa
:10202400010032002d003700ccf2a800fed2bf0020
:102034000004a000fef2b70080968000e10f50007b
:1020440026003a00fed2bf000014a000fef2b70042
:1020540022003700ccf2a80020003700ccf2a80000
:10206400fad2bf0001c8b300014060000004e000e0
:1020740009003a00fad2bf006f4060000080fb0004
:1020840080004000602e2100008040001000780095
:10209400000f780008003700fad2bf006f406000dc
:1020a4000080fb0080004000c02d21000080400023
:1020b40010007800000f78001e0078001040900097
:1020c4000080fb004200de00610060000004e000cc
:1020d4000200320010c0b300fef2b700ccd2bf0041
:1020e40001c8b300014060000004e0000f003200aa
:1020f400e22f2100f00f200080006100cad2bf004f
:102104006040600001407000caf2b700c810de00f1
:10211400cbd2bf006040600001407000cbf2b7003a
:10212400cc12a80020c0b300cdf2b7000080fa00a2
:10213400000006000000fa0094a4a900ccd2bf005d
:1021440001c8b300014060000004e00024003a002c
:10215400d7d2bf0001c8b300014060000004e00012
:102164001200320020c0b300ebf2b700e196800009
:102174000040eb0080487800e196800080ccb300fa
:10218400904098002197800080c0b3008048780078
:1021940021978000e02f2100900098002197800073
:1021a40080ccb300904098006900370021978000ec
:1021b40080c0b3008048780021978000602f210000
:1021c4009000980021978000c0c8b3009040980008
:1021d400e196800040c8b300904098005c0037004e
:1021e400d7d2bf0001c8b300014060000004e00082
:1021f40057003a00f6d2bf0001c8b30001406000a6
:102204000004e00041003200fcd2bf008080fb00eb
:10221400fdd2bf000080fb004800dd00010070001b
:1022240000017800cdd2bf008080fb00ced2bf0079
:102234000080fb004800dd0001007000800f5100a9
:1022440012003100fcd2bf008080fb00fdd2bf0031
:102254000080fb004800dd000100700000017800f0
:10226400f00f200080006100cdd2bf00604060000c
:1022740001407000cdf2b700c810de00ced2bf001e
:102284006040600001407000cef2b70032000700e9
:1022940010c0b300ebf2b7002197800080c0b300f8
:1022a4008048780021978000602f210090009800da
:1022b4002197800000c8b300904098000000eb0014
:1022c400809788001197800080c0b3008048780010
:1022d40011978000602f21009000980011978000d2
:1022e40040c8b300904098001000200080978800f8
:1022f400e1968000e02f210090009800e196800094
:1023040080ccb300904098001100370020c0b30087
:10231400ebf2b700e19680000040eb0080487800c3
:10232400e196800080ccb300904098002197800013
:1023340080c0b3008048780021978000e02f2100fe
:10234400900098002197800080ccb30090409800c2
:102354000080fa00000006000200fa00cdd2bf009f
:102364008080fb00ced2bf000080fb004800dd006f
:1023740001007000e70f500013003e00cdd2bf00f3
:102384008080fb00ced2bf000080fb004800dd004f
:1023940001007000000f7800ead2bf000004e000e2
:1023a40003003a0010c0b300eaf2b7000800370097
:1023b400ead2bf00e14f500005003a0020c0b3004c
:1023c400eaf2b7000200370080002000000f780016
:1023d400e2968000e0968000904090001e409000bd
:1023e40000c0700010419800e19680001e40780003
:1023f40080487800cdd2bf008080fb00ced2bf00e1
:102404000080fb004800dd000100700080007800bf
:102414001e00780000815000f00f20008000610051
:10242400cdd2bf006040600001407000cdf2b70023
:10243400c810de00ced2bf006040600001407000d2
:10244400cef2b700e02f210060978800ccd2bf0005
:10245400614060000004e0003b003a001b003700cc
:1024640062978000cad2bf008080fb00cbd2bf003d
:102474000080fb004800dd0001007000800078004f
:1024840011407800004978000200e8006097880055
:102494000101e800f00f200080006100cad2bf00f3
:1024a4006040600001407000caf2b700c810de004e
:1024b400cbd2bf006040600001407000cbf2b70097
:1024c4001e0078000000e900000f78001e0078006c
:1024d4000000e000e2ff3a001e003700629780002f
:1024e400cad2bf008080fb00cbd2bf000080fb00bb
:1024f4004800dd0001007000800078001140780081
:10250400004978000200e800609788000101e800b3
:10251400f00f200080006100cad2bf00604060005c
:1025240001407000caf2b700c810de00cbd2bf0071
:102534006040600001407000cbf2b7001e007800dc
:102544000000e900000f78001e0078000000e000a1
:10255400e2ff3a000080fa00000006000200fa00e0
:102564001097800090407800114798001e4090001a
:102574000081fb00d8d2bf008080fb00d9d2bf000d
:102584000080fb004800dd0001007000800f510056
:1025940007003600d8d2bf008080fb00d9d2bf002c
:1025a4000080fb004800dd00010070001047980027
:1025b400d8d2bf008080fb00d9d2bf000080fb00ce
:1025c4004800dd0001007000800078001e4090008b
:1025d4000080fb0000815000f00f200080006100ab
:1025e400d8d2bf006040600001407000d8f2b7004c
:1025f400c810de00d9d2bf00604060000140700006
:10260400d9f2b7000040eb00004f78001900370002
:10261400d5d2bf008080fb00d6d2bf000080fb0073
:102624004800dd0001007000000178009e80fb007e
:10263400e02f21000080400010407800004978001d
:102644000201e800f00f200080006100d5d2bf0035
:102654006040600001407000d5f2b700c810de0091
:10266400d6d2bf006040600001407000d6f2b700cf
:102674001e4fe8001e4090009e4f1000e4ff3900fa
:10268400d8d2bf008080fb00d9d2bf000080fb00fd
:102694004800dd00010070000000e000130032007b
:1026a4002197800080c0b300804878002197800083
:1026b400e02f2100900098001097800010409000b7
:1026c4000044b2000004e00004003a0021978000b6
:1026d40080ccb300904098001d0037002197800003
:1026e40080c8b300904098001900370021978000fb
:1026f40080c0b3008048780021978000602f2100bb
:10270400900098002197800040c8b3009040980042
:10271400dad2bf008080fb00dbd2bf000080fb0068
:102724004800dd00010070000000e00007003200f6
:10273400dad2bf008080fb00dbd2bf000080fb0048
:102744004800dd000100700000000100d7f2a9007c
:102754000080fa00000006000200fa00ccf2a80093
:102764000000eb00602588000040eb00004f78007b
:10277400070037001e80fb00c200dd00002021009e
:10278400008140006000b8000089be001e4fe800d0
:1027940070c0b3009e4f1000f6ff36009424a800ca
:1027a4000040eb00e0f2b7009424a900802021004f
:1027b400e096880000202100109788001097800080
:1027c40020978800f8d2bf00d4f2b700d4d2bf005b
:1027d4000004e00003003a00000120009096880005
:1027e4000600370012002000412d210010002000b7
:1027f400d41e070000022000909688000080fa0092
:10280400000006000400fa002047980031479800b1
:1028140000202100000f78002e4090000080fb0073
:1028240000004000800078003e4090000080fb00e3
:10283400008040004300dd004200de004200dd0075
:102844001e0f40009e007800114090000074a1000b
:10285400904098003e4090000004e00007003a00d9
:102864002e4090000080fb0080004000602e21007c
:10287400008040001e087800060037002e409000bb
:102884000080fb0080004000c02d2100008040003b
:102894001e0878001e01780092409000f0cbb3002f
:1028a40000c06000104198001e00780064014000e0
:1028b4009240900000c4b30000c070001041980022
:1028c4000080fa00000006000400fa002047980087
:1028d400314798002e4090000080fb00000040002b
:1028e40080007800a04a200000804000000f78009b
:1028f4001e007800be409000014878003e409000e1
:102904000080fb004300de00610060000004e00082
:10291400030032008040eb002e409000b9ff070016
:102924003e4090000080fb004200de006100600039
:102934000004e0000300320011c0b3002e409000f8
:10294400b0ff07000080fa00000006000400fa004f
:1029540020479800314798002e4090000004e00082
:102964000d003a002197800080c0b30080487800b1
:1029740021978000602f210090009800219780000b
:10298400c0c8b30090409800e196800040c8b300ee
:1029940090409800230037002e4090000080fb00f8
:1029a40000004000800078003e4090000080fb0062
:1029b400008040004300dd008000780000202100fa
:1029c40000804000000f78001e00780090409000c6
:1029d40040c8b30080c070001e0078001140980009
:1029e4002e4090000080fb00000040008000780032
:1029f4003e4090000080fb00008040004300dd006a
:102a04008000780040202100008f40001e007800e4
:102a14009040900040c8b30080c070001e00780051
:102a2400114098000080fa00000006000a00fa0035
:102a34002047980031479800220798006347980080
:102a44003e4090000004e000070032002e40900059
:102a54000080fb0080004000c02d21000080400069
:102a6400100f7800060037002e4090000080fb0015
:102a740080004000602e210000804000100f78008c
:102a84001e00e00003003a000000eb00400798003d
:102a9400390037002e009000800078001e00780076
:102aa400110098001e007800ee4090000148780064
:102ab4001e0078001040900002c4b3008240600001
:102ac4001e007800114098001e007800904090008d
:102ad40080c8b30080c070001e00780011409800c8
:102ae4003e4090000004e000110032002e409000af
:102af4000080fb000000400080007800c02d210011
:102b040000804000000178002e4090000080fb000f
:102b14000000400080007800c02d210000804000ab
:102b2400104078000024a20000497800100037000b
:102b34002e4090000080fb000000400080007800e0
:102b4400602e210000804000000178002e4090009b
:102b54000080fb000000400080007800602e21000f
:102b640000804000104078000024a2000049780052
:102b74001e007800400798004e0090000080fa0084
:102b8400000006000600fa00004f780094c4bf005d
:102b94000042b2000004e0005f0032001e80fb002f
:102ba40080004000c02d2100008040001003780008
:102bb4001e80fb0080004000c02d210000804000ea
:102bc400100078001000be00020420000300200062
:102bd4000002780081027800020078008300780007
:102be40000016200018062006102b80014079800cd
:102bf400250798001e009000ae009000c000dd0084
:102c04000000200010079800210798001e00900083
:102c1400ae0090006112b8001407980025079800d0
:102c24001e019000ae0190000200700083807000cd
:102c3400008bbe001e80fb0080004000c02d2100e0
:102c440000804000100278001e80fb0080004000dd
:102c5400c02d210000804000100078001001be004b
:102c64000004200001002000000069008180690048
:102c7400008abe001e80fb00000040008000780037
:102c8400c02d210000804000000178001e80fb0060
:102c94000000400080007800c02d2100008040002a
:102ca400104078000024a200004978001e80fb0038
:102cb40080004000c02d21000080400010017800f9
:102cc4001e80fb0080004000c02d210000804000d9
:102cd40010007800104090000044b20010419800a9
:102ce4001e80fb0080004000c02d210000804000b9
:102cf400100178001e80fb0080004000c02d2100e0
:102d040000804000100078009040900000c4b300a0
:102d140000c06800104198000080fa00000006001e
:102d24000000fa000000eb00a02488000000eb0083
:102d3400602488000000eb00909688000080fa0070
:102d4400000006000000fa00909680000000e000f9
:102d540016003a000000eb00a02488000000eb00fd
:102d64006024880020002000302588000000eb004b
:102d7400402588008644a900f009200080248800aa
:102d8400f0092000602488009ec0a80001003700dc
:102d94009404a80094c4bf00614060000004e000f3
:102da400fbff320010002000909688000080fa009b
:102db400000006000000fa0000002100b0108800a6
:102dc40017e2a800f00f2000a01088004070210036
:102dd400409a8800a0c0b3004cf1b7009a40a90003
:102de40040cc2100109a8800000021003010880097
:102df40007e2a800f00f2000201088000080fa00ed
:102e0400000006000600fa008a40a90048d1bf006d
:102e14000004e000970032004cd1bf000080fb00aa
:102e24006101b9001207980023079800f000200000
:102e3400010020001e019000ae019000800f51009f
:102e4400818f5900c9003e001e009000ae00900022
:102e5400006001000f003700160037001c00370027
:102e640020003700280037002c0037003b003700d3
:102e74003f00370050003700540037005b00370034
:102e84005f003700660037006a00370071003700c2
:102e94007500370042d1bf000080fb0000004000f5
:102ea400901088004cd1bf000040e8004cf1b700fe
:102eb400ae00370049d1bf000080fb0090108800ad
:102ec4004cd1bf000040e8004cf1b700a700370028
:102ed4001622a8004cd1bf000040e8004cf1b70016
:102ee400a200370042d1bf000080fb000000400078
:102ef4000000e800901088004cd1bf000040e800ba
:102f04004cf1b700990037001662a8004cd1bf00fd
:102f14000040e8004cf1b7009400370080108000b6
:102f240043f1b7004dd1bf00e14f500005003a0016
:102f340016a2a8001682a800e0c0b3004cf1b700a6
:102f44008a00370016a2a9001682a8004cd1bf003f
:102f54000040e8004cf1b700840037001662a80076
:102f64004cd1bf000040e8004cf1b7007f003700af
:102f74008010800044f1b7004dd1bf00e24f5000f3
:102f840004003a0016a2a8001682a800e0c0b3000c
:102f94004cf1b7004dd1bf00e44f500073003a002c
:102fa40016a2a9001682a8004cd1bf000040e80078
:102fb4004cf1b7006d0037001662a8004cd1bf0079
:102fc4000040e8004cf1b700680037008010800032
:102fd40045f1b70016a2a9001682a8004cd1bf0083
:102fe4000040e8004cf1b700600037001662a8000a
:102ff4004cd1bf000040e8004cf1b7005b00370043
:103004008010800046f1b70016a2a9001682a8001d
:103014004cd1bf000040e8004cf1b700530037002a
:103024001662a8004cd1bf000040e8004cf1b70084
:103034004e0037008010800047f1b70016a2a800a8
:103044001682a8004cd1bf000040e8004cf1b70044
:10305400460037001642a8004cd1bf000040e800eb
:103064004cf1b7004100370010c0b3004af1b7007b
:103074003e0037004cd1bf000080fb00000f7800f9
:103084009e007800e28f5000230032001e01780079
:10309400e20f510007003c009e0178000300e000ad
:1030a4000e0032001e007800e10f500013003200c1
:1030b4002e0037009e007800e48f50002400320078
:1030c4001e017800e40f51001a0035009e017800bb
:1030d400e58f5100230032002400370042d1bf00a5
:1030e4000080fb0000004000901088004cd1bf001d
:1030f4000040e8004cf1b7001c00370049d1bf0084
:103104000080fb00901088004cd1bf000040e80014
:103114004cf1b700150037004ed1bf000080fb0012
:10312400901088004cd1bf000040e8004cf1b7007b
:103134000e0037004fd1bf000080fb0090108800c4
:103144004cd1bf000040e8004cf1b7000700370045
:103154001642a8004cd1bf000040e8004cf1b70073
:103164000200370010c0b3004af1b7000080fa0033
:10317400000006000a00fa000040eb00004f78004f
:103184004ed3bf004df3b7004ad1bf00e14f50000a
:10319400d8003a000040eb004cf3b7000040eb00cd
:1031a4004af1b7004ed3bf000080fb006101b900b3
:1031b4001207980023079800f00020000100200067
:1031c4001e019000ae019000800f5100818f5900c4
:1031d400c6003e001e009000ae009000006001009a
:1031e4000f0037002400370036003700480037004e
:1031f40055003700620037006f0037007c0037004d
:1032040089003700960037009b003700a000370084
:10321400a5003700aa003700ad003700b000370022
:103224003114210091407800a04b2100014878001e
:1032340044d1bf008080fb0045d1bf000080fb006b
:103244004700dd0000804000e0a5880046d1bf00b3
:103254008080fb0047d1bf000080fb004700dd00f9
:1032640000804000f0a588004ed3bf000040e80075
:103274004ef3b7009f00370043d1bf000080fb002e
:10328400c400dd0044d1bf000080fb004400de0028
:103294000080fb0000804000cf80de00f2f50700d4
:1032a4000200200003d82300baf60700b0a4880067
:1032b400c1a488004ed3bf000040e8004ef3b7001d
:1032c4008c00370043d1bf000080fb00c400dd0048
:1032d40044d1bf000080fb004400de000080fb00fe
:1032e40000804000cf80de00dff5070002002000f0
:1032f40003d82300a7f60700d0a48800e1a488001f
:103304004ed3bf000040e8004ef3b7007900370009
:1033140044d1bf000080fb00c800dd0043d1bf00e2
:103324000080fb0000804000cf80de00cef5070067
:10333400f0a4880001a588004ed3bf000040e80037
:103344004ef3b7006b00370044d1bf000080fb0090
:10335400c800dd0043d1bf000080fb0000804000b6
:10336400cf80de00c0f5070010a5880021a58800e5
:103374004ed3bf000040e8004ef3b7005d003700b5
:1033840044d1bf000080fb00c800dd0043d1bf0072
:103394000080fb0000804000cf80de00b2f5070013
:1033a40030a5880041a588004ed3bf000040e80046
:1033b4004ef3b7004f00370044d1bf008080fb00bc
:1033c40043d1bf000080fb004800dd0000804000c6
:1033d400cf80de00a4f5070050a5880061a5880011
:1033e4004ed3bf000040e8004ef3b7004100370061
:1033f40044d1bf008080fb0043d1bf000080fb00ac
:103404004800dd0000804000cf80de0096f5070014
:1034140070a5880081a588004ed3bf000040e80055
:103424004ef3b7003300370044d1bf008080fb0067
:1034340043d1bf000080fb004800dd000080400055
:10344400cf80de0088f5070090a58800a1a588003c
:103454004ed3bf000040e8004ef3b700250037000c
:1034640043d1bf0052f1b7004ed3bf000040e80083
:103474004ef3b7001f00370043d1bf0053f1b7002c
:103484004ed3bf000040e8004ef3b70019003700e8
:1034940043d1bf0054f1b7004ed3bf000040e80051
:1034a4004ef3b7001300370043d1bf0055f1b70006
:1034b4004ed3bf000040e8004ef3b7000d003700c4
:1034c4004ed3bf000040e8004ef3b70009003700b8
:1034d4004ed3bf000040e8004ef3b70005003700ac
:1034e4000040eb004ef3b700020037000040eb0051
:1034f4004ef3b7004cd3bf000004e000ab003a0029
:103504004ad1bf000004e000a8003a0010c0b30094
:103514004cf3b7004ed3bf000080fb006101b9003b
:103524003207980043079800f000200001002000b3
:103534003e019000ce019000800f5100818f590010
:1035440096003e003e009000ce0090000060010016
:103554000f003700160037001d0037002400370025
:103564002b003700320037003900370040003700a5
:10357400470037004e003700550037005c00370025
:10358400630037006a003700720037007a003700a2
:1035940030c0b3004cf1b70040c0b3004df1b700e8
:1035a4008040eb00d0c4b300bf0007007f003700a9
:1035b4000040eb004cf1b70020c0b3004df1b70060
:1035c4008040eb0090c4b300b700070077003700d9
:1035d4000040eb004cf1b70020c0b3004df1b70040
:1035e4008040eb0080c4b300af0007006f003700d9
:1035f4000040eb004cf1b70020c0b3004df1b70020
:1036040021c3b30030c5b300a7000700670037002b
:103614000040eb004cf1b70020c0b3004df1b700ff
:1036240041c3b30030c5b3009f0007005f003700fb
:103634000040eb004cf1b70020c0b3004df1b700df
:1036440061c3b30030c5b3009700070057003700cb
:103654000040eb004cf1b70020c0b3004df1b700bf
:1036640031c0b300e0c1b3008f0007004f00370042
:103674000040eb004cf1b70020c0b3004df1b7009f
:1036840051c0b300e0c1b300870007004700370012
:103694000040eb004cf1b70020c0b3004df1b7007f
:1036a40071c0b300e0c1b3007f0007003f003700e2
:1036b4000040eb004cf1b70010c0b3004df1b7006f
:1036c40091c1b30080c1b300770007003700370011
:1036d4000040eb004cf1b70010c0b3004df1b7004f
:1036e40011c0b30080c1b3006f0007002f00370082
:1036f4000040eb004cf1b70010c0b3004df1b7002f
:1037040081c1b30080c1b300670007002700370000
:103714000040eb004cf1b70010c0b3004df1b7000e
:10372400c1c1b30080c1b3005f0007001f003700b0
:103734000040eb004cf1b70020c0b3004df1b700de
:103744004207240051c1b30090c0b30062000700d7
:10375400160037000040eb004cf1b70020c0b30066
:103764004df1b70082bb200041c1b30090c0b3004b
:10377400590007000d0037000040eb004cf1b70082
:1037840020c0b3004df1b70082bb2000f1c3b300e9
:1037940090c0b30050000700040037000040eb0065
:1037a4004ef3b7000040eb004cf3b700e1342100c6
:1037b400914078004dd3bf0080cf500006003a00fe
:1037c400509a80000000e800509a88001000200001
:1037d400131b0700020037000000eb00509a88001a
:1037e400509a8000ea0f50000200360010002000ba
:1037f4000b1b0700519a8000800c2000808f500022
:10380400270036004ed3bf000040e8004ef3b70057
:1038140000c0eb0043f1b70000c0eb0044f1b70077
:1038240000c0eb0045f1b70000c0eb0046f1b70063
:103834000040eb004cf1b7008a40a9001662a900d1
:103844001682a9001642a9001622a9001602a90090
:103854000000eb00c010880080108000004f78004a
:103864000000eb00c01088000000eb00b0108800de
:103874000000eb00c01088009a40a9004006200018
:10388400e71a070017e2a8000040eb004af1b7006e
:103894000040eb004cf3b7000000eb00509a8800a6
:1038a4000080fa00000006000200fa00004f7800d1
:1038b400114798001e40780042f1b7001e40900066
:1038c40049f1b70010c0b30048f1b7001602a800d0
:1038d4000080fa00000006000400fa00004f78009f
:1038e40011479800120798001e40780042f1b70073
:1038f4001e40900049f1b7000040eb004cf1b700c6
:103904001e0090004ef1b7001e0090004800de003b
:103914004ff1b7000040eb0048f1b7001602a800d1
:103924000080fa00000006000000fa009a40a80097
:103934000001eb0021c0b300e0c1b300e6ff0700c3
:1039440040012000b61a070082002000d1c2b30053
:1039540030c5b300e0ff070040012000b01a0700a3
:10396400b200200011c3b30030c5b300daff070072
:1039740040012000aa1a07009a40a9000080fa001a
:10398400000006000600fa008620a90034d1bf001a
:103994000004e0009700320035d1bf000080fb0036
:1039a4006101b9001207980023079800f000200075
:1039b400010020001e019000ae019000800f510014
:1039c400818f5900c9003e001e009000ae00900097
:1039d400006001000f003700160037001c0037009c
:1039e40020003700280037002c0037003b00370048
:1039f4003f00370050003700540037005b003700a9
:103a04005f003700660037006a0037007100370036
:103a14007500370036d1bf000080fb000000400075
:103a24001010880035d1bf000040e80035f1b70020
:103a3400ae0037003ed1bf000080fb0010108800ac
:103a440035d1bf000040e80035f1b700a7003700ca
:103a54000622a80035d1bf000040e80035f1b700c8
:103a6400a200370036d1bf000080fb0000004000f8
:103a74000000e8001010880035d1bf000040e800c5
:103a840035f1b700990037000662a80035d1bf00b0
:103a94000040e80035f1b7009400370000108000c2
:103aa40037f1b7003fd1bf00e14f500005003a00a5
:103ab40006a2a8000682a800e0c0b30035f1b70052
:103ac4008a00370006a2a9000682a80035d1bf00eb
:103ad4000040e80035f1b700840037000662a80012
:103ae40035d1bf000040e80035f1b7007f00370052
:103af4000010800038f1b7003fd1bf00e24f500002
:103b040004003a0006a2a8000682a800e0c0b300a0
:103b140035f1b7003fd1bf00e44f500073003a00c5
:103b240006a2a9000682a80035d1bf000040e80023
:103b340035f1b7006d0037000662a80035d1bf002b
:103b44000040e80035f1b70068003700001080003d
:103b540039f1b70006a2a9000682a80035d1bf003a
:103b64000040e80035f1b700600037000662a800a5
:103b740035d1bf000040e80035f1b7005b003700e5
:103b8400001080003af1b70006a2a9000682a8003e
:103b940035d1bf000040e80035f1b70053003700cd
:103ba4000662a80035d1bf000040e80035f1b70037
:103bb4004e003700001080003bf1b70006a2a800b9
:103bc4000682a80035d1bf000040e80035f1b700f7
:103bd400460037000642a80035d1bf000040e80087
:103be40035f1b7004100370010c0b30041f1b70010
:103bf4003e00370035d1bf000080fb00000f780085
:103c04009e007800e28f5000230032001e017800ed
:103c1400e20f510007003c009e0178000300e00021
:103c24000e0032001e007800e10f50001300320035
:103c34002e0037009e007800e48f500024003200ec
:103c44001e017800e40f51001a0035009e0178002f
:103c5400e58f5100230032002400370036d1bf0025
:103c64000080fb00000040001010880035d1bf0028
:103c74000040e80035f1b7001c0037003ed1bf001a
:103c84000080fb001010880035d1bf000040e80020
:103c940035f1b700150037003cd1bf000080fb00b0
:103ca4001010880035d1bf000040e80035f1b7009e
:103cb4000e0037003dd1bf000080fb0010108800cb
:103cc40035d1bf000040e80035f1b70007003700e8
:103cd4000642a80035d1bf000040e80035f1b70026
:103ce4000200370010c0b30040f1b7000080fa00b2
:103cf400000006000200fa00004f78001147980007
:103d04001e40780036f1b7001e4090003ef1b70027
:103d140010c0b30034f1b7000602a8000080fa0016
:103d2400000006000400fa00004f780011479800d4
:103d3400120798001e40780036f1b7001e4090002c
:103d44003ef1b7000040eb0035f1b7001e009000d3
:103d54003cf1b7001e0090004800de003df1b700c2
:103d64000040eb0034f1b7000602a8000080fa001e
:103d7400000006000e00fa005ed3bf005df3b7003a
:103d840041d1bf00e14f500092003a005ed3bf0022
:103d94008080fb00f0342100808040000040eb0074
:103da400804878000040eb005cf3b7000040eb0073
:103db40041f1b7005ed3bf000080fb006101b90090
:103dc40012079800230798009000200001002000ab
:103dd4001e019000ae019000800f5100818f5900a8
:103de4007a003e001e009000ae00900000600100ca
:103df40009003700130037001d0037002700370083
:103e0400310037003b003700450037004f003700d2
:103e1400590037006300370037d1bf008080fb00b2
:103e240038d1bf000080fb004800dd000080400066
:103e340010aa88005ed3bf000040e8005ef3b7001c
:103e44006400370037d1bf008080fb0038d1bf0049
:103e54000080fb004800dd000080400090b5880031
:103e64005ed3bf000040e8005ef3b700590037009e
:103e740037d1bf008080fb0038d1bf000080fb0039
:103e84004800dd0000804000f0a988005ed3bf0038
:103e94000040e8005ef3b7004e00370037d1bf00a2
:103ea4008080fb0038d1bf000080fb004800dd00ab
:103eb4000080400000aa88005ed3bf000040e800f4
:103ec4005ef3b7004300370037d1bf008080fb00aa
:103ed40038d1bf000080fb004800dd0000804000b6
:103ee400b08a88005ed3bf000040e8005ef3b700ec
:103ef4003800370037d1bf008080fb0038d1bf00c5
:103f04000080fb004800dd0000804000b08f880086
:103f14005ed3bf000040e8005ef3b7002d00370019
:103f240037d1bf008080fb0038d1bf000080fb0088
:103f34004800dd0000804000c08a88005ed3bf00d6
:103f44000040e8005ef3b7002200370037d1bf001d
:103f54008080fb0038d1bf000080fb004800dd00fa
:103f640000804000c08a88005ed3bf000040e800a3
:103f74005ef3b7001700370037d1bf008080fb0025
:103f840038d1bf000080fb004800dd000080400005
:103f940080b588005ed3bf000040e8005ef3b70040
:103fa4000c00370037d1bf008080fb0038d1bf0040
:103fb4000080fb004800dd0000804000a08f8800e6
:103fc4000040eb005ef3b700020037000040eb0056
:103fd4005ef3b7005cd3bf000004e00074003a0055
:103fe40041d1bf000004e00071003a0010c0b300ea
:103ff4005cf3b7005ed3bf000080fb006101b90031
:104004003207980043079800900020000100200028
:104014003e019000ce019000800f5100818f590025
:104024005f003e003e009000ce0090000060010062
:104034000900370011003700180037001f0037004f
:10404400260037002d003700340037003b003700ce
:10405400430037004a003700ec62a9000040eb003f
:1040640035f1b70020c0b3003ff1b70091c0b300f1
:10407400b0c0b3001fff07004d0037000040eb0045
:1040840035f1b70020c0b3003ff1b700d1c0b30091
:10409400b0c0b30017ff0700450037000040eb0035
:1040a40035f1b70020c0b3003ff1b700e1c0b30061
:1040b400b0c0b3000fff07003d0037000040eb0025
:1040c40035f1b70020c0b3003ff1b700f1c0b30031
:1040d400b0c0b30007ff0700350037000040eb0015
:1040e40035f1b70020c0b3003ff1b70061c1b300a0
:1040f400b0c0b300fffe07002d0037000040eb0006
:1041040035f1b70020c0b3003ff1b700a1c0b30040
:10411400b0c0b300f7fe0700250037000040eb00f5
:1041240035f1b70020c0b3003ff1b70081c0b30040
:10413400b0c0b300effe07001d003700ec62a8001a
:104144000040eb0035f1b70020c0b3003ff1b700e9
:1041540081c0b300b0c0b300e6fe0700140037000e
:104164000040eb0035f1b70020c0b3003ff1b700c9
:10417400d1c0b300b0c0b300defe07000c003700ae
:104184000040eb0035f1b70020c0b3003ff1b700a9
:10419400a1c0b300b0c0b300d6fe070004003700ce
:1041a4000040eb005ef3b7000040eb005cf3b700a7
:1041b400e1352100914078005dd3bf0080cf5000ed
:1041c40006003a00d09a80000000e800d09a8800e7
:1041d4001000200092180700020037000000eb00d6
:1041e400d09a8800d09a8000ea0f5000020036006e
:1041f400100020008a180700d19a8000800c20004b
:10420400808f50002300360000c0eb0037f1b70068
:1042140000c0eb0038f1b70000c0eb0039f1b70083
:1042240000c0eb003af1b7000040eb0035f1b700f5
:10423400ec62a9006c0007005ed3bf000081fb00a4
:10424400f034210000004100104078008040e80074
:10425400f034210000004100014878000040eb00e8
:1042640041f1b7000040eb005cf3b7000000eb0045
:10427400d09a88005ed3bf000040e8005ef3b70028
:104284005ed3bf00ea4f5000020036000040eb004e
:104294005ef3b7000040eb00004f780041003700a8
:1042a4009e80fb00f0342100008040001040780024
:1042b400e54f50003a0036009e80fb00f0342100a8
:1042c400808040000040eb00804878001e80fb00a6
:1042d4006101b9005207980063079800900020001c
:1042e400010020005e019000ee019000800f51005b
:1042f400818f59002a003e005e009000ee0090007d
:1043040000600100090037000b0037000d00370082
:104314000f00370011003700130037001500370075
:1043240017003700190037001b0037000080eb002e
:1043340010aa88001a0037000080eb0090b58800ae
:10434400170037000080eb00f0a988001400370044
:104354000080eb0000aa8800110037000080eb0009
:10436400b08a88000e0037000080eb00b08f880010
:104374000b0037000080eb00c08a8800080037007b
:104384000080eb00c08a8800050037000080eb0045
:1043940080b58800020037000080eb00a08f880001
:1043a4001e4fe80091c0b3009ecf1000bcff360042
:1043b40081b5800040062000808f50000200360046
:1043c4000080eb0080b5880091b580004006200095
:1043d400808f5000020036000080eb0090b588000a
:1043e4000080fa00000006000000fa009620a900f0
:1043f40007e2a9000000eb00401088000000eb0079
:104404003010880040062000051807000000210035
:1044140030108800f00f20002010880007e2a80068
:104424009620a8000080fa00000006000a00fa00a6
:10443400d0c4b300004f98000040eb0070479800d0
:10444400dbf20700edf20700d9f207000e489000f6
:1044540000404000ebf20700d5f207007e409000d8
:10446400e8f20700d2f20700f0f20700d0f20700ea
:104474000e4890000080fb00000040000004a000f3
:10448400e0f20700caf207000064200001002000e7
:1044940003f107008a40a900e6f20700604798008c
:1044a400ecf20700c2f20700e2f20700104798009e
:1044b400e8f20700bef20700def20700004f7800c2
:1044c4001e80fb00c700dd001e4090000080fb0042
:1044d4000080700020079800def20700b4f20700a5
:1044e400d4f2070010479800daf20700b0f2070090
:1044f400d0f20700004f78001e80fb00c700dd00eb
:104504001e4090000080fb0000807000100798009f
:10451400d3f20700a6f20700d4f20700a4f20700c2
:1045240000000000000000000080fa000000060007
:104534000200fa000040eb00104798000040eb0036
:10454400004f7800e862a900f10f2000f0232c004e
:10455400c8f20700caf20700f10f2000f0232c0074
:10456400daf2070092f20700d962a900dd62a8001e
:104574000060fe00ec62a900800c2000a817070070
:10458400d1c0b300b0c0b300ba17070010479800f9
:10459400ec62a800800c2000a1170700d1c0b30072
:1045a400b0c0b300b3170700004f7800800c2000a0
:1045b4009b170700021a240051c1b30090c0b30036
:1045c400ab180700200320009517070082bb2000ca
:1045d40041c1b30090c0b300a51807002003200018
:1045e4008f17070002f82000f1c3b30090c0b30096
:1045f4009f1807002003200089170700000000000f
:1046040000000000daff37000000fa00a2c1b30086
:1046140021c0b30080c1b3001718070082c1b300e2
:1046240011c1b30080c1b3001318070082c7b300df
:1046340071c0b30080c1b3000f180700f2c0b3000b
:1046440001c1b30080c1b3000b1807000080fa0059
:10465400000006002000fa00f10f2000f0232c00d7
:1046640084f2070086f20700f10f2000f0232c00eb
:1046740096f207004ef20700400620006817070074
:104684000041eb0021c0b300e0c1b300fa170700fa
:10469400500020006217070082c0b300d1c2b300eb
:1046a40030c5b300f4170700500020005c17070062
:1046b400b2c0b30011c3b30030c5b300ee17070096
:1046c40050002000561707000060fe008040eb00f9
:1046d40090c4b3008b1707000080fb0020079800ec
:1046e40011c0b30090c4b300861707000080fb001c
:1046f400100798001e009000c480de002e00900079
:104704004400dd00008f70001e007800cf80de00c2
:10471400d5f007000200200003182400fdf0070074
:10472400600f9800710f9800500020003c1707009c
:104734008040eb0080c4b300721707000080fb00c8
:104744002007980011c0b30080c4b3006d170700a0
:104754000080fb00100798001e009000c480de005b
:104764002e0090004400dd00008f70001e007800d1
:10477400cf80de00bcf007000200200003182400f4
:10478400e4f00700400f9800510f980050002000fb
:104794002317070021c3b30030c5b300591707001e
:1047a4000080fb002007980031c3b30030c5b3007c
:1047b400541707000080fb00100798001e009000ab
:1047c400c800dd002e009000008f70001e007800ed
:1047d400cf80de00a4f007000200200003382c0084
:1047e400ccf00700200f9800310f980050002000f3
:1047f4000b17070041c3b30030c5b30041170700ce
:104804000080fb002007980051c3b30030c5b300fb
:104814003c1707000080fb00100798001e00900062
:10482400c800dd002e009000008f70001e0078008c
:10483400cf80de008cf007000200200003382c003b
:10484400b4f00700000f9800110f980050002000ea
:10485400f316070061c3b30030c5b300291707007e
:104864000080fb002007980071c3b30030c5b3007b
:10487400241707000080fb00100798001e0090001a
:10488400c800dd002e009000008f70001e0078002c
:10489400cf80de0074f007000200200003382c00f3
:1048a4009cf00700600798007107980050002000f2
:1048b400db16070031c0b300e0c1b30011170700d5
:1048c4000080fb002007980041c0b300e0c1b300a2
:1048d4000c1707000080fb00100798002e009000c2
:1048e400c800dd001e009000008f70001e007800dc
:1048f4005007980050002000c916070051c0b300ab
:10490400e0c1b300ff1607000080fb0020079800f9
:1049140061c0b300e0c1b300fa1607000080fb00d9
:10492400100798002e009000c800dd001e009000c3
:10493400008f70001e00780040079800500020008f
:10494400b716070071c0b300e0c1b300ed1607004d
:104954000080fb002007980081c0b300e0c1b300d1
:10496400e81607000080fb00100798002e00900056
:10497400c800dd001e009000008f70001e0078004b
:1049840030079800a9fe070000000000800c2000fa
:10499400a31607004cff37000000fa000080fa005d
:1049a400000006001a00fa000e80e800813a280090
:1049b4000b00090031587800c000b1006e004700b8
:1049c400413b280008000900315878009000b100ec
:1049d400690040008040eb00014878000000e800d6
:1049e4008040eb00014878000000e8008040eb00c4
:1049f400014878000000eb00000f78001200370037
:104a04001e0178009e0078000e80e80000804000bf
:104a14009040780060542100000041000148780073
:104a24001e0078006c0140009e0078006e00470074
:104a34000080400090407800605421000000410054
:104a4400014878001e0fe800b10020009e8f10007e
:104a5400ebff360000002000a1292400f0a4880008
:104a640001a588005a020700916d2000914078004a
:104a740000ccb30000c060002041b300d9e6b70009
:104a84000111200091407800f0ccb30000c0600018
:104a940010e1b700103220006008880000322000c6
:104aa400a00c88000040eb000702070092c1bf0081
:104ab400f041b30092e1b7009181a90001192000ef
:104ac4009140780080cfb30000c060006040b30024
:104ad40090e1b70011e1a800b6f80700a074220025
:104ae400309a8800040207008040eb00406b2100ec
:104af400014878000080fa00000006000000fa0077
:104b0400f08e80000000e800f08e88003e0107006f
:104b1400780107009560a8009a40a8009620a80094
:104b240094f9070093fc07000603070073000700cd
:104b3400d6d1bf000004e0001c003200cac2bf008e
:104b4400644060000004e00018003a00cac2bf00dc
:104b5400684060000004e00014003a00cac2bf00cc
:104b6400704060000004e00010003a0002003700ca
:104b7400dd02a800dc62a800cac2bf006440600075
:104b84000004e000faff3200cac2bf0068406000bf
:104b94000004e000f6ff3200cac2bf0070406000ab
:104ba4000004e000f2ff3200dd02a900d6d1bf000c
:104bb4000004e0000e003200dac2bf00644060006e
:104bc4000004e0000a003a000060fe00dc62a80075
:104bd400800c200012160700dc62a900dd02a80088
:104be400800c20000e160700dd02a900f6ff370036
:104bf400dac2bf000044b2000004e00017003a002b
:104c0400d3c2bf000044b2000004e00013003a0025
:104c1400d6d1bf00e14f500010003a00200320001d
:104c2400ff150700dac2bf00614060000004e00025
:104c34000a0032000040eb00d6f1b700dc62a900a4
:104c4400e4e2a900e4a2a900e4c2a800dc22a900cd
:104c5400ec22a90040062000f1150700d6d1bf00c0
:104c64000004e00014003200406b21001040780082
:104c74000004e00015003a0021728000c0122000f8
:104c8400808f500006003600d01220002072880069
:104c940021c3b300406b2100014878000b003700aa
:104ca400207280000000e800207288004006200086
:104cb400db150700050037000040eb00416b2100c5
:104cc400804878000000eb0020728800406b2100cf
:104cd400104078007c010700806d210010407800ae
:104ce4000004e00002003200cca2a800010037005a
:104cf400cca2a9000080fa00000006000200fa001d
:104d0400a08f8000e10f400003003200b08f8000cc
:104d1400e10f400003003a000080eb00d0a98800b6
:104d240004003700a08f8000b18f80000100400094
:104d3400d0a9880080b58000e90f50000300360038
:104d440090b58000e90f500018003e0030728000da
:104d54000000e8003072880031728000803e20003c
:104d6400808f500002003600007d200030728800e1
:104d740080b580000000e0000300320090b58000a0
:104d84000000e00005003a0031728000703e20000f
:104d9400808f500001003e001800370040728000f0
:104da4000000e800407288001400370080b58000dd
:104db400e10f400007003a0090b58000e10f400089
:104dc40004003a00407280000000e800407288004d
:104dd4000a00370080b58000e90f50000700360054
:104de40090b58000e90f5000040036000000eb008d
:104df400407288000040eb00eef1b7004072800082
:104e0400e90f500020003600cac2bf0061406000b4
:104e14000004e0001a003a0010c0b300eef1b7003d
:104e24000040eb00d6f1b700dc62a900dd02a90066
:104e3400e4e2a900e4a2a900e4c2a800dc22a900db
:104e44000040eb00004f780007003700dd02a800a7
:104e5400800c200072150700dd02a900800c2000e0
:104e64006f1507001e4fe80030c0b3009e4f1000be
:104e7400f6ff3600ec22a900400620006815070062
:104e8400800c2000407288000080fa0000000600b8
:104e94000800fa000e80e800013c28000500090023
:104ea400315878006000b1002222a9008560a90071
:104eb40030118000004f7800c08e80000000e800b0
:104ec400c08e8800aecebf000004e0000c003a00a3
:104ed40040c2b3009e4f100046003a00aecebf0061
:104ee4008000fb00a0e42000008040001e48780001
:104ef400aecebf000040e800aeeeb7003d00370084
:104f0400aecebf008000fb00a0e420000080400083
:104f14001e487800aecebf00e54f500017003a009f
:104f24000040eb0010479800110037001e4090002d
:104f34008080fb00a0e42000008040001041780045
:104f44001e4090008080fb000e80e800008040003e
:104f540010407800804f5100020032000040eb0006
:104f6400aeeeb7001e4090000040e80010479800e5
:104f74001e409000e44f5000ecff3600e1ea2000b0
:104f840091407800e0c5b30080cf50001600340093
:104f94000040eb00104798000d0037001e409000c1
:104fa4000081fb001e4090008080fb00a0e42000f4
:104fb4000080400090407800604d210000004100d6
:104fc400014878001e4090000040e8001047980017
:104fd4009e409000e0c5b30080cf5000efff360044
:104fe40000c0eb00aeeeb700aecebf000040e8005c
:104ff400aeeeb700aecebf000000fb00d08e88003e
:105004000080fa00000006000000fa000040eb00f7
:10501400afeeb700dac2bf00614060000004e000f8
:105024000e003a00d6d1bf000004e0000b003a00a5
:10503400620107000000e00008003200dc62a80002
:1050440010c0b300d6f1b70040062000f4140700e6
:1050540035fa0700bb000700e4c2a900eac2bf009a
:10506400614060000004e00020003a0019003700ad
:10507400807580000000e80080758800a000200092
:10508400e71407008175800020032000808f500002
:1050940010003600ec22a900dc62a9000040eb00fd
:1050a400d6f1b700e4c2a800e4a2a900e4e2a90092
:1050b400010037000060fe00dac2bf0061406000fa
:1050c4000004e000fbff3200ec22a80040012000b5
:1050d400d3140700eac2bf00614060000004e0008e
:1050e400e3ff32000000eb00807588000080fa00c6
:1050f400000006000400fa00881f7800cbc2bf003d
:105104000080fb004700de0080407800203b210047
:1051140001487800cbc2bf00614060008040780045
:10512400303b210001487800cbc2bf000080fb0067
:105134000000d1006140600080407800403b2100c5
:1051440001487800cbc2bf000080fb004600de00af
:105154006140600080407800503b210001487800a5
:10516400f2c2bf000080fb004700de0080407800f0
:10517400603b210001487800f2c2bf000080fb00c0
:105184004600de006140600080407800703b2100f2
:1051940001487800cac2bf000080fb004200de0064
:1051a4000004a200e1406000903b21000148780027
:1051b400cac2bf000080fb004400de000004a2005d
:1051c400e1406000a03b210001487800cac2bf0052
:1051d4000080fb004300de000004a200e140600008
:1051e400b03b210001487800d0c0b3001d00070087
:1051f400709d8800a0c0b3001a000700809d88003d
:10520400c0c0b30017000700509d8800b0c0b300b1
:1052140014000700609d880010c0b300110007004f
:10522400000478006140b9000fee0700008fbe0053
:105234000800e00005003d0002002000037824007f
:105244001e00be0076ee0700008fbe001e00be00ea
:10525400b0a58800c1a588004f0478000080fa003a
:10526400000006000400fa00204798000000eb004c
:10527400000f780021e3a9002e4090007f406000d9
:105284007f416000813220009140780000ceb3005d
:1052940000c060000240700028e3b70021e3a800ca
:1052a4002023a80020c3bf00614060000004e00088
:1052b400fcff320000188000000f78001e00780008
:1052c4000080fa00000006000200fa00004f780097
:1052d40040c6b3009e4f10000200360040c6b30023
:1052e400004f78001e80fb004300dd00b00c8800f6
:1052f4000080fa00000006000000fa00b16d2000f2
:105304009140780000ccb30000c060003040b3008e
:10531400dbe6b700416a20009140780000ccb3007e
:1053240000c060003041b300a4e6b700700620005e
:10533400401188009560a90021e2a8000080fa00cd
:10534400000006000000fa009a40a800a201200014
:1053540021c0b30080c1b3005ff9070050002000f2
:105364002f1407008201200011c1b30080c1b300d3
:1053740059f9070050002000291407008207200073
:1053840071c0b30080c1b30053f90700500020007e
:10539400231407000001eb0001c1b30080c1b30076
:1053a4004df90700800c20001d1407003202200074
:1053b40001c1b30080c1b30047f9070050002000c9
:1053c400171407009a40a9000080fa0000000600a4
:1053d4000000fa000080eb00601988000080eb00f8
:1053e400401688000080eb00801688000080eb00e7
:1053f400c01688000080eb00001788000080eb00d6
:10540400401788000080eb0080178800b8ef070081
:105414004cf60700dd62a900e4e2a900e4a2a900b9
:10542400e4c2a800dc22a900dd02a900dc62a90014
:10543400cca2a900d5a2a800dce2a800ec62a900d5
:10544400ec22a800d822a900d1a2a900d8e2a90080
:10545400e862a900e822a900d962a900e0e2a90053
:10546400e0a2a900e0c2a900d902a900d862a9005b
:10547400c8a2a9002c23a9002d63a9002d83a9008b
:105484002d43a9002da3a9000000eb0000198800fa
:105494000000eb00101988000000eb0020198800c0
:1054a40000c0eb0024e3b70025c3bf00f041b30004
:1054b40025e3b700013220009140780000ceb3000c
:1054c40000c0700020e3b7000080fa00000006006e
:1054d4000000fa007007a800000000007007a9008f
:1054e4000000eb00a02488000000eb0030248800ba
:1054f4008804a900e4e2a900e4a2a900e4c2a80087
:10550400dd02a900dc62a90050002000c4130700da
:105514000000eb00001988000000eb00101988005f
:105524000000eb00201988000080eb00601988005f
:105534000080eb00401688000080eb008016880095
:105544000080eb00c01688000080eb000017880084
:105554000080eb00401788000080eb008017880073
:105564000080fa00000006000000fa008660a9002e
:105574009660a9000080fa00004006000000fa00ce
:105584002043a90085a0a90010188000509d880020
:1055940020188000609d880000188000709d88009d
:1055a40030188000809d8800908e80000000e80004
:1055b400908e88000080fa00000006000400fa00c3
:1055c4000000eb00000f7800e4e2a8004006200091
:1055d40093130700e4a2a8000a0037001e0fe80096
:1055e400500020009e0f1000030036000000eb0066
:1055f40010079800380037000060fe0040062000c5
:1056040087130700d3c2bf000080fb004600de0002
:10561400614060008080fb00dac2bf000080fb00b4
:105624004600de00614060000080fb0000807000e6
:105634000000e000e9ff3a000000eb00000f7800f2
:105644000060fe0040062000751307000a003700c2
:105654001e0fe800400120009e0f100003003600da
:105664000000eb00100798001b0037000060fe00ec
:10567400400620006a130700d3c2bf000044b200f2
:105684000004e000f2ff32000000eb00000f78009d
:10569400dc22a8000a0037001e0fe80040012000a9
:1056a4009e0f1000030036000000eb001007980066
:1056b400090037000060fe00400620005813070070
:1056c400dac2bf000044b2000004e000f2ff32007e
:1056d40010002000100798001e0090000080fa00bf
:1056e400000006000200fa000060fe006620a80028
:1056f4006040a800d0168000000f7800501680008b
:10570400000f78008660a9009660a8000040fe00a3
:105714009660a9008660a900d0168000000f78006a
:1057240050168000000f780021e3a800803e20007e
:105734003b13070021e3a90000fa200038130700f7
:10574400e9ff37000000fa00cac2bf0061406000f0
:105754000004e00005003200e4e2a80010c0b30039
:10576400b3eeb700dd62a80009003700cac2bf006b
:10577400614060000004e00005003a000040eb00d6
:10578400b3eeb700dd62a9000040eb00b2eeb70053
:10579400d0a980000000e00007003400d6d1bf008b
:1057a4000004e00002003a00dd02a8000300370014
:1057b400dd02a90001003700dd02a9000080fa0023
:1057c400000006000000fa000080fa000000060055
:1057d4005400fa0020cf980061279800722798009f
:1057e400032f980030c2b30010cf98007e209000a1
:1057f4000000e000030032000e2890000000e000ea
:1058040003003a0010fd2f00102f98003b003700d2
:105814000e00e800520220009123210099ee0700b7
:105824000e00e800aec89000214098006e20900061
:10583400c800de004801dd00010171008e00e800af
:10584400f00f200080016100314090006040600052
:1058540003407000b04098004811de0041409000c1
:105864006040600002407000c04098000e00e800f4
:105874006500400002022000fe20900081ee070037
:10588400610220008e804000900420000e00400041
:105894008e02e8000002780033c0b300120020003a
:1058a40005007800ee0f0700004f78001e04e000aa
:1058b400030032001e00fb00102f98000f00370079
:1058c4009ec8900030c2b30080cf50000300320065
:1058d40021ff2f00112f98000800370060022000dc
:1058e4000e0040008000e800020220000e28900014
:1058f40064ee07001e00fb00102f98001e28900085
:105904000080fa00000006001600fa00604f9800bc
:10591400010f9800120f980070c0b300504f980008
:1059240000ceb300004f78001e0890000000e00095
:1059340003003a0010fd2f00200f980035003700b7
:105944006800470052002000012221004dee0700ac
:1059540068004700ee489000214098006801470025
:105964008e089000f00f200000806000c801dd0068
:1059740092009000f00f200000806000030070008f
:10598400100198000e089000c800de00f00f2000ff
:1059940080816000a200900000f02f000080600071
:1059a40003007000200198008e00e8006d0047009d
:1059b400e80247000002780033c0b3002200200050
:1059c40005007800a60f0700004f78001e04e000d1
:1059d400030032001e00fb00200f98000d0037006a
:1059e4005e489000e74f50000300320021ff2f0073
:1059f400210f9800070037001e0890008e00e80071
:105a04008100e800420020001eee07001e00fb009b
:105a1400200f98002e0890000080fa000000060075
:105a24000e00fa005007980070c0b300004f9800b1
:105a34005e0090000000e00003003a0010fd2f001b
:105a4400600798001a0037008e00e80068004700dd
:105a54000002780033c0b30022002000a0222100fd
:105a64007f0f0700004f78001e04e000030032009f
:105a74001e00fb00600798000d0037000e489000e0
:105a8400e74f50000300320020ff2f00600798000a
:105a9400070037005e0090008e00e8008100e800f7
:105aa40032002000f7ed07001e00fb00600798009d
:105ab4006e0090000080fa00000006000e00fa005c
