:020000040000fa
:080000000002040000000000f2
:020000040000fa
:100400002f5d2100207f24000001880000000000f3
:100410000c000700009b2300010020001f000700c4
:10042000000020000000e000020032000000020096
:1004300000000000a0420200000000000040da00be
:100440000000fe004440a900e00a20000000e00097
:100450000300320000002000a00188004440a800f2
:1004600000000600f03fb1000180b1000600350039
:10047000ee03090000000000403fb1000180b10020
:10048000fbff3d001000b000203fb000020035002f
:1004900000800900000000000000060091018800b3
:1004a000800078000000eb0015003700e28040007b
:1004b00032a0b4009101ba00e280400032a0b40042
:1004c0009102ba00e280400032a0b4000002eb00ca
:1004d000472bde00f507b200602ce10004003a0073
:1004e0000059eb008301e900fdff3e0004003700e6
:1004f0006128e100010032000082eb0004000700e7
:100500001101ba000200e000e8ff3a000000060016
:100510003159ba008301e9000c0032002159ba00b8
:100520008301e900080032000400e00003003a0003
:10053000e280400032a0b400f5ff370011d9ba00c4
:100540008301e900faff3a008100e800e180400001
:1005500032a0b400000006008e4504000000000038
:10056000f416040000000000e6170400000000007c
:10057000889fbe008a9fbe00010578000100e00050
:100580000400350008003c000000e00020003200bc
:100590000500370060001000e080180002003b00fa
:1005a00001f02c001a0037000004be006011b800f2
:1005b0006b0920000982cf00020039000882cf00b9
:1005c0000441b000694252000e00320008003b00b6
:1005d00082817100610164008904d1000884d30024
:1005e0008b05e8000442e800f9ff3a0005003700f7
:1005f0000804440089844c008b05e9000442e900aa
:10060000fbff3a00f40007000af0a70001f0a00089
:100610004f05be004f04be000000060003f0a2001c
:10062000889fbe008a9fbe008c1f780010010700c3
:10063000170133006450e1004f0032006420e100f4
:100640005200320003826c0007003b000905d00015
:100650000306d000820f54000c065d000200390032
:100660000200320089017800030678008582550077
:1006700004003d000003fd008103fd008502ea0047
:100680008b854200840f720002003b006000100066
:10069000e08018006011b8000005eb007a28e10046
:1006a0000a00390006007800c75ddd00f707b200d8
:1006b000878075002d003700828171000a01780063
:1006c000610560008180d1000080d3008502e900cf
:1006d000f9ff3b00060440008784480002003b000d
:1006e00060041400e0841c000988a30007003200a5
:1006f0008a81710082817100610164008904d100e6
:100700000884d3008b05e800170037000978a300a0
:1007100013003a000b00e000130034008b05e900e1
:100720000804440089844c000a4474000978a3003a
:100730000d003a000b00e000070034008b05e900d3
:100740000804440089844c0001003a000b0020009a
:100750000978a300f7ff32000001eb000200370028
:10076000828171000a0178009b0007000cf0a7004d
:1007700001f0a000cf0037006420e10002003a0041
:10078000838f6c00cf0033000801be000200be0062
:10079000c8003700889fbe008a9fbe008c1f78006b
:1007a000b3000700ba00330003866c006450e10018
:1007b000240032006420e100270032006150e10093
:1007c000220032006120e100210032008b854200ce
:1007d000eb07b1000134b800003ab8000804420049
:1007e00089844a00013ab8000030b800888040008f
:1007f00009014a00040033000000400081804800e5
:10080000020149008b05e900c909dd008301700080
:100810000100320013002000c814de004814dd007f
:100820004709de001200b200c808de00088470002c
:100830006900070001f0a1000cf0a70001f0a00082
:100840009c0037006120e1009e0032000801be00dc
:100850000200be00f7ff37006150e100fcff3a00e4
:10086000980037000001be00990007000470a7003f
:1008700003f0a10003f8a30013003a006509b100da
:1008800010003200090035006928e100020035003f
:1008900001002800000005000000400081804800a1
:1008a0008502e900fcff3a0000000600f88f4200d4
:1008b000050035008100d1000080d3008502e800ea
:1008c000fcff3a00000006008000eb00000005007d
:1008d000889fbe008a9fbe008c1f780064000700be
:1008e0006b00330003866c006450e1002e00320080
:1008f0006420e100330032006150e1002f0032003b
:100900006120e1003100320085855500eb07b00021
:1009100009002000080420000500370008044400f6
:1009200089844c000a0031000603430087834b0092
:100930000001530081815b00f8ff33000203be0019
:100940000800a0000804440089844c00f6ff390028
:10095000c639dd008301730001003200130020005e
:100960008904d1000884d3000998a300050032004f
:100970000800a7000300a0008904d1000884d30068
:100980008b05e8008904d1000884d3000001eb0046
:100990000281d2001000070001f0a1000cf0a700b6
:1009a00001f0a000430037006420e1004500320060
:1009b0000801be000200be00f7ff37006120e10021
:1009c000400032006000b800f3ff37000000200054
:1009d00001f82700f0ff37008100200061805500fa
:1009e0000b003d000b00200061fe2f000100e10024
:1009f0001d00340082817100610164008904d1000e
:100a00000884d3000000e800faff3a0071002000db
:100a10006100640003007000020060000900320001
:100a200061044400e0844c000988a5000500320000
:100a30008b05e8006808e10002003a008904d10053
:100a40000884d300f20f20000258e10005003d00a9
:100a5000c75ddd00f907b2008980750008007800e5
:100a6000000006000bf827008b007800000005004e
:100a70000004be00160007000003be000405be000f
:100a80000200be0012000700844f7500000006003f
:100a90000200be006450e100050036006420e10061
:100aa000020036000968a30001003a000800be00f9
:100ab0000160a0004f0678004f05be004f04be0045
:100ac00000000600f0ff2f00f1ff2700f9ff3700bc
:100ad000c70ade00f107b200f50fb20008003200cd
:100ae000e1cf4200020032000170a00024000500a6
:100af000810f700001003200040805004400050069
:100b0000810f700002003a00140005008502e90020
:100b10000000400081c04800fcff3b000170a000c5
:100b20002400050006c2bf000008a300fdff3a0034
:100b300006c2bf000018a300faff3a0006c2bf00b9
:100b40000028a300f7ff3a0006c2bf000038a30048
:100b5000f4ff3a0006c2bf000048a300f1ff3a00cc
:100b600009c2bf000068a300eeff3a0000000600c3
:100b70000602a800000006000080fb00101088009c
:100b800008c2bf0001c8b300014060000080fb0044
:100b90000000e9004f00de000000e9000000060050
:100ba0000642a800000006000662a80006c2bf00b8
:100bb0000038a300fdff3a0008c2a9000010800021
:100bc0000080fb000000060006a2a8000682a80024
:100bd000000006008001eb000200370061f07900a0
:100be0008301e800828f5100fcff3a0000000600fc
:100bf0000400fa00e0bf9f00e481570081297800db
:100c00000002eb000f0037006fb8970090407800ab
:100c10007fb89700104078000402e80080cf5000b1
:100c2000040032008180fb000080fb000080500047
:100c3000070037006fb897000000e800e0bf9f0092
:100c40009309e800820f5200efff3a000000eb002a
:100c50000080fa000000060000027800808f50003b
:100c60000a00310082814000808f51000700360069
:100c7000020240008000eb00436278008100e8003f
:100c8000828f500007003200fbff37000200e000b7
:100c90000400320002814000315a7800828f5000f7
:100ca000fdff3a00000006008001eb000200370063
:100cb000817178008301e800828f5100fcff3a00c7
:040cc000000006002a
:020000040000fa
:020000040005f5
:0457f8009e430000cc
:020000040000fa
:020000040005f5
:0457fc00783e0000f3
:020000040000fa
:10000800804a0000804a0000804a0000804a0000c0
:10001800804a0000804a0000804a0000804a0000b0
:10002800804a000052460000804a000094450000c3
:10003800804a000078460000804a0000ba45000067
:10004800e0450000804a0000804a00005c4700004c
:10005800a847000036470000804a0000804a000098
:10006800804a0000ce470000804a0000804a000015
:10007800804a0000804a0000804a0000804a000050
:10008800804a0000804a0000804a000006460000be
:100098002c460000804a000082470000804a000089
:1000a800804a0000804a0000804a0000804a000020
:1000b800804a00009e460000c4460000ea46000050
:1000c80010470000804a0000804a0000804a000073
:1000d800804a0000804a0000804a0000804a0000f0
:1000e800804a0000804a0000f4470000804a00006f
:1000f800804a0000804a0000804a0000804a0000d0
:10010800804a0000804a0000804a0000804a0000bf
:10011800804a0000804a0000804a0000804a0000af
:10012800804a0000804a0000804a0000804a00009f
:10013800804a0000804a0000804a0000804a00008f
:10014800804a0000804a0000804a0000804a00007f
:10015800804a0000804a0000804a0000804a00006f
:10016800804a0000804a0000804a0000804a00005f
:10017800804a0000804a0000ba070000804a000058
:10018800804a0000804a0000804a0000804a00003f
:10019800804a0000804a0000804a0000804a00002f
:1001a800804a0000804a0000804a0000804a00001f
:1001b800804a0000804a0000804a0000804a00000f
:1001c800804a0000804a0000804a0000804a0000ff
:1001d800804a0000804a0000804a0000804a0000ef
:1001e800804a0000804a0000804a0000804a0000df
:0801f800804a0000804a00006b
:020000040000fa
:10020800804a0000804a0000804a0000804a0000be
:10021800804a0000804a0000804a0000804a0000ae
:10022800804a000052460000804a000094450000c1
:10023800804a000078460000804a0000ba45000065
:10024800e0450000804a0000804a00005c4700004a
:10025800a847000036470000804a0000804a000096
:10026800804a0000ce470000804a0000804a000013
:10027800804a0000804a0000804a0000804a00004e
:10028800804a0000804a0000804a000006460000bc
:100298002c460000804a000082470000804a000087
:1002a800804a0000804a0000804a0000804a00001e
:1002b800804a00009e460000c4460000ea4600004e
:1002c80010470000804a0000804a0000804a000071
:1002d800804a0000804a0000804a0000804a0000ee
:1002e800804a0000804a0000f4470000804a00006d
:1002f800804a0000804a0000804a0000804a0000ce
:10030800804a0000804a0000804a0000804a0000bd
:10031800804a0000804a0000804a0000804a0000ad
:10032800804a0000804a0000804a0000804a00009d
:10033800804a0000804a0000804a0000804a00008d
:10034800804a0000804a0000804a0000804a00007d
:10035800804a0000804a0000804a0000804a00006d
:10036800804a0000804a0000804a0000804a00005d
:10037800804a0000804a0000ba070000804a000056
:10038800804a0000804a0000804a0000804a00003d
:10039800804a0000804a0000804a0000804a00002d
:1003a800804a0000804a0000804a0000804a00001d
:1003b800804a0000804a0000804a0000804a00000d
:1003c800804a0000804a0000804a0000804a0000fd
:1003d800804a0000804a0000804a0000804a0000ed
:1003e800804a0000804a0000804a0000804a0000dd
:0803f800804a0000804a000069
:020000040000fa
:100cc40009020000200000000101000000c0000033
:100cd400320900000400000000020000ffff0000d1
:100ce400ff0000000705000001010000ffff0000f5
:100cf400010700000581000001ff0000ff01000062
:100d04000403000001000000300300004200000062
:100d140072000000690000006e0000007400000012
:100d24006f0000006e00000020000000450000007d
:100d34006e00000067000000690000006e00000003
:100d440065000000650000007200000069000000fa
:100d54006e00000067000000200000004c0000004e
:100d64004c00000043000000360300005200000065
:100d74006f000000620000006f00000074000000bb
:100d84006500000078000000200000005200000010
:100d94006f000000620000006f000000740000009b
:100da4006900000063000000200000004300000010
:100db4006f0000006e00000074000000720000006c
:100dc4006f0000006c0000006c0000006500000073
:100dd40072000000628600008286000086860000a1
:100de400b6860000000000000000000000000000c3
:100df400000000000000000080000000000000006f
:100e04000000000000010000bfff0000ffff000021
:0c0e1400ffff0000ffff0000ff000000d7
:020000040000fa
:100e20000200fa009ec0a900f00f20007024880084
:100e3000f00f20005024880020002000302588007a
:100e40000000eb00402588008644a900f00920003e
:100e500080248800f0092000602488008804a8000d
:100e6000000021004800de00c02488009424a8006f
:100e70000000eb00b02488000000eb006025880033
:100e80009424a9000040eb00004f780007003700d1
:100e90001e80fb00c200dd00000021000081400038
:100ea0006000b8000089be001e4fe80070c0b300ab
:100eb0009e4f1000f6ff3600d0002000502588001d
:100ec0000200370080002000502488008ac4bf0040
:100ed000684060000004e000faff3a000040eb00c8
:100ee000b2efb7000040eb00bdefb700becfbf00d0
:100ef00060406000beefb700bfcfbf006040600041
:100f0000bfefb70094a4a9000040eb00004f7800a9
:100f10000d0037001e80fb008000400020fc2000f8
:100f2000808040000000eb00800878001e80fb00fd
:100f300080004000c0fc2000808040000000eb00ea
:100f4000800878001e4fe80010c0b3009e4f1000cc
:100f5000f0ff360080002100107e88000040eb008a
:100f6000baefb7000000eb00c07d88000080fa00f7
:100f7000000006003600f800809fbe00829fbe0081
:100f8000849fbe00869fbe003400f8000000200051
:100f9000a00188000200fa00c07d8000e10f50002f
:100fa0000a003a0094c4bf000044b2000004e0000c
:100fb00006003a00f00f2000502488008c04a8009e
:100fc0008c84a80020002000c07d880080c4bf0061
:100fd000704060000004e0000700320082c4bf00df
:100fe000704060000004e0000300320000012000b7
:100ff00000248800a200070088c4bf00624060008f
:101000000004e000020032008ec0a9007300370027
:101010008ac4bf00614060000004e0001800320094
:101020008cc4bf00614060000004e0001400320086
:101030007bff07009ec0a80040002000c07d880004
:10104000c0fd20001080880080c0b30000f0b70011
:10105000110021009140780030c0b30000c0600052
:1010600001f0b7001100210091407800c0c8b30022
:1010700000c0700001f0b70010002000502488006c
:101080008ac4bf00704060000004e0000700320026
:101090008cc4bf00704060000004e0000300320018
:1010a0006d00070000012000502488008ac4bf00a2
:1010b000644060000004e0000a0032008cc4bf00fd
:1010c000644060000004e0000600320012002000ce
:1010d0008000eb0030072000841e07004000200045
:1010e000502488008ac4bf0001c8b30001406000da
:1010f0000004e000060032008cc4bf0001c8b30049
:10110000014060000004e000010032003b000700e5
:101110008ac4bf00624060000004e0000a003200a0
:101120008cc4bf00624060000004e0000600320092
:10113000120020008000eb00f0ff27006b1e07006c
:10114000f00f200070248800c07d8000e30f500065
:1011500002003e008ec0a900200037008cc4bf00f2
:10116000684060000004e0001b0032000040eb001b
:10117000004f7800150037008ac4bf006840600047
:101180000004e0001400320090248000d4efb70087
:101190008000200050248800d4cfbf008080fb0056
:1011a000000f2000008060000000e00002003a0014
:1011b0003d0007000400370041fd20000001eb0066
:1011c00020072000491e07001e4fe80030c0b30072
:1011d0009e4f1000e8ff36008ec0a9000080fa0084
:1011e0003400f9004f03be004f02be004f01be00a5
:1011f0004f00be003600f900004006000000fa0073
:10120000aac4bf00624060000004e0000e0032008b
:10121000407e80009040900000c8b30080cf500016
:1012200008003a00107e80009040900040c8b30053
:1012300080cf500003003a00417e8000c0c8b30058
:1012400090409800aa24a90000082000502488009b
:101250000080fa00000006000000fa008284a80066
:1012600000012000502488000001eb008000eb000a
:10127000500720001d1e07000080fa000000060035
:101280000000fa000001eb008000eb0040072000a6
:10129000161e07008284a900000120000024880097
:1012a0000080fa00000006000200fa00d4cfbf0060
:1012b0008080fb00b0ff2f00008060000000e00095
:1012c00035003a00d4cfbf008080fb00c00f200063
:1012d000008060004280de004200dd008000780077
:1012e0000000210000804000407e8800407e800099
:1012f000507e8800a1fc2000a0fc20001040780057
:101300000024a20080487800407e800010409000b9
:10131000c2c3b3008240600040c3b30080cf50001e
:101320001b003a00407e80009000900040fe2000ac
:10133000808f500014003a00417e8000c0fd2000e4
:10134000900098000040eb00004f78000b00370041
:101350001e80fb0080007800c0fd2000008140005e
:101360001e80fb008000780040fe200000804000ce
:1013700010407800004978001e4fe80070c0b300ac
:101380009e4f1000f2ff36000c00070009003700e6
:101390002800070007003700d4cfbf008080fb0083
:1013a000b0ff2f0000806000e80f500001003a00fd
:1013b000380007000080fa00000006000000fa0074
:1013c000107e80009040900000c8b30000c0600014
:1013d0000004e00003003200117e80000040eb00ba
:1013e000904098000040eb00d0efb7000040eb00c9
:1013f000d1efb700b3cfbf0060406000b3efb700dc
:10140000b4cfbf0060406000b4efb7000040eb0015
:10141000b2efb700780007000001eb008000eb009e
:1014200030002000b11d07000e0207000080fa0006
:10143000000006000000fa00d1cfbf00e24f5000cc
:1014400002003a00110307001000370046000700b1
:10145000b07e80000000e0000a003a00517e80006b
:1014600080c0b30080487800517e8000c0fd20001d
:1014700090009800517e8000c0c8b3009040980052
:10148000020037000000eb00b07e88000080fa0008
:10149000000006000200fa00107e8000104090005c
:1014a0000080fb004600de0061406000004f7800d5
:1014b00021fc200020fc2000104078000024a20025
:1014c00080487800c07d8000e80f50000b003a0093
:1014d000decfbf000080fb00b0248800b024800075
:1014e0000000e0000300320000012000c07d880001
:1014f0000200370040002000c07d8800d1cfbf002f
:10150000e14f500015003a00117e800040fe20009f
:10151000900098005c020700d0cfbf00e24f50005f
:1015200004003a00117e800040c8b300904098004b
:101530000b0037001e04e00004003a00117e80001a
:1015400080ccb3009040980005003700117e8000e9
:1015500080c8b300904098000100370002000700e7
:101560000080fa00000006000200fa000040eb00d4
:10157000d1efb700117e80000040eb009040980052
:10158000107e80000020a200000f78009e007800ee
:101590000040eb0090409800d1fb20009140780083
:1015a00000c8b30000c060000004e000100032007a
:1015b000c0cfbf008080fb00c1cfbf000080fb0018
:1015c0004800dd00010070000000e000070032006c
:1015d000c0cfbf008080fb00c1cfbf000080fb00f8
:1015e0004800dd000100700000000100bdefa9000f
:1015f0000080fa00000006000400fa00dccfbf0003
:101600000046b2000004e00058003a00ddcfbf0001
:101610000080fb006101b900028fbe00b000200015
:10162000010020001e01be00800f5100818f590073
:101630004e003e001e00be00006001002400370086
:1016400025003700490037002300370047003700e6
:101650000600370009003700400037000b00370054
:10166000080037001e00370033003700b2efa80033
:1016700080002000c07d88003c003700a4000700e7
:101680003a0037000003070038003700a2fb2000b3
:10169000f00f200080006100b0cfbf00604060000c
:1016a00001407000b0efb700c810de00b1cfbf003e
:1016b0006040600001407000b1efb700b20fa800b9
:1016c00010c0b300b3efb700b2efa8002700370097
:1016d0000e01070025003700260007002300370011
:1016e000e0cfbf000080fb008000780060fc20009d
:1016f0000080400000017800f00f200080006100b1
:10170000b0cfbf006040600001407000b0efb70094
:10171000c810de00b1cfbf00604060000140700023
:10172000b1efb700b20fa80010c0b300b3efb7001d
:10173000b2efa8000d003700b2efa800e0cfbf0065
:101740008080fb00e2fd20001241780060fc200058
:101750000080400002487800040037000001eb00e0
:101760008000eb0020002000e01c07000080fa0051
:10177000000006000400fa00decfbf00e14f500079
:101780000d003a00dccfbf007f4060000004e000a5
:1017900009003a00b2efa800ddcfbf00e34f5000d0
:1017a00003003a0010002000b07d880002003700de
:1017b0000000eb00b07d8800decfbf000004e00039
:1017c00051003a00dccfbf007f406000e24f500084
:1017d0004d003a00e0cfbf006f4060000004e00021
:1017e00049003200b2efa800e0cfbf0001c8b3004b
:1017f000014060000004e00009003a00e0cfbf00b3
:101800006f4060000080fb0080004000c0fc2000b2
:101810000080400010007800100798000800370092
:10182000e0cfbf006f4060000080fb008000400000
:1018300020fc200000804000100078001007980075
:10184000ddcfbf00e34f500004003a009e0090003f
:1018500040c8b300904098002b003700e0cfbf0095
:101860006f4060000080fb000000400080007800b6
:10187000a04a200000804000000f78001e00780081
:1018800090407800d0cfb30080c060001e00780088
:101890000148780001fe20009140780000c8b300a4
:1018a00000c060000004e0000c0032009e009000c8
:1018b0000040eb00904098008e80e8000e80e80029
:1018c000104078000024a200804878009e0090001c
:1018d00000c4b300904098000b0037009e009000b9
:1018e00080c8b300904098008e80e8000e80e80029
:1018f000104078000024a200804878009e009000ec
:1019000080ccb300904098000080fa0000000600f0
:101910000200fa00c1fd20009140780000c8b30029
:1019200080cf500077003a0000ccb300b2efb70090
:10193000dfcfbf000080fb00000f78001e007800a2
:10194000e20f50001b0032001e007800e30f500031
:101950003e0032001e007800e10f5000010032000e
:1019600066003700c2fe2000f00f200080006100fa
:10197000b0cfbf006040600001407000b0efb70022
:10198000c810de00b1cfbf006040600001407000b1
:10199000b1efb700b3cfbf00604060002041b3009b
:1019a000b3efb700b4cfbf0060406000b4efb70042
:1019b00054003700decfbf000080fb000000400075
:1019c00080007800c06e2800008040001001780080
:1019d000f00f200080006100b0cfbf0060406000c9
:1019e00001407000b0efb700c810de00b1cfbf00fb
:1019f0006040600001407000b1efb700b0cfbf00a1
:101a00008080fb00b1cfbf000080fb004800dd00fc
:101a1000010070000080e80010017800f00f200045
:101a200080006100b3cfbf006040600001407000e3
:101a3000b3efb700c810de00b4cfbf006040600055
:101a400001407000b4efb7002e003700decfbf00ba
:101a5000e24f500026003e00decfbf000080fb00ba
:101a60000000400080007800e06e28000080400008
:101a700010017800f00f200080006100b0cfbf009f
:101a80006040600001407000b0efb700c810de0099
:101a9000b1cfbf006040600001407000b1efb700ff
:101aa000b0cfbf008080fb00b1cfbf000080fb0043
:101ab0004800dd0001007000104078000081fb004c
:101ac000f00f200080006100b3cfbf0060406000d5
:101ad00001407000b3efb700c810de00b4cfbf0004
:101ae0006040600001407000b4efb70005003700af
:101af0000040eb00b2efb700020037000040eb00ff
:101b0000b2efb7000080fa00000006000400fa00ff
:101b10000040eb00e4efb7000040eb00e5efb7005a
:101b2000dccfbf007f4060000080fb001007980002
:101b30001e009000e10f5000120032001e009000c5
:101b4000e20f5000110032001e0090000000e00083
:101b5000010032002d003700b2efa800e4cfbf0033
:101b60000004a000e4efb700b07d8000e10f50005a
:101b700026003a00e4cfbf000014a000e4efb70055
:101b800022003700b2efa80020003700b2efa80013
:101b9000e0cfbf0001c8b300014060000004e000d6
:101ba00009003a00e0cfbf006f4060000080fb00fa
:101bb00080004000c0fc2000008040001000780041
:101bc000000f780008003700e0cfbf006f406000d2
:101bd0000080fb008000400020fc200000804000ce
:101be00010007800000f78001e0078001040900070
:101bf0000080fb004200de00610060000004e000a5
:101c00000200320010c0b300e4efb700b2cfbf0053
:101c100001c8b300014060000004e0000f00320082
:101c200042fe2000f00f200080006100b0cfbf0016
:101c30006040600001407000b0efb700c810de00e7
:101c4000b1cfbf006040600001407000b1efb7004d
:101c5000b20fa80020c0b300b3efb7000080fa00b5
:101c6000000006000000fa0094a4a900b2cfbf0053
:101c700001c8b300014060000004e00024003a0005
:101c8000bdcfbf0001c8b300014060000004e00008
:101c90001200320020c0b300d1efb700117e8000e7
:101ca0000040eb0080487800117e800080ccb300bb
:101cb00090409800517e800080c0b300804878003a
:101cc000517e800040fe200090009800517e8000f0
:101cd00080ccb3009040980069003700517e8000ae
:101ce00080c0b30080487800517e8000c0fd200095
:101cf00090009800517e8000c0c8b30090409800ca
:101d0000117e800040c8b300904098005c0037000e
:101d1000bdcfbf0001c8b300014060000004e00077
:101d200057003a00dccfbf0001c8b300014060009b
:101d30000004e00041003200e2cfbf008080fb00e1
:101d4000e3cfbf000080fb004800dd000100700011
:101d500000017800b3cfbf008080fb00b4cfbf008c
:101d60000080fb004800dd0001007000800f510082
:101d700012003100e2cfbf008080fb00e3cfbf0044
:101d80000080fb004800dd000100700000017800c9
:101d9000f00f200080006100b3cfbf006040600002
:101da00001407000b3efb700c810de00b4cfbf0031
:101db0006040600001407000b4efb70032000700df
:101dc00010c0b300d1efb700517e800080c0b300d7
:101dd00080487800517e8000c0fd2000900098006f
:101de000517e800000c8b300904098000000eb00d6
:101df000b07e8800417e800080c0b30080487800bb
:101e0000417e8000c0fd200090009800417e80004f
:101e100040c8b3009040980010002000b07e8800b9
:101e2000117e800040fe200090009800117e80000e
:101e300080ccb300904098001100370020c0b30060
:101e4000d1efb700117e80000040eb0080487800a1
:101e5000117e800080ccb30090409800517e8000bd
:101e600080c0b30080487800517e800040fe200092
:101e700090009800517e800080ccb3009040980084
:101e80000080fa00000006000200fa00b3cfbf0095
:101e90008080fb00b4cfbf000080fb004800dd0065
:101ea00001007000e70f500013003e00b3cfbf00e9
:101eb0008080fb00b4cfbf000080fb004800dd0045
:101ec00001007000000f7800d0cfbf000004e000d8
:101ed00003003a0010c0b300d0efb700080037008d
:101ee000d0cfbf00e14f500005003a0020c0b30042
:101ef000d0efb7000200370080002000000f78000c
:101f0000127e8000107e8000904090001e40900065
:101f100000c0700010419800117e80001e407800c3
:101f200080487800b3cfbf008080fb00b4cfbf00f3
:101f30000080fb004800dd00010070008000780098
:101f40001e00780000815000f00f2000800061002a
:101f5000b3cfbf006040600001407000b3efb70036
:101f6000c810de00b4cfbf006040600001407000c8
:101f7000b4efb70040fe2000907e8800b2cfbf00d3
:101f8000614060000004e0003b003a001b003700a5
:101f9000927e8000b0cfbf008080fb00b1cfbf0039
:101fa0000080fb004800dd00010070008000780028
:101fb00011407800004978000200e800907e880017
:101fc0000101e800f00f200080006100b0cfbf00e9
:101fd0006040600001407000b0efb700c810de0044
:101fe000b1cfbf006040600001407000b1efb700aa
:101ff0001e0078000000e900000f78001e00780045
:102000000000e000e2ff3a001e003700927e8000f0
:10201000b0cfbf008080fb00b1cfbf000080fb00cd
:102020004800dd0001007000800078001140780059
:10203000004978000200e800907e88000101e80075
:10204000f00f200080006100b0cfbf006040600052
:1020500001407000b0efb700c810de00b1cfbf0084
:102060006040600001407000b1efb7001e007800d2
:102070000000e900000f78001e0078000000e0007a
:10208000e2ff3a000080fa00000006000200fa00b9
:10209000407e800090407800114798001e409000dc
:1020a0000081fb00becfbf008080fb00bfcfbf0020
:1020b0000080fb004800dd0001007000800f51002f
:1020c00007003600becfbf008080fb00bfcfbf003f
:1020d0000080fb004800dd00010070001047980000
:1020e000becfbf008080fb00bfcfbf000080fb00e1
:1020f0004800dd0001007000800078001e40900064
:102100000080fb0000815000f00f20008000610083
:10211000becfbf006040600001407000beefb7005e
:10212000c810de00bfcfbf006040600001407000fb
:10213000bfefb7000040eb00004f780019003700f8
:10214000bbcfbf008080fb00bccfbf000080fb0086
:102150004800dd0001007000000178009e80fb0057
:1021600040fe2000008040001040780000497800c8
:102170000201e800f00f200080006100bbcfbf002b
:102180006040600001407000bbefb700c810de0087
:10219000bccfbf006040600001407000bcefb700e2
:1021a0001e4fe8001e4090009e4f1000e4ff3900d3
:1021b000becfbf008080fb00bfcfbf000080fb0010
:1021c0004800dd00010070000000e0001300320054
:1021d000517e800080c0b30080487800517e80002e
:1021e00040fe200090009800407e8000104090004b
:1021f0000044b2000004e00004003a00517e800078
:1022000080ccb300904098001d003700517e8000c4
:1022100080c8b3009040980019003700517e8000bc
:1022200080c0b30080487800517e8000c0fd20004f
:1022300090009800517e800040c8b3009040980004
:10224000c0cfbf008080fb00c1cfbf000080fb007b
:102250004800dd00010070000000e00007003200cf
:10226000c0cfbf008080fb00c1cfbf000080fb005b
:102270004800dd000100700000000100bdefa90072
:102280000080fa00000006000200fa00b2efa80089
:102290000000eb00602588000040eb00004f780054
:1022a000070037001e80fb00c200dd000000210097
:1022b000008140006000b8000089be001e4fe800a9
:1022c00070c0b3009e4f1000f6ff36009424a800a3
:1022d0000040eb00c6efb7009424a9008000210065
:1022e000107e880000002100407e8800407e800033
:1022f000507e8800decfbf00baefb700bacfbf0074
:102300000004e00003003a0000012000c07d8800c6
:102310000600370012002000a1fb20001000200062
:10232000f219070000022000c07d88000080fa003a
:10233000000006000400fa0020479800314798008a
:1023400000002100000f78002e4090000080fb006c
:1023500000004000800078003e4090000080fb00bc
:10236000008040004300dd004200de004200dd004e
:102370001e0f40009e007800114090000074a100e4
:10238000904098003e4090000004e00007003a00b2
:102390002e4090000080fb0080004000c0fc200028
:1023a000008040001e087800060037002e40900094
:1023b0000080fb008000400020fc200000804000e6
:1023c0001e0878001e01780092409000f0cbb30008
:1023d00000c06000104198001e00780064014000b9
:1023e0009240900000c4b30000c0700010419800fb
:1023f0000080fa00000006000400fa002047980060
:10240000314798002e4090000080fb000000400003
:1024100080007800a04a200000804000000f780073
:102420001e007800be409000014878003e409000b9
:102430000080fb004300de00610060000004e0005b
:10244000030032008040eb002e409000b9ff0700ef
:102450003e4090000080fb004200de006100600012
:102460000004e0000300320011c0b3002e409000d1
:10247000b0ff07000080fa00000006000400fa0028
:1024800020479800314798002e4090000004e0005b
:102490000d003a00517e800080c0b3008048780073
:1024a000517e8000c0fd200090009800517e800089
:1024b000c0c8b30090409800117e800040c8b300af
:1024c00090409800230037002e4090000080fb00d1
:1024d00000004000800078003e4090000080fb003b
:1024e000008040004300dd008000780000002100f3
:1024f00000804000000f78001e007800904090009f
:1025000040c8b30080c070001e00780011409800e1
:102510002e4090000080fb0000004000800078000a
:102520003e4090000080fb00008040004300dd0042
:102530008000780040002100008f40001e007800dd
:102540009040900040c8b30080c070001e0078002a
:10255000114098000080fa00000006000a00fa000e
:102560002047980031479800220798006347980059
:102570003e4090000004e000070032002e40900032
:102580000080fb008000400020fc20000080400014
:10259000100f7800060037002e4090000080fb00ee
:1025a00080004000c0fc200000804000100f780038
:1025b0001e00e00003003a000000eb004007980016
:1025c000390037002e009000800078001e0078004f
:1025d000110098001e007800ee409000014878003d
:1025e0001e0078001040900002c4b30082406000da
:1025f0001e007800114098001e0078009040900066
:1026000080c8b30080c070001e00780011409800a0
:102610003e4090000004e000110032002e40900087
:102620000080fb00000040008000780020fc2000bb
:1026300000804000000178002e4090000080fb00e8
:10264000000040008000780020fc20000080400056
:10265000104078000024a2000049780010003700e4
:102660002e4090000080fb000000400080007800b9
:10267000c0fc200000804000000178002e40900047
:102680000080fb000000400080007800c0fc2000bb
:1026900000804000104078000024a200004978002b
:1026a0001e007800400798004e0090000080fa005d
:1026b000000006000600fa00004f780094c4bf0036
:1026c0000042b2000004e0005f0032001e80fb0008
:1026d0008000400020fc20000080400010037800b3
:1026e0001e80fb008000400020fc20000080400095
:1026f000100078001000be0002042000030020003b
:1027000000027800810278000200780083007800df
:1027100000016200018062006102b80014079800a5
:10272000250798001e009000ae009000c000dd005c
:102730000000200010079800210798001e0090005c
:10274000ae0090006112b8001407980025079800a9
:102750001e019000ae0190000200700083807000a6
:10276000008bbe001e80fb008000400020fc20008b
:1027700000804000100278001e80fb0080004000b6
:1027800020fc200000804000100078001001be00f6
:102790000004200001002000000069008180690021
:1027a000008abe001e80fb00000040008000780010
:1027b00020fc200000804000000178001e80fb000b
:1027c000000040008000780020fc200000804000d5
:1027d000104078000024a200004978001e80fb0011
:1027e0008000400020fc20000080400010017800a4
:1027f0001e80fb008000400020fc20000080400084
:1028000010007800104090000044b2001041980081
:102810001e80fb008000400020fc20000080400063
:10282000100178001e80fb008000400020fc20008a
:1028300000804000100078009040900000c4b30079
:1028400000c06800104198000080fa0000000600f7
:102850000000fa000000eb00a02488000000eb005c
:10286000602488000000eb00c07d88000080fa0032
:10287000000006000000fa00c07d80000000e000bb
:1028800016003a000000eb00a02488000000eb00d6
:102890006024880020002000302588000000eb0024
:1028a000402588008644a900f00920008024880083
:1028b000f0092000602488009ec0a80001003700b5
:1028c0009404a80094c4bf00614060000004e000cc
:1028d000fbff320010002000c07d88000080fa005d
:1028e000000006000000fa000000eb00001988005c
:1028f0000000eb00101988000000eb002019880090
:102900000080eb00601988000080eb004016880012
:102910000080eb00801688000080eb00c016880065
:102920000080eb00001788000080eb004017880053
:102930000080eb0080178800cde2a900d5a2a90095
:10294000d5c2a900dc02a900dc02a900dce2a900d2
:10295000dd02a900dd22a900dd42a900dd42a900b7
:10296000dcc2a900c9e2a900d1a2a900d1c2a90074
:10297000d802a900d802a900d8e2a900d902a9006a
:10298000d922a900d942a900d942a900d5a2a800fc
:10299000dc02a800cde2a800dd02a800dd42a8000c
:1029a000dce2a8002c83a9002ca3a9002c03a90019
:1029b0002c23a9002c43a9002c63a9002d03a900f6
:1029c000d8c2a9000000eb00001988000000eb004d
:1029d000101988000000eb002019880000c0eb00ef
:1029e00024e3b70025c3bf00f041b30025e3b700df
:1029f000013220009140780000ceb30000c070008a
:102a000020e3b70021e3a800416d20009140780049
:102a100000ccb30000c060003040b300d4e6b70083
:102a2000406f2100507d8800607e2100407d88003d
:102a3000416a20009140780000ccb30000c06000e3
:102a40009041b300a4e6b700700620004011880052
:102a50009560a8009580a80021e2a8002342a80064
:102a6000316d20009140780000ccb30000c06000c0
:102a70002041b300d3e6b700516d200091407800ab
:102a800000ccb30000c060003041b300d5e6b70011
:102a90000000eb00b00c8800007d2000a00c880036
:102aa00092c1bf00f041b30092e1b70092e1a900ea
:102ab000111920009140780030ceb30000c06000b2
:102ac00091e1b700011920009140780080cfb30058
:102ad00000c060006040b30090e1b7000000eb0070
:102ae000000d8800007d2000f00c88009cc1bf0014
:102af000f041b3009ce1b7009ce1a900b1192000ae
:102b00009140780030ceb30000c060009be1b70078
:102b1000a11920009140780080cfb30000c0600070
:102b20006040b3009ae1b7000000eb0057000700d7
:102b30000000eb007400070011e1a800d5c2a80056
:102b4000dd22a800970207000080fa0000000600be
:102b50000400fa000000eb00000f780040c0b30052
:102b600088000700707a880050c0b3008500070015
:102b7000807a88000040eb0082000700907a88008d
:102b800010c0b3007f000700a07a880020c0b30007
:102b90007c000700b07a880030c0b30079000700dd
:102ba000c07a880080c0b30076000700008b8800e0
:102bb000707a800080a68800807a800070a68800e5
:102bc0009001070062d1bf000004e000fdff3a0061
:102bd00023c2bf00614060000004e000fcff32003f
:102be000dcc2a9002222a9000000eb001007980017
:102bf0000a003700f8030700000f780011a68000d4
:102c00000000eb0008020700a0002000c619070022
:102c10001e0090000000e800100798001e009000c1
:102c2000e90f5000f3ff3600828a800031c0b30004
:102c300020c0b30062020700908a880065d1bf00ff
:102c40000040e80065f1b70065d1bf00e54f5000d6
:102c50000c00360060c0b30065f1b7000000eb0067
:102c6000e0a588000000eb00f0a588000000eb0064
:102c700000a688000000eb0010a688000000eb0012
:102c800020a688000080fa00000006000400fa0078
:102c9000000f7800400620009e0f10000300340053
:102ca00040062000000f780005003700c0f92f0013
:102cb0009e0f100002003d00c0f92f00000f7800a9
:102cc0001e00e00002003400dc02a8000100370012
:102cd000dc02a9001e007800100798001e01900079
:102ce0000200e00003003d001e0090000000ea002a
:102cf000100798001e0190007410b900b00c8800f5
:102d00000080fa00000006000400fa00000f7800be
:102d1000400620009e0f10000300340040062000f3
:102d2000000f780005003700c0f92f009e0f10003b
:102d300002003d00c0f92f00000f78001e00e000e7
:102d400002003400dd42a80001003700dd42a90086
:102d50001e007800100798001e0190000200e0009d
:102d600003003d001e0090000000ea0010079800dc
:102d70001e0190007410b900000d88000080fa0058
:102d8000000006000400fa00204798000000eb0055
:102d9000000f780021e3a9002e4090007f406000e2
:102da0007f416000813220009140780000ceb30066
:102db00000c060000240700028e3b70021e3a800d3
:102dc0002023a80020c3bf00614060000004e00091
:102dd000fcff320000188000000f78001e00780011
:102de0000080fa00000006000400fa008560a900d7
:102df00051f420009140780066d1bf0080cf500090
:102e00003000390044cfbf00eb4f500012003a00b1
:102e10000040eb00004f7800090037001e81fb00e6
:102e20009e80fb0070f720000080400090407800fa
:102e300000f8200000004100014878001e4fe80023
:102e400080c0b3009e4f1000f4ff360010c0b300e6
:102e500064f1b7001400370044cfbf00ec4f5000be
:102e600011003a000040eb00004f780009003700e5
:102e70001e81fb009e80fb0070f720000080400058
:102e80009040780090f82000000041000148780050
:102e90001e4fe80040c0b3009e4f1000f4ff360004
:102ea00010c0b30063f1b7000040eb0044efb7007f
:102eb0000040eb0045efb70040c6b30066f1b70035
:102ec0004000370045cfbf000081fb00301180007b
:102ed0008040780070f72000000041000148780031
:102ee00045cfbf000080fb00100798001e00900037
:102ef000e10f50000d0032001e009000e20f500064
:102f00001a0032001e0090000000e00001003200b4
:102f10002900370077cfbf00e14f40002600320084
:102f20000040eb0045efb7002600370081f7200096
:102f300091407800c0ccb30080cf50001e0032001a
:102f400078cfbf00e14f400005003a0000c0eb0021
:102f500077efb70010c0b30045efb7001600370099
:102f60000040eb0045efb7001600370079cfbf00f7
:102f7000eb4f500005003a0090c0b30066f1b70077
:102f8000b0c0b30044efb7000b00370079cfbf00eb
:102f9000ec4f500005003a0050c0b30066f1b70096
:102fa000c0c0b30044efb700030037000040eb009f
:102fb00045efb7000300370045cfbf000040e800f1
:102fc00045efb7000080fa00000006000000fa009c
:102fd0008580a90046cfbf000040e80046efb7005b
:102fe00046cfbf00e94f5000060036000040eb001e
:102ff00046efb7009580a9000040eb0062f1b700f2
:103000000700370046cfbf008080fb0040f620005d
:1030100000804000104078000080fb0020118800f4
:103020000080fa00000006000600fa001007980071
:10303000414798000000eb00407a88000040eb0018
:10304000004f780029003700407a80004800de00f9
:103050008080fb00407a80004800dd000080700026
:10306000407a88001e80fb00800078001e009000df
:1030700000804000104078008080fb00407a800093
:1030800000806800407a8800407a80000080fb0061
:103090004400de008080fb00407a800000806800f1
:1030a000407a8800407a80004800dd00c400dd00de
:1030b000407a800000806800407a8800417a800071
:1030c000f00f2000008060004400dd0000004000a0
:1030d00080007800407a800000806800407a880094
:1030e000407a8000407a88001e4fe8004e409000f1
:1030f0009e4f1000d4ff3900407a80000080fa0013
:10310000000006002000fa00500f9800415f980070
:103110000000eb00200798000000eb00100798006b
:1031200020c0b300004f78000b0037001e80fb006a
:103130000081e9001e80fb00800078005e0890009e
:103140000080400090407800660047000000410089
:10315000014878001e4fe8009e80fb004e5890000a
:103160000080fb000080e900808f5000efff3500f9
:103170004e5890000080fb00800078005e089000b0
:10318000008040000080e900104078000080fb00d3
:103190004801dd004e5890000080fb008000780060
:1031a0005e089000008040000000e90010407800b8
:1031b0000080fb0000004100200798004e5890005e
:1031c00064405000804078006600470096ff07008a
:1031d00010079800ae0090001e009000808f5000f5
:1031e00003003a0010002000700f98000200370022
:1031f0000000eb00700f98007e0890000080fa003d
:10320000000006001400fa0010c0b30062f1b7001d
:10321000dcc2a800e0a58000100f98001e089000f6
:103220000000e00003003d009e0890008100ea00dd
:10323000110f9800400620009e089000808f5000db
:10324000020034000000eb00e0a58800f0a580003b
:10325000000f98000e0890000000e00003003d0001
:103260008e0890008100ea00010f980040062000bf
:103270008e089000808f5000020034000000eb00a8
:10328000f0a5880000a68000700798007e009000de
:103290000000e00003003d00fe0090008100ea0015
:1032a0007107980040062000fe009000808f5000bb
:1032b000020034000000eb0000a6880010a6800089
:1032c000600798006e0090000000e00003003d00e1
:1032d000ee0090008100ea0061079800400620009f
:1032e000ee009000808f5000020034000000eb00e0
:1032f00010a6880020a68000500798005e0090006d
:103300000000e00003003d00de0090008100ea00c4
:103310005107980040062000de009000808f50008a
:10332000020034000000eb0020a68800e400470003
:10333000d0c0b30080487800e0a580004046b000cf
:10334000804078006400470011409800f0a580009c
:103350004046b0008040780064004700214098005b
:1033600000a680004046b00080407800640047001e
:103370003140980010a680004046b00080407800a0
:10338000640047004140980020a680004046b000fd
:103390008040780064004700514098000040eb00f6
:1033a000004f78000a0037001e80fb000081e80013
:1033b0009e80fb0064004700008040009040780041
:1033c00040f6200000004100014878001e4fe80050
:1033d00050c0b3009e4f1000f3ff3600640047005a
:1033e00061c0b30010ff07001007980000c0eb0099
:1033f00064efb700c0ccb30065efb7001e009000cb
:103400004800de006cefb7001e0090006defb700c3
:1034100064cfbf000080fb00201188009580a800c9
:103420000080fa00000006000600fa00100798006d
:103430002107980020c0b300004f78009e80fb0059
:10344000607a8000808040001e009000808f5000d5
:1034500005003d001e80fb00617a800001004000f5
:10346000607a88000a003700617a80001e80fb00c5
:10347000808050001e009000808f500004003400b7
:10348000607a80009e80fb0001005000607a880016
:103490009e80fb00507a8000808040002e009000cb
:1034a000808f500005003d001e80fb00517a800097
:1034b00001004000507a88000a003700517a8000ed
:1034c0001e80fb00808050002e009000808f5000f6
:1034d00004003400507a80009e80fb000100500000
:1034e000507a8800607a8000fe0f5000030034009c
:1034f000e0012000607a880005003700607a8000d3
:10350000fe0f400002003d0020fe2f00607a880080
:10351000517a800020032000808f50000300340087
:1035200020032000507a880006003700517a80007e
:10353000e0fc2f00808f500002003d00e0fc2f00d7
:10354000507a8800607a8000ee0f40000600350057
:10355000607a8000ee0f500003003c000000eb009a
:10356000cafd070002003700607a8000c7fd07002f
:10357000507a8000ee0f400006003500507a80003f
:10358000ee0f500003003c000000eb00defd0700e2
:1035900002003700507a8000dbfd07000080fa004f
:1035a000000006000000fa0031c0b30020c0b300e4
:1035b0001f000700808a88000080fa0000000600d3
:1035c0000800fa00404798005147980032079800d9
:1035d0000000eb00100798000000eb00000f7800df
:1035e000de4090004e409000110007001007980048
:1035f0009e0090003e009000808f50000600310039
:103600001e009000be00900001005000d116200066
:10361000010f4000030037009e0090003e00900024
:10362000008f50001e0078000080fa0000000600a5
:103630004600fa0000579800115798000000eb0070
:10364000700798000000eb00500798000000eb00a6
:10365000400798000000eb00300798000000eb00e6
:10366000200798006000b800008fbe000e50900048
:10367000c4fd0700600798001e509000c1fd0700c0
:1036800080007800f03f20000100500050079800b3
:103690006e009000c08a8800de009000d18a880009
:1036a0006e009000cf80de00b1f307001027980075
:1036b000212798006e0090000000e00007003d0008
:1036c00002002000037824001e209000ae2090000d
:1036d000d3f30700102798002127980092972e0017
:1036e00063ea23001e209000ae20900029f407001a
:1036f0006266260093262400c9f3070059f40700e8
:10370000a08a8800a18a800080162000808f500047
:1037100004003600a08a800081e92f0001004000eb
:10372000a08a88005e009000cf80de0090f3070042
:10373000701f9800012798005e0090000000e000d4
:1037400007003d0002002000037824007e1890004e
:103750008e209000b2f30700701f98000127980098
:1037600092972e0063ea23007e1890008e2090002e
:1037700008f40700a299290053152400a8f30700b4
:1037800038f40700b08a88006e009000ee0f5000f9
:1037900004003600ee009000703f2000808f500043
:1037a0001a0036005e009000cf80de0070f3070044
:1037b000501f9800611f98005e0090000000e0001c
:1037c00007003d0002002000037824005e189000ee
:1037d000ee18900092f30700501f9800611f9800a8
:1037e00092972e0063ea23005e189000ee18900076
:1037f000e8f30700a29929005315240088f3070075
:1038000018f4070040079800f00037005e009000b1
:10381000ee0f500004003600de009000703f2000e4
:10382000808f5000220036006e009000cf80de00b6
:103830004ff30700301f9800411f98006e00900062
:103840000000e00007003d00020020000378240093
:103850003e189000ce18900071f30700301f9800ba
:10386000411f980092972e0063ea23003e189000b3
:10387000ce189000c7f30700626626009326240046
:1038800067f30700f7f3070040079800ce009000a9
:1038900080162000808f5000cc0036004e00900033
:1038a00081e92f000100400040079800c700370061
:1038b000ee00900000e02f000080400030079800ec
:1038c000de00900000e02f000080400020079800fc
:1038d0006e009000a008b00060079800ee00900015
:1038e000f03f2000808f5000040036006e009000f2
:1038f00011c02f0001004000600798003e009000ba
:10390000201f9800ae1890000100e00003003d0069
:103910002e1890000000ea00201f9800ae009000d2
:10392000111f98001e1890000000e00003003d00e9
:103930009e1890008100ea00111f98002e18900038
:103940009e189000810f5000440034003e0090000b
:10395000001f98008e1890000100e00003003d0059
:103960000e1890000000ea00001f980000202000c0
:103970008e18900001005000cf80de00fcf207009e
:103980000200200003402400d1f30700008fbe0096
:103990006e009000cf80de00f5f2070060179800ff
:1039a000711798006e0090000000e00007003d00d5
:1039b00002002000037824006e109000fe1090009a
:1039c00017f3070060179800711798001e01be00da
:1039d0006e109000fe1090006ef3070040179800e4
:1039e000511798005e009000cf80de00e0f20700e3
:1039f00020179800311798005e0090000000e0004a
:103a000007003d0002002000037824002e109000e3
:103a1000be10900002f3070020179800311798009d
:103a20001e01be000000200001f82300fbf2070089
:103a30000001be002e109000be10900055f307004c
:103a40000001be004e109000de109000f4f207005e
:103a500084f3070070079800430037002e009000a1
:103a6000101798009e1090000100e00003003d0038
:103a70001e1090000000ea0010179800002020009f
:103a80009e10900001005000cf80de00b8f20700c9
:103a900002002000034024008df30700008fbe00c9
:103aa0005e009000cf80de00b1f20700700f98003a
:103ab000011798005e0090000000e00007003d0044
:103ac00002002000037824007e0890008e109000f1
:103ad000d3f20700700f9800011798001e01be0076
:103ae0007e0890008e1090002af30700500f980077
:103af000610f98006e009000cf80de009cf20700fe
:103b0000300f9800410f98006e0090000000e00018
:103b100007003d0002002000037824003e089000ca
:103b2000ce089000bef20700300f9800410f9800b9
:103b30001e01be000000200001f82300b7f20700bc
:103b40000001be003e089000ce08900011f307006f
:103b50000001be005e089000ee089000b0f2070081
:103b600040f30700700798007e009000cf80de00d1
:103b70007ff20700100f9800210f98007e00900040
:103b80000000e00007003d00020020000378240050
:103b90001e089000ae089000a1f20700100f9800d8
:103ba000210f980092972e0063ea23001e089000d0
:103bb000ae089000f7f20700a299290053152400df
:103bc00097f2070027f30700400798004e00900087
:103bd0000080fa00000006000800fa000000eb0078
:103be0003007980020a68000300798000000eb0006
:103bf000200798000000eb00100798000000eb0081
:103c0000000f780040c0b3005efc070080a688006b
:103c100050c0b3005bfc070070a6880020a680009f
:103c2000000f78001e0078003007980071a6800011
:103c3000301f2000808f500008003e0020a680002a
:103c40000000e00010003d000000eb00300798008d
:103c500000c0eb005ef1b7000b00370071a68000da
:103c600040382000808f50000700360020a68000da
:103c70000000e000040034000000eb003007980072
:103c800010c0b3005ef1b70081a68000100c2000c8
:103c9000808f50000500360080a68000f1f32f00d1
:103ca0000100400020079800020037000000eb00f0
:103cb0002007980071a680002e009000010050009f
:103cc000100798003e0090000000e0000b00340058
:103cd0009e00900000fa2f00808f500007003d00ea
:103ce0000000eb003007980000c0eb005cf1b7006b
:103cf00010c0b3005df1b7000d0037003e0090002a
:103d00000000e0000a003d009e0090000006200038
:103d1000808f5000060034000000eb003007980050
:103d200010c0b3005cf1b70010c0b3005df1b70084
:103d30005cd1bf00e14f50000b003a003e00900004
:103d40000000e000150034001e0090000000e000bc
:103d500012003c000040eb005df1b7000000eb00fa
:103d6000300798000d0037005cd1bf00e14f4000e4
:103d70000a003a003e0090000000e00007003d000d
:103d80001e0090000000e000040035000040eb0041
:103d90005df1b7000000eb00300798005cd1bf0078
:103da0000004e0001a0032005dd1bf000004e00012
:103db00017003a005cd1bf00e14f500009003a0003
:103dc0003e0090000000e00003003d000040eb00da
:103dd0005cf1b7000e0037000000eb0030079800e0
:103de0000b0037005cd1bf00e14f400008003a00f3
:103df0003e0090000000e000030034000040eb00b3
:103e00005cf1b700020037000000eb0030079800bb
:103e10005ed1bf00e14f50000c003a003e00900020
:103e20000000e000030034000000eb0030079800c1
:103e3000140037003e0090000000e00011003d003b
:103e40000040eb005ef1b7000e0037005ed1bf000e
:103e5000e14f40000b003a003e0090000000e000ff
:103e600003003d000000eb0030079800050037001c
:103e70003e0090000000e000020034000040eb0033
:103e80005ef1b7003e0090000080fa0000000600de
:103e90000400fa009560a90080bb200022150700ed
:103ea00040012000e0a5880041000700c0fe2f006f
:103eb000e0a588003e0007000000eb00e0a58800b8
:103ec00040012000f0a5880039000700c0fe2f0047
:103ed000f0a58800360007000000eb00f0a5880080
:103ee0004001200000a6880031000700c0fe2f001e
:103ef00000a688002e0007000000eb0000a6880046
:103f00002b0007004001200010a688000000eb00f5
:103f100010079800090037000060fe0011a680001d
:103f20000000eb0040fd0700a0002000fe14070089
:103f30001e0090000000e800100798001e0090008e
:103f4000fd0f5000f4ff3600c0fe2f0010a68800c1
:103f50008000eb000000eb0033fd0700400620006e
:103f6000f11407000000eb0010079800090037006b
:103f70000060fe0011a680000000eb002afd070093
:103f8000a0002000e81407001e0090000000e800d8
:103f9000100798001e009000fd0f5000f4ff36003f
:103fa0000000eb0058fb07000060fe00feff37003a
:103fb0000200fa000000eb00000f78000e0037004e
:103fc000dcc2a8000060fe008efc070062d1bf00ca
:103fd0000004e000fdff3a0023c2bf006140600022
:103fe0000004e000fcff3200dcc2a9004006200013
:103ff000cd1407001e0fe800200020009e0f1000c7
:10400000efff36000080fa00000006000600fa000c
:104010000000eb00200798004001200020a6880047
:104020000000eb00000f7800110037000000eb00eb
:10403000100798000a003700e7fe070020079800e5
:1040400011a680002e009000f7fc0700a0002000c1
:10405000b51407001e0090000000e800100798004b
:104060001e009000e90f5000f3ff36001e0fe8001d
:10407000d00120009e0f1000ecff3600c0fe2f0084
:1040800020a688000000eb00000f78001100370028
:104090000000eb00100798000a003700cefe070072
:1040a0002007980011a680002e009000defc07007b
:1040b000a00020009c1407001e0090000000e800f3
:1040c000100798001e009000e90f5000f3ff360023
:1040d0001e0fe800900020009e0f1000ecff36003d
:1040e000cdff37005400fa0020cf980061279800d8
:1040f00072279800032f980030c2b30010cf9800a9
:104100007e2090000000e000030032000e289000a6
:104110000000e00003003a0010fd2f00102f98006f
:104120003b0037000e00e8005202200091032100fe
:10413000c9f207000e00e800aec8900021409800c8
:104140006e209000c800de004801dd000101710012
:104150008e00e800f00f20008001610031409000e7
:104160006040600003407000b04098004811de00dd
:10417000414090006040600002407000c0409800e4
:104180000e00e8006500400002022000fe209000c2
:10419000b1f20700610220008e80400090042000f0
:1041a0000e0040008e02e8000002780033c0b30029
:1041b0001200200005007800c60f0700004f7800ad
:1041c0001e04e000030032001e00fb00102f9800c8
:1041d0000f0037009ec8900030c2b30080cf50005f
:1041e0000300320021ff2f00112f98000800370034
:1041f000600220000e0040008000e8000202200063
:104200000e28900094f207001e00fb00102f98006b
:104210001e2890000080fa00000006001600fa0038
:10422000604f9800010f9800120f980070c0b30003
:10423000504f980000ceb300004f78001e08900049
:104240000000e00003003a0010fd2f00200f98004e
:1042500035003700680047005200200001022100ad
:104260007df2070068004700ee489000214098006a
:10427000680147008e089000f00f20000080600069
:10428000c801dd0092009000f00f20000080600067
:1042900003007000100198000e089000c800de00b6
:1042a000f00f200080816000a200900000f02f003d
:1042b0000080600003007000200198008e00e8007c
:1042c0006d004700e80247000002780033c0b300e9
:1042d00022002000050078007e0f0700004f7800c4
:1042e0001e04e000030032001e00fb00200f9800b7
:1042f0000d0037005e489000e74f50000300320089
:1043000021ff2f00210f9800070037001e089000a2
:104310008e00e8008100e800420020004ef2070015
:104320001e00fb00200f98002e0890000080fa006d
:10433000000006000e00fa005007980070c0b3009d
:10434000004f98005e0090000000e00003003a007b
:1043500010fd2f00600798001a0037008e00e8005b
:10436000680047000002780033c0b300220020003c
:10437000a0022100570f0700004f78001e04e00044
:10438000030032001e00fb00600798000d0037009c
:104390000e489000e74f50000300320020ff2f002e
:1043a00060079800070037005e0090008e00e8006c
:1043b0008100e8003200200027f207001e00fb0009
:1043c000600798006e0090000080fa000000060070
:1043d0000e00fa005007980070c0b300004f98001c
:1043e0005e0090000000e00003003a0010fd2f0086
:1043f00060079800190037008e00e8006800470049
:104400000002780033c0b3002200200040032100e6
:10441000300f0700004f78001e04e0000300320058
:104420001e00fb00600798000c0037000e4890004b
:10443000e74f50000300320020ff2f006007980074
:10444000060037000e00e800c04090005e009000bb
:10445000014878001e00fb00600798006e00900085
:104460000080fa00000006000e00fa0050079800d5
:1044700070c0b300004f98005e0090000000e000a4
:1044800003003a0010fd2f00600798001a00370063
:104490008e00e800680047000002780033c0b300d7
:1044a00022002000500221000a0f0700004f780070
:1044b0001e04e000030032001e00fb0060079800ad
:1044c0000d0037000e489000e74f50000300320007
:1044d00020ff2f0060079800070037005e00900063
:1044e0008e00e8008100e80042002000daf10700b9
:1044f0001e00fb00600798006e0090000080fa002c
:10450000000006000e00fa005007980070c0b300cb
:10451000004f98005e0090000000e00003003a00a9
:1045200010fd2f0060079800470037008e00e8005c
:10453000680047000002780033c0b300220020006a
:1045400000022100e30e0700004f78001e04e00087
:10455000030032001e00fb00600798003a0037009d
:104560000e489000e74f50000300320020ff2f005c
:104570006007980034003700de0190000e00e8006c
:104580008000e8002200200003007800b2f107005c
:104590000e00e8008040eb00014878000000e800d1
:1045a0008040eb00014878000000e8008040eb000c
:1045b000014878000000e8008040eb0001487800e6
:1045c0000000e8008040eb00014878000000e800af
:1045d0008040eb00014878000000e8008040eb00dc
:1045e000014878008e00e80068004700000278006b
:1045f00033c0b30022002000a0022100b50e070046
:10460000004f78001e04e000030032001e00fb0093
:10461000600798000c0037000e489000e74f5000ec
:104620000300320020ff2f006007980006003700cb
:104630000e00e800c04090005e009000214098000d
:104640001e00fb00600798006e0090000080fa00da
:10465000000006000e00fa005007980070c0b3007a
:10466000004f98005e0090000000e00003003a0058
:1046700010fd2f00600798005e0037000e00e80074
:104680008040eb00014878000000e8008040eb002b
:10469000014878000000e8008040eb000148780005
:1046a0000000e8008040eb00014878000000e800ce
:1046b0008040eb00014878000000e8008040eb00fb
:1046c000014878000000e8008040eb0001487800d5
:1046d0008e00e800680047000002780033c0b30095
:1046e00022002000000221007a0e0700004f78000f
:1046f0001e04e000030032001e00fb00600798006b
:104700003c0037000e489000e74f50000300320095
:1047100020ff2f0060079800360037000e00e800e9
:10472000e30040005e009000220020004af10700f4
:104730000e00e8008040eb00014878000000e8002f
:104740008040eb00014878000000e8008040eb006a
:10475000014878000000e8008040eb000148780044
:104760000000e8008040eb00014878000000e8000d
:104770008040eb00014878000000e8008040eb003a
:10478000014878008e00e8006800470000027800c9
:1047900033c0b30022002000f00221004d0e0700bc
:1047a000004f78001e04e000030032001e00fb00f2
:1047b000600798000f0037000e489000e74f500048
:1047c0000300320020ff2f00600798000900370027
:1047d0005e0090008081e8000e00e8008000e800a4
:1047e00042002000030078001bf107001e00fb00c0
:1047f000600798006e0090000080fa00000006003c
:104800001200fa00404f980040c0b300204f9800bb
:104810006500470052002000310721000ef107001b
:1048200065004700ce48900021409800e500470011
:104830000040eb00c0409800e50047000040eb005e
:10484000b04098008e00e8006a004700e50247008b
:104850000002780033c0b300320020000500780069
:104860001c0e0700004f78001e04e0000300320019
:104870001e00fb00000f98000b0037000e00e80040
:10488000104090000004e0000300320021fd2f00e2
:1048900071079800020037000000eb0070079800d5
:1048a000fe009000010f98000e0890000080fa00b2
:1048b000000006002400fa00205f9800610f9800b5
:1048c00020c0b3001047980000ceb300004f78001e
:1048d00040c0b300605798006e0890000000e000f0
:1048e00003003a0010fd2f00101798003b0037001e
:1048f0000e80e8000201200081072100d6f00700a9
:104900002e589000e14060000e80e80021409800a1
:104910000e80e80065004000b2002000ee08900024
:10492000cdf0070020c0b300104798002e5890002b
:104930000004e00003003a001e4090000004a000c4
:1049400010479800770047003512070078004700ad
:1049500014120700fe5090000e58900080cf5000b7
:1049600003003a00600020000017980002003700a2
:104970005000200000179800f20047007600470022
:104980008e82e800000278009e4190000e11900097
:1049900005007800cf0d0700004f78001e04e000ee
:1049a000030032001e00fb00101798000b003700b8
:1049b00072004700104090000004e0000300320045
:1049c00020fd2f00700f9800020037000000eb0060
:1049d000700f98007e089000101798001e1090002d
:1049e0000080fa00000006003200fa00601798000c
:1049f00000ceb300004f780040c0b300206f980095
:104a00006e1090000000e00003003a0010fd2f003f
:104a1000001f9800250037000e00e8005202200019
:104a2000810821008cf007000e00e80065004000be
:104a300002022000ee10900087f0070061022000c3
:104a40008e804000a00220000e0040008e02e80090
:104a50000002780023c0b300820020000500780027
:104a60009c0d0700004f78001e04e0000300320098
:104a70001e00fb00001f98000c00370060022000a1
:104a80000e004000104090000004e00003003200df
:104a900020fd2f0070179800020037000000eb0087
:104aa000701798007e109000001f98000e1890005c
:104ab0000080fa00000006002400fa00600f980051
:104ac000710f980040c0b300205f980000ceb30083
:104ad000004f78007e0890000000e00003003a00dc
:104ae00010fd2f0010179800320037000e00e8006c
:104af00052012000e105210057f007006e089000e8
:104b0000c800de004801dd00010171008e00e800f0
:104b1000f00f200080016100314090006040600093
:104b200003407000b04098004811de004140900002
:104b30006040600002407000c04098000e00e80035
:104b40006500400002012000fe08900042f00700ce
:104b5000f60047007a0047008e02e8000002780065
:104b600013c0b3008200200005007800590d070033
:104b7000004f78001e04e000030032001e00fb001e
:104b8000101798000b003700760047001040900087
:104b90000004e0000300320020fd2f000017980001
:104ba000020037000000eb00001798000e10900084
:104bb000101798001e1090000080fa0000000600f8
:104bc0000a00fa006047980052002000d10a210034
:104bd0000e00780020f007006e40900020479800fb
:104be00011c0b3000e007800df0d07000004e000e4
:104bf0000300320000ff2f0040079800020037003a
:104c00000000eb00400798004e0090000080fa0082
:104c1000000006000200fa00004f78001e407800f5
:104c2000410e07000000fb000080fa0000000600b3
:104c30003600fa00406f980071179800021f980024
:104c400040c0b300206f980000ceb300004f780042
:104c50000e1890000000e00003003a0010fd2f0045
:104c6000201f98003e0037006500470052022000d8
:104c70008000eb000cf007006500470052022000a6
:104c8000210b2100f4ef0700e500470070c2b300dc
:104c9000804878004e689000e14060006500470061
:104ca000214098007e109000c800de004801dd0021
:104cb00001017100e5004700f00f20008001610054
:104cc000314090006040600003407000b0409800a8
:104cd0004811de00414090006040600002407000da
:104ce000c0409800650047006500400002022000b7
:104cf0008e189000d8ef07008e00e800a002200078
:104d00000e004000e50247000002780013c0b30027
:104d10009200200005007800ee0c0700004f78009c
:104d20001e04e000030032001e00fb00201f98005c
:104d30000b0037000e00e800104090000004e00077
:104d40000300320020fd2f00101f980002003700e2
:104d50000000eb00101f98001e189000201f980004
:104d60002e1890000080fa00000006002200fa00d1
:104d7000500f980040c0b300105f98005e0890008c
:104d80000000e00003003a0010fd2f00001798001b
:104d90006c00370067004700220120008000eb0014
:104da000c1ef07006700470022012000810b2100ae
:104db000a9ef0700e700470040c1b3008048780032
:104dc0005e089000104090000080fb004500de006f
:104dd000610060000004e00007003a005e089000f7
:104de000104090000080fb004400de006100600085
:104df0000004e0000300320001c2b300615f9800cc
:104e0000020037000040eb00605f98006700470039
:104e1000ee58900021409800de089000214090005c
:104e20000081fb00314090000080fb004800dd0065
:104e300002007000000f7800de0890002140900012
:104e40000081fb00314090000080fb004800dd0045
:104e500002007000c800de004801dd0001017100a1
:104e6000de089000f00f20008001610021409000da
:104e70006040600003407000a04098004811de00d0
:104e8000314090006040600002407000b0409800e7
:104e90006700470065004000d2002000de08900057
:104ea0006def0700de089000f00f20001e0160008b
:104eb000214090006040600002407000a0409800d7
:104ec0001e0078004801de00314090006040600024
:104ed00002407000b0409800e300470079004700ae
:104ee000e7024700000278008041eb00a2002000aa
:104ef00005007800770c0700204798002e409000ae
:104f00000004e000040032002e4090000000fb008e
:104f1000001798000b003700630047001040900016
:104f20000004e0000300320020fd2f00600f980015
:104f3000020037008000eb00610f98006e089000bf
:104f4000001798000e1090000080fa000000060084
:104f50003200fa006017980040c0b300206f98003c
:104f600000ceb300004f78006e1090000000e0000b
:104f700003003a0010fd2f00001f98002a003700a0
:104f800065004700520220008000eb0046ef07005a
:104f90006500470052022000e10b21002eef0700c0
:104fa000e500470070c2b300804878006500470004
:104fb0006500400002022000ee10900026ef07007e
:104fc0008e00e800a00220000e004000e50247002d
:104fd0000002780023c0b300b20020000500780072
:104fe0003c0c0700004f78001e04e0000300320074
:104ff0001e00fb00001f98000b0037000e00e800a9
:10500000104090000004e0000300320020fd2f005b
:1050100070179800020037000000eb00701798002e
:105020007e109000001f98000e1890000080fa007b
:10503000000006000600fa000e0078008040eb0039
:10504000014878000000e8008040eb00014878004b
:105050000000e8008040eb00014878000000e80014
:105060008040eb00014878000000e8008040eb0041
:105070000148780052002000410c21000e00780009
:10508000f5ee070070c0b300004f780011c0b30008
:105090000e007800b40c07000000fb000080fa004e
:1050a000000006000a00fa00604798000040eb008c
:1050b000504798000000eb0010079800dd0f070034
:1050c000004f78006e4090000004e00004003a00b9
:1050d000fecfbf000080fb0040079800180037009b
:1050e0000040eb0040479800060037004e4090001b
:1050f000d40f0700100798004e4090000040e800d1
:10510000404798004e4090009e4f5000f7ff3600f9
:105110001e00900010009000e30f500003003a00c2
:105120005e4090000040e80050479800fecfbf006e
:10513000de409000014050000080fb0040079800d6
:105140004e0090000080fa00000006000a00fa00fd
:1051500000ceb300604798000000eb0020079800e5
:1051600000c0eb002047980000c0eb0010479800fb
:10517000b00f0700004f78000040eb001047980088
:10518000720037001e409000ae0f07002007980005
:105190001e4090001310070000c0eb00ef0f070047
:1051a0002e009000660040002afd0700604798002e
:1051b0006e4090000004e00033003a002e009000a2
:1051c0006c0040005bfc0700604798006e40900058
:1051d0000004e0005a003a002e0090009e4090002b
:1051e000014878002e009000604890000080fb008d
:1051f0004400de00ef4060002e0090001140980057
:10520000fecfbf000040e800feefb7006700470098
:105210006ffc0700604798006e4090000004e000bb
:1052200007003a00ae0090001000200090009800a7
:10523000fe4090002e009000514098000f00370073
:10524000ae00900020002000900098002e009000fa
:10525000604890000004e00003003d000040eb00c7
:10526000104f98000200370080c0eb00114f9800eb
:105270002e0090009e489000414098001e409000f3
:10528000940f07002e0037001e409000b30f070058
:105290002e00900066004000eefc0700604798007a
:1052a0006e4090000004e00025003a002e009000bf
:1052b0006c0040001ffc0700604798006e409000a3
:1052c0000004e0001e003a00ae0090003000200014
:1052d000900098001e409000204798002e009000fb
:1052e000ae409000014878002e0090006048900089
:1052f0000080fb004400de00ef4060002e009000c4
:10530000114098002e009000604890000004e000da
:1053100003003d000040eb00004f98000200370002
:1053200080c0eb00014f98002e0090008e48900046
:1053300041409800fecfbf000040e800feefb700fc
:105340001e4090000040e800104798001e4090006a
:105350009e4f50008bff36002e4090007f0f0700bd
:10536000fecfbf000080fb000080fa0000000600b6
:105370007201fa00889fbe0070179900011f990002
:10538000121f9900231f99000000eb0010079800de
:105390004c0237001e0090004600dd0080007800bf
:1053a0000e18910000804000200798000000eb00dc
:1053b000000f7800370037001e0078004200dd0043
:1053c0006e024700000242001e0078004200dd002d
:1053d000800078002e0090000080400063004000b4
:1053e000104078000081fb00030020001e007800c0
:1053f0004200dd00800078002e0090000080400018
:105400000080e800104078000080fb0001002000d0
:10541000c808dd000080fd00804078000040eb00ff
:1054200000017100818171001e0078004200dd00e2
:10543000800078002e009000008040000000e8000e
:10544000104078000080fb0001002000c000dd005b
:105450000000200000017100818171001e007800b1
:105460004200dd00800078002e00900000804000a7
:10547000104078000080fb0001002000c800dd0023
:10548000000020000000710081807100008abe00d1
:105490001e0fe800f00020009e0f1000c6ff340031
:1054a00000012000000f7800710037001e02780014
:1054b0001e80e900ee0047004200dd0001004000d0
:1054c0001000be008101d1004f01dd00828171001a
:1054d000532f99000001d1004f08dd000001710039
:1054e000622f99001e80e900ee0047004200dd00b7
:1054f000010040001000be00c309de004d01dd00c8
:1055000082817100332f99004301de004d08dd00d8
:1055100000017100422f99005e2b9100ee2b91004b
:105520003e2c9100ce2c910008016b0089816b000c
:105530001e80e900ee0047004200dd00010040004f
:105540001000be00c60cdd004a00de0000807400c2
:10555000ca08de0000016900818169009e007800b0
:1055600067805000ee0047004200dd00010040006f
:105570001000be0002034000838348001e01780033
:105580006f005100ee0047004200dd0001004000c6
:105590001000be00c909dd004701de0082817100f4
:1055a000132f99004901dd004708de00000171005a
:1055b000222f99009e0178006f805100ee00470075
:1055c0004200dd00010040001000be00c209de0004
:1055d0004e01dd0082817100732799004201de00d7
:1055e0004e08dd0000017100022f99001e2c910071
:1055f000ae2c91007e2091008e28910000016c005d
:1056000081816c009e0078006f805000ee004700a2
:105610004200dd00010040001000be00cd0add00a8
:105620004300de0000807200c308de000000690055
:105630008180690006014000878148001e037800d0
:1056400070005300ee0047004200dd000100400002
:105650001000be000201400083814800ee004700b8
:105660004220dd00010040000288be001e0fe8005d
:10567000f00320009e0f10008cff34000000eb00b0
:10568000000f78000d0037001e0278001e00780021
:10569000fe1091004200dd008008b00001004000d3
:1056a0001001be00e11020008e8040004220dd008d
:1056b000010040000288be001e0fe80077002000b5
:1056c0009e8f1300f0ff34000000eb00000f780005
:1056d0005b013700e01020000e004000600b9000de
:1056e000f00b9000e01020000e00400090089000a9
:1056f00000089000ca09dd004601de0082817100c9
:10570000532799004a01dd004608de0000017100c0
:1057100062279900e01020000e00400090089000e1
:1057200000089000c509dd004b01de008281710098
:10573000332799004501dd004b08de0000017100b0
:10574000422799005e249100ee2491003e209100b2
:10575000ce20910000026c0081826c00e0102000dd
:105760000e0040009008900000089000c909de007b
:105770004701dd0082817100132799004901de0095
:105780004708dd0000017100222799001e219100c9
:10579000ae21910002006a0083806a000604400086
:1057a00087844800e01020000e00400000099000af
:1057b00090099000e01020000e004000b00890001a
:1057c00020089000020278000001780001007800b3
:1057d00082006200008061006102b800742f9900ad
:1057e000053799007e2b91008e339100c033dd0088
:1057f00006002000762f9900073799007e2a910035
:105800008e3291006109b800722f99000337990018
:105810007e2b91008e339100060272008782720007
:10582000e01020000e00400090089000000890005a
:105830000081ea008181ea00e01020000e004000b3
:10584000d008900040089000020378000001780022
:105850000100780002016300008061006103b8006c
:1058600016379900273799001e309100ae3091000d
:10587000c000dd000000200010379900213799009a
:105880001e309100ae3091006113b80016379900b8
:10589000273799001e319100ae319100020070004f
:1058a0008380700000006a0081806a000801400067
:1058b000898148001e007800c200dd0040e420001d
:1058c000008040001000be000201400083814800bb
:1058d0001e007800ee0047004200dd00010040009d
:1058e0001000be000200400083804800500798006e
:1058f00061079800e01020000e0040001000be007c
:10590000ce09dd004201de0082817100731f990023
:105910004e01dd004208de000001710002279900ff
:10592000e01020000e0040001000be00c309dd00a2
:105930004d01de0082817100531f99004301dd009b
:105940004d08de0000017100621f99007e1b91006e
:105950008e2391005e1c9100ee1c910008026b00ea
:1059600089826b00e01020000e0040001000be0095
:10597000c609de004a01dd0082817100331f9900f3
:105980004601de004a08dd0000017100421f990057
:105990003e189100ce18910000046a0081846a00cc
:1059a000e01020000e0040001001be00e0102000ba
:1059b0000e004000b000900020009000020278002d
:1059c0000001780001007800820062000080610020
:1059d0006101b80032379900433799003e32910097
:1059e000ce329100c022dd0004002000343799003f
:1059f000453799003e329100ce329100610bb800dc
:105a000036379900473799003e309100ce309100eb
:105a10000002720081827200e01020000e0040003f
:105a20001001be00e01020000e004000d0009000e9
:105a30004000900002037800000178000100780027
:105a400002016300008061006103b80056379900cd
:105a5000673799005e309100ee309100c000dd00a4
:105a60000000200050379900613799005e309100a6
:105a7000ee3091006113b8005637990067379900ee
:105a80005e319100ee319100020070008380700061
