:020000040000fa
:080000000002040000000000f2
:020000040000fa
:10040000cf8921002e7f24000e018800000000000b
:100410000c000700a0cc2400010020001f000700f2
:10042000000020000000e000020032000000020096
:100430000000000038560200000000000040da0012
:100440000000fe004440a900c01720000000e000aa
:100450000300320000002000a00188004440a800f2
:1004600000000600f03fb1000180b1000600350039
:10047000ee03090000000000403fb1000180b10020
:10048000fbff3d001000b000203fb000020035002f
:1004900000800900000000000000060091018800b3
:1004a000800078000000eb0015003700e28040007b
:1004b00032a0b4009101ba00e280400032a0b40042
:1004c0009102ba00e280400032a0b4000002eb00ca
:1004d000472bde00f507b200602ce10004003a0073
:1004e0000059eb008301e900fdff3e0004003700e6
:1004f0006128e100010032000082eb0004000700e7
:100500001101ba000200e000e8ff3a000000060016
:100510003159ba008301e9000c0032002159ba00b8
:100520008301e900080032000400e00003003a0003
:10053000e280400032a0b400f5ff370011d9ba00c4
:100540008301e900faff3a008100e800e180400001
:1005500032a0b40000000600682c04000000000077
:100560006027040000000000d259040000000000d1
:100570005417040000000000ac1c04000000000040
:10058000284c0400000000000040da000000fe00db
:10059000889fbe008a9fbe00010578000100e00030
:1005a0000400350008003c000000e000200032009c
:1005b0000500370060001000e080180002003b00da
:1005c00001f02c001a0037000004be006011b800d2
:1005d0006b0920000982cf00020039000882cf0099
:1005e0000441b000694252000e00320008003b0096
:1005f00082817100610164008904d1000884d30004
:100600008b05e8000442e800f9ff3a0005003700d6
:100610000804440089844c008b05e9000442e90089
:10062000fbff3a00f40007000af0a70001f0a00069
:100630004f05be004f04be0000000600889fbe00ac
:100640008a9fbe008c1f780011010700180133003b
:1006500003866c006450e1002e0032006420e1004b
:10066000330032006150e1002f0032006120e100d0
:100670003100320085855500eb07b00009002000ed
:1006800008042000050037000804440089844c0059
:100690000a0031000603430087834b00000153002a
:1006a00081815b00f8ff33000203be000800a00058
:1006b0000804440089844c00f6ff3900c639dd0087
:1006c0008301730001003200130020008904d1006f
:1006d0000884d3000998a300050032000800a70091
:1006e0000300a0008904d1000884d3008b05e80032
:1006f0008904d1000884d3000001eb000281d200fc
:10070000bd00070001f0a1000cf0a70001f0a0005f
:10071000f00037006420e100f20032000801be0062
:100720000200be00f7ff37006120e100ed0032005b
:100730006000b800f3ff37000000200001f8270038
:10074000f0ff370003f0a200889fbe008a9fbe0022
:100750008c1f7800ce000700d50033006450e10004
:100760004f0032006420e1005200320003826c002e
:1007700007003b000905d0000306d000820f54009b
:100780000c065d0002003900020032008901780089
:10079000030678008582550004003d000003fd003b
:1007a0008103fd008502ea008b854200840f720000
:1007b00002003b0060001000e08018006011b800eb
:1007c0000005eb007a28e1000a00390006007800f5
:1007d000c75ddd00f707b200878075002d00370088
:1007e000828171000a017800610560008180d1007a
:1007f0000080d3008502e900f9ff3b0006044000b9
:100800008784480002003b0060041400e0841c0060
:100810000988a300070032008a817100828171007b
:10082000610164008904d1000884d3008b05e800cd
:10083000170037000978a30013003a000b00e0000e
:10084000130034008b05e9000804440089844c003f
:100850000a4474000978a3000d003a000b00e00080
:10086000070034008b05e9000804440089844c002b
:1008700001003a000b0020000978a300f7ff3200c6
:100880000001eb0002003700828171000a0178004c
:10089000590007000cf0a70001f0a0008d00370000
:1008a0006420e10002003a00838f6c008d00330069
:1008b0000801be000200be0086003700889fbe000f
:1008c0008a9fbe008c1f78007100070078003300fb
:1008d00003866c006450e100240032006420e100d3
:1008e000270032006150e100220032006120e10067
:1008f000210032008b854200eb07b1000134b800c3
:10090000003ab8000804420089844a00013ab8005d
:100910000030b8008880400009014a00040033001c
:100920000000400081804800020149008b05e90079
:10093000c909dd00830170000100320013002000ae
:10094000c814de004814dd004709de001200b200c2
:10095000c808de00088470002700070001f0a1002d
:100960000cf0a70001f0a0005a0037006120e10060
:100970005c0032000801be000200be00f7ff370035
:100980006150e100fcff3a00560037000001be0054
:10099000570007000470a70003f0a10003f8a300ac
:1009a00013003a006509b10010003200090035005b
:1009b0006928e10002003500010028000000050060
:1009c00000004000818048008502e900fcff3a00f9
:1009d00000000600f88f4200050035008100d100bc
:1009e0000080d3008502e800fcff3a00000006000a
:1009f0008000eb00000005008100200061805500b0
:100a00000b003d000b00200061fe2f000100e10003
:100a10001d00340082817100610164008904d100ed
:100a20000884d3000000e800faff3a0071002000bb
:100a300061006400030070000200600009003200e1
:100a400061044400e0844c000988a50005003200e0
:100a50008b05e8006808e10002003a008904d10033
:100a60000884d300f20f20000258e10005003d0089
:100a7000c75ddd00f907b2008980750008007800c5
:100a8000000006000bf827008b007800000005002e
:100a90000004be00160007000003be000405be00ef
:100aa0000200be0012000700844f7500000006001f
:100ab0000200be006450e100050036006420e10041
:100ac000020036000968a30001003a000800be00d9
:100ad0000160a0004f0678004f05be004f04be0025
:100ae00000000600f0ff2f00f1ff2700f9ff37009c
:100af000c70ade00f107b200f50fb20008003200ad
:100b0000e1cf4200020032000170a0002400050085
:100b1000810f700001003200040805004400050048
:100b2000810f700002003a00140005008502e90000
:100b30000000400081c04800fcff3b000170a000a5
:100b40002400050016c2bf000008a300fdff3a0004
:100b500016c2bf000018a300faff3a0016c2bf0079
:100b60000028a300f7ff3a0016c2bf000038a30018
:100b7000f4ff3a0016c2bf000048a300f1ff3a009c
:100b800019c2bf000068a300eeff3a000000060093
:100b90001602a800000006000080fb0090108800ec
:100ba00018c2bf0001c8b300014060000080fb0014
:100bb0000000e9004f00de000000e9000000060030
:100bc0001622a800000006001662a80016c2bf0088
:100bd0000038a300fdff3a0018c2a9008010800071
:100be0000080fb000000060016a2a9001682a800e3
:100bf0000000060016a2a8001682a8000000060049
:100c00001642a8000000060021108800301088005d
:100c10000000060006c2bf000008a300fdff3a0066
:100c200006c2bf000018a300faff3a0006c2bf00c8
:100c30000028a300f7ff3a0006c2bf000038a30057
:100c4000f4ff3a0006c2bf000048a300f1ff3a00db
:100c500009c2bf000068a300eeff3a0000000600d2
:100c6000a1108800b0108800000006000602a8004d
:100c7000000006000080fb001010880008c2bf00c2
:100c800001c8b300014060000080fb000000e900e3
:100c90004f00de000000e900000006000642a80048
:100ca000000006000662a80006c2bf000038a300cc
:100cb000fdff3a0008c2a900001080000080fb0080
:100cc0000000060006a2a8000682a8000000060098
:100cd00076c2bf000008a300fdff3a0076c2bf0045
:100ce0000018a300faff3a0076c2bf000028a30054
:100cf000f7ff3a0076c2bf000038a300f4ff3a00c5
:100d000076c2bf000048a300f1ff3a0079c2bf00dd
:100d10000068a300eeff3a00000006007602a8007b
:100d2000000006000080fb009013880078c2bf001e
:100d300001c8b300014060000080fb000000e90032
:100d40004f00de000000e900000006007642a80027
:100d5000000006007662a80076c2bf000038a3003b
:100d6000fdff3a0078c2a900801380000080fb00dc
:100d70000000060076a2a8007682a8000000060007
:100d80007622a8000000060076a2a9007682a800bc
:100d9000000006008001eb000200370061f07900de
:100da0008301e800828f5100fcff3a00000006003a
:100db0000400fa00e0bf9f00e48157008129780019
:100dc0000002eb000f0037006fb8970090407800ea
:100dd0007fb89700104078000402e80080cf5000f0
:100de000040032008180fb000080fb000080500086
:100df000070037006fb897000000e800e0bf9f00d1
:100e00009309e800820f5200efff3a000000eb0068
:100e10000080fa000000060000027800808f500079
:100e20000a00310082814000808f510007003600a7
:100e3000020240008000eb00436278008100e8007d
:100e4000828f500007003200fbff37000200e000f5
:100e50000400320002814000315a7800828f500035
:100e6000fdff3a00000006008001eb0002003700a1
:100e7000817178008301e800828f5100fcff3a0005
:040e80000000060068
:020000040000fa
:020000040005f5
:0457f8009e430000cc
:020000040000fa
:020000040005f5
:0457fc00fd1e00008e
:020000040000fa
:10000800c4020000c4020000c4020000c4020000d0
:10001800c4020000c4020000c4020000c4020000c0
:10002800c4020000965a0000c4020000d85900001b
:10003800c4020000bc5a0000c4020000fe590000bf
:10004800245a0000c4020000c4020000a05b0000a3
:10005800c65b00007a5b0000c4020000c402000016
:10006800c4020000ec5b0000c4020000e02a0000ab
:10007800c4020000c4020000c4020000c402000060
:10008800c4020000c4020000c40200004a5a000072
:10009800705a0000c4020000385c0000c40200006e
:1000a800c4020000c4020000c4020000c402000030
:1000b800c4020000e25a0000085b00002e5b00004a
:1000c800545b0000c4020000c4020000c402000027
:1000d800c4020000c4020000c4020000c402000000
:1000e800c4020000c4020000125c0000c402000048
:1000f800c4020000c4020000c4020000c4020000e0
:10010800c4020000c4020000c4020000c4020000cf
:10011800c4020000c4020000c4020000c4020000bf
:10012800c4020000c4020000c4020000c4020000af
:10013800c4020000c4020000c4020000c40200009f
:10014800c4020000c4020000c4020000c40200008f
:10015800c4020000c4020000c4020000c40200007f
:10016800c4020000c4020000c4020000c40200006f
:10017800c4020000c402000068090000c4020000b4
:10018800c4020000c4020000c4020000c40200004f
:10019800c4020000c4020000c4020000c40200003f
:1001a800c4020000c4020000c4020000c40200002f
:1001b800c4020000c4020000c4020000c40200001f
:1001c800c4020000c4020000c4020000c40200000f
:1001d800c4020000c4020000c4020000c4020000ff
:1001e800c4020000c4020000c4020000c4020000ef
:0801f800c4020000c402000073
:020000040000fa
:10020800c4020000c4020000c4020000c4020000ce
:10021800c4020000c4020000c4020000c4020000be
:10022800c4020000965a0000c4020000d859000019
:10023800c4020000bc5a0000c4020000fe590000bd
:10024800245a0000c4020000c4020000a05b0000a1
:10025800c65b00007a5b0000c4020000c402000014
:10026800c4020000ec5b0000c4020000e02a0000a9
:10027800c4020000c4020000c4020000c40200005e
:10028800c4020000c4020000c40200004a5a000070
:10029800705a0000c4020000385c0000c40200006c
:1002a800c4020000c4020000c4020000c40200002e
:1002b800c4020000e25a0000085b00002e5b000048
:1002c800545b0000c4020000c4020000c402000025
:1002d800c4020000c4020000c4020000c4020000fe
:1002e800c4020000c4020000125c0000c402000046
:1002f800c4020000c4020000c4020000c4020000de
:10030800c4020000c4020000c4020000c4020000cd
:10031800c4020000c4020000c4020000c4020000bd
:10032800c4020000c4020000c4020000c4020000ad
:10033800c4020000c4020000c4020000c40200009d
:10034800c4020000c4020000c4020000c40200008d
:10035800c4020000c4020000c4020000c40200007d
:10036800c4020000c4020000c4020000c40200006d
:10037800c4020000c402000068090000c4020000b2
:10038800c4020000c4020000c4020000c40200004d
:10039800c4020000c4020000c4020000c40200003d
:1003a800c4020000c4020000c4020000c40200002d
:1003b800c4020000c4020000c4020000c40200001d
:1003c800c4020000c4020000c4020000c40200000d
:1003d800c4020000c4020000c4020000c4020000fd
:1003e800c4020000c4020000c4020000c4020000ed
:0803f800c4020000c402000071
:020000040000fa
:100e84004f6300007420000032390000203200005b
:100e94003031000032000000323100003a340000ea
:100ea400393a000032380000000000000000000061
:100eb4004c6f000077200000626100007474000031
:100ec40065720000792000007368000075740000ea
:100ed4006f660000660d00000a0000004c4500002b
:100ee400465400003a20000020200000202000008a
:100ef40020200000202000002020000020200000ee
:100f04000d0a000000520000494700004854000048
:100f14003a200000202000002020000020200000b3
:100f24002020000020200000200d00000a00000006
:100f34004c41000053540000204c00003a200000b3
:100f4400202000002020000020200000202000009d
:100f5400202000000d0a0000004c00004153000056
:100f640054200000523a00002020000020200000fd
:100f7400202000002020000020200000200d000080
:100f84000a0000006c6f000077200000636100001d
:100f940070200000636e0000743a000020200000fe
:100fa40020200000202000000d0a00000024000082
:100fb40047500000474700004100000009020000bc
:100fc400200000000101000000c000003209000000
:100fd4000400000000020000ffff0000ff0000000a
:100fe4000705000001010000ffff000001070000e9
:100ff4000581000001ff0000ff0100000403000060
:10100400010000001a030000520000006f000000fd
:10101400620000006f000000740000006500000022
:10102400580000002c0000002000000049000000cf
:101034006e000000630000002c0300004f0000005d
:101044006300000074000000200000003200000073
:1010540039000000200000003200000030000000d1
:1010640031000000320000002000000032000000c7
:10107400310000003a000000340000003900000094
:101084003a000000320000003900000000000000b7
:10109400e087000000880000048800001e8800002b
:1010a400524300004f4e000020200000202000008a
:1010b400202000002020000020200000202000002c
:1010c400202000000d0a0000002000002020000065
:1010d400202000002020000020200000202000000c
:1010e40020200000202000002020000020200000fc
:1010f4000a0000000d0a0000426f00006172000047
:10110400642000006e7500006d62000065720000ce
:101114003a200000200000000d0a0000004c0000ee
:101124006f6f0000702000002020000020200000cd
:101134002020000020200000200d00000a000000f4
:10114400000000000000000000000000000000009b
:10115400000000008000000000000000000000000b
:1011640000010000bfff0000ffff0000ffff0000c0
:08117400ffff0000ff00000076
:020000040000fa
:10117c000200fa009ec0a900f00f20007024880025
:10118c00f00f20005024880020002000302588001b
:10119c000000eb00402588008644a900f0092000df
:1011ac0080248800f0092000602488008804a800ae
:1011bc00004021004800de00c02488009424a800d0
:1011cc000000eb00b02488000000eb0060258800d4
:1011dc009424a9000040eb00004f78000700370072
:1011ec001e80fb00c200dd00004021000081400099
:1011fc006000b8000089be001e4fe80070c0b3004c
:10120c009e4f1000f6ff3600d000200050258800bd
:10121c000200370080002000502488008ac4bf00e0
:10122c00684060000004e000faff3a000040eb0068
:10123c008ef3b7000040eb0099f3b7009ad3bf00d0
:10124c00604060009af3b7009bd3bf006040600021
:10125c009bf3b70094a4a9000040eb00004f78006a
:10126c000d0037001e80fb0080004000e03921009b
:10127c00808040000000eb00800878001e80fb009e
:10128c0080004000803a2100808040000000eb008c
:10129c00800878001e4fe80010c0b3009e4f10006d
:1012ac00f0ff360080402100f09c88000040eb00ed
:1012bc0096f3b7000000eb00a09c88000080fa00b9
:1012cc00000006003600f800809fbe00829fbe0022
:1012dc00849fbe00869fbe003400f80000002000f2
:1012ec00a00188000200fa00a09c8000e10f5000d1
:1012fc000a003a0094c4bf000044b2000004e000ad
:10130c0006003a00f00f2000502488008c04a8003e
:10131c008c84a80020002000a09c880080c4bf0002
:10132c00704060000004e0000700320082c4bf007f
:10133c00704060000004e000030032000001200057
:10134c0000248800a200070088c4bf00624060002f
:10135c000004e000020032008ec0a90073003700c8
:10136c008ac4bf00614060000004e0001800320035
:10137c008cc4bf00614060000004e0001400320027
:10138c007bff07009ec0a80040002000a09c8800a6
:10139c00803b210010a0880080c0b30000f4b7008f
:1013ac00114021009140780030c0b30000c06000b3
:1013bc0001f4b7001140210091407800c0c8b3007f
:1013cc0000c0700001f4b700100020005024880009
:1013dc008ac4bf00704060000004e00007003200c7
:1013ec008cc4bf00704060000004e00003003200b9
:1013fc006d00070000012000502488008ac4bf0043
:10140c00644060000004e0000a0032008cc4bf009d
:10141c00644060000004e00006003200120020006e
:10142c008000eb0030072000ac27070040002000b4
:10143c00502488008ac4bf0001c8b300014060007a
:10144c000004e000060032008cc4bf0001c8b300e9
:10145c00014060000004e000010032003b00070086
:10146c008ac4bf00624060000004e0000a00320041
:10147c008cc4bf00624060000004e0000600320033
:10148c00120020008000eb00f0ff270093270700dc
:10149c00f00f200070248800a09c8000e30f500007
:1014ac0002003e008ec0a900200037008cc4bf0093
:1014bc00684060000004e0001b0032000040eb00bc
:1014cc00004f7800150037008ac4bf0068406000e8
:1014dc000004e0001400320090248000b0f3b70048
:1014ec008000200050248800b0d3bf008080fb0017
:1014fc00000f2000008060000000e00002003a00b5
:10150c003d00070004003700013b21000001eb0007
:10151c0020072000712707001e4fe80030c0b300e1
:10152c009e4f1000e8ff36008ec0a9000080fa0024
:10153c003400f9004f03be004f02be004f01be0045
:10154c004f00be003600f900004006000000fa0013
:10155c00aac4bf00624060000004e0000e0032002c
:10156c00209d80009040900000c8b30080cf5000b8
:10157c0008003a00f09c80009040900040c8b300f6
:10158c0080cf500003003a00219d8000c0c8b300fa
:10159c0090409800aa24a90000082000502488003c
:1015ac000080fa00000006000000fa008284a80007
:1015bc0000012000502488000001eb008000eb00ab
:1015cc0050072000452707000080fa0000000600a5
:1015dc000000fa000001eb008000eb004007200047
:1015ec003e2707008284a900000120000024880007
:1015fc000080fa00000006000200fa00b0d3bf0021
:10160c008080fb00b0ff2f00008060000000e00035
:10161c0035003a00b0d3bf008080fb00c00f200023
:10162c00008060004280de004200dd008000780017
:10163c000040210000804000209d8800209d8000fb
:10164c00309d8800613a2100603a210010407800fa
:10165c000024a20080487800209d8000104090005b
:10166c00c2c3b3008240600040c3b30080cf5000bf
:10167c001b003a00209d800090009000003c21004f
:10168c00808f500014003a00219d8000803b210087
:10169c00900098000040eb00004f78000b003700e2
:1016ac001e80fb0080007800803b21000081400000
:1016bc001e80fb0080007800003c21000080400070
:1016cc0010407800004978001e4fe80070c0b3004d
:1016dc009e4f1000f2ff36000c0007000900370087
:1016ec002800070007003700b0d3bf008080fb0044
:1016fc00b0ff2f0000806000e80f500001003a009e
:10170c00380007000080fa00000006000000fa0014
:10171c00f09c80009040900000c8b30000c06000b6
:10172c000004e00003003200f19c80000040eb005c
:10173c00904098000040eb00acf3b7000040eb0089
:10174c00adf3b7008fd3bf00604060008ff3b700dc
:10175c0090d3bf006040600090f3b7000040eb00f6
:10176c008ef3b700780007000001eb008000eb005f
:10177c0030002000d92607000e0207000080fa0076
:10178c00000006000000fa00add3bf00e24f50008d
:10179c0002003a0011030700100037004600070052
:1017ac00909d80000000e0000a003a00319d80000e
:1017bc0080c0b30080487800319d8000803b2100c0
:1017cc0090009800319d8000c0c8b30090409800f4
:1017dc00020037000000eb00909d88000080fa00aa
:1017ec00000006000200fa00f09c800010409000ff
:1017fc000080fb004600de0061406000004f780076
:10180c00e1392100e0392100104078000024a200c9
:10181c0080487800a09c8000e80f50000b003a0034
:10182c00bad3bf000080fb00b0248800b024800035
:10183c000000e0000300320000012000a09c8800a2
:10184c000200370040002000a09c8800add3bf00f0
:10185c00e14f500015003a00f19c8000003c210043
:10186c00900098005c020700acd3bf00e24f500020
:10187c0004003a00f19c800040c8b30090409800ee
:10188c000b0037001e04e00004003a00f19c8000bd
:10189c0080ccb3009040980005003700f19c80008c
:1018ac0080c8b30090409800010037000200070088
:1018bc000080fa00000006000200fa000040eb0075
:1018cc00adf3b700f19c80000040eb009040980015
:1018dc00f09c80000020a200000f78009e00780091
:1018ec000040eb0090409800913921009140780025
:1018fc0000c8b30000c060000004e000100032001b
:10190c009cd3bf008080fb009dd3bf000080fb00f8
:10191c004800dd00010070000000e000070032000c
:10192c009cd3bf008080fb009dd3bf000080fb00d8
:10193c004800dd00010070000000010099f3a900cf
:10194c000080fa00000006000400fa00b8d3bf00c3
:10195c000046b2000004e00058003a00b9d3bf00c2
:10196c000080fb006101b900028fbe00b0002000b6
:10197c00010020001e01be00800f5100818f590014
:10198c004e003e001e00be00006001002400370027
:10199c002500370049003700230037004700370087
:1019ac000600370009003700400037000b003700f5
:1019bc00080037001e003700330037008ef3a800f4
:1019cc0080002000a09c88003c003700a400070089
:1019dc003a00370000030700380037006239210055
:1019ec00f00f2000800061008cd3bf0060406000cd
:1019fc00014070008cf3b700c810de008dd3bf001f
:101a0c0060406000014070008df3b7008e13a80099
:101a1c0010c0b3008ff3b7008ef3a8002700370077
:101a2c000e010700250037002600070023003700b1
:101a3c00bcd3bf000080fb0080007800203a21005e
:101a4c000080400000017800f00f20008000610051
:101a5c008cd3bf0060406000014070008cf3b70075
:101a6c00c810de008dd3bf006040600001407000e4
:101a7c008df3b7008e13a80010c0b3008ff3b7001e
:101a8c008ef3a8000d0037008ef3a800bcd3bf0066
:101a9c008080fb00a23b210012417800203a2100fb
:101aac000080400002487800040037000001eb0081
:101abc008000eb0020002000082607000080fa00c0
:101acc00000006000400fa00bad3bf00e14f50003a
:101adc000d003a00b8d3bf007f4060000004e00066
:101aec0009003a008ef3a800b9d3bf00e34f5000b1
:101afc0003003a0010002000909c88000200370080
:101b0c000000eb00909c8800bad3bf000004e000fa
:101b1c0051003a00b8d3bf007f406000e24f500044
:101b2c004d003a00bcd3bf006f4060000004e000e1
:101b3c00490032008ef3a800bcd3bf0001c8b3002b
:101b4c00014060000004e00009003a00bcd3bf0073
:101b5c006f4060000080fb0080004000803a210054
:101b6c000080400010007800100798000800370033
:101b7c00bcd3bf006f4060000080fb0080004000c1
:101b8c00e039210000804000100078001007980018
:101b9c00b9d3bf00e34f500004003a009e00900000
:101bac0040c8b300904098002b003700bcd3bf0056
:101bbc006f4060000080fb00000040008000780057
:101bcc00a04a200000804000000f78001e00780022
:101bdc0090407800d0cfb30080c060001e00780029
:101bec0001487800c13b21009140780000c8b30047
:101bfc0000c060000004e0000c0032009e00900069
:101c0c000040eb00904098008e80e8000e80e800c9
:101c1c00104078000024a200804878009e009000bc
:101c2c0000c4b300904098000b0037009e00900059
:101c3c0080c8b300904098008e80e8000e80e800c9
:101c4c00104078000024a200804878009e0090008c
:101c5c0080ccb300904098000080fa000000060091
:101c6c000200fa00813b21009140780000c8b300cb
:101c7c0080cf500077003a0000ccb3008ef3b70051
:101c8c00bbd3bf000080fb00000f78001e00780063
:101c9c00e20f50001b0032001e007800e30f5000d2
:101cac003e0032001e007800e10f500001003200af
:101cbc0066003700c23e2100f00f2000800061005a
:101ccc008cd3bf0060406000014070008cf3b70003
:101cdc00c810de008dd3bf00604060000140700072
:101cec008df3b7008fd3bf00604060002041b3007c
:101cfc008ff3b70090d3bf006040600090f3b70043
:101d0c0054003700bad3bf000080fb000000400035
:101d1c0080007800a084280000804000100178002a
:101d2c00f00f2000800061008cd3bf006040600089
:101d3c00014070008cf3b700c810de008dd3bf00db
:101d4c0060406000014070008df3b7008cd3bf0081
:101d5c008080fb008dd3bf000080fb004800dd00bd
:101d6c00010070000080e80010017800f00f2000e6
:101d7c00800061008fd3bf006040600001407000a4
:101d8c008ff3b700c810de0090d3bf006040600036
:101d9c000140700090f3b7002e003700bad3bf009b
:101dac00e24f500026003e00bad3bf000080fb007b
:101dbc000000400080007800c084280000804000b3
:101dcc0010017800f00f2000800061008cd3bf0060
:101ddc0060406000014070008cf3b700c810de005a
:101dec008dd3bf0060406000014070008df3b700e0
:101dfc008cd3bf008080fb008dd3bf000080fb0024
:101e0c004800dd0001007000104078000081fb00ec
:101e1c00f00f2000800061008fd3bf006040600095
:101e2c00014070008ff3b700c810de0090d3bf00e4
:101e3c00604060000140700090f3b700050037006f
:101e4c000040eb008ef3b700020037000040eb00bf
:101e5c008ef3b7000080fa00000006000400fa00c0
:101e6c000040eb00c0f3b7000040eb00c1f3b7003b
:101e7c00b8d3bf007f4060000080fb0010079800c3
:101e8c001e009000e10f5000120032001e00900066
:101e9c00e20f5000110032001e0090000000e00024
:101eac00010032002d0037008ef3a800c0d3bf0014
:101ebc000004a000c0f3b700909c8000e10f50001c
:101ecc0026003a00c0d3bf000014a000c0f3b70036
:101edc00220037008ef3a800200037008ef3a800f4
:101eec00bcd3bf0001c8b300014060000004e00097
:101efc0009003a00bcd3bf006f4060000080fb00bb
:101f0c0080004000803a21000080400010007800e2
:101f1c00000f780008003700bcd3bf006f40600092
:101f2c000080fb0080004000e03921000080400070
:101f3c0010007800000f78001e0078001040900010
:101f4c000080fb004200de00610060000004e00045
:101f5c000200320010c0b300c0f3b7008ed3bf0034
:101f6c0001c8b300014060000004e0000f00320023
:101f7c00023c2100f00f2000800061008cd3bf00d8
:101f8c0060406000014070008cf3b700c810de00a8
:101f9c008dd3bf0060406000014070008df3b7002e
:101fac008e13a80020c0b3008ff3b7000080fa0096
:101fbc00000006000000fa0094a4a9008ed3bf0014
:101fcc0001c8b300014060000004e00024003a00a6
:101fdc0099d3bf0001c8b300014060000004e000c9
:101fec001200320020c0b300adf3b700f19c8000aa
:101ffc000040eb0080487800f19c800080ccb3005e
:10200c0090409800319d800080c0b30080487800db
:10201c00319d8000003c210090009800319d800093
:10202c0080ccb3009040980069003700319d80004f
:10203c0080c0b30080487800319d8000803b210037
:10204c0090009800319d8000c0c8b300904098006b
:10205c00f19c800040c8b300904098005c003700b1
:10206c0099d3bf0001c8b300014060000004e00038
:10207c0057003a00b8d3bf0001c8b300014060005c
:10208c000004e00041003200bed3bf008080fb00a2
:10209c00bfd3bf000080fb004800dd0001007000d2
:1020ac00000178008fd3bf008080fb0090d3bf006d
:1020bc000080fb004800dd0001007000800f510023
:1020cc0012003100bed3bf008080fb00bfd3bf0025
:1020dc000080fb004800dd0001007000000178006a
:1020ec00f00f2000800061008fd3bf0060406000c3
:1020fc00014070008ff3b700c810de0090d3bf0012
:10210c00604060000140700090f3b700320007009f
:10211c0010c0b300adf3b700319d800080c0b30098
:10212c0080487800319d8000803b21009000980011
:10213c00319d800000c8b300904098000000eb0077
:10214c00909d8800219d800080c0b300804878005d
:10215c00219d8000803b210090009800219d8000f3
:10216c0040c8b3009040980010002000909d88005b
:10217c00f19c8000003c210090009800f19c8000b4
:10218c0080ccb300904098001100370020c0b30001
:10219c00adf3b700f19c80000040eb008048780064
:1021ac00f19c800080ccb30090409800319d800061
:1021bc0080c0b30080487800319d8000003c210035
:1021cc0090009800319d800080ccb3009040980026
:1021dc000080fa00000006000200fa008fd3bf0056
:1021ec008080fb0090d3bf000080fb004800dd0026
:1021fc0001007000e70f500013003e008fd3bf00aa
:10220c008080fb0090d3bf000080fb004800dd0005
:10221c0001007000000f7800acd3bf000004e00098
:10222c0003003a0010c0b300acf3b700080037004d
:10223c00acd3bf00e14f500005003a0020c0b30002
:10224c00acf3b7000200370080002000000f7800cc
:10225c00f29c8000f09c8000904090001e4090000a
:10226c0000c0700010419800f19c80001e40780066
:10227c00804878008fd3bf008080fb0090d3bf00d4
:10228c000080fb004800dd00010070008000780039
:10229c001e00780000815000f00f200080006100cb
:1022ac008fd3bf0060406000014070008ff3b70017
:1022bc00c810de0090d3bf00604060000140700089
:1022cc0090f3b700003c2100709d88008ed3bf00b6
:1022dc00614060000004e0003b003a001b00370046
:1022ec00729d80008cd3bf008080fb008dd3bf001b
:1022fc000080fb004800dd000100700080007800c9
:10230c0011407800004978000200e800709d8800b8
:10231c000101e800f00f2000800061008cd3bf00a9
:10232c0060406000014070008cf3b700c810de0004
:10233c008dd3bf0060406000014070008df3b7008a
:10234c001e0078000000e900000f78001e007800e5
:10235c000000e000e2ff3a001e003700729d800092
:10236c008cd3bf008080fb008dd3bf000080fb00ae
:10237c004800dd00010070008000780011407800fa
:10238c00004978000200e800709d88000101e80017
:10239c00f00f2000800061008cd3bf006040600013
:1023ac00014070008cf3b700c810de008dd3bf0065
:1023bc0060406000014070008df3b7001e00780093
:1023cc000000e900000f78001e0078000000e0001b
:1023dc00e2ff3a000080fa00000006000200fa005a
:1023ec00209d800090407800114798001e4090007e
:1023fc000081fb009ad3bf008080fb009bd3bf0001
:10240c000080fb004800dd0001007000800f5100cf
:10241c00070036009ad3bf008080fb009bd3bf001f
:10242c000080fb004800dd000100700010479800a0
:10243c009ad3bf008080fb009bd3bf000080fb00c1
:10244c004800dd0001007000800078001e40900004
:10245c000080fb0000815000f00f20008000610024
:10246c009ad3bf0060406000014070009af3b7003f
:10247c00c810de009bd3bf006040600001407000bc
:10248c009bf3b7000040eb00004f780019003700b9
:10249c0097d3bf008080fb0098d3bf000080fb0067
:1024ac004800dd0001007000000178009e80fb00f8
:1024bc00003c21000080400010407800004978006a
:1024cc000201e800f00f20008000610097d3bf00ec
:1024dc00604060000140700097f3b700c810de0048
:1024ec0098d3bf00604060000140700098f3b700c3
:1024fc001e4fe8001e4090009e4f1000e4ff390074
:10250c009ad3bf008080fb009bd3bf000080fb00f0
:10251c004800dd00010070000000e00013003200f4
:10252c00319d800080c0b30080487800319d8000d0
:10253c00003c210090009800209d800010409000ed
:10254c000044b2000004e00004003a00319d800019
:10255c0080ccb300904098001d003700319d800066
:10256c0080c8b3009040980019003700319d80005e
:10257c0080c0b30080487800319d8000803b2100f2
:10258c0090009800319d800040c8b30090409800a6
:10259c009cd3bf008080fb009dd3bf000080fb005c
:1025ac004800dd00010070000000e0000700320070
:1025bc009cd3bf008080fb009dd3bf000080fb003c
:1025cc004800dd00010070000000010099f3a90033
:1025dc000080fa00000006000200fa008ef3a8004a
:1025ec000000eb00602588000040eb00004f7800f5
:1025fc00070037001e80fb00c200dd0000402100f8
:10260c00008140006000b8000089be001e4fe80049
:10261c0070c0b3009e4f1000f6ff36009424a80043
:10262c000040eb00a2f3b7009424a90080402100e5
:10263c00f09c880000402100209d8800209d800097
:10264c00309d8800bad3bf0096f3b70096d3bf0075
:10265c000004e00003003a0000012000a09c880068
:10266c000600370012002000613921001000200004
:10267c001a23070000022000a09c88000080fa00aa
:10268c00000006000400fa0020479800314798002b
:10269c0000402100000f78002e4090000080fb00cd
:1026ac0000004000800078003e4090000080fb005d
:1026bc00008040004300dd004200de004200dd00ef
:1026cc001e0f40009e007800114090000074a10085
:1026dc00904098003e4090000004e00007003a0053
:1026ec002e4090000080fb0080004000803a2100ca
:1026fc00008040001e087800060037002e40900035
:10270c000080fb0080004000e03921000080400088
:10271c001e0878001e01780092409000f0cbb300a8
:10272c0000c06000104198001e0078006401400059
:10273c009240900000c4b30000c07000104198009b
:10274c000080fa00000006000400fa002047980000
:10275c00314798002e4090000080fb0000004000a4
:10276c0080007800a04a200000804000000f780014
:10277c001e007800be409000014878003e4090005a
:10278c000080fb004300de00610060000004e000fc
:10279c00030032008040eb002e409000b9ff070090
:1027ac003e4090000080fb004200de0061006000b3
:1027bc000004e0000300320011c0b3002e40900072
:1027cc00b0ff07000080fa00000006000400fa00c9
:1027dc0020479800314798002e4090000004e000fc
:1027ec000d003a00319d800080c0b3008048780015
:1027fc00319d8000803b210090009800319d80002d
:10280c00c0c8b30090409800f19c800040c8b30051
:10281c0090409800230037002e4090000080fb0071
:10282c0000004000800078003e4090000080fb00db
:10283c00008040004300dd00800078000040210053
:10284c0000804000000f78001e007800904090003f
:10285c0040c8b30080c070001e0078001140980082
:10286c002e4090000080fb000000400080007800ab
:10287c003e4090000080fb00008040004300dd00e3
:10288c008000780040402100008f40001e0078003e
:10289c009040900040c8b30080c070001e007800cb
:1028ac00114098000080fa00000006000a00fa00af
:1028bc0020479800314798002207980063479800fa
:1028cc003e4090000004e000070032002e409000d3
:1028dc000080fb0080004000e039210000804000b7
:1028ec00100f7800060037002e4090000080fb008f
:1028fc0080004000803a210000804000100f7800da
:10290c001e00e00003003a000000eb0040079800b6
:10291c00390037002e009000800078001e007800ef
:10292c00110098001e007800ee40900001487800dd
:10293c001e0078001040900002c4b300824060007a
:10294c001e007800114098001e0078009040900006
:10295c0080c8b30080c070001e0078001140980041
:10296c003e4090000004e000110032002e40900028
:10297c000080fb000000400080007800e03921005e
:10298c0000804000000178002e4090000080fb0089
:10299c000000400080007800e039210000804000f9
:1029ac00104078000024a200004978001000370085
:1029bc002e4090000080fb0000004000800078005a
:1029cc00803a210000804000000178002e409000e9
:1029dc000080fb000000400080007800803a21005d
:1029ec0000804000104078000024a20000497800cc
:1029fc001e007800400798004e0090000080fa00fe
:102a0c00000006000600fa00004f780094c4bf00d6
:102a1c000042b2000004e0005f0032001e80fb00a8
:102a2c0080004000e0392100008040001003780055
:102a3c001e80fb0080004000e03921000080400037
:102a4c00100078001000be000204200003002000db
:102a5c000002780081027800020078008300780080
:102a6c0000016200018062006102b8001407980046
:102a7c00250798001e009000ae009000c000dd00fd
:102a8c000000200010079800210798001e009000fd
:102a9c00ae0090006112b80014079800250798004a
:102aac001e019000ae019000020070008380700047
:102abc00008bbe001e80fb0080004000e03921002e
:102acc0000804000100278001e80fb008000400057
:102adc00e039210000804000100078001001be0099
:102aec0000042000010020000000690081806900c2
:102afc00008abe001e80fb000000400080007800b1
:102b0c00e039210000804000000178001e80fb00ad
:102b1c000000400080007800e03921000080400077
:102b2c00104078000024a200004978001e80fb00b1
:102b3c0080004000e0392100008040001001780046
:102b4c001e80fb0080004000e03921000080400026
:102b5c0010007800104090000044b2001041980022
:102b6c001e80fb0080004000e03921000080400006
:102b7c00100178001e80fb0080004000e03921002d
:102b8c0000804000100078009040900000c4b3001a
:102b9c0000c06800104198000080fa000000060098
:102bac000000fa000000eb00a02488000000eb00fd
:102bbc00602488000000eb00a09c88000080fa00d4
:102bcc00000006000000fa00a09c80000000e0005d
:102bdc0016003a000000eb00a02488000000eb0077
:102bec006024880020002000302588000000eb00c5
:102bfc00402588008644a900f00920008024880024
:102c0c00f0092000602488009ec0a8000100370055
:102c1c009404a80094c4bf00614060000004e0006c
:102c2c00fbff320010002000a09c88000080fa00fe
:102c3c00000006000000fa0000002100b01088001f
:102c4c0017e2a800f00f2000a010880040752100aa
:102c5c0000928800a0c0b300eef1b7009a40a90022
:102c6c00c0ca2100c09188000000210030108800eb
:102c7c0007e2a800f00f2000201088009620a80082
:102c8c009a40a8000080fa00000006000000fa003c
:102c9c00e08f80000000e0000b00320030908000dc
:102cac000000e8003090880030908000e90f500060
:102cbc004b0036005a0507000000eb0030908800ee
:102ccc000000eb00e08f8800109080000000e00016
:102cdc0004003a00409080000000e800409088001a
:102cec00040037000000eb00109088000000eb009f
:102cfc00409088004190800020032000808f50007d
:102d0c003700360000c0eb00d9f1b70000c0eb0073
:102d1c00daf1b70000c0eb00dbf1b70000c0eb004c
:102d2c00dcf1b70000d2bf00e64f500012003e00ad
:102d3c00ec62a80070c0b30000f2b7000080eb009a
:102d4c00e0af88000080eb0060bb88000080eb00e7
:102d5c00c0af88000080eb00d0af88000080eb0093
:102d6c00c08f88000080eb00409c88000080eb0046
:102d7c00d08f880015003700ec62a9000040eb00f2
:102d8c0000f2b7000080eb00e0af88000080eb00a1
:102d9c0060bb88000080eb00c0af88000080eb00b7
:102dac00d0af88000080eb00c08f88000080eb0063
:102dbc00409c88000080eb00d08f88000080eb00e6
:102dcc0050bb88000080eb00309c88000000eb00ba
:102ddc00409088001b05070010002000e08f880041
:102dec000080fa00000006000000fa00f08f80005e
:102dfc000000e0000b003200509080000000e80062
:102e0c005090880050908000e90f5000210036004f
:102e1c002b0507000000eb00509088000000eb0031
:102e2c00f08f8800209080000000e00004003a0041
:102e3c00609080000000e80060908800040037007b
:102e4c000000eb00609088000000eb0020908800f0
:102e5c006190800040062000808f50000d003600ed
:102e6c0000c0eb00e5f1b70000c0eb00e6f1b700e5
:102e7c0000c0eb00e7f1b70000c0eb00e8f1b700d1
:102e8c000000eb006090880010002000f08f88009c
:102e9c00f50407000080fa00000006000600fa00a6
:102eac008a40a900ead1bf000004e000970032007c
:102ebc00eed1bf000080fb006101b9001207980041
:102ecc0023079800f0002000010020001e01900054
:102edc00ae019000800f5100818f5900c9003e0057
:102eec001e009000ae009000006001000f00370043
:102efc00160037001c003700200037002800370070
:102f0c002c0037003b0037003f00370050003700e3
:102f1c00540037005b0037005f0037006600370055
:102f2c006a0037007100370075003700e4d1bf002c
:102f3c000080fb000000400090108800eed1bf0024
:102f4c000040e800eef1b700ae003700ebd1bf0057
:102f5c000080fb0090108800eed1bf000040e8001c
:102f6c00eef1b700a70037001622a800eed1bf0083
:102f7c000040e800eef1b700a2003700e4d1bf003a
:102f8c000080fb00000040000000e800901088006a
:102f9c00eed1bf000040e800eef1b7009900370019
:102fac001662a800eed1bf000040e800eef1b700b9
:102fbc009400370080108000e5f1b700efd1bf001e
:102fcc00e14f500005003a0016a2a8001682a80096
:102fdc00e0c0b300eef1b7008a00370016a2a900da
:102fec001682a800eed1bf000040e800eef1b70059
:102ffc00840037001662a800eed1bf000040e80044
:10300c00eef1b7007f00370080108000e6f1b700ca
:10301c00efd1bf00e24f500004003a0016a2a80006
:10302c001682a800e0c0b300eef1b700efd1bf00ec
:10303c00e44f500073003a0016a2a9001682a800b3
:10304c00eed1bf000040e800eef1b7006d00370094
:10305c001662a800eed1bf000040e800eef1b70008
:10306c006800370080108000e7f1b70016a2a900b5
:10307c001682a800eed1bf000040e800eef1b700c8
:10308c00600037001662a800eed1bf000040e800d7
:10309c00eef1b7005b00370080108000e8f1b7005c
:1030ac0016a2a9001682a800eed1bf000040e800cd
:1030bc00eef1b700530037001662a800eed1bf0046
:1030cc000040e800eef1b7004e00370080108000a1
:1030dc00e9f1b70016a2a8001682a800eed1bf0035
:1030ec000040e800eef1b700460037001642a80099
:1030fc00eed1bf000040e800eef1b7004100370010
:10310c0010c0b300ecf1b7003e003700eed1bf00a9
:10311c000080fb00000f78009e007800e28f5000ca
:10312c00230032001e017800e20f510007003c0022
:10313c009e0178000300e0000e0032001e007800b3
:10314c00e10f5000130032002e0037009e00780073
:10315c00e48f5000240032001e017800e40f51006f
:10316c001a0035009e017800e58f510023003200d3
:10317c0024003700e4d1bf000080fb0000004000b9
:10318c0090108800eed1bf000040e800eef1b700cf
:10319c001c003700ebd1bf000080fb0090108800b2
:1031ac00eed1bf000040e800eef1b700150037008b
:1031bc00f0d1bf000080fb0090108800eed1bf0062
:1031cc000040e800eef1b7000e003700f1d1bf006f
:1031dc000080fb0090108800eed1bf000040e8009a
:1031ec00eef1b700070037001642a800eed1bf0081
:1031fc000040e800eef1b7000200370010c0b30049
:10320c00ecf1b7000080fa00000006000800fa009c
:10321c00f08f80000000e000090032000040eb005d
:10322c00eef1b7000040eb00ecf1b7000040eb0012
:10323c000ef2b7000040eb0010f2b7008a01370025
:10324c0010d2bf000ff2b700ecd1bf00e14f50001d
:10325c00d7003a000040eb000ef2b7000040eb0044
:10326c00ecf1b70010d2bf000080fb006101b90087
:10327c00028fbe00f0002000010020001e01be00e5
:10328c00800f5100818f5900c7003e001e00be0008
:10329c00006001000f0037002400370036003700b3
:1032ac004800370055003700620037006f003700c8
:1032bc007c00370089003700960037009b003700f0
:1032cc00a0003700a5003700aa003700ad0037007a
:1032dc00b0003700511e210091407800405721006a
:1032ec0001487800e6d1bf008080fb00e7d1bf0029
:1032fc000080fb004700dd0000804000b0ab880080
:10330c00e8d1bf008080fb00e9d1bf000080fb004a
:10331c004700dd0000804000c0ab880010d2bf0029
:10332c000040e80010f2b700a1003700e5d1bf0063
:10333c000080fb00c400dd00e6d1bf000080fb0074
:10334c004400de000080fb0000804000cf80de00e7
:10335c008cf407000200200003d8230054f507006a
:10336c0080aa880091aa880010d2bf000040e80013
:10337c0010f2b7008e003700e5d1bf000080fb00d3
:10338c00c400dd00e6d1bf000080fb004400de007d
:10339c000080fb0000804000cf80de0079f4070045
:1033ac000200200003d8230041f50700a0aa8800e2
:1033bc00b1aa880010d2bf000040e80010f2b7009c
:1033cc007b003700e6d1bf000080fb00c800dd00a9
:1033dc00e5d1bf000080fb0000804000cf80de0004
:1033ec0068f40700c0aa8800d1aa880010d2bf00d8
:1033fc000040e80010f2b7006d003700e6d1bf00c6
:10340c000080fb00c800dd00e5d1bf000080fb00a0
:10341c0000804000cf80de005af40700e0aa88004c
:10342c00f1aa880010d2bf000040e80010f2b700eb
:10343c005f003700e6d1bf000080fb00c800dd0054
:10344c00e5d1bf000080fb0000804000cf80de0093
:10345c004cf4070000ab880011ab880010d2bf0001
:10346c000040e80010f2b70051003700e6d1bf0071
:10347c008080fb00e5d1bf000080fb004800dd0030
:10348c0000804000cf80de003ef4070020ab8800b7
:10349c0031ab880010d2bf000040e80010f2b7003a
:1034ac0043003700e6d1bf008080fb00e5d1bf00b0
:1034bc000080fb004800dd0000804000cf80de0073
:1034cc0030f4070040ab880051ab880010d2bf002d
:1034dc000040e80010f2b70035003700e6d1bf001d
:1034ec008080fb00e5d1bf000080fb004800dd00c0
:1034fc0000804000cf80de0022f4070060ab880023
:10350c0071ab880010d2bf000040e80010f2b70089
:10351c0027003700e5d1bf00f4f1b70010d2bf008f
:10352c000040e80010f2b70021003700e5d1bf00e1
:10353c00f5f1b70010d2bf000040e80010f2b70060
:10354c001b003700e5d1bf00f6f1b70010d2bf0069
:10355c000040e80010f2b70015003700e5d1bf00bd
:10356c00f7f1b70010d2bf000040e80010f2b7002e
:10357c000f00370010d2bf000040e80010f2b70077
:10358c000b00370010d2bf000040e80010f2b7006b
:10359c000700370010002000209088000040eb004e
:1035ac0010f2b700020037000040eb0010f2b70039
:1035bc000ed2bf000004e000ab003a00ecd1bf001b
:1035cc000004e000a8003a0010c0b3000ef2b700ef
:1035dc0010d2bf000080fb006101b90022079800e7
:1035ec0033079800f0002000010020002e0190000d
:1035fc00be019000800f5100818f590096003e0053
:10360c002e009000be009000006001000f003700fb
:10361c00160037001d003700240037002b00370040
:10362c0032003700390037004000370047003700c0
:10363c004e003700550037005c0037006300370040
:10364c006a003700720037007a00370030c0b300d0
:10365c00eef1b70040c0b300eff1b7008040eb00d3
:10366c00d0c4b300820007007f0037000040eb009d
:10367c00eef1b70020c0b300eff1b7008040eb00d3
:10368c0090c4b3007a000700770037000040eb00cd
:10369c00eef1b70020c0b300eff1b7008040eb00b3
:1036ac0080c4b300720007006f0037000040eb00cd
:1036bc00eef1b70020c0b300eff1b70021c3b300a7
:1036cc0030c5b3006a000700670037000040eb000c
:1036dc00eef1b70020c0b300eff1b70041c3b30067
:1036ec0030c5b300620007005f0037000040eb00fc
:1036fc00eef1b70020c0b300eff1b70061c3b30027
:10370c0030c5b3005a000700570037000040eb00eb
:10371c00eef1b70020c0b300eff1b70031c0b30039
:10372c00e0c1b300520007004f0037000040eb002f
:10373c00eef1b70020c0b300eff1b70051c0b300f9
:10374c00e0c1b3004a000700470037000040eb001f
:10375c00eef1b70020c0b300eff1b70071c0b300b9
:10376c00e0c1b300420007003f0037000040eb000f
:10377c00eef1b70010c0b300eff1b70091c1b30088
:10378c0080c1b3003a000700370037000040eb005f
:10379c00eef1b70010c0b300eff1b70011c0b300e9
:1037ac0080c1b300320007002f0037000040eb004f
:1037bc00eef1b70010c0b300eff1b70081c1b30058
:1037cc0080c1b3002a000700270037000040eb003f
:1037dc00eef1b70010c0b300eff1b700c1c1b300f8
:1037ec0080c1b300220007001f0037000040eb002f
:1037fc00eef1b70020c0b300eff1b7004207240090
:10380c0051c1b30090c0b30025000700160037006b
:10381c000040eb00eef1b70020c0b300eff1b700b1
:10382c0082bb200041c1b30090c0b3001c00070054
:10383c000d0037000040eb00eef1b70020c0b300e4
:10384c00eff1b70082bb2000f1c3b30090c0b3000e
:10385c0013000700040037000040eb0010f2b70023
:10386c000040eb000ef2b7000080fa0000000600ea
:10387c000200fa00004f7800114798001e407800b3
:10388c00e4f1b7001e409000ebf1b70010c0b3009c
:10389c00eaf1b7001602a8000080fa00000006004a
:1038ac000400fa00004f78001147980012079800a6
:1038bc001e407800e4f1b7001e409000ebf1b70019
:1038cc000040eb00eef1b7001e009000f0f1b700e5
:1038dc001e0090004800de00f1f1b7000040eb0044
:1038ec00eaf1b7001602a8000080fa0000000600fa
:1038fc000000fa009a40a8000001eb0021c0b300c0
:10390c00e0c1b300e6ff070040012000f01f0700f4
:10391c0082002000d1c2b30030c5b300e0ff070025
:10392c0040012000ea1f0700b200200011c3b300c1
:10393c0030c5b300daff070040012000e41f070088
:10394c009a40a9000080fa00000006000600fa0068
:10395c008620a900d6d1bf000004e00097003200f9
:10396c00d7d1bf000080fb006101b900120798009d
:10397c0023079800f0002000010020001e01900099
:10398c00ae019000800f5100818f5900c9003e009c
:10399c001e009000ae009000006001000f00370088
:1039ac00160037001c0037002000370028003700b5
:1039bc002c0037003b0037003f0037005000370029
:1039cc00540037005b0037005f003700660037009b
:1039dc006a0037007100370075003700d8d1bf007e
:1039ec000080fb000000400010108800d7d1bf0001
:1039fc000040e800d7f1b700ae003700e0d1bf00bf
:103a0c000080fb0010108800d7d1bf000040e800f8
:103a1c00d7f1b700a70037000622a800d7d1bf0006
:103a2c000040e800d7f1b700a2003700d8d1bf00a2
:103a3c000080fb00000040000000e800101088002f
:103a4c00d7d1bf000040e800d7f1b700990037008c
:103a5c000662a800d7d1bf000040e800d7f1b7003c
:103a6c009400370000108000d9f1b700e1d1bf00fd
:103a7c00e14f500005003a0006a2a8000682a800fb
:103a8c00e0c0b300d7f1b7008a00370006a2a90046
:103a9c000682a800d7d1bf000040e800d7f1b700dc
:103aac00840037000662a800d7d1bf000040e800b0
:103abc00d7f1b7007f00370000108000daf1b700b3
:103acc00e1d1bf00e24f500004003a0006a2a8006a
:103adc000682a800e0c0b300d7f1b700e1d1bf0067
:103aec00e44f500073003a0006a2a9000682a80019
:103afc00d7d1bf000040e800d7f1b7006d00370008
:103b0c000662a800d7d1bf000040e800d7f1b7008b
:103b1c006800370000108000dbf1b70006a2a90096
:103b2c000682a800d7d1bf000040e800d7f1b7004b
:103b3c00600037000662a800d7d1bf000040e80043
:103b4c00d7f1b7005b00370000108000dcf1b70044
:103b5c0006a2a9000682a800d7d1bf000040e80049
:103b6c00d7f1b700530037000662a800d7d1bf00c9
:103b7c000040e800d7f1b7004e003700001080007d
:103b8c00ddf1b70006a2a8000682a800d7d1bf00bd
:103b9c000040e800d7f1b700460037000642a80005
:103bac00d7d1bf000040e800d7f1b7004100370083
:103bbc0010c0b300e3f1b7003e003700d7d1bf000f
:103bcc000080fb00000f78009e007800e28f500010
:103bdc00230032001e017800e20f510007003c0068
:103bec009e0178000300e0000e0032001e007800f9
:103bfc00e10f5000130032002e0037009e007800b9
:103c0c00e48f5000240032001e017800e40f5100b4
:103c1c001a0035009e017800e58f51002300320018
:103c2c0024003700d8d1bf000080fb00000040000a
:103c3c0010108800d7d1bf000040e800d7f1b700c2
:103c4c001c003700e0d1bf000080fb001010880082
:103c5c00d7d1bf000040e800d7f1b70015003700fe
:103c6c00ded1bf000080fb0010108800d7d1bf0050
:103c7c000040e800d7f1b7000e003700dfd1bf00dd
:103c8c000080fb0010108800d7d1bf000040e80076
:103c9c00d7f1b700070037000642a800d7d1bf0004
:103cac000040e800d7f1b7000200370010c0b300a5
:103cbc00e2f1b7000080fa00000006000200fa00f2
:103ccc00004f7800114798001e407800d8f1b700db
:103cdc001e409000e0f1b70010c0b300d6f1b70061
:103cec000602a8000080fa00000006000400fa009a
:103cfc00004f780011479800120798001e4078007a
:103d0c00d8f1b7001e409000e0f1b7000040eb0086
:103d1c00d7f1b7001e009000def1b7001e00900036
:103d2c004800de00dff1b7000040eb00d6f1b70031
:103d3c000602a8000080fa00000006000800fa0045
:103d4c00e08f80000000e000090032000040eb0032
:103d5c00e3f1b7000040eb001ef2b7000000eb00ef
:103d6c00e09088000040eb00d7f1b7002a01370043
:103d7c0000d2bf001ff2b700e3d1bf00e14f5000eb
:103d8c0091003a0000d2bf008080fb00102121007e
:103d9c00808040000040eb00804878000040eb0041
:103dac001ef2b7000040eb00e3f1b70000d2bf00f9
:103dbc000080fb006101b900028fbe009000200062
:103dcc00010020001e01be00800f5100818f5900a0
:103ddc007b003e001e00be000060010009003700a1
:103dec00130037001d003700270037003100370063
:103dfc003b003700450037004f00370059003700b3
:103e0c0063003700d9d1bf008080fb00dad1bf003e
:103e1c000080fb004800dd0000804000e0af88001f
:103e2c0000d2bf000040e80000f2b7006600370087
:103e3c00d9d1bf008080fb00dad1bf000080fb002d
:103e4c004800dd000080400060bb880000d2bf004d
:103e5c000040e80000f2b7005b003700d9d1bf008a
:103e6c008080fb00dad1bf000080fb004800dd0041
:103e7c0000804000c0af880000d2bf000040e800c6
:103e8c0000f2b70050003700d9d1bf008080fb0092
:103e9c00dad1bf000080fb004800dd00008040004c
:103eac00d0af880000d2bf000040e80000f2b7009d
:103ebc0045003700d9d1bf008080fb00dad1bf00ac
:103ecc000080fb004800dd0000804000c08f8800af
:103edc0000d2bf000040e80000f2b7003a00370003
:103eec00d9d1bf008080fb00dad1bf000080fb007d
:103efc004800dd0000804000409c880000d2bf00dc
:103f0c000040e80000f2b7002f003700d9d1bf0005
:103f1c008080fb00dad1bf000080fb004800dd0090
:103f2c0000804000d08f880000d2bf000040e80025
:103f3c0000f2b70024003700d9d1bf008080fb000d
:103f4c00dad1bf000080fb004800dd00008040009b
:103f5c00d08f880000d2bf000040e80000f2b7000c
:103f6c0019003700d9d1bf008080fb00dad1bf0027
:103f7c000080fb004800dd000080400050bb880042
:103f8c0000d2bf000040e80000f2b7000e0037007e
:103f9c00d9d1bf008080fb00dad1bf000080fb00cc
:103fac004800dd0000804000309c8800100020009c
:103fbc00109088000040eb0000f2b70002003700c0
:103fcc000040eb0000f2b70009c2bf006440600083
:103fdc000004e00009003a0008c2bf000044b2002f
:103fec000004e00005003a0008c2bf0001c8b3009d
:103ffc00014060000004e000040032000000eb000f
:10400c00401088000040eb001ef2b7001ed2bf002b
:10401c000004e00074003a00e3d1bf000004e000ab
:10402c0071003a0010c0b3001ef2b70000d2bf00fe
:10403c000080fb006101b90022079800330798004b
:10404c0090002000010020002e019000be01900085
:10405c00800f5100818f59005f003e002e009000b0
:10406c00be0090000060010009003700110037000d
:10407c00180037001f003700260037002d003700ce
:10408c00340037003b003700430037004a0037004c
:10409c00ec62a9000040eb00d7f1b70020c0b300e0
:1040ac00e1f1b70091c0b300b0c0b30003ff07004b
:1040bc004d0037000040eb00d7f1b70020c0b30033
:1040cc00e1f1b700d1c0b300b0c0b300fbfe0700f4
:1040dc00450037000040eb00d7f1b70020c0b3001b
:1040ec00e1f1b700e1c0b300b0c0b300f3fe0700cc
:1040fc003d0037000040eb00d7f1b70020c0b30003
:10410c00e1f1b700f1c0b300b0c0b300ebfe0700a3
:10411c00350037000040eb00d7f1b70020c0b300ea
:10412c00e1f1b70061c1b300b0c0b300e3fe07001a
:10413c002d0037000040eb00d7f1b70020c0b300d2
:10414c00e1f1b700a1c0b300b0c0b300dbfe0700c3
:10415c00250037000040eb00d7f1b70020c0b300ba
:10416c00e1f1b70081c0b300b0c0b300d3fe0700cb
:10417c001d003700ec62a8000040eb00d7f1b7003f
:10418c0020c0b300e1f1b70081c0b300b0c0b300f0
:10419c00cafe0700140037000040eb00d7f1b7004f
:1041ac0020c0b300e1f1b700d1c0b300b0c0b30080
:1041bc00c2fe07000c0037000040eb00d7f1b7003f
:1041cc0020c0b300e1f1b700a1c0b300b0c0b30090
:1041dc00bafe0700040037000040eb0000f2b70005
:1041ec000040eb001ef2b70051bb800040062000df
:1041fc00808f5000020036000080eb0050bb88001e
:10420c0061bb800040062000808f50000200360009
:10421c000080eb0060bb88000080fa000000060004
:10422c000000fa000000210030108800f00f200080
:10423c002010880007e2a8009620a8000080fa0051
:10424c00000006000000fa009620a90007e2a90071
:10425c000000eb00401088000000eb0030108800dc
:10426c000080fa00000006000200fa008a40a90053
:10427c001662a9001682a9001642a9001622a900ee
:10428c001602a9000000eb00c0108800801080000e
:10429c00004f78000000eb00c01088000000eb001d
:1042ac00b01088000000eb00c01088009a40a900f4
:1042bc0040062000861d07000080fa000000060062
:1042cc000000fa0017e2a8009a40a8000080fa004b
:1042dc00000006000a00fa00d0c4b300004f98009a
:1042ec000040eb007047980013f2070025f207001e
:1042fc0011f207000e4890000040400023f2070026
:10430c000df207007e40900020f207000af2070031
:10431c0028f2070008f207000e4890000080fb000e
:10432c00000040000004a00018f2070002f2070091
:10433c00006420000100200047f007008a40a9001b
:10434c001ef207006047980024f20700faf10700fc
:10435c001af207001047980020f20700f6f1070048
:10436c0016f20700004f78001e80fb00c700dd002e
:10437c001e4090000080fb00008070002007980019
:10438c0016f20700ecf107000cf20700104798003a
:10439c0012f20700e8f1070008f20700004f78005e
:1043ac001e80fb00c700dd001e4090000080fb005b
:1043bc0000807000100798000bf20700def1070078
:1043cc000cf20700dcf10700000000000000000008
:1043dc000080fa00000006000200fa000040eb002a
:1043ec00104798000040eb00004f7800e862a900ed
:1043fc00f10f2000f0232c0000f2070002f207005e
:10440c00f10f2000f0232c0012f20700caf1070074
:10441c00d962a900dd62a8000060fe00ec62a90070
:10442c00800c20002a1d0700d1c0b300b0c0b3001f
:10443c003c1d070010479800ec62a800800c20007f
:10444c00231d0700d1c0b300b0c0b300351d070059
:10445c00004f7800800c20001d1d0700021a24005c
:10446c0051c1b30090c0b3002d1e070020032000e3
:10447c00171d070082bb200041c1b30090c0b300e0
:10448c00271e070020032000111d070002f8200042
:10449c00f1c3b30090c0b300211e0700200320001d
:1044ac000b1d07000000000000000000daff3700c1
:1044bc000000fa00a2c1b30021c0b30080c1b30058
:1044cc00991d070082c1b30011c1b30080c1b300b4
:1044dc00951d070082c7b30071c0b30080c1b30043
:1044ec00911d0700f2c0b30001c1b30080c1b3003d
:1044fc008d1d07000080fa00000006002000fa0065
:10450c00f10f2000f0232c00bcf10700bef10700d6
:10451c00f10f2000f0232c00cef1070086f10700ec
:10452c0040062000ea1c07000041eb0021c0b3004c
:10453c00e0c1b3007c1d070050002000e41c070004
:10454c0082c0b300d1c2b30030c5b300761d0700e2
:10455c0050002000de1c0700b2c0b30011c3b30032
:10456c0030c5b300701d070050002000d81c070098
:10457c000060fe008040eb0090c4b3000d1d0700ee
:10458c000080fb002007980011c0b30090c4b3005a
:10459c00081d07000080fb00100798001e0090000b
:1045ac00c480de002e0090004400dd00008f7000ff
:1045bc001e007800cf80de00f2ef07000200200022
:1045cc00031824001af00700600f9800710f980070
:1045dc0050002000be1c07008040eb0080c4b300dc
:1045ec00f41c07000080fb002007980011c0b300ea
:1045fc0080c4b300ef1c07000080fb00100798007c
:10460c001e009000c480de002e0090004400dd00ef
:10461c00008f70001e007800cf80de00d9ef0700fd
:10462c00020020000318240001f00700400f98003e
:10463c00510f980050002000a51c070021c3b300a7
:10464c0030c5b300db1c07000080fb00200798007e
:10465c0031c3b30030c5b300d61c07000080fb008b
:10466c00100798001e009000c800dd002e0090007e
:10467c00008f70001e007800cf80de00c1ef0700b5
:10468c000200200003382c00e9ef0700200f9800ef
:10469c00310f9800500020008d1c070041c3b3005f
:1046ac0030c5b300c31c07000080fb002007980036
:1046bc0051c3b30030c5b300be1c07000080fb0023
:1046cc00100798001e009000c800dd002e0090001e
:1046dc00008f70001e007800cf80de00a9ef07006d
:1046ec000200200003382c00d1ef0700000f9800c7
:1046fc00110f980050002000751c070061c3b30017
:10470c0030c5b300ab1c07000080fb0020079800ed
:10471c0071c3b30030c5b300a61c07000080fb00ba
:10472c00100798001e009000c800dd002e009000bd
:10473c00008f70001e007800cf80de0091ef070024
:10474c000200200003382c00b9ef07006007980026
:10475c0071079800500020005d1c070031c0b300a9
:10476c00e0c1b300931c07000080fb0020079800f9
:10477c0041c0b300e0c1b3008e1c07000080fb00f9
:10478c00100798002e009000c800dd001e0090005d
:10479c00008f70001e007800500798005000200019
:1047ac004b1c070051c0b300e0c1b300811c0700d3
:1047bc000080fb002007980061c0b300e0c1b3008b
:1047cc007c1c07000080fb00100798002e00900056
:1047dc00c800dd001e009000008f70001e007800e5
:1047ec004007980050002000391c070071c0b3002e
:1047fc00e0c1b3006f1c07000080fb00200798008d
:10480c0081c0b300e0c1b3006a1c07000080fb004c
:10481c00100798002e009000c800dd001e009000cc
:10482c00008f70001e00780030079800a9fe07006a
:10483c0000000000800c2000251c07004cff3700f6
:10484c001a00fa000e80e800217428000b00090001
:10485c0031587800c000b1006e004700e1742800a8
:10486c0008000900315878009000b1006900400040
:10487c008040eb00014878000000e8008040eb002d
:10488c00014878000000e8008040eb000148780007
:10489c000000eb00000f7800100037001e017800bc
:1048ac009e0078000e80e800008040009040780068
:1048bc0000602100017178001e0078006c0140003e
:1048cc009e0078006e004700008040009040780009
:1048dc0000602100017178001e0fe800b10020007b
:1048ec009e8f1000edff360000002000a12924004f
:1048fc00c0aa8800d1aa8800c8020700916d2000c8
:10490c009140780000ccb30000c060002041b3009f
:10491c00d9e6b7000111200091407800f0ccb3002b
:10492c0000c0600010e1b70080c622001091880022
:10493c0000e823006008880094e0a8000032200002
:10494c00a00c88000040eb006702070092c1bf007a
:10495c00f041b30092e1b7009181a9000119200048
:10496c009140780080cfb30000c060006040b3007d
:10497c0090e1b70011e1a800aef807000076220024
:10498c00f0918800640207009b100700e17621007b
:10499c000040eb00804878000080fa000000060020
:1049ac000000fa00809b80000000e800809b8800db
:1049bc009d010700d701070097c0a8007073800005
:1049cc000000e000050032000000eb00707388006e
:1049dc00aef8070004f90700760007000bfa070091
:1049ec00d6fc07006a03070068d3bf000004e00090
:1049fc001c003200cac2bf00644060000004e0002a
:104a0c0018003a00cac2bf00684060000004e00011
:104a1c0014003a00cac2bf00704060000004e000fd
:104a2c0010003a0002003700dd02a800dc62a8008a
:104a3c00cac2bf00644060000004e000faff32000c
:104a4c00cac2bf00684060000004e000f6ff3200fc
:104a5c00cac2bf00704060000004e000f2ff3200e8
:104a6c00dd02a90068d3bf000004e0000e00320094
:104a7c00dac2bf00644060000004e0000a003a00a3
:104a8c000060fe00dc62a800800c2000901b070078
:104a9c00dc62a900dd02a800800c20008c1b070042
:104aac00dd02a900f6ff3700dac2bf000044b200f5
:104abc000004e00017003a00d3c2bf000044b2006b
:104acc000004e00013003a0068d3bf00e14f50002f
:104adc0010003a00200320007d1b0700dac2bf0043
:104aec00614060000004e0000a0032000040eb006e
:104afc0068f3b700dc62a900e4e2a900e4a2a90013
:104b0c00e4c2a800dc22a900ec22a9004006200087
:104b1c006f1b070068d3bf000004e00014003200d4
:104b2c00e0762100104078000004e00015003a0007
:104b3c00b1738000c0122000808f50000600360038
:104b4c00d0122000b0738800e176210020c3b3009e
:104b5c00804878000b003700b07380000000e8003c
:104b6c00b073880040062000591b07000500370071
:104b7c00e07621008040eb00014878000000eb005b
:104b8c00b0738800e076210010407800d601070051
:104b9c0020792100104078000004e000020032006f
:104bac00cca2a80001003700cca2a9000080fa001a
:104bbc00000006000200fa00e07380000000e8002c
:104bcc00e0738800e1738000803e2000808f5000ed
:104bdc0002003600903e2000e0738800309c80007c
:104bec00e10f400003003200409c8000e10f4000c8
:104bfc0003003a000080eb00a0af880004003700ef
:104c0c00309c8000419c800001004000a0af8800d7
:104c1c0050bb8000e90f50000300360060bb8000e1
:104c2c00e90f50000f003e0050bb80000000e00078
:104c3c000300320060bb80000000e00005003a0079
:104c4c00e173800030062000808f500001003e0090
:104c5c001c003700f07380000000e800f07388003f
:104c6c001800370050bb8000e10f40000b003a00e9
:104c7c0060bb8000e10f400008003a00e173800047
:104c8c0040062000808f500004003600f073800036
:104c9c000000e800f07388000a00370050bb800069
:104cac00e90f50000700360060bb8000e90f500090
:104cbc00040036000000eb00f07388000040eb00ad
:104ccc0080f3b70050bb8000e10f400004003a00b5
:104cdc0060bb8000e10f400001003a002300370068
:104cec0050bb80000000e0002000320060bb800060
:104cfc000000e0001d00320050bb8000f30f50009c
:104d0c000600360060bb8000f30f50000300360035
:104d1c00401f2000509c88001400370050bb8000be
:104d2c00ee0f50000600360060bb8000ee0f500006
:104d3c0003003600800c2000509c88000b003700cc
:104d4c0050bb8000eb0f50000600360060bb8000ab
:104d5c00eb0f50000300360040062000509c8800ea
:104d6c000200370040012000509c880050bb80009e
:104d7c00e10f40000500320050bb80000000e00055
:104d8c000200320050bb8000d073880060bb8000f2
:104d9c00e10f40000500320060bb80000000e00025
:104dac000200320060bb8000c0738800f173800089
:104dbc00509c8000808f50003c003900cac2bf005c
:104dcc00614060000004e00036003a0010c0b300ff
:104ddc0080f3b7000040eb0068f3b700dc62a90079
:104dec00dd02a900e4e2a900e4a2a900e4c2a80043
:104dfc00dc22a90051c1b300a0752800571207008e
:104e0c00a0002000b21a070051bb800000772800d8
:104e1c009b110700a0002000ad1a070061bb8000a9
:104e2c005078280096110700a0002000a81a07004f
:104e3c00d1738000a079280091110700a0002000f8
:104e4c00a31a0700c1738000f07a28008c110700a8
:104e5c00a00020009e1a0700f1738000407c2800ff
:104e6c00871107000040eb00004f78000700370067
:104e7c00dd02a800800c2000951a0700dd02a900b5
:104e8c00800c2000921a07001e4fe80030c0b300bf
:104e9c009e4f1000f6ff3600ec22a90040062000c1
:104eac008b1a0700800c2000f07388000080fa0039
:104ebc00000006000800fa000e80e800917d280032
:104ecc0005000900315878006000b1003222a900b9
:104edc0087c0a900b0118000004f7800509b800063
:104eec000000e800509b8800e4cebf000004e00006
:104efc000c003a0040c2b3009e4f100045003a002f
:104f0c00e4cebf008000fb0000e8200000804000e1
:104f1c001e487800e4cebf000040e800e4eeb70085
:104f2c003c003700e4cebf008000fb0000e820000e
:104f3c00008040001e487800e4cebf00e54f5000d2
:104f4c0017003a000040eb001047980011003700a2
:104f5c001e4090008080fb0000e820000080400094
:104f6c00104178001e4090008080fb000e80e8000d
:104f7c000080400010407800804f51000200320049
:104f8c000040eb00e4eeb7001e4090000040e8004b
:104f9c00104798001e409000e44f5000ecff360084
:104fac0041ee200091407800e0c5b30080cf500066
:104fbc00150034000040eb00104798000c0037003f
:104fcc001e4090000081fb001e4090008080fb0082
:104fdc0000e820000080400090407800005921003b
:104fec00017178001e4090000040e80010479800c6
:104ffc009e409000e0c5b30080cf5000f0ff36001b
:10500c0000c0eb00e4eeb700e4cebf000040e800c7
:10501c00e4eeb700e4cebf000000fb00609b88000c
:10502c000080fa00000006000000fa000040eb00cf
:10503c00e5eeb700dac2bf00614060000004e0009a
:10504c000e003a0068d3bf000004e0000b003a00e9
:10505c006d0107000000e00008003200dc62a800cf
:10506c0010c0b30068f3b70040062000181a070000
:10507c001ffa0700e4c2a900ba000700eac2bf0089
:10508c00614060000004e00020003a001900370085
:10509c00307780000000e80030778800a000200006
:1050ac000b1a07003177800020032000808f5000fe
:1050bc0010003600ec22a900dc62a9000040eb00d5
:1050cc0068f3b700e4c2a800e4a2a900e4e2a900d6
:1050dc00010037000060fe00dac2bf0061406000d2
:1050ec000004e000fbff3200ec22a800400120008d
:1050fc00f7190700eac2bf00614060000004e0003d
:10510c00e3ff32000000eb00307788000080fa00eb
:10511c00000006000400fa00881f7800cbc2bf0014
:10512c000080fb004700de0080407800c046210074
:10513c0001487800cbc2bf0061406000804078001d
:10514c00d046210001487800cbc2bf000080fb0094
:10515c000000d1006140600080407800e0462100f2
:10516c0001487800cbc2bf000080fb004600de0087
:10517c006140600080407800f046210001487800d2
:10518c00f2c2bf000080fb004700de0080407800c8
:10519c000047210001487800f2c2bf000080fb00ec
:1051ac004600de006140600080407800104721001e
:1051bc0001487800cac2bf000080fb004200de003c
:1051cc000004a200e1406000304721000148780053
:1051dc00cac2bf000080fb004400de000004a20035
:1051ec00e14060004047210001487800cac2bf007e
:1051fc000080fb004300de000004a200e1406000e0
:10520c005047210001487800d0c0b3001d000700b2
:10521c0040a38800a0c0b3001a00070050a3880068
:10522c00c0c0b3001700070020a38800b0c0b300b3
:10523c001400070030a3880010c0b3001100070051
:10524c00000478006140b900ceec0700008fbe006e
:10525c000800e00005003d00020020000378240057
:10526c001e00be0035ed0700008fbe001e00be0004
:10527c0080ab880091ab88004f0478000080fa0066
:10528c00000006000400fa00204798000000eb0024
:10529c00000f780021e3a9002e4090007f406000b1
:1052ac007f416000813220009140780000ceb30035
:1052bc0000c060000240700028e3b70021e3a800a2
:1052cc002023a80020c3bf00614060000004e00060
:1052dc00fcff320000188000000f78001e007800e0
:1052ec000080fa00000006000200fa00004f78006f
:1052fc0040c6b3009e4f10000200360040c6b300fb
:10530c00004f78001e80fb004300dd00b00c8800cd
:10531c000080fa00000006000000fa00b16d2000c9
:10532c009140780000ccb30000c060005040b30046
:10533c00dbe6b700616a20009140780000ccb30036
:10534c0000c060003041b300a6e6b7007006200034
:10535c00c011880097c0a90031e2a8000080fa00b3
:10536c00000006000200fa009a40a8000000eb00c2
:10537c00000f7800230037002bff0700401f200090
:10538c0053190700a201200021c0b30080c1b30053
:10539c0043f90700500020004d190700820120003e
:1053ac0011c1b30080c1b3003df9070050002000cb
:1053bc00471907008207200071c0b30080c1b300f9
:1053cc0037f9070050002000411907000001eb00dd
:1053dc0001c1b30080c1b30031f90700800c20007b
:1053ec003b1907003202200001c1b30080c1b30099
:1053fc002bf9070050002000351907000060fe0053
:10540c001e0fe800500020009e0f1000daff36003f
:10541c009a40a9000080fa00000006000000fa0083
:10542c000080eb00601988000080eb0040168800bb
:10543c000080eb00801688000080eb00c01688000e
:10544c000080eb00001788000080eb0040178800fc
:10545c000080eb008017880045ef0700d9f50700a6
:10546c00dd62a900e4e2a900e4a2a900e4c2a8005c
:10547c00dc22a900dd02a900dc62a900cca2a900f3
:10548c00d5a2a800dce2a800ec62a900ec22a800de
:10549c00d822a900d1a2a900d8e2a900e862a900eb
:1054ac00e822a900d962a900e0e2a900e0a2a900c3
:1054bc00e0c2a900d902a900d862a900c8a2a9001b
:1054cc002c23a9002d63a9002d83a9002d43a9002d
:1054dc002da3a9000000eb00001988000000eb00d0
:1054ec00101988000000eb002019880000c0eb00a8
:1054fc0024e3b70025c3bf00f041b30025e3b70098
:10550c00013220009140780000ceb30000c0700042
:10551c0020e3b7000080fa00000006000000fa004b
:10552c007007a800000000007007a9000000eb0045
:10553c00a02488000000eb00302488008804a90017
:10554c00e4e2a900e4a2a900e4c2a800dd02a900db
:10555c00dc62a90050002000dd1807000000eb0001
:10556c00001988000000eb00101988000000eb0007
:10557c00201988000080eb00601988000080eb0087
:10558c00401688000080eb00801688000080eb003d
:10559c00c01688000080eb00001788000080eb002c
:1055ac00401788000080eb00801788000080fa000c
:1055bc00000006000000fa008660a9009660a900b1
:1055cc000080fa00004006000000fa002043a90009
:1055dc0085a0a9001018800020a388002018800046
:1055ec0030a388000018800040a388003018800089
:1055fc0050a38800209b80000000e800209b8800be
:10560c000080fa00000006000400fa000000eb0025
:10561c00000f7800e4e2a80040062000ac18070058
:10562c00e4a2a8000a0037001e0fe800500020007a
:10563c009e0f1000030036000000eb0010079800ce
:10564c00380037000060fe0040062000a01807005c
:10565c00d3c2bf000080fb004600de00614060004a
:10566c008080fb00dac2bf000080fb004600de0039
:10567c00614060000080fb00008070000000e000d2
:10568c00e9ff3a000000eb00000f78000060fe001c
:10569c00400620008e1807000a0037001e0fe80095
:1056ac00400120009e0f1000030036000000eb00ac
:1056bc00100798001b0037000060fe004006200019
:1056cc0083180700d3c2bf000044b2000004e000fe
:1056dc00f2ff32000000eb00000f7800dc22a80083
:1056ec000a0037001e0fe800400120009e0f10003a
:1056fc00030036000000eb0010079800090037008b
:10570c000060fe004006200071180700dac2bf00de
:10571c000044b2000004e000f2ff32001000200050
:10572c00100798001e0090000080fa000000060090
:10573c000200fa000060fe006620a8006040a8008d
:10574c00d0168000000f780050168000000f7800f3
:10575c008660a9009660a8000040fe009660a90033
:10576c008660a900d0168000000f780050168000cb
:10577c00000f780021e3a800803e20005418070099
:10578c0021e3a90000fa200051180700e9ff3700b7
:10579c000000fa00cac2bf00614060000004e000d3
:1057ac0008003200a079210011c0b3000148780034
:1057bc00e4e2a80010c0b300eaeeb700dd62a80076
:1057cc000c003700cac2bf00614060000004e0005a
:1057dc0008003a00a17921000040eb0080487800d5
:1057ec000040eb00eaeeb700dd62a9000040eb00e0
:1057fc00e9eeb700a0af80000000e0001e0034000e
:10580c0068d3bf000004e0000c003a00a1af800098
:10581c0030062000808f500002003c00dd02a90001
:10582c0018003700a1af800080072000808f500047
:10583c0014003400dd02a80012003700dd02a900bc
:10584c00a1af800030062000808f500003003c0088
:10585c000040eb00e8eeb7000a003700a1af800073
:10586c0080072000808f50000600340010c0b30069
:10587c00e8eeb70003003700dd02a9000040eb00a2
:10588c00e8eeb70068d3bf000004e0000800320067
:10589c00e8cebf000004e00005003a00a0af800095
:1058ac000000e000020035000000eb00a0af880013
:1058bc000080fa00000006000000fa000080fa00e8
:1058cc00000006000000fa0084e0a900607380006c
:1058dc000000e80060738800617380000071220092
:1058ec00808f500002003a000000eb0060738800cb
:1058fc0060738000a2002000110009000280d80013
:10590c008000fd000000e00017003a00707380007a
:10591c000000e8007073880060738000420620006d
:10592c00110009000280d8008000fd000000e0009a
:10593c000d003a00807380000000e800807388003e
:10594c0060738000823e2000110009000280d800a4
:10595c008000fd000000e00003003a00907380001e
:10596c000000e800907388000080fa000000060038
:10597c005400fa0020cf98006127980072279800f5
:10598c00032f980030c2b30010cf98007e209000f7
:10599c000000e000030032000e2890000000e00040
:1059ac0003003a0010fd2f00102f98003b00370029
:1059bc000e00e80052022000b125210013ed070073
:1059cc000e00e800aec89000214098006e209000b8
:1059dc00c800de004801dd00010171008e00e80006
:1059ec00f00f2000800161003140900060406000a9
:1059fc0003407000b04098004811de004140900018
:105a0c006040600002407000c04098000e00e8004a
:105a1c006500400002022000fe209000fbec070015
:105a2c00610220008e804000900420000e00400097
:105a3c008e02e8000002780033c0b3001200200090
:105a4c00050078006c130700004f78001e04e0007e
:105a5c00030032001e00fb00102f98000f003700cf
:105a6c009ec8900030c2b30080cf500003003200bb
:105a7c0021ff2f00112f9800080037006002200032
:105a8c000e0040008000e800020220000e2890006a
