:020000040000fa
:080000000002040000000000f2
:020000040000fa
:100400008f7621002e7f24000e018800000000005e
:100410000c000700e0b12700010020001f000700ca
:10042000000020000000e000020032000000020096
:10043000000000003c840200000000000040da00e0
:100440000000fe004440a900001e20000000e00063
:100450000300320000002000a00188004440a800f2
:1004600000000600f03fb1000180b1000600350039
:10047000ee03090000000000403fb1000180b10020
:10048000fbff3d001000b000203fb000020035002f
:1004900000800900000000000000060091018800b3
:1004a000800078000000eb0015003700e28040007b
:1004b00032a0b4009101ba00e280400032a0b40042
:1004c0009102ba00e280400032a0b4000002eb00ca
:1004d000472bde00f507b200602ce10004003a0073
:1004e0000059eb008301e900fdff3e0004003700e6
:1004f0006128e100010032000082eb0004000700e7
:100500001101ba000200e000e8ff3a000000060016
:100510003159ba008301e9000c0032002159ba00b8
:100520008301e900080032000400e00003003a0003
:10053000e280400032a0b400f5ff370011d9ba00c4
:100540008301e900faff3a008100e800e180400001
:1005500032a0b400000006002c8704000000000058
:10056000483704000000000042380400000000008a
:1005700070360400000000007c7a040000000000d7
:100580000040da000000fe00889fbe008a9fbe0087
:10059000010578000100e0000400350008003c007f
:1005a0000000e0002000320005003700600010006d
:1005b000e080180002003b0001f02c001a00370018
:1005c0000004be006011b8006b0920000982cf0052
:1005d000020039000882cf000441b0006942520095
:1005e0000e00320008003b0082817100610164004e
:1005f0008904d1000884d3008b05e8000442e80098
:10060000f9ff3a00050037000804440089844c00d3
:100610008b05e9000442e900fbff3a0019010700dd
:100620000af0a70001f0a0004f05be004f04be0075
:10063000000006000001be00380107000470a7009a
:1006400003f0a1006509b100160032000d0035006d
:100650006828e10006003500f0ff2f00f1ff2700b9
:100660000300e00013003b0001002800000005002b
:1006700000004000818048008502e900fcff3a004c
:1006800008003700f88f420002003c008000eb00b9
:10069000000005008100d1000080d3008502e80041
:1006a000fcff3a000300e00002003b006000100085
:1006b000e080180000000600140020002c01370024
:1006c000889fbe008a9fbe008c1f780043010700f0
:1006d0004a01330003866c006450e10024003200bc
:1006e0006420e100270032006150e1002200320066
:1006f0006120e100210032008b854200eb07b10050
:100700000134b800003ab8000804420089844a0065
:10071000013ab8000030b8008880400009014a0062
:1007200004003300000040008180480002014900bd
:100730008b05e900c909dd0083017000010032006a
:1007400013002000c814de004814dd004709de0055
:100750001200b200c808de0008847000c90007005b
:1007600001f0a1000cf0a70001f0a0002c0137005f
:100770006120e1002e0132000801be000200be002f
:10078000f7ff37006150e100fcff3a002801370015
:1007900003f0a200889fbe008a9fbe008c1f7800d5
:1007a0000e010700150133006450e1004f003200d4
:1007b0006420e1005200320003826c0007003b001d
:1007c0000905d0000306d000820f54000c065d001e
:1007d0000200390002003200890178000306780027
:1007e0008582550004003d000003fd008103fd00eb
:1007f0008502ea008b854200840f720002003b00f4
:1008000060001000e08018006011b8000005eb00e7
:100810007a28e1000a00390006007800c75ddd0093
:10082000f707b200878075002d00370082817100c4
:100830000a017800610560008180d1000080d3004a
:100840008502e900f9ff3b00060440008784480068
:1008500002003b0060041400e0841c000988a3002f
:10086000070032008a817100828171006101640099
:100870008904d1000884d3008b05e80017003700f5
:100880000978a30013003a000b00e00013003400c5
:100890008b05e9000804440089844c000a44740074
:1008a0000978a3000d003a000b00e00007003400b7
:1008b0008b05e9000804440089844c0001003a00db
:1008c0000b0020000978a300f7ff32000001eb00c5
:1008d00002003700828171000a0178006900070078
:1008e0000cf0a70001f0a000cd0037006420e1006b
:1008f00002003a00838f6c00cd0033000801be0077
:100900000200be00c6003700889fbe008a9fbe005e
:100910008c1f7800b1000700b800330003866c001c
:100920006450e1002e0032006420e1003300320008
:100930006150e1002f0032006120e10031003200ff
:1009400085855500eb07b000090020000804200051
:10095000050037000804440089844c000a00310077
:100960000603430087834b000001530081815b0035
:10097000f8ff33000203be000800a0000804440092
:1009800089844c00f6ff3900c639dd00830173000d
:1009900001003200130020008904d1000884d30034
:1009a0000998a300050032000800a7000300a0007a
:1009b0008904d1000884d3008b05e8008904d100a4
:1009c0000884d3000001eb000281d2002d00070053
:1009d00001f0a1000cf0a70001f0a000900037008a
:1009e0006420e100920032000801be000200be0057
:1009f000f7ff37006120e1008d0032006000b80091
:100a0000f3ff37000000200001f82700f0ff370057
:100a10000001be00410007000470a70003f0a10020
:100a200003f8a30013003a006509b100100032007a
:100a3000090035006928e1000200350001002800a6
:100a40000000050000004000818048008502e900a8
:100a5000fcff3a0000000600f88f42000500350058
:100a60008100d1000080d3008502e800fcff3a003d
:100a7000000006008000eb0000000500f4ff2f00de
:100a80003b00370081002000618055000b003d00d5
:100a90000b00200061fe2f000100e1001d0034006a
:100aa00082817100610164008904d1000884d3004f
:100ab0000000e800faff3a007100200061006400c5
:100ac000030070000200600009003200610444006d
:100ad000e0844c000988a500050032008b05e80081
:100ae0006808e10002003a008904d1000884d300bc
:100af000f20f20000258e10005003d00c75ddd0057
:100b0000f907b2008980750008007800000006002f
:100b10000bf827008b00780000000500c70ade00f4
:100b2000f107b200f50fb20008003200e1cf420039
:100b3000020032000170a00024000500810f700047
:100b4000010032000408050044000500810f700018
:100b500002003a00140005008502e9000000400090
:100b600081c04800fcff3b000170a000240005008c
:100b7000889fbe008a9fbe00841f78001700070070
:100b80004f00780011003300f0ff2f00838f6c00be
:100b900006003b00040565000a00a70008003700b6
:100ba00009f0a6001000200008003700820f540052
:100bb000838f5c00030039001000200001003e001c
:100bc0000000200009f0a7000000ea004f05be0069
:100bd0004f04be000000e000000006000004be005c
:100be000ceff07000003be000405be000200be00e9
:100bf000caff0700844f7500000006000200be0017
:100c00006450e100050036006420e1000200360077
:100c10000968a30001003a000800be000160a000be
:100c20004f0678004f05be004f04be0000000600ce
:100c3000f0ff2f00f1ff2700f9ff370006c2bf00c9
:100c40000008a300fdff3a0006c2bf000018a30081
:100c5000faff3a0006c2bf000028a300f7ff3a00df
:100c600006c2bf000038a300f4ff3a0006c2bf006e
:100c70000048a300f1ff3a0009c2bf000068a300ca
:100c8000eeff3a00000006000602a8000000060081
:100c90000080fb001010880008c2bf0001c8b3002c
:100ca000014060000080fb000000e9004f00de0012
:100cb0000000e900000006000642a800000006004f
:100cc0000662a80006c2bf000038a300fdff3a007c
:100cd00008c2a900001080000080fb000000060090
:100ce00006a2a8000682a800000006008001eb0012
:100cf0000200370061f079008301e800828f510023
:100d0000fcff3a00000006000400fa00e0bf9f006c
:100d1000e4815700812978000002eb000f003700c2
:100d20006fb89700904078007fb897001040780027
:100d30000402e80080cf5000040032008180fb00f4
:100d40000080fb0000805000070037006fb897005c
:100d50000000e800e0bf9f009309e800820f520006
:100d6000efff3a000000eb000080fa0000000600f0
:100d700000027800808f50000a003100828140001c
:100d8000808f510007003600020240008000eb0017
:100d9000436278008100e800828f50000700320033
:100da000fbff37000200e000040032000281400037
:100db000315a7800828f5000fdff3a000000060093
:100dc0008001eb0002003700817178008301e800a8
:0c0dd000828f5100fcff3a00000006007a
:020000040000fa
:020000040005f5
:0457f8009e430000cc
:020000040000fa
:020000040005f5
:0457fc00f81e000093
:020000040000fa
:10000800c0020000c0020000c0020000c0020000e0
:10001800c0020000c0020000c0020000c0020000d0
:10002800c0020000a4870000c00200004c8d000040
:10003800c0020000ca870000c0020000328700002a
:10004800c0020000c0020000c0020000ae8800002c
:10005800fa88000088880000c0020000c002000082
:10006800c002000046890000c0020000c002000073
:10007800c0020000c0020000c0020000c002000070
:10008800c0020000c0020000c00200005887000043
:100098007e870000c0020000d4880000208900008c
:1000a800c0020000c0020000c0020000c002000040
:1000b800c0020000f0870000168800003c8800009d
:1000c80062880000c0020000c0020000c0020000f8
:1000d800c0020000c0020000c0020000c002000010
:1000e800c0020000c00200006c890000c0020000cd
:1000f800c0020000c0020000c0020000c0020000f0
:10010800c0020000c0020000c0020000c0020000df
:10011800c0020000c0020000c0020000c0020000cf
:10012800c0020000c0020000c0020000c0020000bf
:10013800c0020000c0020000c0020000c0020000af
:10014800c0020000c0020000c0020000c00200009f
:10015800c0020000c0020000c0020000c00200008f
:10016800c0020000c0020000c0020000c00200007f
:10017800c0020000c002000072450000c00200007a
:10018800c0020000c0020000c0020000c00200005f
:10019800c0020000c0020000c0020000c00200004f
:1001a800c0020000c0020000c0020000c00200003f
:1001b800c0020000c0020000c0020000c00200002f
:1001c800c0020000c0020000c0020000c00200001f
:1001d800c0020000c0020000c0020000c00200000f
:1001e800c0020000c0020000c0020000c0020000ff
:0801f800c0020000c00200007b
:020000040000fa
:10020800c0020000c0020000c0020000c0020000de
:10021800c0020000c0020000c0020000c0020000ce
:10022800c0020000a4870000c00200004c8d00003e
:10023800c0020000ca870000c00200003287000028
:10024800c0020000c0020000c0020000ae8800002a
:10025800fa88000088880000c0020000c002000080
:10026800c002000046890000c0020000c002000071
:10027800c0020000c0020000c0020000c00200006e
:10028800c0020000c0020000c00200005887000041
:100298007e870000c0020000d4880000208900008a
:1002a800c0020000c0020000c0020000c00200003e
:1002b800c0020000f0870000168800003c8800009b
:1002c80062880000c0020000c0020000c0020000f6
:1002d800c0020000c0020000c0020000c00200000e
:1002e800c0020000c00200006c890000c0020000cb
:1002f800c0020000c0020000c0020000c0020000ee
:10030800c0020000c0020000c0020000c0020000dd
:10031800c0020000c0020000c0020000c0020000cd
:10032800c0020000c0020000c0020000c0020000bd
:10033800c0020000c0020000c0020000c0020000ad
:10034800c0020000c0020000c0020000c00200009d
:10035800c0020000c0020000c0020000c00200008d
:10036800c0020000c0020000c0020000c00200007d
:10037800c0020000c002000072450000c002000078
:10038800c0020000c0020000c0020000c00200005d
:10039800c0020000c0020000c0020000c00200004d
:1003a800c0020000c0020000c0020000c00200003d
:1003b800c0020000c0020000c0020000c00200002d
:1003c800c0020000c0020000c0020000c00200001d
:1003d800c0020000c0020000c0020000c00200000d
:1003e800c0020000c0020000c0020000c0020000fd
:0803f800c0020000c002000079
:020000040000fa
:1060000054550000522000002020000020200000f5
:106010002020000020200000202000002020000080
:10602000202000000d0a000000530000484f00002f
:106030002020000020200000202000002020000060
:10604000202000002020000020200000200d000063
:106050000a000000454c0000422000002020000003
:106060002020000020200000202000002020000030
:1060700020200000202000000d0a00000057000032
:1060800052490000202000002020000020200000b5
:106090002020000020200000202000002020000000
:1060a000200d00000a00000054550000525f00005f
:1060b0004f46000046200000202000002020000065
:1060c0002020000020200000202000000d0a0000f9
:1060d00000530000484f00005f4f0000464600009c
:1060e00020200000202000002020000020200000b0
:1060f00020200000200d00000a000000454c000098
:10610000425f00004f4600004620000020200000b3
:10611000202000002020000020200000202000007f
:106120000d0a000000570000524900005f4f0000b8
:106130004646000020200000202000002020000013
:1061400020200000200d00000a0d00000a000000c1
:106150004545000052450000414400002020000059
:10616000202000002020000020200000202000002f
:1061700020200000202000000045000045460000cf
:106180004c41000047530000202000002020000068
:1061900020200000202000002020000020200000ff
:1061a0002000000052450000414400003a20000059
:1061b00020200000202000002020000020200000df
:1061c00020200000202000000d0a0000000d00002b
:1061d0000a0d00000a0d00000a000000090200007c
:1061e000200000000101000000c000003209000092
:1061f0000400000000020000ffff0000ff0000009c
:106200000705000001010000ffff0000010700007a
:106210000581000001ff0000ff01000004030000f1
:10622000010000001a030000520000006f0000008f
:10623000620000006f0000007400000065000000b4
:10624000580000002c000000200000004900000061
:106250006e000000630000002c0300004a000000f4
:10626000750000006c0000002000000031000000fc
:106270003700000020000000320000003000000065
:10628000310000003200000020000000310000005a
:10629000330000003a00000032000000330000002c
:1062a0003a00000034000000370000000000000049
:1062b000eeb000000eb1000012b100002cb10000e1
:1062c0000d0a000046690000726d00007761000051
:1062d0007265000020620000756900006c640000b7
:1062e0003a200000200000000d0a000000520000cb
:1062f000434f00004e20000020200000202000001e
:10630000202000002020000020200000202000008d
:10631000200d00000a0000002020000020200000c6
:10632000202000002020000020200000202000006d
:10633000202000002020000020200000200a000073
:10634000000d00000a4200006f610000726400004e
:10635000206e0000756d000062650000723a00005a
:1063600020200000004c00006f6f00007020000033
:10637000202000002020000020200000202000001d
:10638000200d00000a0000000000000000000000d6
:10639000000000000000000000000000800000007d
:1063a000000000000000000000010000bfff00002e
:1063b000ffff0000ffff0000ffff0000ff000000e4
:020000040000fa
:1063c0000000fa000000eb00001988000000eb005c
:1063d000101988000000eb00201988000080eb00f5
:1063e000601988000080eb00401688000080eb00f8
:1063f000801688000080eb00c01688000080eb004b
:10640000001788000080eb00401788000080eb0038
:1064100080178800cde2a900d5a2a900d5c2a900a5
:10642000dc02a900dc02a900dce2a900dd02a9006f
:10643000dd22a900dd42a900dd42a900dcc2a900dd
:10644000c9e2a900d1a2a900d1c2a900d802a9001d
:10645000d802a900d8e2a900d902a900d922a9002e
:10646000d942a900d942a900d5a2a800dc02a800ff
:10647000cde2a800dd02a800dd42a800dce2a80011
:106480002c83a9002ca3a9002c03a9002c23a9006c
:106490002c43a9002c63a9002d03a900d8c2a90090
:1064a0000000eb00001988000000eb0010198800c4
:1064b0000000eb002019880000c0eb0024e3b700c7
:1064c00025c3bf00f041b30025e3b700013220002f
:1064d0009140780000ceb30000c0700020e3b70008
:1064e00021e3a800416d20009140780000ccb3006a
:1064f00000c060003040b300d4e6b70080742300d1
:10650000c08f880020842300b08f8800416a20005b
:106510009140780000ccb30000c060009041b3000f
:10652000a4e6b70070062000401188009560a8001e
:106530009580a80021e2a8002342a800316d200028
:106540009140780000ccb30000c060002041b3004f
:10655000d3e6b700516d20009140780000ccb30025
:1065600000c060003041b300d5e6b7000000eb008a
:10657000b00c8800007d2000a00c880092c1bf00f4
:10658000f041b30092e1b70092e1a9001119200097
:106590009140780030ceb30000c0600091e1b700b8
:1065a000011920009140780080cfb30000c0600046
:1065b0006040b30090e1b7000000eb00000d8800e0
:1065c000007d2000f00c88009cc1bf00f041b300aa
:1065d0009ce1b7009ce1a900b1192000914078002e
:1065e00030ceb30000c060009be1b700a1192000cd
:1065f0009140780080cfb30000c060006040b300dd
:106600009ae1b70000e823006008880011e1a800c3
:106610000000eb00c70107000000eb00e4010700e9
:10662000d5c2a800dd22a800a00707009d00070032
:106630002b2d07004106200010c0b300482d070095
:10664000a100200040c0b300452d0700a10020009c
:1066500020c0b300422d0700a100200030c0b300cd
:106660003f2d07000080fa00000006000800fa0035
:10667000881f78000000eb003007980040c0b3008e
:106680004d2d07000004e0002e003200a100200084
:1066900040c0b300322d070091b28000b007200047
:1066a000808f500009003a00a1b28000801c2000b9
:1066b000808f500005003a00b1b2800050312000b8
:1066c000808f500001003a00b603070040c0b300bd
:1066d000d6010700d080880050c0b300d301070066
:1066e000e08088000040eb00d0010700f0808800c7
:1066f00010c0b300cd0107000081880020c0b300a6
:10670000ca0107001081880030c0b300c70107002c
:106710002081880080c0b300c4010700d0888800b1
:10672000d080800030b38800e080800020b38800f3
:1067300055050700300798003e00900068030700e9
:106740003a07070020c0b3001b2d07000004e0003b
:1067500013003200a100200020c0b300002d07006c
:1067600047010700c0b28000cf80de0086e7070047
:106770003089880041898800a10020006012210032
:10678000ed0007000004e000050032007089800081
:1067900081898000a7e70700db00070032f1b7001e
:1067a00030c0b300042d07000004e00029003200cf
:1067b000a100200030c0b300e92c070093000700bf
:1067c0005089880061898800308980004189800073
:1067d0006f0007001007980021079800508980007b
:1067e0006189800032898000438980001e03900007
:1067f000ae0390000002be000040eb00fb2a070041
:106800007089880081898800281321001844780045
:10681000708980008189800086e70700ba00070040
:10682000804f540005003a0010002000000f78004f
:106830000000eb005e010700060037007089800051
:10684000818980007be707005901070020c0b30061
:1068500032f1b70010c0b300d72c07000004e000ed
:106860000d0032004106200010c0b300bc2c070010
:10687000920207001cd1bf000004e000fdff3a00b7
:1068800023c2bf00614060000004e000fcff320052
:10689000dcc2a9002222a9004f0478000080fa007f
:1068a000000006000000fa00100007006000b800b9
:1068b000809fbe00a0702d0031ca2300809fbe00c3
:1068c000d6cc2c00c7e423000400200085242c0033
:1068d00002002000832424000040eb00912a0700de
:1068e000e88757000080fa00000006000200fa0066
:1068f00012c1bf0001c3b3000140700012e1b70034
:1069000013e1a80002003700200a8000000f780081
:1069100040c1bf00684060000004e000faff3a0098
:10692000111420009140780030ceb30000c0600008
:1069300041e1b7000114200091407800f0c9b30094
:1069400000c0600040e1b7000114200091407800d1
:1069500080cfb30000c060005040b30040e1b700fa
:10696000e16820009140780000ccb30000c06000d6
:10697000a041b3008ee6b70000672300308f880087
:106980008420a9009420a8000080fa0000000600de
:106990000800fa00008fbe006011b8001e00be00a3
:1069a00045e707000000e000010035000a0037005d
:1069b000e27a240013ee23001e00be0040e7070029
:1069c000325c2f00030a240071e7070020079800bb
:1069d0003107980009003700e27a240013ee230003
:1069e0001e00be0036e70700325c2f00030a2400b9
:1069f00068e7070020079800310798002e009000f4
:106a0000be0090000080fa00000006000e00fa00b0
:106a1000881f7800f2cfbf000004e00004003200bd
:106a20006000b800500798006107980031003700f7
:106a3000dac2bf00684060000004e00018003200c5
:106a40000000eb00000f7800288980006140b90049
:106a5000cde6070030079800410798000800e000e5
:106a600007003d0002002000037824003e00900053
:106a7000ce00900047e707003007980041079800d4
:106a80003e019000ce01900080d72900817a2c0031
:106a90009de7070050079800610798001500370030
:106aa000288980006140b900b7e607001007980008
:106ab000210798000800e00007003d0002002000c8
:106ac000037824001e009000ae00900031e707001c
:106ad00010079800210798001e019000ae01900059
:106ae00080d72900817a240087e7070050079800a3
:106af000610798005e009000ee0090004f0478005f
:106b00000080fa00000006000400fa00000f780080
:106b10001e00e00003003400100020001007980061
:106b2000020037000000eb00100798001e009000e4
:106b30000080fa00000006000e00fa00200798000e
:106b40003107980050c0b3002047980031c0b3000f
:106b500020c0b30042030700000f7800b07f800020
:106b60000000e800b07f8800b17f80003e00900008
:106b70000088b90080007800401f2000808f5000fe
:106b80000f003600b17f8000c07f80008080500001
:106b9000c07f8000808f5000030031001000200073
:106ba00060079800330037009e007800a17f8800be
:106bb0000000eb00b07f88000000eb00c07f880081
:106bc0002e0090001000be009ae60700ceff0700de
:106bd000804078002e0090004048900080cf500008
:106be000200032002e009000d00090004000900065
:106bf00090e60700500798005e0090000000e0005b
:106c000003003d00de0090008100ea00510798007b
:106c10005e009000ea0f500012003400a07f800058
:106c20001e00500040079800ce0090000100e000d8
:106c300003003d004e0090000000ea00400798006d
:106c40002e4090000080fb00ce009000808f50000e
:106c500004003d00c07f80000000e800c07f880085
:106c6000020037000000eb00c07f88000000eb004e
:106c7000600798006e0090000080fa000000060097
:106c80000000fa00f3cfbf000004e00004003a0067
:106c9000d07f80000000e800d07f8800020037002d
:106ca0000000eb00d07f88000040eb00f3efb7005e
:106cb000d07f8000ea0f500005003600803e2000a3
:106cc000d07f880010c0b300f2efb7000200370099
:106cd0000040eb00f2efb7000080fa000000060071
:106ce0000200fa008420a900200a8000000f78002a
:106cf000e07f80009e0f500004003100e07f8000a4
:106d00001e0010002089880004003700e07f80000a
:106d10001e0010000000e900208988001e00780095
:106d2000e07f880010c0b300f3efb7000080fa00e6
:106d3000000006000400fa00000f78004006200062
:106d40009e0f10000300340040062000000f780062
:106d500005003700c0f92f009e0f100002003d0013
:106d6000c0f92f00000f78001e00e0000200340080
:106d7000dc02a80001003700dc02a9001e00780038
:106d8000100798001e0190000200e00003003d0083
:106d90001e0090000000ea00100798001e019000fd
:106da0007410b900b00c88000080fa0000000600e2
:106db0000400fa00000f7800400620009e0f10002b
:106dc0000300340040062000000f78000500370063
:106dd000c0f92f009e0f100002003d00c0f92f00e7
:106de000000f78001e00e00002003400dd42a80021
:106df00001003700dd42a9001e007800100798004e
:106e00001e0190000200e00003003d001e00900003
:106e10000000ea00100798001e0190007410b900ed
:106e2000000d88000080fa00000006000400fa004f
:106e3000204798000000eb00000f780021e3a90034
:106e40002e4090007f4060007f4160008132200032
:106e50009140780000ceb30000c060000240700096
:106e600028e3b70021e3a8002023a80020c3bf0027
:106e7000614060000004e000fcff32000018800068
:106e8000000f78001e0078000080fa000000060065
:106e90000400fa008560a900ffcfbf000081fb005d
:106ea0003011800080407800300421000000410053
:106eb00001487800ffcfbf000080fb00100798005a
:106ec0001e009000e10f50000d0032001e009000e7
:106ed000e20f50001a0032001e0090000000e00097
:106ee000010032002900370043d0bf00e14f4000cd
:106ef000260032000040eb00ffefb7005f003700d4
:106f00004104210091407800c0ccb30080cf5000f4
:106f10001e00320044d0bf00e14f400005003a009f
:106f200000c0eb0043f0b70010c0b300ffefb700a4
:106f3000160037000040eb00ffefb7004f003700ae
:106f400045d0bf00eb4f500005003a0090c0b300a1
:106f500034f1b700b0c0b300feefb7000b0037004c
:106f600045d0bf00ec4f500005003a0050c0b300c0
:106f700034f1b700c0c0b300feefb7000300370024
:106f80000040eb00ffefb7003c003700ffcfbf0031
:106f90000040e800ffefb700f1ff200091407800cb
:106fa00034d1bf0080cf500034003900fecfbf0085
:106fb000eb4f500012003a000040eb00004f780009
:106fc000090037001e81fb009e80fb003004210079
:106fd0000080400090407800c00421000000410083
:106fe000014878001e4fe80080c0b3009e4f10009b
:106ff000f4ff360010c0b3001ef1b70017003700d1
:10700000fecfbf00ec4f500014003a001dd1bf006e
:107010000004e00011003a000040eb00004f78004f
:10702000090037001e81fb009e80fb003004210018
:107030000080400090407800500521000000410091
:10704000014878001e4fe80040c0b3009e4f10007a
:10705000f4ff360010c0b3001df1b7000040eb0094
:10706000feefb7000040eb00ffefb70040c6b300f3
:1070700034f1b7000040eb0045f0b7000080fa00a3
:10708000000006000000fa008580a90000d0bf00c3
:107090000040e80000f0b70000d0bf00e94f50000a
:1070a000060036000040eb0000f0b7009580a90014
:1070b0000040eb001cf1b7000700370000d0bf0014
:1070c0008080fb0000032100008040001040780019
:1070d0000080fb00201188000080fa0000000600fc
:1070e0000600fa0010079800414798000000eb00e6
:1070f000108088000040eb00004f78002900370026
:10710000108080004800de008080fb00108080003e
:107110004800dd0000807000108088001e80fb00a9
:10712000800078001e009000008040001040780031
:107130008080fb0010808000008068001080880044
:10714000108080000080fb004400de008080fb0097
:10715000108080000080680010808800108080000f
:107160004800dd00c400dd00108080000080680061
:107170001080880011808000f00f200000806000e7
:107180004400dd0000004000800078001080800096
:1071900000806800108088001080800010808800c7
:1071a0001e4fe8004e4090009e4f1000d4ff390063
:1071b000108080000080fa00000006002000fa0025
:1071c000500f9800415f98000000eb0020079800e6
:1071d0000000eb001007980020c0b300004f7800bb
:1071e0000b0037001e80fb000081e9001e80fb00c1
:1071f000800078005e089000008040009040780099
:107200006600470000004100014878001e4fe8007a
:107210009e80fb004e5890000080fb000080e9003b
:10722000808f5000efff35004e5890000080fb002b
:10723000800078005e089000008040000080e90037
:10724000104078000080fb004801dd004e5890009f
:107250000080fb00800078005e0890000080400005
:107260000000e900104078000080fb0000004100b1
:10727000200798004e5890006440500080407800ed
:107280006600470096ff070010079800ae009000c8
:107290001e009000808f500003003a001000200074
:1072a000700f9800020037000000eb00700f98008c
:1072b0007e0890000080fa00000006001400fa002a
:1072c00010c0b3001cf1b700dcc2a80090b280006f
:1072d000100f98001e0890000000e00003003d0021
:1072e0009e0890008100ea00110f980040062000df
:1072f0009e089000808f5000020034000000eb00d8
:1073000090b28800a0b28000000f98000e08900094
:107310000000e00003003d008e0890008100ea00bc
:10732000010f9800400620008e089000808f5000ca
:10733000020034000000eb00a0b28800b0b2800070
:10734000700798007e0090000000e00003003d0000
:10735000fe0090008100ea007107980040062000be
:10736000fe009000808f5000020034000000eb000f
:10737000b0b28800c0b28000600798006e00900034
:107380000000e00003003d00ee0090008100ea00f4
:107390006107980040062000ee009000808f5000aa
:1073a000020034000000eb00c0b28800d0b28000c0
:1073b000500798005e0090000000e00003003d00d0
:1073c000de0090008100ea0051079800400620008e
:1073d000de009000808f5000020034000000eb00bf
:1073e000d0b28800e4004700d0c0b30080487800e5
:1073f00090b280004046b0008040780064004700b2
:1074000011409800a0b280004046b0008040780053
:107410006400470021409800b0b280004046b000b0
:10742000804078006400470031409800c0b280007e
:107430004046b0008040780064004700414098001a
:10744000d0b280004046b000804078006400470021
:10745000514098000040eb00004f78000a003700d0
:107460001e80fb000081e8009e80fb006400470056
:10747000008040009040780000032100000041009f
:10748000014878001e4fe80050c0b3009e4f100026
:10749000f3ff36006400470061c0b30010ff07002f
:1074a0001007980000c0eb0030f0b700c0ccb3006c
:1074b00031f0b7001e0090004800de0038f0b70041
:1074c0001e00900039f0b70030d0bf000080fb00f4
:1074d000201188009580a8000080fa0000000600b6
:1074e0000400fa001007980020c0b300004f780095
:1074f0009e80fb0020808000808040001e00900065
:10750000808f500005003d001e80fb002180800020
:1075100001004000208088000a00370021808000a0
:107520001e80fb00808050001e009000808f500065
:1075300004003400208080009e80fb000100500089
:107540002080880020808000f40f50000300340069
:107550004001200020808800050037002080800046
:10756000f40f400002003d00c0fe2f002080880084
:1075700020808000e40f400006003500208080005d
:10758000e40f500003003c000000eb00e9fd0700a1
:107590000200370020808000e6fd07000080fa002e
:1075a000000006000000fa000000eb0090b2880026
:1075b0000000eb00a0b288000000eb00b0b2880031
:1075c0000000eb00c0b288000000eb00d0b28800e1
:1075d0000000eb00f6fd07000000eb00d5fd070002
:1075e00036ff07001cd1bf000004e000fdff3a0099
:1075f00023c2bf00614060000004e000fcff3200d5
:10760000dcc2a9002222a9000060fe004006200082
:10761000fae50700520307000004e00001003a0009
:10762000efff370031c0b30020c0b3008c0007006b
:107630005088880000898000807f88001089800041
:10764000707f880011c0b3000040eb008400070089
:10765000607f880050888000e10f40004c003200bd
:10766000807f8000e10f400049003200707f800081
:10767000e10f400046003200607f8000e10f4000d3
:1076800001003a00420037008e120700000000009f
:10769000807f80004800de008000eb00ad13070013
:1076a00000000000817f8000f00f2000008060005b
:1076b00011002000a713070000000000707f800069
:1076c0004800de0021002000a21307000000000097
:1076d000717f8000f00f20000080600031002000ea
:1076e0009c13070000000000607f80004800de005f
:1076f000410020009713070000000000617f800018
:10770000f00f20000080600051002000911307005e
:1077100000000000508880004800de00610020006a
:107720008c1307000000000051888000f00f20003b
:107730000080600071002000861307000000000038
:1077400081002000a00a2000821307000000000032
:107750004001200090b28800d8fe070020032000de
:10776000a6e50700d5fe070020032000a3e50700db
:107770000060fe000000eb0090b288000060fe0098
:10778000cefe0700200320009ce50700fbff37002a
:107790000080fa00000006000a00fa0010079800b6
:1077a00021079800624798000000eb00000f780066
:1077b0001e009000e10f400003003a000080eb0043
:1077c00040079800230037002e009000e10f400092
:1077d00003003a00e1ff2f00410798001d00370029
:1077e000ae00900080162000808f5000030036000d
:1077f000d0ff2f0040079800160037009e00900031
:107800002e009000808f5000060031001e00900076
:10781000ae0090000100500081162000010f4000d2
:10782000030037009e0090002e009000008f500053
:107830006e4090000004e000030034001e00780059
:107840004007980003003700801620001e005000fb
:10785000400798004e0090000080fa0000000600eb
:107860002600fa00889fbe008a9fbe00205798001d
:10787000315798000000eb00700798000000eb0003
:10788000600798000000eb00500798000000eb0034
:10789000400798006000b800200798003107980062
:1078a0002e50900061fd0700000f98003e509000a0
:1078b0005efd070080007800f03f200001005000ce
:1078c000700798000e089000cf80de002ee30700be
:1078d00010179800211798000e0890000000e00093
:1078e00007003d0002002000037824001e109000d5
:1078f000ae109000a7e3070010179800211798001a
:1079000092972e0063ea23001e109000ae109000a4
:107910006be3070062662600932624009de30700c0
:1079200044e30700100798009e0090008016200096
:10793000808f5000040034001e00900081e92f0069
:1079400001004000100798007e009000cf80de000c
:107950000de30700700f9800011798007e0090005b
:107960000000e00007003d00020020000378240032
:107970007e0890008e10900086e30700700f98003c
:107980000117980092972e0063ea23007e0890006a
:107990008e1090004ae30700a29929005315240095
:1079a0007ce3070023e30700000f78000e08900037
:1079b000ee0f5000040036008e089000003f2000bb
:1079c000808f50000a0036007e009000ee0f5000bd
:1079d00004003600fe009000003f2000808f500021
:1079e000030036000080eb00600f9800a100370014
:1079f0000e089000ee0f5000040036008e08900034
:107a0000003f2000808f5000030036009e00780069
:107a100061079800860037007e009000ee0f50004e
:107a200004003600fe009000003f2000808f5000d0
:107a3000030036001e009000600798007c003700ad
:107a40008e08900000e02f00008040005007980052
:107a5000fe00900000e02f000080400040079800ea
:107a60000e089000a008b000000f98008e0890004b
:107a7000f03f2000808f5000040036000e08900078
:107a800011c02f0001004000000f9800de009000a0
:107a9000510f98005e0890000000e00003003d00d8
:107aa000de0890008100ea00510f98004e0090001f
:107ab000400f9800ce0890000100e00003003d0058
:107ac0004e0890000000ea00400f9800de08900089
:107ad0004e089000808f50002b003400de00900094
:107ae000310f98003e0890000000e00003003d00c8
:107af000be0890008100ea00310f980000202000ad
:107b0000be08900001005000cf80de009ee207001a
:107b100002002000034024007be3070020079800b8
:107b2000310798001e009000cf80de0096e207002b
:107b30002e019000be019000e1e207000005be00aa
:107b40001e007800cf80de008fe207000004be0038
:107b50002e019000be0190000000200001f82300db
:107b60000be307000001be000800be00d4e20700de
:107b70000001be000a00be0006e30700ade20700f8
:107b8000600798002a0037004e009000200f9800f0
:107b9000ae0890000100e00003003d002e089000b8
:107ba0000000ea00200f980000202000ae0890009e
:107bb00001005000cf80de0073e2070002002000c9
:107bc0000340240050e30700200798003107980085
:107bd0001e007800cf80de006be207002e019000cf
:107be000be019000b6e207000005be001e00900036
:107bf000cf80de0064e207000004be002e0190008a
:107c0000be0190000000200001f82300e0e2070020
:107c10000001be000800be00a9e207000001be008e
:107c20000a00be00dbe2070082e20700600798005e
:107c3000ee00900070162000808f50000500340088
:107c40006e00900081e92f0001004000600798005d
:107c5000060037006e0090000000e00003003d00c9
:107c60006e0090008016b000600798006e009000d3
:107c7000600f98006e0890004f05be004f04be00d4
:107c80000080fa00000006000a00fa000000eb0085
:107c900030079800d0b28000300798000000eb0059
:107ca000200798000000eb00100798000000eb0090
:107cb000000f780040c0b3005cfc070030b38800c0
:107cc00050c0b30059fc070020b38800d0b2800038
:107cd000000f78001e0078003007980021b3800064
:107ce000c0202000808f50000a003e00d0b28000eb
:107cf0000000e00017003d000000eb003007980096
:107d000000c0eb0016f1b70000c0eb0017f1b700a0
:107d10001000370021b38000603b2000808f5000ae
:107d20000a003600d0b280000000e00009003400f4
:107d30000000eb003007980010c0b30016f1b70048
:107d400010c0b30017f1b700020037000040eb008d
:107d500017f1b70031b38000100c2000808f500065
:107d60000500360030b38000f1f32f000100400021
:107d700020079800020037000000eb002007980061
:107d800021b380002e0090000100500010079800e1
:107d90000ed0bf000080fb00400798004e0090000e
:107da000e20f50005a0032004e009000e20f5000e7
:107db00007003c004e0090000000e0000b00320085
:107dc0004e009000e10f50002f0032006e0037008f
:107dd0004e009000e30f5000420032004e00900031
:107de000e40f50005b003200670037000040eb00fa
:107df00018f1b7003e0090000000e00016003400cb
:107e000031b38000503b2000808f500009003600c5
:107e10009e00900070f92f00808f50005e003c00a3
:107e20000000eb003007980020c0b3000ef0b70050
:107e3000590037009e00900030f82f00808f5000ce
:107e400055003c000000eb003007980020c0b30054
:107e50000ef0b700500037003e0090000000e00038
:107e60004d003d009e009000c0072000808f500014
:107e7000490034000000eb003007980010c0b30048
:107e80000ef0b7004400370010c0b30018f1b7007f
:107e90003e0090000000e000080034001e0090004a
:107ea0000000e00005003c000000eb0030079800f7
:107eb00030c0b3000ef0b700370037003e0090002e
:107ec0000000e00034003d009e009000800620008d
:107ed000808f5000300034000000eb003007980025
:107ee0002d0037001e00e00003003d000040eb00c5
:107ef0000ef0b700280037003e0090000000e000c0
:107f0000250034000000eb00300798002200370005
:107f100000c0eb0018f1b7003e0090000000e00048
:107f2000070034009e00900070f92f00808f5000f1
:107f300003003c000000eb003007980016003700fb
:107f40001e00e00014003d000040eb000ef0b70002
:107f5000110037001e00e000050034000040eb0077
:107f600015f1b7000040eb000ef0b7000a00370033
:107f70003e0090000000e00007003d000000eb0024
:107f800030079800040037000000eb00300798002d
:107f90000040eb000ef0b700308080000000e800e9
:107fa0003080880030808000a2002000110009008d
:107fb0000280d8008000fd000000e00028003a00a8
:107fc0003e0090000000e0001d003d0030b3800046
:107fd000800078005080800000805000e40f400056
:107fe0000d00350030b380008000780050808000a4
:107ff00000805000e40f500007003c0060808000cb
:108000000000e00006003d00408080000000e80025
:1080100040808800020037000000eb0040808800ac
:1080200040808000ea0f5000090036000000eb009d
:108030003007980000c0eb0016f1b70004003700cd
:108040001e00e000020034000000eb0040808800c9
:1080500030b38000508088003e009000608088002f
:1080600016d1bf00e14f50000c003a003e009000d6
:108070000000e000030034000000eb00300798002f
:10808000140037003e0090000000e00011003d00a9
:108090000040eb0016f1b7000e00370016d1bf000c
:1080a000e14f40000b003a003e0090000000e0006d
:1080b00003003d000000eb0030079800050037008a
:1080c0003e0090000000e000020034000040eb00a1
:1080d00016f1b7003e0090000080fa000000060094
:1080e0000600fa000000eb0020079800c0fe2f00f9
:1080f000d0b288000000eb00000f780010003700bd
:108100000000eb001007980009003700defe0700b2
:10811000200798002e009000f1fc0700a00020002e
:1081200036e307001e0090000000e80010079800ea
:108130001e009000e90f5000f4ff36001e0fe8000b
:10814000d00120009e0f1000edff3600e9ff370040
:108150000400fa000000eb00100798000000eb009c
:10816000000f7800c0b280001007980031c0b30043
:1081700020c0b300bafd0700000f7800b080800077
:108180000000e800b0808800b0808000a2002000dd
:10819000110009000280d8008000fd000000e0000e
:1081a00039003a001e0090000000e00018003d0079
:1081b000c18080001e00780053000700e50f5000ca
:1081c000030034000000eb008080880006003700c8
:1081d000908080000000e00003003d00808080006f
:1081e0000000e8008080880080808000e50f50005b
:1081f000210036000000eb001007980000c0eb00e3
:1082000014f0b7000000eb00808088001a003700ef
:108210001e0090000000e00017003400c1808000c4
:108220001e00780038000700e50f400003003d0005
:108230000000eb00808088000600370090808000fe
:108240000000e00003003400808080000000e800af
:108250008080880080808000e50f50000600360096
:108260000000eb001007980010c0b30014f0b70036
:108270000000eb00808088001e007800c08088002d
:108280001e0090009080880014d0bf00e14f500085
:108290000c003a001e0090000000e00003003400d3
:1082a0000000eb0010079800140037001e0090003b
:1082b0000000e00011003d000040eb0014f0b700aa
:1082c0000e00370014d0bf00e14f40000b003a0011
:1082d0001e0090000000e00003003d000000eb00e5
:1082e00010079800050037001e0090000000e00015
:1082f000020034000040eb0014f0b7001e009000b4
:108300000080fa00000006000600fa00100798003e
:10831000210798000000eb00000f78009e009000fd
:108320002e009000008f5000400b20009e0f100088
:108330000300340080e92f001e0f400005003700c5
:10834000c0f42f009e0f100002003d008016200098
:108350001e0f40001e0078000080fa00000006009a
:108360000200fa001ed1bf000004e0002a00320023
:108370000040eb001ef1b70091c0b300c004210023
:108380008efb07000004e000230032004fd0bf0046
:10839000e14f400006003a0050d0bf00e14f4000de
:1083a00003003a000080eb000089880007003700d6
:1083b0004fd0bf000080fb00c800dd0050d0bf00e0
:1083c0000080fb00008040000089880051d0bf0081
:1083d000e14f400006003a0052d0bf00e14f40009c
:1083e00003003a000080eb00108988000700370086
:1083f00051d0bf000080fb00c800dd0052d0bf009c
:108400000080fb00008040001089880010002000e0
:10841000000f7800020037000000eb00000f78002a
:108420001e0078000080fa00000006000000fa003c
:10843000881f7800caff07005888800031c0b30049
:1084400020c0b30006fd070012c0b300880078000a
:10845000d1fc070010b38800817f80000089800074
:1084600012c0b300ccfc0700e0b28800717f80002e
:108470001089800000c1eb00c7fc0700f0b2880043
:10848000687f800011c0b3000040eb00f4fc0700df
:1084900000c1eb0088007800bffc070000b3880033
:1084a0004f0478000080fa00000006000c00fa007b
:1084b000881f7800030f0700000000000000eb0099
:1084c000000f7800090037001e0478001e007800b5
:1084d000ac0f0700804078000e80e80000004400e8
:1084e00001487800000000001e0fe8008000200016
:1084f0009e0f1000f4ff36000e80e80080489000c8
:10850000a0cab30080cf500024003a000e80e800db
:10851000104078000080fb00c800dd000e80e800fd
:10852000104090000080fb0000804000807f8800a9
:108530000e80e800204090000080fb00c800dd00b5
:108540000e80e800304090000080fb00008040007a
:10855000707f88000e80e800404090000080fb00a3
:10856000c800dd000e80e800504090000080fb0055
:1085700000804000607f88000e80e800604090002e
:108580000080fb00c800dd000e80e8007040900015
:108590000080fb0000804000508888004f04780075
:1085a0000080fa00000006000200fa009560a900b1
:1085b00080bb200011e207004001200090b288003b
:1085c0003a000700c0fe2f0090b288003700070075
:1085d0000000eb0090b2880040012000a0b28800ab
:1085e00032000700c0fe2f00a0b288002f00070055
:1085f0000000eb00a0b2880040012000b0b288006b
:108600002a000700c0fe2f00b0b288002700070034
:108610000000eb00b0b288002400070040012000f9
:10862000c0b288000000eb00000f780006003700a1
:108630000060fe000000eb00a9fb0700a000200086
:10864000eee107001e0fe800d00120009e0f100091
:10865000f7ff3600c0fe2f00c0b288000000eb001c
:108660009ffb070040062000e4e107000000eb004c
:10867000000f7800060037000060fe000000eb00ed
:1086800097fb0700a0002000dce107001e0fe800b8
:10869000d00120009e0f1000f7ff36000000eb0015
:1086a000c3f907000060fe00feff37000200fa0079
:1086b0000000eb00000f78000e003700dcc2a800bd
:1086c0000060fe00fdfa07001cd1bf000004e000be
:1086d000fdff3a0023c2bf00614060000004e000db
:1086e000fcff3200dcc2a90040062000c3e1070005
:1086f0001e0fe800200020009e0f1000efff360044
:108700000080fa00000006000e00fa00881f7800c2
:108710000040eb00004f7800581807000060fe0092
:1087200042ff0700e5fa07001cd1bf000004e0008b
:10873000fdff3a0023c2bf00614060000004e0007a
:10874000fcff3200dcc2a9002222a900e1b28000b5
:1087500000002b00771a070040012000a7e1070066
:10876000f1b2800050012b00721a07004001200076
:10877000a2e1070001b38000a0022b006d1a0700e0
:10878000400120009de1070011b38000f0032b00a1
:10879000681a07004001200098e107000060fe0011
:1087a000817f800040052b00621a070040012000f5
:1087b00092e10700717f800090062b005d1a070090
:1087c000400120008de10700617f8000e0072b0061
:1087d000581a07004001200088e1070051888000f6
:1087e00030092b00531a07004001200083e10700e5
:1087f0000000eb0010079800500037000060fe00fa
:108800001e0490001e009000de0e070080407800dd
:1088100064004700000044000148780000000000a8
:108820000040eb00004f780040988000610060003d
:108830000000e0000200320000c8b3001e4f7000cc
:1088400040988000620060000000e00002003200fa
:1088500000c4b3001e4f70004098800064006000a8
:108860000000e0000200320000c2b3001e4f7000a2
:1088700040988000680060000000e00001003200c5
:108880001e44a00040988000700060000000e000de
:10889000010032001e34a000409880000102200038
:1088a000010060000000e000010032001e24a00072
:1088b0004098800001042000010060000000e000fa
:1088c000010032001e14a000409880000108200022
:1088d000010060000000e000010032001e04a00062
:1088e0009e009000800a2b00121a07004001200011
:1088f00042e107009e80fb00d00b2b003c180700d4
:10890000400120003de107000060fe009e00900055
:108910006400470000804000104078008080fb0029
:10892000200d2b00031a07004001200033e107004f
:108930001e0090000000e800100798001e00900044
:10894000e80f5000adff36000000eb001007980064
:10895000060037000060fe004006200027e1070007
:108960001e0090000000e800100798001e00900014
:10897000f30f5000f7ff360061c0b300700e2b00fc
:10898000a31a0700400120001ce1070063ff370025
:108990000200fa009ec0a900f00f20007024880099
:1089a000f00f20005024880020002000302588008f
:1089b0000000eb00402588008644a900f009200053
:1089c00080248800f0092000602488008804a80022
:1089d000002021004800de00c02488009424a80064
:1089e0000000eb00b02488000000eb006025880048
:1089f0009424a9000040eb00004f780007003700e6
:108a00001e80fb00c200dd0000202100008140002c
:108a10006000b8000089be001e4fe80070c0b300bf
:108a20009e4f1000f6ff3600d00020005025880031
:108a30000200370080002000502488008ac4bf0054
:108a4000684060000004e000faff3a000040eb00dc
:108a500084f2b7000040eb008ff2b70090d2bf0065
:108a60006040600090f2b70091d2bf0060406000ab
:108a700091f2b70094a4a9000040eb00004f7800e9
:108a80000d0037001e80fb008000400040292100bf
:108a9000808040000000eb00800878001e80fb0012
:108aa00080004000e0292100808040000000eb00b1
:108ab000800878001e4fe80010c0b3009e4f1000e1
:108ac000f0ff360080202100a09488000040eb00d9
:108ad0008cf2b7000000eb00509488000080fa0090
:108ae000000006003600f800809fbe00829fbe0096
:108af000849fbe00869fbe003400f8000000200066
:108b0000a00188000200fa0050948000e10f50009c
:108b10000a003a0094c4bf000044b2000004e00020
:108b200006003a00f00f2000502488008c04a800b2
:108b30008c84a800200020005094880080c4bf00ce
:108b4000704060000004e0000700320082c4bf00f3
:108b5000704060000004e0000300320000012000cb
:108b600000248800a200070088c4bf0062406000a3
:108b70000004e000020032008ec0a900730037003c
:108b80008ac4bf00614060000004e00018003200a9
:108b90008cc4bf00614060000004e000140032009b
:108ba0007bff07009ec0a800400020005094880072
:108bb000e02a21001090880080c0b30000f2b700c6
:108bc000112021009140780030c0b30000c0600047
:108bd00001f2b7001120210091407800c0c8b30015
:108be00000c0700001f2b70010002000502488007f
:108bf0008ac4bf00704060000004e000070032003b
:108c00008cc4bf00704060000004e000030032002c
:108c10006d00070000012000502488008ac4bf00b6
:108c2000644060000004e0000a0032008cc4bf0011
:108c3000644060000004e0000600320012002000e2
:108c40008000eb0030072000772007004000200064
:108c5000502488008ac4bf0001c8b30001406000ee
:108c60000004e000060032008cc4bf0001c8b3005d
:108c7000014060000004e000010032003b000700fa
:108c80008ac4bf00624060000004e0000a003200b5
:108c90008cc4bf00624060000004e00006003200a7
:108ca000120020008000eb00f0ff27005e2007008c
:108cb000f00f20007024880050948000e30f5000d3
:108cc00002003e008ec0a900200037008cc4bf0007
:108cd000684060000004e0001b0032000040eb0030
:108ce000004f7800150037008ac4bf00684060005c
:108cf0000004e0001400320090248000a6f2b700c7
:108d00008000200050248800a6d2bf008080fb0095
:108d1000000f2000008060000000e00002003a0028
:108d20003d00070004003700612a21000001eb002c
:108d3000200720003c2007001e4fe80030c0b30091
:108d40009e4f1000e8ff36008ec0a9000080fa0098
:108d50003400f9004f03be004f02be004f01be00b9
:108d60004f00be003600f900004006000000fa0087
:108d7000aac4bf00624060000004e0000e003200a0
:108d8000d09480009040900000c8b30080cf500085
:108d900008003a00a09480009040900040c8b300c2
:108da00080cf500003003a00d1948000c0c8b300c7
:108db00090409800aa24a9000008200050248800b0
:108dc0000080fa00000006000000fa008284a8007b
:108dd00000012000502488000001eb008000eb001f
:108de00050072000102007000080fa000000060055
:108df0000000fa000001eb008000eb0040072000bb
:108e0000092007008284a9000001200000248800b6
:108e10000080fa00000006000200fa00a6d2bf009f
:108e20008080fb00b0ff2f00008060000000e000a9
:108e300035003a00a6d2bf008080fb00c00f2000a2
:108e4000008060004280de004200dd00800078008b
:108e50000020210000804000d0948800d094800041
:108e6000e0948800c1292100c02921001040780029
:108e70000024a20080487800d09480001040900028
:108e8000c2c3b3008240600040c3b30080cf500033
:108e90001b003a00d094800090009000602b2100cd
:108ea000808f500014003a00d1948000e02a210005
:108eb000900098000040eb00004f78000b00370056
:108ec0001e80fb0080007800e02a21000081400025
:108ed0001e80fb0080007800602b21000080400095
:108ee00010407800004978001e4fe80070c0b300c1
:108ef0009e4f1000f2ff36000c00070009003700fb
:108f00002800070007003700a6d2bf008080fb00c2
:108f1000b0ff2f0000806000e80f500001003a0011
:108f2000380007000080fa00000006000000fa0088
:108f3000a09480009040900000c8b30000c0600082
:108f40000004e00003003200a19480000040eb0028
:108f5000904098000040eb00a2f2b7000040eb0008
:108f6000a3f2b70085d2bf006040600085f2b70071
:108f700086d2bf006040600086f2b7000040eb0080
:108f800084f2b700780007000001eb008000eb00de
:108f900030002000a41f07000e0207000080fa0026
:108fa000000006000000fa00a3d2bf00e24f50000c
:108fb00002003a00110307001000370046000700c6
:108fc000409580000000e0000a003a00e194800033
:108fd00080c0b30080487800e1948000e02a21003e
:108fe00090009800e1948000c0c8b30090409800c1
:108ff000020037000000eb00409588000080fa0076
:10900000000006000200fa00a094800010409000ca
:109010000080fb004600de0061406000004f7800e9
:109020004129210040292100104078000024a2009d
:109030008048780050948000e80f50000b003a0000
:10904000b0d2bf000080fb00b0248800b0248000b4
:109050000000e0000300320000012000509488006e
:10906000020037004000200050948800a3d2bf00c7
:10907000e14f500015003a00a1948000602b2100c0
:10908000900098005c020700a2d2bf00e24f50009f
:1090900004003a00a194800040c8b30090409800ba
:1090a0000b0037001e04e00004003a00a194800089
:1090b00080ccb3009040980005003700a194800058
:1090c00080c8b300904098000100370002000700fc
:1090d0000080fa00000006000200fa000040eb00e9
:1090e000a3f2b700a19480000040eb0090409800ec
:1090f000a09480000020a200000f78009e0078005d
:109100000040eb0090409800f12821009140780049
:1091100000c8b30000c060000004e000100032008e
:1091200092d2bf008080fb0093d2bf000080fb0082
:109130004800dd00010070000000e0000700320080
:1091400092d2bf008080fb0093d2bf000080fb0062
:109150004800dd0001007000000001008ff2a9004e
:109160000080fa00000006000400fa00aed2bf0042
:109170000046b2000004e00058003a00afd2bf0041
:109180000080fb006101b900028fbe00b00020002a
:10919000010020001e01be00800f5100818f590088
:1091a0004e003e001e00be0000600100240037009b
:1091b00025003700490037002300370047003700fb
:1091c0000600370009003700400037000b00370069
:1091d000080037001e0037003300370084f2a80073
:1091e00080002000509488003c003700a400070055
:1091f0003a0037000003070038003700c22821007a
:10920000f00f20008000610082d2bf00604060004b
:109210000140700082f2b700c810de0083d2bf00a8
:10922000604060000140700083f2b7008412a80023
:1092300010c0b30085f2b70084f2a8002700370001
:109240000e01070025003700260007002300370025
:10925000b2d2bf000080fb0080007800802921008e
:109260000080400000017800f00f200080006100c5
:1092700082d2bf00604060000140700082f2b700ff
:10928000c810de0083d2bf00604060000140700063
:1092900083f2b7008412a80010c0b30085f2b700b3
:1092a00084f2a8000d00370084f2a800b2d2bf00fb
:1092b0008080fb00022b21001241780080292100d0
:1092c0000080400002487800040037000001eb00f5
:1092d0008000eb0020002000d31e07000080fa0071
:1092e000000006000400fa00b0d2bf00e14f5000b9
:1092f0000d003a00aed2bf007f4060000004e000e5
:1093000009003a0084f2a800afd2bf00e34f50003a
:1093100003003a001000200040948800020037004b
:109320000000eb0040948800b0d2bf000004e000d1
:1093300051003a00aed2bf007f406000e24f5000c3
:109340004d003a00b2d2bf006f4060000004e00060
:109350004900320084f2a800b2d2bf0001c8b300b5
:10936000014060000004e00009003a00b2d2bf00f2
:109370006f4060000080fb0080004000e029210079
:1093800000804000100078001007980008003700a7
:10939000b2d2bf006f4060000080fb008000400040
:1093a000402921000080400010007800100798003c
:1093b000afd2bf00e34f500004003a009e0090007f
:1093c00040c8b300904098002b003700b2d2bf00d5
:1093d0006f4060000080fb000000400080007800cb
:1093e000a04a200000804000000f78001e00780096
:1093f00090407800d0cfb30080c060001e0078009d
:1094000001487800212b21009140780000c8b3006a
:1094100000c060000004e0000c0032009e009000dc
:109420000040eb00904098008e80e8000e80e8003d
:10943000104078000024a200804878009e00900030
:1094400000c4b300904098000b0037009e009000cd
:1094500080c8b300904098008e80e8000e80e8003d
:10946000104078000024a200804878009e00900000
:1094700080ccb300904098000080fa000000060005
:109480000200fa00e12a21009140780000c8b300f0
:1094900080cf500077003a0000ccb30084f2b700d0
:1094a000b1d2bf000080fb00000f78001e007800e2
:1094b000e20f50001b0032001e007800e30f500046
:1094c0003e0032001e007800e10f50000100320023
:1094d00066003700222e2100f00f2000800061007e
:1094e00082d2bf00604060000140700082f2b7008d
:1094f000c810de0083d2bf006040600001407000f1
:1095000083f2b70085d2bf00604060002041b30005
:1095100085f2b70086d2bf006040600086f2b700d7
:1095200054003700b0d2bf000080fb0000004000b4
:109530008000780080152b0000804000100178002a
:10954000f00f20008000610082d2bf006040600008
:109550000140700082f2b700c810de0083d2bf0065
:10956000604060000140700083f2b70082d2bf000b
:109570008080fb0083d2bf000080fb004800dd003c
:10958000010070000080e80010017800f00f20005a
:109590008000610085d2bf00604060000140700023
:1095a00085f2b700c810de0086d2bf0060406000c0
:1095b0000140700086f2b7002e003700b0d2bf0025
:1095c000e24f500026003e00b0d2bf000080fb00fa
:1095d0000000400080007800a0152b0000804000b3
:1095e00010017800f00f20008000610082d2bf00df
:1095f000604060000140700082f2b700c810de00d9
:1096000083d2bf00604060000140700083f2b70069
:1096100082d2bf008080fb0083d2bf000080fb00ad
:109620004800dd0001007000104078000081fb0060
:10963000f00f20008000610085d2bf006040600014
:109640000140700085f2b700c810de0086d2bf006e
:10965000604060000140700086f2b70005003700ee
:109660000040eb0084f2b700020037000040eb003e
:1096700084f2b7000080fa00000006000400fa003f
:109680000040eb00b6f2b7000040eb00b7f2b700c5
:10969000aed2bf007f4060000080fb001007980042
:1096a0001e009000e10f5000120032001e009000da
:1096b000e20f5000110032001e0090000000e00098
:1096c000010032002d00370084f2a800b6d2bf009e
:1096d0000004a000b6f2b70040948000e10f5000f3
:1096e00026003a00b6d2bf000014a000b6f2b700c0
:1096f0002200370084f2a8002000370084f2a8007e
:10970000b2d2bf0001c8b300014060000004e00015
:1097100009003a00b2d2bf006f4060000080fb0039
:1097200080004000e0292100008040001000780007
:10973000000f780008003700b2d2bf006f40600011
:109740000080fb0080004000402921000080400094
:1097500010007800000f78001e0078001040900084
:109760000080fb004200de00610060000004e000b9
:109770000200320010c0b300b6f2b70084d2bf00be
:1097800001c8b300014060000004e0000f00320097
:10979000622b2100f00f20008000610082d2bf0008
:1097a000604060000140700082f2b700c810de0027
:1097b00083d2bf00604060000140700083f2b700b8
:1097c0008412a80020c0b30085f2b7000080fa0020
:1097d000000006000000fa0094a4a90084d2bf0093
:1097e00001c8b300014060000004e00024003a001a
:1097f0008fd2bf0001c8b300014060000004e00048
:109800001200320020c0b300a3f2b700a194800080
:109810000040eb0080487800a194800080ccb30029
:1098200090409800e194800080c0b30080487800a8
:10983000e1948000602b210090009800e19480006a
:1098400080ccb3009040980069003700e19480001c
:1098500080c0b30080487800e1948000e02a2100b5
:1098600090009800e1948000c0c8b3009040980038
:10987000a194800040c8b300904098005c0037007d
:109880008fd2bf0001c8b300014060000004e000b7
:1098900057003a00aed2bf0001c8b30001406000db
:1098a0000004e00041003200b4d2bf008080fb0021
:1098b000b5d2bf000080fb004800dd000100700051
:1098c0000001780085d2bf008080fb0086d2bf00f7
:1098d0000080fb004800dd0001007000800f510097
:1098e00012003100b4d2bf008080fb00b5d2bf00af
:1098f0000080fb004800dd000100700000017800de
:10990000f00f20008000610085d2bf006040600041
:109910000140700085f2b700c810de0086d2bf009b
:10992000604060000140700086f2b700320007001e
:1099300010c0b300a3f2b700e194800080c0b30070
:1099400080487800e1948000e02a2100900098008f
:10995000e194800000c8b300904098000000eb0044
:1099600040958800d194800080c0b3008048780082
:10997000d1948000e02a210090009800d1948000ca
:1099800040c8b30090409800100020004095880027
:10999000a1948000602b210090009800a194800089
:1099a00080ccb300904098001100370020c0b30075
:1099b000a3f2b700a19480000040eb00804878003b
:1099c000a194800080ccb30090409800e194800086
:1099d00080c0b30080487800e1948000602b2100b3
:1099e00090009800e194800080ccb30090409800f3
:1099f0000080fa00000006000200fa0085d2bf00d5
:109a00008080fb0086d2bf000080fb004800dd00a4
:109a100001007000e70f500013003e0085d2bf0028
:109a20008080fb0086d2bf000080fb004800dd0084
:109a300001007000000f7800a2d2bf000004e00017
:109a400003003a0010c0b300a2f2b70008003700cc
:109a5000a2d2bf00e14f500005003a0020c0b30081
:109a6000a2f2b7000200370080002000000f78004b
:109a7000a2948000a0948000904090001e4090002e
:109a800000c0700010419800a19480001e40780032
:109a90008048780085d2bf008080fb0086d2bf005e
:109aa0000080fb004800dd000100700080007800ad
:109ab0001e00780000815000f00f2000800061003f
:109ac00085d2bf00604060000140700085f2b700a1
:109ad000c810de0086d2bf00604060000140700008
:109ae00086f2b700602b21002095880084d2bf0049
:109af000614060000004e0003b003a001b003700ba
:109b00002295800082d2bf008080fb0083d2bf00fc
:109b10000080fb004800dd0001007000800078003c
:109b200011407800004978000200e8002095880084
:109b30000101e800f00f20008000610082d2bf0028
:109b4000604060000140700082f2b700c810de0083
:109b500083d2bf00604060000140700083f2b70014
:109b60001e0078000000e900000f78001e00780059
:109b70000000e000e2ff3a001e003700229580005e
:109b800082d2bf008080fb0083d2bf000080fb0038
:109b90004800dd000100700080007800114078006e
:109ba000004978000200e800209588000101e800e3
:109bb000f00f20008000610082d2bf006040600092
:109bc0000140700082f2b700c810de0083d2bf00ef
:109bd000604060000140700083f2b7001e00780012
:109be0000000e900000f78001e0078000000e0008f
:109bf000e2ff3a000080fa00000006000200fa00ce
:109c0000d094800090407800114798001e4090004a
:109c10000081fb0090d2bf008080fb0091d2bf008a
:109c20000080fb004800dd0001007000800f510043
:109c30000700360090d2bf008080fb0091d2bf00a9
:109c40000080fb004800dd00010070001047980014
:109c500090d2bf008080fb0091d2bf000080fb004b
:109c60004800dd0001007000800078001e40900078
:109c70000080fb0000815000f00f20008000610098
:109c800090d2bf00604060000140700090f2b700c9
:109c9000c810de0091d2bf0060406000014070003b
:109ca00091f2b7000040eb00004f78001900370038
:109cb0008dd2bf008080fb008ed2bf000080fb00f1
:109cc0004800dd0001007000000178009e80fb006c
:109cd000602b21000080400010407800004978008f
:109ce0000201e800f00f2000800061008dd2bf006b
:109cf00060406000014070008df2b700c810de00c7
:109d00008ed2bf0060406000014070008ef2b7004c
:109d10001e4fe8001e4090009e4f1000e4ff3900e7
:109d200090d2bf008080fb0091d2bf000080fb007a
:109d30004800dd00010070000000e0001300320068
:109d4000e194800080c0b30080487800e1948000f6
:109d5000602b210090009800d0948000104090006b
:109d60000044b2000004e00004003a00e1948000e6
:109d700080ccb300904098001d003700e194800033
:109d800080c8b3009040980019003700e19480002b
:109d900080c0b30080487800e1948000e02a210070
:109da00090009800e194800040c8b3009040980073
:109db00092d2bf008080fb0093d2bf000080fb00e6
:109dc0004800dd00010070000000e00007003200e4
:109dd00092d2bf008080fb0093d2bf000080fb00c6
:109de0004800dd0001007000000001008ff2a900b2
:109df0000080fa00000006000200fa0084f2a800c9
:109e00000000eb00602588000040eb00004f780068
:109e1000070037001e80fb00c200dd00002021008b
:109e2000008140006000b8000089be001e4fe800bd
:109e300070c0b3009e4f1000f6ff36009424a800b7
:109e40000040eb0098f2b7009424a9008020210084
:109e5000a094880000202100d0948800d094800035
:109e6000e0948800b0d2bf008cf2b7008cd2bf0063
:109e70000004e00003003a00000120005094880034
:109e80000600370012002000c12821001000200029
:109e9000e51b070000022000509488000080fa00b3
:109ea000000006000400fa0020479800314798009f
:109eb00000202100000f78002e4090000080fb0061
:109ec00000004000800078003e4090000080fb00d1
:109ed000008040004300dd004200de004200dd0063
:109ee0001e0f40009e007800114090000074a100f9
:109ef000904098003e4090000004e00007003a00c7
:109f00002e4090000080fb0080004000e0292100ee
:109f1000008040001e087800060037002e409000a8
:109f20000080fb00800040004029210000804000ac
:109f30001e0878001e01780092409000f0cbb3001c
:109f400000c06000104198001e00780064014000cd
:109f50009240900000c4b30000c07000104198000f
:109f60000080fa00000006000400fa002047980074
:109f7000314798002e4090000080fb000000400018
:109f800080007800a04a200000804000000f780088
:109f90001e007800be409000014878003e409000ce
:109fa0000080fb004300de00610060000004e00070
:109fb000030032008040eb002e409000b9ff070004
:109fc0003e4090000080fb004200de006100600027
:109fd0000004e0000300320011c0b3002e409000e6
:109fe000b0ff07000080fa00000006000400fa003d
:109ff00020479800314798002e4090000004e00070
:10a000000d003a00e194800080c0b30080487800e1
:10a01000e1948000e02a210090009800e194800003
:10a02000c0c8b30090409800a194800040c8b3001d
:10a0300090409800230037002e4090000080fb00e5
:10a0400000004000800078003e4090000080fb004f
:10a05000008040004300dd008000780000202100e7
:10a0600000804000000f78001e00780090409000b3
:10a0700040c8b30080c070001e00780011409800f6
:10a080002e4090000080fb0000004000800078001f
:10a090003e4090000080fb00008040004300dd0057
:10a0a0008000780040202100008f40001e007800d2
:10a0b0009040900040c8b30080c070001e0078003f
:10a0c000114098000080fa00000006000a00fa0023
:10a0d000204798003147980022079800634798006e
:10a0e0003e4090000004e000070032002e40900047
:10a0f0000080fb00800040004029210000804000db
:10a10000100f7800060037002e4090000080fb0002
:10a1100080004000e029210000804000100f7800fe
:10a120001e00e00003003a000000eb00400798002a
:10a13000390037002e009000800078001e00780063
:10a14000110098001e007800ee4090000148780051
:10a150001e0078001040900002c4b30082406000ee
:10a160001e007800114098001e007800904090007a
:10a1700080c8b30080c070001e00780011409800b5
:10a180003e4090000004e000110032002e4090009c
:10a190000080fb0000004000800078004029210082
:10a1a00000804000000178002e4090000080fb00fd
:10a1b000000040008000780040292100008040001d
:10a1c000104078000024a2000049780010003700f9
:10a1d0002e4090000080fb000000400080007800ce
:10a1e000e029210000804000000178002e4090000e
:10a1f0000080fb000000400080007800e029210082
:10a2000000804000104078000024a200004978003f
:10a210001e007800400798004e0090000080fa0071
:10a22000000006000600fa00004f780094c4bf004a
:10a230000042b2000004e0005f0032001e80fb001c
:10a240008000400040292100008040001003780079
:10a250001e80fb008000400040292100008040005b
:10a26000100078001000be0002042000030020004f
:10a2700000027800810278000200780083007800f4
:10a2800000016200018062006102b80014079800ba
:10a29000250798001e009000ae009000c000dd0071
:10a2a0000000200010079800210798001e00900071
:10a2b000ae0090006112b8001407980025079800be
:10a2c0001e019000ae0190000200700083807000bb
:10a2d000008bbe001e80fb00800040004029210052
:10a2e00000804000100278001e80fb0080004000cb
:10a2f0004029210000804000100078001001be00bd
:10a300000004200001002000000069008180690035
:10a31000008abe001e80fb00000040008000780024
:10a320004029210000804000000178001e80fb00d1
:10a33000000040008000780040292100008040009b
:10a34000104078000024a200004978001e80fb0025
:10a35000800040004029210000804000100178006a
:10a360001e80fb008000400040292100008040004a
:10a3700010007800104090000044b2001041980096
:10a380001e80fb008000400040292100008040002a
:10a39000100178001e80fb00800040004029210051
:10a3a00000804000100078009040900000c4b3008e
:10a3b00000c06800104198000080fa00000006000c
:10a3c0000000fa000000eb00a02488000000eb0071
:10a3d000602488000000eb00509488000080fa00a0
:10a3e000000006000000fa00509480000000e00029
:10a3f00016003a000000eb00a02488000000eb00eb
:10a400006024880020002000302588000000eb0038
:10a41000402588008644a900f00920008024880097
:10a42000f0092000602488009ec0a80001003700c9
:10a430009404a80094c4bf00614060000004e000e0
:10a44000fbff320010002000509488000080fa00ca
:10a45000000006005400fa0020cf98006127980001
:10a4600072279800032f980030c2b30010cf9800d5
:10a470007e2090000000e000030032000e289000d3
:10a480000000e00003003a0010fd2f00102f98009c
:10a490003b0037000e00e80052022000f1142100ba
:10a4a00033da07000e00e800aec8900021409800a3
:10a4b0006e209000c800de004801dd00010171003f
:10a4c0008e00e800f00f2000800161003140900014
:10a4d0006040600003407000b04098004811de000a
:10a4e000414090006040600002407000c040980011
:10a4f0000e00e8006500400002022000fe209000ef
:10a500001bda0700610220008e80400090042000ca
:10a510000e0040008e02e8000002780033c0b30055
:10a520001200200005007800b8170700004f7800df
:10a530001e04e000030032001e00fb00102f9800f4
:10a540000f0037009ec8900030c2b30080cf50008b
:10a550000300320021ff2f00112f98000800370060
:10a56000600220000e0040008000e800020220008f
:10a570000e289000fed907001e00fb00102f980047
:10a580001e2890000080fa00000006001600fa0065
:10a59000604f9800010f9800120f980070c0b30030
:10a5a000504f980000ceb300004f78001e08900076
:10a5b0000000e00003003a0010fd2f00200f98007b
:10a5c0003500370068004700520020006113210069
:10a5d000e7d9070068004700ee4890002140980046
:10a5e000680147008e089000f00f20000080600096
:10a5f000c801dd0092009000f00f20000080600094
:10a6000003007000100198000e089000c800de00e2
:10a61000f00f200080816000a200900000f02f0069
:10a620000080600003007000200198008e00e800a8
:10a630006d004700e80247000002780033c0b30015
:10a64000220020000500780070170700004f7800f6
:10a650001e04e000030032001e00fb00200f9800e3
:10a660000d0037005e489000e74f500003003200b5
:10a6700021ff2f00210f9800070037001e089000cf
:10a680008e00e8008100e80042002000b8d90700f1
:10a690001e00fb00200f98002e0890000080fa009a
:10a6a000000006000e00fa005007980070c0b300ca
:10a6b000004f98005e0090000000e00003003a00a8
:10a6c00010fd2f00600798001a0037008e00e80088
:10a6d000680047000002780033c0b3002200200069
:10a6e0000014210049170700004f78001e04e00005
:10a6f000030032001e00fb00600798000d003700c9
:10a700000e489000e74f50000300320020ff2f005a
:10a7100060079800070037005e0090008e00e80098
:10a720008100e8003200200091d907001e00fb00e4
:10a73000600798006e0090000080fa00000006009c
:10a740000e00fa005007980070c0b300004f980048
:10a750005e0090000000e00003003a0010fd2f00b2
:10a7600060079800190037008e00e8006800470075
:10a770000002780033c0b30022002000a0142100a2
:10a7800022170700004f78001e04e000030032008b
:10a790001e00fb00600798000c0037000e48900078
:10a7a000e74f50000300320020ff2f0060079800a1
:10a7b000060037000e00e800c04090005e009000e8
:10a7c000014878001e00fb00600798006e009000b2
:10a7d0000080fa00000006000e00fa005007980002
:10a7e00070c0b300004f98005e0090000000e000d1
:10a7f00003003a0010fd2f00600798001a00370090
:10a800008e00e800680047000002780033c0b30003
:10a8100022002000b0132100fc160700004f780032
:10a820001e04e000030032001e00fb0060079800d9
:10a830000d0037000e489000e74f50000300320033
:10a8400020ff2f0060079800070037005e0090008f
:10a850008e00e8008100e8004200200044d9070093
:10a860001e00fb00600798006e0090000080fa0058
:10a87000000006000e00fa005007980070c0b300f8
:10a88000004f98005e0090000000e00003003a00d6
:10a8900010fd2f0060079800470037008e00e80089
:10a8a000680047000002780033c0b3002200200097
:10a8b00060132100d5160700004f78001e04e00049
:10a8c000030032001e00fb00600798003a003700ca
:10a8d0000e489000e74f50000300320020ff2f0089
:10a8e0006007980034003700de0190000e00e80099
:10a8f0008000e80022002000030078001cd9070037
:10a900000e00e8008040eb00014878000000e800fd
:10a910008040eb00014878000000e8008040eb0038
:10a92000014878000000e8008040eb000148780012
:10a930000000e8008040eb00014878000000e800db
:10a940008040eb00014878000000e8008040eb0008
:10a95000014878008e00e800680047000002780097
:10a9600033c0b3002200200000142100a716070006
:10a97000004f78001e04e000030032001e00fb00c0
:10a98000600798000c0037000e489000e74f500019
:10a990000300320020ff2f006007980006003700f8
:10a9a0000e00e800c04090005e009000214098003a
:10a9b0001e00fb00600798006e0090000080fa0007
:10a9c000000006000e00fa005007980070c0b300a7
:10a9d000004f98005e0090000000e00003003a0085
:10a9e00010fd2f00600798005e0037000e00e800a1
:10a9f0008040eb00014878000000e8008040eb0058
:10aa0000014878000000e8008040eb000148780031
:10aa10000000e8008040eb00014878000000e800fa
:10aa20008040eb00014878000000e8008040eb0027
:10aa3000014878000000e8008040eb000148780001
:10aa40008e00e800680047000002780033c0b300c1
:10aa500022002000601321006c160700004f7800d0
:10aa60001e04e000030032001e00fb006007980097
:10aa70003c0037000e489000e74f500003003200c2
:10aa800020ff2f0060079800360037000e00e80016
:10aa9000e30040005e00900022002000b4d80700d0
:10aaa0000e00e8008040eb00014878000000e8005c
:10aab0008040eb00014878000000e8008040eb0097
:10aac000014878000000e8008040eb000148780071
:10aad0000000e8008040eb00014878000000e8003a
:10aae0008040eb00014878000000e8008040eb0067
:10aaf000014878008e00e8006800470000027800f6
:10ab000033c0b30022002000501421003f1607007c
:10ab1000004f78001e04e000030032001e00fb001e
:10ab2000600798000f0037000e489000e74f500074
:10ab30000300320020ff2f00600798000900370053
:10ab40005e0090008081e8000e00e8008000e800d0
:10ab5000420020000300780085d807001e00fb009b
:10ab6000600798006e0090000080fa000000060068
:10ab70001200fa00404f980040c0b300204f9800e8
:10ab800065004700520020009118210078d8070086
:10ab900065004700ce48900021409800e50047003e
:10aba0000040eb00c0409800e50047000040eb008b
:10abb000b04098008e00e8006a004700e5024700b8
:10abc0000002780033c0b300320020000500780096
:10abd0000e160700004f78001e04e000030032004c
:10abe0001e00fb00000f98000b0037000e00e8006d
:10abf000104090000004e0000300320021fd2f000f
:10ac000071079800020037000000eb007007980001
:10ac1000fe009000010f98000e0890000080fa00de
:10ac2000000006002400fa00205f9800610f9800e1
:10ac300020c0b3001047980000ceb300004f78004a
:10ac400040c0b300605798006e0890000000e0001c
:10ac500003003a0010fd2f00101798003b0037004a
:10ac60000e80e80002012000e118210040d8070012
:10ac70002e589000e14060000e80e80021409800ce
:10ac80000e80e80065004000b2002000ee08900051
:10ac900037d8070020c0b300104798002e58900006
:10aca0000004e00003003a001e4090000004a000f1
:10acb00010479800770047003d1b070078004700c9
