:020000040000fa
:080000000002040000000000f2
:020000040000fa
:100400002fc62100207f240000018800000000008a
:100410000c00070060622500010020001f0007009b
:10042000000020000000e000020032000000020096
:1004300000000000ba660200000000000040da0080
:100440000000fe004440a900e00a20000000e00097
:100450000300320000002000a00188004440a800f2
:1004600000000600f03fb1000180b1000600350039
:10047000ee03090000000000403fb1000180b10020
:10048000fbff3d001000b000203fb000020035002f
:1004900000800900000000000000060091018800b3
:1004a000800078000000eb0015003700e28040007b
:1004b00032a0b4009101ba00e280400032a0b40042
:1004c0009102ba00e280400032a0b4000002eb00ca
:1004d000472bde00f507b200602ce10004003a0073
:1004e0000059eb008301e900fdff3e0004003700e6
:1004f0006128e100010032000082eb0004000700e7
:100500001101ba000200e000e8ff3a000000060016
:100510003159ba008301e9000c0032002159ba00b8
:100520008301e900080032000400e00003003a0003
:10053000e280400032a0b400f5ff370011d9ba00c4
:100540008301e900faff3a008100e800e180400001
:1005500032a0b400000006004e2b04000000000092
:10056000222b040000000000682b040000000000a3
:100570001a28040000000000a02804000000000069
:100580004029040000000000ce2904000000000003
:10059000f02b040000000000e82e04000000000022
:1005a000102f040000000000186904000000000083
:1005b000889fbe008a9fbe00010578000100e00010
:1005c0000400350008003c000000e000200032007c
:1005d0000500370060001000e080180002003b00ba
:1005e00001f02c001a0037000004be006011b800b2
:1005f0006b0920000982cf00020039000882cf0079
:100600000441b000694252000e00320008003b0075
:1006100082817100610164008904d1000884d300e3
:100620008b05e8000442e800f9ff3a0005003700b6
:100630000804440089844c008b05e9000442e90069
:10064000fbff3a000d0107000af0a70001f0a0002f
:100650004f05be004f04be000000060003f0a200dc
:10066000889fbe008a9fbe008c1f7800290107006a
:10067000300133006450e1004f0032006420e1009b
:100680005200320003826c0007003b000905d000d5
:100690000306d000820f54000c065d0002003900f2
:1006a0000200320089017800030678008582550037
:1006b00004003d000003fd008103fd008502ea0007
:1006c0008b854200840f720002003b006000100026
:1006d000e08018006011b8000005eb007a28e10006
:1006e0000a00390006007800c75ddd00f707b20098
:1006f000878075002d003700828171000a01780023
:10070000610560008180d1000080d3008502e9008e
:10071000f9ff3b00060440008784480002003b00cc
:1007200060041400e0841c000988a3000700320064
:100730008a81710082817100610164008904d100a5
:100740000884d3008b05e800170037000978a30060
:1007500013003a000b00e000130034008b05e900a1
:100760000804440089844c000a4474000978a300fa
:100770000d003a000b00e000070034008b05e90093
:100780000804440089844c0001003a000b0020005a
:100790000978a300f7ff32000001eb0002003700e8
:1007a000828171000a017800b40007000cf0a700f4
:1007b00001f0a000e80037006420e10002003a00e8
:1007c000838f6c00e80033000801be000200be0009
:1007d000e1003700889fbe008a9fbe008c1f780012
:1007e000cc000700d300330003866c006450e100a6
:1007f000240032006420e100270032006150e10053
:10080000220032006120e100210032008b8542008d
:10081000eb07b1000134b800003ab8000804420008
:1008200089844a00013ab8000030b800888040004e
:1008300009014a00040033000000400081804800a4
:10084000020149008b05e900c909dd008301700040
:100850000100320013002000c814de004814dd003f
:100860004709de001200b200c808de0008847000ec
:100870008200070001f0a1000cf0a70001f0a00029
:10088000b50037006120e100b70032000801be006a
:100890000200be00f7ff37006150e100fcff3a00a4
:1008a000b1003700889fbe008a9fbe008c1f780071
:1008b000980007009f00330003866c006450e1003d
:1008c0002e0032006420e100330032006150e1006c
:1008d0002f0032006120e100310032008585550093
:1008e000eb07b000090020000804200005003700d5
:1008f0000804440089844c000a00310006034300c8
:1009000087834b000001530081815b00f8ff3300b7
:100910000203be000800a0000804440089844c00c3
:10092000f6ff3900c639dd00830173000100320093
:10093000130020008904d1000884d3000998a30083
:10094000050032000800a7000300a0008904d100c0
:100950000884d3008b05e8008904d1000884d30003
:100960000001eb000281d2004400070001f0a10069
:100970000cf0a70001f0a000770037006420e10030
:10098000790032000801be000200be00f7ff370008
:100990006120e100740032006000b800f3ff37000e
:1009a0000000200001f82700f0ff3700839f680057
:1009b0000100e00002003d0060001000e08018002f
:1009c0000300e00002003d0060011100e081190019
:1009d000680007004f00e00002003b0060001000cc
:1009e000e080180000000600f4ff2f0071003700bf
:1009f000140020006f0037000001be0088000700cf
:100a00000470a70003f0a1006509b10016003200d0
:100a10000d0035006828e10006003500f0ff2f00ca
:100a2000f1ff27000300e00013003b000100280055
:100a30000000050000004000818048008502e900b8
:100a4000fcff3a0008003700f88f420002003c002b
:100a50008000eb00000005008100d1000080d30081
:100a60008502e800fcff3a000300e00002003b00c2
:100a700060001000e08018000000060081002000e7
:100a8000618055000b003d000b00200061fe2f002f
:100a90000100e1001d0034008281710061016400e9
:100aa0008904d1000884d3000000e800faff3a006e
:100ab000710020006100640003007000020060000b
:100ac0000900320061044400e0844c000988a5005c
:100ad000050032008b05e8006808e10002003a00da
:100ae0008904d1000884d300f20f20000258e100ed
:100af00005003d00c75ddd00f907b2008980750083
:100b000008007800000006000bf827008b00780032
:100b1000000005000004be00410007000003be0005
:100b20000405be000200be003d000700844f7500b2
:100b3000000006000200be006450e100050036001f
:100b40006420e100020036000968a30001003a00b9
:100b50000800be000160a0004f0678004f05be00ef
:100b60004f04be0000000600f0ff2f00f1ff270039
:100b7000f9ff37006022b800060220000000d00014
:100b80008180d2000482d2008582d2000000a000c1
:100b90000202520083825a00030031000202420026
:100ba00083824a000000a1000603e900f3ff3a0037
:100bb00000000600889fbe008a9fbe00841f780048
:100bc000d4ff07004f00780011003300f0ff2f0022
:100bd000838f6c0006003b00040565000a00a70037
:100be0000800370009f0a6001000200008003700b8
:100bf000820f5400838f5c00030039001000200036
:100c000001003e000000200009f0a7000000ea00fb
:100c10004f05be004f04be000000e00000000600cb
:100c2000c70ade00f107b200f50fb200080032007b
:100c3000e1cf4200020032000170a0002400050054
:100c4000810f700001003200040805004400050017
:100c5000810f700002003a00140005008502e900cf
:100c60000000400081c04800fcff3b000170a00074
:100c700024000500211088003010880000000600c4
:100c800006c2bf000008a300fdff3a0006c2bf0075
:100c90000018a300faff3a0006c2bf000028a30014
:100ca000f7ff3a0006c2bf000038a300f4ff3a0085
:100cb00006c2bf000048a300f1ff3a0009c2bf000e
:100cc0000068a300eeff3a00000006000602a8003c
:100cd000000006000080fb001010880008c2bf0062
:100ce00001c8b300014060000080fb000000e90083
:100cf0004f00de000000e900000006000642a800e8
:100d0000000006000662a80006c2bf000038a3006b
:100d1000fdff3a0008c2a900001080000080fb001f
:100d20000000060076c2bf000008a300fdff3a00e5
:100d300076c2bf000018a300faff3a0076c2bf00d7
:100d40000028a300f7ff3a0076c2bf000038a300d6
:100d5000f4ff3a0076c2bf000048a300f1ff3a005a
:100d600079c2bf000068a300eeff3a000000060051
:100d70007602a800000006000080fb0090138800a7
:100d800078c2bf0001c8b300014060000080fb00d2
:100d90000000e9004f00de000000e900000006004e
:100da0007642a80000000600a1138800b013880056
:100db000000006008001eb000200370061f07900be
:100dc0008301e800828f5100fcff3a00000006001a
:100dd0000400fa00e0bf9f00e481570081297800f9
:100de0000002eb000f0037006fb8970090407800ca
:100df0007fb89700104078000402e80080cf5000d0
:100e0000040032008180fb000080fb000080500065
:100e1000070037006fb897000000e800e0bf9f00b0
:100e20009309e800820f5200efff3a000000eb0048
:100e30000080fa000000060000027800808f500059
:100e40000a00310082814000808f51000700360087
:100e5000020240008000eb00436278008100e8005d
:100e6000828f500007003200fbff37000200e000d5
:100e70000400320002814000315a7800828f500015
:100e8000fdff3a00000006008001eb000200370081
:100e9000817178008301e800828f5100fcff3a00e5
:040ea0000000060048
:020000040000fa
:020000040005f5
:0457f8009e430000cc
:020000040000fa
:020000040005f5
:0457fc007f3e0000ec
:020000040000fa
:100008009a6e00009a6e00009a6e00009a6e0000c8
:100018009a6e00009a6e00009a6e00009a6e0000b8
:100028009a6e0000dc6900009a6e00001e690000ec
:100038009a6e0000026a00009a6e0000446900008f
:100048006a6900009a6e00009a6e0000e66a000075
:100058000c6b0000c06a00009a6e00009a6e0000e7
:100068009a6e00009a6e00009a6e00009a6e000068
:100078009a6e00009a6e00009a6e00009a6e000058
:100088009a6e00009a6e00009a6e00009069000057
:10009800b66900009a6e00009a6e00009a6e000021
:1000a8009a6e00009a6e00009a6e00009a6e000028
:1000b8009a6e0000286a00004e6a0000746a000008
:1000c8009a6a00009a6e00009a6e00009a6e00000c
:1000d8009a6e00009a6e00009a6e00009a6e0000f8
:1000e8009a6e00009a6e00009a6e00009a6e0000e8
:1000f8009a6e00009a6e00009a6e00009a6e0000d8
:100108009a6e00009a6e00009a6e00009a6e0000c7
:100118009a6e00009a6e00009a6e00009a6e0000b7
:100128009a6e00009a6e00009a6e00009a6e0000a7
:100138009a6e00009a6e00009a6e00009a6e000097
:100148009a6e00009a6e00009a6e00009a6e000087
:100158009a6e00009a6e00009a6e00009a6e000077
:100168009a6e00009a6e00009a6e00009a6e000067
:100178009a6e00009a6e0000303000009a6e0000ff
:100188009a6e00009a6e00009a6e00009a6e000047
:100198009a6e00009a6e00009a6e00009a6e000037
:1001a8009a6e00009a6e00009a6e00009a6e000027
:1001b8009a6e00009a6e00009a6e00009a6e000017
:1001c8009a6e00009a6e00009a6e00009a6e000007
:1001d8009a6e00009a6e00009a6e00009a6e0000f7
:1001e8009a6e00009a6e00009a6e00009a6e0000e7
:0801f8009a6e00009a6e0000ef
:020000040000fa
:100208009a6e00009a6e00009a6e00009a6e0000c6
:100218009a6e00009a6e00009a6e00009a6e0000b6
:100228009a6e0000dc6900009a6e00001e690000ea
:100238009a6e0000026a00009a6e0000446900008d
:100248006a6900009a6e00009a6e0000e66a000073
:100258000c6b0000c06a00009a6e00009a6e0000e5
:100268009a6e00009a6e00009a6e00009a6e000066
:100278009a6e00009a6e00009a6e00009a6e000056
:100288009a6e00009a6e00009a6e00009069000055
:10029800b66900009a6e00009a6e00009a6e00001f
:1002a8009a6e00009a6e00009a6e00009a6e000026
:1002b8009a6e0000286a00004e6a0000746a000006
:1002c8009a6a00009a6e00009a6e00009a6e00000a
:1002d8009a6e00009a6e00009a6e00009a6e0000f6
:1002e8009a6e00009a6e00009a6e00009a6e0000e6
:1002f8009a6e00009a6e00009a6e00009a6e0000d6
:100308009a6e00009a6e00009a6e00009a6e0000c5
:100318009a6e00009a6e00009a6e00009a6e0000b5
:100328009a6e00009a6e00009a6e00009a6e0000a5
:100338009a6e00009a6e00009a6e00009a6e000095
:100348009a6e00009a6e00009a6e00009a6e000085
:100358009a6e00009a6e00009a6e00009a6e000075
:100368009a6e00009a6e00009a6e00009a6e000065
:100378009a6e00009a6e0000303000009a6e0000fd
:100388009a6e00009a6e00009a6e00009a6e000045
:100398009a6e00009a6e00009a6e00009a6e000035
:1003a8009a6e00009a6e00009a6e00009a6e000025
:1003b8009a6e00009a6e00009a6e00009a6e000015
:1003c8009a6e00009a6e00009a6e00009a6e000005
:1003d8009a6e00009a6e00009a6e00009a6e0000f5
:1003e8009a6e00009a6e00009a6e00009a6e0000e5
:0803f8009a6e00009a6e0000ed
:020000040000fa
:100ea40009020000200000000101000000c0000051
:100eb400320900000400000000020000ffff0000ef
:100ec400ff0000000705000001010000d40300003a
:100ed400010700000581000001d4000003010000a7
:100ee4000403000001000000300300004200000081
:100ef40072000000690000006e0000007400000031
:100f04006f0000006e00000020000000450000009b
:100f14006e00000067000000690000006e00000021
:100f24006500000065000000720000006900000018
:100f34006e00000067000000200000004c0000006c
:100f44004c00000043000000360300005200000083
:100f54006f000000620000006f00000074000000d9
:100f6400650000007800000020000000520000002e
:100f74006f000000620000006f00000074000000b9
:100f8400690000006300000020000000430000002e
:100f94006f0000006e00000074000000720000008a
:100fa4006f0000006c0000006c0000006500000091
:100fb40072000000528700007287000076870000ec
:100fc400a6870000000000000000000000000000f0
:100fd400000000000000000080000000000000008d
:100fe4000000000000010000bfff0000ffff000040
:0c0ff400ffff0000ffff0000ff000000f6
:020000040000fa
:101000000200fa00000f78001e007800c200dd0028
:10101000603d2100008140006000b8000089be00f2
:101020001e007800c200dd00e03e2100008140008b
:101030006000b8000089be000080fa0000000600d1
:101040000200fa00000f78001e007800c200dd00e8
:10105000203e2100008140006000b8000089be00f1
:101060001e007800c200dd00a03f2100008140008a
:101070006000b8000089be000080fa000000060091
:101080000000fa00300c07000000eb005c070700ce
:10109000100020005a070700200020005807070012
:1010a0000080fa00000006000800fa0030079800ef
:1010b0006000b80010079800210798000000eb00be
:1010c000000f78000f0037003e0090009e0078006f
:1010d0004200dd0001004000c200dd00a00f210041
:1010e000008040001001be001e009000ae00900085
:1010f00000004100818049001007980021079800f6
:101100001e0fe800300020009e0f1000eeff34009c
:101110001e009000ae0090004e09dd004200de008f
:1011200000007100c288de001007980021079800b7
:101130003e009000c200dd00c0122100008040008f
:101140001e019000ae0190000288be003e0190009a
:101150003e00900080004000801921000080400087
:10116000900078004310dd0001004000c200dd0067
:1011700080132100008040001e019000ae0190000d
:101180000288be00be00900001814000801921004d
:1011900000004100100078000001e800818040005c
:1011a0008019210000804000020878003e01900074
:1011b0003e00900080004000801921000080400027
:1011c00010007800e70160008200410080192100d2
:1011d00000804000030878000080fa00000006004c
:1011e0000800fa00300798006000b8001007980067
:1011f000210798000000eb00000f78000f00370077
:101200003e0090009e0078004300dd000100400099
:10121000c200dd0080132100008040001001be00ec
:101220001e009000ae009000000041008180490047
:1012300010079800210798001e0fe800700020009a
:101240009e0f1000eeff34001e009000ae009000d4
:101250004d09dd004300de0000007100c388de00a0
:1012600010079800210798003e009000c200dd00a2
:10127000e0192100008040001e019000ae019000a6
:101280000288be000080fa00000006000800fa0094
:10129000300798006000b8001007980021079800f8
:1012a0000000eb00000f78000f0037003e009000b8
:1012b0009e0078004300dd0001004000c200dd0018
:1012c000601b2100008040001001be001e00900045
:1012d000ae00900000004100818049001007980096
:1012e000210798001e0fe800700020009e0f1000dc
:1012f000eeff34001e009000ae0090004d09dd00ae
:101300004300de0000007100c388de001007980073
:10131000210798003e009000c200dd00c02121009e
:10132000008040001e019000ae0190000288be00c7
:101330000080fa00000006000200fa00889fbe004c
:10134000000f78006000b80050c6880061c68800b1
:101350000000eb0040c688006000b80020c688008e
:1013600031c688000000eb0010c688006000b8009d
:10137000f0c5880001c688006000b800d0c58800ac
:10138000e1c588006000b800b0c58800c1c588000c
:101390006000b80090c58800a1c588006000b80052
:1013a00070c5880081c588006000b80050c58800fd
:1013b00061c588000000eb0020c588000000eb003c
:1013c00010c588000000eb0010c588003d00370004
:1013d0001e00780011c580004200dd0001004000c1
:1013e000c200dd00a0042100008040001001be000a
:1013f000f0c5800001c680000200400083804800e4
:10140000f0c5880001c688001e00780011c5800064
:101410004200dd000100400080004000a0072100e4
:1014200000804000100078006101b900d0c5800044
:10143000e1c580000200400083804800d0c58800dc
:10144000e1c588001e00780011c580004300dd0062
:1014500001004000c200dd00800921000080400042
:101460001001be00b0c58000c1c580000200400070
:1014700083804800b0c58800c1c588001e00780080
:1014800011c580004300dd00010040004200dd0086
:10149000f000400080092100008040001001be00e3
:1014a00090c58000a1c580000200400083804800f4
:1014b00090c58800a1c5880010c580000000e80024
:1014c00010c5880010c58000e30f5000c0ff340035
:1014d000d0c58000e1c58000e00f5000e08f5800cb
:1014e000030035001000200040c6880002003700cd
:1014f0000080eb0040c68800f0c5800001c6800077
:101500004e09dd004200de0000007100c288de00ee
:10151000f0c5880001c68800f0c5800001c68000c3
:10152000e00f5000e08f580008003400f2c5800042
:1015300003c6800000602300e11620001bfd0700a9
:1015400050c6880061c68800030037006000b800fc
:1015500050c6880061c688001e007800b2c58000b1
:10156000c3c58000c200dd00209321000080400040
:101570000288be001e00780092c58000a3c58000ce
:10158000c200dd00e0932100008040000288be0020
:10159000b2c58000c3c5800090c58000a1c5800091
:1015a000800f5100818f5900250034001000200069
:1015b00010c68800b0c58000c1c580004e09dd009e
:1015c0004200de0000007100c288de00b0c5880065
:1015d000c1c588001e007800c200dd008025210002
:1015e000008040001004be00b6c58000c7c5800062
:1015f0008800780006007800000ab80007c0b9002b
:10160000050178000001410009b0b9000001410066
:10161000820278004929dd004720de0000007100c9
:10162000c7a8de0020c6880031c68800b0c580008b
:10163000c1c5800050c5880061c5880024003700fe
:101640000080eb0010c6880090c58000a1c5800016
:101650004e09dd004200de0000007100c288de009d
:1016600090c58800a1c588001e007800c200dd007a
:1016700080252100008040001004be0096c5800037
:10168000a7c580008800780006007800000ab8002e
:1016900007c0b900050178000001410009b0b90098
:1016a00000014100820278004929dd004720de0068
:1016b00000007100c7a8de0020c6880031c688007f
:1016c00090c58000a1c5800050c5880061c5880014
:1016d0001e00780022c6800033c68000c200dd00f4
:1016e00060922100008040000288be0022c6800077
:1016f00033c68000f057220001002000800f510007
:10170000818f590013003c009e01780010c68000b4
:101710006103b90024c6800035c6800086007800c9
:1017200004007800000cb80005b0b9000901780089
:101730000001410007a0b9000001410082047800c7
:10174000c218dd00a01a2100008040000888be00f9
:10175000120037009e01780040c680006103b90086
:1017600054c6800065c680008600780004007800ba
:10177000000cb80005b0b900090178000001410073
:1017800007a0b9000001410082047800c218dd0002
:10179000a01a2100008040000888be001e007800ca
:1017a000c200dd0080262100008040001001be0044
:1017b0001e007800c200dd0060892100008040002a
:1017c0001000be00800f5100818f590006003a00c2
:1017d0001e007800c200dd00a01a21000081400038
:1017e0006000b8000089be001e0278001e0078006c
:1017f000c200dd0080262100008040001001be00f4
:10180000c220dd0060892100008040000288be0007
:101810009e0278001e0078008000400060212100b8
:1018200000804000100278001e007800c200dd0039
:10183000a01a2100008040001001be004328dd00f6
:1018400004004000c200dd00601b21000080400059
:101850000288be009e0078000181400060212100c6
:1018600000004100100078000001e8008180400085
:101870006021210000804000020878001e017800ed
:101880001e007800800040006021210000804000a0
:1018900010007800e7016000820041006021210013
:1018a00000804000030878001e007800c200dd00c0
:1018b000a01a2100008040001001be00f07c200032
:1018c00001002000800f5100818f59000a003c0068
:1018d0001e007800c200dd00a01a21000080400038
:1018e0001001be0000832f00f1ff2f00800f510078
:1018f000818f59004f003d006000b80070c588001e
:1019000081c588001e0478002993800050c680009d
:1019100061c680004709dd00c900de00810071005a
:101920004700dd0052c5800063c580001ffc070032
:101930000001be004240dd0009004000c200dd00a1
:1019400080222100008040000288be002093800099
:101950000000e8002093880020938000630060006e
:10196000209388000000eb0020c58800110037009c
:101970001e00780021c580004200dd00010040000b
:10198000c200dd0080222100008040001001be0066
:1019900070c5800081c5800002004000838048003f
:1019a00070c5880081c5880020c580000000e8005f
:1019b00020c5880020c58000e30f5000ecff3400f4
:1019c00070c5800081c580004e09dd004200de0048
:1019d00000007100c288de0030c5880041c5880063
:1019e00032c5800043c58000409c200001002000db
:1019f000800f5100818f59000e00340032c58000e5
:101a000043c58000c057210001002000800f510015
:101a1000818f590007003c001e00780032c580000d
:101a200043c58000c200dd00802521000080400009
:101a30000288be004f04be000080fa0000000600cd
:101a40001600fa0084c0bf00684060000004e00097
:101a500080003200eac2bf000080fb004500de00cb
:101a60000004a200614060006140600061406000cd
:101a7000614060004501dd00a12e2000914078000a
:101a8000f0cdb30000c0600002407000eae2b70091
:101a90008460a900707f8000e10f500003003a00cd
:101aa000907f80000000e800907f88000000eb003d
:101ab00050079800250037005e009000800040002d
:101ac00080fc20000080400010007800e10f5000f2
:101ad0000a003a00de00900001814000e0fc200096
:101ae00000004100100078000001e8008180400003
:101af000e0fc200000804000020878005e009000ba
:101b000080004000a0fd2000008040001000780010
:101b1000e10f50000a003a00de0090000181400011
:101b200000fe200000004100100078000001e800e5
:101b30008180400000fe2000008040000208780004
:101b40005e0090000000e800500798005e009000e2
:101b5000e20f5000d8ff3400e07f8000e10f50001a
:101b600003003a00f07f80000000e800f07f88006a
:101b7000b07f8000e10f500003003a00c07f80007a
:101b80000000e800c07f8800607f8000e10f500007
:101b900006003a00407f8000517f800061004000d5
:101ba000e0804800407f8800517f880030808000be
:101bb000e10f500003003a00508080000000e80070
:101bc0005080880060808000e10f500003003a00e0
:101bd000808080000000e80080808800c080800055
:101be000e10f500003003a00e08080000000e800b0
:101bf000e0808800f0808000e10f500003003a0090
:101c0000108180000000e8001081880020818000a1
:101c1000e10f500003003a00408180000000e8001e
:101c20004081880050818000e10f500003003a009d
:101c3000708180000000e800708188008081800051
:101c4000e10f500003003a00a08180000000e8008e
:101c5000a0818800508080000000e0000200340075
:101c60001000200040808800427f8000537f800069
:101c7000703e200001002000800f5100818f59002c
:101c80000200340010002000307f88000000eb00cc
:101c9000500798002f0037005e0090008000400041
:101ca000e0fc20000080400010007800e90f5000a8
:101cb000120034005e0090008000400020fc2000f4
:101cc0008080400010002000800878005e009000b6
:101cd0008000400080fc2000808040000000eb007d
:101ce000800878005e00900080004000e0fc20004a
:101cf000808040000000eb00800878005e009000cb
:101d00008000400000fe20000080400010007800ad
:101d1000e40f50000c0034005e0090008000400092
:101d200040fd2000808040001000200080087800e6
:101d30005e0090008000400000fe20008080400097
:101d40000000eb00800878005e0090000000e800d2
:101d5000500798005e009000e20f5000ceff340064
:101d6000c07f80000000e00006003400100020006a
:101d7000a07f88000000eb00c07f88000000eb001f
:101d8000b07f8800f07f80000000e0000600340093
:101d900010002000d07f88000000eb00f07f88005a
:101da0000000eb00e07f8800907f80000000e000f2
:101db0000200340010002000807f880081808000b5
:101dc00020022000808f500002003400100020000c
:101dd00070808800e0808000e90f5000020034002d
:101de00010002000d080880010818000f80f500083
:101df0000600340010002000008188000000eb0085
:101e00001081880010002000a0a18800408180007f
:101e1000e30f5000040034001000200030818800df
:101e20000000eb0040818800708180000000e0002d
:101e30000400340010002000608188000000eb00e6
:101e400070818800a181800030062000808f5000c2
:101e50000400340010002000908188000000eb0096
:101e6000a08188000000eb005007980018003700a0
:101e70005e0090008000400040fd20000080400097
:101e800010007800e10f50000e003a005e00900054
:101e90008000400060fb200000804000900078003f
:101ea0005e0090007e0507005e009000800040000c
:101eb00040fd2000808040000000eb00800878009a
:101ec000460907005e0090000000e80050079800f7
:101ed0005e009000e20f5000e5ff3400a07f80001c
:101ee000e10f50000f003a0010002000b07f880082
:101ef0000000eb00a07f88000000eb005007980076
:101f0000050037005e0090000bfd07005e009000aa
:101f10000000e800500798005e009000e10f5000bc
:101f2000f8ff3400d07f8000e10f50001b003a0022
:101f30000000eb00d07f880010002000e07f8800c8
:101f40000000eb0050079800050037005e0090008d
:101f500055fc07005e0090000000e8005007980064
:101f60005e009000e20f5000f8ff340062898000ac
:101f7000738980008089800091898000020140007f
:101f800083814800a0898000b18980000200400060
:101f90008380480050c8880061c888007080800035
:101fa000e10f500010003a000000eb0090a0880004
:101fb0000000eb00708088000000eb00608088006b
:101fc0000000eb008080880010002000c0808800a6
:101fd0000000eb00e08088000000eb00d08088006b
:101fe0001000200020a18800d0808000e10f500068
:101ff00008003a000000eb00c08088000000eb0001
:10200000e08088000000eb00d08088000000eb003a
:1020100020a1880000818000e10f500001003a00fb
:102020003002070030818000e10f5000a0003a002c
:102030000000eb0030818800508d8000618d8000b1
:1020400030b58800708d8000818d800040b588009b
:102050006000b80020079800310798006000b800c1
:10206000008fbe000000eb005007980018003700fa
:102070005e00900080004000202821000080400089
:10208000100078006101b9002e009000be009000a1
:102090000000410081804900200798003107980026
:1020a0005e00900000004000e80040002028210071
:1020b0000080400010007800cf80de001e0f40003e
:1020c0005e9748005e0090000000e800500798000e
:1020d0005e009000e30f5000e5ff34002e009000fa
:1020e000be0090004e09dd004200de0000007100dd
:1020f000c288de0050b588001e00be004e09dd001b
:102100004200de0000007100c288de0060b5880079
:10211000f08c8000018d800070b58800108d8000eb
:10212000218d800080b58800308d8000418d800039
:1021300090b588004093800051938000a0b588003e
:102140006093800071938000b0b58800dac2bf0050
:102150000080fb000000d100614060004ef7b70036
:10216000e2c2bf000080fb004500de00614060006d
:102170004ff7b7006000b8002007980031079800bb
:102180006000b800008fbe000000eb005007980010
:10219000180037005e00900080004000e0902100b1
:1021a00000804000100078006101b9002e0090000e
:1021b000be00900000004100818049002007980087
:1021c000310798005e00900000004000e8004000e9
:1021d000e09021000080400010007800cf80de00f9
:1021e0001e0f40005e9748005e0090000000e8006f
:1021f000500798005e009000e30f5000e5ff3400a8
:102200002e009000be0090004e09dd004200de006e
:1022100000007100c288de00e0ba88001e00be0027
:102220004e09dd004200de0000007100c288de00c1
:10223000f0ba88006000b8002007980031079800c5
:102240000000eb00500798000f0037005e00900080
:1022500061292100000040000100400010007800ca
:102260006101b9002e009000be0090000000410006
:102270008180490020079800310798005e00900097
:102280000000e800500798005e009000e30f500047
:10229000eeff34002e009000be0090004e09dd00dd
:1022a0004200de0000007100c288de0000bb880032
:1022b00060818000e10f50001e003a000000eb003a
:1022c00060818800e1ba8000202b2000808f5000c0
:1022d00004003400f1ba8000202b2000808f5000d1
:1022e00014003c008000eb000000eb0067070700d3
:1022f0008000eb0010002000640707000000eb00e6
:10230000bf02070010002000bd02070020002000cf
:10231000bb0207001000200090a088000000eb0026
:10232000a081880010002000808188000000eb0060
:102330009081880090818000e10f50000e003a00eb
:10234000110020000000eb005007070011002000e2
:10235000100020004d0707000000eb0090a088004f
:102360000000eb00908188000000eb00a081880055
:102370000000eb0080818800e006070040808000bc
:10238000e10f500004003a000000eb00508088008c
:102390000000eb0040808800807f8000e10f50004b
:1023a00031013a000000eb00807f88000000eb0064
:1023b000907f88000000eb0050079800270137004d
:1023c0005e0090008000400060fb20000080400024
:1023d00010007800200f980010e02e00ae0890004a
:1023e000808f50001200320010e02e002e09900065
:1023f000800f510005003c0000e02e00ae08900068
:10240000808f5000440032001101370020e02e0080
:102410002e099000800f5100af00320030e02e00f6
:10242000ae089000808f5000730032000801370022
:102430005e0090004b0207005e00900080004000ac
:1024400000fb20000080400010007800100f980072
:1024500020f02f001e099000800f5100090032006b
:1024600030f02f009e089000808f50001400320042
:1024700010f02f001e099000800f51001f00320045
:10248000f30037005e0090005d0207005e009000e0
:102490008000400060fb20008080400020e02e0093
:1024a000800878005e00900080004000c0fb2000a3
:1024b0008080400040e02e0080087800e400370073
:1024c0005e0090004e0207005e0090008000400019
:1024d00060fb20008080400020e02e008008780013
:1024e0005e00900080004000c0fb20008080400023
:1024f00040e02e0080087800d50037005e00900094
:102500008000400000fb20008080400000f02f0091
:1025100080087800ce0037005e0090008000400008
:1025200000fb20000080400010007800000f9800a1
:1025300020f02f008e089000808f5000090032009c
:1025400030f02f000e099000800f51000c00320077
:1025500010f02f008e089000808f5000170032007e
:10256000bb0037005e00900080004000a0fd20000e
:10257000808040001000200080087800b400370000
:102580005e0090001e0207005e0090008000400088
:1025900060fb20008080400020e02e008008780052
:1025a0005e00900080004000c0fb20008080400062
:1025b00040e02e0080087800a50037005e00900003
:1025c0000f0207005e0090008000400060fb2000ca
:1025d0008080400020e02e00800878005e0090009f
:1025e00080004000c0fb20008080400040e02e00c2
:1025f00080087800960037005e0090008000400060
:1026000000fb200000804000100078007007980058
:1026100020f02f007e019000800f51000900320051
:1026200030f02f00fe009000808f50001400320028
:1026300010f02f007e019000800f51001700320033
:10264000830037005e009000ed0107005e009000ff
:102650008000400060fb20008080400020e02e00d1
:10266000800878005e00900080004000c0fb2000e1
:102670008080400040e02e00800878007400370021
:102680005e00900080004000a0fd2000808040009f
:1026900010002000800878006d0037005e00900078
:1026a000d70107005e0090008000400060fb200022
:1026b0008080400020e02e00800878005e009000be
:1026c00080004000c0fb20008080400040e02e00e1
:1026d000800878005e0037005e00900080004000b7
:1026e000c0fb2000008040009000780040e02e00f9
:1026f000808f500019003a005e009000800040007a
:1027000020fc20000080400010007800e10f500005
:1027100012003a005e00900080004000c0fb2000e4
:102720008080400050e02e00800878005e0090001d
:102730008000400020fc2000808040000000eb0072
:10274000800878005e00900080004000e0fc2000df
:10275000808040000000eb00800878005e00900060
:1027600080004000c0fb2000008040009000780006
:1027700050e02e00808f500035003a005e0090003f
:102780008000400000fb2000008040001000780026
:102790006007980020f02f00ee009000808f50001e
:1027a0001200320030f02f006e019000800f5100b7
:1027b0001b00320010f02f00ee009000808f5000c0
:1027c00001003200220037005e0090006501070022
:1027d0005e0090008000400060fb20008080400090
:1027e00010e02e0080087800190037005e0090008d
:1027f00080004000a0fd20008080400010002000ec
:10280000800878005e0090008000400060fb20009f
:102810008080400000e02e00800878000c00370027
:102820005e00900080004000a0fd200080804000fd
:1028300010002000800878005e00900080004000ba
:1028400060fb20008080400030e02e00800878008f
:102850005e0090000000e800500798005e009000c5
:10286000e20f5000d6fe34000080fa00000006009f
:102870000200fa0076c2bf00614060000004e00080
:1028800010003a0076c2bf00644060000004e0001f
:102890000c003a0076c2bf00684060000004e0000f
:1028a00008003a0076c2bf00704060000004e000fb
:1028b00004003a0079c2bf000044b2000004e00006
:1028c000030032000000eb00000f78000200370028
:1028d00010002000000f78001e0078000080fa0031
:1028e000000006000400fa00a0a18000e10f5000e3
:1028f0000a003a000000eb00a0a1880010002000b0
:10290000e0a1880010002000b0ba8800100020006c
:10291000c0ba880010002000d0ba8800e0a1800072
:102920006101b9000080eb008080eb0002014000f3
:1029300083814800028fbe0080012000010020003a
:102940001e01be00800f5100818f590003013e001f
:102950001e00be0000600100180037001f00370095
:1029600028003700360037003c00370046003700ab
:102970004b003700530037005a0037006300370020
:102980006a00370074003700780037007f00370096
:1029900088003700960037009c003700a6003700fb
:1029a000ab003700b9003700c0003700c90037005e
:1029b000d0003700da003700de003700acff070038
:1029c000e10f5000e5003a00e0a180000000e800bf
:1029d000e0a188007602a800e000370076c2bf00c0
:1029e000614060000004e000dc003a00e0a18000eb
:1029f0000000e800e0a18800000320009013880098
:102a0000d600370078c2bf0001c8b30001406000a3
:102a10000004e000020032000000eb00b0ba8800c1
:102a200079c2bf000044b2000004e000cb003a00cd
:102a3000e0a180000000e800e0a18800c7003700a6
:102a40008bff0700e10f5000c4003a00e0a18000b6
:102a50000000e800e0a18800c000370079c2bf0094
:102a600001c8b300014060000004e0000200320031
:102a70000000eb00b0ba8800e0a180000000e80090
:102a8000e0a18800b50037000000eb00901388003b
:102a9000e0a180000000e800e0a18800af0037005e
:102aa00078c2bf0079c2bf000044b2000004e00059
:102ab000aa003a00e0a180000000e800e0a1880040
:102ac000a60037006aff0700e10f5000a3003a009c
:102ad000e0a180000000e800e0a188007602a800e4
:102ae0009e00370076c2bf00614060000004e00035
:102af0009a003a00e0a180000000e800e0a1880010
:102b000010032000901388009400370058ff07003e
:102b1000e10f500091003a00e0a180000000e800c1
:102b2000e0a188007662a8008c00370076c2bf0062
:102b3000684060000004e00088003a00e0a18000e6
:102b40000000e800e0a1880078c2a900801380009e
:102b500080ba8800810037007642a800e0a180009a
:102b60000000e800e0a188007c00370040ff07007b
:102b7000e10f500079003a00e0a180000000e80079
:102b8000e0a188007602a8007400370076c2bf007a
:102b9000614060000004e00070003a00e0a18000a5
:102ba0000000e800e0a188000003200090138800e6
:102bb0006a00370078c2bf0001c8b300014060005e
:102bc0000004e000020032000000eb00c0ba880000
:102bd00079c2bf000044b2000004e0005f003a0088
:102be000e0a180000000e800e0a188005b00370061
:102bf0001fff0700e10f500058003a00e0a18000dd
:102c00000000e800e0a188005400370079c2bf004e
:102c100001c8b300014060000004e000020032007f
:102c20000000eb00c0ba8800e0a180000000e800ce
:102c3000e0a18800490037001000200090138800b0
:102c4000e0a180000000e800e0a188004300370018
:102c500078c2bf0001c8b300014060000004e0007a
:102c6000020032000000eb00c0ba880079c2bf0049
:102c70000044b2000004e00038003a00e0a1800007
:102c80000000e800e0a1880034003700f8fe0700eb
:102c9000e10f500031003a00e0a180000000e800a0
:102ca000e0a188007602a8002c00370076c2bf00a1
:102cb000614060000004e00028003a00e0a18000cc
:102cc0000000e800e0a188001003200090138800b5
:102cd00022003700e6fe0700e10f50001f003a0017
:102ce000e0a180000000e800e0a188007662a80072
:102cf0001a00370076c2bf00684060000004e000a0
:102d000016003a00e0a180000000e800e0a1880081
:102d100078c2a9008013800090ba88000f003700a5
:102d20007642a800e0a180000000e800e0a1880051
:102d30000a003700cefe0700e10f500007003a00fe
:102d4000e0a180000000e800e0a188001000200061
:102d5000e0a188000000eb00008188000080fa00fc
:102d6000000006000400fa00000f78001e00780042
:102d7000100798001e009000e10f50000f00320075
:102d80001e009000e20f5000140032001e00900060
:102d90000000e0000100320017003700f03f200083
:102da000ac050700f03f2000dd050700cbc2a900fd
:102db00000000000db02a9000f003700f03f2000f8
:102dc0000a060700f03f20003b060700f2c2a900f8
:102dd00000000000f302a90007003700f03f2000c8
:102de00068060700f03f200099060700d3a2a9005b
:102df00000000000d3c2a9000080fa000000060015
:102e00000400fa00000f78001e00780080004000e7
:102e1000a0fd2000808040000000eb0080087800ca
:102e20001e0078008000400000fe200080804000ee
:102e30000000eb00800878001e0078008000400051
:102e400080fc200080804000100020008008780076
:102e50001e0078006af807001e00780078f8070066
:102e60001e007800100798001e009000e10f50002f
:102e70000f0032001e009000e20f500014003200dc
:102e80001e0090000000e000010032001700370033
:102e90000000eb006f0507000000eb00a005070035
:102ea000cbc2a90000000000db02a9000f00370020
:102eb0000000eb00cd0507000000eb00fe05070059
:102ec000f2c2a90000000000f302a90007003700c9
:102ed0000000eb002b0607000000eb005c0607007b
:102ee000d3a2a90000000000d3c2a9000080fa000c
:102ef000000006000800fa00300798008002200059
:102f00002007980040a1800051a18000008fbe00e2
:102f1000703e200001002000be0f1000ae8f180090
:102f200019003c001e00be00e00f5000e08f58006a
:102f300015003400803e2000010020003e035000b8
:102f4000ae8358008600780040022000000ab800d6
:102f50006030b90005017800000141004002200006
:102f600000b8b9000001410082027800823e2000d2
:102f7000030020000400be008cf60700640040003f
:102f80002007980007003700703e20000100200055
:102f9000be0f1000ae8f1800020034004000200069
:102fa0002007980020a18000e10f500008003a009f
:102fb000e1808000400220000088b900a2002000cb
:102fc000110009000200d8006400400020079800aa
:102fd000ae00900080022000808f5000020034007c
:102fe00080022000200798002e009000e30f500080
:102ff00002003c004000200020079800ae00900036
:1030000021c988002e0090000080fa000000060010
:103010003000fa00889fbe00200f9800310f980002
:10302000420f9800530f9800640f9800750f980096
:10303000061798007e089000c200dd006040210065
:10304000008040004e099000de0990000288be001a
:103050007e0c90007e089000a6ff0700000178001b
:1030600088004400e09121000080400002087800c0
:103070004e089000de0890006017980071179800c5
:103080006e119000fe119000e00f5100e08f59008a
:1030900006003d006e109000fe10900060001000d1
:1030a000e080180060179800711798007e08900063
:1030b00080004000e0912100008040001000780076
:1030c0006103b900c20220000e01410092007800a5
:1030d00006007800000ab800ee1190000798b900c9
:1030e0000501780000014100fe11900003b0b90015
:1030f00000014100820278004e29dd004220de00fe
:1031000000007100c2a8de00000f9800110f9800a7
:103110007e089000c200dd00609521000080400024
:103120000e0990009e0990000288be002e089000b3
:10313000be08900040179800511798004e1190005b
:10314000de119000e00f5100e08f590006003d00b5
:103150004e109000de10900060001000e08018001b
:1031600040179800511798000e0890009e08900094
:103170004e119000de119000020050008380580034
:1031800020079800310798007e0a90007e08900082
:10319000c200dd00603d2100008040001001be0043
:1031a0002e009000be009000020140008381480084
:1031b000c220dd00603d2100008040000288be008a
:1031c0007e089000c200dd002096210000804000b3
:1031d0002e019000be0190000288be002e009000db
:1031e000be009000f2f407000002be000e10900036
:1031f0007e0990006300b90002004000c200dd00bb
:10320000a02a2100008040001001be000400be0082
:1032100070f507000004be007e089000c200dd00cb
:10322000603d2100008040001000be00e0f4070077
:103230000002be000e1090007e0990006300b900ed
:1032400002004000c200dd00a02d210000804000ef
:103250001001be000400be005ef507000001be00c4
:103260000800be00fef407000004be007e089000c7
:10327000c200dd00e03e2100008040001001be00e1
:103280002e009000be009000020050008380580085
:10329000c7f407000002be000e1090007e099000e7
:1032a0006300b90002004000c200dd00a030210030
:1032b000008040001001be000400be0045f507007c
:1032c0000001be000800be00e5f4070040079800ba
:1032d000510798007e089000c200dd00e03e21000a
:1032e000008040002e019000be0190000288be00c8
:1032f00002a1800013a180004e009000de0090002b
:10330000b9f507000000e00001003d00170037009c
:1033100000a1800011a1800040079800510798008b
:103320002e009000be009000e00f5000e08f58008b
:103330000e0034007e0a90007e089000c200dd007e
:10334000603d2100008040001001be002e00900072
:10335000be0090000001510081815900c220dd00b3
:10336000603d2100008040000288be006011b8006e
:103370004e009000de0090009df507000000e00088
:1033800001003500090037006000b80040079800d0
:10339000510798007e089000c200dd00603d2100ca
:1033a000008140006000b8000089be007e089000e7
:1033b000e20f500009003a007e0890004e0990008c
:1033c0008000400040412100008040000208780059
:1033d000ce089000311798002d0037007e0c900029
:1033e0004e009000de00900083f507000001780099
:1033f000880044004041210000804000020878001d
:103400004e099000de0990001217980023179800cb
:103410001e109000ae109000e00f5000e08f58009a
:1034200006003d001e119000ae11900060011100d9
:10343000e081190012179800231798001e109000c1
:10344000ae1090005af4070040079800510798000a
:1034500002a1800013a180004e009000de009000c9
:1034600061f507000000e00001003d0004003700a6
:1034700000a1800011a1800040079800510798002a
:103480004e009000de0090005bf5070030179800ba
:103490003e1090004f04be000080fa0000000600bd
:1034a0000e00fa0020079800310798002e009000c7
:1034b00076f707002e00900049f70700c0c780008c
:1034c000d1c78000e2c78000f3c78000020050002f
:1034d0008380580040079800510798004e009000e4
:1034e000de009000e00f5000e08f580006003d0025
:1034f0004e009000de00900060001000e080180098
:1035000040079800510798004e009000de009000a0
:1035100040a1880051a1880040a1800051a18000f5
:10352000000f7800703e20009e0f1000070034004e
:103530002e00900080004000003d2100808040006f
:103540000000eb0080087800060037002e00900095
:1035500080004000003d21008080400010002000dd
:1035600080087800ae009000610798006e0090001f
:10357000e10f500067003200ee009000e28f500033
:10358000c40032006e0090000000e0000100320034
:103590000d013700be00900000e02e00808f50002b
:1035a0002c003a0090a08000e10f500003003a0088
:1035b0000000eb00100798001a0037002e00900062
:1035c00080004000003d2100008040001002780093
:1035d0002e009000c200dd00e019210000804000b4
:1035e0001000be00800378002e009000c200dd00b5
:1035f000808f2100008040001001be002e0090004e
:10360000c200dd00c0212100008040001000be008b
:1036100004037800ae029000070278007cfe0700e9
:1036200010079800cbc2a9000000eb00bc03070004
:1036300090a08000e10f500002003a00db02a900d8
:1036400001003700db02a8001e0090008103070084
:10365000dd003700be00900030e02e00808f50006b
:10366000d9003a0090a08000e10f500003003a001a
:103670000000eb00100798001a0037002e009000a1
:1036800080004000003d21000080400010027800d2
:103690002e009000c200dd00e019210000804000f3
:1036a0001000be00800378002e009000c200dd00f4
:1036b000808f2100008040001001be002e0090008d
:1036c000c200dd00c0212100008040001000be00cb
:1036d00004037800ae029000070278004cfe070059
:1036e00010079800db02a9000000eb005903070057
:1036f00090a08000e10f500002003a00cbc2a90068
:1037000001003700cbc2a8001e0090008403070010
:10371000ad003700be00900000e02e00808f50000a
:103720002c003a0090a08000e10f500003003a0006
:103730000000eb00100798001a0037002e009000e0
:1037400080004000003d2100008040001002780011
:103750002e009000c200dd00e01921000080400032
:103760001000be00800378002e009000c200dd0033
:10377000808f2100008040001001be002e009000cc
:10378000c200dd00c0212100008040001000be000a
:1037900004037800ae029000070278001cfe0700c8
:1037a00010079800f302a9000000eb008f03070048
:1037b00090a08000e10f500002003a00f2c2a90080
:1037c00001003700f2c2a8001e009000ba030700f3
:1037d0007d003700be00900030e02e00808f50004a
:1037e00079003a0090a08000e10f500003003a00f9
:1037f0000000eb00100798001a0037002e00900020
:1038000080004000003d2100008040001002780050
:103810002e009000c200dd00e01921000080400071
:103820001000be00800378002e009000c200dd0072
:10383000808f2100008040001001be002e0090000b
:10384000c200dd00c0212100008040001000be0049
:1038500004037800ae02900007027800ecfd070038
:1038600010079800f2c2a9000000eb0092030700c5
:1038700090a08000e10f500002003a00f302a9007e
:1038800001003700f302a8001e0090005703070054
:103890004d003700be00900000e02e00808f5000e9
:1038a00022003a002e00900080004000003d2100e0
:1038b00000804000100278002e009000c200dd0061
:1038c000e0192100008040001000be008003780055
:1038d0002e009000c200dd00808f2100008040009b
:1038e0001001be002e00900080004000409021009a
:1038f00000804000100078000100200004037800e0
:10390000ae02900007027800c1fd07001007980082
:10391000d3a2a9000000eb00cd030700d3c2a8008a
:103920001e0090009703070027003700be0090009c
:1039300030e02e00808f500023003a002e009000cf
:1039400080004000003d210000804000100278000f
:103950002e009000c200dd00e01921000080400030
:103960001000be00800378002e009000c200dd0031
:10397000808f2100008040001000be006001100018
:10398000e08118002e00900080004000409021004f
:10399000008040001000780001002000040378003f
:1039a000ae0290000702780099fd0700100798000a
:1039b000d3c2a9000000eb0072030700d3a2a80045
:1039c0001e009000a2030700ae0090001e009000b1
:1039d0006101b900c208dd00a09421000080400010
:1039e0000288be000080fa00000006000200fa0013
:1039f000000f780023c2bf00624060000004e000b6
:103a0000fcff3a008580a9001e0078002011880084
:103a10000080fa00000006000c00fa00a000200060
:103a2000000f78000000eb00100798008f003700af
:103a30001e00900080004000a0fa2000008040009e
:103a40009000780080bb20001e004000808f500056
:103a500016003e001e00900080004000a0fa2000ea
:103a6000008040009000780080bb20001e005000c5
:103a7000808f50000d0039001e0090008000400033
:103a800000fb20008080400010f02f0080087800ac
:103a90001e009000c200dd00808f210000814000e8
:103aa0006000b8000089be006d0037001e00900065
:103ab00080004000a0fa20000080400090007800c4
:103ac000f07c2000808f5000300036001e009000f7
:103ad00080004000a0fa20000080400090007800a4
:103ae00080bb20001e005000808f500027003e0049
:103af0001e0090008000400000fb200080804000fd
:103b000030f02f00800878001e00900080004000f8
:103b1000a0fa200000804000100078000100200082
:103b2000200798003107980082bb20000300200086
:103b30002e009000be0090000000510081805900ce
:103b40004a09dd00c600de00810071004a00dd0088
:103b5000823e20000300200094f3070040079800f5
:103b6000510798001e0290004e009000de00900069
:103b700060011000e0811800c220dd00808f21006c
:103b8000008040000288be00350037001e00900013
:103b900080004000a0fa20000080400090007800e3
:103ba00080bb20001e004000808f50002c00390098
:103bb0001e00900080004000a0fa2000008040001d
:103bc0009000780000fa2000808f500024003e0012
:103bd0001e0090008000400000fb2000808040001c
:103be00020f02f00800878001e0090008000400028
:103bf000a0fa2000008040001000780001002000a2
:103c000020079800310798002e009000be00900019
:103c10004a09dd00c601de00830171004a01dd00b2
:103c20000000220011fd2f000200400083804800a8
:103c3000823e2000030020005cf30700400798004c
:103c4000510798001e009000c200dd00808f210007
:103c5000008040004e019000de0190000288be000e
:103c60001e0090000000e800100798001e00900061
:103c7000e20f50006eff34000080fa0000000600e2
:103c80000200fa00e0b48000a0938800f0b4800045
:103c9000b093880000b58000c0938800307f80001a
:103ca000e10f500025003a000000eb00307f880053
:103cb0000000eb00607f88006000b800407f880053
:103cc000517f88000000eb00000f780018003700db
:103cd0001e007800800040004027210080804000c6
:103ce0000000eb00800878001e0078008000400093
:103cf00000fb20008080400010f02f00800878003a
:103d00001e0278001e00780080004000402721003d
:103d100000804000100078006101b900c220dd0081
:103d2000808f2100008040000288be001e0fe80046
:103d3000200020009e0f1000e5ff340071c68000b7
:103d400000408000808f50006a00320000408000f8
:103d500070c688006000b800407f8800517f8800ee
:103d600010002000607f88000000eb00307f88009a
:103d70000000eb00000f78005b0037001e007800a9
:103d800080004000402721000080400010007800a3
:103d90000000e00012003a001e00780080004000a1
:103da00000fb20008080400010f02f008008780089
:103db0001e0278001e00780080004000402721008d
:103dc00000804000100078006101b900c220dd00d1
:103dd000808f2100008040000288be004100370033
:103de0001e00780080004000402721000080400035
:103df0009000780000c02f00808f50001900340020
:103e00001e00780080004000402721000080400014
:103e1000100078000000e00012003d001e00780055
:103e20008000400000fb20008080400030f02f0028
:103e3000800878001e0278001e0078008000400094
:103e40004027210000804000100078006101b90087
:103e5000c220dd00808f2100008040000288be006b
:103e6000200037001e00780080004000402721001d
:103e700000804000100078000000e00019003400cd
:103e80001e00780080004000402721000080400094
:103e900090007800f03f2000808f500011003c001f
:103ea0001e0078008000400000fb20008080400061
:103eb00020f02f00800878001e0278001e00780095
:103ec0008000400040272100008040001000780062
:103ed0006101b900c220dd00808f21000080400018
:103ee0000288be001e0fe800200020009e0f100078
:103ef000a2ff34000080fa00000006000000fa0073
:103f00005fff07000080fa00000006000000fa00d2
:103f1000811f7800821f7800831f780021742000a1
:103f200062042000730520008248780083487800ee
:103f300042c7a900cf0178004f017800cf00780078
:103f4000e16820009140780000ccb30000c0600020
:103f50009041b3008ee6b700f168200091407800f0
:103f600000ccb30000c060004041b3008fe6b70052
:103f7000016920009140780000ccb30000c06000cf
:103f80006041b30090e6b7001169200091407800cd
:103f900000ccb30000c060007041b30091e6b700f0
:103fa000416a20009140780000ccb30000c060005e
:103fb0003040b300a4e6b700016d200091407800c6
:103fc00000ccb30000c060002041b300d0e6b700d1
:103fd000d16d20009140780000ccb30000c060009b
:103fe0003041b300dde6b700a16d200091407800bc
:103ff00000ccb30000c060004041b300dae6b70077
:10400000b16d20009140780000ccb30000c060008a
:104010005041b300dbe6b700b16c2000914078005e
:1040200000ccb30000c060006041b300cbe6b70035
:10403000c16c20009140780000ccb30000c060004b
:104040007041b300cce6b700416c2000914078008d
:1040500000ccb30000c060003040b300c4e6b7003d
:10406000113a8000000420000081700061042000eb
:104070007005200023742000814978008049780071
:10408000824978000080fa00000006000a00fa0069
:10409000000f7800110798001e0078002007980094
:1040a0002e0090000000e000040032002e0090007e
:1040b000e10f500012003200210037001e00900076
:1040c000300798003e0090000000e0000800320039
:1040d0003e009000e10f5000010032001800370050
:1040e000e822a900ea22a900ea22a9001400370068
:1040f000e822a900ea22a800ea22a800100037005e
:104100001e009000400798004e0090000000e00064
:10411000080032004e009000e10f50000100320014
:1041200007003700e802a900ea02a900ea02a90094
:1041300003003700e802a900ea02a800ea22a8006a
:104140000080fa00000006000000fa006fff070080
:1041500061198000000c2c0000807000601988003c
:1041600061198000000c2c0000806000601988003c
:1041700041168000f0ff2300008060004016880098
:1041800081168000f0ff2900008060008016880002
:10419000c1168000e00f2f0000806000c01688006c
:1041a000c1168000e00f200000807000c01688005b
:1041b00001178000f0f32f000080600000178800d6
:1041c00001178000000220000080700000178800a6
:1041d0004117800040fc2f000080600040178800dd
:1041e00081178000f0c32f000080600080178800d6
:1041f000e8a2a900d922a900d942a80011002000f4
:104200000000eb00a1ff07001100200010002000bb
:104210009eff07001b000700520307004d02070026
:104220005d0207003b020700670207006f020700fc
:104230006d0007009f000700d10007000301070081
:10424000350107006701070099010700cb0107004e
:10425000fd0107007102070093020700b502070085
:10426000d702070050000700520007005400070063
:1042700061030700490007002d0007000080fa00d5
:10428000000006000000fa00e0b4220070d98800a7
:1042900020b2220080d9880080b6220090d9880000
:1042a000a0812200a0d98800008a2200b0d988000d
:1042b00000942200c0d98800e09c2200d0d9880058
:1042c00000bf220000da880080ee220010da8800a9
:1042d00000f1220020da88000080fa0000000600c9
:1042e0000400fa00004f7800114798002247980018
:1042f0008cf207009ef207008af207001e40780049
:104300009df2070087f207001e4090009af2070016
:1043100084f207002e40900097f2070081f2070018
:104320009ff207007ff207000080fa0000000600fd
:104330000000fa0082c5b30021c0b30000c3b3007f
:10434000e7ff0700c2c3b30011c1b30000c3b3004d
:10435000e3ff070032c2b300f1c0b30000c3b300f3
:10436000dfff070032c2b30001c1b30000c3b300d6
:10437000dbff070000c1eb0031c1b30000c3b30095
:10438000d7ff070042c2b30021c1b30000c3b3008e
:10439000d3ff07000080fa00000006000000fa00ca
:1043a0000080fa00000006000000fa000080fa0019
:1043b000000006000000fa000080fa00000006007d
:1043c0000000fa0001052000f0232c0076f207001f
:1043d00054f207000080fa00000006000000fa0016
:1043e0000080fa00000006000000fa000000eb0068
:1043f000b00c8800f07c2000a00c880092c1bf00a7
:10440000f041b30092e1b70092e1a9001119200038
:104410009140780030ceb30000c060000024a000be
:1044200091e1b700011920009140780080cfb300de
:1044300000c060006040b30090e1b700f07c200055
:1044400001002000a0c68800b1c688000080fa00e4
:10445000000006000200fa00889fbe00000f7800ee
:104460001e0078006104b900a6c68000b7c68000af
:104470008800780006007800000ab80007c0b9007c
:10448000050178000001410009b0b90000014100b8
:10449000820278004629dd004a20de00000071001b
:1044a000caa8de00b00c88004f04be000080fa00ed
:1044b000000006000000fa000000eb00000d88007c
:1044c000f07c2000f00c88009cc1bf00f041b300dc
:1044d0009ce1b7009ce1a900b1192000914078004f
:1044e00030ceb30000c060000024a0009be1b70004
:1044f000a11920009140780080cfb30000c0600077
:104500006040b3009ae1b700f07c20000100200079
:10451000c0c68800d1c688000080fa0000000600ee
:104520000200fa00889fbe00000f78001e0078008d
:104530006104b900c6c68000d7c680008800780034
:1045400006007800000ab80007c0b900050178002d
:104550000001410009b0b900000141008202780069
:104560004629dd004a20de0000007100caa8de00f6
:10457000000d88004f04be000080fa000000060015
:104580000000fa000000eb00500d8800f07c2000d5
:10459000400d8800a6c1bf00f041b300a6e1b700fe
:1045a000a6e1a900511a20009140780030ceb30056
:1045b00000c060000024a000a5e1b700411a20005f
:1045c0009140780080cfb30000c060006040b3002d
:1045d000a4e1b700f07c200001002000e0c68800c4
:1045e000f1c688000080fa00000006000200fa0010
:1045f000889fbe00000f78001e0078006104b9009b
:10460000e6c68000f7c680008800780006007800c3
:10461000000ab80007c0b900050178000001410098
:1046200009b0b90000014100820278004629dd008e
:104630004a20de0000007100caa8de00500d88008c
:104640004f04be000080fa00000006000000fa00df
:104650000000eb00a00d8800f07c2000900d880089
:10466000b0c1bf00f041b300b0e1b700b0e1a900b4
:10467000f11a20009140780030ceb30000c06000f5
:104680000024a000afe1b700e11a200091407800bb
:1046900080cfb30000c060006040b300aee1b7005f
:1046a000f07c20000100200000c7880011c78800ae
:1046b0000080fa00000006000200fa00889fbe0099
:1046c000000f78001e0078006104b90006c7800062
:1046d00017c780008800780006007800000ab8003c
:1046e00007c0b900050178000001410009b0b90018
:1046f00000014100820278004629dd004a20de00e8
:1047000000007100caa8de00a00d88004f04be00a2
:104710000080fa00000006000000fa000000eb0034
:10472000f00d8800f07c2000e00d8800bac1bf00c9
:10473000f041b300bae1b700bae1a900911b200033
:104740009140780030ceb30000c060000024a0008b
:10475000b9e1b700811b20009140780080cfb30001
:1047600000c060006040b300b8e1b700f07c2000fa
:104770000100200020c7880031c788000080fa00af
:10478000000006000200fa00889fbe00000f7800bb
:104790001e0078006104b90026c7800037c780007a
:1047a0008800780006007800000ab80007c0b90049
:1047b000050178000001410009b0b9000001410085
:1047c000820278004629dd004a20de0000007100e8
:1047d000caa8de00f00d88004f04be000080fa0079
:1047e000000006000000fa000000eb00400e880008
:1047f000f07c2000300e8800c4c1bf00f041b3003f
:10480000c4e1b700c4e1a900311c20009140780048
:1048100030ceb30000c060000024a000c3e1b700a8
:10482000211c20009140780080cfb30000c06000c0
:104830006040b300c2e1b700f07c2000010020001e
:1048400040c7880051c788000080fa0000000600b9
:104850000200fa00889fbe00000f78001e0078005a
:104860006104b90046c7800057c7800088007800ff
:1048700006007800000ab80007c0b90005017800fa
:104880000001410009b0b900000141008202780036
:104890004629dd004a20de0000007100caa8de00c3
:1048a000400e88004f04be000080fa0000000600a1
:1048b0000000fa000000eb00900e8800f07c200061
:1048c000800e8800cec1bf00f041b300cee1b7003a
:1048d000cee1a900d11c20009140780030ceb30079
:1048e00000c060000024a000cde1b700c11c200082
:1048f0009140780080cfb30000c060006040b300fa
:10490000cce1b700f07c20000100200060c78800e7
:1049100071c788000080fa00000006000200fa005b
:10492000889fbe00000f78001e0078006104b90067
:1049300066c7800077c7800088007800060078008e
:10494000000ab80007c0b900050178000001410065
:1049500009b0b90000014100820278004629dd005b
:104960004a20de0000007100caa8de00900e880018
:104970004f04be000080fa00000006000000fa00ac
:104980000000eb00e00e8800f07c2000d00e8800d4
:10499000d8c1bf00f041b300d8e1b700d8e1a90009
:1049a000711d20009140780030ceb30000c060003f
:1049b0000024a000d7e1b700611d200091407800dd
:1049c00080cfb30000c060006040b300d6e1b70004
:1049d000f07c20000100200080c7880091c788007b
:1049e0000080fa00000006000200fa00889fbe0066
:1049f000000f78001e0078006104b90086c78000af
:104a000097c780008800780006007800000ab80088
:104a100007c0b900050178000001410009b0b900e4
:104a200000014100820278004629dd004a20de00b4
:104a300000007100caa8de00e00e88004f04be002e
:104a40000080fa00000006000000fa000000eb0001
:104a5000300f8800f07c2000200f8800e2c1bf00ea
:104a6000f041b300e2e1b700e2e1a900111e20002d
:104a70009140780030ceb30000c060000024a00058
:104a8000e1e1b700011e20009140780080cfb30023
:104a900000c060006040b300e0e1b700f07c20009f
:104aa00001002000a0c78800b1c788000080fa007c
:104ab000000006000200fa00889fbe00000f780088
:104ac0001e0078006104b900a6c78000b7c7800047
:104ad0008800780006007800000ab80007c0b90016
:104ae000050178000001410009b0b9000001410052
:104af000820278004629dd004a20de0000007100b5
:104b0000caa8de00300f88004f04be000080fa0003
:104b1000000006000000fa000000eb0020088800fa
:104b20004110200091407800f0ccb30000c060003c
:104b30000044a00004e1b7000000eb00000888007a
:104b4000f07c20001008880005e1a8000080fa0031
:104b5000000006000000fa000000eb00800888005a
:104b60000111200091407800f0ccb30000c060003b
:104b70000044a00010e1b7000000eb0030088800fe
:104b8000f07c20006008880084e0a90011e1a80002
:104b90000080fa00000006000000fa00000120007a
:104ba000900888000000eb00500888007002200088
:104bb000700888008500a9009500a80013e1a800ee
:104bc0000080fa00000006000000fa00000120004a
:104bd000f00888000000eb00a00888008760a900aa
:104be0001fe1a8000080fa00000006000000fa00a3
:104bf00000012000000988000000eb00c0088800c8
:104c000080492700e00888008780a9009780a900d4
:104c100021e1a9000080fa00000006000200fa006d
:104c200002003700200a8000000f780040c1bf005a
:104c3000684060000004e000faff3a002114200000
:104c40009140780000ceb30000c0600042e1b700a0
:104c5000111420009140780030ceb30000c06000f5
:104c60000034a00041e1b700011420009140780019
:104c7000f0c9b30000c0600040e1b70042e1a90004
:104c8000011420009140780080cfb30000c0600084
:104c90003040b30040e1b7008420a9009420a80070
:104ca0000080fa00000006000200fa00020037004f
:104cb000600a8000000f780048c1bf0068406000b3
:104cc0000004e000faff3a00a114200091407800af
:104cd00000ceb30000c060004ae1b700911420008c
:104ce0009140780030ceb30000c060000034a000d6
:104cf00049e1b7008114200091407800f0c9b30069
:104d000000c0600048e1b7004ae1a900811420001a
:104d10009140780080cfb30000c060003040b30005
:104d200048e1b70084a0a90094a0a8000080fa0080
:104d3000000006000200fa0002003700a00a80000e
:104d4000000f780050c1bf00684060000004e00020
:104d5000faff3a00211520009140780000ceb30000
:104d600000c0600052e1b7001115200091407800aa
:104d700030ceb30000c060000034a00051e1b700a5
:104d80000115200091407800f0c9b30000c0600018
:104d900050e1b70052e1a9000115200091407800d0
:104da00080cfb30000c060003040b30050e1b700d6
:104db00088a0a90098a0a8000080fa0000000600c2
:104dc0000200fa0002003700e00a8000000f7800bd
:104dd00058c1bf00684060000004e000faff3a00dc
:104de000a11520009140780000ceb30000c0600003
:104df0005ae1b700911520009140780030ceb30001
:104e000000c060000034a00059e1b7008115200007
:104e100091407800f0c9b30000c0600058e1b700cd
:104e20005ae1a900811520009140780080cfb3009d
:104e300000c060003040b30058e1b70088c0a9004e
:104e400098c0a8000080fa00000006000200fa00e6
:104e500002003700200b8000000f780060c1bf0007
:104e6000684060000004e000faff3a0021162000cc
:104e70009140780000ceb30000c0600062e1b7004e
:104e8000111620009140780030ceb30000c06000c1
:104e90000034a00061e1b7000116200091407800c5
:104ea000f0c9b30000c0600060e1b70062e1a90092
:104eb000011620009140780080cfb30000c0600050
:104ec0000004a00060e1b70088e0a90098e0a80015
:104ed0000080fa00000006000200fa00020037001d
:104ee000600b8000000f780068c1bf006840600060
:104ef0000004e000faff3a00a1162000914078007b
:104f000000ceb30000c060006ae1b7009116200037
:104f10009140780030ceb30000c060000034a000a3
:104f200069e1b7008116200091407800f0c9b30014
:104f300000c0600068e1b7006ae1a90081162000a6
:104f40009140780080cfb30000c060000004a00052
:104f500068e1b7008900a9009900a8000080fa0064
:104f6000000006000000fa0023c3bf007f4060007d
:104f700023e3b70010c0b30024e3b70001322000e0
:104f80009140780000ceb30000c0700020e3b7006d
:104f9000513220009140780000ceb30000c0600084
:104fa000f040b30025e3b7001132200091407800b3
:104fb000c0cfb30000c0600021e3b7002132200061
:104fc0009140780030ccb30000c06000c1c2b30093
:104fd0000140700022e3b700f0f32300801988003d
:104fe0002343a80021e3a80095a0a80085a0a9005c
:104ff0000080fa00000006000000fa0040042000d3
:10500000401188000000eb00001188002062a80019
:105010000000eb001011880021e2a8002342a80044
:105020008580a9009580a8009560a8000080fa00fe
:10503000000006000000fa00889fbe008420a9003e
:1050400038003700200a8000208288009484800085
:105050002182800010828000008050006101b80031
:10506000c220dd00a0042100008040000288be00b4
:1050700090848000c200dd00a00421000080400078
:105080001000be00e00f5000e08f58000300350014
:10509000d08180000000e0001a003200958480007a
:1050a00090848000c200dd00a00421000080400048
:1050b0001004be00d08180006103b8008600780033
:1050c0000080eb000009b8006030b90003027800ee
:1050d000000242000080eb0000b8b900000242006c
:1050e000840178000801410089814900c228dd005f
:1050f000a0042100008040000288be000000eb00f8
:10510000d0818800208280001082880090848000f6
:105110000000e800908488009084800063006000b4
:105120009084880040c1bf00684060000004e00037
:10513000c4ff3a004f04be000080fa0000000600e1
:105140000400fa0084a0a90047003700600a80002c
:1051500001002000008fbe001082800001002000ae
:105160003e011000ae8118000200be00e00f5000aa
:10517000e08f580010003d00e08180006103b8001e
:10518000860078000080eb000009b8006030b900ac
:1051900003027800000242000080eb0000b8b90072
:1051a00000024200840178001e0f41005e97490012
:1051b0000000eb00e0818800908480000000e9009e
:1051c00063006000c200dd00a004210000804000f8
:1051d0001002be0010828000010020003e0110007d
:1051e000ae8118000400be00f0ed07000001be0013
:1051f0001000200001002000800f5100818f590015
:1052000007003c009084800080004000a00721003f
:10521000808040000080eb008008780006003700a6
:105220009084800080004000a00721008080400022
:105230001000200080087800429380005393800083
:105240009084800080004000a00721000080400082
:1052500010007800cf80de0002004000838048000c
:10526000409388005193880048c1bf0068406000a7
:105270000004e000b5ff3a000080fa0000000600dc
:105280000000fa00889fbe0088a0a9003c003700fb
:10529000a00a800040828800a484800041828000af
:1052a00030828000008050006101b8004220dd00a3
:1052b000f0004000a0042100008040000288be00f1
:1052c000a08480004200dd00f0004000a004210026
:1052d000008040001000be00e00f5000e08f58003a
:1052e00003003500f08180000000e0001c00320067
:1052f000a5848000a08480004200dd00f000400012
:10530000a0042100008040001004be00f081800055
:105310006103b800860078000080eb000009b80047
:105320006030b90003027800000242000080eb0008
:1053300000b8b90000024200840178000801410071
:10534000898149004228dd00f0004000a0042100ce
:10535000008040000288be000000eb00f081880061
:105360004082800030828800a08480000000e80035
:10537000a0848800a084800063006000a08488006e
:1053800050c1bf00684060000004e000c0ff3a0068
:105390004f04be000080fa00000006000400fa007e
:1053a00088c0a9004b003700e00a800001002000ff
:1053b000008fbe0030828000010020003e011000fe
:1053c000ae8118000200be00e00f5000e08f5800d0
:1053d00010003d00008280006103b8008600780064
:1053e0000080eb000009b8006030b90003027800cb
:1053f000000242000080eb0000b8b9000002420049
:10540000840178001e0f41005e9749000000eb0008
:1054100000828800a08480000000e9006300600032
:105420004200dd00f0004000a004210000804000a8
:105430001002be0030828000010020003e011000fa
:10544000ae8118000400be0058ed07000001be0048
:105450001000200001002000800f5100818f5900b2
:1054600008003c00a084800000004000e8004000ec
:10547000a0072100808040000080eb0080087800b9
:1054800007003700a084800000004000e8004000d2
:10549000a0072100808040001000200080087800d4
:1054a0006293800073938000a0848000000040001d
:1054b000e8004000a00721000080400010007800b4
:1054c000cf80de00020040008380480060938800a7
:1054d0007193880058c1bf00684060000004e0007c
:1054e000b1ff3a000080fa00000006000400fa0054
:1054f00088e0a900200b800010079800b081800090
:105500006103b800860078000080eb000009b80055
:105510006030b90003027800000242000080eb0016
:1055200000b8b900000242008401780082007800cf
:105530001e0090008080400080c6800000805000e7
:10554000000f78000000eb00b0818800002c2100e3
:105550009e0f100005003e00f06320009e0f10001b
:10556000020036001e007800507d88001e0090006a
:1055700080c688006000b800407f8800517f8800a6
:1055800010002000607f88000000eb00307f880062
:105590000080fa00000006000400fa008900a9005b
:1055a000600b800010079800c08180006103b80084
:1055b000860078000080eb000009b8006030b90078
:1055c00003027800000242000080eb0000b8b9003e
:1055d0000002420084017800820078001e009000e2
:1055e0008080400090c6800000805000000f78004e
:1055f0000000eb00c0818800002c21009e0f1000ed
:1056000005003e00f06320009e0f100002003600ef
:105610001e007800607d88001e00900090c6880003
:105620006000b800407f8800517f88001000200093
:10563000607f88000000eb00307f88000080fa0067
:10564000000006000000fa008760a900b081800019
:105650000000e800b0818800c08180000000e80000
:10566000c0818800d08180000000e800d0818800df
:10567000e08180000000e800e0818800f081800087
:105680000000e800f0818800008280000000e8004f
:10569000008288000080fa00000006000200fa0084
:1056a0008500a90030088000000f7800807020007d
:1056b0009e0f100004003400f07220009e0f1000b6
:1056c00001003c002043a8000080fa000000060012
:1056d0000200fa008780a90060a180000000e800b5
:1056e00060a1880060a18000e20f50000800340033
:1056f0009780a90021e1a9000000eb00c008880004
:105700000000eb0030a188000000eb0060a18800e1
:1057100090a080000000e0002f003a0052c88000f6
:1057200063c88000b08f200001002000800f51006e
:10573000818f5900280034001000200090a08800bc
:1057400010002000608088000000eb00708088005e
:105750000000eb00808088000000eb00000f780064
:10576000050037001e00780025ee07001e007800b7
:1057700033ee07001e0fe800200020009e0f1000ef
:10578000f8ff34000000eb0032fb07000000eb00e4
:1057900063fb0700cbc2a90000000000db02a900e8
:1057a0000000eb0091fb07000000eb00c2fb0700cc
:1057b000f2c2a90000000000f302a9000000eb0003
:1057c000f0fb07000000eb0021fc0700d3a2a900ba
:1057d00000000000d3c2a9000080fa00000006000b
:1057e0000800fa002043a90085a0a900c487800012
:1057f00081188000f03f2000010050006101b800d6
:105800004220dd00f00040008009210000804000bf
:105810000288be00c487800091188000f03f2000fd
:10582000010050006101b800c220dd0080092100a4
:10583000008040000288be00c487800051188000ac
:10584000f03f2000010050006101b8004220dd005f
:10585000010220008080400080092100008040007b
:105860000288be00c487800041188000f03f2000fd
:10587000010050006101b8004220dd00010320005a
:105880008080400080092100008040000288be0026
:105890000000eb00f0938800919480007018800065
:1058a0000001780081804000202821000080400015
:1058b0000208780091948000b01880000001780000
:1058c00001804000e80040002028210000804000c6
:1058d0000208780051898000a01880006101b8009a
:1058e000c208dd00a00f2100008040000288be0039
:1058f00051898000301880006101b8004208dd0045
:10590000f0004000a00f2100008040000288be008f
:1059100051898000601880006101b8004208dd00f4
:105920000102200080804000a00f21000080400084
:105930000288be00f2948000201880008001780068
:1059400061292100020041000100400003087800a5
:10595000419580001018800000017800818040008f
:10596000e09021000080400002087800419580000e
:10597000001880000001780001804000e80040002d
:10598000e0902100008040000208780050898000eb
:10599000c200dd00a00f2100008040001001be0009
:1059a000508980004200dd00f0004000a00f21007f
:1059b000008040001000be000201400083814800ca
:1059c000508980004200dd000102200080804000fc
:1059d000a00f2100008040001000be000200400027
:1059e0008380480050c8880061c8880052c8800081
:1059f00063c88000b08f200001002000800f51009c
:105a0000818f59000400340021e1a8009780a8008c
:105a10001000200030a18800409580000000e800c0
:105a200040958800409580006300600040958800a4
:105a3000f09480000000e800f0948800f09480006a
:105a400063006000f0948800909480000000e800fb
:105a50009094880090948000630060009094880087
:105a6000c08780000000e800c0878800c0878000f1
:105a700063006000c0878800508980000000e80053
:105a80005089880050898000630060005089880038
