:020000040000fa
:080000002004040000000000d0
:020000040000fa
:100840004f742100207f2400000188000000000078
:100850000c000700e0352400010020001f00070005
:10086000000020000000e000020032000000020052
:1008700000000000584c0200000000000040da00b8
:100880000000fe004440a900c00a20000000e00073
:100890000300320000002000a00188004440a800ae
:1008a00000000600f03fb1000180b10006003500f5
:1008b000ee03090000000000403fb1000180b100dc
:1008c000fbff3d001000b000203fb00002003500eb
:1008d000008009000000000000000600910188006f
:1008e000800078000000eb0015003700e280400037
:1008f00032a0b4009101ba00e280400032a0b400fe
:100900009102ba00e280400032a0b4000002eb0085
:10091000472bde00f507b200602ce10004003a002e
:100920000059eb008301e900fdff3e0004003700a1
:100930006128e100010032000082eb0004000700a2
:100940001101ba000200e000e8ff3a0000000600d2
:100950003159ba008301e9000c0032002159ba0074
:100960008301e900080032000400e00003003a00bf
:10097000e280400032a0b400f5ff370011d9ba0080
:100980008301e900faff3a008100e800e1804000bd
:1009900032a0b40000000600c21b040000000000ea
:1009a0005c52040000000000aa20040000000000c7
:1009b000e8250400000000003200f80091018800e2
:1009c000023b88000008bb000500fc005105200028
:1009d000313b8800a10a2000313b880061e7a80074
:1009e00000000000000000003200f90000000600d6
:1009f0000400a100010037000400a0003200f8004c
:100a00009101880011002400013b8800f10f2000b3
:100a10003208bb000400a700b20078000198bb00b8
:100a20008301e900faff3a00680151000400a700c1
:100a300068015100680050001208bb00e2ff370057
:100a4000f30f20003200f8009101880031002400eb
:100a5000013b88000208bb000388bb00daff3700b7
:100a60003200f800003b8800d7ff3700889fbe00a7
:100a70008a9fbe00010578000100e00004003500f7
:100a800008003c000000e0002000320005003700b4
:100a900060001000e080180002003b0001f02c0014
:100aa0001a0037000004be006011b8006b09200076
:100ab0000982cf00020039000882cf000441b00053
:100ac000694252000e00320008003b008281710032
:100ad000610164008904d1000884d3008b05e8001b
:100ae0000442e800f9ff3a0005003700080444001a
:100af00089844c008b05e9000442e900fbff3a00c1
:100b0000d90007000af0a70001f0a0004f05be00c1
:100b10004f04be0000000600889fbe008a9fbe00f2
:100b20008c1f7800f6000700fd00330003866c0080
:100b30006450e1002e0032006420e10033003200f6
:100b40006150e1002f0032006120e10031003200ed
:100b500085855500eb07b00009002000080420003f
:100b6000050037000804440089844c000a00310065
:100b70000603430087834b000001530081815b0023
:100b8000f8ff33000203be000800a0000804440080
:100b900089844c00f6ff3900c639dd0083017300fb
:100ba00001003200130020008904d1000884d30022
:100bb0000998a300050032000800a7000300a00068
:100bc0008904d1000884d3008b05e8008904d10092
:100bd0000884d3000001eb000281d200a2000700cc
:100be00001f0a1000cf0a70001f0a000d500370033
:100bf0006420e100d70032000801be000200be0000
:100c0000f7ff37006120e100d20032006000b80039
:100c1000f3ff37000000200001f82700f0ff370045
:100c200003f0a200889fbe008a9fbe008c1f780040
:100c3000b3000700ba0033006450e1004f003200f7
:100c40006420e1005200320003826c0007003b0088
:100c50000905d0000306d000820f54000c065d0089
:100c60000200390002003200890178000306780092
:100c70008582550004003d000003fd008103fd0056
:100c80008502ea008b854200840f720002003b005f
:100c900060001000e08018006011b8000005eb0053
:100ca0007a28e1000a00390006007800c75ddd00ff
:100cb000f707b200878075002d0037008281710030
:100cc0000a017800610560008180d1000080d300b6
:100cd0008502e900f9ff3b000604400087844800d4
:100ce00002003b0060041400e0841c000988a3009b
:100cf000070032008a817100828171006101640005
:100d00008904d1000884d3008b05e8001700370060
:100d10000978a30013003a000b00e0001300340030
:100d20008b05e9000804440089844c000a447400df
:100d30000978a3000d003a000b00e0000700340022
:100d40008b05e9000804440089844c0001003a0046
:100d50000b0020000978a300f7ff32000001eb0030
:100d600002003700828171000a0178003e0007000e
:100d70000cf0a70001f0a000720037006420e10031
:100d800002003a00838f6c00720033000801be003d
:100d90000200be006b003700889fbe008a9fbe0025
:100da0008c1f7800560007005d00330003866c003e
:100db0006450e100240032006420e100270032008a
:100dc0006150e100220032006120e1002100320088
:100dd0008b854200eb07b1000134b800003ab8003f
:100de0000804420089844a00013ab8000030b80083
:100df0008880400009014a000400330000004000e0
:100e000081804800020149008b05e900c909dd0025
:100e1000830170000100320013002000c814de00be
:100e20004814dd004709de001200b200c808de00e9
:100e3000088470000c00070001f0a1000cf0a7006e
:100e400001f0a0003f0037006120e10041003200c6
:100e50000801be000200be00f7ff37006150e1004c
:100e6000fcff3a003b003700810020006180550004
:100e70000b003d000b00200061fe2f000100e1008f
:100e80001d00340082817100610164008904d10079
:100e90000884d3000000e800faff3a007100200047
:100ea000610064000300700002006000090032006d
:100eb00061044400e0844c000988a500050032006c
:100ec0008b05e8006808e10002003a008904d100bf
:100ed0000884d300f20f20000258e10005003d0015
:100ee000c75ddd00f907b200898075000800780051
:100ef000000006000bf827008b00780000000500ba
:100f00000004be00160007000003be000405be007a
:100f10000200be0012000700844f750000000600aa
:100f20000200be006450e100050036006420e100cc
:100f3000020036000968a30001003a000800be0064
:100f40000160a0004f0678004f05be004f04be00b0
:100f500000000600f0ff2f00f1ff2700f9ff370027
:100f6000c70ade00f107b200f50fb2000800320038
:100f7000e1cf4200020032000170a0002400050011
:100f8000810f7000010032000408050044000500d4
:100f9000810f700002003a00140005008502e9008c
:100fa0000000400081c04800fcff3b000170a00031
:100fb0002400050016c2bf000008a300fdff3a0090
:100fc00016c2bf000018a300faff3a0016c2bf0005
:100fd0000028a300f7ff3a0016c2bf000038a300a4
:100fe000f4ff3a0016c2bf000048a300f1ff3a0028
:100ff00019c2bf000068a300eeff3a00000006001f
:101000001602a800000006000080fb009010880077
:1010100018c2bf0001c8b300014060000080fb009f
:101020000000e9004f00de000000e90000000600bb
:101030001622a800000006001662a80016c2bf0013
:101040000038a300fdff3a0018c2a90080108000fc
:101050000080fb000000060016a2a9001682a8006e
:101060000000060016a2a8001682a80000000600d4
:101070001642a800000006002110880030108800e9
:101080000000060006c2bf000008a300fdff3a00f2
:1010900006c2bf000018a300faff3a0006c2bf0054
:1010a0000028a300f7ff3a0006c2bf000038a300e3
:1010b000f4ff3a0006c2bf000048a300f1ff3a0067
:1010c00009c2bf000068a300eeff3a00000006005e
:1010d000a1108800b0108800000006000602a800d9
:1010e000000006000080fb001010880008c2bf004e
:1010f00001c8b300014060000080fb000000e9006f
:101100004f00de000000e900000006000642a800d3
:10111000000006000662a80006c2bf000038a30057
:10112000fdff3a0008c2a900001080000080fb000b
:101130000000060006a2a8000682a8000000060023
:1011400076c2bf000008a300fdff3a0076c2bf00d0
:101150000018a300faff3a0076c2bf000028a300df
:10116000f7ff3a0076c2bf000038a300f4ff3a0050
:1011700076c2bf000048a300f1ff3a0079c2bf0069
:101180000068a300eeff3a00000006007602a80007
:10119000000006000080fb009013880078c2bf00aa
:1011a00001c8b300014060000080fb000000e900be
:1011b0004f00de000000e900000006007642a800b3
:1011c000000006007662a80076c2bf000038a300c7
:1011d000fdff3a0078c2a900801380000080fb0068
:1011e0000000060076a2a8007682a8000000060093
:1011f0007622a8000000060076a2a9007682a80048
:10120000000006008001eb000200370061f0790069
:101210008301e800828f5100fcff3a0000000600c5
:101220000400fa00e0bf9f00e481570081297800a4
:101230000002eb000f0037006fb897009040780075
:101240007fb89700104078000402e80080cf50007b
:10125000040032008180fb000080fb000080500011
:10126000070037006fb897000000e800e0bf9f005c
:101270009309e800820f5200efff3a000000eb00f4
:101280000080fa000000060000027800808f500005
:101290000a00310082814000808f51000700360033
:1012a000020240008000eb00436278008100e80009
:1012b000828f500007003200fbff37000200e00081
:1012c0000400320002814000315a7800828f5000c1
:1012d000fdff3a00000006008001eb00020037002d
:1012e000817178008301e800828f5100fcff3a0091
:0412f00000000600f4
:020000040000fa
:020000040005f5
:0457f8009e430000cc
:020000040000fa
:020000040005f5
:0457fc00fd3e00006e
:020000040000fa
:10000800e2030000e2030000e2030000e203000054
:10001800e2030000e2030000e2030000e203000044
:10002800e203000020530000e203000062520000d7
:10003800e203000046530000e2030000885200007b
:10004800ae520000e2030000e20300002a54000060
:100058005054000004540000e2030000e2030000d2
:10006800e203000076540000e20300002c1f0000a9
:10007800e2030000e2030000e2030000e2030000e4
:10008800e2030000e2030000e2030000d452000093
:10009800fa520000e2030000e2030000e20300005d
:1000a800e2030000e2030000e2030000e2030000b4
:1000b800e20300006c53000092530000b8530000a4
:1000c800de530000e2030000e2030000e203000048
:1000d800e2030000e2030000e2030000e203000084
:1000e800e2030000e20300009c540000e203000069
:1000f800e2030000e2030000e2030000e203000064
:10010800e2030000e2030000e2030000e203000053
:10011800e2030000e2030000e2030000e203000043
:10012800e2030000e2030000e2030000e203000033
:10013800e2030000e2030000e2030000e203000023
:10014800e2030000e2030000e2030000e203000013
:10015800e2030000e2030000e2030000e203000003
:10016800e2030000e2030000e2030000e2030000f3
:10017800e2030000e2030000240a0000e20300009a
:10018800e2030000e2030000e2030000e2030000d3
:10019800e2030000e2030000e2030000e2030000c3
:1001a800e2030000e2030000e2030000e2030000b3
:1001b800e2030000e2030000e2030000e2030000a3
:1001c800e2030000e2030000e2030000e203000093
:1001d800e2030000e2030000e2030000e203000083
:1001e800e2030000e2030000e2030000e203000073
:0801f800e2030000e203000035
:020000040000fa
:10020800e2030000e2030000e2030000e203000052
:10021800e2030000e2030000e2030000e203000042
:10022800e203000020530000e203000062520000d5
:10023800e203000046530000e20300008852000079
:10024800ae520000e2030000e20300002a5400005e
:100258005054000004540000e2030000e2030000d0
:10026800e203000076540000e20300002c1f0000a7
:10027800e2030000e2030000e2030000e2030000e2
:10028800e2030000e2030000e2030000d452000091
:10029800fa520000e2030000e2030000e20300005b
:1002a800e2030000e2030000e2030000e2030000b2
:1002b800e20300006c53000092530000b8530000a2
:1002c800de530000e2030000e2030000e203000046
:1002d800e2030000e2030000e2030000e203000082
:1002e800e2030000e20300009c540000e203000067
:1002f800e2030000e2030000e2030000e203000062
:10030800e2030000e2030000e2030000e203000051
:10031800e2030000e2030000e2030000e203000041
:10032800e2030000e2030000e2030000e203000031
:10033800e2030000e2030000e2030000e203000021
:10034800e2030000e2030000e2030000e203000011
:10035800e2030000e2030000e2030000e203000001
:10036800e2030000e2030000e2030000e2030000f1
:10037800e2030000e2030000240a0000e203000098
:10038800e2030000e2030000e2030000e2030000d1
:10039800e2030000e2030000e2030000e2030000c1
:1003a800e2030000e2030000e2030000e2030000b1
:1003b800e2030000e2030000e2030000e2030000a1
:1003c800e2030000e2030000e2030000e203000091
:1003d800e2030000e2030000e2030000e203000081
:1003e800e2030000e2030000e2030000e203000071
:0803f800e2030000e203000033
:020000040000fa
:1004000000000000000000000000000000000000ec
:1004100000000000000000000000000000000000dc
:1004200000000000000000000200fa00f0918000cf
:10043000000f780020be2000800078001e007800a9
:10044000110098009e00780000ccb300804878002e
:100450001e0078001040900002c4b300824060008b
:100460001e007800114098001e0078009040900017
:1004700080c8b30080c070001e0078001140980052
:10048000e023210080007800e02321001040780064
:100490000024a200804878001e0078000080fa0046
:1004a000000006001000fa005007980000402000ed
:1004b0000100200030079800410798005e0090007e
:1004c0004600dd006101b8003e009000ce009000c3
:1004d0000200400083804800100798002107980020
:1004e0001e009000ae009000f21f200003002000cc
:1004f0000002780081027800020078008300780012
:1005000000016200018062006102b8006407980087
:10051000750798006e009000fe009000c000dd009e
:100520000000200060079800710798006e0090009e
:10053000fe0090006112b8006407980075079800eb
:100540006e019000fe019000020070008380700038
:10055000e00f5000e08f580004003a001e009000a9
:10056000ae00900022042400130107000000eb00fd
:10057000000f78000f003700e2cbbf000081fb00c6
:100580001e0078006300b900000041001002be00a8
:100590001e0078006101b8001e009000ae009000bf
:1005a00002004000838048000401be0025010700ce
:1005b0001e0fe800f00320009e0f1000eeff360033
:1005c0000080fa00000006000200fa0042c0bf00ee
:1005d0007f40600001c6b3000140700042e0b700f8
:1005e0000000eb00000f78008fff0700d097880015
:1005f0008ac4bf00684060000004e00019003200b7
:100600008000200050248800d09780000000e00087
:1006100006003200d09780009040900000c8b300e0
:1006200000c060000004e0000e003a001e007800e8
:100630001e0fe8009bff07001e0078004600dd004b
:100640006101b800a04521001000be00800f5100dc
:10065000818f5900010039000000fe0072ff070081
:0c066000d09788008ec0a900e1ff370091
:020000040000fa
:10080000526f0000626f00007465000078200000e5
:1008100046690000726d000077610000726500009b
:100820002062000065670000696e00007320000010
:1008300068650000726500000a0d000000000000fd
:020000040000fa
:10066c0009020000200000000101000000c0000091
:10067c00320900000400000000020000ffff00002f
:10068c00ff0000000705000001010000ffff000053
:10069c00010700000581000001ff0000ff010000c0
:1006ac0004030000010000001a03000052000000c7
:1006bc006f000000620000006f000000740000007a
:1006cc0065000000580000002c0000002000000015
:1006dc00490000006e000000630000002c030000c5
:1006ec0041000000700000007200000020000000bb
:1006fc003200000033000000200000003200000037
:10070c00300000003100000032000000200000002a
:10071c0031000000360000003a00000032000000fa
:10072c00370000003a0000003400000036000000e2
:10073c000000000036830000568300005a8300003e
:10074c0074830000417000007220000032330000fe
:10075c002032000030310000320000003136000041
:10076c003a320000373a0000343400000000000038
:10077c0000000000244700005047000047410000e3
:10078c00000000000000000000000000000000005d
:10079c0000000000800000000000000000000000cd
:1007ac0000010000bfff0000ffff0000ffff000082
:0807bc00ffff0000ff00000038
:020000040000fa
:1012f4000200fa009ec0a900f00f200070248800ac
:10130400f00f2000502488002000200030258800a1
:101314000000eb00402588008644a900f009200065
:1013240080248800f0092000602488008804a80034
:10133400002021004800de00c02488009424a80076
:101344000000eb00b02488000000eb00602588005a
:101354009424a9000040eb00004f780007003700f8
:101364001e80fb00c200dd0000202100008140003f
:101374006000b8000089be001e4fe80070c0b300d2
:101384009e4f1000f6ff3600d00020005025880044
:101394000200370080002000502488008ac4bf0067
:1013a400684060000004e000faff3a000040eb00ef
:1013b40022f2b7000040eb002df2b7002ed2bf009e
:1013c400604060002ef2b7002fd2bf006040600082
:1013d4002ff2b70094a4a9000040eb00004f78005e
:1013e4000d0037001e80fb008000400020232100f8
:1013f400808040000000eb00800878001e80fb0025
:1014040080004000c0232100808040000000eb00e9
:10141400800878001e4fe80010c0b3009e4f1000f3
:10142400f0ff360080202100909188000040eb00fe
:101434002af2b7000000eb00409188000080fa0017
:10144400000006003600f800809fbe00829fbe00a8
:10145400849fbe00869fbe003400f8000000200078
:10146400a00188000200fa0040918000e10f5000c2
:101474000a003a0094c4bf000044b2000004e00033
:1014840006003a00f00f2000502488008c04a800c5
:101494008c84a800200020004091880080c4bf00f4
:1014a400704060000004e0000700320082c4bf0006
:1014b400704060000004e0000300320000012000de
:1014c40000248800a200070088c4bf0062406000b6
:1014d4000004e000020032008ec0a900730037004f
:1014e4008ac4bf00614060000004e00018003200bc
:1014f4008cc4bf00614060000004e00014003200ae
:101504007bff07009ec0a800400020004091880097
:10151400c02421001090880080c0b30000f2b700fe
:10152400112021009140780030c0b30000c0600059
:1015340001f2b7001120210091407800c0c8b30027
:1015440000c0700001f2b700100020005024880091
:101554008ac4bf00704060000004e000070032004d
:101564008cc4bf00704060000004e000030032003f
:101574006d00070000012000502488008ac4bf00c9
:10158400644060000004e0000a0032008cc4bf0024
:10159400644060000004e0000600320012002000f5
:1015a4008000eb00300720005e220700400020008e
:1015b400502488008ac4bf0001c8b3000140600001
:1015c4000004e000060032008cc4bf0001c8b30070
:1015d400014060000004e000010032003b0007000d
:1015e4008ac4bf00624060000004e0000a003200c8
:1015f4008cc4bf00624060000004e00006003200ba
:10160400120020008000eb00f0ff270045220700b5
:10161400f00f20007024880040918000e30f5000f8
:1016240002003e008ec0a900200037008cc4bf0019
:10163400684060000004e0001b0032000040eb0042
:10164400004f7800150037008ac4bf00684060006e
:101654000004e000140032009024800044f2b7003b
:10166400800020005024880044d2bf008080fb000a
:10167400000f2000008060000000e00002003a003b
:101684003d00070004003700412421000001eb0065
:1016940020072000232207001e4fe80030c0b300bb
:1016a4009e4f1000e8ff36008ec0a9000080fa00ab
:1016b4003400f9004f03be004f02be004f01be00cc
:1016c4004f00be003600f900004006000000fa009a
:1016d400aac4bf00624060000004e0000e003200b3
:1016e400c09180009040900000c8b30080cf5000ab
:1016f40008003a00909180009040900040c8b300e8
:1017040080cf500003003a00c1918000c0c8b300ec
:1017140090409800aa24a9000008200050248800c2
:101724000080fa00000006000000fa008284a8008d
:1017340000012000502488000001eb008000eb0031
:1017440050072000f72107000080fa00000006007f
:101754000000fa000001eb008000eb0040072000cd
:10176400f02107008284a9000001200000248800e1
:101774000080fa00000006000200fa0044d2bf0014
:101784008080fb00b0ff2f00008060000000e000bc
:1017940035003a0044d2bf008080fb00c00f200017
:1017a400008060004280de004200dd00800078009e
:1017b4000020210000804000c0918800c09180007a
:1017c400d0918800a1232100a0232100104078009b
:1017d4000024a20080487800c0918000104090004e
:1017e400c2c3b3008240600040c3b30080cf500046
:1017f4001b003a00c0918000900090004025210019
:10180400808f500014003a00c1918000c024210050
:10181400900098000040eb00004f78000b00370068
:101824001e80fb0080007800c0242100008140005d
:101834001e80fb00800078004025210000804000cd
:1018440010407800004978001e4fe80070c0b300d3
:101854009e4f1000f2ff36000c000700090037000d
:10186400280007000700370044d2bf008080fb0037
:10187400b0ff2f0000806000e80f500001003a0024
:10188400380007000080fa00000006000000fa009b
:10189400909180009040900000c8b30000c06000a8
:1018a4000004e00003003200919180000040eb004e
:1018b400904098000040eb0040f2b7000040eb007d
:1018c40041f2b70023d2bf006040600023f2b700aa
:1018d40024d2bf006040600024f2b7000040eb0057
:1018e40022f2b700780007000001eb008000eb0053
:1018f400300020008b2107000e0207000080fa0050
:10190400000006000000fa0041d2bf00e24f500080
:1019140002003a00110307001000370046000700d8
:10192400309280000000e0000a003a00d19180006b
:1019340080c0b30080487800d1918000c024210089
:1019440090009800d1918000c0c8b30090409800e6
:10195400020037000000eb00309288000080fa009b
:10196400000006000200fa009091800010409000f0
:101974000080fb004600de0061406000004f7800fc
:101984002123210020232100104078000024a200fc
:101994008048780040918000e80f50000b003a0026
:1019a4004ed2bf000080fb00b0248800b024800029
:1019b4000000e00003003200000120004091880094
:1019c40002003700400020004091880041d2bf004f
:1019d400e14f500015003a0091918000402521000c
:1019e400900098005c02070040d2bf00e24f500014
:1019f40004003a009191800040c8b30090409800e0
:101a04000b0037001e04e00004003a0091918000ae
:101a140080ccb3009040980005003700919180007d
:101a240080c8b3009040980001003700020007000e
:101a34000080fa00000006000200fa000040eb00fb
:101a440041f2b700919180000040eb009040980073
:101a5400909180000020a200000f78009e00780082
:101a64000040eb0090409800d12221009140780082
:101a740000c8b30000c060000004e00010003200a1
:101a840030d2bf008080fb0031d2bf000080fb0059
:101a94004800dd00010070000000e0000700320093
:101aa40030d2bf008080fb0031d2bf000080fb0039
:101ab4004800dd0001007000000001002df2a900c3
:101ac4000080fa00000006000400fa004cd2bf00b7
:101ad4000046b2000004e00058003a004dd2bf00b6
:101ae4000080fb006101b900028fbe00b00020003d
:101af400010020001e01be00800f5100818f59009b
:101b04004e003e001e00be000060010024003700ad
:101b1400250037004900370023003700470037000d
:101b24000600370009003700400037000b0037007b
:101b3400080037001e0037003300370022f2a800e7
:101b440080002000409188003c003700a40007007a
:101b54003a0037000003070038003700a2222100b2
:101b6400f00f20008000610020d2bf0060406000c0
:101b74000140700020f2b700c810de0021d2bf007f
:101b8400604060000140700021f2b7002212a800fa
:101b940010c0b30023f2b70022f2a80027003700d8
:101ba4000e01070025003700260007002300370038
:101bb40050d2bf000080fb00800078006023210029
:101bc4000080400000017800f00f200080006100d8
:101bd40020d2bf00604060000140700020f2b700d6
:101be400c810de0021d2bf006040600001407000d8
:101bf40021f2b7002212a80010c0b30023f2b700ec
:101c040022f2a8000d00370022f2a80050d2bf0033
:101c14008080fb00e224210012417800602321002f
:101c24000080400002487800040037000001eb0007
:101c34008000eb0020002000ba2007000080fa009a
:101c4400000006000400fa004ed2bf00e14f50002d
:101c54000d003a004cd2bf007f4060000004e00059
:101c640009003a0022f2a8004dd2bf00e34f500011
:101c740003003a0010002000309188000200370071
:101c84000000eb00309188004ed2bf000004e00059
:101c940051003a004cd2bf007f406000e24f500038
:101ca4004d003a0050d2bf006f4060000004e000d5
:101cb4004900320022f2a80050d2bf0001c8b3008c
:101cc400014060000004e00009003a0050d2bf0067
:101cd4006f4060000080fb0080004000c0232100b2
:101ce40000804000100078001007980008003700ba
:101cf40050d2bf006f4060000080fb0080004000b5
:101d04002023210000804000100078001007980074
:101d14004dd2bf00e34f500004003a009e009000f3
:101d240040c8b300904098002b00370050d2bf0049
:101d34006f4060000080fb000000400080007800dd
:101d4400a04a200000804000000f78001e007800a8
:101d540090407800d0cfb30080c060001e007800af
:101d640001487800012521009140780000c8b300a3
:101d740000c060000004e0000c0032009e009000ef
:101d84000040eb00904098008e80e8000e80e80050
:101d9400104078000024a200804878009e00900043
:101da40000c4b300904098000b0037009e009000e0
:101db40080c8b300904098008e80e8000e80e80050
:101dc400104078000024a200804878009e00900013
:101dd40080ccb300904098000080fa000000060018
:101de4000200fa00c12421009140780000c8b30029
:101df40080cf500077003a0000ccb30022f2b70045
:101e04004fd2bf000080fb00000f78001e00780056
:101e1400e20f50001b0032001e007800e30f500058
:101e24003e0032001e007800e10f50000100320035
:101e340066003700822d2100f00f20008000610031
:101e440020d2bf00604060000140700020f2b70063
:101e5400c810de0021d2bf00604060000140700065
:101e640021f2b70023d2bf00604060002041b300dc
:101e740023f2b70024d2bf006040600024f2b70010
:101e8400540037004ed2bf000080fb000000400029
:101e940080007800003a280000804000100178009b
:101ea400f00f20008000610020d2bf00604060007d
:101eb4000140700020f2b700c810de0021d2bf003c
:101ec400604060000140700021f2b70020d2bf00e2
:101ed4008080fb0021d2bf000080fb004800dd00b1
:101ee400010070000080e80010017800f00f20006d
:101ef4008000610023d2bf00604060000140700098
:101f040023f2b700c810de0024d2bf006040600096
:101f14000140700024f2b7002e0037004ed2bf00fb
:101f2400e24f500026003e004ed2bf000080fb006e
:101f34000000400080007800203a28000080400023
:101f440010017800f00f20008000610020d2bf0053
:101f5400604060000140700020f2b700c810de004d
:101f640021d2bf00604060000140700021f2b70040
:101f740020d2bf008080fb0021d2bf000080fb0084
:101f84004800dd0001007000104078000081fb0073
:101f9400f00f20008000610023d2bf006040600089
:101fa4000140700023f2b700c810de0024d2bf0045
:101fb400604060000140700024f2b7000500370063
:101fc4000040eb0022f2b700020037000040eb00b3
:101fd40022f2b7000080fa00000006000400fa00b4
:101fe4000040eb0054f2b7000040eb0055f2b7009c
:101ff4004cd2bf007f4060000080fb0010079800b7
:102004001e009000e10f5000120032001e009000ec
:10201400e20f5000110032001e0090000000e000aa
:10202400010032002d00370022f2a80054d2bf0074
:102034000004a00054f2b70030918000e10f50007a
:1020440026003a0054d2bf000014a00054f2b70096
:102054002200370022f2a8002000370022f2a80054
:1020640050d2bf0001c8b300014060000004e0008a
:1020740009003a0050d2bf006f4060000080fb00ae
:1020840080004000c0232100008040001000780040
:10209400000f78000800370050d2bf006f40600086
:1020a4000080fb00800040002023210000804000cd
:1020b40010007800000f78001e0078001040900097
:1020c4000080fb004200de00610060000004e000cc
:1020d4000200320010c0b30054f2b70022d2bf0095
:1020e40001c8b300014060000004e0000f003200aa
:1020f40042252100f00f20008000610020d2bf00a3
:10210400604060000140700020f2b700c810de009b
:1021140021d2bf00604060000140700021f2b7008e
:102124002212a80020c0b30023f2b7000080fa00f6
:10213400000006000000fa0094a4a90022d2bf0007
:1021440001c8b300014060000004e00024003a002c
:102154002dd2bf0001c8b300014060000004e000bc
:102164001200320020c0b30041f2b7009191800008
:102174000040eb00804878009191800080ccb3004f
:1021840090409800d191800080c0b30080487800ce
:10219400d19180004025210090009800d1918000c9
:1021a40080ccb3009040980069003700d191800042
:1021b40080c0b30080487800d1918000c024210001
:1021c40090009800d1918000c0c8b300904098005e
:1021d4009191800040c8b300904098005c003700a3
:1021e4002dd2bf0001c8b300014060000004e0002c
:1021f40057003a004cd2bf0001c8b3000140600050
:102204000004e0004100320052d2bf008080fb0095
:1022140053d2bf000080fb004800dd0001007000c5
:102224000001780023d2bf008080fb0024d2bf00cd
:102234000080fb004800dd0001007000800f5100a9
:102244001200310052d2bf008080fb0053d2bf0085
:102254000080fb004800dd000100700000017800f0
:10226400f00f20008000610023d2bf0060406000b6
:102274000140700023f2b700c810de0024d2bf0072
:10228400604060000140700024f2b7003200070093
:1022940010c0b30041f2b700d191800080c0b300f8
:1022a40080487800d1918000c024210090009800db
:1022b400d191800000c8b300904098000000eb006a
:1022c40030928800c191800080c0b30080487800bb
:1022d400c1918000c024210090009800c191800029
:1022e40040c8b3009040980010002000309288004d
:1022f40091918000402521009000980091918000e8
:1023040080ccb300904098001100370020c0b30087
:1023140041f2b700919180000040eb0080487800c2
:102324009191800080ccb30090409800d1918000be
:1023340080c0b30080487800d191800040252100fe
:1023440090009800d191800080ccb3009040980018
:102354000080fa00000006000200fa0023d2bf0049
:102364008080fb0024d2bf000080fb004800dd0019
:1023740001007000e70f500013003e0023d2bf009d
:102384008080fb0024d2bf000080fb004800dd00f9
:1023940001007000000f780040d2bf000004e0008c
:1023a40003003a0010c0b30040f2b7000800370041
:1023b40040d2bf00e14f500005003a0020c0b300f6
:1023c40040f2b7000200370080002000000f7800c0
:1023d4009291800090918000904090001e40900067
:1023e40000c0700010419800919180001e40780058
:1023f4008048780023d2bf008080fb0024d2bf0035
:102404000080fb004800dd000100700080007800bf
:102414001e00780000815000f00f20008000610051
:1024240023d2bf00604060000140700023f2b70077
:10243400c810de0024d2bf0060406000014070007c
:1024440024f2b700402521001092880022d2bf0058
:10245400614060000004e0003b003a001b003700cc
:102464001292800020d2bf008080fb0021d2bf00e6
:102474000080fb004800dd0001007000800078004f
:1024840011407800004978000200e80010928800aa
:102494000101e800f00f20008000610020d2bf009d
:1024a400604060000140700020f2b700c810de00f8
:1024b40021d2bf00604060000140700021f2b700eb
:1024c4001e0078000000e900000f78001e0078006c
:1024d4000000e000e2ff3a001e0037001292800084
:1024e40020d2bf008080fb0021d2bf000080fb000f
:1024f4004800dd0001007000800078001140780081
:10250400004978000200e800109288000101e80008
:10251400f00f20008000610020d2bf006040600006
:102524000140700020f2b700c810de0021d2bf00c5
:10253400604060000140700021f2b7001e00780086
:102544000000e900000f78001e0078000000e000a1
:10255400e2ff3a000080fa00000006000200fa00e0
:10256400c091800090407800114798001e40900070
:102574000081fb002ed2bf008080fb002fd2bf0061
:102584000080fb004800dd0001007000800f510056
:10259400070036002ed2bf008080fb002fd2bf0080
:1025a4000080fb004800dd00010070001047980027
:1025b4002ed2bf008080fb002fd2bf000080fb0022
:1025c4004800dd0001007000800078001e4090008b
:1025d4000080fb0000815000f00f200080006100ab
:1025e4002ed2bf0060406000014070002ef2b700a0
:1025f400c810de002fd2bf006040600001407000b0
:102604002ff2b7000040eb00004f780019003700ac
:102614002bd2bf008080fb002cd2bf000080fb00c7
:102624004800dd0001007000000178009e80fb007e
:1026340040252100008040001040780000497800c7
:102644000201e800f00f2000800061002bd2bf00df
:1026540060406000014070002bf2b700c810de003b
:102664002cd2bf0060406000014070002cf2b70023
:102674001e4fe8001e4090009e4f1000e4ff3900fa
:102684002ed2bf008080fb002fd2bf000080fb0051
:102694004800dd00010070000000e000130032007b
:1026a400d191800080c0b30080487800d19180002f
:1026b4004025210090009800c091800010409000b7
:1026c4000044b2000004e00004003a00d19180000c
:1026d40080ccb300904098001d003700d191800059
:1026e40080c8b3009040980019003700d191800051
:1026f40080c0b30080487800d1918000c0242100bc
:1027040090009800d191800040c8b3009040980098
:1027140030d2bf008080fb0031d2bf000080fb00bc
:102724004800dd00010070000000e00007003200f6
:1027340030d2bf008080fb0031d2bf000080fb009c
:102744004800dd0001007000000001002df2a90026
:102754000080fa00000006000200fa0022f2a8003d
:102764000000eb00602588000040eb00004f78007b
:10277400070037001e80fb00c200dd00002021009e
:10278400008140006000b8000089be001e4fe800d0
:1027940070c0b3009e4f1000f6ff36009424a800ca
:1027a4000040eb0036f2b7009424a90080202100f9
:1027b4009091880000202100c0918800c091800081
:1027c400d09188004ed2bf002af2b7002ad2bf00af
:1027d4000004e00003003a0000012000409188005a
:1027e4000600370012002000a12221001000200062
:1027f400cc1d070000022000409188000080fa00f0
:10280400000006000400fa002047980031479800b1
:1028140000202100000f78002e4090000080fb0073
:1028240000004000800078003e4090000080fb00e3
:10283400008040004300dd004200de004200dd0075
:102844001e0f40009e007800114090000074a1000b
:10285400904098003e4090000004e00007003a00d9
:102864002e4090000080fb0080004000c023210027
:10287400008040001e087800060037002e409000bb
:102884000080fb00800040002023210000804000e5
:102894001e0878001e01780092409000f0cbb3002f
:1028a40000c06000104198001e00780064014000e0
:1028b4009240900000c4b30000c070001041980022
:1028c4000080fa00000006000400fa002047980087
:1028d400314798002e4090000080fb00000040002b
:1028e40080007800a04a200000804000000f78009b
:1028f4001e007800be409000014878003e409000e1
:102904000080fb004300de00610060000004e00082
:10291400030032008040eb002e409000b9ff070016
:102924003e4090000080fb004200de006100600039
:102934000004e0000300320011c0b3002e409000f8
:10294400b0ff07000080fa00000006000400fa004f
:1029540020479800314798002e4090000004e00082
:102964000d003a00d191800080c0b3008048780007
:10297400d1918000c024210090009800d191800062
:10298400c0c8b300904098009191800040c8b30043
:1029940090409800230037002e4090000080fb00f8
:1029a40000004000800078003e4090000080fb0062
:1029b400008040004300dd008000780000202100fa
:1029c40000804000000f78001e00780090409000c6
:1029d40040c8b30080c070001e0078001140980009
:1029e4002e4090000080fb00000040008000780032
:1029f4003e4090000080fb00008040004300dd006a
:102a04008000780040202100008f40001e007800e4
:102a14009040900040c8b30080c070001e00780051
:102a2400114098000080fa00000006000a00fa0035
:102a34002047980031479800220798006347980080
:102a44003e4090000004e000070032002e40900059
:102a54000080fb0080004000202321000080400013
:102a6400100f7800060037002e4090000080fb0015
:102a740080004000c023210000804000100f780037
:102a84001e00e00003003a000000eb00400798003d
:102a9400390037002e009000800078001e00780076
:102aa400110098001e007800ee4090000148780064
:102ab4001e0078001040900002c4b3008240600001
:102ac4001e007800114098001e007800904090008d
:102ad40080c8b30080c070001e00780011409800c8
:102ae4003e4090000004e000110032002e409000af
:102af4000080fb00000040008000780020232100bb
:102b040000804000000178002e4090000080fb000f
:102b14000000400080007800202321000080400055
:102b2400104078000024a20000497800100037000b
:102b34002e4090000080fb000000400080007800e0
:102b4400c023210000804000000178002e40900046
:102b54000080fb000000400080007800c0232100ba
:102b640000804000104078000024a2000049780052
:102b74001e007800400798004e0090000080fa0084
:102b8400000006000600fa00004f780094c4bf005d
:102b94000042b2000004e0005f0032001e80fb002f
:102ba40080004000202321000080400010037800b2
:102bb4001e80fb0080004000202321000080400094
:102bc400100078001000be00020420000300200062
:102bd4000002780081027800020078008300780007
:102be40000016200018062006102b80014079800cd
:102bf400250798001e009000ae009000c000dd0084
:102c04000000200010079800210798001e00900083
:102c1400ae0090006112b8001407980025079800d0
:102c24001e019000ae0190000200700083807000cd
:102c3400008bbe001e80fb0080004000202321008a
:102c440000804000100278001e80fb0080004000dd
:102c54002023210000804000100078001001be00f5
:102c64000004200001002000000069008180690048
:102c7400008abe001e80fb00000040008000780037
:102c84002023210000804000000178001e80fb000a
:102c940000004000800078002023210000804000d4
:102ca400104078000024a200004978001e80fb0038
:102cb40080004000202321000080400010017800a3
:102cc4001e80fb0080004000202321000080400083
:102cd40010007800104090000044b20010419800a9
:102ce4001e80fb0080004000202321000080400063
:102cf400100178001e80fb0080004000202321008a
:102d040000804000100078009040900000c4b300a0
:102d140000c06800104198000080fa00000006001e
:102d24000000fa000000eb00a02488000000eb0083
:102d3400602488000000eb00409188000080fa00c5
:102d4400000006000000fa00409180000000e0004e
:102d540016003a000000eb00a02488000000eb00fd
:102d64006024880020002000302588000000eb004b
:102d7400402588008644a900f009200080248800aa
:102d8400f0092000602488009ec0a80001003700dc
:102d94009404a80094c4bf00614060000004e000f3
:102da400fbff320010002000409188000080fa00f0
:102db400000006000a00fa00d0c4b300004f9800d7
:102dc4000040eb007047980079f807008bf8070083
:102dd40077f807000e4890000040400089f807008b
:102de40073f807007e40900086f8070070f807002b
:102df4008ef807006ef807000e4890000080fb0074
:102e0400000040000004a0007ef8070068f80700f6
:102e14000064200001002000a1f607008a40a900f8
:102e240084f80700604798008af8070060f80700f4
:102e340080f807001047980086f807005cf8070040
:102e44007cf80700004f78001e80fb00c700dd00ff
:102e54001e4090000080fb00008070002007980056
:102e64007cf8070052f8070072f807001047980032
:102e740078f807004ef807006ef80700004f780056
:102e84001e80fb00c700dd001e4090000080fb0098
:102e9400008070001007980071f8070044f80700dc
:102ea40072f8070042f8070000000000000000006c
:102eb4000080fa00000006000200fa000040eb0067
:102ec400104798000040eb00004f7800e862a9002a
:102ed400f10f2000f0232c0066f8070068f80700c3
:102ee400f10f2000f0232c0078f8070030f80700d9
:102ef400d962a900dd62a8000060fe00ec62a900ae
:102f0400800c20003e1c0700d1c0b300b0c0b30049
:102f1400501c070010479800ec62a800800c2000a9
:102f2400371c0700d1c0b300b0c0b300491c070070
:102f3400004f7800800c2000311c0700021a240086
:102f440051c1b30090c0b300411d0700200320000d
:102f54002b1c070082bb200041c1b30090c0b3000a
:102f64003b1d070020032000251c070002f8200059
:102f7400f1c3b30090c0b300351d07002003200047
:102f84001f1c07000000000000000000daff3700eb
:102f94000000fa00a2c1b30021c0b30080c1b30095
:102fa400ad1c070082c1b30011c1b30080c1b300de
:102fb400a91c070082c7b30071c0b30080c1b3006d
:102fc400a51c0700f2c0b30001c1b30080c1b30067
:102fd400a11c07000080fa00000006002000fa008f
:102fe400f10f2000f0232c0022f8070024f807003a
:102ff400f10f2000f0232c0034f80700ecf7070051
:1030040040062000fe1b07000041eb0021c0b30076
:10301400e0c1b300901c070050002000f81b07001b
:1030240082c0b300d1c2b30030c5b3008a1c07000c
:1030340050002000f21b0700b2c0b30011c3b3005c
:1030440030c5b300841c070050002000ec1b0700af
:103054000060fe008040eb0090c4b300211c070018
:103064000080fb002007980011c0b30090c4b30097
:103074001c1c07000080fb00100798001e00900035
:10308400c480de002e0090004400dd00008f70003c
:103094001e007800cf80de0073f6070002002000d7
:1030a400031824009bf60700600f9800710f980026
:1030b40050002000d21b07008040eb0080c4b30006
:1030c400081c07000080fb002007980011c0b30013
:1030d40080c4b300031c07000080fb0010079800a5
:1030e4001e009000c480de002e0090004400dd002d
:1030f400008f70001e007800cf80de005af60700b3
:10310400020020000318240082f60700400f9800f4
:10311400510f980050002000b91b070021c3b300d1
:1031240030c5b300ef1b07000080fb0020079800a8
:1031340031c3b30030c5b300ea1b07000080fb00b5
:10314400100798001e009000c800dd002e009000bb
:10315400008f70001e007800cf80de0042f607006a
:103164000200200003382c006af60700200f9800a4
:10317400310f980050002000a11b070041c3b30089
:1031840030c5b300d71b07000080fb002007980060
:1031940051c3b30030c5b300d21b07000080fb004d
:1031a400100798001e009000c800dd002e0090005b
:1031b400008f70001e007800cf80de002af6070022
:1031c4000200200003382c0052f60700000f98007c
:1031d400110f980050002000891b070061c3b30041
:1031e40030c5b300bf1b07000080fb002007980018
:1031f40071c3b30030c5b300ba1b07000080fb00e5
:10320400100798001e009000c800dd002e009000fa
:10321400008f70001e007800cf80de0012f60700d9
:103224000200200003382c003af6070060079800db
:103234007107980050002000711b070031c0b300d3
:10324400e0c1b300a71b07000080fb002007980023
:1032540041c0b300e0c1b300a21b07000080fb0023
:10326400100798002e009000c800dd001e0090009a
:10327400008f70001e007800500798005000200056
:103284005f1b070051c0b300e0c1b300951b0700ea
:103294000080fb002007980061c0b300e0c1b300c8
:1032a400901b07000080fb00100798002e00900080
:1032b400c800dd001e009000008f70001e00780022
:1032c40040079800500020004d1b070071c0b30058
:1032d400e0c1b300831b07000080fb0020079800b7
:1032e40081c0b300e0c1b3007e1b07000080fb0077
:1032f400100798002e009000c800dd001e0090000a
:10330400008f70001e00780030079800a9fe0700a7
:1033140000000000800c2000391b07004cff370020
:103324000000fa000080fa00000006001a00fa000b
:103334000e80e800813a28000b000900315878001b
:10334400c000b1006e004700413b2800080009009e
:10335400315878009000b100690040008040eb00d3
:10336400014878000000e8008040eb000148780044
:103374000000e8008040eb00014878000000eb000a
:10338400000f7800120037001e0178009e007800bc
:103394000e80e8000080400090407800204d21001d
:1033a40000004100014878001e0078006c014000d4
:1033b4009e0078006e004700008040009040780036
:1033c400204d210000004100014878001e0fe80054
:1033d400b10020009e8f1000ebff3600000020009b
:1033e400a129240050a1880061a1880033020700ac
:1033f400916d20009140780000ccb30000c06000c3
:103404002041b300d9e6b7000111200091407800b3
:10341400f0ccb30000c0600010e1b700103220000f
:103424006008880000322000a00c88000040eb00f7
:10343400e601070092c1bf00f041b30092e1b7007a
:103444009181a900011920009140780080cfb30038
:1034540000c060006040b30090e1b70011e1a80033
:103464002703070020bc2100a0968800e301070081
:1034740021c3b300006421000148780020c3b300d5
:10348400d2010700cac2bf00614060000004e0002e
:10349400270032009620a800dc62a900dd02a90002
:1034a40050002000d61a0700021a240051c1b300ac
:1034b40090c0b300ad06070040012000d01a0700f9
:1034c4000240200041c1b30090c0b300a70607002a
:1034d40040012000ca1a070002f82000f1c3b3001b
:1034e40090c0b300a106070040012000c41a0700e1
:1034f400dd62a8000000eb00000f78000700370031
:10350400dc62a800800c2000bd1a0700dc62a90060
:10351400800c2000ba1a07001e0fe800900020005b
:103524009e0f1000f6ff3600dd62a9009620a90068
:103534000080fa00000006000000fa00f09380000a
:103544000000e800f0938800eb0007002a01070060
:103554009560a8009a40a8009620a800d803070008
:1035640096060700b20207004b000700cac2bf005c
:10357400644060000004e0001c003a00cac2bf00be
:10358400684060000004e00018003a00cac2bf00ae
:10359400704060000004e00014003a0005003700a9
:1035a400dd02a800dc62a80076d2bf000004e000bf
:1035b4000c003200cac2bf00644060000004e00096
:1035c400f7ff3200cac2bf00684060000004e00098
:1035d400f3ff3200cac2bf00704060000004e00084
:1035e400efff3200dd02a900dc62a80076d2bf0042
:1035f4000004e0000e003200dac2bf006440600044
:103604000004e0000a003a000060fe00dc62a8004a
:10361400800c20007a1a0700dc62a900dd02a800f1
:10362400800c2000761a0700dd02a900f6ff37009f
:10363400dac2bf000044b2000004e00011003a0006
:10364400d3c2bf000044b2000004e0000d003a0001
:1036540076d2bf00e14f50000a003a000040eb0070
:1036640076f2b700dc62a900e4e2a900e4a2a900b2
:10367400e4c2a800dc22a900ec22a9004006200034
:103684005f1a070000642100104078004f01070012
:103694000080fa00000006000000fa00cac2bf0061
:1036a400614060000004e0000a00320071a680005e
:1036b400006b2300808f5000060036000040eb00b2
:1036c4008ef2b7000000eb00106f88000000eb00e2
:1036d4009094880071a68000d0672300808f5000ea
:1036e4001c003e0071a6800090948000808f5000e2
:1036f4000500320070a6800090948800106f80004e
:103704000000e800106f8800106f8000e40f500084
:1037140010003600cac2bf00614060000004e0002f
:103724000a003a0010c0b3008ef2b7000040eb006c
:1037340076f2b700dc62a900dd02a900e4e2a90088
:10374400e4a2a900e4c2a800dc22a900800c2000a5
:10375400106f880030a680000000e00005003400ef
:1037640076d2bf000004e00003003a00dd02a800a6
:1037740001003700dd02a9000080fa000000060005
:103784000800fa000e80e800013c2800050009004a
:10379400315878006000b1002222a9008560a90098
:1037a40030118000004f7800c09380000000e800d2
:1037b400c093880048cebf000004e0000c003a002b
:1037c40040c2b3009e4f100046003a0048cebf00ee
:1037d4008000fb0040de2000008040001e4878008e
:1037e40048cebf000040e80048eeb7003d00370077
:1037f40048cebf008000fb0040de20000080400077
:103804001e48780048cebf00e54f500017003a002c
:103814000040eb0010479800110037001e40900054
:103824008080fb0040de20000080400010417800d2
:103834001e4090008080fb000e80e8000080400065
:1038440010407800804f5100020032000040eb002d
:1038540048eeb7001e4090000040e8001047980072
:103864001e409000e44f5000ecff360081e420003d
:1038740091407800e0c5b30080cf500016003400ba
:103884000040eb00104798000d0037001e409000e8
:103894000081fb001e4090008080fb0040de200081
:1038a4000080400090407800204621000000410044
:1038b400014878001e4090000040e800104798003e
:1038c4009e409000e0c5b30080cf5000efff36006b
:1038d40000c0eb0048eeb70048cebf000040e8004f
:1038e40048eeb70048cebf000000fb00d09388002c
:1038f4000080fa00000006000000fa000040eb001f
:1039040049eeb700dac2bf00614060000004e00085
:1039140013003a0076d2bf000004e00010003a0021
:1039240076d2bf000004e0000d003a0020c3b300cb
:10393400a60007005c0107000000e0000800320058
:10394400dc62a80010c0b30076f2b7004006200085
:10395400ab19070086040700bb000700e4c2a900f6
:10396400eac2bf00614060000004e00020003a00a9
:1039740019003700507280000000e800507288007f
:10398400a00020009e19070051728000200320002f
:10399400808f500010003600ec22a900dc62a900e0
:1039a4000040eb0076f2b700e4c2a800e4a2a9004c
:1039b400e4e2a900010037000060fe00dac2bf00a3
:1039c400614060000004e000fbff3200ec22a8002c
:1039d400400120008a190700eac2bf00614060006c
:1039e4000004e000e3ff32000000eb0050728800a6
:1039f4000080fa00000006000400fa00881f780026
:103a0400cbc2bf000080fb004700de00804078008e
:103a1400e033210001487800cbc2bf006140600060
:103a240080407800f033210001487800cbc2bf0009
:103a34000080fb000000d1006140600080407800fd
:103a44000034210001487800cbc2bf000080fb0095
:103a54004600de00614060008040780010342100a0
:103a640001487800f2c2bf000080fb004700de007e
:103a7400804078002034210001487800f2c2bf0061
:103a84000080fb004600de0061406000804078005a
:103a94003034210001487800cac2bf000080fb0016
:103aa4004200de000004a200e14060005034210026
:103ab40001487800cac2bf000080fb004400de0059
:103ac4000004a200e1406000603421000148780055
:103ad400cac2bf000080fb004300de000004a20055
:103ae400e14060007034210001487800d0c0b30088
:103af4001d000700d0998800a0c0b3001a00070079
:103b0400e0998800c0c0b30017000700b09988008e
:103b1400b0c0b30014000700c099880010c0b300ff
:103b240011000700000478006140b900cef30700db
:103b3400008fbe000800e00005003d0002002000e8
:103b4400037824001e00be0035f40700008fbe0079
:103b54001e00be0010a2880021a288004f04780035
:103b64000080fa00000006000400fa0020479800d4
:103b74000000eb00000f780021e3a9002e40900024
:103b84007f4060007f4160008132200091407800d6
:103b940000ceb30000c060000240700028e3b7000c
:103ba40021e3a8002023a80020c3bf0061406000d7
:103bb4000004e000fcff320000188000000f7800d1
:103bc4001e0078000080fa00000006000200fa00df
:103bd400004f780040c6b3009e4f1000020036002c
:103be40040c6b300004f78001e80fb004300dd0098
:103bf400b00c88000080fa00000006000000fa0003
:103c0400b16d20009140780000ccb30000c060008a
:103c14003040b300dbe6b700416a200091407800f1
:103c240000ccb30000c060003041b300a4e6b7008c
:103c340070062000401188009560a90021e2a800c8
:103c44000080fa00000006000000fa009a40a80074
:103c5400a201200021c0b30080c1b300b00307005b
:103c640050002000e61807008201200011c1b300b3
:103c740080c1b300aa03070050002000e018070029
:103c84008207200071c0b30080c1b300a403070001
:103c940050002000da1807003202200001c1b300ee
:103ca40080c1b3009e03070050002000d418070011
:103cb4009a40a9000080fa00000006000000fa0003
:103cc4000080eb00601988000080eb00401688003b
:103cd4000080eb00801688000080eb00c01688008e
:103ce4000080eb00001788000080eb00401788007c
:103cf4000080eb00801788007df5070011fc0700a9
:103d0400dd62a900e4e2a900e4a2a900e4c2a800db
:103d1400dc22a900dd02a900dc62a900cca2a90072
:103d2400d5a2a800dce2a800ec62a900ec22a8005d
:103d3400d822a900d1a2a900d8e2a900e862a9006a
:103d4400e822a900d962a900e0e2a900e0a2a90042
:103d5400e0c2a900d902a900d862a900c8a2a9009a
:103d64002c23a9002d63a9002d83a9002d43a900ac
:103d74002da3a9000000eb00001988000000eb004f
:103d8400101988000000eb002019880000c0eb0027
:103d940024e3b70025c3bf00f041b30025e3b70017
:103da400013220009140780000ceb30000c07000c2
:103db40020e3b7000080fa00000006000000fa00cb
:103dc4007007a800000000007007a9000000eb00c5
:103dd400a02488000000eb00302488008804a90097
:103de400e4e2a900e4a2a900e4c2a800dd02a9005b
:103df400dc62a90050002000811807000000eb00dd
:103e0400001988000000eb00101988000000eb0086
:103e1400201988000080eb00601988000080eb0006
:103e2400401688000080eb00801688000080eb00bc
:103e3400c01688000080eb00001788000080eb00ab
:103e4400401788000080eb00801788000080fa008b
:103e5400000006000000fa008660a9009660a90030
:103e64000080fa00004006000000fa002043a90088
:103e740085a0a90010188000b0998800201880003f
:103e8400c099880000188000d099880030188000fc
:103e9400e0998800909380000000e80090938800e7
:103ea4000080fa00000006000400fa000000eb00a5
:103eb400000f7800e4e2a800400620005018070034
:103ec400e4a2a8000a0037001e0fe80050002000fa
:103ed4009e0f1000030036000000eb00100798004e
:103ee400380037000060fe00400620004418070038
:103ef400d3c2bf000080fb004600de0061406000ca
:103f04008080fb00dac2bf000080fb004600de00b8
:103f1400614060000080fb00008070000000e00051
:103f2400e9ff3a000000eb00000f78000060fe009b
:103f340040062000321807000a0037001e0fe80070
:103f4400400120009e0f1000030036000000eb002b
:103f5400100798001b0037000060fe004006200098
:103f640027180700d3c2bf000044b2000004e000d9
:103f7400f2ff32000000eb00000f7800dc22a80002
:103f84000a0037001e0fe800400120009e0f1000b9
:103f9400030036000000eb0010079800090037000a
:103fa4000060fe004006200015180700dac2bf00ba
:103fb4000044b2000004e000f2ff320010002000d0
:103fc400100798001e0090000080fa000000060010
:103fd4000200fa000060fe006620a8006040a8000d
:103fe400d0168000000f780050168000000f780073
:103ff4008660a9009660a8000040fe009660a900b3
:104004008660a900d0168000000f7800501680004a
:10401400000f780021e3a800803e2000f817070075
:1040240021e3a90000fa2000f5170700e9ff370093
:104034000000fa00cac2bf00614060000004e00052
:1040440021003200e4e2a8004ccebf000004e000ee
:1040540019003a0010c0b3004deeb7002003200051
:10406400e717070050002000e5170700021a240094
:1040740051c1b30090c0b300a90207004001200061
:10408400df17070082bb200041c1b30090c0b3001a
:10409400a302070040012000d917070002f82000fe
:1040a400f1c3b30090c0b3009d020700400120009b
:1040b400d3170700dd62a8004ccebf000040e80023
:1040c4004ceeb70009003700cac2bf00614060006f
:1040d4000004e00005003a000040eb004deeb7009c
:1040e400dd62a9000040eb004ceeb7000080fa004e
:1040f400000006000000fa000080fa00000006003c
:104104000000fa0000002100b010880017e2a800a7
:10411400f00f2000a0108800a00a2200b0968800aa
:10412400a0c0b300e6f0b7009a40a900805e220068
:1041340080968800000021003010880007e2a80063
:10414400f00f2000201088000080fa000000060014
:104154000600fa008a40a900e2d0bf000004e00093
:1041640097003200e6d0bf000080fb006101b90077
:104174001207980023079800f00020000100200097
:104184001e019000ae019000800f5100818f5900f4
:10419400c9003e001e009000ae00900000600100c7
:1041a4000f003700160037001c00370020003700ce
:1041b400280037002c0037003b0037003f00370051
:1041c40050003700540037005b0037005f003700b1
:1041d400660037006a003700710037007500370049
:1041e400dcd0bf000080fb0000004000901088007d
:1041f400e6d0bf000040e800e6f0b700ae003700ac
:10420400e3d0bf000080fb0090108800e6d0bf0020
:104214000040e800e6f0b700a70037001622a80027
:10422400e6d0bf000040e800e6f0b700a200370087
:10423400dcd0bf000080fb00000040000000e8006c
:1042440090108800e6d0bf000040e800e6f0b70018
:10425400990037001662a800e6d0bf000040e800cd
:10426400e6f0b7009400370080108000ddf0b7005e
:10427400e7d0bf00e14f500005003a0016a2a800a5
:104284001682a800e0c0b300e6f0b7008a00370049
:1042940016a2a9001682a800e6d0bf000040e800dc
:1042a400e6f0b700840037001662a800e6d0bf002d
:1042b4000040e800e6f0b7007f003700801080007f
:1042c400def0b700e7d0bf00e24f500004003a0030
:1042d40016a2a8001682a800e0c0b300e6f0b7005a
:1042e400e7d0bf00e44f500073003a0016a2a900c3
:1042f4001682a800e6d0bf000040e800e6f0b70050
:104304006d0037001662a800e6d0bf000040e80048
:10431400e6f0b7006800370080108000dff0b700d7
:1043240016a2a9001682a800e6d0bf000040e8004b
:10433400e6f0b700600037001662a800e6d0bf00c0
:104344000040e800e6f0b7005b0037008010800012
:10435400e0f0b70016a2a9001682a800e6d0bf00bc
:104364000040e800e6f0b700530037001662a800ea
:10437400e6d0bf000040e800e6f0b7004e0037008a
:1043840080108000e1f0b70016a2a8001682a800f1
:10439400e6d0bf000040e800e6f0b7004600370072
:1043a4001642a800e6d0bf000040e800e6f0b700df
:1043b4004100370010c0b300e4f0b7003e003700fe
:1043c400e6d0bf000080fb00000f78009e0078005c
:1043d400e28f5000230032001e017800e20f5100ea
:1043e40007003c009e0178000300e0000e0032004c
:1043f4001e007800e10f5000130032002e00370039
:104404009e007800e48f5000240032001e017800e2
:10441400e40f51001a0035009e017800e58f510029
:104424002300320024003700dcd0bf000080fb00f2
:104434000000400090108800e6d0bf000040e80073
:10444400e6f0b7001c003700e3d0bf000080fb009b
:1044540090108800e6d0bf000040e800e6f0b70006
:1044640015003700e8d0bf000080fb0090108800e2
:10447400e6d0bf000040e800e6f0b7000e003700c9
:10448400e9d0bf000080fb0090108800e6d0bf0098
:104494000040e800e6f0b700070037001642a80025
:1044a400e6d0bf000040e800e6f0b70002003700a5
:1044b40010c0b300e4f0b7000080fa00000006006a
:1044c4000800fa00eed2bf00edf2b700e4d0bf005e
:1044d400e14f5000c6003a000040eb00ecf2b70098
:1044e4000040eb00e4f0b700eed2bf000080fb0018
:1044f4006101b900028fbe00c0002000010020004d
:104504001e01be00800f5100818f5900b6003e008d
:104514001e00be00006001000c00370021003700bf
:104524003300370045003700520037005f00370082
:104534006c0037007900370086003700930037009d
:10454400980037009d003700a2003700d10d2100ec
:10455400914078006044210001487800ded0bf001b
:104564008080fb00dfd0bf000080fb004700dd003f
:104574000080400040a28800e0d0bf008080fb00a3
:10458400e1d0bf000080fb004700dd000080400058
:1045940050a28800eed2bf000040e800eef2b7005f
:1045a40093003700ddd0bf000080fb00c400dd00b5
:1045b400ded0bf000080fb004400de000080fb0072
:1045c40000804000cf80de0027f1070002002000b9
:1045d40003d82300eff1070010a1880021a188006f
:1045e400eed2bf000040e800eef2b70080003700d2
:1045f400ddd0bf000080fb00c400dd00ded0bf00c2
:104604000080fb004400de000080fb0000804000ce
:10461400cf80de0014f107000200200003d823003d
:10462400dcf1070030a1880041a18800eed2bf0070
:104634000040e800eef2b7006d003700ded0bf00a6
:104644000080fb00c800dd00ddd0bf000080fb005f
:1046540000804000cf80de0003f1070050a18800f5
:1046640061a18800eed2bf000040e800eef2b7007e
:104674005f003700ded0bf000080fb00c800dd0013
:10468400ddd0bf000080fb0000804000cf80de0052
:10469400f5f0070070a1880081a18800eed2bf0068
:1046a4000040e800eef2b70051003700ded0bf0052
:1046b4000080fb00c800dd00ddd0bf000080fb00ef
:1046c40000804000cf80de00e7f0070090a1880062
:1046d400a1a18800eed2bf000040e800eef2b700ce
:1046e40043003700ded0bf008080fb00ddd0bf0078
:1046f4000080fb004800dd0000804000cf80de0029
:10470400d9f00700b0a18800c1a18800eed2bf0093
:104714000040e800eef2b70035003700ded0bf00fd
:104724008080fb00ddd0bf000080fb004800dd007e
:1047340000804000cf80de00cbf00700d0a18800cd
:10474400e1a18800eed2bf000040e800eef2b7001d
:1047540027003700ded0bf008080fb00ddd0bf0023
:104764000080fb004800dd0000804000cf80de00b8
:10477400bdf00700f0a1880001a28800eed2bf00be
:104784000040e800eef2b70019003700ddd0bf00aa
:10479400ecf0b700eed2bf000040e800eef2b70044
:1047a40013003700ddd0bf00edf0b700eed2bf003c
:1047b4000040e800eef2b7000d003700ddd0bf0086
:1047c400eef0b700eed2bf000040e800eef2b70012
:1047d40007003700ddd0bf00eff0b7000040eb006a
:1047e400eef2b700020037000040eb00eef2b70033
:1047f400ecd2bf000004e0008d003a00e4d0bf001a
:104804000004e0008a003a0010c0b300ecf2b700e4
:10481400eed2bf000080fb006101b90022079800be
:1048240033079800c0002000010020002e019000f2
:10483400be019000800f5100818f590078003e0026
:104844002e009000be009000006001000c003700b4
:10485400130037001a003700210037002800370002
:104864002f003700360037003d0037004400370082
:104874004b00370052003700590037006000370002
:1048840030c0b300e6f0b70040c0b300e7f0b700b3
:104894008040eb00d0c4b3009500070064003700eb
:1048a4000040eb00e6f0b70020c0b300e7f0b7002b
:1048b4008040eb0090c4b3008d0007005c0037001b
:1048c4000040eb00e6f0b70020c0b300e7f0b7000b
:1048d4008040eb0080c4b30085000700540037001b
:1048e4000040eb00e6f0b70020c0b300e7f0b700eb
:1048f40021c3b30030c5b3007d0007004c0037006e
:104904000040eb00e6f0b70020c0b300e7f0b700ca
:1049140041c3b30030c5b30075000700440037003d
:104924000040eb00e6f0b70020c0b300e7f0b700aa
:1049340061c3b30030c5b3006d0007003c0037000d
:104944000040eb00e6f0b70020c0b300e7f0b7008a
:1049540031c0b300e0c1b300650007003400370084
:104964000040eb00e6f0b70020c0b300e7f0b7006a
:1049740051c0b300e0c1b3005d0007002c00370054
:104984000040eb00e6f0b70020c0b300e7f0b7004a
:1049940071c0b300e0c1b300550007002400370024
:1049a4000040eb00e6f0b70010c0b300e7f0b7003a
:1049b40091c1b30080c1b3004d0007001c00370053
:1049c4000040eb00e6f0b70010c0b300e7f0b7001a
:1049d40011c0b30080c1b3004500070014003700c4
:1049e4000040eb00e6f0b70010c0b300e7f0b700fa
:1049f40081c1b30080c1b3003d0007000c00370043
:104a04000040eb00e6f0b70010c0b300e7f0b700d9
:104a1400c1c1b30080c1b3003500070004003700f2
:104a24000040eb00eef2b7000040eb00ecf2b70000
:104a3400e12e210091407800edd2bf0080cf5000dc
:104a440006003a00509780000000e8005097880064
:104a5400100020006a150700020037000000eb0078
:104a64005097880050978000ea0f500003003600ea
:104a740010002000621507001b00370051978000ca
:104a8400800c2000808f500017003600eed2bf004b
:104a94000040e800eef2b70000c0eb00ddf0b70024
:104aa40000c0eb00def0b70000c0eb00dff0b700a1
:104ab40000c0eb00e0f0b700f0c0b300e6f0b700d0
:104ac400400620004e1507000000eb00c0108800cf
:104ad4000040eb00e4f0b7000040eb00ecf2b7005c
:104ae4000000eb00509788000080fa0000000600e8
:104af4000200fa00004f7800114798001e40780029
:104b0400dcf0b7001e409000e3f0b70010c0b30023
:104b1400e2f0b7001602a8000080fa0000000600c8
:104b24000400fa00004f780011479800120798001b
:104b34001e407800dcf0b7001e409000e3f0b700a0
:104b44000040eb00e6f0b7001e009000e8f0b7006c
:104b54001e0090004800de00e9f0b7000040eb00c2
:104b6400e2f0b7001602a8000080fa000000060078
:104b74000000fa009a40a8000001eb0021c0b30035
:104b8400e0c1b300e6ff0700400120001c15070048
:104b940082002000d1c2b30030c5b300e0ff07009b
:104ba4004001200016150700b200200011c3b30015
:104bb40030c5b300daff07004001200010150700dc
:104bc4009a40a9000080fa00000006000600fa00de
:104bd4008620a900ced0bf000004e0009700320078
:104be400cfd0bf000080fb006101b900120798001c
:104bf40023079800f0002000010020001e0190000f
:104c0400ae019000800f5100818f5900c9003e0011
:104c14001e009000ae009000006001000f003700fd
:104c2400160037001c00370020003700280037002a
:104c34002c0037003b0037003f003700500037009e
:104c4400540037005b0037005f0037006600370010
:104c54006a0037007100370075003700d0d0bf00fc
:104c64000080fb000000400010108800cfd0bf007f
:104c74000040e800cff0b700ae003700d8d0bf0046
:104c84000080fb0010108800cfd0bf000040e80077
:104c9400cff0b700a70037000622a800cfd0bf008e
:104ca4000040e800cff0b700a2003700d0d0bf002a
:104cb4000080fb00000040000000e80010108800a5
:104cc400cfd0bf000040e800cff0b7009900370014
:104cd4000662a800cfd0bf000040e800cff0b700c4
:104ce4009400370000108000d1f0b700d9d0bf0085
:104cf400e14f500005003a0006a2a8000682a80071
:104d0400e0c0b300cff0b7008a00370006a2a900c4
:104d14000682a800cfd0bf000040e800cff0b70063
:104d2400840037000662a800cfd0bf000040e8002e
:104d3400cff0b7007f00370000108000d2f0b7003a
:104d4400d9d0bf00e24f500004003a0006a2a800e8
:104d54000682a800e0c0b300cff0b700d9d0bf00ee
:104d6400e44f500073003a0006a2a9000682a8008e
:104d7400cfd0bf000040e800cff0b7006d0037008f
:104d84000662a800cfd0bf000040e800cff0b70013
:104d94006800370000108000d3f0b70006a2a90015
:104da4000682a800cfd0bf000040e800cff0b700d3
:104db400600037000662a800cfd0bf000040e800c2
:104dc400cff0b7005b00370000108000d4f0b700cc
:104dd40006a2a9000682a800cfd0bf000040e800c8
:104de400cff0b700530037000662a800cfd0bf0051
:104df4000040e800cff0b7004e00370000108000fc
:104e0400d5f0b70006a2a8000682a800cfd0bf0044
:104e14000040e800cff0b700460037000642a80083
:104e2400cfd0bf000040e800cff0b700410037000a
:104e340010c0b300dbf0b7003e003700cfd0bf0096
:104e44000080fb00000f78009e007800e28f500085
:104e5400230032001e017800e20f510007003c00dd
:104e64009e0178000300e0000e0032001e0078006e
:104e7400e10f5000130032002e0037009e0078002e
:104e8400e48f5000240032001e017800e40f51002a
:104e94001a0035009e017800e58f5100230032008e
:104ea40024003700d0d0bf000080fb000000400089
:104eb40010108800cfd0bf000040e800cff0b7004a
:104ec4001c003700d8d0bf000080fb001010880001
:104ed400cfd0bf000040e800cff0b7001500370086
:104ee400d6d0bf000080fb0010108800cfd0bf00d8
:104ef4000040e800cff0b7000e003700d7d0bf0065
:104f04000080fb0010108800cfd0bf000040e800f4
:104f1400cff0b700070037000642a800cfd0bf008b
:104f24000040e800cff0b7000200370010c0b30023
:104f3400daf0b7000080fa00000006000200fa0070
:104f4400004f7800114798001e407800d0f0b70059
:104f54001e409000d8f0b70010c0b300cef0b700e8
:104f64000602a8000080fa00000006000400fa000f
:104f7400004f780011479800120798001e407800ef
:104f8400d0f0b7001e409000d8f0b7000040eb000e
:104f9400cff0b7001e009000d6f0b7001e009000be
:104fa4004800de00d7f0b7000040eb00cef0b700b9
:104fb4000602a8000080fa00000006000400fa00bf
:104fc400f4d2bf00f3f2b700dbd0bf00e14f5000d2
:104fd4007d003a000040eb00f2f2b7000040eb0025
:104fe400dbf0b700f4d2bf000080fb00100798008c
:104ff4001e009000e30f50003b0032001e009000a2
:10500400e30f50000a003c001e009000e10f500026
:105014001f0032001e009000e10f500027003c00ea
:105024001e0090000000e0000e0032006400370013
:105034001e009000e50f5000410032001e00900059
:10504400e50f5000330035001e009000e60f5000bd
:10505400460032001e009000e70f50004e00320060
:1050640057003700d1d0bf008080fb00d2d0bf00f2
:105074000080fb004800dd000080400070a688002e
:10508400f4d2bf000040e800f4f2b7004e0037004d
:10509400d1d0bf008080fb00d2d0bf000080fb00d5
:1050a4004800dd0000804000f0b18800f4d2bf0069
:1050b4000040e800f4f2b70043003700d1d0bf004d
:1050c4008080fb00d2d0bf000080fb004800dd00e0
:1050d4000080400050a68800f4d2bf000040e800e1
:1050e400f4f2b70038003700d1d0bf008080fb0055
:1050f400d2d0bf000080fb004800dd0000804000eb
:1051040060a68800f4d2bf000040e800f4f2b700c3
:105114002d003700d1d0bf008080fb00d2d0bf006b
:105124000080fb004800dd0000804000808788008c
:10513400f4d2bf000040e800f4f2b70022003700c8
:10514400d1d0bf008080fb00d2d0bf000080fb0024
:105154004800dd000080400030a68800f4d2bf0083
:105164000040e800f4f2b70017003700d1d0bf00c8
:105174008080fb00d2d0bf000080fb004800dd002f
:105184000080400090878800f4d2bf000040e8000f
:10519400f4f2b7000c003700d1d0bf008080fb00d0
:1051a400d2d0bf000080fb004800dd00008040003a
:1051b400e0b188000040eb00f4f2b70002003700d1
:1051c4000040eb00f4f2b700f2d2bf000004e000ac
:1051d4006b003a00dbd0bf000004e00068003a0036
:1051e40010c0b300f2f2b700f4d2bf000080fb009d
:1051f400000f78001e007800e30f500033003200e7
:105204001e007800e30f50000a003c001e007800e6
:10521400e10f50001d0032001e007800e10f500025
:1052240022003c001e0078000000e0000e00320066
:105234004f0037001e007800e50f500033003200a5
:105244001e007800e50f5000280035001e0078008d
:10525400e60f5000350032001e007800e70f5000c2
:105264003a00320042003700ec62a9000040eb0033
:10527400cff0b70020c0b300d9f0b70091c0b3009d
:10528400b0c0b3002dff07003d0037000040eb0025
:10529400cff0b70020c0b300d9f0b700d1c0b3003d
:1052a400b0c0b30025ff0700350037000040eb0015
:1052b400cff0b70020c0b300d9f0b700e1c0b3000d
:1052c400b0c0b3001dff07002d0037000040eb0005
:1052d400cff0b70020c0b300d9f0b700f1c0b300dd
:1052e400b0c0b30015ff0700250037000040eb00f5
:1052f400cff0b70020c0b300d9f0b70061c1b3004c
:10530400b0c0b3000dff07001d0037000040eb00e4
:10531400cff0b70020c0b300d9f0b700a1c0b300ec
:10532400b0c0b30005ff0700150037000040eb00d4
:10533400cff0b70020c0b300d9f0b70081c0b300ec
:10534400b0c0b300fdfe07000d003700ec62a800fa
:105354000040eb00cff0b70020c0b300d9f0b70095
:10536400d1c0b300b0c0b300f4fe0700040037009e
:105374000040eb00f4f2b7000040eb00f2f2b7009b
:10538400412f210091407800f3d2bf0080cf50001c
:1053940006003a00809780000000e80080978800ab
:1053a4001000200016130700020037000000eb0075
:1053b4008097880080978000ea0f50000200360032
:1053c400100020000e13070081978000800c20003d
:1053d400808f500017003600f4d2bf000040e80070
:1053e400f4f2b70000c0eb00d1f0b70000c0eb004e
:1053f400d2f0b70000c0eb00d3f0b70000c0eb0060
:10540400d4f0b7000040eb00cff0b7004006200016
:10541400fb1207000000eb00401088000040eb0086
:10542400dbf0b7000040eb00f2f2b7000000eb0045
:10543400809788000080fa00000006005400fa00fb
:1054440020cf98006127980072279800032f9800b6
:1054540030c2b30010cf98007e2090000000e0001e
:10546400030032000e2890000000e00003003a0020
:1054740010fd2f00102f98003b0037000e00e800ad
:1054840052022000d11021007eef07000e00e80038
:10549400aec89000214098006e209000c800de0045
:1054a4004801dd00010171008e00e800f00f2000ca
:1054b4008001610031409000604060000340700052
:1054c400b04098004811de00414090006040600008
:1054d40002407000c04098000e00e80065004000e3
:1054e40002022000fe20900066ef07006102200007
:1054f4008e804000900420000e0040008e02e800e0
:105504000002780033c0b3001200200005007800c8
:10551400cb0f0700004f78001e04e00003003200a8
:105524001e00fb00102f98000f0037009ec890004b
:1055340030c2b30080cf50000300320021ff2f009f
:10554400112f980008003700600220000e00400070
:105554008000e800020220000e28900049ef0700b6
:105564001e00fb00102f98001e2890000080fa00f7
:10557400000006001600fa00604f9800010f980022
:10558400120f980070c0b300504f980000ceb300c3
:10559400004f78001e0890000000e00003003a006d
:1055a40010fd2f00200f98003500370068004700d9
:1055b40052002000410f210032ef0700680047002d
:1055c400ee48900021409800680147008e08900042
:1055d400f00f200000806000c801dd009200900000
:1055e400f00f20000080600003007000100198009c
:1055f4000e089000c800de00f00f200080816000db
:10560400a200900000f02f000080600003007000f2
:10561400200198008e00e8006d004700e802470072
:105624000002780033c0b300220020000500780097
:10563400830f0700004f78001e04e00003003200cf
:105644001e00fb00200f98000d0037005e489000fc
:10565400e74f50000300320021ff2f00210f980074
:10566400070037001e0890008e00e8008100e80063
:105674004200200003ef07001e00fb00200f9800eb
:105684002e0890000080fa00000006000e00fa00c8
:105694005007980070c0b300004f98005e0090005f
:1056a4000000e00003003a0010fd2f00600798009e
:1056b4001a0037008e00e8006800470000027800f6
:1056c40033c0b30022002000e00f21005c0f07006c
:1056d400004f78001e04e000030032001e00fb00af
:1056e400600798000d0037000e489000e74f500007
:1056f4000300320020ff2f006007980007003700e6
:105704005e0090008e00e8008100e8003200200076
:10571400dcee07001e00fb00600798006e0090009e
:105724000080fa00000006000e00fa0050079800fe
:1057340070c0b300004f98005e0090000000e000cd
:1057440003003a0010fd2f0060079800190037008d
:105754008e00e800680047000002780033c0b30000
:105764002200200080102100350f0700004f780030
:105774001e04e000030032001e00fb0060079800d6
:105784000c0037000e489000e74f50000300320031
:1057940020ff2f0060079800060037000e00e80085
:1057a400c04090005e009000014878001e00fb009d
:1057b400600798006e0090000080fa000000060068
:1057c4000e00fa005007980070c0b300004f980014
:1057d4005e0090000000e00003003a0010fd2f007e
:1057e400600798001a0037008e00e8006800470040
:1057f4000002780033c0b30022002000900f210083
:105804000f0f0700004f78001e04e0000300320071
:105814001e00fb00600798000d0037000e48900042
:10582400e74f50000300320020ff2f00600798006c
:10583400070037005e0090008e00e8008100e80059
:10584400420020008fee07001e00fb006007980056
:105854006e0090000080fa00000006000e00fa00be
:105864005007980070c0b300004f98005e0090008d
:105874000000e00003003a0010fd2f0060079800cc
:10588400470037008e00e8006800470000027800f7
:1058940033c0b30022002000400f2100e80e0700af
:1058a400004f78001e04e000030032001e00fb00dd
:1058b400600798003a0037000e489000e74f500008
:1058c4000300320020ff2f006007980034003700e7
:1058d400de0190000e00e8008000e80022002000b5
:1058e4000300780067ee07000e00e8008040eb003c
:1058f400014878000000e8008040eb00014878008f
:105904000000e8008040eb00014878000000e80057
:105914008040eb00014878000000e8008040eb0084
:10592400014878000000e8008040eb00014878005e
:105934000000e8008040eb00014878008e00e80099
:10594400680047000002780033c0b3002200200042
:10595400e00f2100ba0e0700004f78001e04e0009b
:10596400030032001e00fb00600798000c003700a3
:105974000e489000e74f50000300320020ff2f0034
:1059840060079800060037000e00e800c040900051
:105994005e009000214098001e00fb006007980004
:1059a4006e0090000080fa00000006000e00fa006d
:1059b4005007980070c0b300004f98005e0090003c
:1059c4000000e00003003a0010fd2f00600798007b
:1059d4005e0037000e00e8008040eb0001487800cc
:1059e4000000e8008040eb00014878000000e80077
:1059f4008040eb00014878000000e8008040eb00a4
:105a0400014878000000e8008040eb00014878007d
:105a14000000e8008040eb00014878000000e80046
:105a24008040eb00014878008e00e80068004700e1
:105a34000002780033c0b30022002000400f210090
:105a44007f0e0700004f78001e04e00003003200c0
:105a54001e00fb00600798003c0037000e489000d1
:105a6400e74f50000300320020ff2f00600798002a
:105a7400360037000e00e800e30040005e009000ae
:105a840022002000ffed07000e00e8008040eb003c
:105a9400014878000000e8008040eb0001487800ed
:105aa4000000e8008040eb00014878000000e800b6
:105ab4008040eb00014878000000e8008040eb00e3
