:020000040000fa
:080000000002040000000000f2
:020000040000fa
:100400008fa921002e7f24000e018800000000002b
:100410000c00070000242400010020001100070048
:10042000000020000000e000020032000000020096
:1004300000000000ce530200000000000040da007f
:100440000000fe004440a900600c20000000e00015
:100450000300320000002000a00188004440a800f2
:100460000000060091018800800078000000eb0089
:1004700015003700e280400032a0b4009101ba00bc
:10048000e280400032a0b4009102ba00e280400055
:1004900032a0b4000002eb00472bde00f507b200eb
:1004a000602ce10004003a000059eb008301e900f0
:1004b000fdff3e00040037006128e100010032002a
:1004c0000082eb00040007001101ba000200e00006
:1004d000e8ff3a00000006003159ba008301e90044
:1004e0000c0032002159ba008301e90008003200f3
:1004f0000400e00003003a00e280400032a0b400b3
:10050000f5ff370011d9ba008301e900faff3a007c
:100510008100e800e180400032a0b4000000060045
:10052000da56040000000000c44904000000000086
:100530009849040000000000044a04000000000084
:100540001e4a040000000000be1504000000000068
:100550005e15040000000000fe150400000000000d
:1005600018160400000000000040da000000fe0041
:10057000889fbe008a9fbe00010578000100e00050
:100580000400350008003c000000e00020003200bc
:100590000500370060001000e080180002003b00fa
:1005a00001f02c001a0037000004be006011b800f2
:1005b0006b0920000982cf00020039000882cf00b9
:1005c0000441b000694252000e00320008003b00b6
:1005d00082817100610164008904d1000884d30024
:1005e0008b05e8000442e800f9ff3a0005003700f7
:1005f0000804440089844c008b05e9000442e900aa
:10060000fbff3a00280107000af0a70001f0a00054
:100610004f05be004f04be000000060003f0a2001c
:10062000889fbe008a9fbe008c1f7800440107008f
:100630004b0133006450e1004f0032006420e100c0
:100640005200320003826c0007003b000905d00015
:100650000306d000820f54000c065d000200390032
:100660000200320089017800030678008582550077
:1006700004003d000003fd008103fd008502ea0047
:100680008b854200840f720002003b006000100066
:10069000e08018006011b8000005eb007a28e10046
:1006a0000a00390006007800c75ddd00f707b200d8
:1006b000878075002d003700828171000a01780063
:1006c000610560008180d1000080d3008502e900cf
:1006d000f9ff3b00060440008784480002003b000d
:1006e00060041400e0841c000988a30007003200a5
:1006f0008a81710082817100610164008904d100e6
:100700000884d3008b05e800170037000978a300a0
:1007100013003a000b00e000130034008b05e900e1
:100720000804440089844c000a4474000978a3003a
:100730000d003a000b00e000070034008b05e900d3
:100740000804440089844c0001003a000b0020009a
:100750000978a300f7ff32000001eb000200370028
:10076000828171000a017800cf0007000cf0a70019
:1007700001f0a000030137006420e10002003a000c
:10078000838f6c00030133000801be000200be002d
:10079000fc003700889fbe008a9fbe008c1f780037
:1007a000e7000700ee00330003866c006450e100b0
:1007b000240032006420e100270032006150e10093
:1007c000220032006120e100210032008b854200ce
:1007d000eb07b1000134b800003ab8000804420049
:1007e00089844a00013ab8000030b800888040008f
:1007f00009014a00040033000000400081804800e5
:10080000020149008b05e900c909dd008301700080
:100810000100320013002000c814de004814dd007f
:100820004709de001200b200c808de00088470002c
:100830009d00070001f0a1000cf0a70001f0a0004e
:10084000d00037006120e100d20032000801be0074
:100850000200be00f7ff37006150e100fcff3a00e4
:10086000cc003700f4ff2f00cd003700140020002b
:10087000cb0037000001be00e40007000470a700b1
:1008800003f0a1006509b100160032000d0035002b
:100890006828e10006003500f0ff2f00f1ff270077
:1008a0000300e00013003b000100280000000500e9
:1008b00000004000818048008502e900fcff3a000a
:1008c00008003700f88f420002003c008000eb0077
:1008d000000005008100d1000080d3008502e800ff
:1008e000fcff3a000300e00002003b006000100043
:1008f000e080180000000600839f68000100e0000f
:1009000002003d0060001000e08018000300e000dd
:1009100002003d0060011100e0811900d0000700d5
:100920004f00e00002003b0060001000e080180073
:1009300000000600889fbe008a9fbe008c1f7800c2
:100940007f0007008600330003866c006450e100de
:100950002e0032006420e100330032006150e100db
:100960002f0032006120e100310032008585550002
:10097000eb07b00009002000080420000500370044
:100980000804440089844c000a0031000603430037
:1009900087834b000001530081815b00f8ff330027
:1009a0000203be000800a0000804440089844c0033
:1009b000f6ff3900c639dd00830173000100320003
:1009c000130020008904d1000884d3000998a300f3
:1009d000050032000800a7000300a0008904d10030
:1009e0000884d3008b05e8008904d1000884d30073
:1009f0000001eb000281d2002b00070001f0a100f2
:100a00000cf0a70001f0a0005e0037006420e100b8
:100a1000600032000801be000200be00f7ff370090
:100a20006120e1005b0032006000b800f3ff370096
:100a30000000200001f82700f0ff37000001be0091
:100a4000720007000470a70003f0a10003f8a300e0
:100a500013003a006509b1001000320009003500aa
:100a60006928e100020035000100280000000500af
:100a700000004000818048008502e900fcff3a0048
:100a800000000600f88f4200050035008100d1000b
:100a90000080d3008502e800fcff3a000000060059
:100aa0008000eb00000005008100200061805500ff
:100ab0000b003d000b00200061fe2f000100e10053
:100ac0001d00340082817100610164008904d1003d
:100ad0000884d3000000e800faff3a00710020000b
:100ae0006100640003007000020060000900320031
:100af00061044400e0844c000988a5000500320030
:100b00008b05e8006808e10002003a008904d10082
:100b10000884d300f20f20000258e10005003d00d8
:100b2000c75ddd00f907b200898075000800780014
:100b3000000006000bf827008b007800000005007d
:100b40000004be00310007000003be000405be0023
:100b50000200be002d000700844f75000000060053
:100b60000200be006450e100050036006420e10090
:100b7000020036000968a30001003a000800be0028
:100b80000160a0004f0678004f05be004f04be0074
:100b900000000600f0ff2f00f1ff2700f9ff3700eb
:100ba000889fbe008a9fbe00841f7800e4ff070074
:100bb0004f00780011003300f0ff2f00838f6c008e
:100bc00006003b00040565000a00a7000800370086
:100bd00009f0a6001000200008003700820f540022
:100be000838f5c00030039001000200001003e00ec
:100bf0000000200009f0a7000000ea004f05be0039
:100c00004f04be000000e00000000600c70ade003e
:100c1000f107b200f50fb20008003200e1cf420048
:100c2000020032000170a00024000500810f700056
:100c3000010032000408050044000500810f700027
:100c400002003a00140005008502e900000040009f
:100c500081c04800fcff3b000170a000240005009b
:100c60006022b800060220000000d0008180d2007f
:100c70000482d2008582d2000000a000020252004d
:100c800083825a00030031000202420083824a003c
:100c90000000a1000603e900f3ff3a00000006008f
:100ca0008001eb000200370061f079008301e80069
:100cb000828f5100fcff3a00000006000400fa0099
:100cc000e0bf9f00e4815700812978000002eb001b
:100cd0000f0037006fb89700904078007fb89700fa
:100ce000104078000402e80080cf50000400320079
:100cf0008180fb000080fb0000805000070037006f
:100d00006fb897000000e800e0bf9f009309e8007b
:100d1000820f5200efff3a000000eb000080fa0063
:100d20000000060000027800808f50000a003100a9
:100d300082814000808f510007003600020240008f
:100d40008000eb00436278008100e800828f500051
:100d500007003200fbff37000200e0000400320011
:100d600002814000315a7800828f5000fdff3a0026
:100d7000000006008001eb0002003700817178005e
:100d80008301e800828f5100fcff3a00000006005a
:020000040000fa
:020000040005f5
:0457f8009e430000cc
:020000040000fa
:020000040005f5
:0457fc00fb1e000090
:020000040000fa
:10000800b4020000b4020000b4020000b402000010
:10001800b4020000b4020000b4020000b402000000
:10002800b40200009e570000b4020000e056000031
:10003800b4020000c4570000b402000006570000d4
:100048002c570000b4020000b4020000a8580000b9
:10005800ce58000082580000b4020000b40200002c
:10006800b4020000502c0000b4020000b4020000ea
:10007800b4020000b4020000b4020000b4020000a0
:10008800b4020000b4020000b4020000525700009d
:1000980078570000b4020000f01400008a15000030
:1000a800b4020000b4020000b4020000b402000070
:1000b800b4020000ea57000010580000365800004b
:1000c8005c580000b4020000b4020000b402000052
:1000d800b4020000b4020000b4020000b402000040
:1000e800b4020000b4020000802c0000b40200003a
:1000f800b4020000b4020000b4020000b402000020
:10010800b4020000b4020000b4020000b40200000f
:10011800b4020000b4020000b4020000b4020000ff
:10012800b4020000b4020000b4020000b4020000ef
:10013800b4020000b4020000b4020000b4020000df
:10014800b4020000b4020000b4020000b4020000cf
:10015800b4020000b4020000b4020000b4020000bf
:10016800b4020000b4020000b4020000b4020000af
:10017800b4020000b02c000038080000b4020000ef
:10018800b4020000b4020000b4020000b40200008f
:10019800b4020000b4020000b4020000b40200007f
:1001a800b4020000b4020000b4020000b40200006f
:1001b800b4020000b4020000b4020000b40200005f
:1001c800b4020000b4020000b4020000b40200004f
:1001d800b4020000b4020000b4020000b40200003f
:1001e800b4020000b4020000b4020000b40200002f
:0801f800b4020000b402000093
:020000040000fa
:10020800b4020000b4020000b4020000b40200000e
:10021800b4020000b4020000b4020000b4020000fe
:10022800b40200009e570000b4020000e05600002f
:10023800b4020000c4570000b402000006570000d2
:100248002c570000b4020000b4020000a8580000b7
:10025800ce58000082580000b4020000b40200002a
:10026800b4020000502c0000b4020000b4020000e8
:10027800b4020000b4020000b4020000b40200009e
:10028800b4020000b4020000b4020000525700009b
:1002980078570000b4020000f01400008a1500002e
:1002a800b4020000b4020000b4020000b40200006e
:1002b800b4020000ea570000105800003658000049
:1002c8005c580000b4020000b4020000b402000050
:1002d800b4020000b4020000b4020000b40200003e
:1002e800b4020000b4020000802c0000b402000038
:1002f800b4020000b4020000b4020000b40200001e
:10030800b4020000b4020000b4020000b40200000d
:10031800b4020000b4020000b4020000b4020000fd
:10032800b4020000b4020000b4020000b4020000ed
:10033800b4020000b4020000b4020000b4020000dd
:10034800b4020000b4020000b4020000b4020000cd
:10035800b4020000b4020000b4020000b4020000bd
:10036800b4020000b4020000b4020000b4020000ad
:10037800b4020000b02c000038080000b4020000ed
:10038800b4020000b4020000b4020000b40200008d
:10039800b4020000b4020000b4020000b40200007d
:1003a800b4020000b4020000b4020000b40200006d
:1003b800b4020000b4020000b4020000b40200005d
:1003c800b4020000b4020000b4020000b40200004d
:1003d800b4020000b4020000b4020000b40200003d
:1003e800b4020000b4020000b4020000b40200002d
:0803f800b4020000b402000091
:020000040000fa
:100d900009020000200000000101000000c0000066
:100da000320900000400000000020000ffff000004
:100db000ff0000000705000001010000ff00000027
:100dc000010700000581000001ff00000001000094
:100dd00004030000010000001a030000520000009c
:100de0006f000000620000006f000000740000004f
:100df00065000000580000002c00000020000000ea
:100e0000490000006e000000630000002c03000099
:100e10004d00000061000000720000002000000092
:100e2000310000003100000020000000320000000e
:100e300030000000310000003300000020000000fe
:100e400031000000360000003a00000034000000cd
:100e5000340000003a0000003000000033000000c1
:100e600000000000c8860000e8860000ec86000054
:100e700006870000a38200000000000000000000c0
:100e8000afa30000830000000000000000af0000de
:100e9000a34400000101000000000000afa3000017
:100ea0001c010000408e000000af0000a31c0000e9
:100eb000004000008e000000afa3000031000000e1
:100ec0000000000000af0000a310000000000000c0
:100ed00000000000afa300000400000000000000bc
:100ee00000af000000000000000000000000000053
:100ef0000000000000000000800000000000000072
:100f00000000000000010000bfff0000ffff000024
:0c0f1000ffff0000ffff0000ff000000da
:020000040000fa
:100f1c000200fa009ec0a900f00f20007024880087
:100f2c00f00f20005024880020002000302588007d
:100f3c000000eb00402588008644a900f009200041
:100f4c0080248800f0092000602488008804a80010
:100f5c00006021004800de00c02488009424a80012
:100f6c000000eb00b02488000000eb006025880036
:100f7c009424a9000040eb00004f780007003700d4
:100f8c001e80fb00c200dd000060210000814000db
:100f9c006000b8000089be001e4fe80070c0b300ae
:100fac009e4f1000f6ff3600d00020005025880020
:100fbc000200370080002000502488008ac4bf0043
:100fcc00684060000004e000faff3a000040eb00cb
:100fdc001ef5b7000040eb0029f5b7002ad5bf007d
:100fec00604060002af5b7002bd5bf006040600060
:100ffc002bf5b70094a4a9000040eb00004f78003b
:10100c000d0037001e80fb0080004000e0522100e4
:10101c00808040000000eb00800878001e80fb0000
:10102c008000400080532100808040000000eb00d5
:10103c00800878001e4fe80010c0b3009e4f1000cf
:10104c00f0ff36008060210070a988000040eb00a2
:10105c0026f5b7000000eb0020a988000080fa00fc
:10106c00000006003600f800809fbe00829fbe0084
:10107c00849fbe00869fbe003400f8000000200054
:10108c00a00188000200fa0020a98000e10f5000a6
:10109c000a003a0094c4bf000044b2000004e0000f
:1010ac0006003a00f00f2000502488008c04a800a1
:1010bc008c84a8002000200020a9880080c4bf00d8
:1010cc00704060000004e0000700320082c4bf00e2
:1010dc00704060000004e0000300320000012000ba
:1010ec0000248800a200070088c4bf006240600092
:1010fc000004e000020032008ec0a900730037002b
:10110c008ac4bf00614060000004e0001800320097
:10111c008cc4bf00614060000004e0001400320089
:10112c007bff07009ec0a8004000200020a988007b
:10113c008054210010b0880080c0b30000f6b700c6
:10114c00116021009140780030c0b30000c06000f5
:10115c0001f6b7001160210091407800c0c8b300bf
:10116c0000c0700001f6b700100020005024880069
:10117c008ac4bf00704060000004e0000700320029
:10118c008cc4bf00704060000004e000030032001b
:10119c006d00070000012000502488008ac4bf00a5
:1011ac00644060000004e0000a0032008cc4bf0000
:1011bc00644060000004e0000600320012002000d1
:1011cc008000eb0030072000eb26070040002000d9
:1011dc00502488008ac4bf0001c8b30001406000dd
:1011ec000004e000060032008cc4bf0001c8b3004c
:1011fc00014060000004e000010032003b000700e9
:10120c008ac4bf00624060000004e0000a003200a3
:10121c008cc4bf00624060000004e0000600320095
:10122c00120020008000eb00f0ff2700d226070000
:10123c00f00f20007024880020a98000e30f5000dc
:10124c0002003e008ec0a900200037008cc4bf00f5
:10125c00684060000004e0001b0032000040eb001e
:10126c00004f7800150037008ac4bf00684060004a
:10127c000004e000140032009024800040f5b70018
:10128c00800020005024880040d5bf008080fb00e7
:10129c00000f2000008060000000e00002003a0017
:1012ac003d00070004003700015421000001eb0051
:1012bc0020072000b02607001e4fe80030c0b30006
:1012cc009e4f1000e8ff36008ec0a9000080fa0087
:1012dc003400f9004f03be004f02be004f01be00a8
:1012ec004f00be003600f900004006000000fa0076
:1012fc00aac4bf00624060000004e0000e0032008f
:10130c00a0a980009040900000c8b30080cf50008e
:10131c0008003a0070a980009040900040c8b300cb
:10132c0080cf500003003a00a1a98000c0c8b300d0
:10133c0090409800aa24a90000082000502488009e
:10134c000080fa00000006000000fa008284a80069
:10135c0000012000502488000001eb008000eb000d
:10136c0050072000842607000080fa0000000600c9
:10137c000000fa000001eb008000eb0040072000a9
:10138c007d2607008284a90000012000002488002b
:10139c000080fa00000006000200fa0040d5bf00f1
:1013ac008080fb00b0ff2f00008060000000e00098
:1013bc0035003a0040d5bf008080fb00c00f2000f4
:1013cc00008060004280de004200dd00800078007a
:1013dc000060210000804000a0a98800a0a9800026
:1013ec00b0a988006153210060532100104078009f
:1013fc000024a20080487800a0a980001040900032
:10140c00c2c3b3008240600040c3b30080cf500021
:10141c001b003a00a0a9800090009000005521000c
:10142c00808f500014003a00a1a980008054210044
:10143c00900098000040eb00004f78000b00370044
:10144c001e80fb0080007800805421000081400049
:10145c001e80fb00800078000055210000804000b9
:10146c0010407800004978001e4fe80070c0b300af
:10147c009e4f1000f2ff36000c00070009003700e9
:10148c00280007000700370040d5bf008080fb0014
:10149c00b0ff2f0000806000e80f500001003a0000
:1014ac00380007000080fa00000006000000fa0077
:1014bc0070a980009040900000c8b30000c060008c
:1014cc000004e0000300320071a980000040eb0032
:1014dc00904098000040eb003cf5b7000040eb005a
:1014ec003df5b7001fd5bf00604060001ff5b70089
:1014fc0020d5bf006040600020f5b7000040eb0035
:10150c001ef5b700780007000001eb008000eb002f
:10151c0030002000182607000e0207000080fa0099
:10152c00000006000000fa003dd5bf00e24f50005d
:10153c0002003a00110307001000370046000700b4
:10154c0010aa80000000e0000a003a00b1a9800057
:10155c0080c0b30080487800b1a98000805421007d
:10156c0090009800b1a98000c0c8b30090409800ca
:10157c00020037000000eb0010aa88000080fa007f
:10158c00000006000200fa0070a9800010409000d4
:10159c000080fb004600de0061406000004f7800d8
:1015ac00e1522100e0522100104078000024a200fa
:1015bc008048780020a98000e80f50000b003a000a
:1015cc004ad5bf000080fb00b0248800b024800006
:1015dc000000e000030032000001200020a9880078
:1015ec00020037004000200020a988003dd5bf0034
:1015fc00e14f500015003a0071a980000055210000
:10160c00900098005c0207003cd5bf00e24f5000f0
:10161c0004003a0071a9800040c8b30090409800c3
:10162c000b0037001e04e00004003a0071a9800092
:10163c0080ccb300904098000500370071a9800061
:10164c0080c8b300904098000100370002000700ea
:10165c000080fa00000006000200fa000040eb00d7
:10166c003df5b70071a980000040eb009040980058
:10167c0070a980000020a200000f78009e00780066
:10168c000040eb009040980091522100914078006e
:10169c0000c8b30000c060000004e000100032007d
:1016ac002cd5bf008080fb002dd5bf000080fb0037
:1016bc004800dd00010070000000e000070032006f
:1016cc002cd5bf008080fb002dd5bf000080fb0017
:1016dc004800dd00010070000000010029f5a900a0
:1016ec000080fa00000006000400fa0048d5bf0094
:1016fc000046b2000004e00058003a0049d5bf0093
:10170c000080fb006101b900028fbe00b000200018
:10171c00010020001e01be00800f5100818f590076
:10172c004e003e001e00be00006001002400370089
:10173c0025003700490037002300370047003700e9
:10174c000600370009003700400037000b00370057
:10175c00080037001e003700330037001ef5a800c4
:10176c008000200020a988003c003700a40007005e
:10177c003a0037000003070038003700625221009e
:10178c00f00f2000800061001cd5bf00604060009d
:10179c00014070001cf5b700c810de001dd5bf005d
:1017ac0060406000014070001df5b7001e15a800d8
:1017bc0010c0b3001ff5b7001ef5a80027003700b6
:1017cc000e01070025003700260007002300370014
:1017dc004cd5bf000080fb00800078002053210016
:1017ec000080400000017800f00f200080006100b4
:1017fc001cd5bf0060406000014070001cf5b700b4
:10180c00c810de001dd5bf006040600001407000b4
:10181c001df5b7001e15a80010c0b3001ff5b700ca
:10182c001ef5a8000d0037001ef5a8004cd5bf0012
:10183c008080fb00a254210012417800205321002b
:10184c000080400002487800040037000001eb00e3
:10185c008000eb0020002000472507000080fa00e4
:10186c00000006000400fa004ad5bf00e14f50000a
:10187c000d003a0048d5bf007f4060000004e00036
:10188c0009003a001ef5a80049d5bf00e34f5000ef
:10189c0003003a001000200010a988000200370055
:1018ac000000eb0010a988004ad5bf000004e0003e
:1018bc0051003a0048d5bf007f406000e24f500015
:1018cc004d003a004cd5bf006f4060000004e000b2
:1018dc00490032001ef5a8004cd5bf0001c8b3006a
:1018ec00014060000004e00009003a004cd5bf0044
:1018fc006f4060000080fb0080004000805321009e
:10190c000080400010007800100798000800370095
:10191c004cd5bf006f4060000080fb008000400091
:10192c00e052210000804000100078001007980061
:10193c0049d5bf00e34f500004003a009e009000d0
:10194c0040c8b300904098002b0037004cd5bf0026
:10195c006f4060000080fb000000400080007800b9
:10196c00a04a200000804000000f78001e00780084
:10197c0090407800d0cfb30080c060001e0078008b
:10198c0001487800c15421009140780000c8b30090
:10199c0000c060000004e0000c0032009e009000cb
:1019ac000040eb00904098008e80e8000e80e8002c
:1019bc00104078000024a200804878009e0090001f
:1019cc0000c4b300904098000b0037009e009000bc
:1019dc0080c8b300904098008e80e8000e80e8002c
:1019ec00104078000024a200804878009e009000ef
:1019fc0080ccb300904098000080fa0000000600f4
:101a0c000200fa00815421009140780000c8b30014
:101a1c0080cf500077003a0000ccb3001ef5b70021
:101a2c004bd5bf000080fb00000f78001e00780033
:101a3c00e20f50001b0032001e007800e30f500034
:101a4c003e0032001e007800e10f50000100320011
:101a5c0066003700a2592100f00f200080006100c1
:101a6c001cd5bf0060406000014070001cf5b70041
:101a7c00c810de001dd5bf00604060000140700042
:101a8c001df5b7001fd5bf00604060002041b300ba
:101a9c001ff5b70020d5bf006040600020f5b700ef
:101aac00540037004ad5bf000080fb000000400006
:101abc00800078002073280000804000100178001e
:101acc00f00f2000800061001cd5bf00604060005a
:101adc00014070001cf5b700c810de001dd5bf001a
:101aec0060406000014070001df5b7001cd5bf00c0
:101afc008080fb001dd5bf000080fb004800dd008e
:101b0c00010070000080e80010017800f00f200048
:101b1c00800061001fd5bf00604060000140700074
:101b2c001ff5b700c810de0020d5bf006040600074
:101b3c000140700020f5b7002e0037004ad5bf00d9
:101b4c00e24f500026003e004ad5bf000080fb004b
:101b5c0000004000800078004073280000804000a6
:101b6c0010017800f00f2000800061001cd5bf0030
:101b7c0060406000014070001cf5b700c810de002a
:101b8c001dd5bf0060406000014070001df5b7001e
:101b9c001cd5bf008080fb001dd5bf000080fb0062
:101bac004800dd0001007000104078000081fb004f
:101bbc00f00f2000800061001fd5bf006040600066
:101bcc00014070001ff5b700c810de0020d5bf0023
:101bdc00604060000140700020f5b7000500370040
:101bec000040eb001ef5b700020037000040eb0090
:101bfc001ef5b7000080fa00000006000400fa0091
:101c0c000040eb0050f5b7000040eb0051f5b70079
:101c1c0048d5bf007f4060000080fb001007980093
:101c2c001e009000e10f5000120032001e009000c8
:101c3c00e20f5000110032001e0090000000e00086
:101c4c00010032002d0037001ef5a80050d5bf0052
:101c5c000004a00050f5b70010a98000e10f50005f
:101c6c0026003a0050d5bf000014a00050f5b70074
:101c7c00220037001ef5a800200037001ef5a80032
:101c8c004cd5bf0001c8b300014060000004e00067
:101c9c0009003a004cd5bf006f4060000080fb008b
:101cac00800040008053210000804000100078002c
:101cbc00000f7800080037004cd5bf006f40600063
:101ccc000080fb0080004000e052210000804000ba
:101cdc0010007800000f78001e0078001040900073
:101cec000080fb004200de00610060000004e000a8
:101cfc000200320010c0b30050f5b7001ed5bf0073
:101d0c0001c8b300014060000004e0000f00320085
:101d1c0002552100f00f2000800061001cd5bf008f
:101d2c0060406000014070001cf5b700c810de0078
:101d3c001dd5bf0060406000014070001df5b7006c
:101d4c001e15a80020c0b3001ff5b7000080fa00d4
:101d5c00000006000000fa0094a4a9001ed5bf00e4
:101d6c0001c8b300014060000004e00024003a0008
:101d7c0029d5bf0001c8b300014060000004e00099
:101d8c001200320020c0b3003df5b70071a98000ed
:101d9c000040eb008048780071a9800080ccb30033
:101dac0090409800b1a9800080c0b30080487800b2
:101dbc00b1a980000055210090009800b1a98000c5
:101dcc0080ccb3009040980069003700b1a9800026
:101ddc0080c0b30080487800b1a9800080542100f5
:101dec0090009800b1a98000c0c8b3009040980042
:101dfc0071a9800040c8b300904098005c00370087
:101e0c0029d5bf0001c8b300014060000004e00008
:101e1c0057003a0048d5bf0001c8b300014060002c
:101e2c000004e000410032004ed5bf008080fb0072
:101e3c004fd5bf000080fb004800dd0001007000a2
:101e4c00000178001fd5bf008080fb0020d5bf00ab
:101e5c000080fb004800dd0001007000800f510085
:101e6c00120031004ed5bf008080fb004fd5bf0063
:101e7c000080fb004800dd000100700000017800cc
:101e8c00f00f2000800061001fd5bf006040600093
:101e9c00014070001ff5b700c810de0020d5bf0050
:101eac00604060000140700020f5b7003200070070
:101ebc0010c0b3003df5b700b1a9800080c0b300dd
:101ecc0080487800b1a980008054210090009800cf
:101edc00b1a9800000c8b300904098000000eb004e
:101eec0010aa8800a1a9800080c0b30080487800a7
:101efc00a1a980008054210090009800a1a9800025
:101f0c0040c8b300904098001000200010aa880030
:101f1c0071a98000005521009000980071a98000e3
:101f2c0080ccb300904098001100370020c0b30063
:101f3c003df5b70071a980000040eb0080487800a7
:101f4c0071a9800080ccb30090409800b1a98000aa
:101f5c0080c0b30080487800b1a9800000552100f2
:101f6c0090009800b1a9800080ccb30090409800fc
:101f7c000080fa00000006000200fa001fd5bf0026
:101f8c008080fb0020d5bf000080fb004800dd00f6
:101f9c0001007000e70f500013003e001fd5bf007a
:101fac008080fb0020d5bf000080fb004800dd00d6
:101fbc0001007000000f78003cd5bf000004e00069
:101fcc0003003a0010c0b3003cf5b700080037001e
:101fdc003cd5bf00e14f500005003a0020c0b300d3
:101fec003cf5b7000200370080002000000f78009d
:101ffc0072a9800070a98000904090001e40900053
:10200c0000c070001041980071a980001e4078003b
:10201c00804878001fd5bf008080fb0020d5bf0012
:10202c000080fb004800dd0001007000800078009b
:10203c001e00780000815000f00f2000800061002d
:10204c001fd5bf0060406000014070001ff5b70055
:10205c00c810de0020d5bf00604060000140700059
:10206c0020f5b70000552100f0a988001ed5bf004f
:10207c00614060000004e0003b003a001b003700a8
:10208c00f2a980001cd5bf008080fb001dd5bf00cd
:10209c000080fb004800dd0001007000800078002b
:1020ac0011407800004978000200e800f0a988008f
:1020bc000101e800f00f2000800061001cd5bf007a
:1020cc0060406000014070001cf5b700c810de00d5
:1020dc001dd5bf0060406000014070001df5b700c9
:1020ec001e0078000000e900000f78001e00780048
:1020fc000000e000e2ff3a001e003700f2a9800069
:10210c001cd5bf008080fb001dd5bf000080fb00ec
:10211c004800dd000100700080007800114078005c
:10212c00004978000200e800f0a988000101e800ed
:10213c00f00f2000800061001cd5bf0060406000e3
:10214c00014070001cf5b700c810de001dd5bf00a3
:10215c0060406000014070001df5b7001e00780063
:10216c000000e900000f78001e0078000000e0007d
:10217c00e2ff3a000080fa00000006000200fa00bc
:10218c00a0a9800090407800114798001e40900054
:10219c000081fb002ad5bf008080fb002bd5bf003f
:1021ac000080fb004800dd0001007000800f510032
:1021bc00070036002ad5bf008080fb002bd5bf005e
:1021cc000080fb004800dd00010070001047980003
:1021dc002ad5bf008080fb002bd5bf000080fb0000
:1021ec004800dd0001007000800078001e40900067
:1021fc000080fb0000815000f00f20008000610087
:10220c002ad5bf0060406000014070002af5b7007d
:10221c00c810de002bd5bf0060406000014070008c
:10222c002bf5b7000040eb00004f78001900370089
:10223c0027d5bf008080fb0028d5bf000080fb00a5
:10224c004800dd0001007000000178009e80fb005a
:10225c0000552100008040001040780000497800b3
:10226c000201e800f00f20008000610027d5bf00bc
:10227c00604060000140700027f5b700c810de0018
:10228c0028d5bf00604060000140700028f5b70001
:10229c001e4fe8001e4090009e4f1000e4ff3900d6
:1022ac002ad5bf008080fb002bd5bf000080fb002f
:1022bc004800dd00010070000000e0001300320057
:1022cc00b1a9800080c0b30080487800b1a980001b
:1022dc000055210090009800a0a9800010409000ab
:1022ec000044b2000004e00004003a00b1a98000f0
:1022fc0080ccb300904098001d003700b1a980003d
:10230c0080c8b3009040980019003700b1a9800034
:10231c0080c0b30080487800b1a9800080542100af
:10232c0090009800b1a9800040c8b300904098007c
:10233c002cd5bf008080fb002dd5bf000080fb009a
:10234c004800dd00010070000000e00007003200d2
:10235c002cd5bf008080fb002dd5bf000080fb007a
:10236c004800dd00010070000000010029f5a90003
:10237c000080fa00000006000200fa001ef5a8001a
:10238c000000eb00602588000040eb00004f780057
:10239c00070037001e80fb00c200dd00006021003a
:1023ac00008140006000b8000089be001e4fe800ac
:1023bc0070c0b3009e4f1000f6ff36009424a800a6
:1023cc000040eb0032f5b7009424a9008060210096
:1023dc0070a9880000602100a0a98800a0a9800035
:1023ec00b0a988004ad5bf0026f5b70026d5bf0096
:1023fc000004e00003003a000001200020a988003e
:10240c00060037001200200061522100100020004d
:10241c00592207000002200020a988000080fa0041
:10242c00000006000400fa0020479800314798008d
:10243c0000602100000f78002e4090000080fb000f
:10244c0000004000800078003e4090000080fb00bf
:10245c00008040004300dd004200de004200dd0051
:10246c001e0f40009e007800114090000074a100e7
:10247c00904098003e4090000004e00007003a00b5
:10248c002e4090000080fb00800040008053210013
:10249c00008040001e087800060037002e40900097
:1024ac000080fb0080004000e052210000804000d2
:1024bc001e0878001e01780092409000f0cbb3000b
:1024cc0000c06000104198001e00780064014000bc
:1024dc009240900000c4b30000c0700010419800fe
:1024ec000080fa00000006000400fa002047980063
:1024fc00314798002e4090000080fb000000400007
:10250c0080007800a04a200000804000000f780076
:10251c001e007800be409000014878003e409000bc
:10252c000080fb004300de00610060000004e0005e
:10253c00030032008040eb002e409000b9ff0700f2
:10254c003e4090000080fb004200de006100600015
:10255c000004e0000300320011c0b3002e409000d4
:10256c00b0ff07000080fa00000006000400fa002b
:10257c0020479800314798002e4090000004e0005e
:10258c000d003a00b1a9800080c0b30080487800eb
:10259c00b1a980008054210090009800b1a980005e
:1025ac00c0c8b3009040980071a9800040c8b30027
:1025bc0090409800230037002e4090000080fb00d4
:1025cc0000004000800078003e4090000080fb003e
:1025dc00008040004300dd00800078000060210096
:1025ec0000804000000f78001e00780090409000a2
:1025fc0040c8b30080c070001e00780011409800e5
:10260c002e4090000080fb0000004000800078000d
:10261c003e4090000080fb00008040004300dd0045
:10262c008000780040602100008f40001e00780080
:10263c009040900040c8b30080c070001e0078002d
:10264c00114098000080fa00000006000a00fa0011
:10265c00204798003147980022079800634798005c
:10266c003e4090000004e000070032002e40900035
:10267c000080fb0080004000e05221000080400000
:10268c00100f7800060037002e4090000080fb00f1
:10269c00800040008053210000804000100f780023
:1026ac001e00e00003003a000000eb004007980019
:1026bc00390037002e009000800078001e00780052
:1026cc00110098001e007800ee4090000148780040
:1026dc001e0078001040900002c4b30082406000dd
:1026ec001e007800114098001e0078009040900069
:1026fc0080c8b30080c070001e00780011409800a4
:10270c003e4090000004e000110032002e4090008a
:10271c000080fb000000400080007800e0522100a7
:10272c0000804000000178002e4090000080fb00eb
:10273c000000400080007800e05221000080400042
:10274c00104078000024a2000049780010003700e7
:10275c002e4090000080fb000000400080007800bc
:10276c008053210000804000000178002e40900032
:10277c000080fb00000040008000780080532100a6
:10278c0000804000104078000024a200004978002e
:10279c001e007800400798004e0090000080fa0060
:1027ac00000006000600fa00004f780094c4bf0039
:1027bc000042b2000004e0005f0032001e80fb000b
:1027cc0080004000e052210000804000100378009f
:1027dc001e80fb0080004000e05221000080400081
:1027ec00100078001000be0002042000030020003e
:1027fc0000027800810278000200780083007800e3
:10280c0000016200018062006102b80014079800a8
:10281c00250798001e009000ae009000c000dd005f
:10282c000000200010079800210798001e0090005f
:10283c00ae0090006112b8001407980025079800ac
:10284c001e019000ae0190000200700083807000a9
:10285c00008bbe001e80fb0080004000e052210077
:10286c0000804000100278001e80fb0080004000b9
:10287c00e052210000804000100078001001be00e2
:10288c000004200001002000000069008180690024
:10289c00008abe001e80fb00000040008000780013
:1028ac00e052210000804000000178001e80fb00f7
:1028bc000000400080007800e052210000804000c1
:1028cc00104078000024a200004978001e80fb0014
:1028dc0080004000e0522100008040001001780090
:1028ec001e80fb0080004000e05221000080400070
:1028fc0010007800104090000044b2001041980085
:10290c001e80fb0080004000e0522100008040004f
:10291c00100178001e80fb0080004000e052210076
:10292c0000804000100078009040900000c4b3007c
:10293c0000c06800104198000080fa0000000600fa
:10294c000000fa000000eb00a02488000000eb005f
:10295c00602488000000eb0020a988000080fa00a9
:10296c00000006000000fa0020a980000000e00032
:10297c0016003a000000eb00a02488000000eb00d9
:10298c006024880020002000302588000000eb0027
:10299c00402588008644a900f00920008024880086
:1029ac00f0092000602488009ec0a80001003700b8
:1029bc009404a80094c4bf00614060000004e000cf
:1029cc00fbff32001000200020a988000080fa00d4
:1029dc00000006003600f800809fbe00821f7800c1
:1029ec003400f80000002000a00188000200fa006a
:1029fc0087c0a90032c2bf00624060000004e00042
:102a0c00210032003222a9001f003700b0118000d3
:102a1c00004f7800909a80000000e0000f003a0010
:102a2c0030cab3009e4f100017003a00919a8000f4
:102a3c0020382100008040001e487800909a8000c9
:102a4c000000e80072002000110009000200d8000c
:102a5c008000fd00909a88000b003700919a80004e
:102a6c0020382100008040001e487800909a800099
:102a7c000000e80072002000110009000200d800dc
:102a8c008000fd00909a880032c2bf006140600057
:102a9c000004e000ddff3a000080fa003400f90089
:102aac004f0178004f00be003600f90000400600d0
:102abc000000fa008580a900c09a80008000780090
:102acc00b09a8000808f50000a003100c19a8000bb
:102adc000039210000804000104078000080fb008d
:102aec0020118800c09a80000000e800c09a88007d
:102afc00030037000000eb00c09a88009580a90005
:102b0c000080fa0000000600809fbe003400f80030
:102b1c0000002000a00188000000fa0087e0a90056
:102b2c00a09a8000e60f50000a003c00a19a800099
:102b3c009038210000804000104078000080fb009d
:102b4c00a0118800a09a80000000e800a09a8800dc
:102b5c00030037000000eb00a09a880097e0a90062
:102b6c000080fa003400f9004f00be00004006005f
:102b7c000200fa008560a90022c2bf00624060001a
:102b8c000004e000140032002222a90012003700d9
:102b9c0030118000004f780070c7b3009e4f1000ba
:102bac0002003a000000eb00809a8800819a8000b5
:102bbc00a0372100008040001e487800809a8000d9
:102bcc000000e80082002000110009000200d8007b
:102bdc008000fd00809a880022c2bf006140600026
:102bec000004e000eaff3a000080fa000000060052
:102bfc000000fa00d09a8000e19a80006100400049
:102c0c00e0804800d09a8800e19a880010ae8000dd
:102c1c000000e80010ae88008460a9000080fa0073
:102c2c00000006000800fa00881f780020c3bf00cf
:102c3c00614060000004e0001c003200609b8000da
:102c4c00719b8000d2cc2c00c3f42300cef607007d
:102c5c002007980031079800081880006140b900df
:102c6c0040f60700008fbe000800e00005003d00a4
:102c7c0002002000037824001e00be0065f6070049
:102c8c00008fbe00d2cc2c00c3e423001e00be007b
:102c9c00bdf607000001be002e009000be009000a3
:102cac005cf60700609b8800719b880085a0a900da
:102cbc004f0478000080fa00000006000000fa00c3
:102ccc0090012000401188000000eb0000118800ea
:102cdc002062a9002042a9002022a80020c2a9003d
:102cec000000eb001011880021e2a8002342a8008c
:102cfc008580a9008560a9009580a9009560a80031
:102d0c000080fa00000006000000fa00900120008c
:102d1c00c01188000000eb00801188003062a9000f
:102d2c003042a9003022a80030c2a9000000eb00fc
:102d3c009011880031e2a8003342a80087e0a90076
:102d4c0087c0a90097e0a90097c0a8000080fa00ee
:102d5c00000006000600fa001007980021079800f2
:102d6c002e0090004400dd006a0f50001e00780019
:102d7c0042062000110009000200d80080007800f3
:102d8c001e0090000088b9001e001000b00c8800d6
:102d9c002e0090004400dd000080e900a00c8800ab
:102dac000080fa00000006000000fa00011120006b
:102dbc0091407800f0ccb30000c060000044a0004b
:102dcc0010e1b700f06f2f006008880092c1bf00bf
:102ddc00f041b30092e1b7009181a90001192000e4
:102dec009140780080cfb30000c060006040b30019
:102dfc0090e1b70011e1a800017a2f000000eb0070
:102e0c00d4ff07000080fa00000006000200fa0060
:102e1c00000f78001e00e00002003200cba2a800d8
:102e2c0001003700cba2a9000080fa0000000600c8
:102e3c000000fa000000eb00200888004110200080
:102e4c0091407800f0ccb30000c060000044a000ba
:102e5c0004e1b7000000eb0000088800f0e7230055
:102e6c001008880005e1a8008460a9009460a800ff
:102e7c000080fa00000006000000fa00400e280056
:102e8c00001988000000eb001019880050f0210098
:102e9c00201988000000eb00401988002c03a900c1
:102eac000000eb008019880095a0a8000080fa00b3
:102ebc00000006000000fa00811f7800821f7800d5
:102ecc00831f780021742000620420007305200009
:102edc00824878008348780042c7a900cf01780067
:102eec004f017800cf007800416a200091407800b3
:102efc0000ccb30000c060009040b300a4e6b70063
:102f0c00816c20009140780000ccb30000c06000c0
:102f1c003040b300c8e6b700616a200091407800e9
:102f2c0000ccb30000c06000b041b300a6e6b7000f
:102f3c00316d20009140780000ccb30000c06000df
:102f4c005040b300d3e6b700d16d2000914078001b
:102f5c0000ccb30000c060002041b300dde6b70038
:102f6c00113a8000000420000081700061042000f0
:102f7c007005200023742000814978008049780076
:102f8c00824978000080fa00000006000000fa0078
:102f9c00c8ff07000080eb00601988000080eb0080
:102fac00501988004116800060ff230000806000eb
:102fbc00401688004116800020f32300008070002a
:102fcc004016880081168000f0ff29000080600008
:102fdc0080168800c1168000c0472f00008060005a
:102fec00c0168800c1168000c04720000080700009
:102ffc00c016880001178000f0fd2f0000806000d3
:10300c00001788004117800070ff2f0000806000bf
:10301c004017880081178000f0c32f0000806000eb
:10302c0080178800e8a2a900d922a900d942a800db
:10303c00c902a900c922a800f122a800f102a90026
:10304c00c862a900ca62a800c9e2a900c962a900a5
:10305c00cb62a900c9a2a900cba2a900c9c2a90030
:10306c00cbc2a800c982a900cb82a800c802a800c4
:10307c00e05b2100c0ac8800e0552100b0ac8800ba
:10308c00e05f2100e0ab88008061210090ac8800fb
:10309c000aff07001cff070077ff070064ff07000b
:1030ac0041ff0700f0e2a900f4e2a80051992100c9
:1030bc0010c0b300804878000080fa0000000600c1
:1030cc000800fa0020079800310798000000eb0078
:1030dc00000f78000000eb00100798000a00370082
:1030ec001e009000800078002e00900000804000b0
:1030fc00104078000000fb001e0f40001e009000e6
:10310c000000e800100798009e0090003e00900020
:10311c00808f5000f2ff35001e00780000c0ea00de
:10312c000080fb000080fa00000006000200fa009c
:10313c00000f780097e0a9001e007800913821005c
:10314c0006000900b05878007000b1001e00e800bd
:10315c0041002000daff07008ef3b7000000eb00ff
:10316c00a09a880087e0a80097e0a8001000200033
:10317c00c09d8800d09a8000e19a8000a09d8800b4
:10318c00b19d88000080fa00000006000800fa00db
:10319c00a073280006000900305f78007e00b100a3
:1031ac000e007800e1ff07000080fa000000060026
:1031bc000800fa0060ca80004880de008040780079
:1031cc0000c0eb0000c1600060ca80008040780045
:1031dc0000c0eb0080c0600030cab300004f780024
:1031ec00a0cab300104798002247980031479800b6
:1031fc000040eb00404798000040eb00504798001f
:10320c00f0cab300604798000e007800c7ff0700b3
:10321c000080fa00000006000800fa0060ca800076
:10322c004880de008040780000c0eb0000c16000e8
:10323c0060ca80008040780000c0eb0080c0600055
:10324c0030cab300004f7800a0cab30010479800f2
:10325c00224798003147980010c0b30040479800af
:10326c000040eb0050479800f0cab300604798004c
:10327c000e007800adff07000080fa000000060089
:10328c000800fa001074280006000900305f78006e
:10329c007e00b1000e007800a4ff07000080fa0049
:1032ac00000006000800fa008074280006000900df
:1032bc00305f78007e00b1000e0078009bff0700a5
:1032cc000080fa00000006000800fa00f0742800e4
:1032dc0006000900305f78007e00b1000e00780017
:1032ec0092ff07000080fa00000006000800fa00b8
:1032fc006075280006000900305f78007e00b10080
:10330c000e00780089ff07000080fa00000006001c
:10331c000a00fa00400798004e0090004800de00ba
:10332c00804078004e0090000041780030cab30015
:10333c00004f7800b0c1b3001047980021479800a7
:10334c0032479800e0c8b300404798000040eb00bb
:10335c0050479800f0cab300604798000e00780000
:10336c0072ff07000080fa00000006000800fa0057
:10337c00d075280006000900305f78007e00b1008f
:10338c000e00780069ff07000080fa0000000600bc
:10339c000c00fa0040079800214f98004e00900056
:1033ac00804078002e49900030cab300004f78005e
:1033bc0010c1b3001047980021479800324798007d
:1033cc000040eb00404798000040eb00504798004d
:1033dc00f0cab300604798000e00780053ff070056
:1033ec000080fa00000006000800fa004076280071
:1033fc0006000900305f78007e00b1000e007800f6
:10340c004aff07000080fa00000006000800fa00de
:10341c00b076280006000900305f78007e00b1000d
:10342c000e00780041ff07000080fa000000060043
:10343c000a00fa00400798004e0090004800de0099
:10344c00804078004e0090000041780030cab300f4
:10345c00004f780040c2b3001047980021479800f5
:10346c00324798000040eb00404798000040eb00ca
:10347c0050479800f0cab300604798000e007800df
:10348c002aff07000080fa00000006000000fa0086
:10349c008dff070033c2bf00614060000004e000f4
:1034ac00fcff32007fff070033c2bf0061406000a9
:1034bc000004e000fcff320050ae8000dcff07008f
:1034cc0033c2bf00614060000004e000fcff32002a
:1034dc00ceff070033c2bf00614060000004e00073
:1034ec00fcff32000080fa00000006000000fa0029
:1034fc00a6fe0700e5ff07000080fa0000000600aa
:10350c000000fa00213821009140780030cab30045
:10351c0080cf50005e003a00813821009140780045
:10352c00f0cab30080cf500059003a00c09d800013
:10353c00e10f500056003a000040eb0082f3b70058
:10354c000040eb0088f3b7000000eb00c09d880042
:10355c0064d3bf000004e0001200320031382100b7
:10356c009140780020c8b30080cf50000d003a0085
:10357c000040eb0064f3b70084d3bf000080fb0075
:10358c00c800dd0085d3bf000080fb000080700008
:10359c0060ca880086d3bf000080fb0070ca880018
:1035ac003b00370065d3bf000004e0000f00320081
:1035bc00313821009140780030c8b30080cf5000e2
:1035cc000a003a000040eb0065f3b70084d3bf005b
:1035dc000080fb00c800dd0085d3bf000080fb002d
:1035ec000080700080ca88002900370066d3bf00b5
:1035fc000004e000120032003138210091407800c4
:10360c00a0cab30080cf50000d003a0086d3bf0093
:10361c000004e0000a003a000040eb0066f3b7003b
:10362c0084d3bf000080fb00c800dd0085d3bf0041
:10363c000080fb0000807000b09b880014003700f5
:10364c0067d3bf000004e0001100320031382100c4
:10365c0091407800a0cab30080cf50000c003a0013
:10366c0086d3bf00e14f500009003a000040eb0048
:10367c0067f3b70084d3bf000080fb00c800dd00f7
:10368c0085d3bf000080fb0000807000c09b8800c9
:10369c00c09d80000000e0002b003a005ed3bf000c
:1036ac000004e00008003200b8fe070010c0b300b0
:1036bc0064f3b70010002000109b88000040eb0062
:1036cc005ef3b700200037005fd3bf000004e000ba
:1036dc0008003200eafe070010c0b30065f3b70023
:1036ec0010002000109b88000040eb005ff3b70037
:1036fc001500370060d3bf000004e0000800320062
:10370c00c5fe070010c0b30067f3b700100020001f
:10371c00109b88000040eb0060f3b7000a003700f4
:10372c0061d3bf000004e00007003200a0fe0700d8
:10373c0010c0b30066f3b70010002000109b880087
:10374c000040eb0061f3b7000080fa0000000600b7
:10375c000000fa00bed3bf00e14f500008003a0051
:10376c006bd3bf000004e00005003a0010c0b300aa
:10377c006bf3b70010c0b3006af3b7000500370055
:10378c00bed3bf000004e00002003a000040eb0092
:10379c006bf3b7006ad3bf000004e00006003200f0
:1037ac00c09d80000000e00003003a00effe07001f
:1037bc000040eb006af3b7000080fa00000006003e
:1037cc000000fa00d29a8000e39a8000209d8000cd
:1037dc00319d80000001510081815900e0012000e1
:1037ec0001002000800f5100818f590003003e0022
:1037fc005ed3bf000004e0000700320010c0b3002d
:10380c005ef3b700d09a8000e19a8000209d88007a
:10381c00319d88003e003700d29a8000e39a8000e8
:10382c00409d8000519d8000000151008181590014
:10383c00e001200001002000800f5100818f590011
:10384c0003003e005fd3bf000004e000070032001d
:10385c0010c0b3005ff3b700d09a8000e19a8000eb
:10386c00409d8800519d880029003700d29a800025
:10387c00e39a8000609d8000719d800000015100e2
:10388c0081815900e001200001002000800f5100cf
:10389c00818f590003003e0060d3bf000004e0009c
:1038ac000700320010c0b30060f3b700d09a80005c
:1038bc00e19a8000609d8800719d8800140037009b
:1038cc00d29a8000e39a8000809d8000919d8000b8
:1038dc000001510081815900e0012000010020000d
:1038ec00800f5100818f590003003e0061d3bf004f
:1038fc000004e0000600320010c0b30061f3b70012
:10390c00d09a8000e19a8000809d8800919d88006b
:10391c00c09d8000e10f50000d003a00d29a80004b
:10392c00e39a8000a09d8000b19d800000015100b1
:10393c0081815900c012200001002000800f51002d
:10394c00818f5900020036000000eb00c09d8800fa
:10395c000080fa00000006000000fa000080fa0067
:10396c00000006000a00fa00c09d80000000e00084
:10397c0045003a0022ca8000419b80000040eb00c9
:10398c00004f7800810f51000200320010c0b300cc
:10399c00004f780020ca8000409b880020ca80001d
:1039ac000000e00003003400100020001007980015
:1039bc000800370020ca80000000e00003003d0032
:1039cc002000200010079800020037000000eb00d8
:1039dc0010079800d19d80001e009000808f500031
:1039ec0002003a001e04e000270032001e00900086
:1039fc00d09d8800d09d8000400798004e0090001c
:103a0c00e10f5000090032004e009000e10f500011
:103a1c00040039004e009000e20f50000f003200fd
:103a2c001900370070fe07001700370020ca80000d
:103a3c00300798003e0090000000e00003003d00bd
:103a4c003e0090000000ea0030079800ee40900025
:103a5c000000eb004efe07000b00370020ca800070
:103a6c00200798002e0090000000e00003003d00ad
:103a7c002e0090000000ea0020079800ce40900035
:103a8c001000200042fe0700c09d80000000e000f6
:103a9c0029003a0020952100104078000004e00035
:103aac0007003200c8d5bf000004e000040032005b
:103abc000040eb00c8f5b7000cfe07001e003700f5
:103acc0020952100104078000004e00007003a0027
:103adc00c8d5bf000004e00004003a0010c0b300d9
:103aec00c8f5b700f8fd070013003700209521003a
:103afc00104078000004e0000900320080ca800009
:103b0c0080007800a0ca8000808f50000400320032
:103b1c00a0ca80000b010700fdfd0700060037005e
:103b2c0011cb800050ae8000808f5000020032001c
:103b3c0050ae80003efe07000080fa000000060038
:103b4c001600fa000000eb006007980011ca800014
:103b5c000000eb00500798000100e0000200350067
:103b6c0010002000500798008002200040079800a9
:103b7c0011ae8000309c2000808f50001300360066
:103b8c005006200010ae8800c6fd070033c2bf00ef
:103b9c00614060000004e000fcff320050ae800089
:103bac0023fe070033c2bf00614060000004e00048
:103bbc00fcff320015fe070033c2bf0061406000fd
:103bcc000004e000fcff32000600370011ae80005c
:103bdc0030062000808f5000020036000000eb0001
:103bec0010ca8800809b80000000e0000d003200ad
:103bfc0010ca80000000e0000a003a00609b8000c0
:103c0c00719b80008af3070020ae880031ae8800db
:103c1c000000eb0040079800cb62a80011e1a9005e
:103c2c006e00370010ca80000000e0002700320050
:103c3c0010ca8000600798006e0090000000e00041
:103c4c0003003d006e0090000000ea006007980041
:103c5c00609b8000719b800003f30700800078005c
:103c6c0060e12f0000804000100f98001e089000ab
:103c7c000000e00002003d008000eb00110f9800f6
:103c8c001e099000320798003e009000cf80de00a5
:103c9c0034f20700020020001339240022f307003d
:103cac0002002000432a2400b7f207000200200083
:103cbc00030a240057f207005df3070050ca88007e
:103ccc00cb62a90011e1a80044003700609b800082
:103cdc00719b8000e4f207000001780020ae8000a8
:103cec0031ae80000000510020079800a19b80009d
:103cfc002e00900001005000100798002e0090003c
:103d0c00a09b8800909b8000cf80de0015f20700fe
:103d1c006266260063f623009bf20700d2f20700ce
:103d2c00800078002e00900000804000909b88005e
:103d3c002e009000c500dd001e0090008080400029
:103d4c00909b8000008f40000000eb005007980013
:103d5c001e00e00002003d001000200050079800fb
:103d6c009e007800010f98000e0990000200e00000
:103d7c0003003d000e0890000000ea00000f9800c0
:103d8c008e089000210f9800803e20002e09900094
:103d9c00800f510002003400803e2000200f98005c
:103dac00ae089000610798002e009000e10f4000d3
:103dbc00080035002e009000e10f500005003c007b
:103dcc00cb62a90011e1a9000000eb0040079800ac
:103ddc0002003700cb62a90011e1a80010ca8000d4
:103dec00809b8800609b8000719b80000041eb00f1
:103dfc00724f9800020020003344240096f2070012
:103e0c000000e00001003c000200370010c0b300cd
:103e1c00704f98007e4890000004a2000004e0005f
:103e2c0003003a0010ca80000000e00013003c00c0
:103e3c00609b8000719b80000041eb00624f9800fa
:103e4c0002002000533f240085f207000000e00030
:103e5c00010035000200370010c0b300604f98001d
:103e6c006e4890000004a2000004e00005003a0037
:103e7c0010ca80000000e00002003d000000eb00d2
:103e8c00600798005e009000e0fb07006e00900059
:103e9c00cf80de00b3f107000200200003f82300fe
:103eac00dcf1070002002000030a240036f20700b0
:103ebc000001be000000200001f823009af2070068
:103ecc0002c02d00f38724002ff2070066f20700d2
:103edc00800078004e0090009efb07000080fa00e6
:103eec00000006000000fa0035fe070084fd070004
:103efc0017fe070098fe07009afe070010ff070048
:103f0c0050992100104078000004e00002003200bb
:103f1c00f4e2a80001003700f4e2a9000080fa00e6
:103f2c00000006000000fa0025fe070074fd0700e3
:103f3c0007fe070088fe07008afe07000060fe00ef
:103f4c00f9ff37001800fa00881f78003007980036
:103f5c00c19b8000b09b8000008450006140b90080
:103f6c0080f10700200f9800310f98000800e00046
:103f7c0007003d0002002000037824002e0890006a
:103f8c00be089000a3f10700200f9800310f980095
:103f9c0002002000a34724002e089000be089000c9
:103fac0061f2070010079800210798003e0090006e
:103fbc00cf80de006bf10700000f9800110f980006
:103fcc003e0090000000e00007003d0002002000d1
:103fdc00037824000e0890009e0890008df10700d5
:103fec00000f9800110f98001e019000ae01900078
:103ffc000e0890009e089000e3f1070060079800ff
:10400c0071079800b89b80006140b90055f107001a
:10401c0040079800510798000800e00007003d0099
:10402c0002002000037824004e009000de00900077
:10403c0078f1070040079800510798004e01900056
:10404c00de0190006e009000fe00900071f1070000
:10405c0005f20700000f78009e007800c09b8000de
:10406c00808f500003003600c09b8000000f78004a
:10407c00060037009e007800b09b8000808f5000b7
:10408c0002003100b09b8000000f78001e00780009
:10409c004f0478000080fa00000006005400fa007b
:1040ac0020cf98006127980072279800032f980062
:1040bc0030c2b30010cf98007e2090000000e000ca
:1040cc00030032000e2890000000e00003003a00cc
:1040dc0010fd2f00102f98003b0037000e00e80059
:1040ec0052022000914221000bf307000e00e80061
:1040fc00aec89000214098006e209000c800de00f1
:10410c004801dd00010171008e00e800f00f200075
:10411c0080016100314090006040600003407000fd
:10412c00b04098004811de004140900060406000b3
:10413c0002407000c04098000e00e800650040008e
:10414c0002022000fe209000f3f207006102200022
:10415c008e804000900420000e0040008e02e8008b
:10416c000002780033c0b300120020000500780074
:10417c006c180700004f78001e04e00003003200aa
:10418c001e00fb00102f98000f0037009ec89000f7
:10419c0030c2b30080cf50000300320021ff2f004b
:1041ac00112f980008003700600220000e0040001c
:1041bc008000e800020220000e289000d6f20700d2
:1041cc001e00fb00102f98001e2890000080fa00a3
:1041dc00000006001600fa00604f9800010f9800ce
:1041ec00120f980070c0b300504f980000ceb3006f
:1041fc00004f78001e0890000000e00003003a0019
:10420c0010fd2f00200f9800350037006800470084
:10421c005200200001412100bff207006800470056
:10422c00ee48900021409800680147008e089000ed
:10423c00f00f200000806000c801dd0092009000ab
:10424c00f00f200000806000030070001001980047
:10425c000e089000c800de00f00f20008081600086
:10426c00a200900000f02f0000806000030070009e
:10427c00200198008e00e8006d004700e80247001e
:10428c000002780033c0b300220020000500780043
:10429c0024180700004f78001e04e00003003200d1
:1042ac001e00fb00200f98000d0037005e489000a8
:1042bc00e74f50000300320021ff2f00210f980020
:1042cc00070037001e0890008e00e8008100e8000f
:1042dc004200200090f207001e00fb00200f980007
:1042ec002e0890000080fa00000006000e00fa0074
:1042fc005007980070c0b300004f98005e0090000b
:10430c000000e00003003a0010fd2f006007980049
:10431c001a0037008e00e8006800470000027800a1
:10432c0033c0b30022002000a0412100fd1707007c
:10433c00004f78001e04e000030032001e00fb005a
:10434c00600798000d0037000e489000e74f5000b2
:10435c000300320020ff2f00600798000700370091
:10436c005e0090008e00e8008100e8003200200022
:10437c0069f207001e00fb00600798006e009000b9
:10438c000080fa00000006000e00fa0050079800aa
:10439c0070c0b300004f98005e0090000000e00079
:1043ac0003003a0010fd2f00600798001900370039
:1043bc008e00e800680047000002780033c0b300ac
:1043cc002200200040422100d6170700004f780041
:1043dc001e04e000030032001e00fb006007980082
:1043ec000c0037000e489000e74f500003003200dd
:1043fc0020ff2f0060079800060037000e00e80031
:10440c00c04090005e009000014878001e00fb0048
:10441c00600798006e0090000080fa000000060013
:10442c000e00fa005007980070c0b300004f9800bf
:10443c005e0090000000e00003003a0010fd2f0029
:10444c00600798001a0037008e00e80068004700eb
:10445c000002780033c0b30022002000504121003c
:10446c00b0170700004f78001e04e0000300320074
:10447c001e00fb00600798000d0037000e489000ee
:10448c00e74f50000300320020ff2f006007980018
:10449c00070037005e0090008e00e8008100e80005
:1044ac00420020001cf207001e00fb006007980071
:1044bc006e0090000080fa00000006000e00fa006a
:1044cc005007980070c0b300004f98005e00900039
:1044dc000000e00003003a0010fd2f006007980078
:1044ec00470037008e00e8006800470000027800a3
:1044fc0033c0b300220020000041210089170700bf
:10450c00004f78001e04e000030032001e00fb0088
:10451c00600798003a0037000e489000e74f5000b3
:10452c000300320020ff2f00600798003400370092
:10453c00de0190000e00e8008000e8002200200060
:10454c0003007800f4f107000e00e8008040eb0057
:10455c00014878000000e8008040eb00014878003a
:10456c000000e8008040eb00014878000000e80003
:10457c008040eb00014878000000e8008040eb0030
:10458c00014878000000e8008040eb00014878000a
:10459c000000e8008040eb00014878008e00e80045
:1045ac00680047000002780033c0b30022002000ee
:1045bc00a04121005b170700004f78001e04e000ab
:1045cc00030032001e00fb00600798000c0037004f
:1045dc000e489000e74f50000300320020ff2f00e0
:1045ec0060079800060037000e00e800c0409000fd
:1045fc005e009000214098001e00fb0060079800b0
:10460c006e0090000080fa00000006000e00fa0018
:10461c005007980070c0b300004f98005e009000e7
:10462c000000e00003003a0010fd2f006007980026
:10463c005e0037000e00e8008040eb000148780077
:10464c000000e8008040eb00014878000000e80022
:10465c008040eb00014878000000e8008040eb004f
:10466c00014878000000e8008040eb000148780029
:10467c000000e8008040eb00014878000000e800f2
:10468c008040eb00014878008e00e800680047008d
:10469c000002780033c0b30022002000004121004a
:1046ac0020170700004f78001e04e00003003200c2
:1046bc001e00fb00600798003c0037000e4890007d
:1046cc00e74f50000300320020ff2f0060079800d6
:1046dc00360037000e00e800e30040005e0090005a
:1046ec00220020008cf107000e00e8008040eb0057
:1046fc00014878000000e8008040eb000148780099
:10470c000000e8008040eb00014878000000e80061
:10471c008040eb00014878000000e8008040eb008e
:10472c00014878000000e8008040eb000148780068
:10473c000000e8008040eb00014878008e00e800a3
:10474c00680047000002780033c0b300220020004c
:10475c00f0412100f3160700004f78001e04e00022
:10476c00030032001e00fb00600798000f003700aa
:10477c000e489000e74f50000300320020ff2f003e
:10478c0060079800090037005e0090008081e80007
:10479c000e00e8008000e8004200200003007800d2
:1047ac005df107001e00fb00600798006e00900092
:1047bc000080fa00000006001200fa00404f98003a
:1047cc0040c0b300204f9800650047005200200005
:1047dc003146210050f1070065004700ce4890009b
:1047ec0021409800e50047000040eb00c0409800d5
:1047fc00e50047000040eb00b04098008e00e80058
:10480c006a004700e50247000002780033c0b3009d
:10481c003200200005007800c2160700004f780017
:10482c001e04e000030032001e00fb00000f980085
:10483c000b0037000e00e800104090000004e00070
:10484c000300320021fd2f00710798000200370091
:10485c000000eb0070079800fe009000010f98001c
:10486c000e0890000080fa00000006002400fa00f8
:10487c00205f9800610f980020c0b300104798008b
:10488c0000ceb300004f780040c0b30060579800d2
:10489c006e0890000000e00003003a0010fd2f00ad
:1048ac00101798003b0037000e80e8000201200032
:1048bc008146210018f107002e589000e14060005d
:1048cc000e80e800214098000e80e8006500400052
:1048dc00b2002000ee0890000ff1070020c0b300da
:1048ec00104798002e5890000004e00003003a0096
:1048fc001e4090000004a00010479800770047006d
:10490c00b11a070078004700901a0700fe5090007b
:10491c000e58900080cf500003003a006000200039
:10492c000017980002003700500020000017980074
:10493c00f2004700760047008e82e8000002780003
:10494c009e4190000e11900005007800751607002e
:10495c00004f78001e04e000030032001e00fb0034
:10496c00101798000b0037007200470010409000a1
:10497c000004e0000300320020fd2f00700f9800af
:10498c00020037000000eb00700f98007e089000ca
:10499c00101798001e1090000080fa00000006000e
:1049ac003200fa006017980000ceb300004f780078
:1049bc0040c0b300206f98006e1090000000e00023
:1049cc0003003a0010fd2f00001f9800250037004f
:1049dc000e00e8005202200081472100cef00700b3
:1049ec000e00e8006500400002022000ee1090006e
:1049fc00c9f00700610220008e804000a002200058
:104a0c000e0040008e02e8000002780023c0b300c4
:104a1c00820020000500780042160700004f780045
:104a2c001e04e000030032001e00fb00001f980073
:104a3c000c003700600220000e0040001040900077
:104a4c000004e0000300320020fd2f0070179800d6
:104a5c00020037000000eb00701798007e109000e9
:104a6c00001f98000e1890000080fa00000006004d
:104a7c002400fa00600f9800710f980040c0b3003a
:104a8c00205f980000ceb300004f78007e089000a5
:104a9c000000e00003003a0010fd2f0010179800f2
:104aac00320037000e00e80052012000e1442100e2
:104abc0099f007006e089000c800de004801dd0088
:104acc00010171008e00e800f00f200080016100f0
:104adc00314090006040600003407000b04098008e
:104aec004811de00414090006040600002407000c0
:104afc00c04098000e00e800650040000201200054
:104b0c00fe08900084f00700f60047007a0047008a
:104b1c008e02e8000002780013c0b300820020006f
:104b2c0005007800ff150700004f78001e04e00018
:104b3c00030032001e00fb00101798000b0037001a
:104b4c0076004700104090000004e00003003200a3
:104b5c0020fd2f0000179800020037000000eb002a
:104b6c00001798000e109000101798001e1090005f
:104b7c000080fa00000006000a00fa006047980066
:104b8c0052002000d14921000e00780062f007008d
:104b9c006e4090002047980011c0b3000e007800c2
:104bac00851607000004e0000300320000ff2f0010
:104bbc0040079800020037000000eb004007980007
:104bcc004e0090000080fa00000006000200fa007f
:104bdc00004f78001e407800e71607000000fb002d
:104bec000080fa00000006003600fa00406f9800c2
:104bfc0071179800021f980040c0b300206f9800f6
:104c0c0000ceb300004f78000e1890000000e000ba
:104c1c0003003a0010fd2f00201f98003e003700c3
:104c2c0065004700520220008000eb004ef00700a8
:104c3c006500470052022000214a210036f007008f
:104c4c00e500470070c2b300804878004e689000c1
:104c5c00e140600065004700214098007e10900004
:104c6c00c800de004801dd0001017100e5004700cd
:104c7c00f00f200080016100314090006040600026
:104c8c0003407000b04098004811de004140900095
:104c9c006040600002407000c04098006500470012
:104cac0065004000020220008e1890001af00700e8
:104cbc008e00e800a00220000e004000e502470034
:104ccc000002780013c0b3009200200005007800a9
:104cdc0094150700004f78001e04e000030032001a
:104cec001e00fb00201f98000b0037000e00e80090
:104cfc00104090000004e0000300320020fd2f0063
:104d0c00101f9800020037000000eb00101f9800e5
:104d1c001e189000201f98002e1890000080fa009a
:104d2c00000006002200fa00500f980040c0b300ab
:104d3c00105f98005e0890000000e00003003a004d
:104d4c0010fd2f00001798006c003700670047001b
:104d5c00220120008000eb0003f0070067004700f1
:104d6c0022012000814a2100ebef0700e7004700f9
:104d7c0040c1b300804878005e089000104090005d
:104d8c000080fb004500de00610060000004e000d4
:104d9c0007003a005e089000104090000080fb0075
:104dac004400de00610060000004e00003003200fb
:104dbc0001c2b300615f9800020037000040eb00b5
:104dcc00605f980067004700ee5890002140980003
:104ddc00de089000214090000081fb0031409000e3
:104dec000080fb004800dd0002007000000f78001e
:104dfc00de089000214090000081fb0031409000c3
:104e0c000080fb004800dd0002007000c800de00de
:104e1c004801dd0001017100de089000f00f200058
:104e2c0080016100214090006040600003407000f0
:104e3c00a04098004811de003140900060406000b6
:104e4c0002407000b04098006700470065004000c9
:104e5c00d2002000de089000afef0700de089000c3
:104e6c00f00f20001e0160002140900060406000a7
:104e7c0002407000a04098001e0078004801de003f
:104e8c00314090006040600002407000b0409800db
:104e9c00e300470079004700e70247000002780072
:104eac008041eb00a2002000050078001d150700d2
:104ebc00204798002e4090000004e00004003200cf
:104ecc002e4090000000fb00001798000b003700ec
:104edc0063004700104090000004e0000300320023
:104eec0020fd2f00600f9800020037008000eb00bf
:104efc00610f98006e089000001798000e1090003b
:104f0c000080fa00000006003200fa0060179800da
:104f1c0040c0b300206f980000ceb300004f780063
:104f2c006e1090000000e00003003a0010fd2f000e
:104f3c00001f98002a00370065004700520220002d
:104f4c008000eb0088ef070065004700520220004c
:104f5c00e14a210070ef0700e500470070c2b30082
:104f6c008048780065004700650040000202200080
:104f7c00ee10900068ef07008e00e800a002200001
:104f8c000e004000e50247000002780023c0b30089
:104f9c00b200200005007800e2140700004f7800f2
:104fac001e04e000030032001e00fb00001f9800ee
:104fbc000b0037000e00e800104090000004e000e9
:104fcc000300320020fd2f007017980002003700fc
:104fdc000000eb00701798007e109000001f9800e6
:104fec000e1890000080fa00000006000600fa007f
:104ffc000e0078008040eb00014878000000e800cb
:10500c008040eb00014878000000e8008040eb0095
:10501c00014878000000e8008040eb00014878006f
:10502c000000e8008040eb000148780052002000ae
:10503c00414b21000e00780037ef070070c0b30021
:10504c00004f780011c0b3000e0078005a1507000d
:10505c000000fb000080fa00000006000a00fa00c5
:10506c00604798000040eb00504798000000eb00b0
:10507c001007980059180700004f78006e409000f8
:10508c000004e00004003a00d0d5bf000080fb0013
:10509c0040079800180037000040eb00404798008c
:1050ac00060037004e40900050180700100798007b
:1050bc004e4090000040e800404798004e40900061
:1050cc009e4f5000f7ff36001e009000100090001d
:1050dc00e30f500003003a005e4090000040e800ef
:1050ec0050479800d0d5bf00de40900001405000e2
:1050fc000080fb00400798004e0090000080fa00f2
:10510c00000006000a00fa0000ceb30060479800c9
:10511c000000eb002007980000c0eb00204798002f
:10512c0000c0eb00104798002c180700004f7800c7
:10513c000040eb0010479800720037001e409000b2
:10514c002a180700200798001e4090008f180700af
:10515c0000c0eb006b1807002e00900066004000aa
:10516c002afd0700604798006e4090000004e000a4
:10517c0033003a002e0090006c0040005bfc0700ee
:10518c00604798006e4090000004e0005a003a001e
:10519c002e0090009e409000014878002e00900058
:1051ac00604890000080fb004400de00ef4060008f
:1051bc002e00900011409800d0d5bf000040e800b0
:1051cc00d0f5b700670047006ffc070060479800f8
:1051dc006e4090000004e00007003a00ae00900022
:1051ec001000200090009800fe4090002e009000cf
:1051fc00514098000f003700ae00900020002000b6
:10520c00900098002e009000604890000004e00090
:10521c0003003d000040eb00104f980002003700e7
:10522c0080c0eb00114f98002e0090009e4890001b
:10523c00414098001e409000101807002e003700c7
:10524c001e4090002f1807002e00900066004000b2
:10525c00eefc0700604798006e4090000004e000f0
:10526c0025003a002e0090006c0040001ffc070047
:10527c00604798006e4090000004e0001e003a0069
:10528c00ae00900030002000900098001e4090006e
:10529c00204798002e009000ae4090000148780006
:1052ac002e009000604890000080fb004400de005f
:1052bc00ef4060002e009000114098002e009000ee
:1052cc00604890000004e00003003d000040eb004b
:1052dc00004f98000200370080c0eb00014f98008f
:1052ec002e0090008e48900041409800d0d5bf0011
:1052fc000040e800d0f5b7001e4090000040e800e8
:10530c00104798001e4090009e4f50008bff3600b7
:10531c002e409000fb170700d0d5bf000080fb008b
:10532c000080fa00000006000600fa00000f78006a
:10533c001e007800200798002e009000e20f50000d
:10534c000a0032002e009000e30f50000a003200d9
:10535c002e009000e10f50000100320009003700d0
:10536c006020200010079800080037006021200002
:10537c0010079800050037006027200010079800e0
:10538c00020037000000eb00100798001e00900090
:10539c000080fa00000006000800fa0020079800c0
:1053ac0061479800724798000000eb00000f7800ee
:1053bc000000eb00100798001b0037001e00900047
:1053cc004200dd008080e80040cc200000804000de
:1053dc00904078006e40900080cf50000f003a0053
:1053ec002e009000604190001e0090004200dd00f5
:1053fc008080e80040cc20000080400010409000ed
:10540c00804f510005003a001e009000c200dd00e4
:10541c0040cc200000804000100f78001e0090004f
:10542c000000e800100798001e009000e90f5000e3
:10543c00e2ff34001e00e0000c0032002e00900051
:10544c00200190002e009000e80040002e009000fb
:10545c00604090009e027800020278008101780082
:10546c007e419000ee409000050001000080fa00a3
:10547c00000006000800fa00200798006147980019
:10548c00724798000000eb00000f78000000eb0062
:10549c00100798001b0037001e0090004200dd0032
:1054ac008080e800c0ce2000008040009040780052
:1054bc006e40900080cf50000f003a002e009000fc
:1054cc00604190001e0090004200dd008080e800ea
:1054dc00c0ce20000080400010409000804f510052
:1054ec0005003a001e009000c200dd00c0ce200076
:1054fc0000804000100f78001e0090000000e800b3
:10550c00100798001e009000e90f5000e2ff3400d5
:10551c001e00e0000c0032002e00900020019000d4
:10552c002e009000e80040002e009000604090009b
:10553c009e02780002027800810178007e41900082
:10554c00ee409000050001000080fa00000006000b
:10555c000e00fa00000f780011079800220798003f
:10556c0033079800044f98001e0078001000780054
:10557c006101b8000080eb008080eb00020140006c
:10558c00838148005207980063079800d0002000e0
:10559c00010020005e019000ee019000800f510090
:1055ac00818f5900b9003e005e009000ee00900023
:1055bc00006001000d00370019003700180037009b
:1055cc00350037003d003700480037004d003700ec
:1055dc0078003700710037007c00370084003700fa
:1055ec0090003700980037009d0037009e0078002f
:1055fc0020002000800878001e0078006040900099
:10560c000080fb000000400080007800e0ff2f00cd
:10561c00808060002e009000010878009b0037000d
:10562c001e007800900090001e0078002000900072
:10563c00808f5000060039009e007800400020004a
:10564c00800878001e0090001024a0008f00370006
:10565c009e00780030002000800878001e00780042
:10566c00100090009e00780068004000010040008f
:10567c00104078008080fb002e009000010878001c
:10568c001e007800100090008000e8001e007800da
:10569c00110098007d0037009e0078000000eb00a0
:1056ac00800878001e007800704190008e489000b1
:1056bc001e0078006fff0700740037001e00780092
:1056cc00604090000080fb00000040000000a00043
:1056dc00800078002e009000010878009e00780071
:1056ec006000200080087800680037009e00780079
:1056fc0070002000800878001e0090001034a0007c
:10570c00620037001e007800100190003e009000ef
:10571c0010007800804178009e00780068004100fd
:10572c0001004000034878001e0078001000900033
:10573c008000e8001e007800110098001e00780020
:10574c00900090001e00780020009000808f500088
:10575c00090031009e009000f0cdb300914860002c
:10576c001e0090001044a0009e00780090002000c5
:10577c0080087800450037009e00900000c2b300fe
:10578c00914870001e0090001044a0009e0078000c
:10579c0080002000800878003c0037009e007800d4
:1057ac0070002000800878001e0090001034a000cb
:1057bc00360037001e0090001024a0009e007800d8
:1057cc00a000200080087800300037009e00780090
:1057dc000000eb00800878001e00780070419000fb
:1057ec008e4890001e007800ebfe07002700370063
:1057fc001e007800604090000080fb00000040001c
:10580c0080007800e0ff2f00808060002e00900068
:10581c00010878009e007800c00020008008780005
:10582c001a0037009e007800d00020008008780015
:10583c001e007800704090008080fb002e009000cd
:10584c0001087800110037009e007800e00020006d
:10585c00800878001e0090001014a0000b00370088
:10586c009e00780060002000800878001e00780000
:10587c00604090000080fb00000040000000a00091
:10588c00800078002e009000010878000080fa005b
:10589c00000006003600f800809fbe00829fbe000c
:1058ac00849fbe00869fbe003400f80000002000dc
:1058bc00a00188000000fa008620a90014c0b300e3
:1058cc0003202000222020006120200080d1200015
:1058dc001fff07000080fa003400f9004f03be00e0
:1058ec004f02be004f01be004f00be003600f90053
:1058fc00004006003600f800809fbe00829fbe006c
:10590c00849fbe00869fbe003400f800000020007b
:10591c00a00188000000fa008a40a9006121200043
:10592c0000e2200024c0b30003212000222120002b
:10593c0007ff07000080fa003400f9004f03be0097
:10594c004f02be004f01be004f00be003600f900f2
:10595c00004006003600f800809fbe00829fbe000b
:10596c00849fbe00869fbe003400f800000020001b
:10597c00a00188000000fa008ea0a9006127200079
:10598c0080f2200034c0b30003272000222720001f
:10599c00effe07000080fa003400f9004f03be0050
:1059ac004f02be004f01be004f00be003600f90092
:1059bc00004006000600fa00000f7800214798000e
:1059cc0032479800a0688000e90f500003003600b1
:1059dc000080eb002007980018003700a0688000ba
:1059ec00c200dd0040cc2000008040001e08780082
:1059fc00a06880004200dd008080e80040cc2000e0
:105a0c0000804000ae40900001487800a068800003
:105a1c004200dd008080e80040cc20000080400087
:105a2c00be40900011409800a06880000000e80083
:105a3c00a06888000000eb00200798002e00900062
:105a4c000080fa00000006000600fa00000f780043
:105a5c002147980032479800b0688000e90f500049
:105a6c00030036000080eb00200798001800370078
:105a7c00b0688000c200dd00c0ce20000080400075
:105a8c001e087800b06880004200dd008080e800cd
