:020000040000fa
:080000000002040000000000f2
:020000040000fa
:100400002fd32100007f240000018800000000009d
:100410000c00070020852600010020001f000700b7
:10042000000020000000e000020032000000020096
:10043000000000000a0f0200000000000040da0087
:100440000000fe004440a900601420000000e0000d
:100450000300320000002000a00188004440a800f2
:1004600000000600f03fb1000180b1000600350039
:10047000ee03090000000000403fb1000180b10020
:10048000fbff3d001000b000203fb000020035002f
:1004900000800900000000000000060091018800b3
:1004a000800078000000eb0015003700e28040007b
:1004b00032a0b4009101ba00e280400032a0b40042
:1004c0009102ba00e280400032a0b4000002eb00ca
:1004d000472bde00f507b200602ce10004003a0073
:1004e0000059eb008301e900fdff3e0004003700e6
:1004f0006128e100010032000082eb0004000700e7
:100500001101ba000200e000e8ff3a000000060016
:100510003159ba008301e9000c0032002159ba00b8
:100520008301e900080032000400e00003003a0003
:10053000e280400032a0b400f5ff370011d9ba00c4
:100540008301e900faff3a008100e800e180400001
:1005500032a0b40000000600d255040000000000e4
:10056000da55040000000000a65504000000000059
:10057000f85504000000000076540400000000005c
:1005800008550400000000006e5604000000000042
:1005900000ac04000000000062a90400000000009c
:1005a00090a9040000000000839f68000100e000a3
:1005b00002003d0060001000e08018000300e00031
:1005c00002003d0060011100e081190029010700cf
:1005d0004f00e00002003b0060001000e0801800c7
:1005e00000000600889fbe008a9fbe0001057800bb
:1005f0000100e0000400350008003c000000e000bd
:10060000200032000500370060001000e080180074
:1006100002003b0001f02c001a0037000004be006d
:100620006011b8006b0920000982cf000200390078
:100630000882cf000441b000694252000e0032002f
:1006400008003b0082817100610164008904d100cf
:100650000884d3008b05e8000442e800f9ff3a0063
:10066000050037000804440089844c008b05e9002c
:100670000442e900fbff3a000e0107000af0a70060
:1006800001f0a0004f05be004f04be0000000600b0
:10069000889fbe008a9fbe008c1f78002b01070038
:1006a0003201330003866c006450e1002400320004
:1006b0006420e100270032006150e1002200320096
:1006c0006120e100210032008b854200eb07b10080
:1006d0000134b800003ab8000804420089844a0096
:1006e000013ab8000030b8008880400009014a0093
:1006f00004003300000040008180480002014900ee
:100700008b05e900c909dd0083017000010032009a
:1007100013002000c814de004814dd004709de0085
:100720001200b200c808de0008847000e100070073
:1007300001f0a1000cf0a70001f0a00014013700a7
:100740006120e100160132000801be000200be0077
:10075000f7ff37006150e100fcff3a00100137005d
:1007600003f0a200889fbe008a9fbe008c1f780005
:10077000f6000700fd0033006450e1004f00320036
:100780006420e1005200320003826c0007003b004d
:100790000905d0000306d000820f54000c065d004e
:1007a0000200390002003200890178000306780057
:1007b0008582550004003d000003fd008103fd001b
:1007c0008502ea008b854200840f720002003b0024
:1007d00060001000e08018006011b8000005eb0018
:1007e0007a28e1000a00390006007800c75ddd00c4
:1007f000f707b200878075002d00370082817100f5
:100800000a017800610560008180d1000080d3007a
:100810008502e900f9ff3b00060440008784480098
:1008200002003b0060041400e0841c000988a3005f
:10083000070032008a8171008281710061016400c9
:100840008904d1000884d3008b05e8001700370025
:100850000978a30013003a000b00e00013003400f5
:100860008b05e9000804440089844c000a447400a4
:100870000978a3000d003a000b00e00007003400e7
:100880008b05e9000804440089844c0001003a000b
:100890000b0020000978a300f7ff32000001eb00f5
:1008a00002003700828171000a0178008100070090
:1008b0000cf0a70001f0a000b50037006420e100b3
:1008c00002003a00838f6c00b50033000801be00bf
:1008d0000200be00ae003700f4ff2f00b300370067
:1008e00014002000b10037000001be00ca0007005c
:1008f0000470a70003f0a1006509b10016003200e2
:100900000d0035006828e10006003500f0ff2f00db
:10091000f1ff27000300e00013003b000100280066
:100920000000050000004000818048008502e900c9
:10093000fcff3a0008003700f88f420002003c003c
:100940008000eb00000005008100d1000080d30092
:100950008502e800fcff3a000300e00002003b00d3
:1009600060001000e080180000000600889fbe00b4
:100970008a9fbe008c1f7800740007007b00330044
:1009800003866c006450e1002e0032006420e10018
:10099000330032006150e1002f0032006120e1009d
:1009a0003100320085855500eb07b00009002000ba
:1009b00008042000050037000804440089844c0026
:1009c0000a0031000603430087834b0000015300f7
:1009d00081815b00f8ff33000203be000800a00025
:1009e0000804440089844c00f6ff3900c639dd0054
:1009f0008301730001003200130020008904d1003c
:100a00000884d3000998a300050032000800a7005d
:100a10000300a0008904d1000884d3008b05e800fe
:100a20008904d1000884d3000001eb000281d200c8
:100a30002000070001f0a1000cf0a70001f0a000c9
:100a4000530037006420e100550032000801be0069
:100a50000200be00f7ff37006120e10050003200c5
:100a60006000b800f3ff37000000200001f8270005
:100a7000f0ff37006022b800060220000000d0001e
:100a80008180d2000482d2008582d2000000a000c2
:100a90000202520083825a00030031000202420027
:100aa00083824a000000a1000603e900f3ff3a0038
:100ab0000000060081002000618055000b003d0011
:100ac0000b00200061fe2f000100e1001d0034003a
:100ad00082817100610164008904d1000884d3001f
:100ae0000000e800faff3a00710020006100640095
:100af000030070000200600009003200610444003d
:100b0000e0844c000988a500050032008b05e80050
:100b10006808e10002003a008904d1000884d3008b
:100b2000f20f20000258e10005003d00c75ddd0026
:100b3000f907b200898075000800780000000600ff
:100b40000bf827008b007800000005000004be00b1
:100b5000310007000003be000405be000200be0015
:100b60002d000700844f7500000006000200be0043
:100b70006450e100050036006420e1000200360008
:100b80000968a30001003a000800be000160a0004f
:100b90004f0678004f05be004f04be00000006005f
:100ba000f0ff2f00f1ff2700f9ff3700889fbe00fc
:100bb0008a9fbe00841f7800e4ff07004f00780082
:100bc00011003300f0ff2f00838f6c0006003b0004
:100bd000040565000a00a7000800370009f0a60018
:100be0001000200008003700820f5400838f5c0043
:100bf000030039001000200001003e00000020002a
:100c000009f0a7000000ea004f05be004f04be0037
:100c10000000e00000000600c70ade00f107b20095
:100c2000f50fb20008003200e1cf420002003200ae
:100c30000170a00024000500810f70000100320047
:100c40000408050044000500810f700002003a000e
:100c5000140005008502e9000000400081c0480042
:100c6000fcff3b000170a0002400050076c2bf001d
:100c70000008a300fdff3a0076c2bf000018a300e1
:100c8000faff3a0076c2bf000028a300f7ff3a003f
:100c900076c2bf000038a300f4ff3a0076c2bf005e
:100ca0000048a300f1ff3a0079c2bf000068a3002a
:100cb000eeff3a00000006007602a80000000600e1
:100cc0000080fb009013880078c2bf0001c8b30009
:100cd000014060000080fb000000e9004f00de00e2
:100ce0000000e900000006007642a80000000600af
:100cf000a1108800b01088000000060016c2bf00d6
:100d00000008a300fdff3a0016c2bf000018a300b0
:100d1000faff3a0016c2bf000028a300f7ff3a000e
:100d200016c2bf000038a300f4ff3a0016c2bf008d
:100d30000048a300f1ff3a0019c2bf000068a300f9
:100d4000eeff3a0000000600a1138800b0138800ef
:100d50000000060006c2bf000008a300fdff3a0025
:100d600006c2bf000018a300faff3a0006c2bf0087
:100d70000028a300f7ff3a0006c2bf000038a30016
:100d8000f4ff3a0006c2bf000048a300f1ff3a009a
:100d900009c2bf000068a300eeff3a000000060091
:100da0000602a800000006000080fb00101088006a
:100db00008c2bf0001c8b300014060000080fb0012
:100dc0000000e9004f00de000000e900000006001e
:100dd0000642a800000006000662a80006c2bf0086
:100de0000038a300fdff3a0008c2a90000108000ef
:100df0000080fb000000060006a2a8000682a800f2
:100e0000000006001602a800000006000080fb009b
:100e10009010880018c2bf0001c8b30001406000f4
:100e20000080fb000000e9004f00de000000e90048
:100e3000000006001642a800000006001662a80086
:100e400016c2bf000038a300fdff3a0018c2a90077
:100e5000801080000080fb000000060016a2a800a1
:100e60001682a800000006007662a80076c2bf00c5
:100e70000038a300fdff3a0078c2a900801380006b
:100e80000080fb000000060076a2a8007682a80081
:100e9000000006001622a8000000060016a2a90005
:100ea0001682a800000006007622a80000000600b6
:100eb00076a2a9007682a800000006008001eb005f
:100ec0000200370061f079008301e800828f510051
:100ed000fcff3a00000006000400fa00e0bf9f009b
:100ee000e4815700812978000002eb000f003700f1
:100ef0006fb89700904078007fb897001040780056
:100f00000402e80080cf5000040032008180fb0022
:100f10000080fb0000805000070037006fb897008a
:100f20000000e800e0bf9f009309e800820f520034
:100f3000efff3a000000eb000080fa00000006001e
:100f400000027800808f50000a003100828140004a
:100f5000808f510007003600020240008000eb0045
:100f6000436278008100e800828f50000700320061
:100f7000fbff37000200e000040032000281400065
:100f8000315a7800828f5000fdff3a0000000600c1
:100f90008001eb0002003700817178008301e800d6
:0c0fa000828f5100fcff3a0000000600a8
:020000040000fa
:020000040005f5
:0457f8009e430000cc
:020000040000fa
:020000040005f5
:0457fc007b3e0000f0
:020000040000fa
:10000800be0f0000be0f0000be0f0000be0f0000b4
:10001800be0f0000be0f0000be0f0000be0f0000a4
:10002800be0f0000c4ac0000be0f000006ac00000c
:10003800be0f0000eaac0000be0f00002cac0000b0
:1000480052ac0000be0f0000be0f0000cead000095
:10005800f4ad0000a8ad0000be0f0000be0f000008
:10006800be0f000068860000be0f0000be0f000033
:10007800be0f0000be0f0000be0f0000be0f000044
:10008800be0f0000be0f0000be0f000078ac0000dd
:100098009eac0000be0f0000be0f0000be0f0000a7
:1000a800be0f0000be0f0000be0f0000be0f000014
:1000b800be0f000010ad000036ad00005cad0000c2
:1000c80082ad0000be0f0000be0f0000be0f000092
:1000d800be0f0000be0f0000be0f0000be0f0000e4
:1000e800be0f0000be0f000098860000be0f000083
:1000f800be0f0000be0f0000be0f0000be0f0000c4
:10010800be0f0000be0f0000be0f0000be0f0000b3
:10011800be0f0000be0f0000be0f0000be0f0000a3
:10012800be0f0000be0f0000be0f0000be0f000093
:10013800be0f0000be0f0000be0f0000be0f000083
:10014800be0f0000be0f0000be0f0000be0f000073
:10015800be0f0000be0f0000be0f0000be0f000063
:10016800be0f0000be0f0000be0f0000be0f000053
:10017800be0f0000c88600009a5b0000be0f00009a
:10018800be0f0000be0f0000be0f0000be0f000033
:10019800be0f0000be0f0000be0f0000be0f000023
:1001a800be0f0000be0f0000be0f0000be0f000013
:1001b800be0f0000be0f0000be0f0000be0f000003
:1001c800be0f0000be0f0000be0f0000be0f0000f3
:1001d800be0f0000be0f0000be0f0000be0f0000e3
:1001e800be0f0000be0f0000be0f0000be0f0000d3
:0801f800be0f0000be0f000065
:020000040000fa
:10020800be0f0000be0f0000be0f0000be0f0000b2
:10021800be0f0000be0f0000be0f0000be0f0000a2
:10022800be0f0000c4ac0000be0f000006ac00000a
:10023800be0f0000eaac0000be0f00002cac0000ae
:1002480052ac0000be0f0000be0f0000cead000093
:10025800f4ad0000a8ad0000be0f0000be0f000006
:10026800be0f000068860000be0f0000be0f000031
:10027800be0f0000be0f0000be0f0000be0f000042
:10028800be0f0000be0f0000be0f000078ac0000db
:100298009eac0000be0f0000be0f0000be0f0000a5
:1002a800be0f0000be0f0000be0f0000be0f000012
:1002b800be0f000010ad000036ad00005cad0000c0
:1002c80082ad0000be0f0000be0f0000be0f000090
:1002d800be0f0000be0f0000be0f0000be0f0000e2
:1002e800be0f0000be0f000098860000be0f000081
:1002f800be0f0000be0f0000be0f0000be0f0000c2
:10030800be0f0000be0f0000be0f0000be0f0000b1
:10031800be0f0000be0f0000be0f0000be0f0000a1
:10032800be0f0000be0f0000be0f0000be0f000091
:10033800be0f0000be0f0000be0f0000be0f000081
:10034800be0f0000be0f0000be0f0000be0f000071
:10035800be0f0000be0f0000be0f0000be0f000061
:10036800be0f0000be0f0000be0f0000be0f000051
:10037800be0f0000c88600009a5b0000be0f000098
:10038800be0f0000be0f0000be0f0000be0f000031
:10039800be0f0000be0f0000be0f0000be0f000021
:1003a800be0f0000be0f0000be0f0000be0f000011
:1003b800be0f0000be0f0000be0f0000be0f000001
:1003c800be0f0000be0f0000be0f0000be0f0000f1
:1003d800be0f0000be0f0000be0f0000be0f0000e1
:1003e800be0f0000be0f0000be0f0000be0f0000d1
:0803f800be0f0000be0f000063
:020000040000fa
:101e00000400fa00000f7800110798000080fa0023
:101e1000000006000000fa00864f0700a14f0700ef
:041e2000feff37008a
:020000040000fa
:100fac0009020000200000000101000000c0000048
:100fbc00320900000400000000020000ffff0000e6
:100fcc00ff0000000705000001010000ffff00000a
:100fdc00010700000581000001ff0000ff01000077
:100fec0004030000010000001a030000520000007e
:100ffc006f000000620000006f0000007400000031
:10100c0065000000580000002c00000020000000cb
:10101c00490000006e000000630000002c0300007b
:10102c004d0000006100000079000000200000006d
:10103c0032000000330000002000000032000000ed
:10104c0030000000310000003200000020000000e1
:10105c0031000000360000003a00000032000000b1
:10106c00350000003a00000031000000390000009b
:10107c0000000000d6870000f6870000fa87000009
:10108c00148800000d0a00004d6f0000746f000002
:10109c007220000046690000726d0000776100004c
:1010ac007265000020620000756900006c6400002d
:1010bc003a200000200000000d0a00000052000041
:1010cc00434f00004e200000202000002020000094
:1010dc002020000020200000202000002020000004
:1010ec00200d00000a00000020200000202000003d
:1010fc0020200000202000002020000020200000e4
:10110c00202000002020000020200000200a0000e9
:10111c00004c00006f6f00007020000020200000c9
:10112c00202000002020000020200000200d0000c6
:10113c000a000000555300004220000054690000d2
:10114c006d6500006f7500007420000044650000a0
:10115c00746500006374000065640000200d0000dd
:10116c000a0000004d6100007920000032330000bd
:10117c002032000030310000320000003136000017
:10118c003a320000353a0000323200000000000014
:10119c000000000042610000736500006c690000f3
:1011ac006e6500002063000075720000726500001f
:1011bc006e7400003a200000000d00000a000000d0
:1011cc007a7a00007a7a00007a7a000020200000f7
:1011dc00207a00007a7a00007a7a00007a200000e7
:1011ec00207a00007a7a00007a7a0000250d00003f
:1011fc000a000000000000000000000000000000d9
:10120c000000000000000000800000000000000052
:10121c000000000000010000bfff0000ffff000005
:0c122c00ffff0000ffff0000ff000000bb
:020000040000fa
:107000000000fa00110020000000eb00d60a070083
:107010001100200010002000d30a0700dd42a80064
:10702000dcc2a800dce2a8000060fe00feff370022
:107030000200fa00000f78001e007800c200dd0098
:10704000c02b2100008140006000b8000089be0014
:107050001e007800c200dd00402d210000814000ac
:107060006000b8000089be000080fa000000060041
:107070000200fa00000f78001e007800c200dd0058
:10708000802c2100008140006000b8000089be0013
:107090001e007800c200dd00002e210000814000ab
:1070a0006000b8000089be000080fa000000060001
:1070b0000200fa001a0b0700553707000000eb002a
:1070c000ce05070010002000cc050700200020009e
:1070d000ca0507000000eb00000f78001100370020
:1070e000110020000000eb009f0a070011002000a3
:1070f000100020009c0a0700a0002000ac38070008
:107100008000eb000000eb00970a07008000eb0016
:1071100010002000940a070080022000a438070015
:107120001e0fe800300120009e0f1000ecff36001b
:1071300041e80700850f07008f0f0700eb100700dd
:107140000080fa00000006000800fa0030079800ee
:107150006000b80010079800210798000000eb00bd
:10716000000f78000f0037003e0090009e0078006e
:107170004200dd0001004000c200dd00000b2100e4
:10718000008040001001be001e009000ae00900084
:1071900000004100818049001007980021079800f5
:1071a0001e0fe800300020009e0f1000eeff34009c
:1071b0001e009000ae0090004e09dd004200de008f
:1071c00000007100c288de001007980021079800b7
:1071d0003e009000c200dd00200e21000080400033
:1071e0001e019000ae0190000288be003e0190009a
:1071f0003e00900080004000e0142100008040002c
:10720000900078004310dd0001004000c200dd0066
:10721000e00e2100008040001e019000ae019000b1
:107220000288be00be00900001814000e0142100f1
:1072300000004100100078000001e800818040005b
:10724000e014210000804000020878003e01900018
:107250003e00900080004000e014210000804000cb
:1072600010007800e701600082004100e014210076
:1072700000804000030878000080fa00000006004b
:107280000800fa00300798006000b8001007980066
:10729000210798000000eb00000f78000f00370076
:1072a0003e0090009e0078004300dd000100400099
:1072b000c200dd00e00e2100008040001001be0091
:1072c0001e009000ae009000000041008180490047
:1072d00010079800210798001e0fe800700020009a
:1072e0009e0f1000eeff34001e009000ae009000d4
:1072f0004d09dd004300de0000007100c388de00a0
:1073000010079800210798003e009000c200dd00a1
:1073100040152100008040001e019000ae01900049
:107320000288be000080fa00000006000800fa0093
:10733000300798006000b8001007980021079800f7
:107340000000eb00000f78000f0037003e009000b7
:107350009e0078004300dd0001004000c200dd0017
:10736000c0162100008040001001be001e009000e9
:10737000ae00900000004100818049001007980095
:10738000210798001e0fe800700020009e0f1000db
:10739000eeff34001e009000ae0090004d09dd00ad
:1073a0004300de0000007100c388de001007980073
:1073b000210798003e009000c200dd00201d210042
:1073c000008040001e019000ae0190000288be00c7
:1073d0000080fa00000006000200fa00889fbe004c
:1073e000000f78006000b80080b3880091b3880077
:1073f0000000eb0070b388006000b80050b3880054
:1074000061b388000000eb0040b388006000b80062
:1074100020b3880031b388006000b80000b3880052
:1074200011b388006000b800e0b28800f1b28800b3
:107430006000b800c0b28800d1b288006000b80017
:10744000a0b28800b1b288006000b80080b28800a5
:1074500091b288000000eb0070b288000000eb00e1
:1074600060b288000000eb0060b2880020003700a6
:107470001e00780061b280004200dd000100400083
:10748000c200dd0020062100008040001001be0087
:1074900020b3800031b380000200400083804800a8
:1074a00020b3880031b388001e00780061b28000ec
:1074b0004200dd0001004000800040002009210062
:1074c00000804000100078006101b90000b3800026
:1074d00011b38000020040008380480000b38800a0
:1074e00011b3880060b280000000e80060b288003c
:1074f00060b28000e30f5000ddff340020b3800055
:1075000031b38000e00f5000e08f58000c003400d1
:1075100020b3800031b38000c289de004e0add0056
:107520004201de000201720000602300e11620002b
:107530001de4070080b3880091b388000300370082
:107540006000b80080b3880091b388001e00e0009e
:107550000a003a00dac2bf00614060000004e000a7
:10756000030032000080eb0070b388000f0037008a
:107570001000200070b388000c00370010002000bd
:107580009e0f100009003a00e2c2bf000042b200a4
:107590000004e000030032001000200070b38800f7
:1075a000020037000080eb0070b388009e01780075
:1075b00070b380006103b90084b3800095b380008c
:1075c0008600780004007800000cb80005b0b9000f
:1075d000090178000001410007a0b9000001410045
:1075e00082047800c218dd000016210000804000ef
:1075f0000888be001e007800a10521004200dd00c1
:10760000010040001001be001e007800c200dd0035
:1076100000642100008040001000be00800f510077
:10762000818f590007003a001e007800c200dd007b
:1076300000162100008140006000b8000089be00f3
:107640000c0037001e00e00004003a00008b8000b0
:10765000118b8000e0d08800060037001400200065
:107660009e0f120003003a00208b8000318b8000b7
:10767000f0d088001e0278001e007800a1052100cd
:107680004200dd00010040001001be00c220dd000c
:1076900000642100008040000288be004f04be004c
:1076a0000080fa00000006000200fa00881f78003f
:1076b0000000eb00000f78000c0037001e0478007b
:1076c0001e0078008040780000c5b30071370700c5
:1076d0008040780040c82100000044000148780044
:1076e00050002000323707001e0fe800e0042000a1
:1076f0009e0f1000f1ff36004f0478000080fa0062
:10770000000006001400fa00b1d0800090032300ae
:10771000808f500001003a00980f070084c0bf001e
:10772000684060000004e00086003200eac2bf004a
:107730000080fb004500de000004a2006140600004
:107740006140600061406000614060004501dd0013
:10775000a12e200091407800f0cdb30000c0600061
:1077600002407000eae2b7008460a900e07f800078
:10777000e10f500003003a00008080000000e800a4
:10778000008088000000eb004007980025003700cb
:107790004e0090008000400060fd2000008040000e
:1077a00010007800e10f50000a003a00ce0090006f
:1077b00001814000c0fd2000000041001000780061
:1077c0000001e80081804000c0fd200000804000f2
:1077d000020878004e0090008000400080fe2000eb
:1077e0000080400010007800e10f50000a003a00cd
:1077f000ce00900001814000e0fe2000000041002a
:10780000100078000001e80081804000e0fe2000c8
:1078100000804000020878004e0090000000e80060
:10782000400798004e009000e20f5000d8ff34004f
:1078300050808000e10f500003003a00608080001b
:107840000000e8006080880020808000e10f500088
:1078500003003a00308080000000e800308088009b
:10786000d07f8000e10f500006003a00b07f80001a
:10787000c17f800061004000e0804800b07f880048
:10788000c17f8800a0808000e10f500003003a0013
:10789000c08080000000e800c0808800d0808000a8
:1078a000e10f500003003a00f08080000000e80083
:1078b000f080880030818000e10f500003003a0022
:1078c000508180000000e8005081880060818000c5
:1078d000e10f500003003a00708180000000e800d2
:1078e0007081880080818000e10f500003003a0021
:1078f000908180000000e80090818800a0818000d5
:10790000e10f500003003a00c08180000000e80051
:10791000c0818800d0818000e10f500003003a0050
:10792000f08180000000e800f08188000082800083
:10793000e10f500003003a00208280000000e800c0
:1079400020828800c08080000000e0000200340037
:1079500010002000b0808800b27f8000c37f8000cc
:10796000c014200001002000800f5100818f5900b9
:107970000200340010002000a07f88000000eb000f
:10798000400798002f0037004e0090008000400014
:10799000c0fd20000080400010007800e90f50007a
:1079a000120034004e0090008000400000fd2000d6
:1079b0008080400010002000800878004e00900079
:1079c0008000400060fd2000808040000000eb004f
:1079d000800878004e00900080004000c0fd20002c
:1079e000808040000000eb00800878004e0090008e
:1079f00080004000e0fe2000008040001000780081
:107a0000e40f50000c0034004e0090008000400055
:107a100020fe2000808040001000200080087800b8
:107a20004e00900080004000e0fe2000808040007a
:107a30000000eb00800878004e0090000000e80095
:107a4000400798004e009000e20f5000ceff340037
:107a5000308080000000e0000600340010002000ac
:107a6000108088000000eb00308088000000eb00f0
:107a700020808800608080000000e0000600340064
:107a800010002000408088000000eb00608088002b
:107a90000000eb0050808800008080000000e000c3
:107aa0000200340010002000f07f8800f180800088
:107ab00020022000808f50000200340010002000bf
:107ac000e080880050818000e90f500002003400ff
:107ad000100020004081880070818000f80f500065
:107ae0000f00340070cd8000e10f500006003a0016
:107af0000000eb00b01088000000eb00c010880010
:107b000017e2a800110d07001000200070cd8800ba
:107b10000000eb00708188001000200050cd88002c
:107b200090818000f80f50000f00340080cd80005d
:107b3000e10f500006003a000000eb00b01388008f
:107b40000000eb00c013880077e2a8000a0d0700d0
:107b50001000200080cd88000000eb00908188009c
:107b60001000200060cd8800c0818000e30f50002d
:107b70000400340010002000b08188000000eb00f9
:107b8000c0818800f08180000000e0000400340023
:107b900010002000e08188000000eb00f0818800e8
:107ba0002182800030062000808f500004003400c5
:107bb00010002000108288000000eb002082880066
:107bc0000000eb0040079800170037004e009000bf
:107bd0008000400020fe200000804000100078005f
:107be000e10f50000d003a004e0090008000400070
:107bf00040fc200000804000900078004e00900083
:107c00009d0407004e0090008000400020fe2000f0
:107c1000808040000000eb00800878004e0090005b
:107c20000000e800400798004e009000e20f50006e
:107c3000e6ff340010808000e10f50000f003a0092
:107c400010002000208088000000eb0010808800d9
:107c50000000eb0040079800050037004e00900040
:107c6000ddfd07004e0090000000e800400798008e
:107c70004e009000e10f5000f8ff3400408080007b
:107c8000e10f50001b003a000000eb00408088002c
:107c900010002000508088000000eb004007980092
:107ca000050037004e00900027fd07004e009000b1
:107cb0000000e800400798004e009000e20f5000de
:107cc000f8ff34001287800023878000308780000f
:107cd0004187800002014000838148005087800076
:107ce00061878000020040008380480040b6880021
:107cf00051b68800e0808000e10f500010003a008b
:107d00000000eb00c09788000000eb00e0808800d6
:107d10000000eb00d08088000000eb00f0808800bd
:107d200010002000308188000000eb0050818800a6
:107d30000000eb004081880010002000509888006f
:107d400040818000e10f500008003a000000eb0085
:107d5000308188000000eb00508188000000eb00bb
:107d6000408188000000eb005098880070cd8000b2
:107d7000e10f500001003a00cd2e070080cd8000b9
:107d8000e10f500001003a00fc300700b081800094
:107d9000e10f5000ae003a000000eb00b081880017
:107da0006000b80020079800310798006000b80014
:107db000008fbe000000eb0040079800180037005d
:107dc0004e00900080004000801f21000080400095
:107dd000100078006101b9002e009000be009000f4
:107de0000000410081804900200798003107980079
:107df0004e00900000004000e8004000801f21007d
:107e00000080400010007800cf80de001e0f400090
:107e10005e9748004e0090000000e8004007980080
:107e20004e009000e30f5000e5ff34002e0090005c
:107e3000be0090004e09dd004200de00000071002f
:107e4000c288de0000d188001e00be00ce09dd0021
:107e50004200de0000807100c288de0010d1880080
:107e60001e00be004e0add004200de00000072006f
:107e7000c288de00000178002e009000be00900055
:107e8000ce09dd004200de0000807100c288de0005
:107e9000820078003d0c070080e98800a08a8000fd
:107ea000b18a800020d18800c08a8000d18a8000f9
:107eb00030d18800e08a8000f18a800040d18800bb
:107ec000a00521001000be0050d18800a0052100af
:107ed000b00090002000900060d18800dac2bf009e
:107ee0000080fb000000d10061406000804078000d
:107ef00040ac210001487800e2c2bf000080fb00d6
:107f00004500de00614060008040780050ac2100f8
:107f1000014878006000b8002007980031079800f9
:107f20006000b800008fbe000000eb004007980022
:107f3000180037004e00900080004000c06c210007
:107f400000804000100078006101b9002e00900010
:107f5000be00900000004100818049002007980089
:107f6000310798004e00900000004000e8004000fb
:107f7000c06c21000080400010007800cf80de003f
:107f80001e0f40005e9748004e0090000000e80081
:107f9000400798004e009000e30f5000e5ff3400ca
:107fa0002e009000be0090004e0add004200de0070
:107fb00000007200c288de0090d688001e00be005d
:107fc0004e09dd004200de0000007100c288de00c4
:107fd000a0d688006000b8002007980031079800fc
:107fe0000000eb00400798000f0037004e009000a3
:107ff000c120210000004000010040001000780076
:108000006101b9002e009000be0090000000410008
:108010008180490020079800310798004e009000a9
:108020000000e800400798004e009000e30f500069
:10803000eeff34002e009000be009000ce09dd005f
:108040004200de0000807100c288de00b0d68800e9
:10805000e0818000e10f500078003a006000b80035
:1080600020079800310798006000b800008fbe001c
:108070000000eb0040079800170037004e0090000a
:10808000616a2100000040000100400010007800fb
:108090006101b9002e009000be0090000000410078
:1080a0008180490020079800310798004e00900019
:1080b000e16a21000000400001004000100078004b
:1080c000cf80de001e0f40005e9748004e009000fb
:1080d0000000e800400798004e009000e30f5000b9
:1080e000e6ff34002e009000be0090004e0add0036
:1080f0004200de0000007200c288de0090e88800c6
:108100001e00be004e09dd004200de0000007100ce
:10811000c288de00a0e888000000eb00e081880053
:108120002e009000be009000c289de004e0add00e5
:108130004201de0002017200f01f20000100200059
:10814000800f5100818f59000a003c001e00be00c4
:10815000c289de004e0add004201de00020172002b
:10816000f01f200001002000800f5100818f590076
:108170001b003400a0b380000000e800a0b388001a
:10818000a0b38000ea0f50002c0034000000eb0088
:10819000a60707000000eb00c50707000000eb0082
:1081a000e40707000000eb00940107001000200026
:1081b000920107002000200090010700100020001d
:1081c000c09788000000eb0020828800100020008b
:1081d000008288000000eb00108288001700370042
:1081e0002e009000be009000c289de004e0add0025
:1081f0004201de0002017200501520000100200043
:10820000800f5100818f59000a0034001e00be000b
:10821000c289de004e0add004201de00020172006a
:108220005015200001002000800f5100818f59005f
:1082300002003c000000eb00a0b388001082800028
:10824000e10f50000e003a00110020000000eb008a
:10825000450607001100200010002000420607001c
:108260000000eb00c09788000000eb00108288003f
:108270000000eb00208288000000eb0000828800f4
:1082800013060700b0808000e10f500004003a00a0
:108290000000eb00c08088000000eb00b080880088
:1082a000f07f8000e10f500031013a000000eb0048
:1082b000f07f88000000eb00008088000000eb00e9
:1082c00040079800270137004e00900080004000d2
:1082d00040fc20000080400010007800100f980043
:1082e00010e02e009e089000808f50001200320097
:1082f00010e02e001e099000800f510005003c0088
:1083000000e02e009e099000808f51004400320052
:108310001101370020e02e001e0a9000800f52004d
:10832000af00320030e02e009e089000808f500099
:1083300073003200080137004e0090000e01070064
:108340004e00900080004000e0fb200000804000d4
:1083500010007800000f980020f02f000e09900008
:10836000800f51000900320030f02f008e0990007c
:10837000808f51001400320010f02f000e0a900080
:10838000800f52001f003200f30037004e009000b3
:108390001a0107004e0090008000400040fc2000c1
:1083a0008080400020e02e00800878004e00900081
:1083b00080004000a0fc20008080400040e02e00b3
:1083c00080087800e40037004e0090000b010700a1
:1083d0004e0090008000400040fc20008080400063
:1083e00020e02e00800878004e00900080004000c1
:1083f000a0fc20008080400040e02e008008780033
:10840000d50037004e00900080004000e0fb2000c7
:108410008080400000f02f0080087800ce003700f8
:108420004e00900080004000e0fb200000804000f3
:10843000100078007007980020f02f00fe009000d8
:10844000808f50000900320030f02f007e01900034
:10845000800f51000c00320010f02f00fe01900040
:10846000808f510017003200bb0037004e00900093
:108470008000400080fe200080804000100020002e
:1084800080087800b40037004e009000db00070041
:108490004e0090008000400040fc200080804000a2
:1084a00020e02e00800878004e0090008000400000
:1084b000a0fc20008080400040e02e008008780072
:1084c000a50037004e009000cc0007004e00900041
:1084d0008000400040fc20008080400020e02e0012
:1084e000800878004e00900080004000a0fc200032
:1084f0008080400040e02e00800878009600370021
:108500004e00900080004000e0fb20000080400012
:10851000100078006007980020f02f006e02900095
:10852000800f52000900320030f02f00ee00900062
:10853000808f50001400320010f02f006e01900068
:10854000800f510017003200830037004e0090006a
:10855000aa0007004e0090008000400040fc200070
:108560008080400020e02e00800878004e009000bf
:1085700080004000a0fc20008080400040e02e00f1
:1085800080087800740037004e00900080004000a2
:1085900080fe2000808040001000200080087800cd
:1085a0006d0037004e009000940007004e009000d0
:1085b0008000400040fc20008080400020e02e0031
:1085c000800878004e00900080004000a0fc200051
:1085d0008080400040e02e00800878005e00370078
:1085e0004e00900080004000a0fc20000080400071
:1085f0009000780040e02e00808f500019003a0073
:108600004e0090008000400000fd200000804000ef
:1086100010007800e10f500012003a004e00900068
:1086200080004000a0fc20008080400050e02e0030
:10863000800878004e0090008000400000fd20007f
:10864000808040000000eb00800878004e00900021
:1086500080004000c0fd2000808040000000eb0052
:10866000800878004e00900080004000a0fc2000b0
:10867000008040009000780050e02e00808f500075
:1086800035003a004e00900080004000e0fb2000e2
:1086900000804000100078005007980020f02f0064
:1086a000de019000808f51001200320030f02f0068
:1086b0005e029000800f52001b00320010f02f006d
:1086c000de009000808f5000010032002200370051
:1086d0004e009000280007004e00900080004000ef
:1086e00040fc20008080400010e02e0080087800d0
:1086f000190037004e0090008000400080fe2000ee
:108700008080400010002000800878004e0090001b
:108710008000400040fc20008080400000e02e00ef
:10872000800878000c0037004e0090008000400068
:1087300080fe20008080400010002000800878002b
:108740004e0090008000400040fc200080804000ef
:1087500030e02e00800878004e0090000000e80015
:10876000400798004e009000e20f5000d6fe340003
:108770000080fa00000006000400fa00000f7800f4
:108780001e007800100798001e009000e10f5000b6
:108790000d0032001e009000e20f50001000320069
:1087a0001e0090000000e0000100320011003700c0
:1087b0000000eb001d060700dd42a80000000000dd
:1087c000dce2a9000b0037000000eb0038060700d0
:1087d000f502a80000000000cca2a90005003700a7
:1087e0000000eb0053060700ec22a8000000000088
:1087f000ec02a9000080fa00000006000400fa0064
:10880000000f78001e0078008000400080fe2000ed
:10881000808040000000eb00800878001e00780097
:1088200080004000e0fe2000808040000000eb005f
:10883000800878001e0078008000400060fd200065
:108840008080400010002000800878001e00780022
:10885000f7f907001e00780005fa07001e007800ef
:10886000100798001e009000e10f50000c0032002d
:108870001e009000e20f50000e0032001e0090001b
:108880000000e000010032000e003700dd42a900c8
:108890000000eb00e5050700dce2a8000900370056
:1088a000f502a9000000eb0001060700cca2a80019
:1088b00004003700ec22a9000000eb001d060700b1
:1088c000ec02a8000080fa00000006000800fa0090
:1088d00030079800800220002007980070988000e0
:1088e00081988000008fbe00703e200001002000b3
:1088f000be0f1000ae8f180019003c001e00be0015
:10890000e00f5000e08f580015003400803e20003a
:10891000010020003e035000ae835800860078001e
:1089200040022000000ab8006030b900050178005c
:10893000000141004002200000b8b90000014100e0
:1089400082027800823e2000030020000400be0066
:1089500015df07006400400020079800070037007b
:10896000703e200001002000be0f1000ae8f1800e6
:10897000020034004000200020079800509880003a
:10898000e10f500008003a005181800040022000b1
:108990000088b900a2002000110009000200d800e0
:1089a0006400400020079800ae0090008002200084
:1089b000808f5000020034008002200020079800c1
:1089c0002e009000e30f500002003c004000200009
:1089d00020079800ae00900011b788002e0090008c
:1089e0000080fa00000006003000fa00889fbe00f8
:1089f000200f9800310f9800420f9800530f9800f5
:108a0000640f9800750f9800061798007e08900074
:108a1000c200dd00c02e2100008040004e09900001
:108a2000de0990000288be007e0c90007e08900057
:108a3000a6ff07000001780088004400c06d2100f7
:108a400000804000020878004e089000de08900088
:108a500060179800711798006e119000fe11900039
:108a6000e00f5100e08f590006003d006e109000ad
:108a7000fe10900060001000e08018006017980061
:108a8000711798007e08900080004000c06d2100a2
:108a900000804000100078006103b900c20220008d
:108aa0000e0141009200780006007800000ab8002c
:108ab000ee1190000798b90005017800000141000f
:108ac000fe11900003b0b90000014100820278005d
:108ad0004e29dd004220de0000007100c2a8de0049
:108ae000000f9800110f98007e089000c200dd0072
:108af000006f2100008040000e0990009e09900048
:108b00000288be002e089000be0890004017980012
:108b1000511798004e119000de119000e00f5100a7
:108b2000e08f590006003d004e109000de109000ce
:108b300060001000e080180040179800511798005e
:108b40000e0890009e0890004e119000de119000db
:108b500002005000838058002007980031079800d9
:108b60007e0a90007e089000c200dd00c02b21002c
:108b7000008040001001be002e009000be0090005a
:108b80000201400083814800c220dd00c02b21008b
:108b9000008040000288be007e089000c200dd0018
:108ba000c06f2100008040002e019000be019000a7
:108bb0000288be002e009000be00900089de0700f3
:108bc0000002be000e1090007e0990006300b90004
:108bd00002004000c200dd000022210000804000b1
:108be0001001be000400be00a9de07000004be00a4
:108bf0007e089000c200dd00c02b210000804000f4
:108c00001000be0077de07000002be000e109000cc
:108c10007e0990006300b90002004000c200dd0040
:108c200000252100008040001001be000400be00ad
:108c300097de07000001be000800be00c9de070085
:108c40000004be007e089000c200dd00402d21001f
:108c5000008040001001be002e009000be00900079
:108c600002005000838058005ede07000002be0054
:108c70000e1090007e0990006300b90002004000d1
:108c8000c200dd0000282100008040001001be006d
:108c90000400be007ede07000001be000800be002a
:108ca000b0de070040079800510798007e0890004a
:108cb000c200dd00402d2100008040002e01900008
:108cc000be0190000288be00329880004398800068
:108cd0004e009000de009000ffde07000000e00084
:108ce00001003d0017003700309880004198800057
:108cf00040079800510798002e009000be00900099
:108d0000e00f5000e08f58000e0034007e0a900003
:108d10007e089000c200dd00c02b210000804000d2
:108d20001001be002e009000be0090000001510016
:108d300081815900c220dd00c02b2100008040004d
:108d40000288be006011b8004e009000de00900066
:108d5000e3de07000000e0000100350009003700f5
:108d60006000b80040079800510798007e08900006
:108d7000c200dd00c02b2100008140006000b8006f
:108d80000089be007e089000e20f500009003a0002
:108d90007e0890004e09900080004000a02f210026
:108da0000080400002087800ce089000311798003b
:108db0002d0037007e0c90004e009000de009000e9
:108dc000c9de07000001780088004400a02f2100c0
:108dd00000804000020878004e099000de099000f3
:108de00012179800231798001e109000ae109000e4
:108df000e00f5000e08f580006003d001e1190006b
:108e0000ae11900060011100e08119001217980066
:108e1000231798001e109000ae109000f1dd07009f
:108e200040079800510798003298800043988000ce
:108e30004e009000de009000a7de07000000e0007a
:108e400001003d0004003700309880004198800008
:108e500040079800510798004e009000de009000f7
:108e6000a1de0700301798003e1090004f04be00ae
:108e70000080fa00000006000e00fa0020079800ab
:108e8000310798002e00900028f907002e0090006e
:108e9000fbf80700b0b58000c1b58000d2b58000f6
:108ea000e3b580000200500083805800400798001e
:108eb000510798004e009000de009000e00f500037
:108ec000e08f580006003d004e009000de0090004c
:108ed00060001000e08018004007980051079800db
:108ee0004e009000de009000709888008198880005
:108ef0007098800081988000000f7800703e2000fc
:108f00009e0f1000070034002e00900080004000eb
:108f1000602b2100808040000000eb00800878007a
:108f2000060037002e00900080004000602b2100da
:108f3000808040001000200080087800ae00900083
:108f4000610798006e009000e10f5000650032004c
:108f5000ee009000e28f5000c00032006e009000e2
:108f60000000e000010032000b013700be0090005d
:108f700000e02e00808f50002b003a00c097800048
:108f8000e10f500003003a000000eb0010079800ca
:108f90001a0037002e00900080004000602b210056
:108fa00000804000100278002e009000c200dd001a
:108fb00040152100008040001000be0080037800b2
:108fc0002e009000c200dd00606b21000080400098
:108fd0001001be002e009000c200dd00201d210007
:108fe000008040001000be0004037800ae02900034
:108ff000070278007cfe070010079800c0978000e9
:10900000e10f500002003a00dd42a90001003700e4
:10901000dd42a800dce2a800dcc2a8001e0090002f
:1090200002040700dc003700be00900030e02e0094
:10903000808f5000d8003a00c0978000e10f5000a8
:1090400003003a000000eb00100798001a003700f8
:109050002e00900080004000602b21000080400026
:10906000100278002e009000c200dd0040152100a3
:10907000008040001000be00800378002e009000a9
:10908000c200dd00606b2100008040001001be00c6
:109090002e009000c200dd00201d21000080400055
:1090a0001000be0004037800ae02900007027800b2
:1090b0004dfe070010079800c0978000e10f500098
:1090c00002003a00dd42a90001003700dd42a8009d
:1090d000dce2a800dcc2a9001e009000d303070058
:1090e000ad003700be00900000e02e00808f5000e1
:1090f0002b003a00c0978000e10f500003003a00b7
:109100000000eb00100798001a0037002e009000b6
:1091100080004000602b2100008040001002780099
:109120002e009000c200dd004015210000804000ac
:109130001000be00800378002e009000c200dd0009
:10914000606b2100008040001001be002e009000e6
:10915000c200dd00201d2100008040001000be0084
:1091600004037800ae029000070278001efe07009c
:1091700010079800c0978000e10f500002003a00ed
:10918000f502a90001003700f502a800cca2a80052
:10919000cc82a9001e009000c50307007e003700a6
:1091a000be00900030e02e00808f50007a003a0020
:1091b000c0978000e10f500003003a000000eb0070
:1091c000100798001a0037002e0090008000400021
:1091d000602b210000804000100278002e009000db
:1091e000c200dd0040152100008040001000be00dc
:1091f000800378002e009000c200dd00606b21002b
:10920000008040001001be002e009000c200dd0072
:10921000201d2100008040001000be0004037800e3
:10922000ae02900007027800effd070010079800db
:10923000c0978000e10f500002003a00f502a9003b
:1092400001003700f502a800cca2a800cc82a8003b
:109250001e009000960307004f003700be009000ec
:1092600000e02e00808f500023003a002e00900076
:1092700080004000602b2100008040001002780038
:109280002e009000c200dd0040152100008040004b
:109290001000be00800378002e009000c200dd00a8
:1092a000606b2100008040001001be002e00900085
:1092b00080004000206c21000080400010007800f9
:1092c0000100200004037800ae029000070278003d
:1092d000c5fd070010079800ec22a8000000000060
:1092e000ec02a80000000000e462a8001e0090004c
:1092f0009003070028003700be00900030e02e00e9
:10930000808f500024003a002e0090008000400022
:10931000602b210000804000100278002e00900099
:10932000c200dd0040152100008040001000be009a
:10933000800378002e009000c200dd00606b2100e9
:10934000008040001000be0060011000e0811800a5
:109350002e00900080004000206c21000080400022
:10936000100078000100200004037800ae02900095
:10937000070278009cfd070010079800ec22a80067
:1093800000000000ec02a80000000000e462a90058
:109390001e00900067030700ae0090001e009000c2
:1093a0006101b900c208dd00406e2100008040006c
:1093b0000288be000080fa00000006000200fa00e9
:1093c000000f780023c2bf00624060000004e0008c
:1093d000fcff3a008580a9001e007800201188005b
:1093e0000080fa00000006000c00fa00a000200037
:1093f000000f78000000eb00100798008f00370086
:109400001e0090008000400080fb20000080400093
:109410009000780080bb20001e004000808f50002c
:1094200016003e001e0090008000400080fb2000df
:10943000008040009000780080bb20001e0050009b
:10944000808f50000d0039001e0090008000400009
:10945000e0fb20008080400010f02f0080087800a2
:109460001e009000c200dd00606b21000081400002
:109470006000b8000089be006d0037001e0090003b
:109480008000400080fb20000080400090007800b9
:10949000f07c2000808f5000300036001e009000cd
:1094a0008000400080fb2000008040009000780099
:1094b00080bb20001e005000808f500027003e001f
:1094c0001e00900080004000e0fb200080804000f3
:1094d00030f02f00800878001e00900080004000cf
:1094e00080fb200000804000100078000100200078
:1094f000200798003107980082bb2000030020005d
:109500002e009000be0090000000510081805900a4
:109510004a09dd00c600de00810071004a00dd005e
:10952000823e2000030020001fdc07004007980057
:10953000510798001e0290004e009000de0090003f
:1095400060011000e0811800c220dd00606b210086
:10955000008040000288be00350037001e009000e9
:109560008000400080fb20000080400090007800d8
:1095700080bb20001e004000808f50002c0039006e
:109580001e0090008000400080fb20000080400012
:109590009000780000fa2000808f500024003e00e8
:1095a0001e00900080004000e0fb20008080400012
:1095b00020f02f00800878001e00900080004000fe
:1095c00080fb200000804000100078000100200097
:1095d00020079800310798002e009000be009000f0
:1095e0004a09dd00c601de00830171004a01dd0089
:1095f0000000220011fd2f0002004000838048007f
:10960000823e200003002000e7db070040079800af
:10961000510798001e009000c200dd00606b210021
:10962000008040004e019000de0190000288be00e4
:109630001e0090000000e800100798001e00900037
:10964000e20f50006eff34000080fa0000000600b8
:109650000600fa00004f7800110798001e009000e5
:109660000000e00009003a001e80fb00800040007e
:1096700060672100808040000000eb0080087800d7
:109680000000eb0020079800500037001e80fb0010
:10969000800040006067210000804000900078005a
:1096a0001e009000808f500019003d009e80fb003e
:1096b0000181400060672100000041001000780037
:1096c0000001e800818040006067210000804000c8
:1096d000020878001e80fb008000400060672100c7
:1096e00000804000900078001e009000808f5000a5
:1096f000270035001e80fb008000400060672100cd
:10970000008040009e009000010878002000370093
:109710001e80fb0080004000606721000080400048
:10972000900078001e009000808f500018003400d8
:109730009e80fb0001814000606721000000410025
:10974000100078000001e90081804000606721007e
:1097500000804000020878001e80fb00800040006e
:109760006067210000804000900078001e0090009b
:10977000808f500006003c001e80fb0080004000ef
:1097800060672100008040009e0090000108780082
:10979000c09780000000e000060032000000eb00ef
:1097a000b0b388000000eb00c0b388000000eb00fd
:1097b000d0b388001e80fb0080004000606721005d
:1097c0000080400010007800200798002e009000d4
:1097d0000080fa00000006000200fa00f0b38000ea
:1097e0000000e800f0b38800e0b380000000e8006b
:1097f000e0b38800f0b38000e50f50000a003600a7
:109800000000eb00f0b3880091d080000040eb0036
:109810008fff0700608f8800a1d0800010c0b300c8
:109820008bff0700708f8800e0b38000ef0f5000bf
:10983000060036000000eb00e0b38800b1d08000e5
:1098400020c0b30082ff0700808f8800a07f8000c7
:10985000e10f50002e003a000000eb00a07f8800ce
:109860000000eb00d07f88006000b800b07f880067
:10987000c17f88000000eb0090d088000000eb0062
:10988000a0d088000000eb00b0d088000000eb0002
:10989000000f7800180037001e007800800040009c
:1098a000c01e2100808040000000eb00800878008e
:1098b0001e00780080004000e0fb20008080400017
:1098c00010f02f00800878001e0278001e0078003b
:1098d00080004000c01e2100008040001000780081
:1098e0006101b900c220dd00606b210000804000f2
:1098f0000288be001e0fe800200020009e0f10000e
:10990000e5ff340071c1b300008a2800082e07006b
:1099100001b48000f0988000808f50006a0032000f
:10992000f098800000b488006000b800b07f880024
:10993000c17f880010002000d07f88000000eb006d
:10994000a07f88000000eb00000f78005b0037006c
:109950001e00780080004000c01e210000804000f2
:10996000100078000000e00012003a001e007800ad
:1099700080004000e0fb20008080400010f02f00bd
:10998000800878001e0278001e00780080004000e9
:10999000c01e210000804000100078006101b90065
:1099a000c220dd00606b2100008040000288be0004
:1099b000410037001e00780080004000c01e2100da
:1099c000008040009000780000c02f00808f500081
:1099d000190034001e00780080004000c01e2100e5
:1099e00000804000100078000000e00012003d0000
:1099f0001e00780080004000e0fb200080804000d6
:109a000030f02f00800878001e0278001e007800d9
:109a100080004000c01e210000804000100078003f
:109a20006101b900c220dd00606b210000804000b0
:109a30000288be00200037001e0078008000400031
:109a4000c01e210000804000100078000000e000ef
:109a5000190034001e00780080004000c01e210064
:109a60000080400090007800f03f2000808f500080
:109a700011003c001e00780080004000e0fb200048
:109a80008080400020f02f00800878001e027800bf
:109a90001e00780080004000c01e210000804000b1
:109aa000100078006101b900c220dd00606b210068
:109ab000008040000288be001e0fe8002000200049
:109ac0009e0f1000a2ff34000080fa000000060084
:109ad0000000fa0040ff0700100020000080fa009c
:109ae000000006000000fa00e168200091407800c4
:109af00000ccb30000c06000c040b3008ee6b700e9
:109b0000016920009140780000ccb30000c06000e3
:109b10000044a00090e6b700816d200091407800dd
:109b200000ccb30000c060002041b300d8e6b7000d
:109b3000216c20009140780000ccb30000c0600090
:109b40003041b300c2e6b700916d2000914078002b
:109b500000ccb30000c060004041b300d9e6b700bc
:109b60000080fa00000006000a00fa00000f7800ea
:109b7000110798001e007800200798002e00900022
:109b80000000e000040032002e009000e10f5000c1
:109b90000e003200190037001e00900030079800b8
:109ba0003e0090000000e000060032003e00900001
:109bb000e10f50000100320010003700dc62a80005
:109bc0000e003700dc62a9000c0037001e00900078
:109bd000400798004e0090000000e00006003200b0
:109be0004e009000e10f50000100320003003700ea
:109bf000dc42a80001003700dc42a9000080fa0026
:109c0000000006001a00fa000e80e800818b280090
:109c10000b00090031587800c000b1006e00470009
:109c2000418c280008000900315878009000b100ec
:109c3000690040008040eb00014878000000e80027
:109c40008040eb00014878000000e8008040eb0015
:109c5000014878000000eb00000f78002b0037006f
:109c60009e0078000e80e8000080400010407800e0
:109c70000004e00006003a009e00780040cd21007c
:109c80008080400000c2b3008048780008003700a0
:109c90001e0178009e0078000e80e80000804000e1
:109ca0009040780040cd210000004100014878003c
:109cb0009e0078006e004700008040001040780051
:109cc0000004e00007003a001e007800ec004000ad
:109cd00040cd21008080400000c2b3008048780061
:109ce000090037009e0078006c8140009e007800db
:109cf0006e004700008040009040780040cd210079
:109d000000004100014878001e0fe800b00020006c
:109d10009e0f1000d2ff36000080fa0000000600ff
:109d20000000fa000000eb00001988000000eb00c2
:109d3000101988000000eb00201988000080eb005b
:109d4000601988000080eb00401688000080eb005e
:109d5000801688000080eb00c01688000080eb00b1
:109d6000001788000080eb00401788000080eb009f
:109d7000801788005bff07000080eb0060198800f7
:109d80002c43a9002c63a9002c03a9002c23a900b3
:109d90002dc3a9002de3a9002d43a9002d63a9001f
:109da0002d83a9002da3a9002d03a9002d23a9000f
:109db000d862a900d842a900d8c2a900d8e2a90057
:109dc000d922a900d942a900c882a900c8a2a90025
:109dd000f122a900f102a900e062a900e802a900ad
:109de000e082a900e822a900dd22a800f522a8004f
:109df000e482a80014000700880207000f02070091
:109e00001f020700fe0107002902070031020700b8
:109e10006c0007008c000700ac0007003902070047
:109e20005b02070053000700550007005b000700b6
:109e30004d000700290007001bf6070071ff07000f
:109e40000080fa00000006000000fa00205d2500f6
:109e500070cc8800a05d250080cc8800605a250069
:109e600090cc8800805f2500a0cc8800604725004a
:109e7000b0cc880080502500d0cc8800e06625005a
:109e800010cd88000080fa00000006000400fa00ef
:109e9000004f7800114798002247980073db0700b5
:109ea00085db070071db07001e40780084db0700bc
:109eb0006edb07001e40900081db07006bdb0700b4
:109ec0002e4090007edb070068db070086db070082
:109ed00066db07000080fa00000006000000fa00c0
:109ee00082c5b30021c0b30080c1b300c62d0700f6
:109ef0000041eb0011c1b30080c1b300c22d0700c7
:109f0000400120002a2d07000041eb0021c1b300d1
:109f100080c1b300bc2d070040012000242d0700a4
:109f200040012000222d070001c3b30040d02100d2
:109f30000148780002cfb300b1c0b30080c1b300c4
:109f4000b12d07000060fe00401f2000182d070003
:109f50000060fe0040012000152d07000060fe009b
:109f60000080fa00000006000000fa000080fa00fd
:109f7000000006000000fa000080fa000000060061
:109f80000000fa00f10f2000f0232c0058db07003e
:109f90005adb07000080fa00000006000000fa000b
:109fa000f10f2000f0232c0067db07002fdb0700f8
:109fb0000080fa00000006000000fa000080fa00ad
:109fc000000006000000fa000000eb00b00c880062
:109fd000007d2000a00c880092c1bf00f041b300ba
:109fe00092e1b70092e1a900111920009140780098
:109ff00030ceb30000c0600091e1b700011920002d
:10a000009140780080cfb30000c060006040b30092
:10a0100090e1b700402120000100200010b488002a
:10a0200021b488000080fa00000006000200fa0057
:10a03000000f78001e00780000004000b00c88007f
:10a040000080fa00000006000000fa000000eb00ab
:10a05000000d8800007d2000f00c88009cc1bf002e
:10a06000f041b3009ce1b7009ce1a900b1192000c8
:10a070009140780030ceb30000c060009be1b70093
:10a08000a11920009140780080cfb30000c060008b
:10a090006040b3009ae1b700402120000100200099
:10a0a00030b4880041b488000080fa000000060047
:10a0b0000200fa00000f78001e0078000000400047
:10a0c000000d88000080fa00000006000000fa0081
:10a0d0000000eb00500d8800007d2000400d88003e
:10a0e000a6c1bf00f041b300a6e1b700a6e1a900f8
:10a0f000511a20009140780030ceb30000c06000bb
:10a10000a5e1b700411a20009140780080cfb3004c
:10a1100000c060006040b300a4e1b700402120000f
:10a120000100200050b4880061b488000080fa006b
:10a13000000006000200fa00000f78001e00780000
:10a1400000004000500d88000080fa00000006006a
:10a150000000fa000000eb00a00d88004021200064
:10a16000900d8800b0c1bf00f041b300b0e1b7006e
:10a17000b0e1a900f11a20009140780030ceb30080
:10a1800000c06000afe1b700e11a20009140780004
:10a1900080cfb30000c060006040b300aee1b70004
:10a1a000402120000100200070b4880081b48800a4
:10a1b0000080fa00000006000200fa00889fbe003e
:10a1c000000f78001e0078006104b90076b48000aa
:10a1d00087b480008800780006007800000ab80084
:10a1e00007c0b900050178000001410009b0b900bd
:10a1f00000014100820278004629dd004a20de008d
:10a2000000007100caa8de00a00d88004f04be0047
:10a210000080fa00000006000000fa000000eb00d9
:10a22000f00d880040212000e00d8800bac1bf0079
:10a23000f041b300bae1b700bae1a900911b2000d8
:10a240009140780030ceb30000c06000b9e1b700a3
:10a25000811b20009140780080cfb30000c06000d7
:10a260006040b300b8e1b7004021200001002000a9
:10a2700090b48800a1b488000080fa0000000600b5
:10a280000200fa00889fbe00000f78001e007800d0
:10a290006104b90096b48000a7b4800088007800fb
:10a2a00006007800000ab80007c0b9000501780070
:10a2b0000001410009b0b9000001410082027800ac
:10a2c0004629dd004a20de0000007100caa8de0039
:10a2d000f00d88004f04be000080fa000000060068
:10a2e0000000fa000000eb00400e88004021200032
:10a2f000300e8800c4c1bf00f041b300c4e1b70014
:10a30000c4e1a900311c20009140780030ceb30098
:10a3100000c06000c3e1b700211c2000914078001c
:10a3200080cfb30000c060006040b300c2e1b7005e
:10a330004021200001002000b0b48800c1b4880092
:10a340000080fa00000006000200fa00889fbe00ac
:10a35000000f78001e0078006104b900b6b48000d8
:10a36000c7b480008800780006007800000ab800b2
:10a3700007c0b900050178000001410009b0b9002b
:10a3800000014100820278004629dd004a20de00fb
:10a3900000007100caa8de00400e88004f04be0015
:10a3a0000080fa00000006000000fa000000eb0048
:10a3b000900e880040212000800e8800cec1bf0092
:10a3c000f041b300cee1b700cee1a900d11c2000de
:10a3d0009140780030ceb30000c06000cde1b700fe
:10a3e000c11c20009140780080cfb30000c0600005
:10a3f0006040b300cce1b700402120000100200004
:10a40000d0b48800e1b488000080fa0000000600a3
:10a410000200fa00889fbe00000f78001e0078003e
:10a420006104b900d6b48000e7b4800088007800e9
:10a4300006007800000ab80007c0b90005017800de
:10a440000001410009b0b90000014100820278001a
:10a450004629dd004a20de0000007100caa8de00a7
:10a46000900e88004f04be000080fa000000060035
:10a470000000fa000000eb00e00e88004021200000
:10a48000d00e8800d8c1bf00f041b300d8e1b700ba
:10a49000d8e1a900711d20009140780030ceb300b2
:10a4a00000c06000d7e1b700611d20009140780036
:10a4b00080cfb30000c060006040b300d6e1b700b9
:10a4c0004021200001002000f0b4880001b5880080
:10a4d0000080fa00000006000200fa00889fbe001b
:10a4e000000f78001e0078006104b900f6b4800007
:10a4f00007b580008800780006007800000ab800e0
:10a5000007c0b900050178000001410009b0b90099
:10a5100000014100820278004629dd004a20de0069
:10a5200000007100caa8de00e00e88004f04be00e3
:10a530000080fa00000006000000fa000000eb00b6
:10a54000300f880040212000200f8800e2c1bf00aa
:10a55000f041b300e2e1b700e2e1a900111e2000e2
:10a560009140780030ceb30000c06000e1e1b70058
:10a57000011e20009140780080cfb30000c0600031
:10a580006040b300e0e1b70040212000010020005e
:10a5900010b5880021b588000080fa000000060090
:10a5a0000200fa00889fbe00000f78001e007800ad
:10a5b0006104b90016b5800027b5800088007800d6
:10a5c00006007800000ab80007c0b900050178004d
:10a5d0000001410009b0b900000141008202780089
:10a5e0004629dd004a20de0000007100caa8de0016
:10a5f000300f88004f04be000080fa000000060003
:10a600000000fa000000eb00200888004110200044
:10a6100091407800f0ccb30000c0600004e1b700c6
:10a620000000eb0000088800f0e723001008880015
:10a6300005e1a8000080fa00000006000000fa0012
:10a640000000eb0080088800011120009140780094
:10a65000f0ccb30000c0600010e1b7000000eb00d8
:10a6600030088800402120006008880084e0a900ac
:10a6700094e0a80011e1a8000080fa0000000600a4
:10a680000000fa0000012000900888000000eb00a4
:10a6900050088800f0132000700888008500a90089
:10a6a0009500a80013e1a8000080fa000000060051
:10a6b0000000fa0000012000f00888000000eb0014
:10a6c000a00888008760a9001fe1a8000080fa00a8
:10a6d000000006000000fa000001200000098800c8
:10a6e0000000eb00c0088800f01f2e00e008880082
:10a6f0008780a9009780a90021e1a9000080fa00c5
:10a70000000006000200fa0002003700200a800064
:10a71000000f780040c1bf00684060000004e00006
:10a72000faff3a00211420009140780000ceb300d7
:10a7300000c0600042e1b700111420009140780091
:10a7400030ceb30000c060000034a00041e1b7008b
:10a750000114200091407800f0c9b30000c06000ef
:10a7600040e1b70042e1a9000114200091407800c7
:10a7700080cfb30000c060003040b30040e1b700bc
:10a780008420a9009420a8000080fa0000000600a0
:10a790000200fa0002003700a00a8000000f7800d3
:10a7a00050c1bf00684060000004e000faff3a00ba
:10a7b000211520009140780000ceb30000c0600059
:10a7c00052e1b700111520009140780030ceb3005f
:10a7d00000c060000034a00051e1b7000115200066
:10a7e00091407800f0c9b30000c0600050e1b700ac
:10a7f00052e1a900011520009140780080cfb300fc
:10a8000000c060003040b30050e1b70088a0a9004c
:10a8100098a0a8000080fa00000006000000fa00de
:10a8200023c3bf007f40600023e3b70010c0b30024
:10a8300024e3b700013220009140780000ceb3003d
:10a8400000c0700020e3b700513220009140780032
:10a8500000ceb30000c06000f040b30025e3b700b5
:10a860001132200091407800c0cfb30000c06000da
:10a8700021e3b700213220009140780030ccb300b2
:10a8800000c06000c1c2b3000140700022e3b70005
:10a89000f0f02f00801988002343a80021e3a800ce
:10a8a00095a0a80085a0a9000080fa00000006007d
:10a8b0000000fa0040042000401188000000eb0076
:10a8c000001188002062a8000000eb001011880031
:10a8d00021e2a8002342a8008580a9009580a80055
:10a8e0009560a8000080fa00000006000000fa0051
:10a8f000889fbe008420a90038003700200a80000d
:10a90000a082880054858000a1828000908280000f
:10a91000008050006101b800c220dd002006210047
:10a92000008040000288be0050858000c200dd002b
:10a9300020062100008040001000be00e00f500003
:10a94000e08f580003003500508280000000e000d6
:10a950001a0032005585800050858000c200dd005d
:10a9600020062100008040001004be0050828000bc
:10a970006103b800860078000080eb000009b80091
:10a980006030b90003027800000242000080eb0052
:10a9900000b8b900000242008401780008014100bb
:10a9a00089814900c228dd00200621000080400086
:10a9b0000288be000000eb0050828800a082800068
:10a9c00090828800508580000000e8005085880053
:10a9d00050858000630060005085880040c1bf0042
:10a9e000684060000004e000c4ff3a00a0052100b8
:10a9f0001000be0061004000e0804800a205210078
:10aa00000089be004f04be000080fa00000006006e
:10aa10000000fa00889fbe0088a0a9003c00370013
:10aa2000a00a8000c082880064858000c182800006
:10aa3000b0828000008050006101b8004220dd003b
:10aa4000f000400020062100008040000288be0087
:10aa5000608580004200dd00f000400020062100fb
:10aa6000008040001000be00e00f5000e08f580052
:10aa700003003500708280000000e0001c003200fe
:10aa800065858000608580004200dd00f0004000a8
:10aa900020062100008040001004be00708280006b
:10aaa0006103b800860078000080eb000009b80060
:10aab0006030b90003027800000242000080eb0021
:10aac00000b8b9000002420084017800080141008a
:10aad000898149004228dd00f00040002006210065
:10aae000008040000288be000000eb0070828800f9
:10aaf000c0828000b0828800608580000000e8008d
:10ab00006085880060858000630060006085880043
:10ab100050c1bf00684060000004e000c0ff3a0080
:10ab2000a0052100b00090002000900061004000ce
:10ab3000e0804800a2052100200198003101980022
:10ab40004f04be000080fa00000006000000fa007a
:10ab50008760a900308280000000e8003082880011
:10ab6000408280000000e80040828800508280001f
:10ab70000000e80050828800608280000000e80049
:10ab800060828800708280000000e8007082880087
:10ab9000808280000000e800808288000080fa0047
:10aba000000006000000fa0084e0a9000080fa001e
:10abb000000006000200fa008500a90030088000ad
:10abc000000f7800a08f80000000e800a08f8800b0
:10abd000a08f80000000e000030035000000eb00c3
:10abe000a08f88002043a8000080fa000000060023
:10abf0000200fa008780a900909880000000e80019
:10ac00009098880090988000e20f5000080034006f
:10ac10009780a90021e1a9000000eb00c00888008e
:10ac20000000eb00609888000000eb00909888001e
:10ac3000c09780000000e00026003a0042b6800085
:10ac400053b68000b08f200001002000800f51001b
:10ac5000818f59001f00340010002000c097880029
:10ac600010002000d08088000000eb00e080880009
:10ac70000000eb00f08088000000eb00000f78007f
:10ac8000050037001e007800e9f007001e0078007c
:10ac9000f7f007001e0fe800200020009e0f1000b4
:10aca000f8ff3400dd42a9000000eb00dffc0700e4
:10acb000dce2a800f502a9000000eb00fcfc0700a4
:10acc000cca2a800ec22a9000000eb00d7fc0700f2
:10acd000ec02a8000080fa00000006000000fa0064
:10ace0002043a90085a0a900419080004018800061
:10acf0000001780081804000801f2100008040001a
:10ad0000020878004190800050188000000178000f
:10ad100001804000e8004000801f210000804000ca
:10ad20000208780001878000301880006101b800b7
:10ad3000c208dd00000b2100008040000288be0038
:10ad400001878000101880006101b8004208dd0012
:10ad5000f0004000000b2100008040000288be008f
:10ad600001878000b01880006101b8004208dd0052
:10ad70000102200080804000000b21000080400084
:10ad80000288be00a29080008018800080017800b8
:10ad9000616a2100020041000100400003087800c0
:10ada000a29080009018800080017800e16a210064
:10adb000020041000100400003087800a3908000d9
:10adc000a0908000616a2100000040000100400066
:10add00010017800a0908000e16a2100000040008e
:10ade000010040001000780000014100c120210056
:10adf000038041000100400002087800f1908000cb
:10ae0000601880000001780081804000c06c210043
:10ae10000080400002087800f190800070188000e7
:10ae20000001780001804000e8004000c06c210073
:10ae3000008040000208780000878000c200dd002a
:10ae4000000b2100008040001001be000087800040
:10ae50004200dd00f0004000000b210000804000b7
:10ae60001000be000201400083814800008780007e
:10ae70004200dd000102200080804000000b210024
:10ae8000008040001000be000200400083804800a7
:10ae900040b6880051b6880042b6800053b68000a4
:10aea000b08f200001002000800f5100818f5900d9
:10aeb0000400340021e1a8009780a80010002000c1
:10aec00060988800f09080000000e800f090880012
:10aed000f090800063006000f0908800a0908000f7
:10aee0000000e800a0908800a0908000630060004f
:10aef000a0908800409080000000e800409088000a
:10af000040908000630060004090880000878000cf
:10af10000000e80000878800008780006300600070
:10af2000008788000080fa00000006000000fa0098
:10af30008580a9000080fa00000006000000fa00e9
:10af40008560a9000080fa00000006000000fa00f9
:10af5000f00f200030d68800f00f200040d6880087
:10af6000f00f200050d68800f00f200000e4880089
:10af70000080fa00000006000000fa00f00f200038
:10af800010e488000080fa00000006000a00fa00c1
:10af900020079800310798000000eb001007980088
:10afa0000000eb00000f7800be0090002e00900023
:10afb00027000700100798009e00900000712200f3
:10afc000808f500003003a00007122004007980073
:10afd0001c0037001e009000e10f400003003a0003
:10afe0000080eb004007980016003700d0988000e2
:10aff000e10f400003003a001e0090004007980057
:10b0000010003700d09880009e0090000080500013
:10b01000000f78001e00e00003003d0080162000b5
:10b020001e0f400005003700701620009e0f100014
:10b030000200340080e92f001e0f40001e0078003f
:10b04000400798004e0090000080fa0000000600c3
:10b050002c00fa00889fbe008a9fbe00100f980047
:10b06000210f98000000eb00000f98000000eb009b
:10b07000700798000000eb00600798000000eb00ec
:10b08000500798000000eb00400798000000eb001c
:10b09000300798006000b80010079800210798005a
:10b0a0000000eb00000f7800f13f20002e08900018
:10b0b00000805000200f98009e08900000022000a1
:10b0c000808f5000040036009e089000e03d200074
:10b0d000808f50000b003600ae0890000002200068
:10b0e000808f500004003600ae089000e03d200044
:10b0f000808f5000030036000080eb00501798004e
:10b10000f50037009e08900000022000808f50005c
:10b11000040036009e089000e03d2000808f500023
:10b120001a0036002e089000cf80de002dd50700d3
:10b1300030179800411798002e0890000000e0009a
:10b1400007003d0002002000037824003e1090001c
:10b15000ce10900083d50700301798004117980053
:10b1600092972e0063ea23003e109000ce109000cc
:10b1700047d50700a29929005315240079d5070067
:10b18000d9d5070070079800c2003700ae089000bc
:10b1900000022000808f500004003600ae089000ae
:10b1a000e03d2000808f50000f0036001e08900008
:10b1b000cf80de000bd5070092972e0063ea2300b4
:10b1c00033d50700a29929005315240065d507003f
:10b1d00002002000c325240061d50700c2d5070066
:10b1e00070079800ab0037009e08900000e02f0029
:10b1f0000080400040079800ae08900000e02f005b
:10b2000000804000300798001e089000cf80de00cc
:10b21000f4d4070010179800211798001e0890001a
:10b220000000e00007003d00020020000378240039
:10b230001e109000ae1090004ad50700101798001d
:10b2400021179800d2cc2c00833224001e109000cd
:10b25000ae10900042d50700a3d50700000f78007c
:10b260001e007800cf80de00ded4070092972e000b
:10b2700063ea230006d50700a2992900531524008c
:10b2800038d5070098d50700600798002e08900071
:10b29000cf80de00d3d40700700f9800011798000c
:10b2a0002e0890000000e00007003d000200200092
:10b2b000037824007e0890008e10900029d50700a6
:10b2c000700f98000117980092972e0063ea2300f0
:10b2d0007e0890008e109000edd40700a2992900fe
:10b2e000531524001fd507007fd50700500798008d
:10b2f000ce009000610f98006e0890000000e00002
:10b3000003003d00ee0890008100ea00610f980004
:10b310003e009000500f9800de0890000100e00011
:10b3200003003d005e0890000000ea00500f980006
:10b33000ee0890005e089000808f50002b003400d3
:10b34000ce009000410f98004e0890000000e000f1
:10b3500003003d00ce0890008100ea00410f9800f4
:10b3600000202000ce08900001005000cf80de00b9
:10b370009cd4070002002000034024007bd5070076
:10b3800010079800210798006e009000cf80de0023
:10b3900094d407001e019000ae019000bcd40700b9
:10b3a0000005be005e009000cf80de008dd4070057
:10b3b0000004be001e019000ae01900000002000bd
:10b3c00001f82300e6d407000001be000800be001b
:10b3d000afd407000001be000a00be00e1d40700a0
:10b3e00041d50700700798002a0037003e00900002
:10b3f000300f9800be0890000100e00003003d00ff
:10b400003e0890000000ea00300f98000020200065
:10b41000be08900001005000cf80de0071d407000c
:10b42000020020000340240050d5070010079800b8
:10b43000210798005e009000cf80de0069d40700ed
:10b440001e019000ae01900091d407000005be00df
:10b450006e009000cf80de0062d407000004be00c2
:10b460001e019000ae0190000000200001f82300b2
:10b47000bbd407000001be000800be0084d4070052
:10b480000001be000a00be00b6d4070016d50700b2
:10b4900070079800fe00900080162000808f5000fa
:10b4a000050034007e00900081e92f00010040007b
:10b4b00070079800060037007e0090000000e00052
:10b4c00003003d007e0090008016b00070079800d9
:10b4d0007e009000501798005e1090004f05be004f
:10b4e0004f04be000080fa00000006000600fa00cb
:10b4f000881f7800af120700000000000000eb007a
:10b50000000f7800090037001e0478001e00780044
:10b5100057130700804078000e80e80000004400c8
:10b5200001487800000000001e0fe8002000200005
:10b530009e0f1000f4ff36000e80e800a04090003f
:10b54000a0cab30080cf500009003a000e80e80086
:10b55000104078000080fb00c800dd000e80e8008d
:10b56000104090000080fb0000804000d0988800d0
:10b570004f0478000080fa00000006000000fa0086
:10b5800010d180008000780000d18000b0fe07005c
:10b59000d09888008712070000000000d098800033
:10b5a0004800de008000eb00a4130700000000004c
:10b5b000d1988000f00f2000008060001100200072
:10b5c0009e1307000000000021002000a00a2000b8
:10b5d0009a130700000000000060fe00feff370025
:10b5e0000200fa009ec0a900f00f2000702488001d
:10b5f000f00f200050248800200020003025880013
:10b600000000eb00402588008644a900f0092000d6
:10b6100080248800f0092000602488008804a800a5
:10b62000008021004800de00c02488009424a80087
:10b630000000eb00b02488000000eb0060258800cb
:10b640009424a9000040eb00004f78000700370069
:10b650001e80fb00c200dd00008021000081400050
:10b660006000b8000089be001e4fe80070c0b30043
:10b670009e4f1000f6ff3600d000200050258800b5
:10b680000200370080002000502488008ac4bf00d8
:10b69000684060000004e000faff3a000040eb0060
:10b6a0002ef9b7000040eb0039f9b7003ad9bf00d6
:10b6b000604060003af9b7003bd9bf0060406000cd
:10b6c0003bf9b70094a4a9000040eb00004f7800bc
:10b6d0000d0037001e80fb0080004000e093210039
:10b6e000808040000000eb00800878001e80fb0096
:10b6f0008000400080942100808040000000eb002a
:10b70000800878001e4fe80010c0b3009e4f100064
:10b71000f0ff360080802100f0c988000040eb0077
:10b7200036f9b7000000eb00a0c988000080fa00dd
:10b73000000006003600f800809fbe00829fbe0019
:10b74000849fbe00869fbe003400f80000002000e9
:10b75000a00188000200fa00a0c98000e10f50009b
:10b760000a003a0094c4bf000044b2000004e000a4
:10b7700006003a00f00f2000502488008c04a80036
:10b780008c84a80020002000a0c9880080c4bf00cd
:10b79000704060000004e0000700320082c4bf0077
:10b7a000704060000004e00003003200000120004f
:10b7b00000248800a200070088c4bf006240600027
:10b7c0000004e000020032008ec0a90073003700c0
:10b7d0008ac4bf00614060000004e000180032002d
:10b7e0008cc4bf00614060000004e000140032001f
:10b7f0007bff07009ec0a80040002000a0c9880071
:10b800008095210010c0880080c0b30000f8b70008
:10b81000118021009140780030c0b30000c060006a
:10b8200001f8b7001180210091407800c0c8b30032
